:100000000C948D030C94B5030C94B5030C94B503B8
:100010000C94B5030C94B5030C94B5030C94B50380
:100020000C94B5030C94B5030C94B5030C94EB132A
:100030000C94B5030C94B5030C94B5030C94B50360
:100040000C9462140C94B5030C94B5030C94B50392
:100050000C94B5030C94B5030C94B5030C94B50340
:100060000C94B5030C94B503100800180018008A0E
:10007000014C02383E0C7E127E36080800000880D3
:1000800000008010080800004A2945A99252402427
:100090000000000000000000000000000000000060
:1000A0000000000000000000003C001C00001FC019
:1000B000003E001C0000FFF8007E001C0001C03064
:1000C00000E7001C0003800000E7001C0003800024
:1000D00001C3801C0003800001C3C01C0003E000BA
:1000E0000381C01C0001FC000701E01C00007F80B0
:1000F0000700E01C00000FE00E00701C000000F084
:100100000FFFF01C000000781FFFF81C00000038F3
:100110001C003C1C0000003838001C1C000000388B
:1001200078001E1C000700F070000E1FFFC7FFE0E4
:1001300020000C1FFFC07F00000000000000000036
:1001400000000000000000000000000000000000AF
:100150000186008186000000018600818600000083
:1001600001C638018E380100014A64014A4C9900E9
:10017000012A4201528499000132420132848900ED
:10018000013242013284660001026401024C6600C1
:100190000102380102386600000000000000000083
:1001A000000000000000000000000000000000004F
:1001B00050100000000000000000000000000000DF
:1001C000000000001C00003FC000000000003E00D6
:1001D000007FE000000000007F0000FFF000000052
:1001E00000007F0001FFF800000000007F0003FF17
:1001F000FC00000000003E0003FFFC0000000000C7
:100200001C0003FFFC0000000000000003FFFC00D6
:1002100000000000000003FFFC00000000000000E0
:1002200003FFFC0000000000000003FFFC000000D2
:100230000000000003FFFC0000000000000003FFBE
:10024000FC0000000000000003FFFC0000000000B4
:10025000000050200000000000000000000000002E
:10026000000000800000000000000000008000008E
:10027000000000000000014000000000000000003D
:1002800001C000000000000000000220000000008B
:10029000000000000220000000000000000000003C
:1002A00000000000000000000000000000000C0042
:1002B0000CC7061C18FF3F8004000CC7061C18FF63
:1002C0003FC0060E0CC7861E18C030E0060E18C7C9
:1002D000861E18C03060061E18C6C61B18C03060C7
:1002E000031A18C6C61B18C030C0031310C66619FF
:1002F00098FE3F80033330C6661998FE3F000331F5
:1003000030C63618D8C0318001B1B0C63618D8C052
:1003100030C001A1A0C61E1878C030C001E1E0C6FF
:100320001E1878C0306000E0E0C60E1838FF30605C
:1003300000C0C0C60E1838FF3030000000000000BA
:1003400000000000000000000000000000000000AD
:100350000026113914000000000000290A4514008D
:1003600000000000002404451400000000000022EA
:10037000044514000000000000290445100000009E
:10038000000000260438E400000000000000000027
:100390000000000057656C6C204D6F776E210003E4
:1003A000053F213F1208120A100A0E1C0E0C1E0CEB
:1003B000141A14161F161E131E1E1B1E1E1F1E3F70
:1003C000213F3A2F3A173D173F213F181F02040AD9
:1003D000041F0E04040E1F0A1F0A0E0E1F04110E26
:1003E0002E252E2F2A2E262929021F02081F081526
:1003F0000E04040E150E15151B151B040604040C23
:10040000040000000017000300031F0A1F16371A1C
:100410001904130A153A000300000E11110E000A08
:10042000040A040E04003000040404001000180440
:10043000031F111F121F101D151711151F07041F71
:1004400017151D1F151D01011F1F151F17151F0053
:100450000A00003200040A110A0A0A110A040115EE
:10046000020E11171E051E1F150A0E110A1F110E6E
:100470001F15111F05010E111D1F041F111F11084B
:10048000100F1F041B1F10101F061F1E040F0E113C
:100490000E1F09060E112E1F051A121509011F0144
:1004A0001F101F0F180F1F0C1F1B041B031C031909
:1004B0001513001F11030418111F00020102202050
:1004C000200001020C121E1F120C0C12120C121F23
:1004D0000C1A14041E05242A1E1F021C141D1020B1
:1004E000201D1F0814111F101E041E1E021C0C12BA
:1004F0000C3E0A040C123E1E040214160A020F12CD
:100500000E101E0E100E1E081E120C1226281E3271
:100510002A26041E21001F00211E040102013F2182
:100520003F0A4E6F2053442063617264206F720A49
:100530006E6F204C4F414445522E4845580A0A15CB
:100540003A45786974001D20466C617368696E676E
:100550000A20206C6F616465722E2E2E0A0A444FA9
:100560004E2754205455524E204F464621000A0A29
:10057000153A49676E6F7265006D560A0A504C4510
:10058000415345205455524E204F464620004C4F73
:100590005720424154544552592120001773617627
:1005A0006500166261636B001574797065000A0A54
:1005B0000A153A6F6B617920163A656469740059BF
:1005C0006F7520656E74657265640A00540A03E1F4
:1005D00081867F3E186D830F0F0E0183866033186E
:1005E0006DC3198F1803C38E6033186DE330CF18B5
:1005F00003C39E603630CDE360CF3006C79E7E3E9B
:1006000030CDB360CF300CC6F6603330D9B660CF92
:1006100033CFCCF66061B0DB1E60CF30D86CE6C063
:1006200061B0DB1E618F19986CC6C063B19B0E333D
:100630000F0FB078C6FF7E1F1B061E0F1753440016
:100640001613780016131400151020001520100042
:10065000000005008930080238024978681400005B
:100660004500680100000500680138010000050030
:10067000380168010000F6E8DBCFC3B8AEA49B9256
:100680008A827B746E68625C57524E4945413E3A9D
:100690003734312E2C29272523211F1D1C1A191709
:1006A000161514131211100F0E0D0C0B0A09080762
:1006B00006B506B9060101F7030101FF03000000BA
:1006C00000240027002A0000000000250028002B3D
:1006D0000000000000230026002900040404040494
:1006E00004040402020202020203030303030301DF
:1006F00002040810204080010204081020010204B6
:10070000081020000000070002010000030406009A
:100710000000000000000000B70311241FBECFEF4F
:10072000D8E0DEBFCDBF11E0A0E0B1E0ECEAF4E339
:1007300002C005900D92A231B107D9F713E0A2E1F2
:10074000B1E001C01D92AD3AB107E1F717E0CAE18F
:10075000D7E004C02297FE010E94501AC831D10789
:10076000C9F70E94DA160C94541A0C9400001092E7
:100770006301109262018DE091E09093610180939A
:1007800060010895CF92DF92EF92FF920F931F9333
:10079000CF93DF936C017B01C2E0D0E000E10DC09C
:1007A00080E691E0612F402F24E830E00E94D308DA
:1007B000185F1035A9F72196085FF70180819181B4
:1007C00068E070E00E94FE19C617D70724F0C0E069
:1007D000D0E010E00DC010E0E3CF80E691E0612FA3
:1007E000F701408124E830E00E94D3082196185F89
:1007F000F6018081918168E070E00E94FE196C171B
:100800007D075CF7EB0122960EC0CE01880F880FA2
:10081000880F682F80E691E0F70140812AE730E0F9
:100820000E94D3082196CA30D1057CF3F70180815C
:10083000918168E070E00E94FE19EB010BC080E638
:1008400091E0612F402F2AE730E00E94D308185F23
:100850001035A9F72196C630D1053CF4CE01880F9A
:10086000880F880F082F10E0EACFDF91CF911F91FA
:100870000F91FF90EF90DF90CF900895FC01DB0186
:1008800080819181019791838083805F9F4F5CF489
:100890008D919C911197089711969C938E9388E463
:1008A00090E0918380838D919C91409754F482E1F4
:1008B00091E064E973E040E50E94D20C81E080930E
:1008C0009D0108950F931F93DF93CF9300D0CDB771
:1008D000DEB78E010F5F1F4F2EC082E191E00E94B4
:1008E0001F0E882341F18CE191E064E041E00E9419
:1008F000E5058823D9F58091990190919A01409658
:100900009A83898389E991E06BE971E0A8010E94EB
:10091000C20380E691E060E040E020EB31E00E941D
:10092000D30880E691E06091990140919B0128E60F
:1009300030E00E94D30880919D01882371F282E10A
:1009400091E00E941F0E8823D1F380E691E060E0E1
:1009500040E020EB31E00E94D30880E691E060E0C7
:1009600040E122E532E00E94D308E9CF89E991E035
:100970006BE971E00E943E04BECF0F931F9302E12A
:1009800011E0C8010E94FB10C8016EE870E00E94EF
:10099000F51088E490E090939A018093990188E2A1
:1009A00090E090939C0180939B0110929D011F9178
:1009B0000F910895882319F48CB5806202C08CB51C
:1009C0008F7D8CBD08959CB5937F982B9CBD089519
:1009D0002CB5382F33702C7F322B3CBD2DB590E0D9
:1009E000959587959595879581702E7F822B8DBDE6
:1009F00008958AE061E00E9433168AE061E00E9477
:100A0000F4158CB580618CBD8CB580648CBD8DE097
:100A100061E00E94F4158BE061E00E94F4150895F6
:100A2000FC0181E08083089585E070E00E949415C8
:100A300008956F927F928F929F92AF92BF92CF92C2
:100A4000DF92EF92FF920F931F93CF93DF93EC010E
:100A500089819A818C0124E0000F111F2A95E1F70A
:100A6000081B190B85E10E947215BC01600F711FF4
:100A700084E0769567958A95E1F77A836983888122
:100A8000882381F12E813F816217730710F4B90129
:100A900006C0888599858617970708F4BC0100D0A1
:100AA00000D080E090E040E050E0E884F98400E08D
:100AB00010E0AD80BB24CC24DD246C807724882416
:100AC0009924EDB7FEB761827282838294820E947C
:100AD00065186B830F900F900F900F9085E070E07A
:100AE0000E949415DF91CF911F910F91FF90EF908D
:100AF000DF90CF90BF90AF909F908F907F906F903E
:100B00000895FC018CE39FE09383828384E08183DA
:100B100081E084870895CF93DF93EC018C819D81E0
:100B2000892BB1F18C8590E08F719070892B69F5DC
:100B300084E10E947215AA2797FDA095BA2FBC01E7
:100B4000CD010E94DC1826EE3FE34EEC50E40E94FB
:100B500068190E94AE189B01AC017B836A83611502
:100B6000710589F084E08983B901FE0120E0848168
:100B700095816817790710F429830AC02F5F329690
:100B80002430A9F702C08FEF89838C858F5F8C8713
:100B9000DF91CF910895FC0188E0808389E0818313
:100BA00087E0828386E0838384E0848382E0858398
:100BB00081E18683089520E0FC01E60FF11D878125
:100BC000813009F421E0822F0895E62FF0E04230D1
:100BD00040F420E0E80FF91F878181508E3F88F4B0
:100BE0000FC0E80FF91F87818F3F11F420E009C083
:100BF00020E090E0642F70E00E94EA19019709F468
:100C000021E0822F08950F931F93CF93DF93EC0180
:100C100010E00FEF888162E00E94F41588810E9445
:100C200087162F81892B19F42F5F2F8307C022236A
:100C300049F02F3F11F41F8201C00F83888160E0CB
:100C40000E94F4151F5F2196173021F7DF91CF9195
:100C50001F910F910895FC01742F643508F06FC047
:100C600047FD6DC040330CF06AC080A1823021F591
:100C7000842F859585958595992787FD9095462F95
:100C8000552747FD509524E530E0829FF001839F72
:100C9000F00D929FF00D1124E40FF51FE256FE4F68
:100CA000808190E0272F277002C0959587952A951F
:100CB000E2F78095817009C0833039F49485842FE0
:100CC0008627892780FF03C01FC08823E9F4E72F08
:100CD000E595E595E59584E5E802F0011124862F78
:100CE000992787FD9095E80FF91FE256FE4F777020
:100CF00081E090E002C0880F991F7A95E2F7809515
:100D00002081282320830895E72FE595E595E59533
:100D100084E5E802F0011124862F992787FD90953C
:100D2000E80FF91FE256FE4F777081E090E002C0B5
:100D3000880F991F7A95E2F72081282B2083089548
:100D4000FC0160A361A30895FC0160A341A3089581
:100D5000EF92FF920F931F93CF93DF93EC01E62E58
:100D6000F42E022F10E007C0412F4F0DCE016E2D43
:100D70000E942B061F5F1017BCF3DF91CF911F91CC
:100D80000F91FF90EF900895EF92FF920F931F93B2
:100D9000CF93DF93EC01E62EF42E022F10E007C074
:100DA000612F6E0DCE014F2D0E942B061F5F101775
:100DB000BCF3DF91CF911F910F91FF90EF900895B9
:100DC0009F92AF92BF92CF92DF92EF92FF920F93DA
:100DD0001F93CF93DF936C01962EB42EA22EC0E00A
:100DE000D0E0E42EFF24E7FCF094112707FD1095D6
:100DF0000E0D1F1D06C0C601692D2A2D0E94C406B6
:100E000021964B2D4C0FCE018E0D9F1D8017910703
:100E100094F3DF91CF911F910F91FF90EF90DF90AE
:100E2000CF90BF90AF909F9008952F923F925F9286
:100E30006F927F928F929F92AF92BF92CF92DF92EA
:100E4000EF92FF920F931F93DF93CF9300D000D0C8
:100E500000D0CDB7DEB79E838D83C62ED42EEE2470
:100E6000E394E21A8EEF289F502C1124842E8A944A
:100E7000962E9A94A42EA394B62EB394F22E6624A2
:100E800023E0722E10E0C801847090709A838983E9
:100E9000F801E270F070FC83EB8398E0292E312C8E
:100EA000202231220170107054C0E7FC04C0FA9473
:100EB000F2E05F0EE50C639489819A81892B71F0D1
:100EC0004F2D4D0D8D819E816B2D0E942B066F2D18
:100ED0006C0D8D819E814A2D0E942B06EB81FC8139
:100EE000EF2B71F04D2D4F198D819E816B2D0E943E
:100EF0002B066F2D6C0D8D819E81482D0E942B0637
:100F00002114310471F06C2D6F198D819E814A2D51
:100F10000E942B064F2D4D0D8D819E81692D0E94C3
:100F20002B060115110571F06C2D6F198D819E81B5
:100F3000482D0E942B064D2D4F198D819E81692DC4
:100F40000E942B06E70CF2E07F0E8A949A94A394F9
:100F5000B3946F140CF4A9CF26960FB6F894DEBFA5
:100F60000FBECDBFCF91DF911F910F91FF90EF90FA
:100F7000DF90CF90BF90AF909F908F907F906F90B9
:100F80005F903F902F9008954F925F926F927F9263
:100F90008F929F92AF92BF92CF92DF92EF92FF9289
:100FA0000F931F93CF93DF93EC01A62E742E9E2DEB
:100FB000FF24F394F21A8EEF289F802C1124B42E74
:100FC000BA9453E0C52ECE0CE22EDD2443E0942EDD
:100FD00010E031E0432E512C40225122692E6394BF
:100FE0000270107034C0F7FC04C0EA9482E0880EEE
:100FF000F80CD3944114510489F06D2D6A0D472DDE
:101000004E192E2D220F260DCE010E94A8066E2D00
:101010006A0DCE014B2D2C2D0E94A806011511053D
:1010200089F06A2D6D19472D4E192E2D220F260D90
:10103000CE010E94A8066A2D6E19CE014B2D2C2DD3
:101040000E94A806F90C82E0980EBA94C80EDE142D
:1010500054F2DF91CF911F910F91FF90EF90DF90AD
:10106000CF90BF90AF909F908F907F906F905F9048
:101070004F9008957F928F929F92AF92BF92CF929E
:10108000DF92EF92FF920F931F936C01962EA42E86
:10109000F22E7E2C760E1EEFE19E102D1124812E55
:1010A000820E672D282D0E94C406B02EBA0CBA9469
:1010B000C601672D4B2D282D0E94C406AE0C100FC3
:1010C000C601692D4A2D212F0E94A806F90CFA9419
:1010D000C6016F2D4A2D212F0E94A806C601672D3B
:1010E0004A2D2E2D01E00E941507FE18C6016F2D16
:1010F0004A2D2E2D02E00E941507BE18C6016F2D45
:101100004B2D2E2D04E00E941507C601672D4B2D97
:101110002E2D08E00E9415071F910F91FF90EF9070
:10112000DF90CF90BF90AF909F908F907F90089569
:101130008F929F92AF92BF92CF92DF92EF92FF92E7
:101140000F931F936C01162FA42E922EF02EBE2CFF
:101150008E2C860E2EEFE29EE02C11242E2D290DD2
:10116000682D0E94E006AB0CFA94FE0C1150190D8C
:101170001B19C601612F4A2D2B2D01E0EF2C0E9477
:10118000C407C601682D4A2D2B2D02E00E94C4071A
:101190001F910F91FF90EF90DF90CF90BF90AF9095
:1011A0009F908F9008952F923F924F925F926F92EF
:1011B0007F928F929F92AF92BF92CF92DF92EF92E7
:1011C000FF920F931F93DF93CF9300D000D0CDB742
:1011D000DEB74C01D62E142FF901849131969491EB
:1011E0003197D40190966C90B3E5B6170CF457C1C3
:1011F000482F552747FD5095A62EBB24A7FCB09439
:101200002A014A0C5B1C141415040CF048C110335D
:101210000CF045C1092F212F332727FD3095892F49
:10122000992787FD9095820F931F181619060CF0C9
:1012300036C162E0E62EF12CEE0EFF1ECA010796C3
:1012400068E070E00E94FE19762E17FF0EC0010FB5
:10125000862F90E0FC01E29FC001E39F900DF29F7A
:10126000900D1124E81AF90A10E0802F992787FDC4
:101270009095212F332727FD3095820F931FC1971B
:1012800014F000E3011BD7FCDD24C2018535910574
:1012900014F084E590E0C82ED4011C969C90912611
:1012A000ED2DF0E0CF018A199B09AC014770507019
:1012B00020E830E002C0359527954A95E2F7B22E36
:1012C00068E070E00E94FE19AB014E0D5F1D5C836B
:1012D0004B83212F277081E090E0682F01C0660FBB
:1012E0002A95EAF715951595159584E51802A0013C
:1012F00011244E0F5F1F42565E4F8824202E332448
:1013000027FC3094472C5524C4C0EB81FC812491E8
:10131000F1E06F1629F5AB81BC817B2D022F7A019C
:101320001D2D1BC0872F90E0202F30E082239323B8
:10133000892B21F0F7018081862B8083872F90E015
:1013400095958795782F882321F41196FD010491B6
:1013500070E81F5F0894E11CF11C1C1518F38DC088
:10136000662059F5F62EF094AB81BC817B2D022FBF
:101370005A8349831D2D1EC0872F90E0202F30E017
:1013800082239323892B29F0E981FA8180818F219F
:101390008083872F90E095958795782F882321F477
:1013A0001196FD01049170E81F5F89819A81019671
:1013B0009A8389831C1500F360C093E0691639F0A5
:1013C000AB81BC817B2D022F7A011D2D54C0A62E2E
:1013D000A094AB81BC817B2D022F5A8349831D2DA4
:1013E000E92CFF2428C0872F90E0202F30E08223B3
:1013F0009323892B79F0812F90E08E259F25E98119
:10140000FA81908180FF02C0962B03C09A21E98166
:10141000FA819083872F90E095958795782F882380
:1014200021F41196FD01049170E81F5F89819A8172
:1014300001969A8389831C15B0F291E099261DC00C
:10144000872F90E0202F30E082239323892B21F0F7
:10145000F701808186278083872F90E09595879577
:10146000782F882321F41196FD01049170E81F5F05
:101470000894E11CF11C1C1518F3660F19F44C5A62
:101480005F4F61E083948B819C81840D951D9C83CB
:101490008B83882D90E0821593050CF436CF0F9046
:1014A0000F900F900F90CF91DF911F910F91FF90B0
:1014B000EF90DF90CF90BF90AF909F908F907F90F4
:1014C0006F905F904F903F902F900895DC01FB014B
:1014D00084918F5F14968C931497319684918F5FCB
:1014E00015968C93159731965F96FC93EE935E97C5
:1014F00008953F924F925F926F927F928F929F9248
:10150000AF92BF92CF92DF92EF92FF920F931F9311
:10151000CF93DF93EC01862EA42E422F102F38A0FC
:1015200023E526170CF4ABC03FE23A150CF4A7C034
:10153000C02EDD248C8190E001979C01C29EC001E9
:10154000C39E900DD29E900D1124262F332727FD88
:101550003095820F931F181619060CF090C08D81DC
:1015600090E09C01C29EC001C39E900DD29E900D42
:1015700011242A2D332727FD3095820F931F18162B
:1015800019060CF07CC09924442E55246DC09C0192
:10159000215030404217530711F460E00EC0429EC4
:1015A000C001439E900D529E900D1124840F951FF3
:1015B000EE8DFF8DE80FF91F64914C9DC0014D9D8C
:1015C000900D5C9D900D1124682C680EBB24792C25
:1015D000780C3FC0E62EFF2460FF19C0113039F4AB
:1015E0004B2D4A0DCE01672D0E942B062EC02C9D3F
:1015F000C0012D9D900D3C9D900D11244A2D480F4A
:10160000CE01662D212F012F0E94E0061EC099A158
:1016100088A19817D1F098A3113039F44B2D4A0DB9
:10162000CE01672D0E942B060FC02C9DC0012D9D61
:10163000900D3C9D900D11244A2D480FCE01662D32
:10164000212F012F0E94E00638A2F594E7946E2D19
:10165000B3942B2D332727FD30958D8190E02817EB
:1016600039070CF4B7CF9394492D552747FD509572
:101670008C8190E0481759070CF489CF38A2DF918C
:10168000CF911F910F91FF90EF90DF90CF90BF907F
:10169000AF909F908F907F906F905F904F903F9012
:1016A00008950F93CF93DF93EC01262F6A3049F40E
:1016B0008D819885899F802D11249A85980F9A870E
:1016C00026C06D3029F169854A8508850E94790A0E
:1016D0009C816885969F402D11248985480F4987F4
:1016E0008F818823A9F0552747FD5095699F900168
:1016F000112484E590E0821B930B8417950744F432
:101700009D81699F902D11248A85890F8A8719866A
:1017100081E090E0DF91CF910F9108951F93CF93D7
:10172000DF93EC01162FF8948F8560E00E9433164A
:10173000888918161CF460E00E9433161EBD0DB493
:1017400007FEFDCF8EB5888918161CF461E00E9453
:1017500033167894DF91CF911F910895FF920F93E4
:101760001F93CF93DF93EC018C858F5F8C87FF24D1
:1017700000E010E06F2D6064CE010E948E0BCE0160
:1017800060E80E948E0B8F8561E00E943316888985
:1017900018161CF460E00E943316F801E256FE4F62
:1017A00090E080818EBD0DB407FEFDCF8EB59F5FAA
:1017B00031969435B1F7888918161CF461E00E94BF
:1017C0003316F3940C5A1F4F86E0F81699F6CE01A3
:1017D00060E40E948E0BDF91CF911F910F91FF90DB
:1017E0000895CF93DF93DC0188EF91E0EEE9F1E01B
:1017F000EF019C01199221503040E1F719961C929B
:1018000019971A961C92DF91CF910895EF920F933A
:10181000CF93DF93EC014E876D872F87E98A088B82
:1018200081E0888788A319A28F83EFE9F3E0849190
:101830008F5F8C83319684918F5F8D833196FF8F7C
:10184000EE8F0E94F90481E00E94DA0485E00E9494
:10185000E8048CE00E94E3048E8561E00E94F415A8
:101860008D8561E00E94F4158F8561E00E94F4157A
:10187000898918161CF461E00E94F41588891816ED
:101880001CF461E00E94F415898918166CF460E07C
:101890000E9433166AE070E080E090E00E94DE145F
:1018A000898961E00E943316ED852E2F332727FDAD
:1018B0003095F901E552F94FE491F0E0EE0FFF1F8A
:1018C000E953F94F859194919D8B8C8B2151394F20
:1018D000F90184918B8FEE852E2F332727FD3095CC
:1018E000F901E552F94FE491F0E0EE0FFF1FE953E3
:1018F000F94F859194919B8B8A8B2151394FF90136
:1019000084918A8FE8892E2F332727FD3095F9019E
:10191000E552F94FE491F0E0EE0FFF1FE953F94F64
:10192000859194919F8B8E8B2151394FF901849130
:101930008C8FEF852E2F332727FD3095F901E55247
:10194000F94FE491F0E0EE0FFF1FE953F94F859155
:101950009491998F888F2151394FF90184918D8FFE
:10196000CE0161E20E948E0BCE0164E10E948E0BDB
:101970008B8587FF02C08FE78B876B856068CE0100
:101980000E948E0BCE0160E20E948E0BCE016CE0B5
:101990000E948E0BCE010E94AE0BDF91CF910F9172
:1019A000EF900895FC01EC57FF4F61937193445FF2
:1019B00040830895CF93DF93DC01E0E8F7E785915A
:1019C0009491ED01C75ADF4FAD0140595F4F8150EF
:1019D000904C09F04EC0E6E9F7E7E491E883E7E9C7
:1019E000F7E7E4911496EC931497E8E9F7E7E491AC
:1019F0001596EC931597E9E9F7E785919491179679
:101A00009C938E931697EBE9F7E78591949119963D
:101A10009C938E931897EDE9F7E7E4919B96EC93EE
:101A20009B97EEE9F7E7E4919A96EC939A97EFE9A2
:101A3000F7E7E491EA01E883E0EAF7E7859194911A
:101A40005D969C938E935C97E2EAF7E7859194917B
:101A50005F969C938E935E97E4EAF7E78591949165
:101A600091969C938E939097E6EAF7E785919491EF
:101A700032C08CE3888314961C9214972FEF15962E
:101A80002C93159780E293E017969C938E9316976C
:101A900084ED93E019969C938E93189781E09B9622
:101AA0008C939B979A968C939A97FA0120838CEA51
:101AB0009DE05D969C938E935C978EED9DE05F9686
:101AC0009C938E935E9784E79EE091969C938E9371
:101AD00090978CE39FE093969C938E939297DF91DF
:101AE000CF910895EF92FF920F931F93CF93DF93BF
:101AF0007C018C01025B1F4FC8010E94F10BC801E1
:101B000066E475E00E941317C8010E94AE0B83E0E3
:101B10000E94E80480E091E0EEEFFFE3099584E5A0
:101B200090E0E80EF91EF7011082C80161E275E04D
:101B30000E945E17C8010E94AE0BE701CA54D04054
:101B4000CE010E940306CE0164E00E94DB058823DB
:101B500039F462E370E080E090E00E94DE14F0CFA0
:101B6000DF91CF911F910F91FF90EF900895AF9269
:101B7000BF92CF92DF92EF92FF920F931F93CF937A
:101B8000DF93EC01CA57DF4F8881C658D0408823C5
:101B900009F44AC08C3010F010E002C01CE0181BA1
:101BA000CA5ADF4F81E08883C655D0406EE4C62E06
:101BB000D12CCC0EDD1EC60160E00E94A00653E5CC
:101BC000A52EB12CAC0EBD1EF50100814DE2F42E08
:101BD0004F2D401B410F0D5FC60160E024E533E04F
:101BE000E32E0E949808C60161E00E94A006F5015C
:101BF0000081F01AF10E0D5FC60160E04F2D24E563
:101C00000E943A08C95ADF4F84E08993F501808128
:101C1000181B115D1883AC9669917991C6010E94D9
:101C20001317888181508883DF91CF911F910F9185
:101C3000FF90EF90DF90CF90BF90AF900895AF925C
:101C4000BF92CF92DF92EF92FF920F931F93CF93A9
:101C5000DF93EC01E0E8AE2EB12CA80EB91EF50121
:101C6000E080F180028113810E94AA14E61AF70A2B
:101C7000080B190B7FE7C72ED12CCC0EDD1EF60109
:101C8000808190E0A0E0B0E08E159F05A007B1072D
:101C900008F081C08E0105581F4FF80180819181A5
:101CA000A281B3810097A105B10509F474C00E9417
:101CB000AA14F6012081620F711D811D911DF5018D
:101CC0006083718382839383FE01EF58FF4F80818D
:101CD0009181A281B3810196A11DB11D8083918361
:101CE000A283B383F80110821182128213820E94B0
:101CF000B814C958DF4F688379838A839B83C75799
:101D0000D040CE010E941905CE010A960E9403061A
:101D1000CE0148960E948B0581E032C08E010B5D9A
:101D20001F4FC8010E94BE11C8010E94BC12C80109
:101D30000E94B213CE010E94B70DCE010E94D80EB0
:101D40008E01025B1F4FC8010E94AE0BCC5ADF4FC1
:101D50008881C455D040882319F4C8010E94F10B32
:101D60000E94B814C558DF4F688379838A839B83A8
:101D7000249728813981621B730B7A936A9380E0E0
:101D8000DF91CF911F910F91FF90EF90DF90CF9057
:101D9000BF90AF900895C558DF4F88819981AA817F
:101DA000BB81CB57D0400097A105B10541F7B6CF15
:101DB000BF92CF92DF92EF92FF920F931F93CF9338
:101DC000DF93EC018C8D9D8D892B09F4A1C08E01D0
:101DD000025B1F4FC80161E040E00E94A406FE01C3
:101DE000E95AFF4FCE5ADF4F85E59881891B8083E2
:101DF00026961882C855D040698D613009F469C0B3
:101E0000613028F0888D653008F07CC076C0CE0146
:101E100085960E94C211CA5ADF4F81E08883C65559
:101E2000D040C8016FE973E00E94660A1D8E1C8EC7
:101E3000CC5ADF4F1882C455D040AAE0CA2ED12C0C
:101E4000CC0EDD1EBC2EED2EF8EAFF2ECE010E9438
:101E50001F0E8823D9F3C8016EE875E00E9413179E
:101E60006A8D7B8DC8014AE050E00E940118C801CC
:101E700069E775E00E9413176F2D62956F70C801B6
:101E800070E04AE050E00E945218C8016EE675E02A
:101E90000E941317C60164E00E94DB058823C1F588
:101EA000FA94A1F68B2D9E2D60E00E94140583B755
:101EB000817F846083BF83B7816083BF83B7816084
:101EC00083BF889583B78E7F83BF83B78E7F83BFA1
:101ED000BDCFCF58DF4F88819981AA81BB818F7098
:101EE0009070A070B0700897A105B10518F4C801F2
:101EF00067E00CC0C80168E709C0882349F06B5F40
:101F0000C80104C0882321F0C8016FE20E9436177F
:101F1000DF91CF911F910F91FF90EF90DF90CF90C5
:101F2000BF9008952F923F924F925F926F927F924F
:101F30008F929F92AF92BF92CF92DF92EF92FF92D9
:101F40000F931F93DF93CF93CDB7DEB72B970FB6C9
:101F5000F894DEBF0FBECDBF9B878A877A836983E3
:101F60005C834B838C0100591F4FF80180818823CB
:101F700009F422C18A859B858A5A9F4F9B878A874D
:101F800081E0EA85FB85808312921292E455F0404D
:101F9000FB87EA87108E4EE4E42EF12CEE0EFF1E36
:101FA000C70161E00E94A0063AE0232E312C8A8509
:101FB0009B85280E391E25E2622E712C680E791E33
:101FC000E981FA81F491FD83B7E58B2E912C880E7F
:101FD000991EA8E5CA2ED12CC80ED91EF2E54F2EA7
:101FE000512C480E591E8D5A9F4F9F838E83E1E7D7
:101FF000AE2EB12C8A859B85A80EB91E198708873D
:102000008A859B850E941F0E8823D1F39D81992389
:1020100011F410E003C0EE81FF811081C70160E080
:1020200040E02CEC35E00E94D3088B819C81892B09
:1020300041F0145FC70160E0412F2B813C810E9479
:10204000D308F40110828CE0F6018083C701698116
:102050007A810E941317F201208130E0C901880FB4
:10206000991F820F931F909581959F4F8D5AF40170
:102070008083EE81FF81208130E0C901880F991FA4
:10208000820F931F909581959F4F835DF60180830A
:10209000F501808184FF04C0C7016CE476E003C0D1
:1020A000C70168E476E00E945E17F201208130E00B
:1020B000C901880F991F820F931F909581959F4F9B
:1020C0008D5AF4018083F60180818F5F8083EA85D9
:1020D000FB8582A5882321F0C70164E476E003C074
:1020E000C70160E476E00E945E17F201808190E013
:1020F0009C01220F331F280F391F309521953F4F28
:102100002D5AF4012083F60180818F5F8083C701FF
:102110006CE376E00E945E17C10165E00E94DB057A
:10212000882351F0EA85FB8562A56F5FC3010E9499
:102130001B14C3010E941514C10164E00E94DB0559
:10214000882399F4E885F9856081262F30E040E006
:1021500050E0F50180819181A281B38182179307BC
:10216000A407B50708F16F3FF9F08A859B85805970
:102170009F4F9B878A878FEFEA85FB858083E05797
:10218000F040FB87EA87C30160E00E946211C3014F
:102190000E940F1481E0EA85FB85808F0DC08A853F
:1021A0009B850E94720D2CCFC10166E00E94DB0569
:1021B000882309F425CFF3CF2B960FB6F894DEBF12
:1021C0000FBECDBFCF91DF911F910F91FF90EF9088
:1021D000DF90CF90BF90AF909F908F907F906F9047
:1021E0005F904F903F902F900895AB0161E576E0AE
:1021F0000E94920F0895AF92BF92CF92DF92EF921A
:102200000F93CF93DF936C018FE790E0C80ED91E38
:1022100082E3F601808381E090E0A0E0B0E0B29339
:10222000A293929382936F0185EF9FEFC80ED91E00
:102230008FEFF601808380E99FEFC80ED91EC6019B
:102240000E94DA0CC6010E941005C6016FEF0E94C1
:1022500014056AE0A62EB12CAC0CBD1CC5010E9471
:10226000CB05C5010E940306C60148960E94810560
:10227000C601825B9F4F6DE04BE020E10FE05EE026
:10228000E52E0E94060CE601A596CE010E942814B8
:10229000C50165E00E94DB05882329F0CE0160E0DE
:1022A0000E941B1406C0CE0162E576E040E00E9469
:1022B0007411DF91CF910F91EF90DF90CF90BF908D
:1022C000AF900895FC01662371F4178A158A14A251
:1022D00013A2108E1092A2031092A10310929F03DA
:1022E0001092B400118208950F931F93CF93DF9340
:1022F000EC018B01442371F460E00E9462111E879F
:102300000D871B8A1A8A81E0898389E08E8B198E5A
:102310001B8E1D8EDF91CF911F910F910895CF934A
:10232000DF93EC01662339F58881882321F18981C7
:10233000882309F5898590E0880F991FEF81F8853A
:10234000E80FF91F859194912FEF8F3F920711F4B9
:10235000188211C09C8790E0880F991FEA85FB8541
:10236000E80FF91F65917491CE0140E00E9474114D
:1023700089858F5F8987DF91CF91089560E00E9402
:102380008F11089560E00E94621108950F93DC019F
:10239000002309F069C0623009F443C0633030F4AF
:1023A000662359F0613009F05FC00DC0633009F455
:1023B00044C0643009F058C04CC04B3008F04AE0CB
:1023C00056964C9351C0842F90E0880F991F1F960A
:1023D0002D913C915097280F391FF90185919491C7
:1023E00090969C938E935F97FC014591549114961F
:1023F0008C911497849F602D112491966C939197E2
:10240000252F3327862F90E02817390708F4652FEA
:1024100014968C911497689F802D112492968C931A
:1024200023C014968C911497489F802D112459969F
:102430008C9359975A962C9317C014968C91149795
:10244000489F802D11245B968C935B975C962C9310
:102450000BC014968C911497489F802D11245D9683
:102460008C935D975E962C930F9108950F93CF9365
:10247000DF93EC01662309F07BC08981882309F48E
:1024800077C08D89882309F073C0EA89FB89EE0F34
:10249000FF1F4D855E85E40FF51F259134912115B1
:1024A000310509F049C08989813031F41B8A1A8AC3
:1024B000FA012591349140C019828881882379F0EE
:1024C000CE0160E00E948F118A899B89880F991F35
:1024D000ED85FE85E80FF91F259134912DC01F8AE7
:1024E0001D8A1CA21BA2188E1092A2031092A10397
:1024F00010929F031092B4003BC006E036952795DA
:102500000A95E1F76F70422F4F71B5E03695279528
:10251000BA95E1F72051CE0100E00E94C6118A89E8
:102520009B8901969B8B8A8B880F991FED85FE8571
:10253000E80FF91F25913491B90176956795769545
:10254000679520FDDACF862F8F738C8B8C81839FCC
:10255000802D11248D8B1DA21CA21BA281E08F8BCC
:1025600080939F03188E8A899B8901969B8B8A8B07
:10257000DF91CF910F91089560E00E943612089587
:10258000CF93DF93EC01662309F0E9C08F8988239C
:1025900009F4E5C08D89882371F41F8A1D8A1CA265
:1025A0001BA2188E1092A2031092A10310929F03F7
:1025B0001092B400D4C081508D8B8DA1882309F076
:1025C00044C08BA19CA10196880F991FEF8DF8A1A3
:1025D000E80FF91F85919491282F27702EA3AC0145
:1025E00073E0569547957A95E1F79A0136952795C8
:1025F000892F9927869586958FA32F738C81289F85
:10260000202D11242DA341704093A3038BA19CA1E5
:1026100001969CA38BA329A130E082179307A8F011
:102620008AA1882329F0281B31093CA32BA30DC0C4
:102630001F8A1D8A1CA21BA2188E1092A203109240
:10264000A10310929F031092B4008DA181508DA31D
:10265000988D9F5F988F2FA18C89280F8C85280FCC
:102660002A836B8D662369F0892F992787FD9095C2
:1026700070E00E94FE198C8D869F802D1124820FA0
:102680008A838A8190E0CB966BE370E00E94FE190A
:102690008A832E892B83698D662379F0888D77272D
:1026A00067FD7095992787FD90950E94FE198A8D88
:1026B000869F802D1124820F8B836D8D662399F068
:1026C000888D992787FD909570E00E94FE19CB01B7
:1026D00062E070E00E94FE199E8D899F802D11247A
:1026E0009B81890F8B838B818A300CF089E087FD79
:1026F00080E08B838C898F3309F41B82F894EA8104
:10270000F0E0EA58F94FE491E093A0032D8130E026
:102710008B81992787FD9095A901489F9001499F3A
:10272000300D589F300D112488A590E0A901489FD5
:102730009001499F300D589F300D11248EA199278B
:1027400087FD9095AC01249FC001259F900D349F7B
:10275000900D11248093A1038093A2037894DF91BC
:10276000CF91089560E00E94C01208956091A10386
:10277000662381F180919E038F5F80939E039091E9
:10278000A003891738F130E080919F03882309F472
:1027900031E030939F0310929E038091A30388231E
:1027A000A9F08091070123E4829FC0011124895B75
:1027B0008093070190E070E00E94EA198093A203E1
:1027C00005C08091A2038093B40008953323C9F714
:1027D00080E0F9CF08951F920F920FB60F92112447
:1027E0002F933F934F935F936F937F938F939F9319
:1027F000AF93BF93EF93FF930E94B613FF91EF91B6
:10280000BF91AF919F918F917F916F915F914F9108
:102810003F912F910F900FBE0F901F9018956EE66D
:1028200076E040E00E947411089560E676E040E0B2
:102830000E9474110895FC01862F668170E06F5F1D
:102840007F4F992787FD90950E94FE1985830895F3
:102850000F93FC0181E0848384E080A781EB96E004
:10286000908B8787CF0161E040E020E000E00E948C
:10287000C61183E061E070E00E949415E1EBF0E0A6
:102880008081887F81608083F89410928000E1E8E5
:10289000F0E01082109285001092840088E191E0AF
:1028A00090938900809388008081886080838081F4
:1028B00081608083EFE6F0E080818260808378949D
:1028C0000F9108951F920F920FB60F9211242F931C
:1028D0003F938F939F93AF93BF938091A803909161
:1028E000A903A091AA03B091AB033091AC03019668
:1028F000A11DB11D232F2D5F2D3720F02D570196DF
:10290000A11DB11D2093AC038093A8039093A9034C
:10291000A093AA03B093AB038091A4039091A50365
:10292000A091A603B091A7030196A11DB11D8093AC
:10293000A4039093A503A093A603B093A703BF910C
:10294000AF919F918F913F912F910F900FBE0F905C
:102950001F9018958FB7F8942091A8033091A90380
:102960004091AA035091AB038FBFB901CA010895EA
:102970009FB7F8942091A4033091A5034091A6033A
:102980005091A70386B5A89B06C08F3F21F02F5F0B
:102990003F4F4F4F5F4F9FBF542F432F322F222760
:1029A000280F311D411D511D82E0220F331F441F8E
:1029B000551F8A95D1F7B901CA0108959B01AC0151
:1029C0007FB7F8948091A4039091A503A091A603EA
:1029D000B091A70366B5A89B05C06F3F19F001969B
:1029E000A11DB11D7FBFBA2FA92F982F8827860F51
:1029F000911DA11DB11D62E0880F991FAA1FBB1F69
:102A00006A95D1F7BC012DC0FFB7F8948091A4035B
:102A10009091A503A091A603B091A703E6B5A89B4A
:102A200005C0EF3F19F00196A11DB11DFFBFBA2FE0
:102A3000A92F982F88278E0F911DA11DB11DE2E0AF
:102A4000880F991FAA1FBB1FEA95D1F7861B970B0A
:102A5000885E9340C8F22150304040405040685159
:102A60007C4F211531054105510571F60895789483
:102A700084B5826084BD84B5816084BD85B5826083
:102A800085BD85B5816085BDEEE6F0E08081816021
:102A90008083E1E8F0E01082808182608083808121
:102AA00081608083E0E8F0E0808181608083E1EBF9
:102AB000F0E0808184608083E0EBF0E080818160E1
:102AC0008083EAE7F0E08081846080838081826097
:102AD0008083808181608083808180688083109280
:102AE000C1000895982F8E3008F09E509770809105
:102AF00008018295880F880F807C892B80937C0049
:102B000080917A00806480937A0080917A0086FDBB
:102B1000FCCF2091780040917900942F80E030E044
:102B2000282B392BC90108951F93CF93DF93182FBA
:102B3000EB0161E00E94F415209709F44AC0CF3FF1
:102B4000D10509F449C0E12FF0E0ED5FF84F849121
:102B50008330C1F0843028F4813051F08230B1F5F7
:102B60000CC0863019F1873049F1843079F514C0F2
:102B700084B5806884BDC7BD33C084B5806284BD20
:102B8000C8BD2EC080918000806880938000D09363
:102B90008900C093880024C0809180008062809367
:102BA0008000D0938B00C0938A001AC08091B0003F
:102BB00080688093B000C093B30012C08091B000D1
:102BC00080628093B000C093B4000AC0C038D105C1
:102BD0001CF4812F60E002C0812F61E00E94331657
:102BE000DF91CF911F910895CF93DF93482F50E04D
:102BF000CA018151994FFC0134914552594FFA0154
:102C00008491882369F190E0880F991FFC01E354B7
:102C1000F94FA591B491FC01E953F94FC591D491B5
:102C2000662351F42FB7F8948C91932F90958923B4
:102C30008C93888189230BC0623061F42FB7F8949C
:102C40008C91932F909589238C938881832B8883F3
:102C50002FBF06C09FB7F8948C91832B8C939FBF96
:102C6000DF91CF910895482F50E0CA018D5F984FB2
:102C7000FC012491CA018151994FFC019491455264
:102C8000594FFA013491332309F440C0222351F102
:102C9000233071F0243028F42130A1F0223011F5D6
:102CA00014C02630B1F02730C1F02430D9F404C06C
:102CB000809180008F7703C0809180008F7D80930A
:102CC000800010C084B58F7702C084B58F7D84BD2D
:102CD00009C08091B0008F7703C08091B0008F7DD4
:102CE0008093B000E32FF0E0EE0FFF1FE953F94FA0
:102CF000A591B4912FB7F894662321F48C91909507
:102D0000892302C08C91892B8C932FBF0895682F43
:102D100070E0CB018D5F984FFC012491CB01815174
:102D2000994FFC0144916552794FFB01949199238D
:102D300019F420E030E03CC0222351F1233071F03F
:102D4000243028F42130A1F0223011F514C02630AF
:102D5000B1F02730C1F02430D9F404C08091800054
:102D60008F7703C0809180008F7D8093800010C09A
:102D700084B58F7702C084B58F7D84BD09C08091F2
:102D8000B0008F7703C08091B0008F7D8093B0003A
:102D9000892F90E0880F991F8F52994FFC01A591C0
:102DA000B4918C9120E030E0842311F021E030E0F8
:102DB000C9010895CF93DF930E9437150E94BD0487
:102DC000C0E0D0E00E9462042097E1F30E9400007E
:102DD000F9CFCF92DF92EF92FF920F931F93CF9391
:102DE000DF937C016B018A01C0E0D0E00FC0D60107
:102DF0006D916D01D701ED91FC910190F081E02D75
:102E0000C7010995C80FD91F0150104001151105C0
:102E100071F7CE01DF91CF911F910F91FF90EF904D
:102E2000DF90CF900895EF92FF920F931F93CF936F
:102E3000DF937C018B01C0E0D0E0F8010F5F1F4FF2
:102E40006491662359F0D701ED91FC910190F081D6
:102E5000E02DC7010995C80FD91FEFCFCE01DF9133
:102E6000CF911F910F91FF90EF900895DC01ED91AC
:102E7000FC910190F081E02D09950895EF92FF9269
:102E80000F931F938C01DC01ED91FC910190F08177
:102E9000E02D6DE009957C01D801ED91FC91019048
:102EA000F081E02DC8016AE009959C012E0D3F1DBF
:102EB000C9011F910F91FF90EF900895EF92FF923B
:102EC0000F931F937C010E9413178C01C7010E946E
:102ED0003E179C01200F311FC9011F910F91FF90D8
:102EE000EF900895CF93DF93EC016115710519F40C
:102EF00020E030E00FC0DB010D900020E9F71197D2
:102F0000A61BB70BE881F9810280F381E02DAD01AA
:102F100009959C01C901DF91CF9108954F925F926D
:102F20007F928F929F92AF92BF92CF92DF92EF9259
:102F3000FF920F931F93DF93CF93CDB7DEB7A19787
:102F40000FB6F894DEBF0FBECDBF2C01742ECB019F
:102F5000223008F42AE019A231E2C32ED12CCC0E83
:102F6000DD1E822E9924AA24BB24672D752FA5016E
:102F700094010E94111A79018A01C801B701A501C3
:102F800094010E94CB19472D461B0894C108D10813
:102F90004A3014F4405D01C0495CF6014083E114FD
:102FA000F1040105110521F07E2C5F2DC801DDCF54
:102FB000C201B6010E947217A1960FB6F894DEBF47
:102FC0000FBECDBFCF91DF911F910F91FF90EF907A
:102FD000DF90CF90BF90AF909F908F907F905F9049
:102FE0004F900895DC012115310541F4ED91FC91DC
:102FF0000190F081E02D642F099508950E948E17AD
:103000000895EF92FF920F931F939A017B0100E0C6
:1030100010E0B801A7010E94F2171F910F91FF90D5
:10302000EF900895CF92DF92EF92FF920F931F934C
:10303000CF93DF93EC016A017B012115310541F447
:10304000E881F9810190F081E02D642F09951FC07E
:103050002A303105D1F477FF17C0E881F98101905A
:10306000F081E02D6DE209958C0144275527BA01C6
:103070004C195D096E097F09CE012AE00E948E1766
:103080009801280F391F04C02AE00E948E179C0166
:10309000C901DF91CF911F910F91FF90EF90DF90C9
:1030A000CF900895EF92FF920F931F937B019A01A7
:1030B0000027F7FC0095102FB801A7010E941218F5
:1030C0001F910F91FF90EF9008952F923F924F9292
:1030D0005F926F927F928F929F92AF92BF92CF92A8
:1030E000DF92EF92FF920F931F93DF93CF93CDB7B1
:1030F000DEB73B014C0119012A016D897E898F8958
:10310000988D6A197B098C099D09621A730A840AD1
:10311000950AA40193010E94CB19E218F30804094F
:103120001509A80197010E94331A2A0D3B1D4C1D59
:103130005D1DB901CA01CF91DF911F910F91FF90E1
:10314000EF90DF90CF90BF90AF909F908F907F9047
:103150006F905F904F903F902F90089598D088F097
:103160009F5790F0B92F9927B751A0F0D1F0660F73
:10317000771F881F991F1AF0BA95C9F712C0B1308E
:1031800081F09FD0B1E008959CC0672F782F8827E9
:10319000B85F39F0B93FCCF3869577956795B395CD
:1031A000D9F73EF490958095709561957F4F8F4F3C
:1031B0009F4F0895E89409C097FB3EF49095809541
:1031C000709561957F4F8F4F9F4F9923A9F0F92FED
:1031D00096E9BB279395F695879577956795B7956B
:1031E000F111F8CFFAF4BB0F11F460FF1BC06F5F51
:1031F0007F4F8F4F9F4F16C0882311F096E911C063
:10320000772321F09EE8872F762F05C0662371F083
:1032100096E8862F70E060E02AF09A95660F771F97
:10322000881FDAF7880F9695879597F9089597F98B
:103230009F6780E870E060E008959FEF80EC08955C
:1032400000240A9416161706180609060895002485
:103250000A9412161306140605060895092E0394FF
:10326000000C11F4882352F0BB0F40F4BF2B11F473
:1032700060FF04C06F5F7F4F8F4F9F4F089557FDD2
:103280009058440F551F59F05F3F71F04795880FD4
:1032900097FB991F61F09F3F79F08795089512166B
:1032A00013061406551FF2CF4695F1DF08C0161617
:1032B00017061806991FF1CF8695710561050894C8
:1032C0000895E894BB2766277727CB0197F90895DF
:1032D0000BD0C4CFB5DF28F0BADF18F0952309F082
:1032E000A6CFABCF1124EECFCADFA0F3959FD1F3C9
:1032F000950F50E0551F629FF001729FBB27F00DA4
:10330000B11D639FAA27F00DB11DAA1F649F6627F8
:10331000B00DA11D661F829F2227B00DA11D621F47
:10332000739FB00DA11D621F839FA00D611D221F01
:10333000749F3327A00D611D231F849F600D211DE5
:10334000822F762F6A2F11249F5750408AF0E1F088
:1033500088234AF0EE0FFF1FBB1F661F771F881FD1
:1033600091505040A9F79E3F510570F060CFAACF11
:103370005F3FECF3983EDCF3869577956795B795BC
:10338000F795E7959F5FC1F7FE2B880F911D9695E6
:10339000879597F90895629FD001739FF001829FEE
:1033A000E00DF11D649FE00DF11D929FF00D839FD4
:1033B000F00D749FF00D659FF00D9927729FB00D71
:1033C000E11DF91F639FB00DE11DF91FBD01CF0184
:1033D00011240895AA1BBB1B51E107C0AA1FBB1FE4
:1033E000A617B70710F0A61BB70B881F991F5A9591
:1033F000A9F780959095BC01CD01089597FB092E02
:1034000007260AD077FD04D0E5DF06D000201AF4A5
:10341000709561957F4F0895F6F7909581959F4F30
:103420000895A1E21A2EAA1BBB1BFD010DC0AA1F05
:10343000BB1FEE1FFF1FA217B307E407F50720F01D
:10344000A21BB30BE40BF50B661F771F881F991F98
:103450001A9469F760957095809590959B01AC01E1
:10346000BD01CF01089597FB092E05260ED057FD0B
:1034700004D0D7DF0AD0001C38F450954095309521
:1034800021953F4F4F4F5F4F0895F6F790958095E8
:10349000709561957F4F8F4F9F4F0895EE0FFF1FDF
:0C34A0000590F491E02D0994F894FFCF02
:1034AC004C4F4144455200010100000000510BE912
:0234BC001600F8
:00000001FF
