:100000000C9466020C948E020C948E020C948E0258
:100010000C948E020C948E020C948E020C948E0220
:100020000C948E020C948E020C948E020C94C31CC1
:100030000C948E020C948E020C948E020C948E0200
:100040000C94CB2E0C948E020C948E020C948E0287
:100050000C948E020C948E020C948E020C948E02E0
:100060000C948E020C948E02B003BC03CA03D80316
:10007000E603010412041D04C705C705C705C7052B
:10008000C705C7053704F0909090F02060202070DD
:10009000F010F080F0F010F010F09090F01010F0F0
:1000A00080F010F0F080F090F0F010204040F090E0
:1000B000F090F0F090F010F0F090F09090E090E080
:1000C00090E0F0808080F0E0909090E0F080F08010
:1000D000F0F080F080802F004C6F6164696E6720C3
:1000E00000507265737320150020001B2018201A21
:1000F0002019201520160042696E64696E67733AF4
:10010000200041203020422046003720382039206E
:100110004500342035203620440031203220332061
:1001200043001720746F20736B6970206B65790A28
:100130004B65797061643A00507265737320627523
:1001400074746F6E20666F722000436869703800A7
:100150004368697038004368697038007B016F013B
:1001600062015469746C652053637265656E004367
:100170006F6E666967204B657973004C6F61642010
:10018000524F4D0003053F213F1208120A100A0E7C
:100190001C0E0C1E0C141A14161F161E131E1E1BEA
:1001A0001E1E1F1E3F213F3A2F3A173D173F213F8A
:1001B000181F02040A041F0E04040E1F0A1F0A0E51
:1001C0000E1F04110E2E252E2F2A2E262929021F3E
:1001D00002081F08150E04040E150E15151B151B1D
:1001E000040604040C040000000017000300031FB1
:1001F0000A1F16371A1904130A153A000300000ED5
:1002000011110E000A040A040E0400300004040454
:100210000010001804031F111F121F101D151711C5
:10022000151F07041F17151D1F151D01011F1F1581
:100230001F17151F000A00003200040A110A0A0ADB
:10024000110A040115020E11171E051E1F150A0EB4
:10025000110A1F110E1F15111F05010E111D1F047C
:100260001F111F1108100F1F041B1F10101F061F46
:100270001E040F0E110E1F09060E112E1F051A1255
:100280001509011F011F101F0F180F1F0C1F1B0442
:100290001B031C03191513001F11030418111F0061
:1002A0000201022020200001020C121E1F120C0C61
:1002B00012120C121F0C1A14041E05242A1E1F02EF
:1002C0001C141D1020201D1F0814111F101E041EB9
:1002D0001E021C0C120C3E0A040C123E1E040214D8
:1002E000160A020F120E101E0E100E1E081E120C01
:1002F0001226281E322A26041E21001F00211E0459
:100300000102013F213F0A4E6F2053442063617276
:1003100064206F720A6E6F204C4F414445522E4844
:1003200045580A0A153A45786974001D20466C61E3
:100330007368696E670A20206C6F616465722E2E87
:100340002E0A0A444F4E2754205455524E204F46F1
:100350004621000A0A153A49676E6F7265006D56AC
:100360000A0A504C45415345205455524E204F46A1
:100370004620004C4F5720424154544552592120A9
:10038000001753440016137800161314001510209C
:100390000015201000540A03E181867F3E186D830A
:1003A0000F0F0E0183866033186DC3198F1803C3B6
:1003B0008E6033186DE330CF1803C39E603630CDA6
:1003C000E360CF3006C79E7E3E30CDB360CF300CA9
:1003D000C6F6603330D9B660CF33CFCCF66061B0AB
:1003E000DB1E60CF30D86CE6C061B0DB1E618F19B8
:1003F000986CC6C063B19B0E330F0FB078C6FF7EFA
:100400001F1B061E0F050089300802380249786854
:10041000140000F6E8DBCFC3B8AEA49B928A827BBF
:10042000746E68625C57524E4945413E3A373431EA
:100430002E2C29272523211F1D1C1A1917161514C8
:10044000131211100F0E0D0C0B0A090807064500B8
:10045000680100000500680138010000050038014E
:10046000680100006C0468040101FF030101F70347
:100470000000000800020100000304070000000063
:10048000000000000102040810204080010204085E
:1004900010200102040810200404040404040404CD
:1004A000020202020202030303030303000000002E
:1004B00023002600290000000000250028002B0052
:1004C00000000000240027002A00F20B11241FBEA8
:1004D000CFEFD8E0DEBFCDBF11E0A0E0B1E0E8E6AD
:1004E000FAE602C005900D92A635B107D9F727E0CC
:1004F000A6E5B1E001C01D92A13AB207E1F714E010
:10050000CCECD4E004C02297FE010E947C34CA3CAB
:10051000D107C9F70E94C8320C9432350C94000000
:10052000CF93DF93C0E0D0E0FE01EA57FF4F649124
:1005300070E0CE010E9484072196C035D105A1F755
:1005400080E2EAEDF3E0DF011D928A95E9F780E1B0
:10055000E0E0F4E0DF011D928A95E9F780E092E0A7
:100560009093FD038093FC031092D9031092D8035B
:1005700082E08093AD041092AC04DF91CF91089596
:100580008091FB03882319F081508093FB038091B5
:10059000FA03882319F081508093FA0308952F926B
:1005A0003F924F925F926F927F928F929F92AF9203
:1005B000BF92CF92DF92EF92FF920F931F93CF9350
:1005C000DF938091FC039091FD030E94A307809329
:1005D000AD048091FC039091FD0301960E94A30756
:1005E000282F8093AC04C091AD049C2F907F90374E
:1005F00009F4A2C0B8F4903309F47AC048F49031F9
:1006000009F46DC0903209F453C09111C0C235C0D5
:10061000903509F482C0903609F4A9C0903409F0ED
:10062000B6C273C0903B09F447C150F4903909F445
:100630002BC1903A09F437C1903809F0A8C284C0A0
:10064000903D09F446C190F4903C09F0A0C28FEFB0
:1006500090E00E94BE06E091AD04EF70F0E0E05043
:10066000FC4F9091AC049823908388C2903E09F48B
:100670007EC1903F09F4C0C18AC2E82FEF70A9F093
:10068000EE3009F084C2E091D803F091D90331979C
:10069000F093D903E093D803EF70FF27EE0FFF1F0D
:1006A000E652FC4F808191816DC20E94910666C224
:1006B000E091D803F091D9039F012F5F3F4F309312
:1006C000D9032093D803EF70FF27EE0FFF1FE652E8
:1006D000FC4F2091FC033091FD0331832083CF70C8
:1006E000E82FF0E0FC2BF093FD03E093FC034FC2F6
:1006F000CF70D0E0C050DC4F888182133FC2809120
:10070000FC039091FD0304963EC2CF70D0E0C05030
:10071000DC4F88818213F3CF31C2CF70D0E0C0505C
:10072000DC4FE82FE295EF70F0E0E050FC4F98814D
:100730008081981323C2E3CFCF70D0E0C050DC4F4C
:100740009881980F98831AC2482F4F7050E04F300D
:10075000510508F01CC2FA01EC5CFF4F0C947A348E
:10076000E82FE295EF70F0E0E050FC4F8081CF7011
:10077000D0E0C050DC4F7AC1CF70D0E0C050DC4F29
:10078000E82FE295EF70F0E0E050FC4F8081988117
:10079000892B6CC1CF70D0E0C050DC4FE82FE295C0
:1007A000EF70F0E0E050FC4F8081988189235EC1BA
:1007B000CF70D0E0C050DC4FE82FE295EF70F0E052
:1007C000E050FC4F80819881892750C1CF70D0E0E4
:1007D000C050DC4F2881E82FE295EF70F0E0E05048
:1007E000FC4F8081982F920F988390E0820F911D8B
:1007F00021E08F3F910509F00CF420E020930F04D5
:10080000BDC1CF70D0E0C050DC4F9881E82FE29599
:10081000EF70F0E0E050FC4F2081892F821B88832D
:10082000892F1AC0CF70D0E0C050DC4F888187700C
:1008300080930F048881869519C1E82FE295EF70A7
:10084000F0E0E050FC4F8081CF70D0E0C050DC4F32
:100850002881982F921B988390E0821B9109892F01
:100860008095881F8827881F80930F0487C1CF70C9
:10087000D0E0C050DC4F8881881F8827881F809374
:100880000F048881880FF2C0CF70D0E0C050DC4FD9
:10089000E82FE295EF70F0E0E050FC4F9881808106
:1008A00098132DCF6BC1CF70282E312C3C2A30925B
:1008B000FF032092FE0362C1CF70282E312C3C2A08
:1008C00080910004280E311C3092FD032092FC031D
:1008D0005EC1CF70D0E0C050DC4F8880E82FE29539
:1008E000EF70F0E0E050FC4FA080E82FEF70109226
:1008F0000F04C0E0D0E02E2E312C80E8482E512C81
:10090000B12C912CC215D3050CF038C18091FE0397
:100910009091FF038C0F9D1F0E94A3077C0100E0B4
:1009200010E0FF246E01CA0CDB1CC201002E02C0C5
:10093000959587950A94E2F78E219F21892B81F066
:100940003801680C791CB601C3010E949506892BF9
:1009500019F021E020930F04B601C3010E94B206F2
:100960000F5F1F4F0830110501F72196CBCFE82FFD
:10097000EF70E130E9F0EE3009F009C102ED13E06B
:10098000C0E0D0E0CE010E94B806F80121918F01AD
:10099000E091AD04EF70F0E0E050FC4F908129133E
:1009A00002C081111AC02196C630D10559F7E6C0A0
:1009B00002ED13E0C0E0D0E0CE010E94B806F801DD
:1009C00021918F01E091AD04EF70F0E0E050FC4F19
:1009D000908129130CC081110AC08091FC03909171
:1009E000FD0302969093FD038093FC03C7C02196FC
:1009F000C630D10509F7C2C02E3109F458C0D8F469
:100A00002A30B1F150F4273009F0C1C0CF70D0E0E6
:100A1000C050DC4F8091FB0329C0253109F43FC051
:100A2000283109F0B4C0CF70D0E0C050DC4F8881CD
:100A30008093FA03A3C0233309F449C068F4293230
:100A400009F0A5C0CF70D0E0C050DC4F8881F5E040
:100A50008F9FC001112436C0253531F0253609F0AD
:100A600096C0CF70D0E079C0C0E05FC0888386C0F8
:100A7000C0E0D0E0CE010E94B806813059F4E09188
:100A8000AD04EF70F0E0E050FC4FCE52DC4F8881B7
:100A9000808374C02196C630D10561F778C0CF70CD
:100AA000D0E0C050DC4F88818093FB0367C0CF70DB
:100AB000D0E0C050DC4F28818091FE039091FF036D
:100AC000820F911D9093FF038093FE0357C0CF7058
:100AD000D0E0C050DC4F888164E60E940534682F66
:100AE00070E08091FE039091FF030E94840788814B
:100AF0001AE0612F0E9405340E940534692F70E0CE
:100B00008091FE039091FF0301960E9484078881E3
:100B1000612F0E940534692F70E08091FE0390914F
:100B2000FF0302960E94840729C08C2F90E0209139
:100B3000AD042F7030E02817390704F1FC01E050B4
:100B4000FC4F608170E02091FE033091FF03820F23
:100B5000931F0E948407CF5FE8CF0D2F10E0809194
:100B6000FE039091FF03800F911F0E94A307F801DD
:100B7000E050FC4F8083DF5FCD1778F78091FC0356
:100B80009091FD0302969093FD038093FC03DF9107
:100B9000CF911F910F91FF90EF90DF90CF90BF907A
:100BA000AF909F908F907F906F905F904F903F900D
:100BB0002F900C94C002FC01848583FF0DC084A19A
:100BC00095A1A6A1B7A1448D558D668D778D841B07
:100BD000950BA60BB70B03C080E090E0DC018115FC
:100BE00020E89207A105B10520F08FEF9FE7A0E074
:100BF000B0E008950C960C940D25CF93DF931F92CF
:100C0000CDB7DEB7698341E050E0BE016F5F7F4F33
:100C10000C960E940D250F90DF91CF9108950C96B0
:100C20000C942D240C960C94EC21895B9D4F0C9414
:100C30001C1F895B9D4F0C94831F0F931F93CF93B1
:100C4000DF931F92CDB7DEB78C0169830E94143504
:100C50006981681741F0C8010F90DF91CF911F9112
:100C60000F910C941C350F90DF91CF911F910F9134
:100C70000895DC01643508F053C0403308F050C0DB
:100C800090968C919097342F359535953595E62F24
:100C9000FF27E7FDF095242F2770823099F4DF01BC
:100CA000AF57BA4F84E53802A00DB11D11248C91C5
:100CB00090E0022E02C0959587950A94E2F7809500
:100CC000817009C0833039F446271C968C914827DF
:100CD00040FF03C014C0811112C084E53802E00D4A
:100CE000F11D1124EF57FA4F81E090E0022E01C070
:100CF000880F0A94EAF780959081982310C084E5C4
:100D00003802E00DF11D1124EF57FA4F81E090E019
:100D1000022E01C0880F0A94EAF79081982B9083E5
:100D2000089588E495E00C94470D8435C8F4603349
:100D3000B8F4962F959595959595E82FF0E0EF5797
:100D4000FA4F84E59802E00DF11D1124808190E0B6
:100D5000677002C0959587956A95E2F7817008954E
:100D600080E00895462F682F88E495E00C943906BA
:100D700040E0682F88EB94E00C940C0D682F70E035
:100D800080E090E00E945C32862F0895CF93DF933D
:100D90001F92CDB7DEB741E050E0BE016F5F7F4FDD
:100DA0000E94A820019719F4898190E002C08FEF7A
:100DB0009FEF0F90DF91CF9108950C960C94C6068B
:100DC000FC01148615861382128248EE53E060E01F
:100DD00070E0448355836683778381E291E0918359
:100DE00080830895CF93DF93EB0120E2FB013C96D3
:100DF000DC011C9601900D922A95E1F72A813B8136
:100E0000FC01338322834C815D816E817F81448329
:100E1000558366837783488559856A857B854087B6
:100E2000518762877387DF91CF910895FF920F9367
:100E30001F93CF93DF93CDB7DEB7AC970FB6F8947F
:100E4000DEBF0FBECDBFF82E02E111E090910A0186
:100E50009F5BF8019083CE0101960E94E00623E695
:100E60004BE051E069EA73E0CE010D960E948824C0
:100E7000BE016F5F7F4F86E591E00E94F20640E081
:100E800050E0BA0182E691E00E947C224CE950E0F9
:100E900060E174E086E591E00E94FA0582E691E067
:100EA0000E947F2481E48F0DF8018083CE0101969A
:100EB0000E94E00621E04BE051E069EA73E0CE01D8
:100EC0000D960E948824BE016F5F7F4F86E591E0FA
:100ED0000E94F2064CE950E060E174E082E691E0A5
:100EE0000E94A82082E691E00E947F24F0920A01ED
:100EF000AC960FB6F894DEBF0FBECDBFDF91CF9199
:100F00001F910F91FF9008951F93CF93DF93EC01F2
:100F1000162F6CE970E00E94113420910A0130E034
:100F20002617370719F0862F0E941607CE016CE9A5
:100F300070E00E941134805F9B4FFC011083DF91B1
:100F4000CF911F910895CF93DF93EC016CE970E08E
:100F50000E94113480910A0190E08617970719F0DA
:100F6000862F0E941607CE016CE970E00E941134B2
:100F7000805F9B4FFC018081DF91CF9108952F927C
:100F80003F924F925F926F927F928F929F92AF9219
:100F9000BF92CF92DF92EF92FF920F931F93CF9366
:100FA000DF93CDB7DEB7AC970FB6F894DEBF0FBEB8
:100FB000CDBF5C0183E080930A01CE0101960E94BF
:100FC000E00621E0A50169EA73E0CE010D960E94DA
:100FD0008824BE016F5F7F4F86E591E00E94F20694
:100FE000C0907A01D0907B01E0907C01F0907D016F
:100FF00000E012E08CE9282E312C4801F2E09F1A23
:101000002401612C712C4C145D046E047F0408F0E3
:1010100065C08EEA94E00E94FC138823A1F310922D
:1010200051051092520568ED70E088E495E00E9449
:101030001E31B50188E495E00E945E314AE050E03F
:10104000B40188E495E00E943C3266ED70E088E4EB
:1010500095E00E941E312AE030E0B701A60188E445
:1010600095E00E944232C801B1010E9411344B0147
:1010700080910A0190E08617970701F182E691E0DE
:101080000E947F24882D0E941607CE0101960E949F
:10109000E00621E0A50169EA73E0CE010D960E9409
:1010A0008824BE016F5F7F4F86E591E00E94F206C3
:1010B000B301A20182E691E00E947C2282E691E0E7
:1010C0000E94C606282FC801B1010E941134805F1A
:1010D0009B4FFC0120830F5F1F4F8FCFAC960FB645
:1010E000F894DEBF0FBECDBFDF91CF911F910F915E
:1010F000FF90EF90DF90CF90BF90AF909F908F9038
:101100007F906F905F904F903F902F90089522E0D6
:101110004AE060ED73E089EC93E00E946D1E882345
:1011200031F189EA93E00E947F2461E082E891E056
:101130000E94CD2D882349F062E871E089EA93E0AE
:101140000E948E20882399F008C060E082E891E038
:101150000E94CD2D8111F0CF0AC08091A903807724
:1011600031F089EA93E09093970780939607109265
:101170000A0108950F931F93CF93DF938EEA94E0B3
:101180000E94081866E571E08EEA94E00E948B17D1
:101190001092C60468E78EEA94E00E947E128EEAFE
:1011A00094E00E94961202ED13E0C0E0D0E0CE0180
:1011B0000E941435F80181938F012196C630D10524
:1011C000B1F7DF91CF911F910F910C9487082F9267
:1011D0003F924F925F926F927F928F929F92AF92C7
:1011E000BF92CF92DF92EF92FF920F931F93CF9314
:1011F000DF9300D000D0CDB7DEB7582E492E762E23
:1012000010924E0566246A94312C812C40E3242EE2
:10121000912CC62ED12C3FEF360F39838EEA94E005
:101220000E94FC138823D1F364E088EB94E00E94D1
:10123000030D022D112707FD109581113FC065E0B8
:1012400088EB94E00E94030D811138C066E088EBC2
:1012500094E00E94030D811131C0311044C044E07C
:1012600063E088EB94E00E940C0D882329F09394AE
:1012700083ED94E00E941F1D44E061E088EB94E060
:101280000E940C0D882329F09A9483ED94E00E942B
:101290001F1D892D992787FD90958C159D0521F09F
:1012A00097FE03C0998001C0912C80914D0534E0D8
:1012B000832E880E899D801811241FC080904D05B3
:1012C00064E088EB94E00E94030D882309F47BC05E
:1012D00083ED94E00E94E71C692C8194879C802C0C
:1012E00011248A948A94C8018819910987FC9395DE
:1012F00002970CF46DC033243394C801880D911DFE
:1013000087FC9A9597FD0196FC01F595E795FC837E
:10131000EB832B81222E10925105E0935205F1E0D0
:10132000F093500510924F05052D142DE12CF12C52
:10133000A92CBB24A7FCB094E714E0F4EA14FB0446
:1013400059F433E03093510580914D05922F989ECA
:10135000900D112490935205F801619171918F01C4
:1013600088E495E02A830E945E31FFEFEF1AFF0ABE
:101370002A81E2CF60E088E495E00E94A00D809190
:101380004D054B81989E400D1124415024E560E0AD
:1013900088E495E00E94CB0D61E088E495E00E942E
:1013A000A00D80914D0503E0080F4B81989E400DE4
:1013B0001124425093E0E92E24E560E088E495E0B2
:1013C0000E94FD0E2BCF83ED94E00E94031D85CF7C
:1013D000862D0F900F900F900F90DF91CF911F915E
:1013E0000F91FF90EF90DF90CF90BF90AF909F90C4
:1013F0008F907F906F905F904F903F902F900895C7
:101400009F92AF92BF92CF92DF92EF92FF920F9393
:101410001F93CF93DF93CDB7DEB7C855D1090FB671
:10142000F894DEBF0FBECDBF8C01CE018D960E9419
:10143000E00621E04BE151E069EA73E0CE01C99694
:101440000E948824912C62E8C62ED12CE12CF12C2C
:10145000CE0101960E94E00641E0BE01675C7F4F2D
:10146000CE010D960E94C723BE016F5F7F4F86E5B8
:1014700091E00E94F2064DE050E0B80182E691E072
:101480000E94B226F80101900020E9F73197E01B95
:10149000F10BE430F105F0F0E00FF11F319780819E
:1014A0008833C1F4C701805F9B4F5C01B8010E9483
:1014B0000D35F601E05FFB4FB182A082F80101908B
:1014C0000020E9F7E01AF10AEE0EFF1E939492E075
:1014D000C90ED11C809162018111BACF692D82E9B8
:1014E00094E00E94E708E82FF0E0EE0FFF1FEE56B1
:1014F000FB4F60817181C8010E940D3581E0C85A9F
:10150000DF4F0FB6F894DEBF0FBECDBFDF91CF9196
:101510001F910F91FF90EF90DF90CF90BF90AF9011
:101520009F900895CF93DF93CDB7DEB72D970FB679
:10153000F894DEBF0FBECDBFCE0101960E94000A17
:10154000882331F0CE0101960E94BF0781E001C0DF
:1015500080E02D960FB6F894DEBF0FBECDBFDF91B1
:10156000CF9108950F931F93CF93DF938EEA94E06A
:101570000E94FC13882309F430C18091D1038111AA
:101580004AC043E06CE571E08EEA94E00E94B61434
:10159000882309F11CF48F3F49F01FC1813089F184
:1015A000823009F01AC16AE471E02EC080911801FE
:1015B000882319F060E571E027C082E08093D103B1
:1015C00081E080934E0588E495E0DF91CF911F91F3
:1015D0000F910C94470DC1E0C09318010E94920A2C
:1015E000882309F4FAC00E94900282E08093D1031C
:1015F000C0934E0588E495E00E94470D10921801B3
:10160000ECC08093D103E9C08EEA94E00E948B176E
:101610001092C604E2C0813009F0CEC0C0E08EEA6C
:1016200094E00E94FC138823D1F31092510510928C
:10163000520568E371E088E495E00E941E3140E1C4
:1016400050E06C2F88E495E00E94253262E271E060
:1016500088E495E00E944C316AE171E088E495E00D
:101660000E944C3162E171E088E495E00E944C31C7
:101670006AE071E088E495E00E944C3162E071E03C
:1016800088E495E00E944C3166E088EB94E00E948B
:10169000030D811144C064E088EB94E00E94030DC7
:1016A000882321F06C2F84E090E037C065E088EB60
:1016B00094E00E94030D882321F06C2F85E090E0D8
:1016C0002CC061E088EB94E00E94030D882321F098
:1016D0006C2F81E090E021C062E088EB94E00E94F2
:1016E000030D882321F06C2F82E090E016C063E0A8
:1016F00088EB94E00E94030D882321F06C2F83E097
:1017000090E00BC060E088EB94E00E94030D88231A
:1017100009F485CF6C2F80E090E00E941D06CF5F1A
:10172000C03109F07CCF02ED13E0C0E0D0E0CE0183
:101730000E941435F80181938F012196C630D1059E
:10174000B1F78EEA94E00E94FC138823D1F3109243
:1017500051051092520567EF70E088E495E00E9411
:101760004C316BEE70E088E495E00E944C31C2EDA4
:10177000D3E0699140E150E088E495E00E941E3298
:1017800069EE70E088E495E00E941E31F3E0C83D08
:10179000DF0779F788E495E00E94483161EE70E058
:1017A00088E495E00E941E3164E088EB94E00E949A
:1017B000030D882331F20FC062E088E495E00E94B7
:1017C000A00D0E94CF020E94CF0266E088EB94E059
:1017D0000E94030D81111092D103DF91CF911F91CF
:1017E0000F91089510924B0510924A0589E391E0FC
:1017F0009093490580934805109287011092A903A0
:101800001092AA0389E18093CC031092CF0381E365
:1018100091E0909383018093820186E591E00C949E
:10182000E00621E0FC012083089570E085E00C943F
:10183000D62FAF92BF92CF92DF92EF92FF920F938B
:101840001F93CF93DF93EC0189819A812FE0289F2A
:101850008001299F100D112485E10E94B92F800F6E
:10186000911F24E0969587952A95E1F79A838983BD
:101870002881222391F1AC81AD80B12CC12CD12CD7
:10188000E885F9857F0100E010E06E817F819B0192
:1018900040E050E08617970728F0BC01E817F907E9
:1018A00008F4BF0180E090E01F921F921F92AF9357
:1018B0000E9480326B830F900F900F900F9070E01A
:1018C00085E0DF91CF911F910F91FF90EF90DF9016
:1018D000CF90BF90AF900C94D62FDF91CF911F91F6
:1018E0000F91FF90EF90DF90CF90BF90AF90089551
:1018F000FC018CE39FE09383828384E0818381E019
:1019000084870895CF93DF93EC018C819D81892B8F
:1019100081F18C858F7151F584E10E94B92FBC0152
:10192000882777FD8095982F0E94063326EE3FE3A7
:101930004EEC50E40E9492330E94D8329B017B838C
:101940006A836115710581F084E08983FE0140E0BE
:10195000848195812817390710F449830AC04F5FA5
:1019600032964430A9F702C08FEF89838C858F5F50
:101970008C87DF91CF910895FC0188E0808389E016
:10198000818387E0828386E0838384E0848382E0AE
:10199000858381E186830895DF92EF92FF920F9312
:1019A0001F93CF93DF937C01EC0100E010E0DD2476
:1019B000DA9462E088810E945E3088810E94CD3096
:1019C000F701E00FF11F892B21F487818F5F878357
:1019D00008C08781882349F08F3F11F4178201C026
:1019E000D78260E088810E945E300F5F1F4F219692
:1019F00007301105F1F6DF91CF911F910F91FF9004
:101A0000EF90DF900895FC01E60FF11D81E09781D2
:101A1000913009F080E00895262F30E0FC01E20FBC
:101A2000F31F8781423028F481508E3F48F080E0D8
:101A300008958F3FE1F3642F0E9405349130B9F788
:101A400081E008958EBD00000DB407FEFDCF8EB578
:101A500008951F93CF93DF93EC01162FF89460E065
:101A60008F850E949730888918161CF460E00E94C8
:101A70009730812F0E94220D888918161CF461E08E
:101A80000E9497307894DF91CF911F91089528EFAD
:101A900031E0E1E8F5E0DF01A9011D92415050403D
:101AA000E1F7DC0119961C9219971A961C92089579
:101AB000DF92EF92FF920F931F93CF93DF93EC018E
:101AC0008C858F5F8C8781E8E82E85E0F82ED12CFD
:101AD0006D2D6064CE010E94290D60E8CE010E9448
:101AE000290D61E08F850E949730888918161CF4B3
:101AF00060E00E94973000E010E0F701E00FF11F76
:101B000080810E94220D0F5F1F4F04351105A9F738
:101B1000888918161CF461E00E949730D39484E5FC
:101B2000E80EF11C86E0D812D3CF60E4CE01DF913D
:101B3000CF911F910F91FF90EF90DF900C94290DA2
:101B4000FC0160A361A30895FC0160A341A3089573
:101B5000CF92DF92FF920F931F93CF93DF931F9249
:101B6000CDB7DEB76C01062FF42E10E0121754F437
:101B7000412F4F0D602FC60129830E9439061F5F38
:101B80002981F4CF0F90DF91CF911F910F91FF909A
:101B9000DF90CF900895CF92DF92FF920F931F9323
:101BA000CF93DF931F92CDB7DEB76C01062FF42ED3
:101BB00010E0121754F4612F600F4F2DC6012983D6
:101BC0000E9439061F5F2981F4CF0F90DF91CF91DA
:101BD0001F910F91FF90DF90CF900895DF92EF92C9
:101BE000FF920F931F93CF93DF93EC01E62ED22E3B
:101BF000F42E112707FD1095040F111D47FD1A95AE
:101C00008F2D992787FD90958017910744F42D2DEE
:101C10004F2D6E2DCE010E94CB0DF394F1CFDF91AD
:101C2000CF911F910F91FF90EF90DF9008958F92C9
:101C30009F92AF92BF92CF92DF92EF92FF920F935B
:101C40001F93CF93DF93EC01E62ED42E122FCC24DA
:101C5000C394C21AB22EB194BB0CF12C802F8470A5
:101C6000A82E802F8270982E802F8870882E017069
:101C7000F1160CF04DC0C7FC04C01150B394B394DE
:101C8000CB0CF3948F2D880F8F5FC80EAA2071F0B4
:101C9000412F4D0D6F2D6E0DCE010E9439064F2D37
:101CA0004D0D612F6E0DCE010E943906992071F005
:101CB0004D2D411B6F2D6E0DCE010E9439064D2D0D
:101CC0004F19612F6E0DCE010E943906882071F0E8
:101CD0004F2D4D0D6E2D611BCE010E943906412FF7
:101CE0004D0D6E2D6F19CE010E943906002309F4A7
:101CF000BFCF4D2D4F196E2D611BCE010E943906AD
:101D00004D2D411B6E2D6F19CE010E943906B0CFAB
:101D1000DF91CF911F910F91FF90EF90DF90CF90C7
:101D2000BF90AF909F908F9008958F929F92AF92A7
:101D3000BF92CF92DF92EF92FF920F931F93CF93B8
:101D4000DF93EC01B62EA42E122FDD24D394D21AE9
:101D5000C22EC194CC0CFF24F394802F8170882E66
:101D6000992493949E0C02708FEF8F0D8117C4F508
:101D7000D7FC04C01150C394C394DC0C8F2D880F82
:101D80008F5FD80E882099F0212F220F290D4A2D20
:101D9000411B6F2D6B0DCE010E94A80D23E02E0D6F
:101DA0004A2D4F19612F6B0DCE010E94A80D002303
:101DB00099F0212F220F290D4A2D411B6B2D6F19F0
:101DC000CE010E94A80D23E02E0D4A2D4F196B2D38
:101DD000611BCE010E94A80DF394E394E394C4CF59
:101DE000DF91CF911F910F91FF90EF90DF90CF90F7
:101DF000BF90AF909F908F9008959F92AF92BF92A7
:101E0000CF92DF92EF92FF920F931F93CF93DF93C6
:101E1000EC01B62EF42EA22EDE2CD194DD0C9D2CDE
:101E2000920E1E2D160F292D612F0E94CB0DCC2452
:101E3000CA94C00ECF0C292D4C2D612FCE010E94CB
:101E4000CB0DD00EFE0C2D2D4F2D6B2DCE010E94F3
:101E5000A80DBA0C6FEF6B0D2D2D4F2DCE010E94EA
:101E6000A80D01E02E2D4F2D612FCE010E94170EDF
:101E7000DE2CD094DB0C02E02E2D4F2D6D2DCE01EB
:101E80000E94170ECE1804E02E2D4C2D6D2DCE0184
:101E90000E94170E08E02E2D4C2D612FCE010E94BE
:101EA000170EDF91CF911F910F91FF90EF90DF9070
:101EB000CF90BF90AF909F900895AF92BF92CF9276
:101EC000DF92EF92FF920F931F93CF93DF93EC017A
:101ED000A62EC42EB22EF02E1E2DE194EE0CD12E85
:101EE000D60E2E2D2B0D6D2D0E94EE0DFA94FE0CAC
:101EF000C10E6FEF6A0D6B0D611BEF2C01E0212FFE
:101F00004C2DCE010E94950E02E0212F4C2D6D2DFF
:101F1000CE010E94950EDF91CF911F910F91FF90FE
:101F2000EF90DF90CF90BF90AF9008956F927F9227
:101F30008F929F92AF92BF92CF92DF92EF92FF92D9
:101F40000F931F93CF93DF93F901A490319654918F
:101F5000FC01F0A064350CF00CC1BB24A7FCB094CC
:101F6000A62FBB27A7FDB095FD01EA0DFB1D1E1690
:101F70001F060CF0FEC040330CF0FBC0C52E042F32
:101F8000112707FD1095E801C50FD11D57FDDA9502
:101F90001C161D060CF0EDC0E90122969501295F83
:101FA0003F4F37FF02C0295F3F4F73E035952795BC
:101FB0007A95E1F747FF0AC0C52EC40E209FA00105
:101FC000219F500D1124C41BD50B40E00C2D11276F
:101FD00007FD1095040F111D47FD1A9501331105DA
:101FE0001CF070E3C72EC41A67FD60E0E535F1050B
:101FF00014F0E4E5F0E01E2FFC0174857427862FB1
:10200000992787FD9095FC01EA1BFB0BDF015F011F
:10201000F7E0AF22BB24E0E8F0E002C0F595E795D9
:10202000AA94E2F70E2FB7FD179653E0B595A79542
:102030005A95E1F7AC0FBD1FE42FE77051E001C0E6
:10204000550FEA95EAF7459545954595E4E54E0225
:10205000800D911D11248F579A4F40E0DD24C7FC5D
:10206000D094BB24B3943327E42FF0E0EC15FD05A6
:102070000CF07FC0FD01E490F1E0FF1219C0EC010B
:10208000A02EFD01862E881A9C2E980C911608F021
:1020900067C09E2C9A2019F09880952A9882A69461
:1020A00029F43196E4906894AA24A7F82196ECCFFD
:1020B000F1101BC0752E7094EC01A02EFD01862E30
:1020C000881A9C2E980C911608F04AC09E2C9A20D3
:1020D00019F0988097209882A69429F43196E4907C
:1020E0006894AA24A7F82196ECCFE3E0FE1631F01D
:1020F000EC01A02EFD01862E881A2EC0752E70943C
:10210000962EEC01A02EFD019116B0F48E2C8A20A3
:1021100049F08880692C672660FE02C0852A01C0CC
:1021200087208882A69429F43196E4906894AA24A2
:10213000A7F893942196E8CF7B2512C09E2C9A2075
:1021400019F0988095269882A69429F43196E49007
:102150006894AA24A7F821969C2E980C911670F3E7
:10216000550F19F48C5A9F4F51E04F5FA20FB31FC8
:102170007BCFDF91CF911F910F91FF90EF90DF9078
:10218000CF90BF90AF909F908F907F906F90089569
:10219000DC01FB0184918F5F14968C931497319628
:1021A000E491EF5F1596EC9315976E5F7F4F5F9606
:1021B0007C936E935E970895EF920F93CF93DF9386
:1021C000EC014E876D872F87E98A088B81E088872D
:1021D00088A319A28F8364E871E0CE010E94C81021
:1021E0000E94481D8CB58F7D8CBD8CB58C7F816025
:1021F0008CBD8DB581608DBD8CB58C608CBD61E072
:102200008E850E945E3061E08D850E945E3061E0C7
:102210008F850E945E30898918161CF461E00E9447
:102220005E30888918161CF461E00E945E3089894E
:1022300018166CF460E00E9497306AE070E080E06D
:1022400090E00E94442F61E089890E9497308D853B
:10225000992787FD9095FC01E856FB4FE491F0E04B
:10226000EE0FFF1FEA54FB4F259134913D8B2C8BD1
:10227000FC01EC57FB4F84918B8F8E85992787FD4E
:102280009095FC01E856FB4FE491F0E0EE0FFF1F44
:10229000EA54FB4F259134913B8B2A8BFC01EC5780
:1022A000FB4F84918A8F8889992787FD9095FC013F
:1022B000E856FB4FE491F0E0EE0FFF1FEA54FB4FAE
:1022C000259134913F8B2E8BFC01EC57FB4F849171
:1022D0008C8F8F85992787FD9095FC01E856FB4FE1
:1022E000E491F0E0EE0FFF1FEA54FB4F259134918B
:1022F000398F288FFC01EC57FB4F84918D8F61E261
:10230000CE010E94290D64E1CE010E94290D8B852A
:1023100087FF02C08FE78B876B856068CE010E94C4
:10232000290D60E2CE010E94290D6CE0CE010E94D1
:10233000290DCE01DF91CF910F91EF900C94580DA4
:102340006F927F928F929F92AF92BF92CF92DF92C5
:10235000EF92FF920F931F93CF93DF93EC01162F11
:10236000F42EB02EE8A064350CF081C08FE2841703
:102370000CF47DC0EC81F0E031970E9FC0010F9FFF
:10238000900D1124860F911D67FD9A951816190658
:102390000CF06DC08D81809FC0011124840F911DB0
:1023A00047FD9A95181619060CF061C0A62E962EB8
:1023B000C22ED12C8A2D811B992787FD90952C81C7
:1023C00030E0821793070CF051C021503109821779
:1023D000930779F0C29ED001C39EB00DD29EB00D7E
:1023E0001124A80FB91FEE8DFF8DEA0FFB1F74900B
:1023F00001C0712C8F2C6F2C282D2F19332727FD0E
:1024000030958D8190E0281739076CF570FE11C06A
:1024100081E0B81206C0482D6A2DCE010E9439060F
:102420001EC00B2D2B2D462D692DCE010E94EE0DC9
:1024300016C089A198A1891791F088A381E0B812EC
:1024400006C0482D6A2DCE010E94390607C00B2D0B
:102450002B2D462D692DCE010E94EE0DE8A276941B
:102460006B0C8394C9CF9B0CA394A4CFE8A2DF91FB
:10247000CF911F910F91FF90EF90DF90CF90BF9081
:10248000AF909F908F907F906F9008950F93CF9310
:10249000DF93EC01262F6A3039F42D8198858A85E7
:1024A000299F800D112422C06D3011F108854A85C5
:1024B00069850E94A01148855C812985549F200D63
:1024C000112429878F81882399F0332727FD3095A0
:1024D00084E590E0459F80199109112482179307A4
:1024E0003CF49D818A85499F800D11248A87198635
:1024F00081E090E0DF91CF910F910895CF93DF932A
:10250000FC01462FEC01C553DF4F70E088EE93E0ED
:102510000E9425346883842F64E10E940534811170
:1025200001C081E081ABDF91CF9108958F929F929E
:10253000AF92BF92CF92DF92EF92FF92CF93DF9351
:10254000EC01CA8CDB8CC094D094E12CF12C0E945D
:10255000212F4B015C010E94212FA50194012095A0
:1025600030954095509560957095809590950E9416
:10257000F5339B01AC01C701B6010E94F5336B0135
:102580007C0189809A80A12CB12C0E94212F680D9A
:10259000791D8A1D9B1D6C0D7D1D8E1D9F1DDF915C
:1025A000CF91FF90EF90DF90CF90BF90AF909F9032
:1025B0008F900C9454328F929F92AF92BF92CF9291
:1025C000DF92EF92FF920F931F93CF93DF93EC0173
:1025D0005C0182EDA80EB11CD5018C91882309F411
:1025E0004DC08C3018F41CE0181B01C010E0FE0137
:1025F000EE55FF4F81E080836E01BAE9CB0ED11C0E
:1026000060E0C6010E94A00D4E01EFE98E0E911C04
:10261000D4018C9103E0080F9DE2F92E4F2D481B49
:10262000410F23E0E22E24E560E0C6010E945D0F29
:1026300061E0C6010E94A00DF401808103E0080F53
:102640004F2D481B410F24E560E0C6010E94FD0E9E
:10265000FE01ED55FF4F84E080833196D4018C91CB
:10266000181B115D1083C053DF4F68817981C6014B
:102670000E941E31F501808181508083DF91CF91CE
:102680001F910F91FF90EF90DF90CF90BF90AF9090
:102690009F908F900895DF92EF92FF920F931F9378
:1026A000CF93DF93EC018C8D9D8D892B09F49CC019
:1026B0008E0106561F4F40E061E0C8010E94A40D44
:1026C00085E5FE01E256FF4F9081891B3596808398
:1026D00031961082698D613009F462C028F0888DCE
:1026E000653008F074C06FC0CE0185960E946A1AEA
:1026F00081E0FE01EE55FF4F808364E871E0C80180
:102700000E94C8101D8E1C8EFE01E056FF4F1082E5
:1027100038EAD32E7E018AE0E80EF11CCE010E9439
:10272000FC138823D9F363E773E0C8010E941E31CC
:102730006A8D7B8D4AE050E0C8010E943C326EE514
:1027400073E0C8010E941E316D2D62956F7070E0BC
:102750004AE050E0C8010E94093263E573E0C80115
:102760000E941E3164E0C7010E94030D81113CC02C
:10277000DA94A1F660E0CE010E94150C83B7817F48
:10278000846083BF83B7816083BF83B7816083BF69
:10279000889583B78E7F83BF83B78E7F83BFBECF7D
:1027A000C354DF4F488159816A817B814F7055271F
:1027B00066277727483051056105710510F467E0F9
:1027C00009C068E707C0882379F06B5F03C08823DE
:1027D00059F06FE2C801DF91CF911F910F91FF90E7
:1027E000EF90DF900C944131DF91CF911F910F91C9
:1027F000FF90EF90DF9008958F929F92AF92BF92DB
:10280000EF92FF920F931F93CF93DF93EC017C0124
:102810000CECE00EF11CF70180809180A280B38067
:102820000E94152F95018401061B170B280B390BED
:10283000B901A8015E011BECA10EB11CF50180815C
:1028400090E0A0E0B0E08E0109531F4F8417950778
:10285000A607B70750F4F80180819181A281B38166
:10286000892B8A2B8B2B09F040C0F8018081918144
:10287000A281B381892B8A2B8B2BA9F57E01F5E2EE
:10288000EF0EF11CC7010E945A1AC7010E94141BC7
:10289000C7010E94381CCE010E94DB12CE010E94AB
:1028A0004B137E012AE9E20EF11CC7010E94580D6C
:1028B000FE01E056FF4F8081811103C0C7010E94D5
:1028C000470D0E94212FF8016083718382839383D7
:1028D000FE01EF53FF4FCD53DF4F28813981621B3B
:1028E000730B7183608380E036C00E94152FF50161
:1028F0002081620F711D811D911DF701608371831D
:1029000082839383FE01E354FF4F408151816281B2
:1029100073814F5F5F4F6F4F7F4F4083518362835F
:102920007383F80110821182128213820E94212F78
:10293000FE01ED53FF4F6083718382839383CE0149
:102940000E94190CCE010A960E94CC0CCE0148962A
:102950000E94820C81E0DF91CF911F910F91FF9037
:10296000EF90BF90AF909F908F9008952F923F92DD
:102970004F925F926F927F928F929F92AF92BF928F
:10298000CF92DF92EF92FF920F931F93CF93DF933B
:10299000CDB7DEB766970FB6F894DEBF0FBECDBFDA
:1029A0009E8B8D8B6F87788B942EFC01E056FF4FAA
:1029B000108288248A941C82A12C30E33B83B12CA2
:1029C0006C018AE0C80ED11C6D887E889FE9690E73
:1029D000711CED89FE89B5962F01242F30E03A87CE
:1029E00029878D899E898D559F4F9E838D83ED8983
:1029F000FE89EC55FF4FF887EF832D893E892E55D0
:102A00003F4F3C872B878D899E898F559F4F9E878F
:102A10008D87ED89FE89E656FF4F1F018D899E89BE
:102A20000E94FC138823D1F364E0C6010E94030DC9
:102A30003B81032F112707FD109581113EC065E0F2
:102A4000C6010E94030D811138C066E0C6010E94D4
:102A5000030D811132C03C81311142C044E063E07A
:102A6000C6010E940C0D882321F0B394C2010E947C
:102A70001F1D44E061E0C6010E940C0D882321F077
:102A8000BA94C2010E941F1D8B2D992787FD909536
:102A9000E985FA858E179F0731F0B7FE05C0BB2484
:102AA000BA94B90C01C0B12CF301808174E0A72E57
:102AB000A80E8B9DA01811241DC0F301A08064E016
:102AC000C6010E94030D882309F484C0C2010E943C
:102AD000E71C8B2CA194A99CA02C1124AA94AA9445
:102AE000C8018A199109A7FC939502970CF476C046
:102AF00031E03C830A0D111DA7FC1A9517FF02C097
:102B00000F5F1F4FC801959587959A838983298107
:102B10002B83ED81FE811082EF81F885808381E037
:102B2000EB85FC858083ED85FE8510820F851889F5
:102B3000E12CF12C4B2D552747FD509533E0E9143E
:102B400020F5E416F50669F4ED81FE813083F3018A
:102B50008081F22FB89EF00D11248F2FEF81F88520
:102B60008083F80165917491C101298B3C8B4A8B5C
:102B70005B8B0E944C31FFEFEF1AFF0A0E5F1F4F75
:102B80005B894A893C892989DACF60E0C1010E94CA
:102B9000A00DF30180814981B89E400D1124415060
:102BA00024E560E0C1010E94CB0D61E0C1010E94FB
:102BB000A00DF301808103E0080F4981B89E400D0C
:102BC0001124425053E0E52E24E560E0C1010E944B
:102BD000FD0E24CFC2010E94031D7CCF882D669676
:102BE0000FB6F894DEBF0FBECDBFDF91CF911F911E
:102BF0000F91FF90EF90DF90CF90BF90AF909F909C
:102C00008F907F906F905F904F903F902F9008959E
:102C10000F931F93CF93DF938C01EC01C656DF4FC8
:102C2000CE010E94470D6BE273E0CE010E941E317F
:102C3000CE010E94580D8CB583608CBD8DB58E7F02
:102C40008DBD8DE391E0EEEFFFE30995F801E056CD
:102C5000FF4F108266E073E0CE010E944C31CE013E
:102C60000E94580D065F1F4FC8010E94CC0C64E003
:102C7000C8010E94030D811107C062E370E080E08B
:102C800090E00E94442FF0CFDF91CF911F910F91E0
:102C900008952F923F924F925F926F927F928F9200
:102CA0009F92AF92BF92CF92DF92EF92FF920F93DB
:102CB0001F93CF93DF93CDB7DEB729970FB6F89464
:102CC000DEBF0FBECDBF998788871B012A013C015B
:102CD0008CEB680E711CF3018081882309F402C11A
:102CE00081E0E885F985EE55FF4F8083E885F98519
:102CF000EF55FF4F1082E885F985E056FF4F1082AF
:102D0000E885F985108E8F0106561F4F61E0C801D6
:102D10000E94A00D8885998581569F4F9C838B8347
:102D2000C884D98493EAC90ED11CE884F984E4EA02
:102D3000EE0EF11C8885998582569F4F9A83898370
:102D4000E885F985E354FF4FFE83ED8388849984F9
:102D5000FAE08F0E911CA884B98485E2A80EB11CFC
:102D6000888599850E94FC138823D1F3F101849111
:102D7000882321F0EB81FC81508101C050E025E9DE
:102D800033E040E060E0C8015F830E94960F5F81FE
:102D90004114510439F04CE0450F920160E0C80144
:102DA0000E94960FF60110828CE0F7018083B1013A
:102DB000C8010E941E31E981FA819081892F880F14
:102DC000890F81958D5AF6018083EB81FC8190817A
:102DD000892F880F890F8195835DF7018083ED81AD
:102DE000FE81808184FF03C061E973E002C06DE869
:102DF00073E0C8010E944C31E981FA819081892FEA
:102E0000880F890F81958D5AF6018083F7018081A3
:102E10008F5F8083E885F98582A9882319F069E8A6
:102E200073E002C065E873E0C8010E944C31E9819B
:102E3000FA819081892F880F890F81958D5AF6012B
:102E40008083F70180818F5F808361E873E0C80130
:102E50000E944C3165E0C4010E94030D882351F0AB
:102E6000E885F98562A96F5FC5010E943B1DC50118
:102E70000E941F1D64E0C4010E94030D811113C054
:102E8000F3012081822F90E0A0E0B0E0ED81FE818F
:102E90004081518162817381481759076A077B0716
:102EA000A8F02F3F99F08FEFF301808308851985F3
:102EB0000B5D1F4F60E0C8010E94C019C8010E944D
:102EC000E71C81E0E885F985808F0CC066E0C401CD
:102ED0000E94030D882309F443CF888599850E94B9
:102EE000081634CF29960FB6F894DEBF0FBECDBFBB
:102EF000DF91CF911F910F91FF90EF90DF90CF90D6
:102F0000BF90AF909F908F907F906F905F904F9009
:102F10003F902F90089540E050E00C944916E0E86F
:102F2000F7E72591349181E02130304C09F080E0C1
:102F30000895CF93DF93EC010E948F179E012B55CC
:102F40003F4FDE01A454BF4F882309F43CC0E6E99B
:102F5000F7E78491F9018083E7E9F7E7E491EC83EF
:102F6000E8E9F7E7E491ED83E9E9F7E785919491E2
:102F70009F838E83EBE9F7E7859194919987888702
:102F8000EDE9F7E7E491EBABEEE9F7E7E491EAABC3
:102F9000EFE9F7E7E491EC93E0EAF7E785919491A4
:102FA0009D8F8C8FE2EAF7E7859194919F8F8E8FAA
:102FB000E4EAF7E78591949199A388A3E6EAF7E715
:102FC0008591949120C08CE3F90180831C822FEFBE
:102FD0002D8380E293E09F838E8384ED93E0998735
:102FE000888781E08BAB8AAB2C938CEA9DE09D8F28
:102FF0008C8F8EED9DE09F8F8E8F84E79EE099A34E
:1030000088A38CE39FE09BA38AA3DF91CF910895CF
:10301000CF92DF92EF920F93CF93DF93EC01FC01FD
:10302000E553FF4F82E38083349741E050E060E056
:1030300070E040835183628373833B978FEF80837B
:10304000CE010E949917CE010E94110C6FEFCE01A4
:103050000E94150C6E018AE0C80ED11CC6010E94A8
:10306000BC0CC6010E94CC0CCE0148960E94780C84
:103070003EE0E32E0FE020E14BE06DE0CE0186560E
:103080009F4F0E94DC10A596CE010E94B21865E009
:10309000C6010E94030D882351F060E0CE01DF914C
:1030A000CF910F91EF90DF90CF900C943B1D40E0BB
:1030B00065E074E0CE010E94D01941E065E074E063
:1030C000CE010E94D01942E065E074E0CE01DF91AC
:1030D000CF910F91EF90DF90CF900C94D019CF93B8
:1030E000DF9350E0FA01EE0FFF1FE80FF91F37A141
:1030F00020A5E32FF22FE60FF11DE60FF11D25911C
:103100003491BA01660F771F680F791FFB01E95AE6
:10311000FF4F31832083F90165917491FC01C485CF
:10312000C69FD02D1124E40FF51FE35AFF4FD08323
:10313000F901A591B4916B2F70E0ED2FF0E0840FB1
:10314000951F6E177F0720F4F90125913491D32F35
:10315000FC01E05AFF4FDC9FD02D1124D083DF917A
:10316000CF910895FF920F931F93CF93DF93EC01BC
:10317000FF24F394FC86FC01EE58FF4FF08204E636
:1031800014E018A70FA340E060E00E946F18FE0152
:10319000ED58FF4FF0821AA709A741E060E0CE0189
:1031A0000E946F18FE01EC58FF4FF0821CA70BA77E
:1031B00042E060E0CE010E946F1861E070E083E0C1
:1031C0000E94D62FE1EBF0E08081887F81608083D0
:1031D000F89410928000E1E8F0E0108210928500EF
:1031E0001092840088E191E0909389008093880098
:1031F000808188608083808181608083EFE6F0E059
:103200008081826080837894DF91CF911F910F91AC
:10321000FF9008950F93CF93DF93362F642F0330E1
:1032200008F047C0323039F158F43323E1F031303F
:1032300009F03FC0402FDF91CF910F910C946F1890
:10324000333041F13430A9F5FC01E00FF11DDF010D
:10325000AF5ABF4FEC018C85489F602D11246C93B1
:10326000EC5AFF4F25C0FC01E00FF11D4B3008F078
:103270006AE064AF1EC0FC01E00FF11DDF01AB5B33
:10328000BF4FEC018C85489F602D11246C93E85B47
:10329000FF4F0EC0FC01E00FF11DDF01A55BBF4F2A
:1032A000EC018C85489F602D11246C93E25BFF4FED
:1032B0002083DF91CF910F910895233018F530E0EE
:1032C000FC01E20FF31F66ABDC011C965C91459F8D
:1032D000402D112441AFDF01A759BF4F1C92A90116
:1032E000440F551F480F591FDA01AD59BF4F1D92AA
:1032F0001C9281E087AFD901A357B84F8C93EE5B46
:10330000FF4F1082089580918D07882319F08091D6
:10331000840701C080E090918E07992319F0909165
:103320008507890F90918F07992319F0909186074F
:10333000890F8093B4000895633008F570E0FC01B4
:10334000E60FF71F17AE11AE9B01220F331F280F98
:10335000391FD901AD59BF4F1D921C92EE5BFF4F33
:103360001082FB01EC57F84F1082FB01E957F84F30
:103370001082FB01E357F84F10820C9483190895D3
:103380001F93CF93DF93EC01162F633028F40E9434
:103390009C19C10FD11D1B82DF91CF911F91089500
:1033A000EF92FF920F931F93CF93DF931F92CDB7AE
:1033B000DEB77C018B01433038F5642F49830E94CE
:1033C000C0194981E42FF0E0DF01AA0FBB1FAE0D49
:1033D000BF1D92961C930E939197DF015896AA0FEA
:1033E000BB1FAE0DBF1D1D921C92EE0DFF1D81E097
:1033F000838389E084AFDF01AB5BBF4F1C921696DD
:103400001C92EF5AFF4F10820F90DF91CF911F91C6
:103410000F91FF90EF9008950F931F93CF93DF9339
:10342000EC01462F633008F040C0062F10E0DC01AD
:10343000A00FB11F8C91882309F437C013968C918B
:103440001397811132C055968C915597F801EE0F64
:10345000FF1FEC0FFD1F27859089E22FF92FE80F42
:10346000F11DE80FF11D859194918F3F2FEF920789
:1034700011F41C921AC05E969C93F8013C96EE0FD4
:10348000FF1FEC0FFD1F9927880F991F0190F081F6
:10349000E02DE80FF91F65917491CE010E94D019BB
:1034A000C00FD11F8D898F5F8D8BDF91CF911F91C1
:1034B0000F910895CF93DF93EC0160E00E940C1A06
:1034C00061E0CE010E940C1A62E0CE01DF91CF9143
:1034D0000C940C1ACF93DF93EC0160E00E94C019AA
:1034E00061E0CE010E94C01962E0CE01DF91CF9170
:1034F0000C94C019CF92DF92EF92FF920F931F931B
:10350000CF93DF937C01162F633008F084C0C62E62
:10351000D12C8C0D9D1DDC0113962C911397222329
:1035200009F479C0D9962C91211175C0E601CC0F10
:10353000DD1FCE0DDF1D29A13AA148A959A9440FCD
:10354000551F420F531FFA01A591B491CC0CDD1CFD
:103550001097F1F4FC0145A5442321F019AA18AAFB
:10356000F90114C013828081612F8823B9F0C7014B
:103570000E940C1A88A999A9880F991FF701EC0DD0
:10358000FD1D01A0F2A1E02DE80FF91FA591B49156
:10359000CE0CDF1CE1E2CE0ED11C0BC0C701DF91C7
:1035A000CF911F910F91FF90EF90DF90CF900C94EF
:1035B0009C19BD017695679576956795A0FF20C00B
:1035C000AD01F6E056954795FA95E1F72B2F269534
:1035D0002695269520514F716F70012FC7010E94CB
:1035E0000A1988A999A9019699AB88AB880F991FE8
:1035F000D601ED91FC91E80FF91FA591B491D9CFB7
:103600004B2F6F73212FC7010E945D1988A999A9BB
:10361000019699AB88ABDF91CF911F910F91FF90ED
:10362000EF90DF90CF900895CF93DF93EC0160E0AF
:103630000E947A1A61E0CE010E947A1A62E0CE01FD
:10364000DF91CF910C947A1AEF92FF920F931F9310
:10365000CF93DF937C01633008F003C1062F10E0A5
:10366000EC01C00FD11F8FAD882309F4FAC089ADDA
:10367000811109C0C701DF91CF911F910F91FF9078
:10368000EF900C949C19815089AFFE01E759FF4FD0
:103690008081811157C09801220F331F2E0D3F1DCD
:1036A000F901ED59FF4F8081918101963C97AC0162
:1036B000440F551F0190F081E02DE40FF51F259177
:1036C0003491FE01E459FF4F422F47704083A90116
:1036D000B3E056954795BA95E1F7DA01B695A79507
:1036E0003396232F26952695208336973A2F3F73BE
:1036F000D7011C962C91329FA02D1124A083F80194
:10370000EF57F84F417040839801220F331F2E0D61
:103710003F1DF901ED59FF4F91838083DE01A35ACC
:10372000BF4F2C9130E08217930760F013968C9175
:10373000882329F0281B31093183208303C0C70166
:103740000E949C19FE01E759FF4F808181508083C0
:10375000B79730813F5F30832EA9BD964081420FDD
:103760008E8D480F4E83B4976081662369F070E0B8
:10377000832F992787FD90950E9425343396808169
:10378000869F400D11244E838E8190E0CB966BE393
:1037900070E00E9425348E834CAD4987FE01EB5BBF
:1037A000FF4F6081662379F0772767FD7095832F3F
:1037B000992787FD90950E94253433968081869FB6
:1037C000400D11244987FE01EF5AFF4F60816623A7
:1037D00099F0832F992787FD909570E00E942534FA
:1037E000CB0162E070E00E942534339630819985E8
:1037F000389F900D1124998789852F3339F08A30AD
:103800000CF089E087FD80E0898701C01986F89473
:10381000EE81F0E0ED5EFB4FE491D801A657B84F82
:10382000EC93F701E00FF11FDF01AE58BF4F9C9101
:10383000D7011D968C91989F802D11249185899F89
:10384000802D1124E459FF4F9081899F802D1124F0
:10385000F801E957F84F8083F801EC57F84F80835F
:103860007894DF91CF911F910F91FF90EF90089581
:10387000CF93DF93EC0160E00E94241B61E0CE0156
:103880000E94241B62E0CE01DF91CF910C94241B97
:1038900060918707611102C080E023C0809190078A
:1038A0008F5F8093900790918A078917A8F3809182
:1038B0008D0791E0892780938D0710929007809162
:1038C0008107882369F09091190183E4989F802DE6
:1038D0001124895B809319010E9405349093840719
:1038E00081E060918807662319F1909191079F5FAD
:1038F0009093910720918B079217D0F080918E07BB
:1039000091E0892780938E0710929107809182071A
:10391000882369F09091190183E4989F802D1124E8
:10392000895B809319010E9405349093850781E09B
:1039300060918907662319F1909192079F5F909398
:10394000920720918C079217D0F080918F0791E019
:10395000892780938F07109292078091830788238D
:1039600079F09091190183E4989F802D1124895B4F
:10397000809319010E9405349093860701C081113C
:103980000C94831908951F920F920FB60F92112471
:103990002F933F934F935F936F937F938F939F9357
:1039A000AF93BF93EF93FF930E94481CFF91EF9159
:1039B000BF91AF919F918F917F916F915F914F9147
:1039C0003F912F910F900FBE0F901F901895CF939E
:1039D000DF93EC0160E00E94C0198CE594E09AA3AB
:1039E00089A319AA18AA81E08B8389E08CAFFE0114
:1039F000EB5BFF4F108236961082CF5ADF4F188252
:103A0000DF91CF910895CF93DF93EC0160E00E94A6
:103A1000C01984E594E09AA389A319AA18AA81E0A1
:103A20008B8389E08CAFFE01EB5BFF4F10823696F3
:103A30001082CF5ADF4F1882DF91CF910895CF9334
:103A4000DF93EC0160E00E94C0198EE494E09AA339
:103A500089A319AA18AA81E08B8389E08CAFFE01A3
:103A6000EB5BFF4F108236961082CF5ADF4F1882E1
:103A7000DF91CF910895FC01862F992787FD9095BE
:103A8000668570E06F5F7F4F0E94253485870895BB
:103A9000CF93CFB7F89480919307811127C0E2EAC2
:103AA000F4E08491EEE8F4E09491E82FF0E0EE0F7A
:103AB000FF1FE054FB4FA591B4918C91892321F411
:103AC00061E08AE00E94973061E08AE00E945E3007
:103AD0008CB580618CBD8CB580648CBD61E08DE05F
:103AE0000E945E3061E08BE00E945E30809193071F
:103AF0008F5F80939307CFBFCF91089590E022E02E
:103B0000281740F0892F806A86958CBD909591701A
:103B10009DBD08959730B0F7220F953010F431E035
:103B200001C032E0930FECCF8FEF8EBD0DB407FED6
:103B3000FDCF8EB508958EBD0DB407FEFDCF08955F
:103B400061E0FC0182810E9497308FEF0C949B1DF5
:103B5000CF93DF93EC018C810E947E1D60E08A810F
:103B6000DF91CF910C949730CF92DF92EF92FF923A
:103B70000F931F93CF93DF93EC018B017A010E9487
:103B8000152F6B010E94941D8D838F3F49F40E9475
:103B9000152F6C197D096D327140A0F381E103C0CE
:103BA0008E3F39F08FE08B83CE010E94A01D80E014
:103BB00028C0E114F104E1F081E0E81AF1088FEF88
:103BC0008EBDF8012FEFCF01801B910B8E159F0545
:103BD00038F40DB407FEFDCF8EB52EBD8193F3CF23
:103BE0000DB407FEFDCF8EB5F801EE0DFF1D8083ED
:103BF0001D820E94941D0E94941DCE010E94A01D52
:103C000081E0DF91CF911F910F91FF90EF90DF90B6
:103C1000CF9008950F931F93CF93DF93EB010E94F2
:103C2000152F8B010E94941D8F3F49F00E94152F84
:103C3000601B710B6C177D07A8F380E001C081E069
:103C4000DF91CF911F910F910895FF920F931F93D2
:103C5000CF93DF9300D000D0CDB7DEB78C01F62E26
:103C600029833A834B835C830E94A81D68E572E038
:103C7000C8010E940A1E8F2D80640E949B1D8C81AA
:103C80000E949B1D8B810E949B1D8A810E949B1D0F
:103C900089810E949B1DF11002C085E901C087E85F
:103CA0000E949B1D8CE0F81202C00E94941DF12C12
:103CB0000E94941DF801858387FF05C0FFEFFF1662
:103CC00011F0F394F5CF0F900F900F900F90DF91BC
:103CD000CF911F910F91FF900895BF92CF92DF92E5
:103CE000EF92FF920F931F93CF93DF93EC01B22ECD
:103CF0001E821B82798368834A830E94152F8B0161
:103D000061E08A810E945E3061E08A810E94973082
:103D10002A9A229A239A259A80E48C830E947E1DF7
:103D20002AE0F22E8FEF0E949B1DFA94D9F720E033
:103D300030E0A90160E0CE010E94251E813049F0EB
:103D40000E94152F601B710B613D774080F381E06D
:103D500051C02AEA31E040E050E068E0CE010E9424
:103D6000251E853011F481E00AC094E0F92E0E94EE
:103D7000941D8D83FA94D9F78A3A59F482E08E83A0
:103D80008E81823079F4C12CD12CE12C80E4F82E84
:103D90000CC00E94152F601B710B613D7740C8F26B
:103DA00082E028C0C12CD12C760120E030E0A901AE
:103DB00067E3CE010E94251EA701960169E2CE01AC
:103DC0000E94251E882349F00E94152F601B710B4D
:103DD000613D774050F38AE00DC08E818230E9F476
:103DE00020E030E0A9016AE3CE010E94251E88236D
:103DF00039F088E08B83CE010E94A01D80E012C0C4
:103E00000E94941D807C803C11F483E08E830E948C
:103E1000941D0E94941D0E94941DCE010E94A01D1D
:103E2000BC8281E0DF91CF911F910F91FF90EF90C5
:103E3000DF90CF90BF9008950F931F93CF93DF93A0
:103E4000EC0189018E81833039F039E0440F551F30
:103E5000661F771F3A95D1F79A01AB0161E1CE0158
:103E60000E94251E81110AC040E052E0B801CE0137
:103E7000DF91CF911F910F910C94B41D84E08B833F
:103E8000CE010E94A01D80E0DF91CF911F910F9184
:103E900008950F931F93CF93DF93EC01862F8A0130
:103EA0000E949B1DF80180818EBD818122E030E05F
:103EB0000DB407FEFDCF8EBD2115F2E03F0739F0AE
:103EC000F801E20FF31F80812F5F3F4FF1CF0DB458
:103ED00007FEFDCF8FEF0E949B1D8FEF0E949B1D61
:103EE0000E94941D8D838F71853039F083E18B831F
:103EF000CE010E94A01D80E001C081E0DF91CF9142
:103F00001F910F9108950F931F93CF93DF93EC01AF
:103F100089018E81833039F089E0440F551F661F77
:103F2000771F8A95D1F79A01AB0168E1CE010E9413
:103F3000251E882319F086E08B830CC0A8016EEF44
:103F4000CE010E94491F182F882321F0CE010E9424
:103F5000A01D04C0CE010E94A01D10E0812FDF91A2
:103F6000CF911F910F910895FC0182818068828317
:103F70009F01245F3F4F44855585668577858681FF
:103F800097810C94DE2C9F92AF92BF92CF92DF92DA
:103F9000EF92FF920F931F93CF93DF93EC018881F1
:103FA00085FF02C0912C5EC088899989AA89BB8946
:103FB00081159E4FAF41B105A8F7CE010E94B41FF5
:103FC000982E882379F34C855D856E857F858E815B
:103FD0009F810E94F52B6B017C018E819F8125E0E2
:103FE000B701A60180960E94B32B5C010097D1F225
:103FF00080E092E0F5019C01119221503040E1F700
:1040000011E0AE81BF8112960C9112971017A0F4A7
:10401000ED91FC9111970280F381E02D9501B7019C
:10402000A601410F511D611D711DCD010995882308
:1040300009F4B8CF1F5FE5CF10E020E030E089E061
:10404000000F111F221F331F8A95D1F74889598904
:104050006A897B89400F511F621F731F488B598BE0
:104060006A8B7B8B892DDF91CF911F910F91FF90F0
:10407000EF90DF90CF90BF90AF909F900895CF9337
:10408000DF93EC01262F4C895D896E897F898E81B3
:104090009F8180960E94B32B9C01009761F08C81D8
:1040A0009D818F70992745E0880F991F4A95E1F708
:1040B000820F931F02C080E090E0DF91CF910895BE
:1040C000CF93DF93DC01FC0190E048E080E05EE20A
:1040D00020812032C1F0983031F4EB01C80FD11D9E
:1040E00058838F5F40E120813FEB320F3A3130F44B
:1040F0001C963C911C97342309F0205EEB01C80FFD
:10410000D11D28838F5F9F5F31969B3009F7FB019C
:10411000E80FF11D1082DF91CF910895FC0180819D
:10412000811114C080E2DF01982F1D929A95E9F762
:1041300077836683DB0115969C91903119F090325C
:1041400029F480E4808381E08283089580E00895EB
:104150002F923F924F925F926F927F928F929F9297
:10416000AF92BF92CF92DF92EF92FF920F931F9385
:10417000CF93DF9300D000D0CDB7DEB79C838B8385
:104180004B017A01DC018C91882309F112969C91F4
:1041900090FF1DC027C0D380D822A114B10409F01C
:1041A0009CC0D1109AC0452B462B472B09F47EC0EA
:1041B000AB81BC811C964D915D916D917C911F9757
:1041C00029813A81CF010E940D2C87FF7EC0AB81EF
:1041D000BC8111968C911197826011968C938FEF10
:1041E0009FEFE3C083FF17C0EB81FC81808D918D31
:1041F000A28DB38D4089518962897389841B950B87
:10420000A60BB70BA70160E070E0481759076A07D3
:104210007B07D0F018C085FF17C0AB81BC81169614
:10422000ED91FC9117978681978155E0880F991F32
:104230005A95E1F750962D913C915197821B930B23
:104240008E159F0508F47C018701EB81FC813C966B
:10425000FA83E983612C42E0742E0115110509F4FB
:1042600068C0AB81BC8150964D915D916D917C9100
:1042700053975A01B1E0BB22EB81FC81208106807B
:10428000F781E02DDB01CA0139E0B695A795979536
:1042900087953A95D1F725FF7ECF448D558D668D54
:1042A000778D480F591F6A1F7B1F2BC026FD02C048
:1042B000EB81FC81848D958DA68DB78DEB81FC8182
:1042C00084879587A687B78708C0811106C0EB81D0
:1042D000FC818081807769F57ACFAB81BC811C96A7
:1042E0004D915D916D917C911F9716968D919C914A
:1042F00017970E94F52BAB01BC014D0D511D611D9F
:10430000711DEB81FC8186819781A114B104B1F507
:104310000115F2E01F0790F1DC0193962D903D907E
:104320004D905C909697421553056405750529F4E8
:1043300025C0C701801B910B38C0DC01ED91FC91B9
:104340000190F081E02D94010995882309F43FCF75
:10435000C12CF2E0DF2E8C0C9D1CEB81FC8180894E
:104360009189A289B3898C0D9D1DA11DB11D808BE2
:10437000918BA28BB38B0C191D096FCF93012A1956
:104380003B0968012017310708F4690120E0809695
:104390000E94B32B009709F41ACFBC016A0D7B1D54
:1043A000A601C4010E940435D6CF0F900F900F9044
:1043B0000F90DF91CF911F910F91FF90EF90DF90C1
:1043C000CF90BF90AF909F908F907F906F905F90B5
:1043D0004F903F902F9008958F929F92AF92BF92EF
:1043E000CF92DF92EF92FF920F931F93CF93DF93C1
:1043F0001F92CDB7DEB78C01FC0180889188A2881E
:10440000B388C484D584E684F78441E050E0BE01DB
:104410006F5F7F4F0E94A820019719F4898190E077
:1044200002C08FEF9FEF8F3FFFEF9F0749F0F8012A
:10443000808A918AA28AB38AC486D586E686F78660
:104440000F90DF91CF911F910F91FF90EF90DF9030
:10445000CF90BF90AF909F908F900895FF920F9351
:104460001F93CF93DF931F92CDB7DEB78C01262F1A
:10447000FC014089518962897389DB01CA01E5E049
:10448000B695A79597958795EA95D1F7F82FFF7080
:10449000FF2E11F0211117C041E050E0BE016F5F07
:1044A0007F4FC8010E94A820813019F080E090E081
:1044B0001CC0F8014089518962897389415E5F4F50
:1044C0006F4F7F4F05C0405E5F4F6F4F7F4FF801CA
:1044D000408B518B628B738BF80186819781879615
:1044E000F0E2FF9E800D911D11240F90DF91CF917E
:1044F0001F910F91FF9008954F925F926F927F925C
:104500008F929F92AF92BF92CF92DF92EF92FF92E3
:104510000F931F93CF93DF93EC016A017B014C84CF
:104520005D846E847F84A881AA2309F48CC0411520
:1045300051056105710529F41C861D861E861F869E
:104540007CC0A3FF0BC0488D598D6A8D7B8D4C15A7
:104550005D056E057F0508F476C014C0A5FF12C086
:10456000EE81FF8186819781F5E0880F991FFA958A
:10457000E1F7A0E0B0E084179507A607B70708F4B5
:1045800062C05BC0088919892A893B89EE81FF8155
:10459000848190E00996B901A8014150510961094F
:1045A0007109082E04C076956795579547950A942A
:1045B000D2F746015701B1E08B1A9108A108B10862
:1045C00004C0B694A794979487948A95D2F78416DA
:1045D0009506A606B70620F0012B022B032B81F4CB
:1045E000A6FF05C0848D958DA68DB78D04C08C8DDA
:1045F0009D8DAE8DBF8D8C879D87AE87BF8704C094
:10460000841A950AA60AB70A8E01045F1F4F811407
:104610009104A104B10489F04C855D856E857F8588
:1046200098018E819F810E940D2C91E0891A91083A
:10463000A108B10818165CF306C0C88AD98AEA8AAC
:10464000FB8A81E005C04C865D866E867F8680E0B1
:10465000DF91CF911F910F91FF90EF90DF90CF905E
:10466000BF90AF909F908F907F906F905F904F9092
:1046700008958F929F92AF92BF92FF920F931F93D4
:10468000CF93DF93EC01F22E80E2DE011D928A953A
:10469000E9F7FB01868197819F838E835D834C833D
:1046A000848C958CA68CB78C88869986AA86BB86C6
:1046B000FC01B7964F705527B5E0440F551FBA95CA
:1046C000E1F7E40FF51F338533FF03C0188280E064
:1046D00054C0377138832385287111F438603883CA
:1046E0000B832F2D227319F02881217179F72F2D3B
:1046F0002F702A83DC0193964D915D916D917C9191
:1047000096974C8B5D8B6E8B7F8B4489558960E0CF
:1047100070E0BA0155274427028D138D20E030E068
:10472000402B512B622B732BF4FE0AC0411551050F
:1047300061057105E9F00E94802D811119C0C6CF75
:104740004C8F5D8F6E8F7F8F448D558D668D778DED
:10475000488F598F6A8F7B8FF5FE0EC0488D598D1B
:104760006A8D7B8DCE010E947C22811105C0AECF67
:104770008A8180688A83F0CF81E0DF91CF911F9199
:104780000F91FF90BF90AF909F908F9008958F9260
:104790009F92AF92BF92DF92EF92FF920F931F937F
:1047A000CF93DF937C01EB01D42EFC01808181113A
:1047B00038C088818077A9F1088919892A893B89BD
:1047C0000F71112722273327012B022B032B49F5C9
:1047D00000E010E088889988AA88BB8860E0CE0154
:1047E0000E942E220097E9F0FC0120812223C9F0CB
:1047F0002E3211F400E0EECF253EE1F3338533FD98
:1048000007C0002381F00E94732618130AC00BC052
:104810003F3081F726FFDECF022F0F71FC01158597
:10482000D9CF80E00EC0B501A40115E0769567955B
:10483000579547951A95D1F72D2DBE01C7010E94B6
:104840003923DF91CF911F910F91FF90EF90DF906F
:10485000BF90AF909F908F9008950F931F93CF9329
:10486000DF93EC018881882309F443C08A8187FFA4
:1048700038C061E0CE010E943F208C01009729F4EE
:1048800089818160898380E035C0FC018081853E1B
:10489000B9F3888183FF08C0488D598D6A8D7B8D5F
:1048A000448F558F668F778F4C8D5D8D6E8D7F8D8C
:1048B000F801538F428F758B648BE0919407F091D0
:1048C0009507309759F0B8016A5E7F4FC801489646
:1048D0000995F801808D918D938B828B8A818F77DA
:1048E0008A838E819F8180960E94602B882341F26B
:1048F00001C081E0DF91CF911F910F910895CF9377
:10490000DF93EC010E942D241882DF91CF9108954E
:10491000CF92DF92EF92FF920F931F93CF93DF938B
:10492000CDB7DEB7E3970FB6F894DEBF0FBECDBFAD
:104930008C017B015BAB4AABD22E19821A82FC013F
:104940008081882311F080E059C0FB01808180774D
:10495000D1F3EAA9FBA980818F32D9F4EAA9FBA996
:1049600080818F3221F43196FBABEAABF7CFF701B0
:1049700066817781811104C0C8010E948E203EC0EB
:10498000CE0101960E948E208823E9F2CE01019685
:104990007C0150E2C52EAE014E5C5F4FBE016F5DE3
:1049A0007F4F8AA99BA90E947827882361F2EAA9F0
:1049B000FBA980818823D1F021E0AE014F5D5F4FDC
:1049C000B701C8010E94F928882309F4BCCFF80177
:1049D000DE0111968C2D01900D928A95E1F7C801A8
:1049E0000E947F24FE0131967F01D5CF2D2DAE018F
:1049F0004F5D5F4FB701C8010E94F928E3960FB6DB
:104A0000F894DEBF0FBECDBFDF91CF911F910F9104
:104A1000FF90EF90DF90CF9008952F923F924F92AA
:104A20005F926F927F928F929F92AF92BF92CF923E
:104A3000DF92EF92FF920F931F93CF93DF93EC01DE
:104A40005B014A01888183FF0EC08A8181FF0BC010
:104A500082FF0FC0488D598D6A8D7B8DCE010E94DB
:104A60007C22811106C08981816089838FEF9FEF4D
:104A700006C1A40160E070E088899989AA89BB8990
:104A800080959095A095B09584179507A607B707D0
:104A900050F364011E012CE0220E311C4889598913
:104AA0006A897B89C114D10409F4C7C08E819F81B2
:104AB0002A013B0129E076946794579447942A95FC
:104AC000D1F7DC0113961C9114217A01B1E0FB228D
:104AD000111134C0E114F10489F54C855D856E85B2
:104AE0007F85411551056105710569F091010E94AD
:104AF0000D2C87FDB8CF811121C0CE010E94B41FBB
:104B000081111CC0B0CF8C8D9D8DAE8DBF8D009757
:104B1000A105B10579F4CE010E94B41F882309F4E0
:104B2000A2CF8C859D85AE85BF858C8F9D8FAE8FE6
:104B3000BF8F04C08C879D87AE87BF874C855D85FE
:104B40006E857F858E819F810E94F52BAB01BC0114
:104B5000410F511D611D711DEE81FF81E114F104B2
:104B600021F4C11422E0D206B8F580E092E08E195B
:104B70009F0986018C159D0508F48C01E114F10450
:104B800079F4488859886A887B88888D998DAA8DA0
:104B9000BB8D481659066A067B0610F025E001C059
:104BA00021E0CF0180960E94B32B009709F45BCFE0
:104BB000A801B5018E0D9F1D0E940435E00EF11E67
:104BC000E11482E0F80641F58E819F8180960E9473
:104BD000602B811121C047CF83A194A1A5A1B6A1CB
:104BE00084179507A607B70741F410A28FEF9FEF30
:104BF000DC0183A394A3A5A3B6A38E819F81DC01CE
:104C0000ED91FC910280F381E02D950109958823B7
:104C100009F429CF00E012E088899989AA89BB8923
:104C2000800F911FA11DB11D888B998BAA8BBB8B07
:104C3000A00EB11EC01AD10A31CF888D998DAA8DD0
:104C4000BB8D2A8184179507A607B70728F4488FDC
:104C5000598F6A8F7B8F06C080919407909195073A
:104C6000892B11F020682A838A8183FD02C0C40148
:104C700006C0CE010E942D248111F9CFF4CEDF9120
:104C8000CF911F910F91FF90EF90DF90CF90BF9049
:104C9000AF909F908F907F906F905F904F903F90DC
:104CA0002F900895653040F4FC01E60FF11DE60FEA
:104CB000F11D8181928108956B3040F4FC01E60F73
:104CC000F11DE60FF11D848195810895613140F455
:104CD000FC01E60FF11DE60FF11D86819781089515
:104CE00080E090E00895FC0190E080E080FB8795F3
:104CF00087F92191820F9F5F9B30C1F70895CF9371
:104D0000DF93FC01DB0118964D915D916D917C91D3
:104D10001B97452B462B472B41F416966D917C91A2
:104D20001797DF91CF910C948E2080E2EF011992BA
:104D30008A95E9F780E1808381E0828316968D91E0
:104D40009C9117979783868318964D915D916D91ED
:104D50007C911B97448F558F668F778F81E0DF9111
:104D6000CF9108952F923F924F925F926F927F92D0
:104D70008F929F92AF92BF92CF92DF92EF92FF926B
:104D80000F931F93CF93DF93CDB7DEB7A1970FB6E5
:104D9000F894DEBF0FBECDBF8C016B015A011982A2
:104DA0001A82FC018081811104C0F6011082412C1D
:104DB00085C04D305105C8F3F8018381811106C0CB
:104DC000B601C8010E94452B482E78C0B801CE011B
:104DD00001960E947F26882341F35524539446016F
:104DE0008A0C9B1C21E0821A9108F80183818515A9
:104DF000E0F2652C712CF801448155814619570960
:104E000060E070E085E0440F551F661F771F8A95AC
:104E1000D1F7CE0101960E947C22482E882329F2E8
:104E200060E0CE0101960E942E227C01009709F4D9
:104E3000BCCFFC0183858F3009F0B7CF80818F71A3
:104E400090E06816790609F0B0CFC3010197FDE044
:104E5000F89F3001F99F700C11241601260C371CA5
:104E600050E0652FC70159A30E94522659A100970F
:104E700091F06A147B04D0F42FEF621A720A8F3714
:104E8000910510F4282F01C02FE3F10121931F0198
:104E90005F5F5D3031F76A147B0440F4F701808175
:104EA00086FF04C0F601E60DF71D1082F4011082A2
:104EB000F701808186FD02C0539497CF842DA1967F
:104EC0000FB6F894DEBF0FBECDBFDF91CF911F911B
:104ED0000F91FF90EF90DF90CF90BF90AF909F9099
:104EE0008F907F906F905F904F903F902F9008959C
:104EF000CF92DF92EF92FF920F931F93CF93DF93A6
:104F0000FB01DC0101962C912032D9F3B483A383F9
:104F1000ED01BE016A1B7B0B8991811105C0CD019A
:104F2000860F971FEC0118C08F32C9F38C3511F42E
:104F300080E0D0C0982F977F9232D1F38A33C1F3AB
:104F4000982F9F7B9C33A1F392EC980F923080F3C3
:104F500080528F35F0F2ECCF1C2F3D2F299120325B
:104F6000D9F32F32C9F3EA0118833983EC016115B3
:104F7000710561F08A918E3211F0803219F461501E
:104F80007109F5CF6F3F710509F094F67283618363
:104F900080E090E020E2EF01C80FD91F2E83019638
:104FA0008B309105C1F7ED01CE018A1B9B0B299136
:104FB0002E32D1F32032C1F351E0009709F050E0D6
:104FC0009B012150310938F407E010E0C12CF12C8D
:104FD000C8E0EC2E0FC0ED01C20FD31F48814E3246
:104FE00081F7F2CFED01C80FD91F4881403231F46B
:104FF00050E0019686179707ACF343C04E3221F478
:1050000028173907A9F704C04232A1F04C3791F0B4
:10501000C6EDC40FC63010F44D3261F4C6ECC40FB7
:10502000C63040F0C5EAC40FC33020F0CFEDC40F46
:10503000CE3530F08217930709F150E04FE503C0F9
:1050400082179307D9F00117D0F1CFE9C40FCA3105
:1050500018F44052FE2805C0CFEBC40FCA3108F443
:10506000CE28DD24D394D10EEF01C10FD11D4E8384
:1050700046E04D1508F0D5821D2DBBCF0A30C9F48E
:1050800050E08681803209F453CF552339F0CF2088
:1050900011F082E001C08F2D808309C081E0808300
:1050A0008581E80FF11D8EE7868381E3878381E0A8
:1050B00011C0C9010AE018E040E1E42E9ACF0A309D
:1050C000F9F228173907E4F2C9010AE018E050E1C3
:1050D000E52E8ECFDF91CF911F910F91FF90EF9032
:1050E000DF90CF900895AF92BF92CF92DF92EF9270
:1050F000FF920F931F93CF93DF937C01EB01AD8061
:1051000002E010E07EE7B72E6E0186E0C80ED11CEB
:1051100089819A819801280F391FEB81FC81AF01A9
:10512000480F591FE417F50779F0C90165E0880FAA
:10513000991F6A95E1F7820F931F2191332727FD6D
:10514000309528273927EECFE3E0EA1510F453E035
:10515000A52E84E08A0D922F9F70E82FF0E09A3000
:1051600010F4905D01C0995CEC0FFD1F968344E044
:10517000369527954A95E1F78150A81660F3FE0110
:10518000EA0DF11DB68240E050E0BA01C7010E946D
:105190007C2261E0C7010E942E22BC01009731F4FD
:1051A00081E0F70191819923C9F017C0FC0180814A
:1051B000882359F0838583FDECCF4BE050E0C60196
:1051C0000E94F734892B29F702C081E007C00F5FE6
:1051D0001F4F0436110509F09BCF80E0DF91CF917E
:1051E0001F910F91FF90EF90DF90CF90BF90AF9005
:1051F00008952F923F924F925F926F927F928F927B
:105200009F92AF92BF92CF92DF92EF92FF920F9355
:105210001F93CF93DF93CDB7DEB72B970FB6F894DC
:10522000DEBF0FBECDBF3C017B876A877A012A8330
:10523000DA0111968D909C901297FB018081807706
:1052400011F480E0F3C1D3018C918111FACFFA01FE
:105250008081837009F4E1C1C4010C966DE070E0B7
:105260000E94113455245394560E40E050E0BA0188
:105270008A859B850E947C221C821D821982412C7A
:1052800010E000E01B821701B6E02B0E311CAA854E
:10529000BB8550962D913D914D915C91539765E062
:1052A00056954795379527956A95D1F7590161E04D
:1052B000CD0128873E8349875F830E942E226C019F
:1052C00028853E81009739F4EA85FB858181882312
:1052D00009F488C0B6CFDC018C91853E11F08111B4
:1052E0000AC0111102C02C833D83151508F41F5FFD
:1052F000811104C077C0151528F005C0853E19F44A
:1053000000E0C5CF10E08E32D9F3F60193859F30CF
:1053100009F046C0011108C086FFB9CF082F0F71F0
:1053200025852983402E07C04A948411E9CF8585BD
:1053300029812813E5CF842D90E00197ADE0A89F47
:105340005001A99FB00C1124A814B904C8F620E09C
:10535000622FC60128870E9452262885A814B90406
:1053600019F4892B69F693CF8F3F910509F040F628
:105370003FEB380F3A3108F4805EA5014F5F5F4F75
:10538000D7011396ED91FC911497EA0DFB1D9081C6
:105390003FEB390F3A3108F4905E8913B1CF40C129
:1053A00093FDAECF002351F0B1E04B124ACFC601BE
:1053B0000E9473262981821344CF10C04BE050E035
:1053C000B101C6010E94F734892B09F060CFD701E3
:1053D0008C9180FF03C021E02B8359CF2A8127FFC6
:1053E00014C12FCF8A818274823409F02ACF11230D
:1053F00059F0AC80BD8008C060E08A859B850E9422
:105400002E22892B21F01F5F1515B0F318C0AA8535
:10541000BB8511968C91882391F013CF8A859B854B
:105420000E94C31F882309F40CCFAA85BB8516965A
:10543000ED91FC9117978281823018F4105F151559
:1054400068F32B81222341F0B7018A859B850E9456
:105450007328882309F4F5CEA50160E070E025E00B
:10546000440F551F661F771F2A95D1F78A859B85A4
:105470000E947C22882309F4E4CE0FEF050D102F43
:105480008FE0482E670186E0C80ED11C9DE0592EA2
:1054900049C060E08A859B850E942E225C010097AE
:1054A00009F4CFCEAA85BB851696ED91FC9117978E
:1054B00080A1816080A3412F101301C04064F501D9
:1054C000408343861486C60149870E947326D5010E
:1054D0001D968C931D975B961C921E925A97F7010E
:1054E0002381348149854F7150E041505109549EC8
:1054F000C001559E900D1124F50160E088159905B5
:10550000A0F4D901A80FB91F4C91552747FD50951C
:105510006530B0F4528341836F5F019632966D30EF
:1055200069F711501111B5CF13C041E050E0881553
:10553000990511F440E050E0519541955109E8CFAB
:105540006B3018F455834483E7CF57834683E4CF09
:10555000EA85FB8580899189A289B38915E0B69592
:10556000A795979587951A95D1F75C0160E0CF01D3
:105570000E942E226C01009709F463CE80E2D601CE
:105580001D928A95E9F7F70136968BE0D6010190D6
:105590000D928A95E1F7F70180818871D6011C96FA
:1055A0008C93E0919407F0919507309739F0B6010C
:1055B000625F7F4FC6014096099509C081E298E27B
:1055C000F601918B808B80E098E097878687D601E3
:1055D00050968D919C91519753969C938E93529790
:1055E00059969C938E9358971E968D919C911F97D8
:1055F00057969C938E935697AA85BB851696ED91E8
:10560000FC91179780A1816080A32A81A5016A85FA
:105610007B85C3010E94392309C05524539425CEAC
:105620002F5F2D3009F433CE5A0192CE2B960FB650
:10563000F894DEBF0FBECDBFDF91CF911F910F91C8
:10564000FF90EF90DF90CF90BF90AF909F908F90A2
:105650007F906F905F904F903F902F9008956115CD
:10566000710581F0DB010D900020E9F7AD0141509B
:105670005109461B570BDC01ED91FC910280F3812F
:10568000E02D099480E090E00895CF93DF93EB0143
:10569000FC012081211102C080E00FC0207621F0A2
:1056A0008FE28883198208C060E00E943F20009743
:1056B00099F3BE010E94602081E0DF91CF910895AF
:1056C000BF92CF92DF92EF92FF920F931F93CF93EF
:1056D000DF93EC01888180FF39C089819A818E0136
:1056E000095F1F4FDC01ED91FC914B815C816D8165
:1056F0007E810280F381E02D98010995B82E8111F9
:1057000002C0B12C25C0888181FD04C088818E7FB4
:1057100088831EC0A981BA81ED91FC9111971C96D6
:105720004D915D916D917C911F97CB80DC80ED80D8
:10573000FE804C0D5D1D6E1D7F1D0280F381E02DEE
:105740009801CD0109958111E1CFDBCFBB24B39442
:105750008B2DDF91CF911F910F91FF90EF90DF90F4
:10576000CF90BF900895CF92DF92EF92FF921F9358
:10577000CF93DF93EC016A017B01122F4B815C8197
:105780006D817E814C155D056E057F0501F10E94DE
:10579000602B811103C080E090E01FC012FF06C0A3
:1057A0001882CB82DC82ED82FE8211C089819A81CF
:1057B000DC01ED91FC910190F081E02D9E01295FCB
:1057C0003F4FB701A60109958111EACFE4CF1370CD
:1057D0008881812B8883CE010796DF91CF911F911D
:1057E000FF90EF90DF90CF900895425051096109EA
:1057F0007109FC01048004C0440F551F661F771F08
:105800000A94D2F780899189A289B389480F591FD8
:105810006A1F7B1FCB01BA010895CF92DF92EF92EE
:10582000FF920F931F93CF93DF93EC016A017B01EB
:1058300089018D81803251F5E7E07695679557951E
:105840004795EA95D1F78C899D89AE89BF89480F24
:10585000591F6A1F7B1F22E0CE0180960E94B32B46
:10586000009711F48FEF40C0E894C7F8DD24EE24D0
:10587000FF24F601EE0FFF1FEE0FFF1FE80FF91FC9
:1058800040815181628173817F701DC0803151F7E9
:105890004C895D896E897F894D0D511D611D711D7A
:1058A00022E0CE0180960E94B32B0097D9F2DD242E
:1058B000EE24FF24F601EE0FFF1FE80FF91F4081D1
:1058C000518160E070E0888D998DAA8DBB8D841721
:1058D0009507A607B70738F0F80140835183628324
:1058E000738381E001C080E0DF91CF911F910F9120
:1058F000FF90EF90DF90CF9008958F929F92AF929C
:10590000BF92CF92DF92EF92FF920F931F936A01A3
:105910007B0148015901FC012581203231F517E056
:1059200076956795579547951A95D1F70489158906
:1059300026893789400F511F621F731F23E080960D
:105940000E94B32B009799F0E894C7F8DD24EE2469
:10595000FF24F601EE0FFF1FEE0FFF1FE80FF91FE8
:1059600080829182A282B3821DC0203111F080E03A
:105970001AC0FC0144895589668977894D0D511DEE
:10598000611D711D23E080960E94B32B009779F36F
:10599000DD24EE24FF24F601EE0FFF1FE80FF91FB0
:1059A0009182808281E01F910F91FF90EF90DF90B4
:1059B000CF90BF90AF909F908F9008953F924F925D
:1059C0005F926F927F928F929F92AF92BF92CF928F
:1059D000DF92EF92FF920F931F93CF93DF93CDB798
:1059E000DEB728970FB6F894DEBF0FBECDBF9E83FB
:1059F0008D832A013B0138872F83411551056105AD
:105A0000710531F4FC0180849184A284B38402C0C6
:105A10004A015B0175016401FFEFCF1ADF0AEF0A4B
:105A2000FF0AED81FE81808D918DA28DB38D8C1545
:105A30009D05AE05BF0528F402E0C02ED12CE12C57
:105A4000F12C9E012F5F3F4FB701A6018D819E81F2
:105A50000E940D2C87FD1DC0882341F089819A8109
:105A6000AB81BC81892B8A2B8B2B31F0C814D904D4
:105A7000EA04FB0489F60DC00FEF1FEF2FEF3FE0A4
:105A8000B701A6018D819E810E947D2C382E811147
:105A900002C0312C1CC0411451046104710459F03E
:105AA00097018601B301A2018D819E810E947D2C08
:105AB000811107C0EECFED81FE81C086D186E286DE
:105AC000F386EF81F885C082D182E282F382832D52
:105AD00028960FB6F894DEBF0FBECDBFDF91CF91F1
