:100000000C9419040C9441040C9441040C94410484
:100010000C9441040C9441040C9441040C9441044C
:100020000C9441040C9441040C9441040C94D91890
:100030000C9441040C9441040C9441040C9441042C
:100040000C944C190C9441040C9441040C944104FC
:100050000C9441040C9441040C9441040C9441040C
:100060000C9441040C9441040086007B006F0072E4
:1000700065736574207374617473006564697420BA
:100080006C6576656C00706C61792067616D6500E8
:100090000808E7818100008181E70808181818180E
:1000A000181818180808000000FFFF0000000808D2
:1000B0000000001F1F1818180808000000F8F818A2
:1000C00018180808181818F8F80000000808181878
:1000D000181F1F000000080824242424242424249A
:1000E00008080000FF0000FF0000080800001F30A3
:1000F0002027242408080000F80C04E4242408081D
:100100002424E4040CF80000080824242720301FCD
:100110000000080818181FF8F827242408081818E1
:10012000F81F1FE4242408082424E41F1FF81818CB
:100130000808242427F8F81F18180808242424FF86
:10014000FF24242408081818FF1818FF1818080896
:100150000018E40202E418000808001827404027AD
:10016000180008080000183F3F18000008080000A9
:1001700018FCFC180000401E84E00010A000428023
:10018000971F0010200040809150800CC000330069
:100190008C0240084E0721004001200971F8E5005B
:1001A0002110A009150A85001F1C2008C060090045
:1001B00000E4200400000200000660021108840030
:1001C00000081001F1F8F800000850000E070000C8
:1001D00000081000000000000006600000000000A1
:1001E000C0E42000000000003F1CA0000000000050
:1001F000A150A000000000000C0120000700070033
:100200000000400005000500211080000500070CDB
:100210003F1F000005000014C0E0000007000014AC
:100220003E1F8EF07738E7377E3F4BE8BF28A53F6B
:10023000F079AE29E738A51CE070AE29C738A51CB7
:10024000E070EE39C738E71CE070EE39C738E71CBC
:10025000F079EE39C738E71C7E3FCE38FF3FE71F05
:100260003E1F8E38771EE70F03053F213F1208120D
:100270000A100A0E1C0E0C1E0C141A14161F161E41
:10028000131E1E1B1E1E1F1E3F213F3A2F3A173DF5
:10029000173F213F181F02040A041F0E04040E1FFB
:1002A0000A1F0A0E0E1F04110E2E252E2F2A2E268F
:1002B0002929021F02081F08150E04040E150E1529
:1002C000151B151B040604040C0400000000170095
:1002D0000300031F0A1F16371A1904130A153A00E0
:1002E0000300000E11110E000A040A040E0400306F
:1002F000000404040010001804031F111F121F1033
:100300001D151711151F07041F17151D1F151D019A
:10031000011F1F151F17151F000A00003200040AD5
:10032000110A0A0A110A040115020E11171E051EF0
:100330001F150A0E110A1F110E1F15111F05010EA0
:10034000111D1F041F111F1108100F1F041B1F1068
:10035000101F061F1E040F0E110E1F09060E112E70
:100360001F051A121509011F011F101F0F180F1F5B
:100370000C1F1B041B031C03191513001F1103047E
:1003800018111F000201022020200001020C121E81
:100390001F120C0C12120C121F0C1A14041E05242E
:1003A0002A1E1F021C141D1020201D1F0814111FBF
:1003B000101E041E1E021C0C120C3E0A040C123EDF
:1003C0001E040214160A020F120E101E0E100E1E2C
:1003D000081E120C1226281E322A26041E21001F77
:1003E00000211E040102013F213F05077F414141D9
:1003F0007F3E5B4F5B3E3E6B4F6B3E183C783C183C
:10040000183C7E3C181C577D571C1C5E7F5E1C00F0
:100410007E43437E007E73737E007E7F7F7E7F41BE
:1004200041417F30483A060E06297929067F41412D
:10043000417F60703F02042A1C361C2A7F3E1C0844
:100440000000081C3E7F14227F22143C3C3C7EFFAF
:1004500018423C817E3E6375633E3E616B633E3E67
:10046000636B6B3E04027F020410207F201008089B
:100470002A1C08081C2A0808143E55412263756985
:10048000756310181C1810040C1C0C0400000000EC
:100490000000005F00000007000700147F147F14B5
:1004A000042A7F2A1023130864623649562050001C
:1004B00008070300001C2241000041221C002A1CE6
:1004C0003E1C2A08083E080800E0600000080808F2
:1004D0000808006060000060100804033E514945B0
:1004E0003E00427F400062514949462141494D3317
:1004F0001814127F1027454545393C4A4949304177
:10050000211109073649494936064949291E000083
:100510002400000080640000081422410014141418
:100520001414004122140802015909063E415D5984
:100530004E7C1211127C7F494949363E414141228D
:100540007F4141221C7F494949417F090909013EF8
:10055000414151327F0808087F00417F410020411E
:10056000413F017F081422417F404040407F020C00
:10057000027F7F0204087F3E4141413E7F09090915
:10058000063E416141BE7F09192946264949493243
:1005900001017F01013F4040403F1F2040201F3F9D
:1005A0004038403F63140814630304780403615126
:1005B000494543007F414100030408106000414168
:1005C0007F0004020102048080808080000307080D
:1005D0000020545478407F28444438384444442808
:1005E000384444287F3854545418087E09090218A6
:1005F000A4A49C787F0804047800447D4000006037
:1006000080847D7F1010284400417F40007C047866
:1006100004787C080404783844444438FC182424C2
:100620001818242418FC7C08040408085454542086
:10063000043F4444203C4040207C1C2040201C3C83
:100640004020403C44281028444C9090907C4464C6
:10065000544C44000836410000007F000000413641
:100660000800180408100C7F4141417F0A4E6F209A
:1006700053442063617264206F720A6E6F204C4F86
:10068000414445522E4845580A0A153A457869743E
:10069000001D20466C617368696E670A20206C6FCC
:1006A000616465722E2E2E0A0A444F4E2754205440
:1006B00055524E204F464621000A0A153A49676EA8
:1006C0006F7265006D560A0A504C454153452054DF
:1006D00055524E204F464620004C4F572042415421
:1006E0005445525921200017534400161378001620
:1006F0001314001510200015201000540A03E18186
:10070000867F3E186D830F0F0E0183866033186D50
:10071000C3198F1803C38E6033186DE330CF1803ED
:10072000C39E603630CDE360CF3006C79E7E3E303C
:10073000CDB360CF300CC6F6603330D9B660CF335E
:10074000CFCCF66061B0DB1E60CF30D86CE6C06104
:10075000B0DB1E618F19986CC6C063B19B0E330F5E
:100760000FB078C6FF7E1F1B061E0F0500893008DC
:10077000023802497868140000F6E8DBCFC3B8AE4F
:10078000A49B928A827B746E68625C57524E494584
:10079000413E3A3734312E2C29272523211F1D1C99
:1007A0001A1917161514131211100F0E0D0C0B0A2F
:1007B00009080706450068010000050068013801C6
:1007C00000000500380168010000D207CE070101D2
:1007D000FF030101F703000000080002010000030D
:1007E00004070000000000000000010204081020BF
:1007F00040800102040810200102040810200404B3
:1008000004040404040402020202020203030303B8
:100810000303000000002300260029000000000060
:10082000250028002B0000000000240027002A00DB
:100830002D0911241FBECFEFD8E0DEBFCDBF11E0E0
:10084000A0E0B1E0E2EAFDE302C005900D92A2361D
:10085000B107D9F724E0A2E6B1E001C01D92A130B2
:10086000B207E1F718E0C2E3D8E004C02297FE0126
:100870000E94BC1EC033D107C9F70E94661B0C94AE
:10088000CF1E0C940000DC01643508F053C04033E7
:1008900008F050C090968C919097342F35953595EF
:1008A0003595E62FFF27E7FDF095242F277082303E
:1008B00099F4DF01AE50BE4F84E53802A00DB11DA2
:1008C00011248C9190E0022E02C0959587950A9490
:1008D000E2F78095817009C0833039F446271C9671
:1008E0008C91482740FF03C014C0811112C084E5D9
:1008F0003802E00DF11D1124EE50FE4F81E090E032
:10090000022E01C0880F0A94EAF7809590819823FF
:1009100010C084E53802E00DF11D1124EE50FE4FA9
:1009200081E090E0022E01C0880F0A94EAF79081DE
:10093000982B90830895BF92CF92DF92EF92FF920F
:100940000F931F93CF93DF9383E1C82E81E0D82EBE
:1009500010E09AE0B92EFF24F394F10EC0E0D0E04D
:1009600080916501813039F44C2F612F88EB91E043
:100970000E9443043FC08230A9F463E088EB91E019
:100980000E94060B26E04C2F6F2D88EB91E00E9411
:10099000310B26E04C2F4F5F612F88EB91E00E94D6
:1009A0000E0B23C08330A1F463E088EB91E00E943A
:1009B000060B28E04C2F612F88EB91E00E940E0B74
:1009C00028E04C2F612F88EB91E00E94310B0DC085
:1009D000843081F463E088EB91E00E94060B4C2F99
:1009E000612F88EB91E00E94430461E088EB91E085
:1009F0000E94060BF601EC0FFD1F2081222369F0F7
:100A0000B29E9001112420573F4FE12C00E04C2F63
:100A1000612F88EB91E00E942E0E2896C033D105FD
:100A200009F09ECF8FEFC81AD80A185F103409F06A
:100A300092CF40911001440F440F440F6091110177
:100A4000660F660F660FE12C00E020E930E088EBCE
:100A500091E00E942E0EDF91CF911F910F91FF9098
:100A6000EF90DF90CF90BF900895CF93C0E4C093F4
:100A7000C1018BE28093C20168E672E088EB91E0ED
:100A80000E941B0F60910E0170910F014AE050E02F
:100A900088EB91E00E94BF1C80916201882389F05D
:100AA000C093C1018AE08093C2016AEE73E088EBD3
:100AB00091E00E941B0F65E471E088EB91E00E94D9
:100AC000D81B80910E0190910F01892B91F48EE13A
:100AD0008093C1018AE08093C2016AEE73E088EBE3
:100AE00091E00E941B0F69E471E088EB91E00E94A5
:100AF000D81B80E48093C10184E18093C2016AEE37
:100B000073E088EB91E00E941B0F60916601709189
:100B100067014AE050E088EB91E0CF910C94BF1C54
:100B20008AE691E00E94FA1546E751E068E670E037
:100B30008AE691E00C943F1420916801309169019C
:100B40002F5F3F4F883008F05FC0663008F05CC010
:100B500098E0699FF0011124E80FF11DED5EFE4F52
:100B60009081992309F450C0953141F44330B1F597
:100B7000309369012093680181E00895963119F45A
:100B8000443061F5F5CF913011F0923141F44130AC
:100B900011F46150D5CF423011F46F5FD1CF923054
:100BA00011F0913141F4433011F48150C9CF4430F8
:100BB00011F48F5FC5CF933011F09F3021F4433093
:100BC00041F04130F1F0943011F0903139F444307B
:100BD00019F46F5F42E0B4CF413039F0977F953020
:100BE00039F4443049F0423079F4815043E0A8CFE1
:100BF000963051F4433019F4615041E0A1CF4230B6
:100C000019F48F5F44E09CCF309369012093680111
:100C100080E0089520916801309169012F5F3F4F76
:100C2000883008F060C0663008F05DC098E0699FC9
:100C3000F0011124E80FF11DED5EFE4F9081992324
:100C400009F451C0933141F4443019F530936901EE
:100C50002093680181E00895943119F44330C9F478
:100C6000F5CF973011F0913141F4413011F46150DA
:100C7000D5CF423011F46F5FD1CF983011F092315F
:100C800041F4433011F48150C9CF443011F48F5FE7
:100C9000C5CF592F5B7F593029F4433039F04130AB
:100CA000A1F41EC05A3041F4443019F46F5F42E0A1
:100CB000B5CF413051F406C05B3039F4443059F0BF
:100CC000423019F4815043E0A9CF9C3011F09031AB
:100CD00051F4433019F4615041E0A0CF423019F48F
:100CE0008F5F44E09BCF309369012093680180E0DF
:100CF0000895EF92FF920F931F93CF93DF9381E0BC
:100D0000809362011092690110926801C1E0D0E005
:100D10008E010E5E1E4FF12CEC2EEA94EA94F8013F
:100D20008081833190F1863149F443E06F2D8E2D1F
:100D30000E949C05811102C010926201F80180811D
:100D4000853149F444E06F2D8C2F0E949C05811160
:100D500002C010926201F8018081833149F443E0BE
:100D60006F2D8E2D0E940A06811102C01092620121
:100D7000F8018081843149F444E06F2D8C2F0E946A
:100D80000A06811102C010926201085F1F4FF3949E
:100D9000F6E0FF12C4CF2196C930D10509F0B8CFD3
:100DA000809162018823A1F020910C0130910D0106
:100DB00080910A0190910B01280F391F80910E013B
:100DC00090910F01820F931F90930F0180930E015A
:100DD000DF91CF911F910F91FF90EF900895209197
:100DE000100188E0289F90011124D901AD5EBE4F0B
:100DF00011964C91119781E090E0FD01E80FF91FE9
:100E000051815083019686309105B9F7F901ED5E65
:100E1000FE4F468308952091100188E0289F90019D
:100E20001124D901AD5EBE4F16964C91169786E0FF
:100E300090E00197FD01E80FF91F50815183813047
:100E40009105B9F7F901ED5EFE4F41830895E091F8
:100E50001101F0E0ED5EFE4F408180E090E09F01E7
:100E6000D901A80FB91F18965C9118975C93089642
:100E700088329105A9F740A70895E0911101F0E0AB
:100E8000ED5EFE4F40A580E090E09F01D901A80FE4
:100E9000B91F90965C91909798965C930897883DBF
:100EA0005FEF950799F74083089545E062E084E796
:100EB00091E00E94720A882359F18091630188238E
:100EC00001F18FE891E00E9429190E940B070E940E
:100ED000790680910E0190910F0120910A013091C5
:100EE0000B01821B930B90930F0180930E01809155
:100EF0006601909167010196909367018093660166
:100F000007C080911101863018F48F5F8093110122
:100F100045E060E084E791E00E94720A882359F17D
:100F200080916301882301F18FE891E00E942919E3
:100F30000E94EF060E94790680910E0190910F01A8
:100F400020910A0130910B01821B930B90930F01AA
:100F500080930E01809166019091670101969093B4
:100F600067018093660107C080911101823018F0FB
:100F700081508093110145E063E084E791E00E9495
:100F8000720A882359F180916301882301F18FE867
:100F900091E00E9429190E943D070E9479068091E4
:100FA0000E0190910F0120910A0130910B01821BDB
:100FB000930B90930F0180930E01809166019091A5
:100FC00067010196909367018093660107C0809145
:100FD0001001853018F48F5F8093100145E061E0C7
:100FE00084E791E00E94720A882359F1809163019D
:100FF000882301F18FE891E00E9429190E942707B8
:101000000E94790680910E0190910F0120910A01B2
:1010100030910B01821B930B90930F0180930E0173
:10102000809166019091670101969093670180938A
:10103000660107C080911001882319F081508093C8
:10104000100164E084E791E00E94600A882339F08F
:1010500080916201811103C081E08093630164E0AB
:1010600084E791E00E94690A81111092630165E0B2
:1010700084E791E00E94600A882349F0809165012D
:101080008F5F80936501853010F01092650166E0F6
:1010900084E791E00E94600A882319F081E0809340
:1010A00012010895EF920F9345E062E084E791E02A
:1010B0000E94720A882339F080911101873018F458
:1010C0008F5F8093110145E060E084E791E00E942A
:1010D000720A882339F080911101882319F0815018
:1010E0008093110145E063E084E791E00E94720A79
:1010F000882339F080911001853018F48F5F809338
:10110000100145E061E084E791E00E94720A8823C3
:1011100039F080911001882319F0815080931001DB
:101120004AE064E084E791E00E94720A882369F053
:1011300080911101E091100198E0E99FF0011124E4
:10114000E80FF11DED5EFE4F108264E084E791E050
:101150000E94600A882379F080911101E0911001CA
:1011600098E0E99FF0011124E80FF11DED5EFE4FBC
:1011700080916401808365E084E791E00E94600AC9
:10118000882349F0809164018F5F809364018731E7
:1011900011F41092640166E084E791E00E94600A15
:1011A000882319F081E080931201209164018AE084
:1011B000289F9001112420573F4FE12C00E04AE086
:1011C0006FE388EB91E00E942E0E0F91EF9008954F
:1011D0008AE691E00E94F2118823F1F180911201D8
:1011E000813061F543E069E670E08AE691E00E94B3
:1011F000AC12813031F0823041F081112DC082E09B
:1012000001C083E080931201089580E197E29093FA
:101210000F0180930E0188EE93E090930D0180936F
:101220000C0185E090E090930B0180930A011092ED
:10123000670110926601109264010895823031F4C2
:101240000E9455070E949B040C943505833021F4BD
:101250000E9452080C949B0408951092BB011092B6
:10126000BA0187E591E09093B9018093B8010895A0
:10127000CF93CFB7F8948091F101811127C0E8E0B6
:10128000F8E08491E4EFF7E09491E82FF0E0EE0FBE
:10129000FF1FEA5DF74FA591B4918C91892321F44A
:1012A00061E08AE00E94061B61E08AE00E94CD1A9C
:1012B0008CB580618CBD8CB580648CBD61E08DE0A7
:1012C0000E94CD1A61E08BE00E94CD1A8091F1015D
:1012D0008F5F8093F101CFBFCF91089521E0FC0192
:1012E0002083089570E085E00C94451AAF92BF9278
:1012F000CF92DF92EF92FF920F931F93CF93DF93E2
:10130000EC0189819A812FE0289F8001299F100D8F
:10131000112485E10E94281A800F911F24E09695E0
:1013200087952A95E1F79A8389832881222391F171
:10133000AC81AD80B12CC12CD12CE885F9857F0121
:1013400000E010E06E817F819B0140E050E0861755
:10135000970728F0BC01E817F90708F4BF0180E0FF
:1013600090E01F921F921F92AF930E94C51C6B8347
:101370000F900F900F900F9070E085E0DF91CF916C
:101380001F910F91FF90EF90DF90CF90BF90AF90A3
:101390000C94451ADF91CF911F910F91FF90EF9020
:1013A000DF90CF90BF90AF900895FC018CE39FE059
:1013B0009383828384E0818381E084870895CF933F
:1013C000DF93EC018C819D81892B81F18C858F715C
:1013D00051F584E10E94281ABC01882777FD809589
:1013E000982F0E943B1D26EE3FE34EEC50E40E94F6
:1013F000C71D0E940D1D9B017B836A8361157105CA
:1014000081F084E08983FE0140E084819581281782
:10141000390710F449830AC04F5F32964430A9F768
:1014200002C08FEF89838C858F5F8C87DF91CF918E
:101430000895FC0188E0808389E0818387E08283CE
:1014400086E0838384E0848382E0858381E18683F0
:101450000895DF92EF92FF920F931F93CF93DF9344
:101460007C01EC0100E010E0DD24DA9462E0888188
:101470000E94CD1A88810E943C1BF701E00FF11FEA
:10148000892B21F487818F5F878308C08781882318
:1014900049F08F3F11F4178201C0D78260E0888144
:1014A0000E94CD1A0F5F1F4F219607301105F1F6EC
:1014B000DF91CF911F910F91FF90EF90DF900895F2
:1014C000FC01E60FF11D81E09781913009F080E089
:1014D0000895FC01E60FF11D81E097819F3F09F01F
:1014E00080E00895262F30E0FC01E20FF31F878192
:1014F000423028F481508E3F48F080E008958F3FBD
:10150000E1F3642F0E943A1E9130B9F781E008950B
:101510008EBD00000DB407FEFDCF8EB508951F935C
:10152000CF93DF93EC01162FF89460E08F850E9433
:10153000061B888918161CF460E00E94061B812F88
:101540000E94880A888918161CF461E00E94061B14
:101550007894DF91CF911F91089528EF31E0E2EF69
:10156000F1E0DF01A9011D9241505040E1F7DC019B
:1015700019961C9219971A961C920895DF92EF9271
:10158000FF920F931F93CF93DF93EC018C858F5FB6
:101590008C8782EFE82E81E0F82ED12C6D2D6064CF
:1015A000CE010E948F0A60E8CE010E948F0A61E09E
:1015B0008F850E94061B888918161CF460E00E9423
:1015C000061B00E010E0F701E00FF11F80810E9490
:1015D000880A0F5F1F4F04351105A9F7888918166F
:1015E0001CF461E00E94061BD39484E5E80EF11C14
:1015F00086E0D812D3CF60E4CE01DF91CF911F9166
:101600000F91FF90EF90DF900C948F0AFC0160A384
:1016100061A30895FC0160A341A30895CF92DF92D6
:10162000FF920F931F93CF93DF931F92CDB7DEB737
:101630006C01062FF42E10E0121754F4412F4F0DB9
:10164000602FC60129830E9443041F5F2981F4CFC4
:101650000F90DF91CF911F910F91FF90DF90CF906E
:101660000895CF92DF92FF920F931F93CF93DF9352
:101670001F92CDB7DEB76C01062FF42E10E01217C3
:1016800054F4612F600F4F2DC60129830E9443043B
:101690001F5F2981F4CF0F90DF91CF911F910F91A0
:1016A000FF90DF90CF900895DF92EF92FF920F931B
:1016B0001F93CF93DF93EC01E62ED22EF42E112749
:1016C00007FD1095040F111D47FD1A958F2D9927C1
:1016D00087FD90958017910744F42D2D4F2D6E2D89
:1016E000CE010E94310BF394F1CFDF91CF911F9186
:1016F0000F91FF90EF90DF9008958F929F92AF929D
:10170000BF92CF92DF92EF92FF920F931F93CF93EE
:10171000DF93EC01E62ED42E122FCC24C394C21AF0
:10172000B22EB194BB0CF12C802F8470A82E802F88
:101730008270982E802F8870882E0170F1160CF020
:101740004DC0C7FC04C01150B394B394CB0CF394B8
:101750008F2D880F8F5FC80EAA2071F0412F4D0D7D
:101760006F2D6E0DCE010E9443044F2D4D0D612F44
:101770006E0DCE010E944304992071F04D2D411B46
:101780006F2D6E0DCE010E9443044D2D4F19612F18
:101790006E0DCE010E944304882071F04F2D4D0D37
:1017A0006E2D611BCE010E944304412F4D0D6E2D05
:1017B0006F19CE010E944304002309F4BFCF4D2DC1
:1017C0004F196E2D611BCE010E9443044D2D411B0C
:1017D0006E2D6F19CE010E944304B0CFDF91CF91DF
:1017E0001F910F91FF90EF90DF90CF90BF90AF903F
:1017F0009F908F9008958F929F92AF92BF92CF92B9
:10180000DF92EF92FF920F931F93CF93DF93EC0140
:10181000B62EA42E122FDD24D394D21AC22EC19438
:10182000CC0CFF24F394802F8170882E99249394FC
:101830009E0C02708FEF8F0D8117C4F5D7FC04C08A
:101840001150C394C394DC0C8F2D880F8F5FD80E7A
:10185000882099F0212F220F290D4A2D411B6F2D31
:101860006B0DCE010E940E0B23E02E0D4A2D4F1959
:10187000612F6B0DCE010E940E0B002399F0212FDA
:10188000220F290D4A2D411B6B2D6F19CE010E948D
:101890000E0B23E02E0D4A2D4F196B2D611BCE012F
:1018A0000E940E0BF394E394E394C4CFDF91CF91A5
:1018B0001F910F91FF90EF90DF90CF90BF90AF906E
:1018C0009F908F9008959F92AF92BF92CF92DF9298
:1018D000EF92FF920F931F93CF93DF93EC01B62EFD
:1018E000F42EA22EDE2CD194DD0C9D2C920E1E2DFA
:1018F000160F292D612F0E94310BCC24CA94C00EE3
:10190000CF0C292D4C2D612FCE010E94310BD00E12
:10191000FE0C2D2D4F2D6B2DCE010E940E0BBA0CFF
:101920006FEF6B0D2D2D4F2DCE010E940E0B01E0A0
:101930002E2D4F2D612FCE010E947D0BDE2CD094D9
:10194000DB0C02E02E2D4F2D6D2DCE010E947D0B64
:10195000CE1804E02E2D4C2D6D2DCE010E947D0B56
:1019600008E02E2D4C2D612FCE010E947D0BDF91C2
:10197000CF911F910F91FF90EF90DF90CF90BF908C
:10198000AF909F900895AF92BF92CF92DF92EF9267
:10199000FF920F931F93CF93DF93EC01A62EC42EDB
:1019A000B22EF02E1E2DE194EE0CD12ED60E2E2D41
:1019B0002B0D6D2D0E94540BFA94FE0CC10E6FEF8F
:1019C0006A0D6B0D611BEF2C01E0212F4C2DCE0118
:1019D0000E94FB0B02E0212F4C2D6D2DCE010E94A9
:1019E000FB0BDF91CF911F910F91FF90EF90DF9054
:1019F000CF90BF90AF9008956F927F928F929F92F9
:101A0000AF92BF92CF92DF92EF92FF920F931F930C
:101A1000CF93DF93F901A49031965491FC01F0A08B
:101A200064350CF00CC1BB24A7FCB094A62FBB27D7
:101A3000A7FDB095FD01EA0DFB1D1E161F060CF05B
:101A4000FEC040330CF0FBC0C52E042F112707FD4C
:101A50001095E801C50FD11D57FDDA951C161D061E
:101A60000CF0EDC0E90122969501295F3F4F37FF49
:101A700002C0295F3F4F73E0359527957A95E1F7CE
:101A800047FF0AC0C52EC40E209FA001219F500D04
:101A90001124C41BD50B40E00C2D112707FD109518
:101AA000040F111D47FD1A95013311051CF070E359
:101AB000C72EC41A67FD60E0E535F10514F0E4E5D2
:101AC000F0E01E2FFC0174857427862F992787FD6F
:101AD0009095FC01EA1BFB0BDF015F01F7E0AF22F1
:101AE000BB24E0E8F0E002C0F595E795AA94E2F7A0
:101AF0000E2FB7FD179653E0B595A7955A95E1F7C8
:101B0000AC0FBD1FE42FE77051E001C0550FEA95FF
:101B1000EAF7459545954595E4E54E02800D911D02
:101B200011248E509E4F40E0DD24C7FCD094BB248E
:101B3000B3943327E42FF0E0EC15FD050CF07FC0E3
:101B4000FD01E490F1E0FF1219C0EC01A02EFD01AF
:101B5000862E881A9C2E980C911608F067C09E2C31
:101B60009A2019F09880952A9882A69429F43196A3
:101B7000E4906894AA24A7F82196ECCFF1101BC03A
:101B8000752E7094EC01A02EFD01862E881A9C2ED5
:101B9000980C911608F04AC09E2C9A2019F0988053
:101BA00097209882A69429F43196E4906894AA2408
:101BB000A7F82196ECCFE3E0FE1631F0EC01A02E61
:101BC000FD01862E881A2EC0752E7094962EEC017B
:101BD000A02EFD019116B0F48E2C8A2049F0888049
:101BE000692C672660FE02C0852A01C08720888292
:101BF000A69429F43196E4906894AA24A7F89394C3
:101C00002196E8CF7B2512C09E2C9A2019F098804F
:101C100095269882A69429F43196E4906894AA2493
:101C2000A7F821969C2E980C911670F3550F19F475
:101C30008C5A9F4F51E04F5FA20FB31F7BCFDF91B4
:101C4000CF911F910F91FF90EF90DF90CF90BF90B9
:101C5000AF909F908F907F906F9008952F923F92BA
:101C60004F925F926F927F928F929F92AF92BF92AC
:101C7000CF92DF92EF92FF920F931F93CF93DF9358
:101C8000CDB7DEB72A970FB6F894DEBF0FBECDBF33
:101C90006C01262E542F01111CC0E1101AC02A9687
:101CA0000FB6F894DEBF0FBECDBFDF91CF911F916D
:101CB0000F91FF90EF90DF90CF90BF90AF909F90EB
:101CC0008F907F906F905F904F903F902F900C94EB
:101CD000FC0CF901849131963490B9016E5F7F4F0D
:101CE0007A836983A82EB12C9501295F3F4FB3E019
:101CF00035952795BA95E1F73A87298703702FEF35
:101D0000280F522E10E07FEF730D832D90E09C83FF
:101D10008B83812F992787FD90958A159B050CF061
:101D200071C0812F17FF02C087E0810F682E659474
:101D300065946594812F877887FF03C08150886FF1
:101D40008F5FA0E88A2E912C02C0959487948A9583
:101D5000E2F7472EF12C772467FC70948F2D99279A
:101D600087FD9095EB81FC818E179F070CF047C093
:101D7000A985BA858A9FF0018B9FF00D9A9FF00D7F
:101D80001124E60DF71D89819A81E80FF91FE4916E
:101D9000F0E0E821F921EF2B79F1023039F003303E
:101DA00041F0013049F4452D6F2D08C0652D442DBB
:101DB00005C0642D412F02C04F2D612FEE2069F028
:101DC0003E2D3370E0FE03C0922F961B692FE1FE7B
:101DD00005C0A32DA41B4A2F01C030E0620D450FA2
:101DE000C6012E833D835F8378870E9443043D8133
:101DF000E32E78855F812E81F3944A94AFCF1F5FE5
:101E00005A9487CF2A960FB6F894DEBF0FBECDBF87
:101E1000DF91CF911F910F91FF90EF90DF90CF90C6
:101E2000BF90AF909F908F907F906F905F904F90FA
:101E30003F902F900895DC01FB0184918F5F1496F1
:101E40008C9314973196E491EF5F1596EC93159768
:101E50006E5F7F4F5F967C936E935E970895EF92CF
:101E60000F93CF93DF93EC014E876D872F87E98A1D
:101E7000088B81E0888788A319A28F8368E672E0C7
:101E8000CE010E941B0F0E9438098CB58F7D8CBD3E
:101E90008CB58C7F81608CBD8DB581608DBD8CB51E
:101EA0008C608CBD61E08E850E94CD1A61E08D85CD
:101EB0000E94CD1A61E08F850E94CD1A898918167B
:101EC0001CF461E00E94CD1A888918161CF461E0A8
:101ED0000E94CD1A898918166CF460E00E94061BD6
:101EE0006AE070E080E090E00E94C51961E08989B5
:101EF0000E94061B8D85992787FD9095FC01E25075
:101F0000F84FE491F0E0EE0FFF1FE45EF74F2591EC
:101F100034913D8B2C8BFC01E651F84F84918B8FD3
:101F20008E85992787FD9095FC01E250F84FE4914A
:101F3000F0E0EE0FFF1FE45EF74F259134913B8BED
:101F40002A8BFC01E651F84F84918A8F8889992762
:101F500087FD9095FC01E250F84FE491F0E0EE0F20
:101F6000FF1FE45EF74F259134913F8B2E8BFC01D0
:101F7000E651F84F84918C8F8F85992787FD909536
:101F8000FC01E250F84FE491F0E0EE0FFF1FE45E39
:101F9000F74F25913491398F288FFC01E651F84F86
:101FA00084918D8F61E2CE010E948F0A64E1CE019F
:101FB0000E948F0A8B8587FF02C08FE78B876B8516
:101FC0006068CE010E948F0A60E2CE010E948F0AF3
:101FD0006CE0CE010E948F0ACE01DF91CF910F916C
:101FE000EF900C94BE0A6F927F928F929F92AF9265
:101FF000BF92CF92DF92EF92FF920F931F93CF93F6
:10200000DF93EC01162FF42EB02EE8A064350CF00F
:1020100081C08FE284170CF47DC0EC81F0E0319731
:102020000E9FC0010F9F900D1124860F911D67FD1B
:102030009A95181619060CF06DC08D81809FC0010D
:102040001124840F911D47FD9A95181619060CF05E
:1020500061C0A62E962EC22ED12C8A2D811B9927C7
:1020600087FD90952C8130E0821793070CF051C0CA
:10207000215031098217930779F0C29ED001C39E87
:10208000B00DD29EB00D1124A80FB91FEE8DFF8D9B
:10209000EA0FFB1F749001C0712C8F2C6F2C282D20
:1020A0002F19332727FD30958D8190E028173907A8
:1020B0006CF570FE11C081E0B81206C0482D6A2D83
:1020C000CE010E9443041EC00B2D2B2D462D692DE1
:1020D000CE010E94540B16C089A198A1891791F0D6
:1020E00088A381E0B81206C0482D6A2DCE010E9457
:1020F000430407C00B2D2B2D462D692DCE010E94C8
:10210000540BE8A276946B0C8394C9CF9B0CA394D8
:10211000A4CFE8A2DF91CF911F910F91FF90EF9094
:10212000DF90CF90BF90AF909F908F907F906F90F7
:1021300008950F93CF93DF93EC01262F6A3039F483
:102140002D8198858A85299F800D112422C06D30AC
:1021500011F108854A8569850E94F30F48855C81E5
:102160002985549F200D112429878F81882399F078
:10217000332727FD309584E590E0459F801991092C
:102180001124821793073CF49D818A85499F800D15
:1021900011248A87198681E090E0DF91CF910F9119
:1021A00008958F929F92AF92BF92CF92DF92EF925B
:1021B000FF920F931F93CF93DF93EC015C0186E8AE
:1021C000A80EB11CD5018C91882309F44DC08C3028
:1021D00018F41CE0181B01C010E0FE01EA5AFF4F82
:1021E00081E080836E01BEE4CB0ED11C60E0C601AD
:1021F0000E94060B4E01E3E58E0E911CD4018C91DA
:1022000003E0080F9DE2F92E4F2D481B410F23E0FC
:10221000E22E24E560E0C6010E94C30C61E0C60125
:102220000E94060BF401808103E0080F4F2D481B2C
:10223000410F24E560E0C6010E94630CFE01E95AEB
:10224000FF4F84E080833196D4018C91181B115D7F
:102250001083CC57DF4F68817981C6010E94B31B80
:10226000F501808181508083DF91CF911F910F9183
:10227000FF90EF90DF90CF90BF90AF909F908F90A6
:102280000895DF92EF92FF920F931F93CF93DF9306
:10229000EC018C8D9D8D892B09F49CC08E01025B15
:1022A0001F4F40E061E0C8010E940A0B85E5FE0176
:1022B000EE5AFF4F9081891B3596808331961082AC
:1022C000698D613009F462C028F0888D653008F0AE
:1022D00074C06FC0CE0185960E947F1781E0FE0119
:1022E000EA5AFF4F808368E672E0C8010E941B0F24
:1022F0001D8E1C8EFE01EC5AFF4F108238EAD32E41
:102300007E018AE0E80EF11CCE010E94F2118823C2
:10231000D9F369ED76E0C8010E94B31B6A8D7B8D0D
:102320004AE050E0C8010E94BF1C64EC76E0C8019E
:102330000E94B31B6D2D62956F7070E04AE050E013
:10234000C8010E94AA1C69EB76E0C8010E94B31B79
:1023500064E0C7010E94600A81113CC0DA94A1F6D2
:1023600060E0CE010E94720983B7817F846083BFE1
:1023700083B7816083BF83B7816083BF889583B74C
:102380008E7F83BF83B78E7F83BFBECFCF58DF4F93
:10239000488159816A817B814F705527662777274D
:1023A000483051056105710510F467E009C068E720
:1023B00007C0882379F06B5F03C0882359F06FE270
:1023C000C801DF91CF911F910F91FF90EF90DF90A7
:1023D0000C94DA1BDF91CF911F910F91FF90EF903A
:1023E000DF9008958F929F92AF92BF92EF92FF92EB
:1023F0000F931F93CF93DF93EC017C0100E8E00E75
:10240000F11CF70180809180A280B3800E94961910
:1024100095018401061B170B280B390BB901A80184
:102420005E011FE7A10EB11CF501808190E0A0E0E4
:10243000B0E08E0105581F4F84179507A607B70710
:1024400050F4F80180819181A281B381892B8A2B7C
:102450008B2B09F040C0F80180819181A281B3816A
:10246000892B8A2B8B2BA9F57E01F5E2EF0EF11C4F
:10247000C7010E947C17C7010E94E917C7010E948B
:10248000AD18CE010E94D110CE010E9441117E01F3
:102490002EE4E20EF11CC7010E94BE0AFE01EC5AB6
:1024A000FF4F8081811103C0C7010E94AD0A0E94C5
:1024B000A219F8016083718382839383FE01EB5834
:1024C000FF4FC958DF4F28813981621B730B71831D
:1024D000608380E036C00E949619F5012081620F6A
:1024E000711D811D911DF701608371838283938328
:1024F000FE01EF58FF4F40815181628173814F5F30
:102500005F4F6F4F7F4F4083518362837383F80126
:1025100010821182128213820E94A219FE01E958D0
:10252000FF4F6083718382839383CE010E9476097B
:10253000CE010A960E94290ACE0148960E94DF0920
:1025400081E0DF91CF911F910F91FF90EF90BF90AD
:10255000AF909F908F9008952F923F924F925F92ED
:102560006F927F928F929F92AF92BF92CF92DF92A3
:10257000EF92FF920F931F93CF93DF93CDB7DEB708
:1025800066970FB6F894DEBF0FBECDBF9E8B8D8BC6
:102590006F87788B942EFC01EC5AFF4F10828824B1
:1025A0008A941C82A12C30E33B83B12C6C018AE01D
:1025B000C80ED11C6D887E8893E5690E711CED896B
:1025C000FE89B5962F01242F30E03A8729878D891F
:1025D0009E89895A9F4F9E838D83ED89FE89E85A93
:1025E000FF4FF887EF832D893E892A5A3F4F3C875A
:1025F0002B878D899E898B5A9F4F9E878D87ED896A
:10260000FE89E25BFF4F1F018D899E890E94F211B6
:102610008823D1F364E0C6010E94600A3B81032F46
:10262000112707FD109581113EC065E0C6010E948B
:10263000600A811138C066E0C6010E94600A8111FB
:1026400032C03C81311142C044E063E0C6010E94C7
:10265000720A882321F0B394C2010E94291944E030
:1026600061E0C6010E94720A882321F0BA94C20177
:102670000E9429198B2D992787FD9095E985FA8568
:102680008E179F0731F0B7FE05C0BB24BA94B90C72
:1026900001C0B12CF301808174E0A72EA80E8B9DA0
:1026A000A01811241DC0F301A08064E0C6010E949F
:1026B000600A882309F484C0C2010E94FD188B2C93
:1026C000A194A99CA02C1124AA94AA94C8018A19A7
:1026D0009109A7FC939502970CF476C031E03C83F6
:1026E0000A0D111DA7FC1A9517FF02C00F5F1F4F9F
:1026F000C801959587959A83898329812B83ED81DC
:10270000FE811082EF81F885808381E0EB85FC8576
:102710008083ED85FE8510820F851889E12CF12CD0
:102720004B2D552747FD509533E0E91420F5E4166D
:10273000F50669F4ED81FE813083F3018081F22F8B
:10274000B89EF00D11248F2FEF81F8858083F8015A
:1027500065917491C101298B3C8B4A8B5B8B0E94E4
:10276000F51BFFEFEF1AFF0A0E5F1F4F5B894A89C7
:102770003C892989DACF60E0C1010E94060BF30190
:1027800080814981B89E400D1124415024E560E0CC
:10279000C1010E94310B61E0C1010E94060BF301EF
:1027A000808103E0080F4981B89E400D11244250FA
:1027B00053E0E52E24E560E0C1010E94630C24CFC4
:1027C000C2010E9413197CCF882D66960FB6F8942B
:1027D000DEBF0FBECDBFDF91CF911F910F91FF9054
:1027E000EF90DF90CF90BF90AF909F908F907F90B1
:1027F0006F905F904F903F902F9008950F931F938D
:10280000CF93DF938C01EC01C25BDF4FCE010E94BE
:10281000AD0A61E976E0CE010E94B31BCE010E94B1
:10282000BE0A8CB583608CBD8DB58E7F8DBD8BE56A
:1028300091E0EEEFFFE30995F801EC5AFF4F1082AB
:102840006CE676E0CE010E94F51BCE010E94BE0A26
:10285000065F1F4FC8010E94290A64E0C8010E9458
:10286000600A811107C062E370E080E090E00E949E
:10287000C519F0CFDF91CF911F910F9108952F923D
:102880003F924F925F926F927F928F929F92AF9200
:10289000BF92CF92DF92EF92FF920F931F93CF934D
:1028A000DF93CDB7DEB729970FB6F894DEBF0FBE22
:1028B000CDBF998788871B012A013C0180E7680EFC
:1028C000711CF3018081882309F402C181E0E8854D
:1028D000F985EA5AFF4F8083E885F985EB5AFF4F67
:1028E0001082E885F985EC5AFF4F1082E885F9855A
:1028F000108E8F01025B1F4F61E0C8010E94060B22
:10290000888599858D5A9F4F9C838B83C884D984F1
:1029100097E5C90ED11CE884F984E8E5EE0EF11CB8
:10292000888599858E5A9F4F9A838983E885F98592
:10293000EF58FF4FFE83ED8388849984FAE08F0E71
:10294000911CA884B98485E2A80EB11C888599855C
:102950000E94F2118823D1F3F1018491882321F0A0
:10296000EB81FC81508101C050E02BEF36E040E06C
:1029700060E0C8015F830E94FC0C5F814114510438
:1029800039F04CE0450F920160E0C8010E94FC0C58
:10299000F60110828CE0F7018083B101C8010E942A
:1029A000B31BE981FA819081892F880F890F819566
:1029B0008D5AF6018083EB81FC819081892F880FED
:1029C000890F8195835DF7018083ED81FE81808190
:1029D00084FF03C067EF76E002C063EF76E0C801D2
:1029E0000E94F51BE981FA819081892F880F890F58
:1029F00081958D5AF6018083F70180818F5F8083F6
:102A0000E885F98582A5882319F06FEE76E002C08B
:102A10006BEE76E0C8010E94F51BE981FA81908196
:102A2000892F880F890F81958D5AF6018083F701D0
:102A300080818F5F808367EE76E0C8010E94F51B7E
:102A400065E0C4010E94600A882351F0E885F98599
:102A500062A56F5FC5010E943F19C5010E94291937
:102A600064E0C4010E94600A811113C0F301208157
:102A7000822F90E0A0E0B0E0ED81FE8140815181A5
:102A800062817381481759076A077B07A8F02F3FB7
:102A900099F08FEFF3018083088519850B5D1F4F37
:102AA00060E0C8010E942617C8010E94FD1881E05D
:102AB000E885F985808F0CC066E0C4010E94600A39
:102AC000882309F443CF888599850E94FE1334CF6B
:102AD00029960FB6F894DEBF0FBECDBFDF91CF9120
:102AE0001F910F91FF90EF90DF90CF90BF90AF902C
:102AF0009F908F907F906F905F904F903F902F901E
:102B00000895E0E8F7E72591349181E02130304CD9
:102B100009F080E00895CF93DF93EC010E948115C6
:102B20009E01275A3F4FDE01A059BF4F882309F469
:102B30003CC0E6E9F7E78491F9018083E7E9F7E72C
:102B4000E491EC83E8E9F7E7E491ED83E9E9F7E75D
:102B5000859194919F838E83EBE9F7E7859194911A
:102B600099878887EDE9F7E7E491EBA7EEE9F7E7C6
:102B7000E491EAA7EFE9F7E7E491EC93E0EAF7E7FD
:102B8000859194919D8F8C8FE2EAF7E785919491DE
:102B90009F8F8E8FE4EAF7E78591949199A388A39C
:102BA000E6EAF7E78591949120C08CE3F9018083F0
:102BB0001C822FEF2D8380E293E09F838E8384ED30
:102BC00093E09987888781E08BA78AA72C938CEA6A
:102BD0009DE09D8F8C8F8EED9DE09F8F8E8F84E783
:102BE0009EE099A388A38CE39FE09BA38AA3DF9137
:102BF000CF910895CF92DF92EF920F93CF93DF930F
:102C0000EC01FC01E158FF4F82E38083349741E0FF
:102C100050E060E070E040835183628373833B97B0
:102C20008FEF8083CE010E948B15CE010E946E092A
:102C30006FEFCE010E9472096E018AE0C80ED11CAE
:102C4000C6010E94190AC6010E94290ACE014896AF
:102C50000E94D5093EE0E32E0FE020E14BE06DE05D
:102C6000CE01825B9F4F0E942F0FA596CE010E943E
:102C7000921665E0C6010E94600A882351F060E068
:102C8000CE01DF91CF910F91EF90DF90CF900C9418
:102C90003F1940E06BE677E0CE01DF91CF910F91D5
:102CA000EF90DF90CF900C943117CF93DF9350E0EB
:102CB000FA01EE0FFF1FE80FF91F37852089E32F78
:102CC000F22FE60FF11DE60FF11D25913491FA0167
:102CD000EE0FFF1FE80FF91F30A3278FF901659151
:102CE0007491FC01D481D69FC02D1124E40FF51FEF
:102CF000C1A3F901A591B4916B2F70E0EC2FF0E026
:102D0000DC01A40FB51F6E177F0720F4F901259190
:102D10003491C32FCD9FC02D11249296CC93DF9177
:102D2000CF91089521E0FC01248324E020A72AEC20
:102D300037E0308B278740E060E00E94551661E065
:102D400070E083E00E94451AE1EBF0E08081887F2B
:102D500081608083F89410928000E1E8F0E01082B6
:102D6000109285001092840088E191E09093890090
:102D700080938800808188608083808181608083E7
:102D8000EFE6F0E0808182608083789408950F936D
:102D9000FC01862F642F011129C08230D1F048F444
:102DA000882391F0813011F540E0CF010F910C9410
:102DB00055168330A9F08430C9F48481489F602D72
:102DC0001124658F268F12C04B3008F06AE0668BA5
:102DD0000DC08481489F602D1124618F228F06C011
:102DE0008481489F602D1124638F248F0F91089553
:102DF000FC0121110EC0648B8481489F402D112459
:102E0000458B15A214A213A281E0878B8093F60351
:102E1000108E08958091F603882319F08091F303B2
:102E200001C080E08093B4000895FC0161110DC0E1
:102E3000178A158A14A213A2108E1092F30310920F
:102E4000F4031092F6030C940A170895CF93DF93BE
:102E5000EC01611103C00E9415171982DF91CF9117
:102E600008950F931F93CF93DF93EC018B014111D2
:102E70000EC060E00E9426171E870D871B8A1A8AE3
:102E800081E0898389E08E8B198E1B8E1D8EDF91E8
:102E9000CF911F910F910895CF93DF93EC016111B2
:102EA00028C08881882329F18981811122C08985E0
:102EB0002F819885E22FF92FE80FF11DE80FF11D02
:102EC000859194918F3F2FEF920711F4188211C0D2
:102ED0009C879927880F991FEA85FB85E80FF91FC2
:102EE0006591749140E0CE010E94311789858F5F12
:102EF0008987DF91CF91089560E00C944C1760E0D2
:102F00000C9426170F93CF93DF93EC0161115DC0F2
:102F10008981882309F459C08D89811156C02D8576
:102F20003E858A899B89880F991F820F931FFC0118
:102F3000859194910097D1F48989882321F01B8A87
:102F40001A8AF90111C01982888160E0882331F062
:102F5000CE010E944C178A899B8925C0CE01DF9142
:102F6000CF910F910C94151785919491BC01769592
:102F700067957695679580FF1DC0AC01A6E05695D4
:102F80004795AA95E1F7292F269526952695205154
:102F90004F716F7000E0CE010E94C7168A899B892D
:102FA00001969B8B8A8B880F991FED85FE85E80F14
:102FB000F91FDACF492F6F7320E0CE010E94F81677
:102FC0008A899B8901969B8B8A8BDF91CF910F9188
:102FD000089560E00C948217CF93DF93EC016111A8
:102FE000B9C08F89882309F4B5C08D89811105C0C6
:102FF000CE01DF91CF910C94151781508D8B8DA14F
:10300000811138C08BA19CA101969C01220F331F16
:10301000EF8DF8A1E20FF31F25913491422F4770F5
:103020004EA3A90163E0569547956A95E1F7BA0169
:1030300076956795232F269526952FA36F732C8160
:10304000629F602D11246DA341704093F2039CA3F5
:103050008BA329A130E08217930760F08AA188230F
:1030600029F0281B31093CA32BA304C060E0CE014A
:103070000E9415178DA181508DA3288D2F5F288F59
:103080004C893FA1340F8C85380F3A836B8D6623B2
:1030900061F070E0822F992787FD90950E945A1E5B
:1030A0008C8D869F300D11243A838A8190E0CB96D7
:1030B0006BE370E00E945A1E8A833E893B83698DD0
:1030C000662371F0772767FD7095822F992787FD1A
:1030D00090950E945A1E8A8D869F300D11243B8345
:1030E0006D8D662391F0822F992787FD909570E072
:1030F0000E945A1ECB0162E070E00E945A1E2E8D83
:103100009B81289F900D11249B838B814F3339F035
:103110008A300CF089E087FD80E08B8301C01B8240
:10312000F894EA81F0E0E758F84FE491E093F50372
:1031300098A58D81989F802D11249B81899F802D3A
:1031400011249EA1899F802D11248093F4038093E4
:10315000F3037894DF91CF91089560E00C94EC171D
:103160006091F403662321F18091F7038F5F8093D0
:10317000F7039091F5038917D8F08091F60391E059
:1031800089278093F6031092F7038091F203882336
:1031900069F09091430183E4989F802D1124895B0D
:1031A000809343010E943A1E9093F3030C940A17F4
:1031B00008951F920F920FB60F9211242F933F93F1
:1031C0004F935F936F937F938F939F93AF93BF932F
:1031D000EF93FF930E94B018FF91EF91BF91AF91D1
:1031E0009F918F917F916F915F914F913F912F911F
:1031F0000F900FBE0F901F901895CF93DF93EC01A7
:1032000060E00E94261782EC97E09E878D871B8ADC
:103210001A8A81E0898389E08E8B198E1B8E1D8E20
:10322000DF91CF910895CF93DF93EC0160E00E948E
:1032300026178AEB97E09E878D871B8A1A8A81E082
:10324000898389E08E8B198E1B8E1D8EDF91CF9125
:103250000895CF93DF93EC0160E00E94261784EB82
:1032600097E09E878D871B8A1A8A81E0898389E08F
:103270008E8B198E1B8E1D8EDF91CF910895FC01D0
:10328000862F992787FD9095668170E06F5F7F4F4D
:103290000E945A1E858308951F920F920FB60F92B7
:1032A00011242F933F938F939F93AF93BF9380915C
:1032B000F9039091FA03A091FB03B091FC033091C4
:1032C000F80323E0230F2D3720F40196A11DB11D33
:1032D00005C026E8230F0296A11DB11D2093F80317
:1032E0008093F9039093FA03A093FB03B093FC033C
:1032F0008091FD039091FE03A091FF03B091000423
:103300000196A11DB11D8093FD039093FE03A09330
:10331000FF03B0930004BF91AF919F918F913F91B4
:103320002F910F900FBE0F901F9018952FB7F89404
:103330006091F9037091FA038091FB039091FC0373
:103340002FBF08953FB7F8948091FD039091FE033D
:10335000A091FF03B091000426B5A89B05C02F3FA4
:1033600019F00196A11DB11D3FBF6627782F892F47
:103370009A2F620F711D811D911D42E0660F771F0C
:10338000881F991F4A95D1F70895CF92DF92EF9247
:10339000FF92CF93DF936B017C010E94A219EB0196
:1033A000C114D104E104F10489F00E940C1D0E94B3
:1033B000A2196C1B7D0B683E734090F381E0C81A24
:1033C000D108E108F108C851DC4FEACFDF91CF9175
:1033D000FF90EF90DF90CF900895789484B582604D
:1033E00084BD84B5816084BD85B5826085BD85B5A9
:1033F000816085BDEEE6F0E0808181608083E1E858
:10340000F0E010828081826080838081816080838F
:10341000E0E8F0E0808181608083E1EBF0E0808192
:1034200084608083E0EBF0E0808181608083EAE764
:10343000F0E08081846080838081826080838081ED
:10344000816080838081806880831092C1000895AC
:103450008E3008F08E5087702091440190E4299FAF
:1034600090011124822B80937C0080917A008064EB
:1034700080937A0080917A0086FDFCCF809178005D
:103480002091790090E0922B08951F93CF93DF93C2
:10349000182FEB0161E00E94CD1A209711F460E033
:1034A00004C0CF3FD10539F461E0812FDF91CF9186
:1034B0001F910C94061BE12FF0E0EA52F84FE491C3
:1034C000E330F9F048F4E130B9F0E230A1F584B529
:1034D000806284BDC8BD34C0E730E9F0E83019F13E
:1034E000E43049F580918000806280938000D09321
:1034F0008B00C0938A0024C084B5806884BDC7BD9A
:103500001FC080918000806880938000D0938900E4
:10351000C093880015C08091B00080688093B0008F
:10352000C093B3000DC08091B00080628093B00062
:10353000C093B40005C0C038D1050CF0B5CFAFCFF3
:10354000DF91CF911F910895833081F028F481306D
:1035500099F08230A1F008958730A9F08830B9F051
:103560008430D1F4809180008F7D03C080918000F1
:103570008F7780938000089584B58F7702C084B5DB
:103580008F7D84BD08958091B0008F7703C08091B6
:10359000B0008F7D8093B0000895CF93DF9390E0CB
:1035A000FC01E651F84F2491FC01E250F84F849160
:1035B000882349F190E0880F991FFC01EA5DF74FDD
:1035C000A591B491845E974FFC01C591D4919FB7AA
:1035D000611108C0F8948C91209582238C93888186
:1035E00082230AC0623051F4F8948C91322F3095C6
:1035F00083238C938881822B888304C0F8948C91D8
:10360000822B8C939FBFDF91CF9108950F931F93CF
:10361000CF93DF931F92CDB7DEB7282F30E0F901AB
:10362000EA52F84F8491F901E651F84F1491F901EB
:10363000E250F84F04910023C9F0882321F06983F8
:103640000E94A41A6981E02FF0E0EE0FFF1FE45EF4
:10365000F74FA591B4919FB7F8948C91611103C075
:103660001095812301C0812B8C939FBF0F90DF9118
:10367000CF911F910F910895CF93DF93282F30E0C2
:10368000F901EA52F84F8491F901E651F84FD491CB
:10369000F901E250F84FC491CC2391F081110E94BE
:1036A000A41AEC2FF0E0EE0FFF1FEE5EF74FA5918E
:1036B000B4912C912D2381E090E021F480E002C0B0
:1036C00080E090E0DF91CF91089508950E94ED1978
:1036D0000E94651B0E949005C0E0D0E00E94E808AF
:1036E0002097E1F30E940000F9CFCF92DF92EF9292
:1036F000FF920F931F93CF93DF936C017A01EB013D
:10370000E60EF71E00E010E0CE15DF0561F06991CE
:10371000D601ED91FC910190F081E02DC601099553
:10372000080F191FF1CFC801DF91CF911F910F91A1
:10373000FF90EF90DF90CF9008956115710581F0B3
:10374000DB010D900020E9F7AD0141505109461B06
:10375000570BDC01ED91FC910280F381E02D09947F
:1037600080E090E00895EF92FF920F931F93CF9324
:10377000DF938C01FB01C0E0D0E064917F018FEF0B
:10378000E81AF80A662361F0D801ED91FC910190E6
:10379000F081E02DC8010995C80FD91FF701EDCFC1
:1037A000CE01DF91CF911F910F91FF90EF9008957F
:1037B0000C949D1BDC01ED91FC910190F081E02DBA
:1037C00009940F931F93CF93DF93EC016DE00E9458
:1037D000DA1B8C016AE0CE010E94DA1B800F911F78
:1037E000DF91CF911F910F9108950F931F93CF9366
:1037F000DF93EC010E94B31B8C01CE010E94E11B00
:10380000800F911FDF91CF911F910F9108958F929B
:103810009F92AF92BF92CF92DF92EF92FF920F935F
:103820001F93CF93DF93CDB7DEB7A1970FB6F89470
:10383000DEBF0FBECDBF7C01C42EE52FCB01D22E43
:1038400019A221E02D1510F02AE0D22E8E010F5D75
:103850001F4F8D2C912CA12CB12C6C2D7E2FA501EE
:1038600094010E946E1E8C2DD29E8019112401504D
:1038700011098A3014F4805D01C0895CF8018083ED
:10388000211531054105510521F0C22EE32FCA0152
:10389000E4CFB801C7010E949D1BA1960FB6F89412
:1038A000DEBF0FBECDBFDF91CF911F910F91FF9073
:1038B000EF90DF90CF90BF90AF909F908F90089542
:1038C000CF92DF92EF92FF920F931F93CF93DF93EC
:1038D000EC016A017B012115310579F4E881F98158
:1038E0000190F081E02D642FDF91CF911F910F9116
:1038F000FF90EF90DF90CF9009942A303105E9F4E2
:1039000077FF1AC06DE20E94DA1B8C01442755270D
:10391000BA014C195D096E097F092AE0CE010E94A7
:10392000071C800F911FDF91CF911F910F91FF9086
:10393000EF90DF90CF9008952AE0B701A601CE0165
:10394000DF91CF911F910F91FF90EF90DF90CF907B
:103950000C94071C9A01AB01662757FD6095762FE2
:103960000C94601C2115310541F4DC01ED91FC91B2
:103970000190F081E02D642F09940C94071C9A01AA
:10398000AB0160E070E00C94B21C4F925F926F92BA
:103990007F92AF92BF92CF92DF92EF92FF920F93FE
:1039A0001F93CF93DF93CDB7DEB729013A01621B96
:1039B000730B840B950B29893A894B895C892A19E9
:1039C0003B094C095D09298B3A8B4B8B5C8B9B0126
:1039D000AC0169897A898B899C890E942A1EE41826
:1039E000F50806091709A80197010E94901E2A0DE3
:1039F0003B1D4C1D5D1DCA01B901DF91CF911F9187
:103A00000F91FF90EF90DF90CF90BF90AF907F909D
:103A10006F905F904F900895089598D088F09F57C9
:103A200090F0B92F9927B751A0F0D1F0660F771F0A
:103A3000881F991F1AF0BA95C9F712C0B13081F0EA
:103A40009FD0B1E008959CC0672F782F8827B85F7A
:103A500039F0B93FCCF3869577956795B395D9F74B
:103A60003EF490958095709561957F4F8F4F9F4F55
:103A70000895E89409C097FB3EF490958095709561
:103A800061957F4F8F4F9F4F9923A9F0F92F96E9AA
:103A9000BB279395F695879577956795B795F1111F
:103AA000F8CFFAF4BB0F11F460FF1BC06F5F7F4FBC
:103AB0008F4F9F4F16C0882311F096E911C07723CE
:103AC00021F09EE8872F762F05C0662371F096E8D7
:103AD000862F70E060E02AF09A95660F771F881FA6
:103AE000DAF7880F9695879597F9089597F99F6764
:103AF00080E870E060E008959FEF80EC0895002476
:103B00000A941616170618060906089500240A9442
:103B100012161306140605060895092E0394000CC8
:103B200011F4882352F0BB0F40F4BF2B11F460FF57
:103B300004C06F5F7F4F8F4F9F4F089557FD905880
:103B4000440F551F59F05F3F71F04795880F97FB61
:103B5000991F61F09F3F79F087950895121613061B
:103B60001406551FF2CF4695F1DF08C0161617064A
:103B70001806991FF1CF869571056105089408957F
:103B8000E894BB2766277727CB0197F908950BD0D8
:103B9000C4CFB5DF28F0BADF18F0952309F0A6CF1F
:103BA000ABCF1124EECFCADFA0F3959FD1F3950FD1
:103BB00050E0551F629FF001729FBB27F00DB11DB1
:103BC000639FAA27F00DB11DAA1F649F6627B00D41
:103BD000A11D661F829F2227B00DA11D621F739F2A
:103BE000B00DA11D621F839FA00D611D221F749F38
:103BF0003327A00D611D231F849F600D211D822F7F
:103C0000762F6A2F11249F5750408AF0E1F08823C5
:103C10004AF0EE0FFF1FBB1F661F771F881F9150D2
:103C20005040A9F79E3F510570F060CFAACF5F3F8B
:103C3000ECF3983EDCF3869577956795B795F79505
:103C4000E7959F5FC1F7FE2B880F911D969587958D
:103C500097F90895DB018F939F930E94AF1EBF9148
:103C6000AF91A29F800D911DA39F900DB29F900DCB
:103C700011240895991B79E004C0991F961708F044
:103C8000961B881F7A95C9F780950895AA1BBB1BC0
:103C900051E107C0AA1FBB1FA617B70710F0A61B4C
:103CA000B70B881F991F5A95A9F780959095BC016D
:103CB000CD01089597FB072E16F4009407D077FDE9
:103CC00009D00E94461E07FC05D03EF490958195D0
:103CD0009F4F0895709561957F4F0895A1E21A2E28
:103CE000AA1BBB1BFD010DC0AA1FBB1FEE1FFF1FA0
:103CF000A217B307E407F50720F0A21BB30BE40BF0
:103D0000F50B661F771F881F991F1A9469F7609536
:103D10007095809590959B01AC01BD01CF010895F0
:103D2000052E97FB1EF400940E94A71E57FD07D096
:103D30000E946E1E07FC03D04EF40C94A71E5095F3
:103D40004095309521953F4F4F4F5F4F0895909587
:103D50008095709561957F4F8F4F9F4F08950E947A
:103D6000C01EA59F900DB49F900DA49F800D911D26
:103D700011240895EE0FFF1F0590F491E02D099492
:103D8000A29FB001B39FC001A39F700D811D11249C
:103D9000911DB29F700D811D1124911D0895F894FD
:023DA000FFCF53
:103DA200000001048000010000000500E803102764
:103DB20003040114000008000304160000070000B9
:103DC2000602000007020A000305000000031100BA
:103DD20000050015000207080800000005000008A1
:103DE200080C13010177696E0067616D65206F76BB
:103DF200657200000000009910751B4C4F4144454C
:023E020052006C
:00000001FF
