:100000000C94A1030C94C9030C94C9030C94C90368
:100010000C94C9030C94C9030C94C9030C94C90330
:100020000C94C9030C94C9030C94C9030C94A21733
:100030000C94C9030C94C9030C94C9030C94C90310
:100040000C94FF170C94C9030C94181A0C944A1AB8
:100050000C94C9030C94C9030C94C9030C94C903F0
:100060000C94C9030C94C9032053636F72653A2042
:1000700000546F2074686520646F6F7200444420E0
:10008000506F72740000000000000000004589926B
:1000900094522A295DFFFF7E3C1818183C7E7E4250
:1000A0007E7A7E427E003C7EFF7E3C1800FFFFFF92
:1000B000FFFFFFFFFFFFFFFFFF00000000320A0805
:1000C0000801000000000000000000000000000027
:1000D000000000000000000000000000000000011F
:1000E000010000000000000000000000000000000F
:1000F00000000101060606060606060606060606B6
:10010000060606060606060606060606060606068F
:100110000601010606060606060606060606060689
:10012000060606030101060606060606060606067C
:100130000606060606060606060606060601000070
:10014000000006010106000000000101010101019B
:100150000101010101010101000606000606060673
:100160000606060600060606060606060606010040
:100170000606060606010106060606060105050531
:100180000605050506050506060106060606060619
:10019000060000000606060106060606060606011B
:1001A000000606010000010000000001060601052E
:1001B00006050605060606050605060106000006F4
:1001C00006060606010606060401060000000000F9
:1001D00006010606010006060106060606010606D9
:1001E00001050505060506060605050606010606BF
:1001F00006060606060601060006060106060606AF
:1002000006060601060100060606010606010600AE
:100210000600010506060605060606050605060192
:10022000060606000000060601060606060106068A
:10023000060606060601060006060006060600017A
:100240000606060601050606060505050605060559
:100250000601060606060606060601060606000153
:100260000606060606060601060606010606060638
:10027000060106060106010606060606060606062D
:10028000060606010101050505050505010505052B
:10029000050105050505050505010101010101012E
:1002A000010101010101010101060606060606061B
:1002B0000606060606130A080801010101010101EC
:1002C000010101010101010101010101010606060F
:1002D00006060606060606060606060606060101C8
:1002E00006060606060606060606040606060606B0
:1002F00006010106060006060600060606000606BA
:10030000060006060101060606060606060606069D
:100310000606060606060601010006060600060693
:100320000600060606000606060001010606060689
:100330000606060606060606060606060601010667
:100340000606000000000606060100000000000688
:10035000010106060606060606060606010306064F
:10036000060606010101010101010101010101016E
:1003700001010101010101080C1EFE2E1E0C1E3F91
:100380006D4C1EB366080C1EFE2E1E0C1E3FEDCCDF
:100390001EB366100C1E00FE002E001E000C00DEB8
:1003A00000FF806D800C007F807780E080080C78F3
:1003B0007F74783078FCB63278CD66080C787F741C
:1003C000783078FCB73378CD66100C3C003F803A2B
:1003D000003C0018003D80FF80DB001800FF00F7A4
:1003E000008380080C1EFE2E1E0C1E3E3E2E1C3668
:1003F0006E080CF0FEE8F060F0F8F8E870D8EC0356
:10040000053F213F1208120A100A0E1C0E0C1E0C8A
:10041000141A14161F161E131E1E1B1E1E1F1E3F0F
:10042000213F3A2F3A173D173F213F181F02040A78
:10043000041F0E04040E1F0A1F0A0E0E1F04110EC5
:100440002E252E2F2A2E262929021F02081F0815C5
:100450000E04040E150E15151B151B040604040CC2
:10046000040000000017000300031F0A1F16371ABC
:100470001904130A153A000300000E11110E000AA8
:10048000040A040E040030000404040010001804E0
:10049000031F111F121F101D151711151F07041F11
:1004A00017151D1F151D01011F1F151F17151F00F3
:1004B0000A00003200040A110A0A0A110A0401158E
:1004C000020E11171E051E1F150A0E110A1F110E0E
:1004D0001F15111F05010E111D1F041F111F1108EB
:1004E000100F1F041B1F10101F061F1E040F0E11DC
:1004F0000E1F09060E112E1F051A121509011F01E4
:100500001F101F0F180F1F0C1F1B041B031C0319A8
:100510001513001F11030418111F000201022020EF
:10052000200001020C121E1F120C0C12120C121FC2
:100530000C1A14041E05242A1E1F021C141D102050
:10054000201D1F0814111F101E041E1E021C0C1259
:100550000C3E0A040C123E1E040214160A020F126C
:100560000E101E0E100E1E081E120C1226281E3211
:100570002A26041E21001F00211E040102013F2122
:100580003F0A4E6F2053442063617264206F720AE9
:100590006E6F204C4F414445522E4845580A0A156B
:1005A0003A45786974001D20466C617368696E670E
:1005B0000A20206C6F616465722E2E2E0A0A444F49
:1005C0004E2754205455524E204F464621000A0AC9
:1005D000153A49676E6F7265006D560A0A504C45B0
:1005E000415345205455524E204F464620004C4F13
:1005F000572042415454455259212000175344007A
:100600001613780016131400151020001520100082
:10061000540A03E181867F3E186D830F0F0E01831C
:10062000866033186DC3198F1803C38E6033186D3D
:10063000E330CF1803C39E603630CDE360CF300681
:10064000C79E7E3E30CDB360CF300CC6F6603330EF
:10065000D9B660CF33CFCCF66061B0DB1E60CF304F
:10066000D86CE6C061B0DB1E618F19986CC6C063A0
:10067000B19B0E330F0FB078C6FF7E1F1B061E0FF7
:100680000500893008023802497868140000F6E84D
:10069000DBCFC3B8AEA49B928A827B746E68625C27
:1006A00057524E4945413E3A3734312E2C292725A1
:1006B00023211F1D1C1A1917161514131211100FC0
:1006C0000E0D0C0B0A09080706450068010000051D
:1006D00000380168010000DF06DB060101FF0301AD
:1006E00001F70300000008000201000003040700F6
:1006F00000000000000000010204081020408001FA
:100700000204081020010204081020040404040458
:1007100004040402020202020203030303030300AF
:10072000000000230026002900000000002500280A
:10073000002B0000000000240027002A0000D9063A
:100740007A1A11241FBECFEFD8E0DEBFCDBF11E073
:10075000A0E0B1E0E4E4FEE302C005900D92A23413
:10076000B107D9F725E0A2E4B1E001C01D92AE3E89
:10077000B207E1F717E0C2E4D7E004C02297FE0118
:100780000E940D1FCE33D107C9F70E94BE1A0C94E8
:10079000201F0C94000080E591E00E94921449EC27
:1007A00053E06DE770E080E591E00E94D6126FEFB4
:1007B00073E08EE991E00C947C0E0F931F934091AF
:1007C0004801509149018091460190914701209143
:1007D0000E0130910F014432510564F00097E1F0B1
:1007E00082179307B1F043E250E0509349014093E0
:1007F000480115C04E315105FCF4009791F0821765
:10080000930779F04EE150E050934901409348013D
:100810000EC01816190684F0821793076CF0019722
:1008200007C01816190644F0821793072CF001969A
:100830009093470180934601809146019091470132
:100840001816190624F4109247011092460180915F
:100850004601909147018217930724F43093470192
:100860002093460180914A0190914B012091100103
:10087000309111018F30910544F0225031093093AD
:1008800011012093100102970AC08A3091055CF48F
:100890002E5F3F4F309311012093100102969093E9
:1008A0004B0180934A01E0914501F0E0EE0FFF1FFC
:1008B000E65FFE4F2081318140911001509111017E
:1008C000609146017091470102E111E08EE991E0EB
:1008D0000E94670E20914E0130914F0140914A01D4
:1008E000609148018EE991E00E945F0C8BE2809359
:1008F000A80180914201882341F01092A70161E78D
:1009000070E08EE991E00E940B1B80E38093A701C9
:1009100068E670E08EE991E00E940B1B8091430134
:10092000909144012AE0289FB001299F700D112465
:100930004AE050E08EE991E00E942D1C64E08AE5D7
:1009400091E00E942708882361F060914A0170912C
:100950004B014AE050E081E595E01F910F910C9426
:10096000081C1F910F9108952F923F924F925F9212
:100970006F927F928F929F92AF92BF92CF92DF92AF
:10098000EF92FF920F931F93CF93DF9338E0432EA4
:10099000512C46E0342E55E8652E50E0752E222469
:1009A0002394852D90E02091130330E02817390718
:1009B0000CF453C0389EF001399EF00D1124E1551E
:1009C000FE4F20813181255B304011F424E0422E1E
:1009D000842C912C389EE001399ED00D1124C05BEF
:1009E000DE4FFE01E35AFF4FC080D1803297E08096
:1009F000F18040914A0150914B0160914801709102
:100A0000490198E0A92EB12C0CE010E028E030E07C
:100A100080E591E00E94ED148823E9F0C15ADF4F90
:100A20008881998120E08D399207C9F040E08D3AA4
:100A30009407B9F020E0853B920799F040E08D38AB
:100A4000940789F08559904031F470921B016092AF
:100A50001A01209242015394A4CF80E005C082E0A5
:100A600003C081E001C083E0DF91CF911F910F911E
:100A7000FF90EF90DF90CF90BF90AF909F908F90BE
:100A80007F906F905F904F903F902F900895CF93FD
:100A900041E062E08AE591E00E9430088823B9F0E5
:100AA000809148019091490101969093490180936A
:100AB00048010E94B404813049F580914801909129
:100AC0004901019790934901809348011FC041E07B
:100AD00060E08AE591E00E9430088823C9F08091A7
:100AE00048019091490101979093490180934801F1
:100AF0000E94B404813071F48091480190914901C1
:100B00000196909349018093480104C0C2E003C05C
:100B1000C0E001C0C1E065E08AE591E00E942708DD
:100B2000882329F080914C01882309F487C08091A3
:100B30004C01CC2351F1811128C060912B0370919D
:100B40002C0380912D0390912E032CE030E040E0A7
:100B500050E00E94BF1EC23009F07AC064307105B7
:100B60008105910518F48BEB93E036C0DC01CB01D5
:100B70000497A109B1090497A105B10518F481EF03
:100B800093E02AC08DEA93E027C0813051F520918F
:100B90004D012A3160F480914A0190914B010297F6
:100BA00090934B0180934A012E5F20934D010E9448
:100BB000B404813009F463C080914D018A3109F495
:100BC0005EC089EC93E090934F0180934E01C13059
:100BD00009F059C083E993E090934F0180934E014F
:100BE00052C0823009F04FC080914A0190914B0170
:100BF000029690934B0180934A01C13019F089EC21
:100C000093E002C083E993E090934F0180934E01FB
:100C10000E94B4048130B9F510924C0181EF93E049
:100C200090934F0180934E0180914A0190914B0126
:100C3000029790934B0180934A0125C081E08093F5
:100C40004C0110924D0185E791E00E94DC176FCFB7
:100C5000643071058105910518F485E893E0BCCFF7
:100C6000DC01CB010497A109B1090497A105B105E5
:100C700018F483EE93E0B0CF87E793E0ADCF82E046
:100C800080934C019ECFCF910895CF930E94B404DE
:100C9000C82F20914A0130914B012E5F3F4F309376
:100CA0004B0120934A010E94B404813029F08091C5
:100CB0004C01882309F46AC020914A0130914B010C
:100CC0002250310930934B0120934A01C23009F080
:100CD00044C080914201882309F45CC08AE090E01E
:100CE000909349018093480188E190E090934B01F3
:100CF00080934A01109247011092460180EE9FEFC7
:100D0000909311018093100180914501813019F475
:100D10001092450103C081E0809345011092420189
:100D200085E990E090931B0180931A018091450121
:100D3000813019F4EDEBF0E004C081112BC0E5EB3C
:100D4000F2E0249138EF3203F0011124EC5AFF4F06
:100D5000F0930F01E0930E011DC0C330D9F48AE077
:100D600090E0909349018093480188E190E090934E
:100D70004B0180934A01109247011092460180EE88
:100D80009FEF909311018093100104C082E0809343
:100D90004C0192CFCF91089580E591E00E94D91146
:100DA000882331F00E9447050E9445060C94DD031C
:100DB00008951092A1011092A00186E291E0909313
:100DC0009F0180939E011092130381E0809314038E
:100DD0008AE090E0909349018093480188E190E097
:100DE00090934B0180934A0110924C0110924D0157
:100DF00081EF93E090934F0180934E010895CF933C
:100E0000CFB7F89480914103811127C0E5E1F7E065
:100E10008491E1E0F7E09491E82FF0E0EE0FFF1FFE
:100E2000ED5CF84FA591B4918C91892321F461E098
:100E30008AE00E94B91961E08AE00E9480198CB5AD
:100E400080618CBD8CB580648CBD61E08DE00E94BA
:100E5000801961E08BE00E948019809141038F5FCF
:100E600080934103CFBFCF91089521E0FC012083FF
:100E7000089570E085E00C94F818AF92BF92CF927D
:100E8000DF92EF92FF920F931F93CF93DF93EC01CA
:100E900089819A812FE0289F8001299F100D1124BC
:100EA00085E10E94DB18800F911F24E096958795BD
:100EB0002A95E1F79A8389832881222391F1AC81D5
:100EC000AD80B12CC12CD12CE885F9857F0100E0E3
:100ED00010E06E817F819B0140E050E0861797070C
:100EE00028F0BC01E817F90708F4BF0180E090E0A2
:100EF0001F921F921F92AF930E94331C6B830F901F
:100F00000F900F900F9070E085E0DF91CF911F91CF
:100F10000F91FF90EF90DF90CF90BF90AF900C9427
:100F2000F818DF91CF911F910F91FF90EF90DF9014
:100F3000CF90BF90AF900895FC018CE39FE0938326
:100F4000828384E0818381E084870895CF93DF9357
:100F5000EC018C819D81892B81F18C858F7151F5FC
:100F600084E10E94DB18BC01882777FD8095982FCB
:100F70000E948C1D26EE3FE34EEC50E40E94181EAA
:100F80000E945E1D9B017B836A836115710581F060
:100F900084E08983FE0140E0848195812817390728
:100FA00010F449830AC04F5F32964430A9F702C05B
:100FB0008FEF89838C858F5F8C87DF91CF91089528
:100FC000FC0188E0808389E0818387E0828386E07A
:100FD000838384E0848382E0858381E1868308952E
:100FE000DF92EF92FF920F931F93CF93DF937C01D9
:100FF000EC0100E010E0DD24DA9462E088810E94D8
:10100000801988810E94EF19F701E00FF11F892BE9
:1010100021F487818F5F878308C08781882349F007
:101020008F3F11F4178201C0D78260E088810E944F
:1010300080190F5F1F4F219607301105F1F6DF91E0
:10104000CF911F910F91FF90EF90DF900895FC01D9
:10105000E60FF11D81E09781913009F080E008955D
:10106000262F30E0FC01E20FF31F8781423028F485
:1010700081508E3F48F080E008958F3FE1F3642F68
:101080000E948B1E9130B9F781E008958EBD00005B
:101090000DB407FEFDCF8EB50895643508F056C037
:1010A000403308F053C0FC01E657FE4F2081542F17
:1010B000559555955595E62FFF27E7FDF095342F6B
:1010C00037702230A1F4DF01AE5BBC4F84E55802DB
:1010D000A00DB11D11248C9190E0032E02C09595B6
:1010E00087950A94E2F7282F209521700AC02330B3
:1010F00041F44627DC011C968C91482740FF03C031
:1011000014C0211112C0B4E55B02E00DF11D1124E1
:10111000EE5BFC4F81E090E0032E01C0880F0A9443
:10112000EAF780959081982310C084E55802E00D7D
:10113000F11D1124EE5BFC4F81E090E0032E01C015
:10114000880F0A94EAF79081982B908308951F9353
:10115000CF93DF93EC01162FF894FC01E758FE4F74
:1011600060E080810E94B919C658DE4F8881181648
:101170001CF460E00E94B919812F0E944608888102
:1011800018161CF461E00E94B9197894DF91CF9190
:101190001F91089528EF31E0E2E4F3E0DF01A901B7
:1011A0001D9241505040E1F7DC0119961C921997AD
:1011B0001A961C9208959F92AF92BF92CF92DF929F
:1011C000EF92FF920F931F93CF93DF93EC018C85E7
:1011D0008F5F8C8782E4E82E83E0F82E912C5E01ED
:1011E00087E8A81A8EEFB80A6E01E6E8CE1AEEEF8D
:1011F000DE0A692D6064CE010E94A70860E8CE0176
:101200000E94A70861E0F50180810E94B919F601EA
:10121000808118161CF460E00E94B91900E010E00B
:10122000F701E00FF11F80810E9446080F5F1F4FFA
:1012300004351105A9F7F601808118161CF461E048
:101240000E94B9199394F4E5EF0EF11C86E0981210
:10125000D0CF60E4CE01DF91CF911F910F91FF902D
:10126000EF90DF90CF90BF90AF909F900C94A70825
:10127000FC01E657FE4F6083319660830895FC01C0
:10128000E657FE4F6083319640830895CF92DF92F8
:10129000FF920F931F93CF93DF931F92CDB7DEB7CB
:1012A0006C01062FF42E10E0121754F4412F4F0D4D
:1012B000602FC60129830E944D081F5F2981F4CF4A
:1012C0000F90DF91CF911F910F91FF90DF90CF9002
:1012D0000895CF92DF92FF920F931F93CF93DF93E6
:1012E0001F92CDB7DEB76C01062FF42E10E0121757
:1012F00054F4612F600F4F2DC60129830E944D08C1
:101300001F5F2981F4CF0F90DF91CF911F910F9133
:10131000FF90DF90CF900895DF92EF92FF920F93AE
:101320001F93CF93DF93EC01E62ED22EF42E1127DC
:1013300007FD1095040F111D47FD1A958F2D992754
:1013400087FD90958017910744F42D2D4F2D6E2D1C
:10135000CE010E946909F394F1CFDF91CF911F91E3
:101360000F91FF90EF90DF9008958F929F92AF9230
:10137000BF92CF92DF92EF92FF920F931F93CF9382
:10138000DF93EC01E62ED42E122FCC24C394C21A84
:10139000B22EB194BB0CF12C802F8470A82E802F1C
:1013A0008270982E802F8870882E0170F1160CF0B4
:1013B0004DC0C7FC04C01150B394B394CB0CF3944C
:1013C0008F2D880F8F5FC80EAA2071F0412F4D0D11
:1013D0006F2D6E0DCE010E944D084F2D4D0D612FCA
:1013E0006E0DCE010E944D08992071F04D2D411BCC
:1013F0006F2D6E0DCE010E944D084D2D4F19612F9E
:101400006E0DCE010E944D08882071F04F2D4D0DBC
:101410006E2D611BCE010E944D08412F4D0D6E2D8A
:101420006F19CE010E944D08002309F4BFCF4D2D46
:101430004F196E2D611BCE010E944D084D2D411B91
:101440006E2D6F19CE010E944D08B0CFDF91CF9164
:101450001F910F91FF90EF90DF90CF90BF90AF90D2
:101460009F908F9008958F929F92AF92BF92CF924C
:10147000DF92EF92FF920F931F93CF93DF93EC01D4
:10148000B62EA42E122FDD24D394D21AC22EC194CC
:10149000CC0CFF24F394802F8170882E9924939490
:1014A0009E0C02708FEF8F0D8117C4F5D7FC04C01E
:1014B0001150C394C394DC0C8F2D880F8F5FD80E0E
:1014C000882099F0212F220F290D4A2D411B6F2DC5
:1014D0006B0DCE010E94460923E02E0D4A2D4F19B7
:1014E000612F6B0DCE010E944609002399F0212F38
:1014F000220F290D4A2D411B6B2D6F19CE010E9421
:10150000460923E02E0D4A2D4F196B2D611BCE018C
:101510000E944609F394E394E394C4CFDF91CF9102
:101520001F910F91FF90EF90DF90CF90BF90AF9001
:101530009F908F9008959F92AF92BF92CF92DF922B
:10154000EF92FF920F931F93CF93DF93EC01B62E90
:10155000F42EA22EDE2CD194DD0C9D2C920E1E2D8D
:10156000160F292D612F0E946909CC24CA94C00E40
:10157000CF0C292D4C2D612FCE010E946909D00E70
:10158000FE0C2D2D4F2D6B2DCE010E944609BA0C5D
:101590006FEF6B0D2D2D4F2DCE010E94460901E0FE
:1015A0002E2D4F2D612FCE010E94B509DE2CD09437
:1015B000DB0C02E02E2D4F2D6D2DCE010E94B509C2
:1015C000CE1804E02E2D4C2D6D2DCE010E94B509B4
:1015D00008E02E2D4C2D612FCE010E94B509DF9120
:1015E000CF911F910F91FF90EF90DF90CF90BF9020
:1015F000AF909F900895AF92BF92CF92DF92EF92FB
:10160000FF920F931F93CF93DF93EC01A62EC42E6E
:10161000B22EF02E1E2DE194EE0CD12ED60E2E2DD4
:101620002B0D6D2D0E948C09FA94FE0CC10E6FEFEC
:101630006A0D6B0D611BEF2C01E0212F4C2DCE01AB
:101640000E94330A02E0212F4C2D6D2DCE010E9405
:10165000330ADF91CF911F910F91FF90EF90DF90B0
:10166000CF90BF90AF9008956F927F928F929F928C
:10167000AF92BF92CF92DF92EF92FF920F931F93A0
:10168000CF93DF93502FFC01E657FE4F0081643566
:101690000CF006C1C22FDD27C7FDD095A62FBB27B2
:1016A000A7FDB0959D012C0F3D1F121613060CF0DF
:1016B000F7C040330CF0F4C0C42EDD24C7FCD09436
:1016C000F601E50FF11D57FDFA951E161F060CF0E9
:1016D000E7C0FE013796F7FD37964F01E3E095949A
:1016E0008794EA95E1F747FF09C0540F8C9CE0010D
:1016F0008D9CD00D1124EC1AFD0A40E0C52FDD278A
:10170000C7FDD095C40FD11D47FDDA95E19714F0C0
:1017100050E3541B67FD60E02535310514F024E5E6
:1017200030E0D22FFC01C485C427862F992787FD7E
:1017300090959C012A1B3B0B6901F7E0CF22DD2429
:10174000A0E8B0E002C0B595A795CA94E2F71A2FB9
:1017500037FF02C0295F3F4F73E0359527957A9593
:10176000E1F72E0D3F1DA42FA77071E001C0770F88
:10177000AA95EAF7459545954595E4E54E02800D15
:10178000911D11248E5B9C4FF12CC52EDD24C7FCCE
:10179000D094BB24B394A4015527EF2DF0E0EC15B1
:1017A000FD050CF07DC0F901E4900130C9F4DC01C5
:1017B000A12EF901862E881A982C9A0E9D1608F0F3
:1017C00066C09E2C9A2019F09C90972A9C92A69411
:1017D00029F43196E4906894AA24A7F81196ECCFE6
:1017E00001111BC0772E7094DC01A12EF901862E09
:1017F000881A982C9A0E9D1608F049C09E2C9A20A3
:1018000019F09C9097209C92A69429F43196E4902C
:101810006894AA24A7F81196ECCF033031F0DC01CC
:10182000A12EF901862E881A2EC0772E7094962E3E
:10183000DC01A12EF9019D16B0F48E2C8A2049F00E
:101840008C90692C6C2660FE02C0872A01C087201C
:101850008C92A69429F43196E4906894AA24A7F86F
:1018600093941196E8CFCB2512C09E2C9A2019F0A4
:101870009C9097269C92A69429F43196E4906894C3
:10188000AA24A7F81196982C9A0E9D1670F3770F3C
:1018900019F48C5A9F4F71E0F394240F351F7DCFBC
:1018A000DF91CF911F910F91FF90EF90DF90CF903C
:1018B000BF90AF909F908F907F906F900895EF9220
:1018C000FF920F937901F901249131960491F2E08E
:1018D000EF0EF11C0E94340B0F91FF90EF900895D2
:1018E0002F923F924F925F926F927F928F929F9230
:1018F000AF92BF92CF92DF92EF92FF920F931F931E
:10190000CF93DF93CDB7DEB729970FB6F894DEBF3C
:101910000FBECDBF2C01962E142F3E8D8C0C3A0D90
:10192000422F552747FD5095CA01079697FD079608
:10193000AC01F3E055954795FA95E1F75A83498351
:10194000612C712C50E06C2D70E07C836B83882DB2
:1019500090E09E838D832A2C312CA32EB12C50171E
:101960000CF056C030E0852E810EC82CDD24C7FC5B
:10197000D09432170CF046C0832F37FF02C087E0A7
:10198000830F859585958595F301E80FF11D87FDFA
:10199000FA95EE0DFF1DE491F0E0832F877887FF25
:1019A00003C08150886F8F5F60E870E002C075955A
:1019B00067958A95E2F7CB018E239F23892B01F14E
:1019C000632F690D862F992787FD9095EB81FC8108
:1019D0008E179F07ACF0ED81FE818E179F0784F470
:1019E000C214D3046CF0CA14DB0454F4482DC201B1
:1019F00029873F8358870E944D0858853F81298554
:101A00003F5FB7CF5F5F69817A81660E771EA7CF90
:101A100029960FB6F894DEBF0FBECDBFDF91CF91F0
:101A20001F910F91FF90EF90DF90CF90BF90AF90FC
:101A30009F908F907F906F905F904F903F902F90EE
:101A400008952F923F924F925F926F927F928F9262
:101A50009F92AF92BF92CF92DF92EF92FF920F933D
:101A60001F93CF93DF93CDB7DEB76D970FB6F89482
:101A7000DEBF0FBECDBF1C013B012A01088B198BB5
:101A8000EA82BC2CA8868986F901F491FB83F901CE
:101A90003196C49031965491598331961491C9016D
:101AA00004969B8B8A8B08853A81030F49854B0DE1
:101AB000E52EF12C3885832F90E0861B970B8E0D39
:101AC0009F1D0197B7010E94AB1EE62F212F30E02A
:101AD0005985852F90E084199509820F931F0197EE
:101AE000B9010E94AB1EEE838B818E1708F48E83A2
:101AF0006F83C61608F4CF8288279927861997091D
:101B0000B7010E94AB1EE62F8827992784199509F3
:101B1000B9010E94AB1E5E2FE7FD50E067FD60E05B
:101B2000F101EA58FE4F8081882311F0319710822D
:101B3000762E4B0C619F400C11247A81760D998191
:101B4000599F700D1124BA81AB2FB0E0BF8BAE8BC3
:101B5000EB2DF0E0F98FE88F802F90E08E199F0930
:101B60009B878A87A42FB0E0A21BB30BBD87AC87ED
:101B7000F101EA58FE4FFB8FEA8F91012B583E4F3F
:101B80003F872E873F81731608F088C09B81799E1E
:101B9000C00111249D8B8C8BA42DBB27A7FDB09574
:101BA000BD83AC83672E552E3E81531608F073C05B
:101BB000EC89FD89E50DF11D2A893B89E20FF31FB0
:101BC000E491C62CDD24C7FCD0948E899F89C81669
:101BD000D9060CF443C0AC81BD81288D398DA21784
:101BE000B307E4F18A859B858C159D05BCF12C8596
:101BF0003D852A173B0794F1888899888E0E911CA1
:101C00008E0E911CD401ED90FC90012F2981442D62
:101C1000662DC1015D8F7C8F0E94340BEA8DFB8D98
:101C200080815D8D7C8D882391F1AE85BF852C915F
:101C3000F101B6E0B29FE00DF11D1124D686C586F4
:101C40008C819D81908B8787D4018D919C91928B03
:101C5000818B2F5FEE85FF85208319C0A889B98904
:101C6000AE0FB11DAE0FB11DED90FC9039853F93C5
:101C70008884AB2CCA80012F2981442D662DC10197
:101C80005D8F7C8F0E94700C0F907C8D5D8D5394C6
:101C90003981630E89CF7394410E74CF6D960FB660
:101CA000F894DEBF0FBECDBFDF91CF911F910F9192
:101CB000FF90EF90DF90CF90BF90AF909F908F906C
:101CC0007F906F905F904F903F902F9008958F92EC
:101CD000AF92CF92EF920F931F93E0E38E2EF4E535
:101CE000AF2EC12CE12C0E94210D1F910F91EF907E
:101CF000CF90AF908F900895FB0124912F5FDC016E
:101D000014962C933196E491EF5FDC011596EC93D9
:101D1000FC01E857FE4F6E5F7F4F7183608308952B
:101D20006F927F928F929F92AF92BF92CF92DF92EB
:101D3000EF92FF920F93CF93DF93EC014C0188E871
:101D4000881A8EEF980AF40140833E01F9E86F1A71
:101D5000FEEF7F0AF30160835E01F7E8AF1AFEEF42
:101D6000BF0AF50120836E01F5E8CF1AFEEFDF0A06
:101D7000F601E0827E01F6E8EF1AFEEFFF0AF701B6
:101D8000008381E0888770968083319610828F83EC
:101D90006FEF73E0CE010E947C0E0E94FF068CB5AF
:101DA0008F7D8CBD8CB58C7F81608CBD8DB5816045
:101DB0008DBD8CB58C608CBD61E0F40180810E948A
:101DC000801961E0F30180810E94801961E0F501D2
:101DD00080810E948019F601808118161CF461E050
:101DE0000E948019F701808118161CF461E00E949E
:101DF0008019F6018081181674F460E00E94B91908
:101E00006AE070E080E090E00E94781861E0F601FE
:101E100080810E94B919F3018081992787FD9095EF
:101E2000FC01E55FF84FE491F0E0EE0FFF1FE75D86
:101E3000F84F25913491FE01E258FE4F3183208303
:101E4000FC01E950F94F8491DE01AB57BE4F8C93F2
:101E5000F4018081992787FD9095FC01E55FF84F9B
:101E6000E491F0E0EE0FFF1FE75DF84F259134910C
:101E7000FE01E458FE4F31832083FC01E950F94F05
:101E8000849111978C93F7018081992787FD909514
:101E9000FC01E55FF84FE491F0E0EE0FFF1FE75D16
:101EA000F84F25913491FE01E058FE4F3183208395
:101EB000FC01E950F94F849112968C93F5018081D1
:101EC000992787FD9095FC01E55FF84FE491F0E0DC
:101ED000EE0FFF1FE75DF84F25913491FE01EE579D
:101EE000FE4F31832083FC01E950F94F8491119614
:101EF0008C9361E2CE010E94A70864E1CE010E94AA
:101F0000A7088B8587FF02C08FE78B876B8560688A
:101F1000CE010E94A70860E2CE010E94A7086CE0F3
:101F2000CE010E94A708CE01DF91CF910F91FF90C3
:101F3000EF90DF90CF90BF90AF909F908F907F9069
:101F40006F900C94DB082F923F924F925F926F92AA
:101F50007F928F929F92AF92BF92CF92DF92EF9239
:101F6000FF920F931F93CF93DF9300D000D01F9267
:101F7000CDB7DEB79D838C83162F642ED02E7C01C7
:101F800086E7E81A8EEFF80AD701CC9064350CF09A
:101F90009EC0BFE2B4170CF49AC0EC81FD8144816D
:101FA00050E041505109049FC001059F900D11243C
:101FB000860F911D67FD9A95181619060CF087C0BB
:101FC0008581809FC0011124860D911D67FC9A9523
:101FD000181619060CF07BC0762E462EE857FE4FD9
:101FE000FB83EA83A22EB12C8C809D80F5E78F1AAB
:101FF000FEEF9F0A872D811B992787FD9095EC8125
:10200000FD81448150E0841795070CF05EC0BA0151
:10201000615071098617970789F0A69EA001A79EB7
:10202000500DB69E500D1124480F591FAA81BB8137
:10203000ED91FC91E40FF51F349001C0312C562C2A
:10204000262C452D4619552747FD5095AC81BD815D
:1020500015968C9190E048175907A4F530FE13C0EF
:10206000B1E0DB1207C0452D672D8C819D810E9458
:102070004D0824C00D2D2D2D422D642D8C819D8168
:102080000E948C091BC0F4018081D7019C918917A3
:10209000A9F08C93B1E0DB1207C0452D672D8C8130
:1020A0009D810E944D0808C00D2D2D2D422D642DBF
:1020B0008C819D810E948C09F701C08236942D0C81
:1020C0005394BFCF4D0C739495CFD701CC920F9002
:1020D0000F900F900F900F90DF91CF911F910F9164
:1020E000FF90EF90DF90CF90BF90AF909F908F9038
:1020F0007F906F905F904F903F902F9008950F9337
:10210000CF93DF93EC01262F6A3039F42D81988527
:102110008A85299F800D112422C06D3011F1088518
:102120004A8569850E94A30F48855C812985549F53
:10213000200D112429878F81882399F0332727FDCB
:10214000309584E590E0459F80199109112482170C
:1021500093073CF49D818A85499F800D11248A87CD
:10216000198681E090E0DF91CF910F9108958F92D1
:102170009F92AF92BF92CF92DF92EF92FF920F9316
:102180001F93CF93DF93EC015C0180E1A81A8EEFDF
:10219000B80AD5018C91882309F44DC08C3018F40D
:1021A0001CE0181B01C010E0FE01EA5AFF4F81E05D
:1021B00080836E01BEE4CB0ED11C60E0C6010E949C
:1021C00038094E01E3E58E0E911CD4018C9103E099
:1021D000080F9DE2F92E4F2D481B410F23E0E22E00
:1021E00024E560E0C6010E94FB0A61E0C6010E948E
:1021F0003809F401808103E0080F4F2D481B410F7F
:1022000024E560E0C6010E949B0AFE01E95AFF4FE7
:1022100084E080833196D4018C91181B115D10836A
:10222000C251DE4F68817981C6010E940B1BF50106
:10223000808181508083DF91CF911F910F91FF901A
:10224000EF90DF90CF90BF90AF909F908F900895C8
:10225000DF92EF92FF920F931F93CF93DF93EC01E6
:102260008C8D9D8D892B09F49CC08E01025B1F4FC4
:1022700040E061E0C8010E943F0985E5FE01EE5A99
:10228000FF4F9081891B3596808331961082698D2E
:10229000613009F462C028F0888D653008F074C0A0
:1022A0006FC0CE0185960E94481681E0FE01EA5A71
:1022B000FF4F80836FEF73E0C8010E947C0E1D8E7C
:1022C0001C8EFE01EC5AFF4F108238EAD32E7E019D
:1022D0008AE0E80EF11CCE010E94D9118823D9F3BF
:1022E0006EEE75E0C8010E940B1B6A8D7B8D4AE083
:1022F00050E0C8010E942D1C69ED75E0C8010E94E4
:102300000B1B6D2D62956F7070E04AE050E0C801C4
:102310000E94001C6EEC75E0C8010E940B1B64E07B
:10232000C7010E94270881113CC0DA94A1F660E041
:10233000CE010E94390783B7817F846083BF83B752
:10234000816083BF83B7816083BF889583B78E7FA9
:1023500083BF83B78E7F83BFBECFC552DE4F488118
:1023600059816A817B814F705527662777274830CE
:1023700051056105710510F467E009C068E707C001
:10238000882379F06B5F03C0882359F06FE2C8019E
:10239000DF91CF911F910F91FF90EF90DF900C9400
:1023A000301BDF91CF911F910F91FF90EF90DF9045
:1023B00008958F929F92AF92BF92EF92FF920F93E8
:1023C0001F93CF93DF93EC017C0106E1E01A0EEF3F
:1023D000F00AF70180809180A280B3800E944918A2
:1023E00095018401061B170B280B390BB901A801B5
:1023F0005E0117E1A11A1EEFB10AF501808190E09C
:10240000A0E0B0E08E010B511E4F84179507A60780
:10241000B70750F4F80180819181A281B381892BA3
:102420008A2B8B2B09F040C0F80180819181A28119
:10243000B381892B8A2B8B2BA9F57E01F5E2EF0E58
:10244000F11CC7010E944516C7010E94B216C701C0
:102450000E947617CE010E94B710CE010E9428116B
:102460007E012EE4E20EF11CC7010E94DB08FE0192
:10247000EC5AFF4F8081811103C0C7010E94CA0836
:102480000E945518F8016083718382839383FE0153
:10249000E152FE4FCF51DE4F28813981621B730B11
:1024A0007183608380E036C00E944918F501208165
:1024B000620F711D811D911DF701608371838283FD
:1024C0009383FE01E552FE4F408151816281738109
:1024D0004F5F5F4F6F4F7F4F4083518362837383A2
:1024E000F80110821182128213820E945518FE0197
:1024F000EF51FE4F6083718382839383CE010E94EC
:102500003D07CE010A960E94F007CE0148960E9430
:10251000A60781E0DF91CF911F910F91FF90EF907F
:10252000BF90AF909F908F9008950F931F93CF937C
:10253000DF938C01EC01C25BDF4FCE010E94CA0821
:1025400066EA75E0CE010E940B1BCE010E94DB08FB
:102550008CB583608CBD8DB58E7F8DBD8AE291E098
:10256000EEEFFFE30995F801EC5AFF4F108261E8A6
:1025700075E0CE010E944B1BCE010E94DB08065F76
:102580001F4FC8010E94F00764E0C8010E9427089D
:10259000811107C062E370E080E090E00E9478184B
:1025A000F0CFDF91CF911F910F9108952F923F921D
:1025B0004F925F926F927F928F929F92AF92BF9253
:1025C000CF92DF92EF92FF920F931F93CF93DF93FF
:1025D000CDB7DEB729970FB6F894DEBF0FBECDBFDB
:1025E000998788871B012A013C0186E2681A8EEFD1
:1025F000780AF3018081882309F402C181E0E8852B
:10260000F985EA5AFF4F8083E885F985EB5AFF4F39
:102610001082E885F985EC5AFF4F1082E885F9852C
:10262000108E8F01025B1F4F61E0C8010E943809C4
:10263000888599858D5A9F4F9C838B83C884D984C4
:1026400097E5C90ED11CE884F984E8E5EE0EF11C8B
:10265000888599858E5A9F4F9A838983E885F98565
:10266000E552FE4FFE83ED8388849984FAE08F0E55
:10267000911CA884B98485E2A80EB11C888599852F
:102680000E94D9118823D1F3F1018491882321F08C
:10269000EB81FC81508101C050E020E136E040E058
:1026A00060E0C8015F830E945F0C5F8141145104A8
:1026B00039F04CE0450F920160E0C8010E945F0CC8
:1026C000F60110828CE0F7018083B101C8010E94FD
:1026D0000B1BE981FA819081892F880F890F8195E1
:1026E0008D5AF6018083EB81FC819081892F880FC0
:1026F000890F8195835DF7018083ED81FE81808163
:1027000084FF03C06CE076E002C068E076E0C801B8
:102710000E944B1BE981FA819081892F880F890FD4
:1027200081958D5AF6018083F70180818F5F8083C8
:10273000E885F98582A5882319F064E076E002C077
:1027400060E076E0C8010E944B1BE981FA8190812C
:10275000892F880F890F81958D5AF6018083F701A3
:1027600080818F5F80836CEF75E0C8010E944B1BF6
:1027700065E0C4010E942708882351F0E885F985A7
:1027800062A56F5FC5010E94F217C5010E94DC17A8
:1027900064E0C4010E942708811113C0F301208165
:1027A000822F90E0A0E0B0E0ED81FE814081518178
:1027B00062817381481759076A077B07A8F02F3F8A
:1027C00099F08FEFF3018083088519850B5D1F4F0A
:1027D00060E0C8010E94EF15C8010E94C61781E0A1
:1027E000E885F985808F0CC066E0C4010E94270847
:1027F000882309F443CF888599850E94951234CFA8
:1028000029960FB6F894DEBF0FBECDBFDF91CF91F2
:102810001F910F91FF90EF90DF90CF90BF90AF90FE
:102820009F908F907F906F905F904F903F902F90F0
:102830000895E0E8F7E72591349181E02130304CAC
:1028400009F080E00895CF93DF93EC010E94191402
:102850009E01275A3F4FDE01A652BE4F882309F43E
:102860003CC0E6E9F7E78491F9018083E7E9F7E7FF
:10287000E491EC83E8E9F7E7E491ED83E9E9F7E730
:10288000859194919F838E83EBE9F7E785919491ED
:1028900099878887EDE9F7E7E491EBA7EEE9F7E799
:1028A000E491EAA7EFE9F7E7E491EC93E0EAF7E7D0
:1028B000859194919D8F8C8FE2EAF7E785919491B1
:1028C0009F8F8E8FE4EAF7E78591949199A388A36F
:1028D000E6EAF7E78591949120C08CE3F9018083C3
:1028E0001C822FEF2D8380E293E09F838E8384ED03
:1028F00093E09987888781E08BA78AA72C938CEA3D
:102900009DE09D8F8C8F8EED9DE09F8F8E8F84E755
:102910009EE099A388A38CE39FE09BA38AA3DF9109
:10292000CF910895CF92DF92EF920F93CF93DF93E1
:10293000EC01FC01E751FE4F82E38083349741E0D4
:1029400050E060E070E040835183628373833B9783
:102950008FEF8083CE010E942314CE010E943507A1
:102960006FEFCE010E9439076E018AE0C80ED11CBC
:10297000C6010E94E007C6010E94F007CE014896FA
:102980000E949C073EE0E32E0FE020E14BE06DE06B
:10299000CE01825B9F4F0E94900EA596CE010E94B1
:1029A0005B1565E0C6010E942708882351F060E0AE
:1029B000CE01DF91CF910F91EF90DF90CF900C94EB
:1029C000F21740E060E876E0CE01DF91CF910F9101
:1029D000EF90DF90CF900C94FA158F929F92AF9268
:1029E000BF92CF92DF92EF92FF920F931F93CF93FC
:1029F000DF93CDB7DEB7260F371FE216F30684F458
:102A0000EA0CFB1C6E157F055CF4040F151FC01645
:102A1000D10634F4C80CD91C81E04C155D050CF0CE
:102A200080E0DF91CF911F910F91FF90EF90DF90A9
:102A3000CF90BF90AF909F908F900895CF93DF93EA
:102A400050E0FA01EE0FFF1FE80FF91F37852089CC
:102A5000E32FF22FE60FF11DE60FF11D25913491C2
:102A6000FA01EE0FFF1FE80FF91F30A3278FF901BE
:102A700065917491FC01D481D69FC02D1124E40F7F
:102A8000F51FC1A3F901A591B4916B2F70E0EC2F54
:102A9000F0E0DC01A40FB51F6E177F0720F4F901E9
:102AA00025913491C32FCD9FC02D11249296CC93A4
:102AB000DF91CF91089521E0FC01248324E020A739
:102AC00027ED36E0308B278740E060E00E941E153E
:102AD00061E070E083E00E94F818E1EBF0E08081B3
:102AE000887F81608083F89410928000E1E8F0E0B4
:102AF0001082109285001092840088E191E09093FA
:102B000089008093880080818860808380818160D3
:102B10008083EFE6F0E0808182608083789408957E
:102B20000F93FC01862F642F011129C08230D1F050
:102B300048F4882391F0813011F540E0CF010F91E6
:102B40000C941E158330A9F08430C9F48481489F09
:102B5000602D1124658F268F12C04B3008F06AE07B
:102B6000668B0DC08481489F602D1124618F228F58
:102B700006C08481489F602D1124638F248F0F919C
:102B80000895FC0121110EC0648B8481489F402D63
:102B90001124458B15A214A213A281E0878B809388
:102BA0004605108E089580914605882319F080917E
:102BB000430501C080E08093B4000895FC016111D9
:102BC0000DC0178A158A14A213A2108E1092430505
:102BD00010924405109246050C94D3150895CF9396
:102BE000DF93EC01611103C00E94DE151982DF91B1
:102BF000CF9108950F931F93CF93DF93EC018B0137
:102C000041110EC060E00E94EF151E870D871B8AE0
:102C10001A8A81E0898389E08E8B198E1B8E1D8E26
:102C2000DF91CF911F910F910895CF93DF93EC0126
:102C3000611128C08881882329F18981811122C0EE
:102C400089852F819885E22FF92FE80FF11DE80F74
:102C5000F11D859194918F3F2FEF920711F4188207
:102C600011C09C879927880F991FEA85FB85E80F7B
:102C7000F91F6591749140E0CE010E94FA15898593
:102C80008F5F8987DF91CF91089560E00C941516CE
:102C900060E00C94EF150F93CF93DF93EC0161117B
:102CA0005DC08981882309F459C08D89811156C07E
:102CB0002D853E858A899B89880F991F820F931FD6
:102CC000FC01859194910097D1F48989882321F0A2
:102CD0001B8A1A8AF90111C01982888160E0882351
:102CE00031F0CE010E9415168A899B8925C0CE013C
:102CF000DF91CF910F910C94DE1585919491BC01D9
:102D0000769567957695679580FF1DC0AC01A6E026
:102D100056954795AA95E1F7292F2695269526954C
:102D200020514F716F7000E0CE010E9490158A898A
:102D30009B8901969B8B8A8B880F991FED85FE8559
:102D4000E80FF91FDACF492F6F7320E0CE010E9400
:102D5000C1158A899B8901969B8B8A8BDF91CF91C4
:102D60000F91089560E00C944B16CF93DF93EC0124
:102D70006111B9C08F89882309F4B5C08D8981118B
:102D800005C0CE01DF91CF910C94DE1581508D8B63
:102D90008DA1811138C08BA19CA101969C01220FAD
:102DA000331FEF8DF8A1E20FF31F25913491422FCD
:102DB00047704EA3A90163E0569547956A95E1F7E0
:102DC000BA0176956795232F269526952FA36F73C5
:102DD0002C81629F602D11246DA3417040934205A8
:102DE0009CA38BA329A130E08217930760F08AA1EE
:102DF000882329F0281B31093CA32BA304C060E0E1
:102E0000CE010E94DE158DA181508DA3288D2F5FEC
:102E1000288F4C893FA1340F8C85380F3A836B8DF6
:102E2000662361F070E0822F992787FD90950E94BC
:102E3000AB1E8C8D869F300D11243A838A8190E0E1
:102E4000CB966BE370E00E94AB1E8A833E893B8386
:102E5000698D662371F0772767FD7095822F99271A
:102E600087FD90950E94AB1E8A8D869F300D1124A0
:102E70003B836D8D662391F0822F992787FD909576
:102E800070E00E94AB1ECB0162E070E00E94AB1EBE
:102E90002E8D9B81289F900D11249B838B814F3316
:102EA00039F08A300CF089E087FD80E08B8301C027
:102EB0001B82F894EA81F0E0E257F94FE491E09345
:102EC000450598A58D81989F802D11249B81899F10
:102ED000802D11249EA1899F802D1124809344056B
:102EE000809343057894DF91CF91089560E00C942E
:102EF000B51660914405662321F1809147058F5FE7
:102F000080934705909145058917D8F08091460533
:102F100091E08927809346051092470580914205EC
:102F2000882369F09091200183E4989F802D1124DB
:102F3000895B809320010E948B1E909343050C9423
:102F4000D31508951F920F920FB60F9211242F934D
:102F50003F934F935F936F937F938F939F93AF9321
:102F6000BF93EF93FF930E947917FF91EF91BF9169
:102F7000AF919F918F917F916F915F914F913F9111
:102F80002F910F900FBE0F901F901895CF93DF9346
:102F9000EC0160E00E94EF158FEC96E09E878D8734
:102FA0001B8A1A8A81E0898389E08E8B198E1B8E99
:102FB0001D8EDF91CF910895CF93DF93EC0160E0F8
:102FC0000E94EF1589EC96E09E878D871B8A1A8AEE
:102FD00081E0898389E08E8B198E1B8E1D8EDF9197
:102FE000CF910895FC01862F992787FD90956681E2
:102FF00070E06F5F7F4F0E94AB1E858308951F9224
:103000000F920FB60F9211242F933F938F939F939C
:10301000AF93BF938091490590914A05A0914B05CC
:10302000B0914C053091480523E0230F2D3720F453
:103030000196A11DB11D05C026E8230F0296A11D12
:10304000B11D209348058093490590934A05A093AC
:103050004B05B0934C0580914D0590914E05A09184
:103060004F05B09150050196A11DB11D80934D05EE
:1030700090934E05A0934F05B0935005BF91AF912B
:103080009F918F913F912F910F900FBE0F901F90A6
:1030900018952FB7F8946091490570914A05809171
:1030A0004B0590914C052FBF08953FB7F894809140
:1030B0004D0590914E05A0914F05B091500526B554
:1030C000A89B05C02F3F19F00196A11DB11D3FBF60
:1030D0006627782F892F9A2F620F711D811D911DF0
:1030E00042E0660F771F881F991F4A95D1F7089510
:1030F000CF92DF92EF92FF92CF93DF936B017C012F
:103100000E945518EB01C114D104E104F10489F0C7
:103110000E947A1C0E9455186C1B7D0B683E734000
:1031200090F381E0C81AD108E108F108C851DC4FDA
:10313000EACFDF91CF91FF90EF90DF90CF9008958D
:10314000789484B5826084BD84B5816084BD85B582
:10315000826085BD85B5816085BDEEE6F0E0808149
:1031600081608083E1E8F0E010828081826080836A
:10317000808181608083E0E8F0E0808181608083ED
:10318000E1EBF0E0808184608083E0EBF0E080811F
:1031900081608083EAE7F0E08081846080838081C1
:1031A0008260808380818160808380818068808369
:1031B0001092C10008958E3008F08E5087702091D3
:1031C000210190E4299F90011124822B80937C009F
:1031D00080917A00806480937A0080917A0086FDE5
:1031E000FCCF809178002091790090E0922B089597
:1031F0001F93CF93DF93182FEB0161E00E9480199A
:10320000209711F460E004C0CF3FD10539F461E0AC
:10321000812FDF91CF911F910C94B919E12FF0E02C
:10322000ED51F94FE491E330F9F048F4E130B9F0B1
:10323000E230A1F584B5806284BDC8BD34C0E730FA
:10324000E9F0E83019F1E43049F5809180008062BE
:1032500080938000D0938B00C0938A0024C084B5F3
:10326000806884BDC7BD1FC0809180008068809346
:103270008000D0938900C093880015C08091B00071
:1032800080688093B000C093B3000DC08091B000FF
:1032900080628093B000C093B40005C0C038D105EF
:1032A0000CF0B5CFAFCFDF91CF911F910895833050
:1032B00081F028F4813099F08230A1F008958730B0
:1032C000A9F08830B9F08430D1F4809180008F7DEE
:1032D00003C0809180008F7780938000089584B52B
:1032E0008F7702C084B58F7D84BD08958091B00032
:1032F0008F7703C08091B0008F7D8093B0000895D8
:10330000CF93DF9390E0FC01E950F94F2491FC0149
:10331000E55FF84F8491882349F190E0880F991F69
:10332000FC01ED5CF84FA591B491875D984FFC01CD
:10333000C591D4919FB7611108C0F8948C912095E4
:1033400082238C93888182230AC0623051F4F894DE
:103350008C91322F309583238C938881822B8883A4
:1033600004C0F8948C91822B8C939FBFDF91CF91F6
:1033700008950F931F93CF93DF931F92CDB7DEB7BE
:10338000282F30E0F901ED51F94F8491F901E9500E
:10339000F94F1491F901E55FF84F04910023C9F04A
:1033A000882321F069830E9457196981E02FF0E09A
:1033B000EE0FFF1FE75DF84FA591B4919FB7F8940A
:1033C0008C91611103C01095812301C0812B8C93D6
:1033D0009FBF0F90DF91CF911F910F910895CF93D1
:1033E000DF93282F30E0F901ED51F94F8491F90175
:1033F000E950F94FD491F901E55FF84FC491CC231E
:1034000091F081110E945719EC2FF0E0EE0FFF1F91
:10341000E15EF84FA591B4912C912D2381E090E0CD
:1034200021F480E002C080E090E0DF91CF91089528
:103430001F920F920FB60F9211242F938F939F9389
:10344000EF93FF93E0916105F09162058081E09137
:103450006705F091680582FD12C0908180916A0530
:103460008F5F8F7320916B05821751F0E0916A0591
:10347000F0E0EF5AFA4F958F80936A0501C0808182
:10348000FF91EF919F918F912F910F900FBE0F9011
:103490001F9018951F920F920FB60F9211242F9321
:1034A0003F934F935F936F937F938F939F93AF93CC
:1034B000BF93EF93FF9381E595E00E94B61CFF91C7
:1034C000EF91BF91AF919F918F917F916F915F919C
:1034D0004F913F912F910F900FBE0F901F90189515
:1034E00081E595E00E947B1C21E0892B09F420E016
:1034F000822F0895109254051092530588EE93E0A0
:10350000A0E0B0E08093550590935605A093570531
:10351000B093580585E391E090935205809351054F
:1035200085EC90E090935E0580935D0584EC90E0DF
:103530009093600580935F0580EC90E09093620526
:103540008093610581EC90E090936405809363051E
:1035500082EC90E0909366058093650586EC90E0A0
:10356000909368058093670510926A0510926B0529
:1035700010926C0510926D05089508950E94A01890
:103580000E94BD1A0E94CB03C8EADCE10E94CC066F
:103590002097E1F30E94A81CF9CFCF92DF92EF921F
:1035A000FF920F931F93CF93DF936C017A01EB018E
:1035B000E60EF71E00E010E0CE15DF0561F0699120
:1035C000D601ED91FC910190F081E02DC6010995A5
:1035D000080F191FF1CFC801DF91CF911F910F91F3
:1035E000FF90EF90DF90CF9008956115710581F005
:1035F000DB010D900020E9F7AD0141505109461B58
:10360000570BDC01ED91FC910280F381E02D0994D0
:1036100080E090E00895EF92FF920F931F93CF9375
:10362000DF938C01FB01C0E0D0E064917F018FEF5C
:10363000E81AF80A662361F0D801ED91FC91019037
:10364000F081E02DC8010995C80FD91FF701EDCF12
:10365000CE01DF91CF911F910F91FF90EF900895D0
:10366000DC01ED91FC910190F081E02D09940F9324
:103670001F93CF93DF93EC016DE00E94301B8C0110
:103680006AE0CE010E94301B800F911FDF91CF9125
:103690001F910F9108950F931F93CF93DF93EC0128
:1036A0000E940B1B8C01CE010E94371B800F911FC3
:1036B000DF91CF911F910F9108958F929F92AF92BA
:1036C000BF92CF92DF92EF92FF920F931F93CF930F
:1036D000DF93CDB7DEB7A1970FB6F894DEBF0FBE6C
:1036E000CDBF7C01C42EE52FCB01D22E19A221E043
:1036F0002D1510F02AE0D22E8E010F5D1F4F8D2C5C
:10370000912CA12CB12C6C2D7E2FA50194010E942F
:10371000BF1E8C2DD29E80191124015011098A30B0
:1037200014F4805D01C0895CF801808321153105A6
:103730004105510521F0C22EE32FCA01E4CFB801A3
:10374000C7010E94F51AA1960FB6F894DEBF0FBE0E
:10375000CDBFDF91CF911F910F91FF90EF90DF9040
:10376000CF90BF90AF909F908F900895CF92DF92AF
:10377000EF92FF920F931F93CF93DF93EC016A01B7
:103780007B012115310579F4E881F9810190F081FF
:10379000E02D642FDF91CF911F910F91FF90EF905B
:1037A000DF90CF9009942A303105E9F477FF1AC0F1
:1037B0006DE20E94301B8C0144275527BA014C1939
:1037C0005D096E097F092AE0CE010E945D1B800F12
:1037D000911FDF91CF911F910F91FF90EF90DF909C
:1037E000CF9008952AE0B701A601CE01DF91CF91D5
:1037F0001F910F91FF90EF90DF90CF900C945D1B85
:103800009A01AB01662757FD6095762F0C94B61B85
:103810000F931F93CF93DF93EC019A01AB016627BF
:1038200057FD6095762F0E94B61B8C01CE010E9439
:10383000371B800F911FDF91CF911F910F9108953A
:103840002115310541F4DC01ED91FC910190F081ED
:10385000E02D642F09940C945D1B9A01AB0160E08C
:1038600070E00C94201C4F925F926F927F92AF9207
:10387000BF92CF92DF92EF92FF920F931F93CF935D
:10388000DF93CDB7DEB729013A01621B730B840BBE
:10389000950B29893A894B895C892A193B094C097E
:1038A0005D09298B3A8B4B8B5C8B9B01AC01698941
:1038B0007A898B899C890E947B1EE418F508060989
:1038C0001709A80197010E94E11E2A0D3B1D4C1DFE
:1038D0005D1DCA01B901DF91CF911F910F91FF903A
:1038E000EF90DF90CF90BF90AF907F906F905F9000
:1038F0004F9008950895FC01818D228D90E0805CA9
:103900009F4F821B91098F7399270895FC01918D18
:10391000828D981731F0828DE80FF11D858D90E032
:1039200008958FEF9FEF0895FC01918D828D981778
:1039300061F0828DDF01A80FB11D5D968C91928D93
:103940009F5F9F73928F90E008958FEF9FEF089590
:1039500080E79AE1892B49F080E090E0892B29F0FB
:103960000E94701A81110C9400000895FC01848D4E
:10397000DF01A80FB11DA35ABF4F2C91848D90E099
:1039800001968F739927848FA689B7892C93A08974
:10399000B1898C9180648C93938D848D981306C02B
:1039A0000288F389E02D80818F7D80830895CF93F5
:1039B000DF93EC01888D8823C9F0EA89FB89808137
:1039C00085FD05C0A889B9898C9186FD0FC00FB609
:1039D00007FCF5CF808185FFF2CFA889B9898C914A
:1039E00085FFEDCFCE010E94B61CE7CFDF91CF91CE
:1039F0000895CF92DF92FF920F931F93CF93DF939F
:103A00001F92CDB7DEB76C01DC015B969C915B9792
:103A10005C968C915C97981307C05096ED91FC9141
:103A20005197808185FD32C0F601038D10E00F5F54
:103A30001F4F0F731127F02EF601848DF81211C05D
:103A40000FB607FCF9CFD6015096ED91FC91519736
:103A5000808185FFF1CFC60169830E94B61C698110
:103A6000EBCF838DE80FF11DE35AFF4F6083D60142
:103A70005B960C935B975296ED91FC9153978081E6
:103A80008062808381E058968C930DC0D601569653
:103A9000ED91FC91579760835096ED91FC91519771
:103AA00080818064808381E090E00F90DF91CF91EE
:103AB0001F910F91FF90DF90CF90089598D088F0DC
:103AC0009F5790F0B92F9927B751A0F0D1F0660F0A
:103AD000771F881F991F1AF0BA95C9F712C0B13025
:103AE00081F09FD0B1E008959CC0672F782F882780
:103AF000B85F39F0B93FCCF3869577956795B39564
:103B0000D9F73EF490958095709561957F4F8F4FD2
:103B10009F4F0895E89409C097FB3EF490958095D7
:103B2000709561957F4F8F4F9F4F9923A9F0F92F83
:103B300096E9BB279395F695879577956795B79501
:103B4000F111F8CFFAF4BB0F11F460FF1BC06F5FE7
:103B50007F4F8F4F9F4F16C0882311F096E911C0F9
:103B6000772321F09EE8872F762F05C0662371F01A
:103B700096E8862F70E060E02AF09A95660F771F2E
:103B8000881FDAF7880F9695879597F9089597F922
:103B90009F6780E870E060E008959FEF80EC0895F3
:103BA00000240A941616170618060906089500241C
:103BB0000A9412161306140605060895092E039496
:103BC000000C11F4882352F0BB0F40F4BF2B11F40A
:103BD00060FF04C06F5F7F4F8F4F9F4F089557FD69
:103BE0009058440F551F59F05F3F71F04795880F6B
:103BF00097FB991F61F09F3F79F087950895121602
:103C000013061406551FF2CF4695F1DF08C01616AD
:103C100017061806991FF1CF86957105610508945E
:103C20000895E894BB2766277727CB0197F9089575
:103C30000BD0C4CFB5DF28F0BADF18F0952309F018
:103C4000A6CFABCF1124EECFCADFA0F3959FD1F35F
:103C5000950F50E0551F629FF001729FBB27F00D3A
:103C6000B11D639FAA27F00DB11DAA1F649F66278F
:103C7000B00DA11D661F829F2227B00DA11D621FDE
:103C8000739FB00DA11D621F839FA00D611D221F98
:103C9000749F3327A00D611D231F849F600D211D7C
:103CA000822F762F6A2F11249F5750408AF0E1F01F
:103CB00088234AF0EE0FFF1FBB1F661F771F881F68
:103CC00091505040A9F79E3F510570F060CFAACFA8
:103CD0005F3FECF3983EDCF3869577956795B79553
:103CE000F795E7959F5FC1F7FE2B880F911D96957D
:103CF000879597F90895DB018F939F930E94001F8A
:103D0000BF91AF91A29F800D911DA39F900DB29F77
:103D1000900D11240895991B79E004C0991F9617FE
:103D200008F0961B881F7A95C9F780950895AA1BFD
:103D3000BB1B51E107C0AA1FBB1FA617B70710F096
:103D4000A61BB70B881F991F5A95A9F780959095C8
:103D5000BC01CD01089597FB072E16F4009407D0FF
:103D600077FD09D00E94971E07FC05D03EF4909580
:103D700081959F4F0895709561957F4F0895A1E2B9
:103D80001A2EAA1BBB1BFD010DC0AA1FBB1FEE1FD5
:103D9000FF1FA217B307E407F50720F0A21BB30B20
:103DA000E40BF50B661F771F881F991F1A9469F79C
:103DB00060957095809590959B01AC01BD01CF01F8
:103DC0000895052E97FB1EF400940E94F81E57FDDF
:103DD00007D00E94BF1E07FC03D04EF40C94F81EBF
:103DE00050954095309521953F4F4F4F5F4F089527
:103DF00090958095709561957F4F8F4F9F4F089557
:103E00000E94111FA59F900DB49F900DA49F800D3F
:103E1000911D11240895EE0FFF1F0590F491E02DE0
:103E20000994A29FB001B39FC001A39F700D811D93
:103E30001124911DB29F700D811D1124911D0895B3
:043E4000F894FFCF24
:103E44000000EE05800001000000B502BD00BCFFCB
:103E5400E0FFB500AD00A5009D0095008D00850034
:103E64000101000000007F10CD1A4C4F414445521F
:103E74000000000000F91CCD1A7B1C941C861CD782
:023E84001C0020
:00000001FF
