:100000000C94D3010C94FB010C94FB010C94FB01A8
:100010000C94FB010C94FB010C94FB010C94FB0170
:100020000C94FB010C94FB010C94FB010C941E132B
:100030000C94FB010C94FB010C94FB010C94FB0150
:100040000C947B130C94FB010C94FB010C94FB01AE
:100050000C94FB010C94FB010C94FB010C94FB0130
:100060000C94FB010C94FB01446F677326426F6E86
:1000700065730003053F213F1208120A100A0E1C87
:100080000E0C1E0C141A14161F161E131E1E1B1EF9
:100090001E1F1E3F213F3A2F3A173D173F213F18A1
:1000A0001F02040A041F0E04040E1F0A1F0A0E0E6C
:1000B0001F04110E2E252E2F2A2E262929021F025B
:1000C000081F08150E04040E150E15151B151B042C
:1000D0000604040C040000000017000300031F0ABC
:1000E0001F16371A1904130A153A000300000E11DF
:1000F000110E000A040A040E040030000404040077
:1001000010001804031F111F121F101D15171115C1
:100110001F07041F17151D1F151D01011F1F151F88
:1001200017151F000A00003200040A110A0A0A11FA
:100130000A040115020E11171E051E1F150A0E11C5
:100140000A1F110E1F15111F05010E111D1F041F7F
:10015000111F1108100F1F041B1F10101F061F1E58
:10016000040F0E110E1F09060E112E1F051A12156F
:1001700009011F011F101F0F180F1F0C1F1B041B4D
:10018000031C03191513001F11030418111F00028B
:1001900001022020200001020C121E1F120C0C1262
:1001A000120C121F0C1A14041E05242A1E1F021CF6
:1001B000141D1020201D1F0814111F101E041E1EC8
:1001C000021C0C120C3E0A040C123E1E04021416F1
:1001D0000A020F120E101E0E100E1E081E120C1216
:1001E00026281E322A26041E21001F00211E04017B
:1001F00002013F213F0A4E6F205344206361726425
:10020000206F720A6E6F204C4F414445522E484574
:10021000580A0A153A45786974001D20466C6173C6
:1002200068696E670A20206C6F616465722E2E2EDD
:100230000A0A444F4E2754205455524E204F4646EA
:1002400021006D560A0A504C454153450A545552F7
:100250004E204F4646004C4F572042415454455281
:10026000590A00175344001613780016131400158A
:1002700010200015201000540A03E181867F3E18EB
:100280006D830F0F0E0183866033186DC3198F18AD
:1002900003C38E6033186DE330CF1803C39E6036FE
:1002A00030CDE360CF3006C79E7E3E30CDB360CF09
:1002B000300CC6F6603330D9B660CF33CFCCF660A1
:1002C00061B0DB1E60CF30D86CE6C061B0DB1E6170
:1002D0008F19986CC6C063B19B0E330F0FB078C6F0
:1002E000FF7E1F1B061E0F050089300802380249D9
:1002F0007868140000F6E8DBCFC3B8AEA49B928AFE
:10030000827B746E68625C57524E4945413E3A3773
:1003100034312E2C29272523211F1D1C1A191716AD
:100320001514131211100F0E0D0C0B0A09080706F5
:10033000450068010000050038016801000046031F
:1003400042030101FF030101F7030000000800025E
:10035000010000030407000000000000000001028B
:100360000408102040800102040810200102040843
:100370001020040404040404040402020202020221
:1003800003030303030300000000230026002900E9
:1003900000000000250028002B00000000002400C1
:1003A00027002A00C80511241FBECFEFD8E0DEBF0A
:1003B000CDBF11E0A0E0B1E0E8E4F3E302C00590B6
:1003C0000D92A633B107D9F723E0A6E3B1E001C04F
:1003D0001D92AA3FB207E1F713E0C6EAD3E004C0DA
:1003E0002297FE010E942319C43AD107C9F70E943F
:1003F00095150C94A2190C940000643508F047C0C0
:10040000403308F044C0FC01878D242F25952595A5
:100410002595E62FFF27E7FDF0954770823091F490
:10042000DF01AD50BE4F84E52802A00DB11D11249F
:100430008C9190E0042E02C0959587950A94E2F77E
:1004400080958170811112C084E52802E00DF11DB4
:100450001124ED50FE4F81E090E0042E01C0880F82
:100460000A94EAF780959081982310C084E52802C9
:10047000E00DF11D1124ED50FE4F81E090E0042EBF
:1004800001C0880F0A94EAF79081982B9083089511
:100490004F925F926F927F928F929F92AF92BF9294
:1004A000CF92DF92EF92FF920F931F93CF93DF9340
:1004B00080916701811140C0F6E36F2EF1E07F2E3D
:1004C000AAE44A2EA1E05A2EC0E0D0E0F301C19088
:1004D000D1903F01F201E190F1902F01409168012C
:1004E0005091690160916A0170916B0135E0832E32
:1004F000912CE3E0AE2EB12C05E010E023E030E0DB
:100500008CE691E00E946910882389F081E0809355
:100510006701CC0FDD1FFE01E65BFE4F86EF9FEF0C
:1005200091838083CA5CDE4F9983888330C0219693
:10053000CA30D10559F62BC0C0905E01D0905F0142
:10054000E0906001F0906101409168015091690173
:1005500060916A0170916B0185E0882E912C93E087
:10056000A92EB12C05E010E023E030E08CE691E00C
:100570000E946910882359F01092670180916201EE
:100580009091630101969093630180936201DF91E2
:10059000CF911F910F91FF90EF90DF90CF90BF9080
:1005A000AF909F908F907F906F905F904F90089545
:1005B0002F923F924F925F926F927F928F929F9273
:1005C000AF92BF92CF92DF92EF92FF920F931F9361
:1005D000CF93DF9300D000D01F92CDB7DEB78091CC
:1005E0006601882389F161E08AEB91E00E944C0763
:1005F00041E060E08AEB91E00E949D0787E08093F4
:10060000C3018AE08093C40182E08093C2016CE060
:1006100071E08AEB91E00F900F900F900F900F9088
:10062000DF91CF911F910F91FF90EF90DF90CF90CE
:10063000BF90AF909F908F907F906F905F904F9002
:100640003F902F900C94071600E324E140E06FE305
:100650008AEB91E00E94220841E060E08AEB91E0A1
:100660000E949D0710E0412F6FE38AEB91E00E940A
:10067000FD011E5F1033B9F70E94C513009164019C
:1006800010916501222717FD2095322F601B710BF9
:10069000820B930B28EE33E040E050E00E94D51827
:1006A00064E670E0621B730B77FF03C081E0809308
:1006B000660183E48093C30182E08093C4016A30C1
:1006C00071051CF48BE48093C30182E08093C20126
:1006D0004AE050E08AEB91E00E94C9168BE48093D7
:1006E000C3018EE08093C401609162017091630147
:1006F0004AE050E08AEB91E00E94C91680916701C0
:10070000882309F41AC10E94C51328EE33E040E0A3
:1007100050E00E94D518643F71408105910508F4AE
:100720000CC10AE121E54AE162E48AEB91E00E9412
:10073000A10740E061E08AEB91E00E949D0781E023
:100740008093C20180916A0190916B01E0906801F1
:10075000F09069018A3A91054CF4FC017F97FD8382
:10076000EC83F7FF07C01D821C8204C02AE830E03A
:100770003D832C833DE4E316F10444F488E1E81A58
:10078000F108F7FE06C0E12CF12C03C024E3E22EB1
:10079000F12CEC81FD81EF2B41F40FE220E040E0F1
:1007A00060E08AEB91E00E94A107E114F10441F4BA
:1007B00000E02DE340E060E08AEB91E00E94A107B9
:1007C0002C813D812A38310541F40FE22DE340E0D0
:1007D0006DE38AEB91E00E94A10734E3E316F10494
:1007E00041F40FE22DE34FE260E08AEB91E00E94DA
:1007F000A1070C811D8118018DE3280E311C96E0A4
:10080000A92EB12C2CE030E027019FE2490E511CAB
:1008100020163106BCF1C801B5010E94C1184C0177
:10082000C801B9010E94C118039719F4612C712CF9
:1008300003C082E0682E712C6701E02FFC81EF1B62
:10084000E9834C145D04DCF083E08816910499F48C
:10085000C601860D971DB5010E94C118039759F472
:100860004C2D4E1969818AEB91E02A833B830E94CB
:10087000FD013B812A819FEFC91AD90AE2CF0F5FA0
:100880001F4FC6CF40915E0150915F0160916001A2
:1008900070916101CB01EC81FD818E1B9F0BCB9789
:1008A00030F4CA018E199F09C09708F44FC0B6E30F
:1008B000CB2EB1E0DB2E1AE4A12E11E0B12EF60111
:1008C000419151916F01F501619171915F01CB01EE
:1008D0002C813D81821B930BCB9728F4CA018E1982
:1008E0009F09C097E8F13AE4C31631E0D30639F71F
:1008F000409168014E1960916A018C81681B01E08A
:1009000020E48AEB91E00E94420B0F900F900F9031
:100910000F900F90DF91CF911F910F91FF90EF906B
:10092000DF90CF90BF90AF909F908F907F906F900F
:100930005F904F903F902F90089502E022E14EE0AB
:1009400063E48AEB91E00E94420BEBCE4E199C814E
:10095000691B01E023E28AEB91E00E94420BA7CFE2
:100960004E19EC816E1B01E022E18AEB91E00E94BE
:10097000420BB9CFEF92FF920F931F93CF93DF9368
:1009800029EB30E040E050E06AE070E080E090E089
:100990000E941017709361016093600123E530E0BD
:1009A00040E050E06AE070E080E090E00E941017C4
:1009B00070935F0160935E0120916001309161014D
:1009C0002650310930936B0120936A0170936901BD
:1009D000609368013AE4E32E31E0F32E06E311E080
:1009E000CAE0D0E029EB30E040E050E06AE070E09F
:1009F00080E090E00E941017F701619371937F01EE
:100A0000F801C193D1938F012A96CE36D10551F7C3
:100A100010926301109262011092670110926601B8
:100A20000E94C5137093650160936401DF91CF91BB
:100A30001F910F91FF90EF90089568E670E08CE6AB
:100A400091E00E94910F109284011092C00163E71F
:100A500070E08AEB91E00E946A0A8CE691E00E94C5
:100A6000200C0C94BA048CE691E00E940E100C94B9
:100A70001D0566E086E791E00E94F70681110AC035
:100A800080916601882341F064E086E791E00E944E
:100A9000F70681110C941D0541E061E086E791E0C5
:100AA0000E940007882391F080916801909169016C
:100AB000019790936901809368011816190634F024
:100AC00081E090E0909369018093680141E063E0E8
:100AD00086E791E00E940007882391F080916801E9
:100AE00090916901019690936901809368018E3518
:100AF000910534F08DE590E0909369018093680151
:100B000041E060E086E791E00E940007882391F0D1
:100B100080916A0190916B01019790936B01809392
:100B20006A011816190634F081E090E090936B0189
:100B300080936A0141E062E086E791E00E9400074D
:100B4000882391F080916A0190916B0101969093B6
:100B50006B0180936A01843C910534F083EC90E052
:100B600090936B0180936A0164E086E791E00E94B4
:100B7000F70681110C94480208958CE691E00E94DA
:100B8000540D882321F00E9439050C94D802089551
:100B90001092BD011092BC018AE191E09093BB01DB
:100BA0008093BA010895CF93CFB7F8948091F20162
:100BB000811127C0ECE7F3E08491E8E6F3E094913B
:100BC000E82FF0E0EE0FFF1FE656FC4FA591B49121
:100BD0008C91892321F461E08AE00E94351561E05F
:100BE0008AE00E94FC148CB580618CBD8CB5806459
:100BF0008CBD61E08DE00E94FC1461E08BE00E94FE
:100C0000FC148091F2018F5F8093F201CFBFCF91EE
:100C1000089521E0FC012083089570E085E00C94A4
:100C20007414AF92BF92CF92DF92EF92FF920F9324
:100C30001F93CF93DF93EC0189819A812FE0289F46
:100C40008001299F100D112485E10E945714800F07
:100C5000911F24E0969587952A95E1F79A838983D9
:100C60002881222391F1AC81AD80B12CC12CD12CF3
:100C7000E885F9857F0100E010E06E817F819B01AE
:100C800040E050E08617970728F0BC01E817F90705
:100C900008F4BF0180E090E01F921F921F92AF9373
:100CA0000E942C176B830F900F900F900F9070E0A5
:100CB00085E0DF91CF911F910F91FF90EF90DF9032
:100CC000CF90BF90AF900C947414DF91CF911F918F
:100CD0000F91FF90EF90DF90CF90BF90AF9008956D
:100CE000FC018CE39FE09383828384E0818381E035
:100CF00084870895CF93DF93EC018C858F7151F534
:100D000084E10E945714BC01882777FD8095982FB5
:100D10000E94A21726EE3FE34EEC50E40E942E18EC
:100D20000E9474179B017B836A836115710581F0B2
:100D300084E08983FE0140E084819581281739078A
:100D400010F449830AC04F5F32964430A9F702C0BD
:100D50008FEF89838C858F5F8C87DF91CF9108958A
:100D6000FC0188E0808389E0818387E0828386E0DC
:100D7000838384E0848382E0858381E18683089590
:100D8000DF92EF92FF920F931F93CF93DF937C013B
:100D9000EC0100E010E0DD24DA9462E088810E943A
:100DA000FC1488810E946B15F701E00FF11F892B5D
:100DB00021F487818F5F878308C08781882349F06A
:100DC0008F3F11F4178201C0D78260E088810E94B2
:100DD000FC140F5F1F4F219607301105F1F6DF91CC
:100DE000CF911F910F91FF90EF90DF900895FC013C
:100DF000E60FF11D81E09781913009F080E00895C0
:100E0000262F30E0FC01E20FF31F8781423028F4E7
:100E100081508E3F48F080E008958F3FE1F3642FCA
:100E20000E94A1189130B9F781E008958EBD0000AD
:100E30000DB407FEFDCF8EB508951F93CF93DF93BA
:100E4000EC01162FF89460E08E850E9435158F8591
:100E500018161CF460E00E943515812F0E941607B9
:100E60008F8518161CF461E00E9435157894DF9187
:100E7000CF911F91089528EF31E0E3EFF1E0DF011A
:100E8000A9011D9241505040E1F7DC0119961C92D6
:100E900019971A961C92089548EF51E06FEF7FEF73
:100EA00083EF91E00C949319DF92EF92FF920F93EE
:100EB0001F93CF93DF93EC0183EFE82E81E0F82EB0
:100EC000D12C6D2D6064CE010E941D0760E8CE011B
:100ED0000E941D0761E08E850E9435158F851816CA
:100EE0001CF460E00E94351500E010E0F701E00F0F
:100EF000F11F80810E9416070F5F1F4F04351105F7
:100F0000A9F78F8518161CF461E00E943515D3945B
:100F100084E5E80EF11C86E0D812D3CF60E4CE0160
:100F2000DF91CF911F910F91FF90EF90DF900C9484
:100F30001D07FC01678F60A30895FC01678F40A324
:100F40000895AF92BF92CF92DF92EF92FF920F93EC
:100F50001F93CF93DF93EC01162FF42EE22EA02FD8
:100F6000BB27A7FDB095A41BB10947FDB395B7FFFB
:100F700003C0B195A195B109EE2DFF27E7FDF095CE
:100F8000E11BF10917FDF395F7FF03C0F195E1951A
:100F9000F109BB24B394EA17FB0714F0B12C06C087
:100FA0008E2DE02E082F812F1F2DF82EE11634F400
:100FB0008F2DF02E082F812F1E2DE82ECE2CC11A3A
:100FC000E02FFF27E7FDF095EF19F109F7FCF39506
:100FD000F7FF03C0F195E195F109AE2EDC2CC7FEB9
:100FE00003C0DD24D394DC0CD594F01614F401E096
:100FF0000FC00FEF0DC0BB2071F0412F6F2DCE0140
:101000000E94FD01DA18D7FE02C0F00EDC0C1F5F53
:10101000E1168CF703C04F2D612FF1CFDF91CF91F7
:101020001F910F91FF90EF90DF90CF90BF90AF9006
:1010300008950F93022F0150040F262F0E94A1073D
:101040000F910895DF92EF92FF920F931F93CF932A
:10105000DF937C01D42E162FC22FDD27C7FDD0953C
:10106000C60FD11D67FDDA95812F992787FD9095D1
:101070008C179D0744F4202F4D2D612FC7010E942E
:1010800019081F5FF1CFDF91CF911F910F91FF9052
:10109000EF90DF9008950F932150260F042F0E94A8
:1010A000A1070F9108958F929F92AF92BF92CF9216
:1010B000DF92EF92FF920F931F93CF93DF93EC0198
:1010C000E62ED42E122FCC24C394C21AB22EB19481
:1010D000BB0CF12C802F8470A82E802F8270982E4C
:1010E000802F8870882E0170F1160CF04DC0C7FC5F
:1010F00004C01150B394B394CB0CF3948F2D880F8C
:101100008F5FC80EAA2071F0412F4D0D6F2D6E0D0F
:10111000CE010E94FD014F2D4D0D612F6E0DCE01B0
:101120000E94FD01992071F04D2D411B6F2D6E0D18
:10113000CE010E94FD014D2D4F19612F6E0DCE0184
:101140000E94FD01882071F04F2D4D0D6E2D611B09
:10115000CE010E94FD01412F4D0D6E2D6F19CE0164
:101160000E94FD01002309F4BFCF4D2D4F196E2DB4
:10117000611BCE010E94FD014D2D411B6E2D6F198B
:10118000CE010E94FD01B0CFDF91CF911F910F9151
:10119000FF90EF90DF90CF90BF90AF909F908F9097
:1011A00008958F929F92AF92BF92CF92DF92EF926B
:1011B000FF920F931F93CF93DF93EC01B62EA42ED3
:1011C000122FDD24D394D21AC22EC194CC0CFF244A
:1011D000F394802F8170882E992493949E0C027032
:1011E0008FEF8F0D8117C4F5D7FC04C01150C39445
:1011F000C394DC0C8F2D880F8F5FD80E882099F058
:10120000212F220F290D4A2D411B6F2D6B0DCE0171
:101210000E94190823E02E0D4A2D4F19612F6B0DE6
:10122000CE010E941908002399F0212F220F290DC9
:101230004A2D411B6B2D6F19CE010E94190823E026
:101240002E0D4A2D4F196B2D611BCE010E941908DE
:10125000F394E394E394C4CFDF91CF911F910F9166
:10126000FF90EF90DF90CF90BF90AF909F908F90C6
:1012700008959F92AF92BF92CF92DF92EF92FF922A
:101280000F931F93CF93DF93EC01B62EF42EA22E73
:10129000DE2CD194DD0C9D2C920E1E2D160F292DC7
:1012A000612F0E944B08CC24CA94C00ECF0C292D6C
:1012B0004C2D612FCE010E944B08D00EFE0C2D2D1F
:1012C0004F2D6B2DCE010E941908BA0C6FEF6B0DDC
:1012D0002D2D4F2DCE010E94190801E02E2D4F2DEE
:1012E000612FCE010E945308DE2CD094DB0C02E06B
:1012F0002E2D4F2D6D2DCE010E945308CE1804E0E7
:101300002E2D4C2D6D2DCE010E94530808E02E2D60
:101310004C2D612FCE010E945308DF91CF911F9178
:101320000F91FF90EF90DF90CF90BF90AF909F9084
:101330000895AF92BF92CF92DF92EF92FF920F93F8
:101340001F93CF93DF93EC01A62EC42EB22EF02E66
:101350001E2DE194EE0CD12ED60E2E2D2B0D6D2DC3
:101360000E942208FA94FE0CC10E6FEF6A0D6B0DFD
:10137000611BEF2C01E0212F4C2DCE010E94D108E2
:1013800002E0212F4C2D6D2DCE010E94D108DF915E
:10139000CF911F910F91FF90EF90DF90CF90BF9072
:1013A000AF9008952F923F924F925F926F927F92EB
:1013B0008F929F92AF92BF92CF92DF92EF92FF9265
:1013C0000F931F93CF93DF9300D000D01F92CDB720
:1013D000DEB77C01262E542FF90104913196A4909A
:1013E0002901F2E04F0E511C10E0B801695F7F4FF8
:1013F00093E0759567959A95E1F77D836C8320E07E
:1014000030E8C32ED12CB12C822F992787FD9095DF
:10141000801791070CF046C0822F27FF02C087E09B
:10142000820F682E659465946594822F877887FF74
:1014300003C08150886F8F5F460102C095948794E6
:101440008A95E2F7312C772467FC7094322F320DA5
:10145000832D992787FD90958A159B050CF56C8146
:101460007D81869FF001879FF00D969FF00D1124DE
:10147000E60DF71DE40DF51DE491F0E0E821F921FA
:10148000EF2B61F0432D450F632FC70129833B8369
:101490005A830E94FD015A813B8129813394D8CF20
:1014A0002F5FB2CF0F900F900F900F900F90DF91A2
:1014B000CF911F910F91FF90EF90DF90CF90BF9051
:1014C000AF909F908F907F906F905F904F903F90E4
:1014D0002F900895DC01FB0184918F5F14968C930B
:1014E00014973196E491EF5F1596EC9315976E5F24
:1014F0007F4F5E967C936E935D970895EF920F9366
:10150000CF93DF93EC014D876C872E87E88A0F8796
:1015100081E088878F8F18A28F8363E770E0CE0108
:101520000E946A0A0E94D3058CB58F7D8CBD8CB554
:101530008C7F81608CBD8DB581608DBD8CB58C60DC
:101540008CBD61E08D850E94FC1461E08C850E9459
:10155000FC1461E08E850E94FC14888918161CF426
:1015600061E00E94FC148F8518161CF461E00E9453
:10157000FC14888918166CF460E00E9435156AE046
:1015800070E080E090E00E94F41361E088890E949E
:1015900035158C85992787FD9095FC01EE58FC4FF9
:1015A000E491F0E0EE0FFF1FE057FC4F25913491DE
:1015B0003C8B2B8BFC01E25AFC4F84918A8F8D85EA
:1015C000992787FD9095FC01EE58FC4FE491F0E0DF
:1015D000EE0FFF1FE057FC4F259134913A8B298B7A
:1015E000FC01E25AFC4F8491898F8F85992787FDF2
:1015F0009095FC01EE58FC4FE491F0E0EE0FFF1FD8
:10160000E057FC4F259134913E8B2D8BFC01E25A23
:10161000FC4F84918B8F8E85992787FD9095FC01D7
:10162000EE58FC4FE491F0E0EE0FFF1FE057FC4F47
:1016300025913491388F2F8BFC01E25AFC4F849115
:101640008C8F61E2CE010E941D0764E1CE010E94F1
:101650001D078B8587FF02C08FE78B876B856068CE
:10166000CE010E941D0760E2CE010E941D076CE0C2
:10167000CE010E941D07CE01DF91CF910F91EF9017
:101680000C9454076F927F928F929F92AF92BF9269
:10169000CF92DF92EF92FF920F931F93CF93DF933E
:1016A000EC01162FF42EB02EEF8C64350CF081C0B7
:1016B0008FE284170CF47DC0EC81F0E031970E9F2F
:1016C000C0010F9F900D1124860F911D67FD9A9503
:1016D000181619060CF06DC08D81809FC001112471
:1016E000840F911D47FD9A95181619060CF061C0DC
:1016F000A62E962EC22ED12C8A2D811B992787FDCE
:1017000090952C8130E0821793070CF051C0215046
:1017100031098217930779F0C29ED001C39EB00DA4
:10172000D29EB00D1124A80FB91FED8DFE8DEA0FCA
:10173000FB1F749001C0712C8F2C6F2C282D2F193A
:10174000332727FD30958D8190E0281739076CF5F8
:1017500070FE11C081E0B81206C0482D6A2DCE017E
:101760000E94FD011EC00B2D2B2D462D692DCE0193
:101770000E94220816C088A19F8D891791F08F8F33
:1017800081E0B81206C0482D6A2DCE010E94FD01ED
:1017900007C00B2D2B2D462D692DCE010E9422084E
:1017A000EF8E76946B0C8394C9CF9B0CA394A4CF3B
:1017B000EF8EDF91CF911F910F91FF90EF90DF900F
:1017C000CF90BF90AF909F908F907F906F90089533
:1017D0000F93CF93DF93EC01262F6A3039F42D81DC
:1017E00098858A85299F800D112422C06D3011F1C2
:1017F00008854A8569850E94420B48855C81298558
:10180000549F200D112429878F81882399F0332735
:1018100027FD309584E590E0459F801991091124BA
:10182000821793073CF49D818A85499F800D11247E
:101830008A87198681E090E0DF91CF910F9108951A
:101840008F929F92AF92BF92CF92DF92EF92FF92D0
:10185000CF93DF93EC01CA8CDB8CC094D094E12C45
:10186000F12C0E94D1134B015C010E94D113A50100
:101870009401209530954095509560957095809590
:1018800090950E9491189B01AC01C701B6010E947E
:1018900091186B017C0189809A80A12CB12C0E9447
:1018A000D113680D791D8A1D9B1D6C0D7D1D8E1D2C
:1018B0009F1DDF91CF91FF90EF90DF90CF90BF9071
:1018C000AF909F908F900C94E4168F929F92AF925E
:1018D000BF92CF92DF92EF92FF920F931F93CF931D
:1018E000DF93EC015C0185E8A80EB11CD5018C9159
:1018F000882309F44DC08C3018F41CE0181B01C07B
:1019000010E0FE01EA5AFF4F81E080836E01BEE4E1
:10191000CB0ED11C60E0C6010E9499074E01E3E5A1
:101920008E0E911CD4018C9103E0080F9DE2F92EDC
:101930004F2D481B410F23E0E22E24E560E0C60155
:101940000E94990961E0C6010E949907F401808113
:1019500003E0080F4F2D481B410F24E560E0C6014E
:101960000E943909FE01E95AFF4F84E080833196D5
:10197000D4018C91181B115D1083CD57DF4F688106
:101980007981C6010E94E215F50180818150808332
:10199000DF91CF911F910F91FF90EF90DF90CF904B
:1019A000BF90AF909F908F9008950F931F93CF9308
:1019B000DF93EC018C01025B1F4F40E061E0C80146
:1019C0000E949D07FE01E95AFF4FDE01AE5ABF4F4C
:1019D00085E59C91891B808331961082698D6130E9
:1019E00009F43CC028F0888D653008F04EC049C02D
:1019F000CE0185960E94C41160E0CE010E940D06C2
:101A0000C8010E943B07FE01EA5AFF4F81E0808334
:101A100066E572E0C8010E94E2156A8D7B8D4AE09E
:101A200050E0C8010E94DE1662E472E0C8010E9424
:101A3000E215C8010E94540783B7817F846083BF89
:101A400083B7816083BF83B7816083BF889583B785
:101A50008E7F83BF83B78E7F83BF21C0C059DF4F86
:101A6000488159816A817B814F7055276627772786
:101A7000483051056105710510F467E009C068E759
:101A800007C0882361F06B5F03C0882341F06FE2D9
:101A9000C801DF91CF911F910F910C940916DF912E
:101AA000CF911F910F9108958F929F92AF92BF9205
:101AB000EF92FF920F931F93CF93DF93EC017C0182
:101AC0000FE7E00EF11CF70180809180A280B380C7
:101AD0000E94C51395018401061B170B280B390BB7
:101AE000B901A8015E011EE7A10EB11CF5018081BC
:101AF00090E0A0E0B0E08E0106581F4F84179507D4
:101B0000A607B70750F4F80180819181A281B381C3
:101B1000892B8A2B8B2B09F040C0F80180819181A1
:101B2000A281B381892B8A2B8B2BA9F57E01F5E24B
:101B3000EF0EF11CC7010E94C111C7010E942E12B5
:101B4000C7010E94F212CE010E94650CCE010E94D4
:101B5000D50C7E012EE4E20EF11CC7010E94540751
:101B6000FE01EC5AFF4F8081811103C0C7010E9422
:101B70003B070E94D113F8016083718382839383B2
:101B8000FE01EC58FF4FCA58DF4F28813981621B94
:101B9000730B7183608380E036C00E94C513F5012A
:101BA0002081620F711D811D911DF701608371837A
:101BB00082839383FE01E059FF4F4081518162810E
:101BC00073814F5F5F4F6F4F7F4F408351836283BD
:101BD0007383F80110821182128213820E94D11342
:101BE000FE01EA58FF4F6083718382839383CE01A5
:101BF0000E941106CE010A960E94C006CE014896A8
:101C00000E947A0681E0DF91CF911F910F91FF90A2
:101C1000EF90BF90AF909F908F9008950F931F9378
:101C2000CF93DF938C01EC01C25BDF4FCE010E94AA
:101C30003B076AE172E0CE010E94E215CE010E94EC
:101C400054078CB583608CBD8DB58E7F8DBD8EE1C4
:101C500091E0EEEFFFE30995F801EC5AFF4F108297
:101C600065EF71E0CE010E941416CE010E94540768
:101C7000065F1F4FC8010E94C00664E0C8010E94B1
:101C8000F706811107C062E370E080E090E00E94F7
:101C9000F413F0CFDF91CF911F910F9108952F9200
:101CA0003F924F925F926F927F928F929F92AF92EC
:101CB000BF92CF92DF92EF92FF920F931F93CF9339
:101CC000DF93CDB7DEB729970FB6F894DEBF0FBE0E
:101CD000CDBF998788871B012A013C018FE6680EDA
:101CE000711CF3018081882309F402C181E0E88539
:101CF000F985EA5AFF4F8083E885F985EB5AFF4F53
:101D00001082E885F985EC5AFF4F1082E885F98545
:101D1000108E8F01025B1F4F61E0C8010E9499077E
:101D2000888599858D5A9F4F9C838B83C884D984DD
:101D300097E5C90ED11CE884F984E8E5EE0EF11CA4
:101D4000888599858E5A9F4F9A838983E885F9857E
:101D5000E059FF4FFE83ED8388849984FAE08F0E6B
:101D6000911CA884B98485E2A80EB11C8885998548
:101D70000E94540D8823D1F3F1018491882321F02E
:101D8000EB81FC81508101C050E027E732E040E068
:101D900060E0C8015F830E94D2095F814114510451
:101DA00039F04CE0450F920160E0C8010E94D20971
:101DB000F60110828CE0F7018083B101C8010E9416
:101DC000E215E981FA819081892F880F890F819529
:101DD0008D5AF6018083EB81FC819081892F880FD9
:101DE000890F8195835DF7018083ED81FE8180817C
:101DF00084FF03C063E772E002C06FE672E0C801CF
:101E00000E941416E981FA819081892F880F890F29
:101E100081958D5AF6018083F70180818F5F8083E1
:101E2000E885F98582A5882319F06BE672E002C087
:101E300067E672E0C8010E941416E981FA81908178
:101E4000892F880F890F81958D5AF6018083F701BC
:101E500080818F5F808363E672E0C8010E94141660
:101E600065E0C4010E94F706882351F0E885F985F2
:101E700062A56F5FC5010E946E13C5010E945813D1
:101E800064E0C4010E94F706811113C0F3012081B0
:101E9000822F90E0A0E0B0E0ED81FE814081518191
:101EA00062817381481759076A077B07A8F02F3FA3
:101EB00099F08FEFF3018083088519850B5D1F4F23
:101EC00060E0C8010E946B11C8010E94421381E0CA
:101ED000E885F985808F0CC066E0C4010E94F70692
:101EE000882309F443CF888599850E940E0E34CF4C
:101EF00029960FB6F894DEBF0FBECDBFDF91CF910C
:101F00001F910F91FF90EF90DF90CF90BF90AF9017
:101F10009F908F907F906F905F904F903F902F9009
:101F2000089540E050E00C944F0EE0E8F7E725916B
:101F3000349181E02130304C09F080E00895CF9356
:101F4000DF93EC010E94950F9E01275A3F4FDE015F
:101F5000A159BF4F882309F43CC0E6E9F7E7849113
:101F6000F9018083E7E9F7E7E491EC83E8E9F7E733
:101F7000E491ED83E9E9F7E7859194919F838E835E
:101F8000EBE9F7E78591949199878887EDE9F7E781
:101F9000E491EBA7EEE9F7E7E491EAA7EFE9F7E7C9
:101FA000E491EC93E0EAF7E7859194919D8F8C8F13
:101FB000E2EAF7E7859194919F8F8E8FE4EAF7E745
:101FC0008591949199A388A3E6EAF7E78591949186
:101FD00020C08CE3F90180831C822FEF2D8380E2E7
:101FE00093E09F838E8384ED93E09987888781E0D7
:101FF0008BA78AA72C938CEA9DE09D8F8C8F8EED0A
:102000009DE09F8F8E8F84E79EE099A388A38CE349
:102010009FE09BA38AA3DF91CF910895CF92DF9297
:10202000EF920F93CF93DF93EC01FC01E258FF4F47
:1020300082E38083349741E050E060E070E04083C9
:102040005183628373833B978FEF8083CE010E941D
:102050009F0FCE010E9409066FEFCE010E940D0670
:102060006E018AE0C80ED11CC6010E94B006C601EE
:102070000E94C006CE0148960E9470060EE0E02E37
:102080000FE020E14BE06DE0CE01825B9F4F0E94AC
:102090007E0AA596CE010E94D71065E0C6010E9477
:1020A000F706882351F060E0CE01DF91CF910F91C8
:1020B000EF90DF90CF900C946E1340E067EE72E0EB
:1020C000CE01DF91CF910F91EF90DF90CF900C94E4
:1020D00076118F929F92AF92BF92CF92DF92EF9242
:1020E000FF920F931F93CF93DF93CDB7DEB7260FE9
:1020F000371FE216F30684F4EA0CFB1C6E157F050D
:102100005CF4040F151FC016D10634F4C80CD91C9A
:1021100081E04C155D050CF080E0DF91CF911F91BF
:102120000F91FF90EF90DF90CF90BF90AF909F9076
:102130008F900895CF93DF9350E0FA01EE0FFF1FC9
:10214000E80FF91F37852089E32FF22FE60FF11DE5
:10215000E60FF11D25913491FA01EE0FFF1FE80FF4
:10216000F91F30A3278FF90165917491FC01D48187
:10217000D69FC02D1124E40FF51FC1A3F901A5912D
:10218000B4916B2F70E0EC2FF0E0DC01A40FB51FD1
:102190006E177F0720F4F90125913491C32FCD9F4D
:1021A000C02D11249296CC93DF91CF91089521E018
:1021B000FC01248324E020A72EE333E0308B278723
:1021C00040E060E00E949A1061E070E083E00E94CD
:1021D0007414E1EBF0E08081887F81608083F89463
:1021E00010928000E1E8F0E01082109285001092D9
:1021F000840088E191E09093890080938800808139
:1022000088608083808181608083EFE6F0E0808158
:1022100082608083789408950F93FC01862F642F49
:10222000011129C08230D1F048F4882391F0813027
:1022300011F540E0CF010F910C949A108330A9F072
:102240008430C9F48481489F602D1124658F268FC6
:1022500012C04B3008F06AE0668B0DC08481489F45
:10226000602D1124618F228F06C08481489F602DCC
:102270001124638F248F0F910895FC0121110EC04A
:10228000648B8481489F402D1124458B15A214A294
:1022900013A281E0878B8093EF03108E08958091C5
:1022A000EF03882319F08091EC0301C080E0809354
:1022B000B4000895FC0161110DC0178A158A14A29B
:1022C00013A2108E1092EC031092ED031092EF0304
:1022D0000C944F110895CF93DF93EC01611103C06B
:1022E0000E945A111982DF91CF9108950F931F9385
:1022F000CF93DF93EC018B0141110EC060E00E948F
:102300006B111E870D871B8A1A8A81E0898389E0F9
:102310008E8B198E1B8E1D8EDF91CF911F910F9189
:102320000895CF93DF93EC01611128C08881882341
:1023300029F18981811122C089852F819885E22F19
:10234000F92FE80FF11DE80FF11D859194918F3F52
:102350002FEF920711F4188211C09C879927880FDC
:10236000991FEA85FB85E80FF91F6591749140E09C
:10237000CE010E94761189858F5F8987DF91CF9189
:10238000089560E00C94911160E00C946B110F9330
:10239000CF93DF93EC0161115DC08981882309F43B
:1023A00059C08D89811156C02D853E858A899B89AA
:1023B000880F991F820F931FFC01859194910097BC
:1023C000D1F48989882321F01B8A1A8AF90111C066
:1023D0001982888160E0882331F0CE010E9491113A
:1023E0008A899B8925C0CE01DF91CF910F910C94F2
:1023F0005A1185919491BC0176956795769567956C
:1024000080FF1DC0AC01A6E056954795AA95E1F75F
:10241000292F26952695269520514F716F7000E043
:10242000CE010E940C118A899B8901969B8B8A8B15
:10243000880F991FED85FE85E80FF91FDACF492F28
:102440006F7320E0CE010E943D118A899B8901961D
:102450009B8B8A8BDF91CF910F91089560E00C9454
:10246000C711CF93DF93EC016111B9C08F89882325
:1024700009F4B5C08D89811105C0CE01DF91CF91DE
:102480000C945A1181508D8B8DA1811138C08BA174
:102490009CA101969C01220F331FEF8DF8A1E20F42
:1024A000F31F25913491422F47704EA3A90163E099
:1024B000569547956A95E1F7BA0176956795232F6A
:1024C000269526952FA36F732C81629F602D112472
:1024D0006DA341704093EB039CA38BA329A130E033
:1024E0008217930760F08AA1882329F0281B3109FD
:1024F0003CA32BA304C060E0CE010E945A118DA121
:1025000081508DA3288D2F5F288F4C893FA1340FD8
:102510008C85380F3A836B8D662361F070E0822FD3
:10252000992787FD90950E94C1188C8D869F300D4C
:1025300011243A838A8190E0CB966BE370E00E948D
:10254000C1188A833E893B83698D662371F07727A2
:1025500067FD7095822F992787FD90950E94C1187D
:102560008A8D869F300D11243B836D8D662391F0FB
:10257000822F992787FD909570E00E94C118CB01AA
:1025800062E070E00E94C1182E8D9B81289F900D03
:1025900011249B838B814F3339F08A300CF089E012
:1025A00087FD80E08B8301C01B82F894EA81F0E014
:1025B000EB50FD4FE491E093EE0398A58D81989F39
:1025C000802D11249B81899F802D11249EA1899F9C
:1025D000802D11248093ED038093EC037894DF9198
:1025E000CF91089560E00C9431126091ED03662361
:1025F00021F18091F0038F5F8093F0039091EE03BF
:102600008917D8F08091EF0391E089278093EF0339
:102610001092F0038091EB03882369F090910A01F6
:1026200083E4989F802D1124895B80930A010E9486
:10263000A1189093EC030C944F1108951F920F92E0
:102640000FB60F9211242F933F934F935F936F9385
:102650007F938F939F93AF93BF93EF93FF930E94CA
:10266000F512FF91EF91BF91AF919F918F917F9163
:102670006F915F914F913F912F910F900FBE0F90EF
:102680001F901895CF93DF93EC0160E00E946B11CF
:1026900086E393E09E878D871B8A1A8A81E089836F
:1026A00089E08E8B198E1B8E1D8EDF91CF91089540
:1026B000CF93DF93EC0160E00E946B1180E393E025
:1026C0009E878D871B8A1A8A81E0898389E08E8B99
:1026D000198E1B8E1D8EDF91CF910895FC01862FE0
:1026E000992787FD9095668170E06F5F7F4F0E940C
:1026F000C118858308951F920F920FB60F9211246F
:102700002F933F938F939F93AF93BF938091F20347
:102710009091F303A091F403B091F5033091F1038C
:1027200023E0230F2D3720F40196A11DB11D05C014
:1027300026E8230F0296A11DB11D2093F10380937B
:10274000F2039093F303A093F403B093F503809105
:10275000F6039091F703A091F803B091F903019665
:10276000A11DB11D8093F6039093F703A093F80386
:10277000B093F903BF91AF919F918F913F912F91AA
:102780000F900FBE0F901F9018952FB7F89460917F
:10279000F2037091F3038091F4039091F5032FBF3E
:1027A00008953FB7F8948091F6039091F703A091B4
:1027B000F803B091F90326B5A89B05C02F3F19F087
:1027C0000196A11DB11D3FBF6627782F892F9A2F33
:1027D000620F711D811D911D42E0660F771F881FDA
:1027E000991F4A95D1F70895CF92DF92EF92FF9209
:1027F000CF93DF936B017C010E94D113EB01C114D5
:10280000D104E104F10489F00E9473170E94D113EE
:102810006C1B7D0B683E734090F381E0C81AD108B1
:10282000E108F108C851DC4FEACFDF91CF91FF906A
:10283000EF90DF90CF900895789484B5826084BD46
:1028400084B5816084BD85B5826085BD85B58160B4
:1028500085BDEEE6F0E0808181608083E1E8F0E014
:102860001082808182608083808181608083E0E843
:10287000F0E0808181608083E1EBF0E08081846022
:102880008083E0EBF0E0808181608083EAE7F0E024
:102890008081846080838081826080838081816088
:1028A00080838081806880831092C10008958E307B
:1028B00008F08E50877020910B0190E4299F9001C1
:1028C0001124822B80937C0080917A008064809315
:1028D0007A0080917A0086FDFCCF8091780020916B
:1028E000790090E0922B08951F93CF93DF93182FD8
:1028F000EB0161E00E94FC14209711F460E004C039
:10290000CF3FD10539F461E0812FDF91CF911F9145
:102910000C943515E12FF0E0E65BFC4FE491E330D9
:10292000F9F048F4E130B9F0E230A1F584B5806205
:1029300084BDC8BD34C0E730E9F0E83019F1E430B7
:1029400049F580918000806280938000D0938B0055
:10295000C0938A0024C084B5806884BDC7BD1FC0F1
:1029600080918000806880938000D0938900C0931C
:10297000880015C08091B00080688093B000C0933B
:10298000B3000DC08091B00080628093B000C0930E
:10299000B40005C0C038D1050CF0B5CFAFCFDF9182
:1029A000CF911F910895833081F028F4813099F000
:1029B0008230A1F008958730A9F08830B9F08430D2
:1029C000D1F4809180008F7D03C0809180008F774B
:1029D00080938000089584B58F7702C084B58F7D81
:1029E00084BD08958091B0008F7703C08091B000BE
:1029F0008F7D8093B0000895CF93DF9390E0FC012A
:102A0000E25AFC4F2491FC01EE58FC4F849188233C
:102A100049F190E0880F991FFC01E656FC4FA59103
:102A2000B49180579C4FFC01C591D4919FB761111F
:102A300008C0F8948C91209582238C9388818223FE
:102A40000AC0623051F4F8948C91322F3095832370
:102A50008C938881822B888304C0F8948C91822B7C
:102A60008C939FBFDF91CF9108950F931F93CF93C6
:102A7000DF931F92CDB7DEB7282F30E0F901E65B78
:102A8000FC4F8491F901E25AFC4F1491F901EE5880
:102A9000FC4F04910023C9F0882321F069830E9430
:102AA000D3146981E02FF0E0EE0FFF1FE057FC4FD9
:102AB000A591B4919FB7F8948C91611103C01095C2
:102AC000812301C0812B8C939FBF0F90DF91CF9109
:102AD0001F910F910895CF93DF93282F30E0F901D4
:102AE000E65BFC4F8491F901E25AFC4FD491F90165
:102AF000EE58FC4FC491CC2391F081110E94D31465
:102B0000EC2FF0E0EE0FFF1FEA57FC4FA591B491B8
:102B10002C912D2381E090E021F480E002C080E040
:102B200090E0DF91CF91089508950E941C140E94B7
:102B300094150E943305C0E0D0E00E94BD052097A7
:102B4000E1F30E940000F9CFCF92DF92EF92FF9263
:102B50000F931F93CF93DF936C017A01EB01E60E85
:102B6000F71E00E010E0CE15DF0561F06991D60197
:102B7000ED91FC910190F081E02DC6010995080FBF
:102B8000191FF1CFC801DF91CF911F910F91FF90D5
:102B9000EF90DF90CF9008956115710581F0DB0112
:102BA0000D900020E9F7AD0141505109461B570B2C
:102BB000DC01ED91FC910280F381E02D099480E02D
:102BC00090E00895EF92FF920F931F93CF93DF93BE
:102BD0008C01FB01C0E0D0E064917F018FEFE81A27
:102BE000F80A662361F0D801ED91FC910190F08123
:102BF000E02DC8010995C80FD91FF701EDCFCE010F
:102C0000DF91CF911F910F91FF90EF9008950C9459
:102C1000CC15DC01ED91FC910190F081E02D09943F
:102C200065E271E00C94CC150F931F93CF93DF9363
:102C3000EC010E94E2158C01CE010E941016800F5B
:102C4000911FDF91CF911F910F9108958F929F92C5
:102C5000AF92BF92CF92DF92EF92FF920F931F93AA
:102C6000CF93DF93CDB7DEB7A1970FB6F894DEBF51
:102C70000FBECDBF7C01C42EE52FCB01D22E19A2F1
:102C800021E02D1510F02AE0D22E8E010F5D1F4F8E
:102C90008D2C912CA12CB12C6C2D7E2FA501940193
:102CA0000E94D5188C2DD29E801911240150110933
:102CB0008A3014F4805D01C0895CF801808321159D
:102CC00031054105510521F0C22EE32FCA01E4CFA1
:102CD000B801C7010E94CC15A1960FB6F894DEBFCB
:102CE0000FBECDBFDF91CF911F910F91FF90EF905D
:102CF000DF90CF90BF90AF909F908F900895CF922C
:102D0000DF92EF92FF920F931F93CF93DF93EC012B
:102D10006A017B012115310579F4E881F98101907F
:102D2000F081E02D642FDF91CF911F910F91FF90E3
:102D3000EF90DF90CF9009942A303105E9F477FFC6
:102D40001AC06DE20E9409168C0144275527BA016A
:102D50004C195D096E097F092AE0CE010E942616F2
:102D6000800F911FDF91CF911F910F91FF90EF90F6
:102D7000DF90CF9008952AE0B701A601CE01DF9140
:102D8000CF911F910F91FF90EF90DF90CF900C9417
:102D900026169A01AB01662757FD6095762F0C9495
:102DA0007F162115310541F4DC01ED91FC91019074
:102DB000F081E02D642F09940C9426169A01AB0142
:102DC00060E070E00C94D1166115710581059105E4
:102DD00011F00C948A190895CF93DF9300D000D09E
:102DE000CDB7DEB79B01AC01611571058105910579
:102DF00069F069833A834B835C830E94851929813A
:102E00003A814B815C810E94F71803C060E070E05A
:102E1000CB010F900F900F900F90DF91CF910895FD
:102E2000CF92DF92EF92FF926B017C0162177307E2
:102E30008407950764F4CA01B9016C197D098E09EC
:102E40009F090E94EC166C0D7D1D8E1D9F1DFF902D
:102E5000EF90DF90CF9008954F925F926F927F92A4
:102E6000AF92BF92CF92DF92EF92FF920F931F9398
:102E7000CF93DF93CDB7DEB729013A01621B730B05
:102E8000840B950B29893A894B895C892A193B095E
:102E90004C095D09298B3A8B4B8B5C8B9B01AC01F8
:102EA00069897A898B899C890E949118E418F508B0
:102EB00006091709A80197010E94F7182A0D3B1D62
:102EC0004C1D5D1DCA01B901DF91CF911F910F917A
:102ED000FF90EF90DF90CF90BF90AF907F906F907A
:102EE0005F904F900895089598D088F09F5790F084
:102EF000B92F9927B751A0F0D1F0660F771F881F1F
:102F0000991F1AF0BA95C9F712C0B13081F09FD05D
:102F1000B1E008959CC0672F782F8827B85F39F0FB
:102F2000B93FCCF3869577956795B395D9F73EF47D
:102F300090958095709561957F4F8F4F9F4F089525
:102F4000E89409C097FB3EF4909580957095619543
:102F50007F4F8F4F9F4F9923A9F0F92F96E9BB27F9
:102F60009395F695879577956795B795F111F8CF75
:102F7000FAF4BB0F11F460FF1BC06F5F7F4F8F4FE0
:102F80009F4F16C0882311F096E911C0772321F0D6
:102F90009EE8872F762F05C0662371F096E8862F6E
:102FA00070E060E02AF09A95660F771F881FDAF7C5
:102FB000880F9695879597F9089597F99F6780E808
:102FC00070E060E008959FEF80EC089500240A947B
:102FD0001616170618060906089500240A941216F4
:102FE0001306140605060895092E0394000C11F427
:102FF000882352F0BB0F40F4BF2B11F460FF04C0D4
:103000006F5F7F4F8F4F9F4F089557FD9058440F2C
:10301000551F59F05F3F71F04795880F97FB991F37
:1030200061F09F3F79F087950895121613061406F4
:10303000551FF2CF4695F1DF08C016161706180681
:10304000991FF1CF86957105610508940895E8945C
:10305000BB2766277727CB0197F908950BD0C4CFFC
:10306000B5DF28F0BADF18F0952309F0A6CFABCF73
:103070001124EECFCADFA0F3959FD1F3950F50E056
:10308000551F629FF001729FBB27F00DB11D639F1A
:10309000AA27F00DB11DAA1F649F6627B00DA11DC0
:1030A000661F829F2227B00DA11D621F739FB00D66
:1030B000A11D621F839FA00D611D221F749F3327D6
:1030C000A00D611D231F849F600D211D822F762F6F
:1030D0006A2F11249F5750408AF0E1F088234AF06C
:1030E000EE0FFF1FBB1F661F771F881F91505040B8
:1030F000A9F79E3F510570F060CFAACF5F3FECF378
:10310000983EDCF3869577956795B795F795E795A3
:103110009F5FC1F7FE2B880F911D9695879597F9B4
:103120000895DB018F939F930E941619BF91AF9171
:10313000A29F800D911DA39F900DB29F900D112411
:103140000895991B79E004C0991F961708F0961B03
:10315000881F7A95C9F780950895AA1BBB1B51E17A
:1031600007C0AA1FBB1FA617B70710F0A61BB70BF7
:10317000881F991F5A95A9F780959095BC01CD019C
:10318000089597FB072E16F4009407D077FD09D019
:103190000E94AD1807FC05D03EF4909581959F4F95
:1031A0000895709561957F4F0895A1E21A2EAA1B8C
:1031B000BB1BFD010DC0AA1FBB1FEE1FFF1FA217E7
:1031C000B307E407F50720F0A21BB30BE40BF50BE4
:1031D000661F771F881F991F1A9469F7609570956D
:1031E000809590959B01AC01BD01CF010895052EFE
:1031F00097FB1EF400940E940E1957FD07D00E9401
:10320000D51807FC03D04EF40C940E195095409538
:10321000309521953F4F4F4F5F4F08959095809582
:10322000709561957F4F8F4F9F4F08950E9427198A
:10323000A59F900DB49F900DA49F800D911D11240A
:103240000895EE0FFF1F0590F491E02D0994A29FC1
:10325000B001B39FC001A39F700D811D1124911D6A
:10326000B29F700D811D1124911D08958F929F9220
:10327000AF92BF92CF92DF92EF92FF92CF93DF9304
:10328000EC01688179818A819B81611571058105D5
:10329000910521F464E279ED8BE597E02DE133EFC0
:1032A00041E050E00E94F71849015A019B01AC012E
:1032B000A7EAB1E40E9416196B017C01ACEEB4EFF1
:1032C000A50194010E949D19C60ED71EE81EF91E85
:1032D000F7FE06C081E0C81AD108E10880E8F80AC4
:1032E000C882D982EA82FB82C701B6019F77DF914B
:1032F000CF91FF90EF90DF90CF90BF90AF909F90D5
:103300008F9008950E943619089586E091E00E94FA
:1033100036190895609306017093070180930801A0
:10332000909309010895DC0101C06D934150504014
:10333000E0F70895B7FF0C9416190E941619821B26
:08334000930B0895F894FFCFF0
:103348000000FA03800001000000010147616D657B
:10335800204F7665720000000000E80BA4154C4F62
:1033680041444552000D0A006E616E00696E6600A8
:063378006F7666002E00D6
:00000001FF
