:100000000C9421030C9449030C9449030C94490368
:100010000C9449030C9449030C9449030C94490330
:100020000C9449030C9449030C9449030C940E1549
:100030000C9449030C9449030C9449030C94490310
:100040000C9485150C9449030C9449030C944903B2
:100050000C9449030C9449030C9449030C944903F0
:100060000C9449030C94490305A84CCDB2D44EB965
:100070003836A9020C50B9918688083CA6AAAA2A4B
:10008000BE000000803F5830003E0000000000002D
:1000900000000001FFC00000000000FF000007C1D9
:1000A000F00000000007C7C0000F0078000000004B
:1000B0000C00E0001C001C000000001E0030001CB2
:1000C000001C000000002418180038210E00000059
:1000D0000067700C0038210E00000000C7C0060049
:1000E00038000E0000000784C0020038408E000077
:1000F0000005800003003C3F1E0000000580707D6D
:10010000001E003C00000007B3F0CD001F007C0083
:100110000000033FB109000FE3F8000000013FB009
:10012000198007FFF000000001BFF0318001FFE0FF
:1001300000000001B8702180047F000000000190E1
:100140003001003F94FE000000009030010070D5A7
:1001500087000000009020010030770600000000BA
:10016000C820010030F78600000000486001E01858
:10017000770E00000000644000601EF7BC00000025
:100180000033C000C007FFF0007FFFF0198001803E
:10019000001C0007FFFFFF0C0006000000007F802E
:1001A000601FE7807800000001F8006001FFFFE0B9
:1001B00000000007C00060003F00000000001E00BB
:1001C00000000007C000000000780000000001E00F
:1001D00000000001E0000000000078000000038043
:1001E00000000000003C00000007C000000000000C
:1001F0006F0000001E600000000000C38000003897
:1002000020000000000081C000007000000000001D
:100210000000E00000E000000000000000700001AD
:10022000C000000000000000380001800000000055
:100230000000001C000300000000000000000C0093
:10024000070000000000000000060006000000009B
:100250000000000007000C00000000000000000388
:10026000000C000000000000000003801E000000E1
:10027000000000000007801B0000000000000000DC
:100280000DC031000000000000000008C030000078
:1002900000000000000000C0081E3078FC30303044
:1002A000303030303030303030303030303030304E
:1002B000303030303030303047686F7374206465D0
:1002C000746563746F720003053F213F1208120AC0
:1002D000100A0E1C0E0C1E0C141A14161F161E13D8
:1002E0001E1E1B1E1E1F1E3F213F3A2F3A173D1791
:1002F0003F213F181F02040A041F0E04040E1F0AA8
:100300001F0A0E0E1F04110E2E252E2F2A2E26290F
:1003100029021F02081F08150E04040E150E1515DC
:100320001B151B040604040C040000000017000346
:1003300000031F0A1F16371A1904130A153A00037F
:1003400000000E11110E000A040A040E0400300011
:100350000404040010001804031F111F121F101DB5
:10036000151711151F07041F17151D1F151D010156
:100370001F1F151F17151F000A00003200040A1165
:100380000A0A0A110A040115020E11171E051E1F82
:10039000150A0E110A1F110E1F15111F05010E114E
:1003A0001D1F041F111F1108100F1F041B1F101009
:1003B0001F061F1E040F0E110E1F09060E112E1F01
:1003C000051A121509011F011F101F0F180F1F0C0E
:1003D0001F1B041B031C03191513001F1103041812
:1003E000111F000201022020200001020C121E1F1A
:1003F000120C0C12120C121F0C1A14041E05242AC3
:100400001E1F021C141D1020201D1F0814111F1078
:100410001E041E1E021C0C120C3E0A040C123E1E70
:10042000040214160A020F120E101E0E100E1E08E1
:100430001E120C1226281E322A26041E21001F001E
:10044000211E040102013F213F0A4E6F2053442028
:1004500063617264206F720A6E6F204C4F41444595
:10046000522E4845580A0A153A45786974001D20ED
:10047000466C617368696E670A20206C6F61646501
:10048000722E2E2E0A0A444F4E2754205455524E97
:10049000204F464621000A0A153A49676E6F726579
:1004A000006D560A0A504C45415345205455524E52
:1004B000204F464620004C4F57204241545445524D
:1004C00059212000177361766500166261636B0025
:1004D0001574797065000A0A0A153A6F6B61792004
:1004E000163A6564697400596F7520656E7465729B
:1004F00065640A00540A03E181867F3E186D830F0C
:100500000F0E0183866033186DC3198F1803C38ED5
:100510006033186DE330CF1803C39E603630CDE3EF
:1005200060CF3006C79E7E3E30CDB360CF300CC664
:10053000F6603330D9B660CF33CFCCF66061B0DB34
:100540001E60CF30D86CE6C061B0DB1E618F199899
:100550006CC6C063B19B0E330F0FB078C6FF7E1F11
:100560001B061E0F175344001613780016131400B1
:100570001510200015201000000005008930080229
:100580003802497868140000450068010000050041
:100590006801380100000500380168010000F6E834
:1005A000DBCFC3B8AEA49B928A827B746E68625C18
:1005B00057524E4945413E3A3734312E2C29272592
:1005C00023211F1D1C1A1917161514131211100FB1
:1005D0000E0D0C0B0A09080706DD05E1050101F700
:1005E000030101FF0300000000240027002A00008F
:1005F000000000250028002B00000000002300263A
:100600000029000404040404040404020202020297
:1006100002030303030303010204081020408001C6
:100620000204081020010204081020000000070046
:1006300002010000030406000000000000000000AA
:10064000650311241FBECFEFD8E0DEBFCDBF11E0A0
:10065000A0E0B1E0EEE7F9E302C005900D92A2310F
:10066000B107D9F714E0A2E1B1E001C01D92AE37A5
:10067000B107E1F716E0C2E4D6E004C02297FE011C
:100680000E94B91CC034D107C9F70E94B3170C945B
:10069000BD1C0C940000EDE9F1E020E030E0819118
:1006A0009191280F391F82E0E536F807C1F7B901AB
:1006B000882777FD8095982F0E948E1A20E030E0E1
:1006C00048EC52E40E94F3190895109263011092CD
:1006D00062018DE091E09093610180936001089543
:1006E0002F923F924F925F926F927F928F929F9242
:1006F000AF92BF92CF92DF92EF92FF920F931F9330
:10070000DF93CF93CDB7DEB7A1970FB6F894DEBFD6
:100710000FBECDBF8C8B6D8BFA010E8B1F8B288F7C
:10072000398F8491282F30E039A328A33196249162
:1007300088A199A195958795AF014F5F5F4F5C8325
:100740004B83509180015C8760916C0161706B8775
:10075000A8A1B9A11796B9A3A8A333E0B595A79509
:100760003A95E1F7B887AF83E8A1F9A13797F9A3E4
:10077000E8A34BEF5FEF421B51095E834D831A8262
:10078000198266277727681B790B7F8F6E8F21C1AF
:10079000ED85FE8583E0F595E7958A95E1F78981FA
:1007A0009A81E80FF91FAB81BC81EA0FFB1FE4912E
:1007B0002E2F30E08D859E8587709070E0E8F0E008
:1007C00002C0F595E7958A95E2F72E233F23232B68
:1007D00009F4DFC029853A85B901882777FD80951E
:1007E000982F0E948E1A1B012C016E897F89888D9B
:1007F000998D0E94F019688B798B8A8B9B8B6A8DFF
:100800007B8D8C8D9D8D0E948E1A3B014C016E89D3
:100810007F89888D998D0E94DE1B5B016C01C2016E
:10082000B101288939894A895B890E947B1B7B0138
:100830008C01C401B301A60195010E947B1B9B01A1
:10084000AC01C801B7010E9487190E945B1A3C895C
:10085000360F3F87343508F09CC0C201B101A601B4
:1008600095010E947B1B7B018C01C401B301288987
:1008700039894A895B890E947B1B9B01AC01C801B5
:10088000B7010E9488190E945B1A4D89460F47FDE7
:1008900080C040330CF07DC05C85523031F5842F30
:1008A000859585958595992787FD90956F85262F48
:1008B000332727FD3095A4E5B0E08A9FF0018B9F98
:1008C000F00D9A9FF00D1124E20FF31FE159FD4F37
:1008D000808190E0242F277002C0959587952A95F6
:1008E000E2F7B1E08B27817018C0EC85E330A1F40A
:1008F000842F992787FD9095FF852F2F332727FD7C
:1009000030958227932721E030E08227932781705A
:100910003B85381721F421C08C858823F1F4E42F1E
:10092000E595E595E59554E5E502F00111246F851F
:10093000862F992787FD9095E80FF91FE159FD4F04
:10094000477081E090E002C0880F991F4A95E2F756
:1009500080952081282320831CC0E42FE595E59510
:10096000E59574E5E702F0011124AF858A2F9927F8
:1009700087FD9095E80FF91FE159FD4F477021E081
:1009800030E002C0220F331F4A95E2F78081822BAC
:100990008083ED85FE853196FE87ED8729853A8532
:1009A0002F5F3F4F3A8729874D855E8568A179A1E2
:1009B000461757070CF4ECCE89819A81AF81B88530
:1009C0008A0F9B1F9A838983ED81FE813196FE8376
:1009D000ED832D813E814FEF2B3F340781F06E8DEB
:1009E0007F8D7A8769871E861D86C901AA2797FD94
:1009F000A095BA2F8A8F9B8FAC8FBD8FD5CFA19634
:100A00000FB6F894DEBF0FBECDBFCF91DF911F911F
:100A10000F91FF90EF90DF90CF90BF90AF909F909D
:100A20008F907F906F905F904F903F902F900895A0
:100A300082E191E068EB72E00E942312EDE9F1E0BF
:100A40001192119282E0E536F807D1F70895AF923E
:100A5000BF92CF92DF92EF92FF920F931F9382E1AA
:100A600091E00E944D0F882309F4D1C08CE191E000
:100A700066E00E942107882311F00E94180500916A
:100A800013011091140110939A0100939901409160
:100A9000650250916602FA01EE0FFF1FE356FE4F0A
:100AA00020919B0130919C01201B310B31832083CD
:100AB00037FF06C088279927821B930B9183808379
:100AC000CA01019664E670E00E94671C909366027A
:100AD0008093650210939C0100939B0180E691E056
:100AE00060E040E026E830E00E94FB090E944B03F2
:100AF00020E030E040E251E40E947B1B7B018C014E
:100B000060936B0270936C0280936D0290936E02FF
:100B100020E030E040EC51E40E94EC1987FD0BC06E
:100B20000F2EFAE9AF2EF9E9BF2EF9E1CF2EF0E44E
:100B3000DF2EF02D0AC0C801B70120E030E040E20E
:100B400051E40E94F3195B016C01E0906702F090A0
:100B500068020091690210916A02C801B701A601FA
:100B600095010E94EC19882341F1C801B701A60143
:100B700095010E94EC1988234CF4C801B7012DECB3
:100B80003CEC4CEC5DE30E94881908C0C801B70139
:100B90002DEC3CEC4CEC5DE30E948719E62F2E2FE8
:100BA000372F482F592FC901DA018093670290939C
:100BB0006802A0936902B0936A0260916702709123
:100BC00068028091690290916A022AE939E949E94B
:100BD0005FE30E9487198B019C018BE26AE348E97D
:100BE00052E00E94700360916702709168028091E8
:100BF000690290916A0223E333E343EF5FE30E94CB
:100C0000771B181624F487E391E00E9438151F9192
:100C10000F91FF90EF90DF90CF90BF90AF9008952D
:100C20000F931F9302E111E0C8010E9428120E9455
:100C30001805C80164E60E94F30D1F910F910895F5
:100C4000882319F48CB5806202C08CB58F7D8CBD71
:100C500008959CB5937F982B9CBD08952CB5382F93
:100C600033702C7F322B3CBD2DB590E09595879548
:100C70009595879581702E7F822B8DBD08958AE092
:100C800061E00E9450178AE061E00E94E4168CB592
:100C900080618CBD8CB580648CBD8DE061E00E946C
:100CA000E4168BE061E00E94E4160895FC0181E007
:100CB0008083089585E070E00E94841608956F9205
:100CC0007F928F929F92AF92BF92CF92DF92EF92DC
:100CD000FF920F931F93CF93DF93EC0189819A8149
:100CE0008C0124E0000F111F2A95E1F7081B190B56
:100CF00085E10E946216BC01600F711F84E0769549
:100D000067958A95E1F77A8369838881882381F1E1
:100D10002E813F816217730710F4B90106C08885E0
:100D200099858617970708F4BC0100D000D080E0B1
:100D300090E040E050E0E884F98400E010E0AD800D
:100D4000BB24CC24DD246C80772488249924EDB73F
:100D5000FEB761827282838294820E943E196B8305
:100D60000F900F900F900F9085E070E00E94841616
:100D7000DF91CF911F910F91FF90EF90DF90CF9077
:100D8000BF90AF909F908F907F906F900895FC01DF
:100D90008CE39FE09383828384E0818381E0848776
:100DA0000895CF93DF93EC018C819D81892BB1F164
:100DB0008C8590E08F719070892B69F584E10E9499
:100DC0006216AA2797FDA095BA2FBC01CD010E94FB
:100DD0008E1A26EE3FE34EEC50E40E947B1B0E94ED
:100DE000601A9B01AC017B836A836115710589F0F0
:100DF00084E08983B901FE0120E084819581681730
:100E0000790710F429830AC02F5F32962430A9F79E
:100E100002C08FEF89838C858F5F8C87DF91CF91A4
:100E20000895FC0188E0808389E0818387E08283E4
:100E300086E0838384E0848382E0858381E1868306
:100E4000089520E0FC01E60FF11D8781813009F44F
:100E500021E0822F08950F931F93CF93DF93EC012E
:100E600010E00FEF888162E00E94E41688810E9402
:100E700083172F81892B19F42F5F2F8307C022231B
:100E800049F02F3F11F41F8201C00F83888160E079
:100E90000E94E4161F5F2196173021F7DF91CF9152
:100EA0001F910F910895FC01742F643508F06FC0F5
:100EB00047FD6DC040330CF06AC080A1823021F53F
:100EC000842F859585958595992787FD9095462F43
:100ED000552747FD509524E530E0829FF001839F20
:100EE000F00D929FF00D1124E40FF51FE159FD4F15
:100EF000808190E0272F277002C0959587952A95CD
:100F0000E2F78095817009C0833039F49485842F8D
:100F10008627892780FF03C01FC08823E9F4E72FB5
:100F2000E595E595E59584E5E802F0011124862F25
:100F3000992787FD9095E80FF91FE159FD4F7770CC
:100F400081E090E002C0880F991F7A95E2F78095C2
:100F50002081282320830895E72FE595E595E595E1
:100F600084E5E802F0011124862F992787FD9095EA
:100F7000E80FF91FE159FD4F777081E090E002C062
:100F8000880F991F7A95E2F72081282B20830895F6
:100F9000FC0160A361A30895FC0160A341A308952F
:100FA000EF92FF920F931F93CF93DF93EC01E62E06
:100FB000F42E022F10E007C0412F4F0DCE016E2DF1
:100FC0000E9453071F5F1017BCF3DF91CF911F9151
:100FD0000F91FF90EF900895EF92FF920F931F9360
:100FE000CF93DF93EC01E62EF42E022F10E007C022
:100FF000612F6E0DCE014F2D0E9453071F5F1017FA
:10100000BCF3DF91CF911F910F91FF90EF90089566
:101010009F92AF92BF92CF92DF92EF92FF920F9387
:101020001F93CF93DF936C01962EB42EA22EC0E0B7
:10103000D0E0E42EFF24E7FCF094112707FD109583
:101040000E0D1F1D06C0C601692D2A2D0E94EC073A
:1010500021964B2D4C0FCE018E0D9F1D80179107B1
:1010600094F3DF91CF911F910F91FF90EF90DF905C
:10107000CF90BF90AF909F9008952F923F925F9234
:101080006F927F928F929F92AF92BF92CF92DF9298
:10109000EF92FF920F931F93DF93CF9300D000D076
:1010A00000D0CDB7DEB79E838D83C62ED42EEE241E
:1010B000E394E21A8EEF289F502C1124842E8A94F8
:1010C000962E9A94A42EA394B62EB394F22E662450
:1010D00023E0722E10E0C801847090709A83898397
:1010E000F801E270F070FC83EB8398E0292E312C3C
:1010F000202231220170107054C0E7FC04C0FA9421
:10110000F2E05F0EE50C639489819A81892B71F07E
:101110004F2D4D0D8D819E816B2D0E9453076F2D9C
:101120006C0D8D819E814A2D0E945307EB81FC81BD
:10113000EF2B71F04D2D4F198D819E816B2D0E94EB
:1011400053076F2D6C0D8D819E81482D0E94530792
:101150002114310471F06C2D6F198D819E814A2DFF
:101160000E9453074F2D4D0D8D819E81692D0E9448
:1011700053070115110571F06C2D6F198D819E813A
:10118000482D0E9453074D2D4F198D819E81692D49
:101190000E945307E70CF2E07F0E8A949A94A3947E
:1011A000B3946F140CF4A9CF26960FB6F894DEBF53
:1011B0000FBECDBFCF91DF911F910F91FF90EF90A8
:1011C000DF90CF90BF90AF909F908F907F906F9067
:1011D0005F903F902F9008954F925F926F927F9211
:1011E0008F929F92AF92BF92CF92DF92EF92FF9237
:1011F0000F931F93CF93DF93EC01A62E742E9E2D99
:10120000FF24F394F21A8EEF289F802C1124B42E21
:10121000BA9453E0C52ECE0CE22EDD2443E0942E8A
:1012200010E031E0432E512C40225122692E63946C
:101230000270107034C0F7FC04C0EA9482E0880E9B
:10124000F80CD3944114510489F06D2D6A0D472D8B
:101250004E192E2D220F260DCE010E94D0076E2D85
:101260006A0DCE014B2D2C2D0E94D00701151105C2
:1012700089F06A2D6D19472D4E192E2D220F260D3E
:10128000CE010E94D0076A2D6E19CE014B2D2C2D58
:101290000E94D007F90C82E0980EBA94C80EDE14B2
:1012A00054F2DF91CF911F910F91FF90EF90DF905B
:1012B000CF90BF90AF909F908F907F906F905F90F6
:1012C0004F9008957F928F929F92AF92BF92CF924C
:1012D000DF92EF92FF920F931F936C01962EA42E34
:1012E000F22E7E2C760E1EEFE19E102D1124812E03
:1012F000820E672D282D0E94EC07B02EBA0CBA94EE
:10130000C601672D4B2D282D0E94EC07AE0C100F47
:10131000C601692D4A2D212F0E94D007F90CFA949D
:10132000C6016F2D4A2D212F0E94D007C601672DBF
:101330004A2D2E2D01E00E943D08FE18C6016F2D9A
:101340004A2D2E2D02E00E943D08BE18C6016F2DC9
:101350004B2D2E2D04E00E943D08C601672D4B2D1C
:101360002E2D08E00E943D081F910F91FF90EF90F5
:10137000DF90CF90BF90AF909F908F907F90089517
:101380008F929F92AF92BF92CF92DF92EF92FF9295
:101390000F931F936C01162FA42E922EF02EBE2CAD
:1013A0008E2C860E2EEFE29EE02C11242E2D290D80
:1013B000682D0E940808AB0CFA94FE0C1150190D10
:1013C0001B19C601612F4A2D2B2D01E0EF2C0E9425
:1013D000EC08C601682D4A2D2B2D02E00E94EC0876
:1013E0001F910F91FF90EF90DF90CF90BF90AF9043
:1013F0009F908F9008952F923F924F925F926F929D
:101400007F928F929F92AF92BF92CF92DF92EF9294
:10141000FF920F931F93DF93CF9300D000D0CDB7EF
:10142000DEB74C01D62E142FF90184913196949198
:101430003197D40190966C90B3E5B6170CF457C170
:10144000482F552747FD5095A62EBB24A7FCB094E6
:101450002A014A0C5B1C141415040CF048C110330B
:101460000CF045C1092F212F332727FD3095892FF7
:10147000992787FD9095820F931F181619060CF077
:1014800036C162E0E62EF12CEE0EFF1ECA01079671
:1014900068E070E00E94671C762E17FF0EC0010FF7
:1014A000862F90E0FC01E29FC001E39F900DF29F28
:1014B000900D1124E81AF90A10E0802F992787FD72
:1014C0009095212F332727FD3095820F931FC197C9
:1014D00014F000E3011BD7FCDD24C2018535910522
:1014E00014F084E590E0C82ED4011C969C909126BF
:1014F000ED2DF0E0CF018A199B09AC0147705070C7
:1015000020E830E002C0359527954A95E2F7B22EE3
:1015100068E070E00E94671CAB014E0D5F1D5C83AC
:101520004B83212F277081E090E0682F01C0660F68
:101530002A95EAF715951595159584E51802A001E9
:1015400011244E0F5F1F41595D4F8824202E3324F4
:1015500027FC3094472C5524C4C0EB81FC81249196
:10156000F1E06F1629F5AB81BC817B2D022F7A014A
:101570001D2D1BC0872F90E0202F30E08223932366
:10158000892B21F0F7018081862B8083872F90E0C3
:1015900095958795782F882321F41196FD01049164
:1015A00070E81F5F0894E11CF11C1C1518F38DC036
:1015B000662059F5F62EF094AB81BC817B2D022F6D
:1015C0005A8349831D2D1EC0872F90E0202F30E0C5
:1015D00082239323892B29F0E981FA8180818F214D
:1015E0008083872F90E095958795782F882321F425
:1015F0001196FD01049170E81F5F89819A8101961F
:101600009A8389831C1500F360C093E0691639F052
:10161000AB81BC817B2D022F7A011D2D54C0A62EDB
:10162000A094AB81BC817B2D022F5A8349831D2D51
:10163000E92CFF2428C0872F90E0202F30E0822360
:101640009323892B79F0812F90E08E259F25E981C6
:10165000FA81908180FF02C0962B03C09A21E98114
:10166000FA819083872F90E095958795782F88232E
:1016700021F41196FD01049170E81F5F89819A8120
:1016800001969A8389831C15B0F291E099261DC0BA
:10169000872F90E0202F30E082239323892B21F0A5
:1016A000F701808186278083872F90E09595879525
:1016B000782F882321F41196FD01049170E81F5FB3
:1016C0000894E11CF11C1C1518F3660F19F44C5A10
:1016D0005F4F61E083948B819C81840D951D9C8379
:1016E0008B83882D90E0821593050CF436CF0F90F4
:1016F0000F900F900F90CF91DF911F910F91FF905E
:10170000EF90DF90CF90BF90AF909F908F907F90A1
:101710006F905F904F903F902F900895DC01FB01F8
:1017200084918F5F14968C931497319684918F5F78
:1017300015968C93159731965F96FC93EE935E9772
:1017400008953F924F925F926F927F928F929F92F5
:10175000AF92BF92CF92DF92EF92FF920F931F93BF
:10176000CF93DF93EC01862EA42E422F102F38A0AA
:1017700023E526170CF4ABC03FE23A150CF4A7C0E2
:10178000C02EDD248C8190E001979C01C29EC00197
:10179000C39E900DD29E900D1124262F332727FD36
:1017A0003095820F931F181619060CF090C08D818A
:1017B00090E09C01C29EC001C39E900DD29E900DF0
:1017C00011242A2D332727FD3095820F931F1816D9
:1017D00019060CF07CC09924442E55246DC09C0140
:1017E000215030404217530711F460E00EC0429E72
:1017F000C001439E900D529E900D1124840F951FA1
:10180000EE8DFF8DE80FF91F64914C9DC0014D9D39
:10181000900D5C9D900D1124682C680EBB24792CD2
:10182000780C3FC0E62EFF2460FF19C0113039F458
:101830004B2D4A0DCE01672D0E9453072EC02C9DC3
:10184000C0012D9D900D3C9D900D11244A2D480FF7
:10185000CE01662D212F012F0E9408081EC099A1DC
:1018600088A19817D1F098A3113039F44B2D4A0D67
:10187000CE01672D0E9453070FC02C9DC0012D9DE6
:10188000900D3C9D900D11244A2D480FCE01662DE0
:10189000212F012F0E94080838A2F594E7946E2D9D
:1018A000B3942B2D332727FD30958D8190E0281799
:1018B00039070CF4B7CF9394492D552747FD509520
:1018C0008C8190E0481759070CF489CF38A2DF913A
:1018D000CF911F910F91FF90EF90DF90CF90BF902D
:1018E000AF909F908F907F906F905F904F903F90C0
:1018F00008950F93CF93DF93EC01262F6A3049F4BC
:101900008D819885899F802D11249A85980F9A87BB
:1019100026C06D3029F169854A8508850E94A10B92
:101920009C816885969F402D11248985480F4987A1
:101930008F818823A9F0552747FD5095699F900115
:10194000112484E590E0821B930B8417950744F4DF
:101950009D81699F902D11248A85890F8A87198618
:1019600081E090E0DF91CF910F9108951F93CF9385
:10197000DF93EC01162FF8948F8560E00E945017DA
:10198000888918161CF460E00E9450171EBD0DB423
:1019900007FEFDCF8EB5888918161CF461E00E9401
:1019A00050177894DF91CF911F910895FF920F9374
:1019B0001F93CF93DF93EC018C858F5F8C87FF247F
:1019C00000E010E06F2D6064CE010E94B60CCE01E5
:1019D00060E80E94B60C8F8561E00E9450178889EC
:1019E00018161CF460E00E945017F801E159FD4FF1
:1019F00090E080818EBD0DB407FEFDCF8EB59F5F58
:101A000031969435B1F7888918161CF461E00E946C
:101A10005017F3940C5A1F4F86E0F81699F6CE0132
:101A200060E40E94B60CDF91CF911F910F91FF905F
:101A30000895CF93DF93DC0188EF91E0EFE6F2E0C9
:101A4000EF019C01199221503040E1F719961C9248
:101A500019971A961C92DF91CF910895EF920F93E8
:101A6000CF93DF93EC014E876D872F87E98A088B30
:101A700081E0888788A319A28F83CE0167EC72E08A
:101A80000E948E0B0E943F0681E00E94200685E0A6
:101A90000E942E068CE00E9429068E8561E00E943D
:101AA000E4168D8561E00E94E4168F8561E00E9456
:101AB000E416898918161CF461E00E94E4168889EE
:101AC00018161CF461E00E94E416898918166CF45B
:101AD00060E00E9450176AE070E080E090E00E94B1
:101AE0000116898961E00E945017ED852E2F33275A
:101AF00027FD3095F901ED5FF94FE491F0E0EE0F2D
:101B0000FF1FE151FA4F859194919D8B8C8B295E3B
:101B1000394FF90184918B8FEE852E2F332727FDC6
:101B20003095F901ED5FF94FE491F0E0EE0FFF1F02
:101B3000E151FA4F859194919B8B8A8B295E394FA5
:101B4000F90184918A8FE8892E2F332727FD30955C
:101B5000F901ED5FF94FE491F0E0EE0FFF1FE15165
:101B6000FA4F859194919F8B8E8B295E394FF901A5
:101B700084918C8FEF852E2F332727FD3095F90127
:101B8000ED5FF94FE491F0E0EE0FFF1FE151FA4FE6
:101B900085919491998F888F295E394FF9018491AD
:101BA0008D8FCE0161E20E94B60CCE0164E10E94ED
:101BB000B60C8B8587FF02C08FE78B876B856068CB
:101BC000CE010E94B60CCE0160E20E94B60CCE019E
:101BD0006CE00E94B60CCE010E94D60CDF91CF9132
:101BE0000F91EF900895FC01262FE158FF4F88EEEA
:101BF00093E070E00E94671C6083EF57F040822FF3
:101C000064E10E94471C882309F481E081A70895BC
:101C1000CF93DF93DC01E0E8F7E785919491ED0144
:101C2000C75ADF4FAD0140595F4F8150904C09F0CA
:101C30004EC0E6E9F7E7E491E883E7E9F7E7E491E6
:101C40001496EC931497E8E9F7E7E4911596EC9372
:101C50001597E9E9F7E78591949117969C938E93F0
:101C60001697EBE9F7E78591949119969C938E93DB
:101C70001897EDE9F7E7E4919B96EC939B97EEE9D3
:101C8000F7E7E4919A96EC939A97EFE9F7E7E491F6
:101C9000EA01E883E0EAF7E7859194915D969C93E9
:101CA0008E935C97E2EAF7E7859194915F969C9317
:101CB0008E935E97E4EAF7E78591949191969C93D1
:101CC0008E939097E6EAF7E78591949132C08CE382
:101CD000888314961C9214972FEF15962C931597C2
:101CE00080E293E017969C938E93169784ED93E091
:101CF00019969C938E93189781E09B968C939B9753
:101D00009A968C939A97FA0120838CEA9DE05D96CF
:101D10009C938E935C978EED9DE05F969C938E9343
:101D20005E9784E79EE091969C938E9390978CE3C8
:101D30009FE093969C938E939297DF91CF91089515
:101D4000EF92FF920F931F93CF93DF937C018C014F
:101D5000025B1F4FC8010E94190DC8016EE674E0B6
:101D60000E94EC17C8010E94D60C83E00E942E0648
:101D700080E091E0EEEFFFE3099584E590E0E80E66
:101D8000F91EF7011082C80169E474E00E94371857
:101D9000C8010E94D60CE701CA54D040CE010E946F
:101DA0002B07CE0164E00E942107882339F462E307
:101DB00070E080E090E00E940116F0CFDF91CF91BB
:101DC0001F910F91FF90EF900895AF92BF92CF9225
:101DD000DF92EF92FF920F931F93CF93DF93EC016B
:101DE000CA57DF4F8881C658D040882309F44AC0BB
:101DF0008C3010F010E002C01CE0181BCA5ADF4FF4
:101E000081E08883C655D0406EE4C62ED12CCC0E1E
:101E1000DD1EC60160E00E94C80753E5A52EB12C67
:101E2000AC0EBD1EF50100814DE2F42E4F2D401B7E
:101E3000410F0D5FC60160E024E533E0E32E0E9410
:101E4000C009C60161E00E94C807F5010081F01ACF
:101E5000F10E0D5FC60160E04F2D24E50E9462097E
:101E6000C95ADF4F84E08993F5018081181B115D09
:101E70001883AC9669917991C6010E94EC1788810C
:101E800081508883DF91CF911F910F91FF90EF9048
:101E9000DF90CF90BF90AF900895AF92BF92CF9256
:101EA000DF92EF92FF920F931F93CF93DF93EC019A
:101EB000E0E8AE2EB12CA80EB91EF501E080F1804D
:101EC000028113810E94CD15E61AF70A080B190B3F
:101ED0007FE7C72ED12CCC0EDD1EF601808190E06D
:101EE000A0E0B0E08E159F05A007B10708F081C003
:101EF0008E0105581F4FF80180819181A281B38125
:101F00000097A105B10509F474C00E94CD15F60132
:101F10002081620F711D811D911DF5016083718308
:101F200082839383FE01EF58FF4F80819181A281CC
:101F3000B3810196A11DB11D80839183A283B383D8
:101F4000F80110821182128213820E94DB15C95897
:101F5000DF4F688379838A839B83C757D040CE0144
:101F60000E945F06CE010A960E942B07CE0148967A
:101F70000E94D10681E032C08E010B5D1F4FC80167
:101F80000E947B13C8010E94F213C8010E94D5145D
:101F9000CE010E94E50ECE010E9406108E01025B6A
:101FA0001F4FC8010E94D60CCC5ADF4F8881C45500
:101FB000D040882319F4C8010E94190D0E94DB1536
:101FC000C558DF4F688379838A839B832497288150
:101FD0003981621B730B7A936A9380E0DF91CF9112
:101FE0001F910F91FF90EF90DF90CF90BF90AF9037
:101FF0000895C558DF4F88819981AA81BB81CB574D
:10200000D0400097A105B10541F7B6CFBF92CF925E
:10201000DF92EF92FF920F931F93CF93DF93EC0128
:102020008C8D9D8D892B09F4A1C08E01025B1F4F01
:10203000C80161E040E00E94CC07FE01E95AFF4F71
:10204000CE5ADF4F85E59881891B808326961882BA
:10205000C855D040698D613009F469C0613028F0FD
:10206000888D653008F07CC076C0CE0185960E94D0
:102070002D13CA5ADF4F81E08883C655D040C8016E
:1020800067EC72E00E948E0B1D8E1C8ECC5ADF4FC7
:102090001882C455D040AAE0CA2ED12CCC0EDD1E29
:1020A000BC2EED2EF8EAFF2ECE010E944D0F8823A4
:1020B000D9F3C80166EB74E00E94EC176A8D7B8D42
:1020C000C8014AE050E00E94DA18C80161EA74E0F1
:1020D0000E94EC176F2D62956F70C80170E04AE0A6
:1020E00050E00E942B19C80166E974E00E94EC17C9
:1020F000C60164E00E9421078823C1F5FA94A1F685
:102100008B2D9E2D60E00E945A0683B7817F8460EC
:1021100083BF83B7816083BF83B7816083BF8895A6
:1021200083B78E7F83BF83B78E7F83BFBDCFCF58EA
:10213000DF4F88819981AA81BB818F709070A070D8
:10214000B0700897A105B10518F4C80167E00CC08C
:10215000C80168E709C0882349F06B5FC80104C063
:10216000882321F0C8016FE20E940F18DF91CF9100
:102170001F910F91FF90EF90DF90CF90BF90089547
:102180002F923F924F925F926F927F928F929F9287
:10219000AF92BF92CF92DF92EF92FF920F931F9375
:1021A000DF93CF93CDB7DEB72B970FB6F894DEBF92
:1021B0000FBECDBF9B878A877A8369835C834B83FD
:1021C0008C0100591F4FF8018081882309F422C136
:1021D0008A859B858A5A9F4F9B878A8781E0EA85FB
:1021E000FB85808312921292E455F040FB87EA87C8
:1021F000108E4EE4E42EF12CEE0EFF1EC70161E0BE
:102200000E94C8073AE0232E312C8A859B85280E30
:10221000391E25E2622E712C680E791EE981FA8141
:10222000F491FD83B7E58B2E912C880E991EA8E5BD
:10223000CA2ED12CC80ED91EF2E54F2E512C480EB5
:10224000591E8D5A9F4F9F838E83E1E7AE2EB12C8E
:102250008A859B85A80EB91E198708878A859B8564
:102260000E944D0F8823D1F39D81992311F410E032
:1022700003C0EE81FF811081C70160E040E024EFE0
:1022800034E00E94FB098B819C81892B41F0145F13
:10229000C70160E0412F2B813C810E94FB09F401C2
:1022A00010828CE0F6018083C70169817A810E94E7
:1022B000EC17F201208130E0C901880F991F820FCD
:1022C000931F909581959F4F8D5AF4018083EE81E5
:1022D000FF81208130E0C901880F991F820F931F71
:1022E000909581959F4F835DF6018083F5018081F4
:1022F00084FF04C0C70164E775E003C0C70160E75D
:1023000075E00E943718F201208130E0C901880F82
:10231000991F820F931F909581959F4F8D5AF401BD
:102320008083F60180818F5F8083EA85FB8582A5AB
:10233000882321F0C7016CE675E003C0C70168E699
:1023400075E00E943718F201808190E09C01220F15
:10235000331F280F391F309521953F4F2D5AF40117
:102360002083F60180818F5F8083C70164E675E07A
:102370000E943718C10165E00E942107882351F0AF
:10238000EA85FB8562A56F5FC3010E943E15C3010C
:102390000E943815C10164E00E942107882399F446
:1023A000E885F9856081262F30E040E050E0F501B6
:1023B00080819181A281B38182179307A407B50719
:1023C00008F16F3FF9F08A859B8580599F4F9B8765
:1023D0008A878FEFEA85FB858083E057F040FB8793
:1023E000EA87C30160E00E942213C3010E943215F4
:1023F00081E0EA85FB85808F0DC08A859B850E94E0
:10240000A00E2CCFC10166E00E942107882309F4A9
:1024100025CFF3CF2B960FB6F894DEBF0FBECDBFFE
:10242000CF91DF911F910F91FF90EF90DF90CF90B0
:10243000BF90AF909F908F907F906F905F904F90E4
:102440003F902F90089540E050E00E94C010089502
:10245000AF92BF92CF92DF92EF920F93CF93DF9321
:102460006C018FE790E0C80ED91E82E3F6018083ED
:1024700081E090E0A0E0B0E0B293A29392938293C7
:102480006F0185EF9FEFC80ED91E8FEFF601808395
:1024900080E99FEFC80ED91EC6010E94080EC60132
:1024A0000E945606C6016FEF0E945A066AE0A62EE9
:1024B000B12CAC0CBD1CC5010E941107C5010E94C6
:1024C0002B07C60148960E94C706C601825B9F4F34
:1024D0006DE04BE020E10FE05EE0E52E0E942E0D66
:1024E000E601A596CE010E944B15C50165E00E944C
:1024F0002107882329F0CE0160E00E943E1506C026
:10250000CE016AE775E040E00E943113DF91CF9180
:102510000F91EF90DF90CF90BF90AF9008950F9301
:10252000DC01002309F069C0623009F443C0633064
:1025300030F4662359F0613009F05FC00DC063309C
:1025400009F444C0643009F058C04CC04B3008F066
:102550004AE056964C9351C0842F90E0880F991F03
:102560001F962D913C915097280F391FF9018591A5
:10257000949190969C938E935F97FC014591549112
:1025800014968C911497849F602D112491966C93CE
:102590009197252F3327862F90E02817390708F4C5
:1025A000652F14968C911497689F802D1124929614
:1025B0008C9323C014968C911497489F802D1124DE
:1025C00059968C9359975A962C9317C014968C91C0
:1025D0001497489F802D11245B968C935B975C9693
:1025E0002C930BC014968C911497489F802D112426
:1025F0005D968C935D975E962C930F910895FC01E8
:10260000222371F4648B8481489F802D1124858B53
:1026100015A214A213A281E0878B80937004108E00
:102620000895FC01662369F4178A158A14A213A27F
:10263000108E109273041092720410927004109213
:10264000B4000895CF93DF93EC01662319F40E9440
:1026500011131982DF91CF91089560E00E94221337
:1026600008950F931F93CF93DF93EC018B014423C5
:1026700071F460E00E9422131E870D871B8A1A8A5C
:1026800081E0898389E08E8B198E1B8E1D8EDF91F0
:10269000CF911F910F910895CF93DF93EC016623A3
:1026A00039F58881882321F18981882309F5898575
:1026B00090E0880F991FEF81F885E80FF91F859149
:1026C00094912FEF8F3F920711F4188211C09C87CD
:1026D00090E0880F991FEA85FB85E80FF91F659147
:1026E0007491CE0140E00E94311389858F5F898704
:1026F000DF91CF91089560E00E944C1308950F93ED
:10270000CF93DF93EC01662309F068C089818823A9
:1027100009F464C08D89882309F060C0EA89FB89C7
:10272000EE0FFF1F4D855E85E40FF51F2591349157
:102730002115310509F040C08989813031F41B8AA7
:102740001A8AFA012591349137C019828881882329
:1027500079F0CE0160E00E944C138A899B89880F32
:10276000991FED85FE85E80FF91F2591349124C04E
:10277000CE0160E00E94111331C0E6E03695279546
:10278000EA95E1F76F70422F4F7175E03695279506
:102790007A95E1F72051CE0100E00E948F128A89DC
:1027A0009B8901969B8B8A8B880F991FED85FE85EF
:1027B000E80FF91F25913491B901769567957695C3
:1027C000679520FDDACF6F73432FCE0120E00E9482
:1027D000FF128A899B8901969B8B8A8BDF91CF910F
:1027E0000F91089560E00E947F130895CF93DF93C7
:1027F000EC01662309F0D6C08F89882309F4D2C082
:102800008D89882321F4CE010E941113CBC0815001
:102810008D8B8DA1882309F03BC08BA19CA10196D3
:10282000880F991FEF8DF8A1E80FF91F85919491FA
:10283000282F27702EA3AC0163E0569547956A9523
:10284000E1F79A0136952795892F992786958695E0
:102850008FA32F738C81289F202D11242DA34170CD
:10286000409374048BA19CA101969CA38BA329A1E6
:1028700030E08217930760F08AA1882329F0281B93
:1028800031093CA32BA304C0CE0160E00E941113C8
:102890008DA181508DA3988D9F5F988F2FA18C89DA
:1028A000280F8C85280F2A836B8D662369F0892F6A
:1028B000992787FD909570E00E94671C8C8D869FFC
:1028C000802D1124820F8A838A8190E0CB966BE35E
:1028D00070E00E94671C8A832E892B83698D662392
:1028E00079F0888D772767FD7095992787FD9095FA
:1028F0000E94671C8A8D869F802D1124820F8B83F6
:102900006D8D662399F0888D992787FD909570E0ED
:102910000E94671CCB0162E070E00E94671C9E8DE4
:10292000899F802D11249B81890F8B838B818A3015
:102930000CF089E087FD80E08B838C898F3309F46C
:102940001B82F894EA81F0E0E256FA4FE491E093BA
:1029500071042D8130E08B81992787FD9095A90125
:10296000489F9001499F300D589F300D112488A534
:1029700090E0A901489F9001499F300D589F300D6C
:1029800011248EA1992787FD9095AC01249FC00149
:10299000259F900D349F900D112480937204809395
:1029A00073047894DF91CF91089560E00E94F6134C
:1029B000089560917204662381F180916F048F5FA6
:1029C00080936F0490917104891738F130E0809101
:1029D0007004882309F431E03093700410926F047E
:1029E000809174048823A9F08091070123E4829FD9
:1029F000C0011124895B8093070190E070E00E9480
:102A0000531C8093730405C0809173048093B400B9
:102A100008953323C9F780E0F9CF08951F920F92EC
:102A20000FB60F9211242F933F934F935F936F93A1
:102A30007F938F939F93AF93BF93EF93FF930E94E6
:102A4000D914FF91EF91BF91AF919F918F917F9199
:102A50006F915F914F913F912F910F900FBE0F900B
:102A60001F90189566E975E040E00E9431130895C3
:102A700068E875E040E00E9431130895FC01862F5C
:102A8000668170E06F5F7F4F992787FD90950E9468
:102A9000671C858308950F93FC0181E0848384E0A3
:102AA00080A789ED95E0908B8787CF0161E040E0BA
:102AB00020E000E00E948F1283E061E070E00E945D
:102AC0008416E1EBF0E08081887F81608083F89458
:102AD00010928000E1E8F0E01082109285001092E0
:102AE000840088E191E09093890080938800808140
:102AF00088608083808181608083EFE6F0E0808160
:102B00008260808378940F9108951F920F920FB680
:102B10000F9211242F933F938F939F93AF93BF9363
:102B20008091790490917A04A0917B04B0917C0407
:102B300030917D040196A11DB11D232F2D5F2D37EE
:102B400020F02D570196A11DB11D20937D04809387
:102B5000790490937A04A0937B04B0937C048091D1
:102B6000750490917604A0917704B0917804019651
:102B7000A11DB11D8093750490937604A0937704F2
:102B8000B0937804BF91AF919F918F913F912F9116
:102B90000F900FBE0F901F9018958FB7F89420914B
:102BA000790430917A0440917B0450917C048FBF6A
:102BB000B901CA0108959FB7F89420917504309126
:102BC0007604409177045091780486B5A89B06C09E
:102BD0008F3F21F02F5F3F4F4F4F5F4F9FBF542FCD
:102BE000432F322F2227280F311D411D511D82E016
:102BF000220F331F441F551F8A95D1F7B901CA010F
:102C00000895EF92FF920F931F93CF93DF937B0171
:102C10008C010E94DB15EB010EC00E94DB156C1BC2
:102C20007D0B685E7340C8F30894E108F108010960
:102C30001109C851DC4FE114F1040105110569F7D0
:102C4000DF91CF911F910F91FF90EF9008957894AD
:102C500084B5826084BD84B5816084BD85B58260A1
:102C600085BD85B5816085BDEEE6F0E0808181603F
:102C70008083E1E8F0E0108280818260808380813F
:102C800081608083E0E8F0E0808181608083E1EB17
:102C9000F0E0808184608083E0EBF0E080818160FF
:102CA0008083EAE7F0E080818460808380818260B5
:102CB000808380818160808380818068808310929E
:102CC000C1000895982F8E3008F09E509770809123
:102CD00008018295880F880F807C892B80937C0067
:102CE00080917A00806480937A0080917A0086FDDA
:102CF000FCCF2091780040917900942F80E030E063
:102D0000282B392BC90108951F93CF93DF93182FD8
:102D1000EB0161E00E94E416209709F44AC0CF3F1E
:102D2000D10509F449C0E12FF0E0E55DF94F849148
:102D30008330C1F0843028F4813051F08230B1F515
:102D40000CC0863019F1873049F1843079F514C010
:102D500084B5806884BDC7BD33C084B5806284BD3E
:102D6000C8BD2EC080918000806880938000D09381
:102D70008900C093880024C0809180008062809385
:102D80008000D0938B00C0938A001AC08091B0005D
:102D900080688093B000C093B30012C08091B000EF
:102DA00080628093B000C093B4000AC0C038D105DF
:102DB0001CF4812F60E002C0812F61E00E94501757
:102DC000DF91CF911F910895CF93DF93482F50E06B
:102DD000CA01895E994FFC0134914D5F594FFA0148
:102DE0008491882369F190E0880F991FFC01EB51D1
:102DF000FA4FA591B491FC01E151FA4FC591D491DC
:102E0000662351F42FB7F8948C91932F90958923D2
:102E10008C93888189230BC0623061F42FB7F894BA
:102E20008C91932F909589238C938881832B888311
:102E30002FBF06C09FB7F8948C91832B8C939FBFB4
:102E4000DF91CF910895833071F0843028F4813080
:102E5000A1F0823021F514C08630B1F08730D1F076
:102E60008430E9F404C0809180008F7703C08091A2
:102E700080008F7D80938000089584B58F7702C095
:102E800084B58F7D84BD08958091B0008F77809345
:102E9000B00008958091B0008F7D8093B0000895B8
:102EA000FF920F931F93F62E482F50E0CA01855DC5
:102EB000994FFC012491CA01895E994FFC0114913C
:102EC0004D5F594FFA0104910023C9F0222319F0F4
:102ED000822F0E942317E02FF0E0EE0FFF1FE15139
:102EE000FA4FA591B4919FB7F894FF2021F48C91EB
:102EF0001095812302C08C91812B8C939FBF1F91D1
:102F00000F91FF9008950F931F93482F50E0CA012F
:102F1000855D994FFC012491CA01895E994FFC019E
:102F200004914D5F594FFA011491112319F420E0D7
:102F300030E015C0222319F0822F0E942317812F21
:102F400090E0880F991F87509A4FFC01A591B4918A
:102F50008C9120E030E0802311F021E030E0C901C5
:102F60001F910F910895CF93DF930E9427160E941F
:102F70001006C0E0D0E00E9427052097E1F30E94F0
:102F80000000F9CFCF92DF92EF92FF920F931F9341
:102F9000CF93DF937C016B018A01C0E0D0E00FC0CA
:102FA000D6016D916D01D701ED91FC910190F081F9
:102FB000E02DC7010995C80FD91F01501040011518
:102FC000110571F7CE01DF91CF911F910F91FF9005
:102FD000EF90DF90CF900895EF92FF920F931F93A1
:102FE000CF93DF937C018B01C0E0D0E0F8010F5F4D
:102FF0001F4F6491662359F0D701ED91FC91019028
:10300000F081E02DC7010995C80FD91FEFCFCE0180
:10301000DF91CF911F910F91FF90EF900895DC0108
:10302000ED91FC910190F081E02D09950895EF92CA
:10303000FF920F931F938C01DC01ED91FC910190A5
:10304000F081E02D6DE009957C01D801ED91FC91B6
:103050000190F081E02DC8016AE009959C012E0DD8
:103060003F1DC9011F910F91FF90EF900895EF92BE
:10307000FF920F931F937C010E94EC178C01C701F4
:103080000E9417189C01200F311FC9011F910F9139
:10309000FF90EF900895CF93DF93EC0161157105D8
:1030A00019F420E030E00FC0DB010D900020E9F7BB
:1030B0001197A61BB70BE881F9810280F381E02DFF
:1030C000AD0109959C01C901DF91CF9108954F92FF
:1030D0005F927F928F929F92AF92BF92CF92DF9238
:1030E000EF92FF920F931F93DF93CF93CDB7DEB78D
:1030F000A1970FB6F894DEBF0FBECDBF2C01742E82
:10310000CB01223008F42AE019A231E2C32ED12CDF
:10311000CC0EDD1E822E9924AA24BB24672D752F88
:10312000A50194010E947A1C79018A01C801B701A6
:10313000A50194010E94281C472D461B0894C10834
:10314000D1084A3014F4405D01C0495CF601408367
:10315000E114F1040105110521F07E2C5F2DC80159
:10316000DDCFC201B6010E944B18A1960FB6F894AC
:10317000DEBF0FBECDBFCF91DF911F910F91FF90AA
:10318000EF90DF90CF90BF90AF909F908F907F9007
:103190005F904F900895DC012115310541F4ED91C8
:1031A000FC910190F081E02D642F099508950E9413
:1031B00067180895EF92FF920F931F939A017B0176
:1031C00000E010E0B801A7010E94CB181F910F91F9
:1031D000FF90EF900895CF92DF92EF92FF920F93BE
:1031E0001F93CF93DF93EC016A017B012115310519
:1031F00041F4E881F9810190F081E02D642F099577
:103200001FC02A303105D1F477FF17C0E881F9815A
:103210000190F081E02D6DE209958C01442755273E
:10322000BA014C195D096E097F09CE012AE00E949E
:1032300067189801280F391F04C02AE00E946718F8
:103240009C01C901DF91CF911F910F91FF90EF90E9
:10325000DF90CF900895EF92FF920F931F937B0121
:103260009A010027F7FC0095102FB801A7010E94D2
:10327000EB181F910F91FF90EF9008952F923F92BE
:103280004F925F926F927F928F929F92AF92BF9276
:10329000CF92DF92EF92FF920F931F93DF93CF9322
:1032A000CDB7DEB73B014C0119012A016D897E893A
:1032B0008F89988D6A197B098C099D09621A730A96
:1032C000840A950AA40193010E94281CE218F308BD
:1032D00004091509A80197010E949C1C2A0D3B1D99
:1032E0004C1D5D1DB901CA01CF91DF911F910F9156
:1032F000FF90EF90DF90CF90BF90AF909F908F9016
:103300007F906F905F904F903F902F90089550580E
:10331000BB27AA270ED0A0C169D130F06ED120F012
:1033200031F49F3F11F41EF45EC10EF4E095E7FB0B
:1033300054C1E92FB3D180F3BA176207730784072A
:10334000950718F071F49EF5CBC10EF4E0950B2EA5
:10335000BA2FA02D0B01B90190010C01CA01A001E7
:103360001124FF27591B99F0593F50F4503E68F142
:103370001A16F040A22F232F342F4427585FF3CF83
:10338000469537952795A795F0405395C9F77EF454
:103390001F16BA0B620B730B840BBAF09150A1F09D
:1033A000FF0FBB1F661F771F881FC2F70EC0BA0F23
:1033B000621F731F841F48F4879577956795B795AB
:1033C000F7959E3F08F0B3CF9395880F08F09927A3
:1033D000EE0F979587950895DCD008F481E0089565
:1033E00014D1E3954AC10CD037C107D140F0FED0CB
:1033F00030F021F45F3F19F0F0C0511172C1F3C0F9
:103400004DD198F39923C9F35523B1F3951B550B6F
:10341000BB27AA2762177307840738F09F5F5F4FA7
:10342000220F331F441FAA1FA9F333D00E2E3AF0E8
:10343000E0E830D091505040E695001CCAF729D002
:10344000FE2F27D0660F771F881FBB1F2617370751
:103450004807AB07B0E809F0BB0B802DBF01FF2781
:1034600093585F4F2AF09E3F510568F0B6C039C1AE
:103470005F3FECF3983EDCF3869577956795B795BB
:10348000F7959F5FC9F7880F911D9695879597F9D6
:103490000895E1E0660F771F881FBB1F621773074F
:1034A0008407BA0720F0621B730B840BBA0BEE1F64
:1034B00088F7E095089504D06894B11112C1089579
:1034C000F5D088F09F5790F0B92F9927B751A0F009
:1034D000D1F0660F771F881F991F1AF0BA95C9F7A8
:1034E00012C0B13081F0FCD0B1E00895F9C0672F6F
:1034F000782F8827B85F39F0B93FCCF38695779558
:103500006795B395D9F73EF4909580957095619540
:103510007F4F8F4F9F4F0895E89409C097FB3EF46B
:1035200090958095709561957F4F8F4F9F4F992310
:10353000A9F0F92F96E9BB279395F695879577958E
:103540006795B795F111F8CFFAF4BB0F11F460FF4E
:103550001BC06F5F7F4F8F4F9F4F16C0882311F0A6
:1035600096E911C0772321F09EE8872F762F05C0BA
:10357000662371F096E8862F70E060E02AF09A9555
:10358000660F771F881FDAF7880F9695879597F94A
:103590000895990F0008550FAA0BE0E8FEEF1616E4
:1035A0001706E807F907C0F012161306E407F50737
:1035B00098F0621B730B840B950B39F40A2661F0AB
:1035C000232B242B252B21F408950A2609F4A1404E
:1035D000A6958FEF811D811D089597F99F6780E85B
:1035E00070E060E008959FEF80EC089500240A9455
:1035F0001616170618060906089500240A941216CE
:103600001306140605060895EECF50D0E8F3E894AB
:10361000E0E0BB279F57F0F02AED3FE049EC06C001
:10362000EE0FBB0F661F771F881F28F0B23A6207A4
:103630007307840728F0B25A620B730B840BE3956F
:103640009A9572F7803830F49A95BB0F661F771FF2
:10365000881FD2F79048BAC0092E0394000C11F4C9
:10366000882352F0BB0F40F4BF2B11F460FF04C05D
:103670006F5F7F4F8F4F9F4F0895EF93E0FF06C01E
:10368000A2EA2AED3FE049EC5FEB53DEE5DF0F9065
:10369000039401FC9058E8E6F0E0A4C057FD905870
:1036A000440F551F59F05F3F71F04795880F97FB06
:1036B000991F61F09F3F79F08795089512161306C0
:1036C0001406551FF2CF4695F1DF08C016161706EF
:1036D0001806991FF1CF8695710561050894089524
:1036E000E894BB2766277727CB0197F9089551DF28
:1036F00008F48FEF08950BD0AFCF78DF28F07DDF8F
:1037000018F0952309F069CF6ECF1124EACFC6DFF8
:10371000A0F3959FD1F3950F50E0551F629FF001E4
:10372000729FBB27F00DB11D639FAA27F00DB11D3D
:10373000AA1F649F6627B00DA11D661F829F2227C6
:10374000B00DA11D621F739FB00DA11D621F839F4D
:10375000A00D611D221F749F3327A00D611D231F23
:10376000849F600D211D822F762F6A2F11249F5771
:1037700050408AF0E1F088234AF0EE0FFF1FBB1F94
:10378000661F771F881F91505040A9F79E3F510533
:1037900070F023CFA6CF5F3FECF3983EDCF3869525
:1037A00077956795B795F795E7959F5FC1F7FE2BDE
:1037B000880F911D9695879597F908959F9325DF1A
:1037C0000F9007FCEE5F59CF9F3F31F0915020F4EE
:1037D000879577956795B795880F911D96958795ED
:1037E00097F908959F938F937F936F93FF93EF9330
:1037F0009B01AC0180DFEF91FF9105D02F913F91AC
:103800004F915F9178CFDF93CF931F930F93FF92E8
:10381000EF92DF927B018C01689405C0DA2EEF01F4
:1038200076DFFE01E894A59125913591459155915A
:10383000AEF3EF017EDDFE019701A801DA9479F77E
:10384000DF90EF90FF900F911F91CF91DF9108953E
:10385000629FD001739FF001829FE00DF11D649F74
:10386000E00DF11D929FF00D839FF00D749FF00D00
:10387000659FF00D9927729FB00DE11DF91F639FA1
:10388000B00DE11DF91FBD01CF0111240895991B51
:1038900079E004C0991F961708F0961B881F7A9547
:1038A000C9F780950895AA1BBB1B51E107C0AA1F49
:1038B000BB1FA617B70710F0A61BB70B881F991FD1
:1038C0005A95A9F780959095BC01CD01089597FB75
:1038D000092E07260AD077FD04D0E5DF06D00020A8
:1038E0001AF4709561957F4F0895F6F7909581953C
:1038F0009F4F0895A1E21A2EAA1BBB1BFD010DC00C
:10390000AA1FBB1FEE1FFF1FA217B307E407F5078F
:1039100020F0A21BB30BE40BF50B661F771F881F6B
:10392000991F1A9469F760957095809590959B0101
:10393000AC01BD01CF01089597FB092E05260ED0DD
:1039400057FD04D0D7DF0AD0001C38F450954095BD
:10395000309521953F4F4F4F5F4F0895F6F7909563
:103960008095709561957F4F8F4F9F4F0895EE0F13
:0E397000FF1F0590F491E02D0994F894FFCF0D
:10397E004C4F4144455200010100000000790CC239
:02398E00170020
:00000001FF
