:100000000C940C0A0C94340A0C94340A0C94340AA0
:100010000C94340A0C94340A0C94340A0C94340A68
:100020000C94340A0C94340A0C94340A0C94370C53
:100030000C94340A0C94340A0C94340A0C94340A48
:100040000C94E20B0C94340A0C94340A0C94340A89
:100050000C94340A0C94340A0C94340A0C94340A28
:100060000C94340A0C94340AAA1DAD1DB01DB31DA6
:10007000B61DB91DBC1DBF1DC21DC51DC81DCB1D94
:10008000CE1DD11DD41DD71DDA1DDD1DE01DE31DC4
:10009000E61DE91DEC1DEF1DF21DF51DF81DFB1DF4
:1000A000FE1D011E041E071E0A1E0D1E101E131E1D
:1000B000161E191E1C1E1F1E221E251E281E2B1E4C
:1000C0002E1E311E341E371E3A1E3D1E401E431E7C
:1000D000461E491E4C1E4F1E521E551E581E5B1EAC
:1000E0005E1E611E641E671E6A1E6D1E701E731EDC
:1000F000761E791E7C1E7F1E941E971E9A1E9D1EC4
:10010000A01EA31EA61EA91EAC1EAF1EB21EB51EAB
:10011000B81EBB1EBE1EC11EC41EC71ECA1ECD1EDB
:10012000D01ED31ED61ED91EDC1EDF1EE21EE51E0B
:10013000E81EEB1EEE1EF11EF41EF71EFA1EFD1E3B
:10014000001F031F061F091F0C1F0F1F121F151F63
:10015000181F1B1F1E1F211F241F271F2A1F2D1F93
:10016000301F331F361F391F3C1F3F1F421F451FC3
:10017000481F4B1F4E1F511F541F571F5A1F5D1FF3
:10018000601F631F661F691F7E1F811F841F871FDB
:100190008A1F8D1F901F931F961F991F9C1F9F1FC3
:1001A000A21FA51FA81FAB1FAE1FB11FB41FB71FF3
:1001B000BA1FBD1FC01FC31FC61FC91FCC1FCF1F23
:1001C000D21FD51FD81FDB1FDE1FE11FE41FE71F53
:1001D000EA1FED1FF01FF31FF61FF91FFC1FFF1F83
:1001E0000220052008200B200E20112014201720AB
:1001F0001A201D2020202320262029202C202F20DB
:100200003220352038203B203E204120442047200A
:100210004A204D205020532068206B206E207120F2
:10022000742077207A207D208020832086208920DA
:100230008C208F209220952098209B209E20A1200A
:10024000A420A720AA20AD20B020B320B620B9203A
:10025000BC20BF20C220C520C820CB20CE20D1206A
:10026000D420D720DA20DD20E020E320E620E9209A
:10027000EC20EF20F220F520F820FB20FE200121C9
:10028000042107210A210D211021132116211921F2
:100290001C211F212221252128212B212E21312122
:1002A000342137213A213D215221552158215B210A
:1002B0005E216121642167216A216D2170217321F2
:1002C000762179217C217F218221852188218B2122
:1002D0008E219121942197219A219D21A021A32152
:1002E000A621A921AC21AF21B221B521B821BB2182
:1002F000BE21C121C421C721CA21CD21D021D321B2
:10030000D621D921DC21DF21E221E521E821EB21E1
:10031000EE21F121F421F721FA21FD21002203220F
:10032000062209220C220F221222152218221B2239
:100330001E222122242227229D23B023CF23E4231F
:10034000FD23122429243C24101000000180018088
:100350000300030006000C000C001F00198030C3CE
:1003600030C360C66066C06CC038181000070060FB
:100370000D80600D8067FF00C06000C06000C7FE98
:1003800000C06000C06000C06000C06000C76000C6
:10039000C4F000C47C0066660063C0001010180042
:1003A0001818186C18300C000C780DC00F001C00C9
:1003B00030006000C000C000C00070001FF01810C6
:1003C00000020060090060048067FE00C06100C098
:1003D0006000C7FE00C06000C06000C06000C06078
:1003E00000C76000C4F000C47C0066660063C00003
:1003F000101000003FE000CC01B607180C00187E7A
:100400003FC0E30006000C000C000C000600038057
:1004100000F01010000C00363FD800000000000073
:100420000000000000000000C000C000C00060002C
:100430003FF8000010100600060007F0FF000C0057
:1004400018001F0031BC61E0C6C00CC018C03000ED
:10045000300018000FF8101000003FE000C00180CD
:10046000030006000C001FE038306018C00C000CC0
:100470000018001800700FC01010030003000300E4
:1004800003F80300030003000300030003007F00E0
:10049000C3C0C37063183E0000001010180018009D
:1004A000D8003F80180018001800D8007F98300C42
:1004B000300C300C300C301818380FE010100000E1
:1004C000600067FE6030C030C030C7FFC030C03051
:1004D000C030C030C3B0C678C63E633361E0101090
:1004E000000003E00DB8198C318661866183C30377
:1004F000C303C303C606C6066C0C383800E0000010
:1005000010100C000C000C000C000600063C06E06D
:1005100007800E00180030006000600060003800A6
:100520000FF8101000001FF0006000C003800600EC
:100530000C3F1FE0F18003000600060006000300E8
:1005400001C00078101000003FE000000000000033
:100550000000000000000000C000C000C0006000FB
:100560003FF800000000101006000600060007E635
:100570007F030601060007F80F0C36066603C60364
:10058000C603C606660C3C7810100000001C00363E
:1005900007360D9C18C030606030C018800C000613
:1005A000000300010000000000001010000000081F
:1005B000002407120D8818C030606030C018800C0D
:1005C0000006000300010000000000001010000001
:1005D00007FEFCE00180030C063606180C000C0038
:1005E0000C0006000600030001C000780000101097
:1005F0000006001B306C3060306033FEFE603060FF
:100600003060306033C030003000300018000FF828
:10061000101000060033603C60366030C7FFC03009
:10062000C030C030C030C030C030C03060606060AA
:1006300061C0101000001FE000C00180030007E04F
:100640001C30301867180DB007E00E00183C2C66FF
:1006500066C3C38F10101800180018001CF0FB9818
:100660001E0C1C0C380C380C5818D818D818981BAD
:10067000181B180E180010100180618061806180C5
:1006800067F07D9C31867306DB03DE038E038C03EB
:100690009606F006001C00F010100000000000009C
:1006A000038006C00C6018303018600CC0060003D0
:1006B00000010000000000000000101018001800E9
:1006C00018001E7CFDC61B031E031C031803380301
:1006D000380358FBD987198618CB187B10100000F7
:1006E00003FFFE7000C00180030003000600060047
:1006F000060003000300018000E0003C0000101031
:1007000000180C180C180C180CFFFF980C180C187B
:100710000C180CF00C000C000C00060003FE00008E
:1007200010100018601860186018C7FFC018C018B3
:10073000C018C018C018C018C018603060306060A1
:1007400001C010100E0003C00000000003F03E6066
:1007500000C00180030007800CC018C030C060C01A
:10076000C0C0007F10103C0C07C6000300180FCC5F
:10077000F86600300030003000300030006000606B
:1007800000C003801E00101000000F0001DC0036C6
:100790000036061C060036003318630CC18680C381
:1007A00000C300C039800F00101000000F0001C40A
:1007B000000600330618060C16003318630CC186B9
:1007C00080C300C300C039800F001010030C033633
:1007D0000318FFFC030003001B00370063006300E5
:1007E00037001B00060006000C003800101000C087
:1007F00001800318060C0C6018307000C000C000A7
:10080000700018000E000300018000C0006010108E
:1008100000003FF0006000C00180030006001FE000
:1008200038306018C00C000C0F0C199818B00FE08D
:1008300010100180618063F06EDC98C6B0C6B0C352
:10084000E0C3E0C3ECC6CCC6C6DC63F06180030045
:100850000E0010100C000C000C00FFC60C030C0165
:100860003C006C00CC00CC00D806780318031803B9
:100870000C0607FC1010078000E0000000000300D9
:1008800003000300318C318660C3C0618061006069
:100890001CC007800000101001800180C180C3F0DF
:1008A000CD9C598673066303F303B60396039C033A
:1008B000CC7BF6CEF0C6007B10100000000001F8E3
:1008C0000F0EF806000300030003000300030006F8
:1008D000000C007807C000000000101000C000C02D
:1008E00000C0FFFF00C000C006C00DC018C018C087
:1008F0000DC006C00180018003000E00101000C072
:100900000180030006000C0018007000C000C00049
:10091000700018000E000300018000C0006010107D
:100920003C0007C0000000000FC0F860003000303D
:100930000030003000300060006000C003801E0006
:100940001010000E001B0F1BF60E0C18181C181CA4
:10095000301E301B6018601860306030306038C066
:100960000F8018130007000001800F0C00F607002D
:100970000C1900181C00181C00301E00301B0060F1
:10098000180060180060300060300030600038C02F
:10099000000F80000000000000000000001010C0E8
:1009A00000C060C1B0C0C0C000C000C000C000C076
:1009B00000C018C018C030C06061C03F0000001007
:1009C00010030C03360198FFF0018000BCFFE0002B
:1009D0006000603FB06078C018C000600038000F51
:1009E000F01010000003E03EC000C0018001800351
:1009F000F80D8C1B0633036603C603CCF3D996713E
:100A00008C00F8101000C0C0C0C0C0C0C0C0C0C0C2
:100A1000C0C0C0D8C0D8C0F0C060C0018001800391
:100A20000006001C00101000000F8079800180017A
:100A300080030C030C1FEC763CC60F8C0D8C0C98BD
:100A400018B018E03000E0101000000F18F6180C75
:100A500018181C181C301E301B601860186030609D
:100A600030306038C00F80000010106000600061FE
:100A7000FEC000C000C000C000C000C000C180C3F4
:100A800000C300618060FF600000001010060006D7
:100A900000067CFFC006000C000E001FF01E1C3874
:100AA0000C300600060006000C003807E0101000AD
:100AB00000C000C000C000C000C000C000C000C036
:100AC00000C000C018C018C030C06061C03F001036
:100AD00010030003000178FFC0018000BCFFE000AC
:100AE0006000603FB06078C018C000600038000F40
:100AF000F01010C000C000C000C018C018C00CC06A
:100B00000CC006C006C006C60666006C00380000B1
:100B10000000001010000E607B607B606EC060CF34
:100B2000FEC060C060C060C060C060C760C4F0C488
:100B300078666C63C0101000066033603C6036C09D
:100B400030CFFEC030C030C030C030C030C7B0C4BD
:100B500078C43C663663E01010180C18361F98FCF9
:100B6000003000300031FC600060006000C000C355
:100B700000C300830081FE00001010030C03360147
:100B800098FFF0018000C000C000601FB070786066
:100B900018C000C000600038000FE010100C060CF8
:100BA000030C0C0C060F98FCCC1866186318633005
:100BB0006130613060606060C0CCC0C78010100CD4
:100BC000000C000C000F00FE780DCE0F030E031C6E
:100BD000011C012C016C03CC030C060C1C0CF01046
:100BE000103C000780000000006000600067C0DC6F
:100BF00070F030E018C01800180030007001C01FFD
:100C000000101000C030C030C030F81BCE3E06D8F7
:100C1000030C030C060C0E06780600060003000306
:100C20000003001010060006000600FFF80600068C
:100C3000000600FFF0060006000600F6008F0087A1
:100C4000C0C6707C0010100000601860186018CFDB
:100C5000FFC018C018C018C018C018C018C3D8C624
:100C60003CC61E631B61F010100C000C000F80FCD2
:100C70003C180718003000301860186018C018C3FE
:100C8000F8061C061E031B01F0101000000C000CDF
:100C9000000FC0FE001800180018FE3000300030B1
:100CA00000600061806180C180C0FF1010030003FC
:100CB000000178FFC0018000C000C000601FB0705C
:100CC000786018C000C000600038000FE010100C01
:100CD000000C000C000C180F8CFCC618631863186D
:100CE00061306130603060606060C0CCC0C780102F
:100CF000100600060006F87F800600066007F81E52
:100D00006E366666C366C3C783C7036E063E1C00A5
:100D1000700101FF030101F703150D110D05008995
:100D2000300802380249786814000005003801686C
:100D30000100001753440016137800161314001511
:100D400010200015201000540A03E181867F3E1810
:100D50006D830F0F0E0183866033186DC3198F18D2
:100D600003C38E6033186DE330CF1803C39E603623
:100D700030CDE360CF3006C79E7E3E30CDB360CF2E
:100D8000300CC6F6603330D9B660CF33CFCCF660C6
:100D900061B0DB1E60CF30D86CE6C061B0DB1E6195
:100DA0008F19986CC6C063B19B0E330F0FB078C615
:100DB000FF7E1F1B061E0F05077F4141417F3E5BE3
:100DC0004F5B3E3E6B4F6B3E183C783C18183C7EA8
:100DD0003C181C577D571C1C5E7F5E1C007E4343E5
:100DE0007E007E73737E007E7F7F7E7F4141417FE8
:100DF00030483A060E06297929067F4141417F6035
:100E0000703F02042A1C361C2A7F3E1C0800000882
:100E10001C3E7F14227F22143C3C3C7EFF18423C47
:100E2000817E3E6375633E3E616B633E3E636B6BEA
:100E30003E04027F020410207F201008082A1C08AC
:100E4000081C2A0808143E55412263756975631011
:100E5000181C1810040C1C0C0400000000000000FA
:100E60005F00000007000700147F147F14042A7F2E
:100E70002A102313086462364956205000080703DD
:100E800000001C2241000041221C002A1C3E1C2A9A
:100E900008083E080800E06000000808080808008C
:100EA0006060000060100804033E5149453E004266
:100EB0007F400062514949462141494D331814127F
:100EC0007F1027454545393C4A49493041211109A0
:100ED000073649494936064949291E0000240000C1
:100EE000008064000008142241001414141414003B
:100EF0004122140802015909063E415D594E7C12F7
:100F000011127C7F494949363E414141227F41418E
:100F1000221C7F494949417F090909013E4141514C
:100F2000327F0808087F00417F41002041413F0196
:100F30007F081422417F404040407F020C027F7FA7
:100F40000204087F3E4141413E7F090909063E41B6
:100F50006141BE7F09192946264949493201017F6D
:100F600001013F4040403F1F2040201F3F4038408C
:100F70003F63140814630304780403615149454333
:100F8000007F41410003040810600041417F0004DC
:100F90000201020480808080800003070800205442
:100FA0005478407F284444383844444428384444E2
:100FB000287F3854545418087E09090218A4A49CA8
:100FC000787F0804047800447D4000006080847DC0
:100FD0007F1010284400417F40007C047804787C16
:100FE000080404783844444438FC1824241818248D
:100FF0002418FC7C080404080854545420043F447A
:1010000044203C4040207C1C2040201C3C40204090
:101010003C44281028444C9090907C4464544C44A8
:10102000000836410000007F00000041360800182B
:101030000408100C7F4141417F482400000000005B
:1010400000000000FFFFFFFFFFFFFFFE0080000029
:10105000000000000200866DE3C78F1CCF020086EF
:1010600061B66C19BED98200866DB66C19B6D9828C
:101070000087EDE7EDDFB6DF8200866DB66CD9B68E
:10108000D98200866DB667D9B399820080000000CE
:101090000000000200FFFFFFFFFFFFFFFE00000057
:1010A0000000000000000000000000000000000040
:1010B00000000F000E030600000E0007800E300E29
:1010C00000007E3001800C0C0E00000C3000001C73
:1010D000707F1E000C3010007F980C06001838300E
:1010E000007F9C080000303C3000118E18700030EA
:1010F0003E33F0318E30700030323C1831867070E3
:10110000003030380C718073F0003070300C61802A
:10111000677800386000386F80067E001FE007F0B7
:10112000CF800660000FC007C0000007E00000008D
:1011300000000000000000000001E00000000000CE
:101140000000061800000000007676C4C800000009
:1011500000005564892400001FFF80774249E4099C
:1011600012F334804576C52815555AD680000006FE
:101170001814E2593680000001E000001FFF8000D3
:1011800000000000240027002A00000000002500C5
:1011900028002B00450068010000F6E8DBCFC3B84B
:1011A000AEA49B928A827B746E68625C57524E49F1
:1011B00045413E3A3734312E2C29272523210A0A6E
:1011C000153A49676E6F7265006D560A0A504C45B4
:1011D000415345205455524E204F464620004C4F17
:1011E00057204241545445525921200003053F21C4
:1011F0003F1208120A100A0E1C0E0C1E0C141A14B0
:10120000161F161E131E1E1B1E1E1F1E3F213F3AB9
:101210002F3A173D173F213F181F02040A041F0EE3
:1012200004040E1F0A1F0A0E0E1F04110E2E252E77
:101230002F2A2E262929021F02081F08150E040432
:101240000E150E15151B151B040604040C040000D6
:10125000000017000300031F0A1F16371A19041392
:101260000A153A000300000E11110E000A040A04C8
:101270000E040030000404040010001804031F11C1
:101280001F121F101D151711151F07041F17151DFD
:101290001F151D01011F1F151F17151F000A000034
:1012A0003200040A110A0A0A110A040115020E1179
:1012B000171E051E1F150A0E110A1F110E1F1511EC
:1012C0001F05010E111D1F041F111F1108100F1FF4
:1012D000041B1F10101F061F1E040F0E110E1F09E6
:1012E000060E112E1F051A121509011F011F101FCE
:1012F0000F180F1F0C1F1B041B031C0319151300D1
:101300001F11030418111F000201022020200001F8
:10131000020C121E1F120C0C12120C121F0C1A14AB
:10132000041E05242A1E1F021C141D1020201D1F30
:101330000814111F101E041E1E021C0C120C3E0A63
:10134000040C123E1E040214160A020F120E101E86
:101350000E100E1E081E120C1226281E322A2604FB
:101360001E21001F00211E040102013F213F172BF7
:10137000152010204C4F4144455200172B162013C6
:1013800014000A4E6F2053442063617264206F7210
:101390000A6E6F204C4F414445522E4845580A0A68
:1013A000153A45786974001D20466C617368696E52
:1013B000670A20206C6F616465722E2E2E0A0A4423
:1013C0004F4E2754205455524E204F464621000080
:1013D000000000230026002900040404040404047F
:1013E00004020202020202030303030303010204D4
:1013F0000810204080010204081020010204081097
:1014000020000000080002010000030407000000A3
:10141000000000000000612411241FBECFEFD8E0BF
:10142000DEBFCDBF12E0A0E0B1E0E4E8FCE402C022
:1014300005900D92A437B107D9F725E0A4E7B2E0F3
:1014400001C01D92A931B207E1F71AE0CCE0DAE061
:1014500004C02197FE010E949C24CB30D107C9F71C
:101460000E94221C0C9440260C940000CF92DF9224
:10147000EF92FF920F931F93CF93DF936C017A014A
:101480008B01C0E0D0E0CE15DF0589F0D8016D9169
:101490008D01D601ED91FC910190F081E02DC60106
:1014A0000995892B11F47E0102C02196ECCFC7016A
:1014B000DF91CF911F910F91FF90EF90DF90CF9030
:1014C00008950E94E0256115710579F0FB010190F6
:1014D0000020E9F73197AF01461B570BDC01ED9176
:1014E000FC910280F381E02D099480E090E0089562
:1014F000833081F028F4813099F08230A1F0089592
:101500008730A9F08830B9F08430D1F48091800020
:101510008F7D03C0809180008F7780938000089535
:1015200084B58F7702C084B58F7D84BD0895809186
:10153000B0008F7703C08091B0008F7D8093B000A2
:1015400008951F93CF93DF93282F30E0F901EF5FC9
:10155000FB4E8491F901E351FC4ED491F901E7521D
:10156000FC4EC491CC23C9F0162F81110E94780A39
:10157000EC2FF0E0EE0FFF1FE657FE4EA591B49161
:101580008FB7F894111105C09C91ED2FE095E923D8
:1015900002C0EC91ED2BEC938FBFDF91CF911F91A7
:1015A0000895CF93DF9390E0FC01E351FC4E24912A
:1015B000FC01E752FC4E8491882361F190E0880F92
:1015C000991FFC01E058FE4EC591D491FC01E657ED
:1015D000FE4EA591B491611109C09FB7F89488811E
:1015E000209582238883EC912E230BC0623061F416
:1015F0009FB7F8943881822F809583238883EC915C
:101600002E2B2C939FBF06C08FB7F894E8812E2B0A
:1016100028838FBFDF91CF9108951F93CF93DF93DE
:10162000182FEB0161E00E94D10A209711F460E0CD
:1016300004C0CF3FD10539F461E0812FDF91CF9114
:101640001F910C94A10AE12FF0E0EF5FFB4EE491B3
:10165000E330F9F048F4E130B9F0E230A1F584B5B7
:10166000806284BDC8BD34C0E730E9F0E83019F1CC
:10167000E43049F580918000806280938000D093AF
:101680008B00C0938A0024C084B5806884BDC7BD28
:101690001FC080918000806880938000D093890073
:1016A000C093880015C08091B00080688093B0001E
:1016B000C093B3000DC08091B00080628093B000F1
:1016C000C093B40005C0C038D1050CF0B5CFAFCF82
:1016D000DF91CF911F9108958E3008F08E50877062
:1016E000806480937C0080917A00806480937A008B
:1016F00080917A0086FDFCCF80917800209179005E
:1017000090E0922B08953FB7F894809185029091D4
:101710008602A0918702B091880226B5A89B05C0D9
:101720002F3F19F00196A11DB11D3FBFBA2FA92F60
:10173000982F8827820F911DA11DB11DBC01CD01DD
:1017400042E0660F771F881F991F4A95D1F70895C9
:101750008F929F92AF92BF92CF92DF92EF92FF92C1
:101760006B017C010E94830B4B015C01C114D1040D
:10177000E104F104F1F00E94830BDC01CB01881934
:101780009909AA09BB09883E9340A105B10570F3E8
:1017900021E0C21AD108E108F10888EE880E83E042
:1017A000981EA11CB11CC114D104E104F10419F765
:1017B000DDCFFF90EF90DF90CF90BF90AF909F90E4
:1017C0008F9008951F920F920FB60F9211242F93AE
:1017D0003F938F939F93AF93BF9380918B02909190
:1017E0008C02A0918D02B0918E023091840223E090
:1017F000230F2D3720F40196A11DB11D05C026E849
:10180000230F0296A11DB11D2093840280938B02A9
:1018100090938C02A0938D02B0938E0280918502EA
:1018200090918602A0918702B09188020196A11D35
:10183000B11D8093850290938602A0938702B09396
:101840008802BF91AF919F918F913F912F910F90FF
:101850000FBE0F901F90189580918F04882319F068
:101860008091910401C080E08093B40008951F929C
:101870000F920FB60F9211242F933F934F935F93C4
:101880006F937F938F939F93AF93BF93EF93FF9348
:1018900060919004662321F1809183028F5F809391
:1018A0008302909189028917D8F090918F0481E08A
:1018B000892780938F041092830280918A02882363
:1018C00069F08091020193E4899F802D1124895B46
:1018D000809302010E947C24909391040E942C0C1E
:1018E000FF91EF91BF91AF919F918F917F916F91F8
:1018F0005F914F913F912F910F900FBE0F901F90CE
:1019000018954F925F926F927F928F929F92AF92B3
:10191000BF92CF92DF92EF92FF920F931F93CF93DC
:10192000DF93F901C49031965491EC0108A164351C
:101930000CF018C10C2C000CDD08A62F062E000C94
:10194000BB0B7D01EC0CFD1C1E141F040CF00AC126
:1019500040330CF007C1A52E842E042E000C9908EC
:10196000F401E50FF11D57FDFA951E161F060CF048
:10197000F9C02E5F3F4FE6012796D7FD279673E00B
:10198000D595C7957A95E1F747FF0AC0A52EA40E15
:10199000C89DA001C99D500D1124241B350B40E0AA
:1019A000EA2D0A2C000CFF0BE40FF11D47FDFA9500
:1019B000F1971CF050E3A52EA41A67FD60E0F70133
:1019C000E535F10514F0E4E5F0E07E2FFC01D48468
:1019D000D426862F062E000C990BFC01EA1BFB0B6C
:1019E000DF017F01F7E0EF22FF24E0E8F0E002C032
:1019F000F595E795EA94E2F71E2FB7FD179653E0A9
:101A0000B595A7955A95E1F72A0F3B1FE42FE7708C
:101A100051E001C0550FEA95EAF745954595459582
:101A2000B4E54B02800D911D112481579D4FC12CAF
:101A30000A2C000CBB08992493942E015524EC2DFC
:101A4000F0E0EA15FB050CF08DC0F901449101307E
:101A5000E1F47C01A12F862E881AB82DBE0DB71790
:101A600008F077C0B42FBA2321F0E701B881B52B75
:101A7000B883B0E0B595A795109719F431964491C5
:101A8000A0E8DFEFED1AFD0AE8CF01111FC0752EA7
:101A900070947C01A12FF901862E881AB82DBE0DF5
:101AA000B71708F056C0B42FBA2321F0E701B88168
:101AB000B721B883B0E0B595A795109719F4319682
:101AC0004491A0E8DFEFED1AFD0AE8CF033031F0D2
:101AD0007C01A12FF901862E881A37C0752E7094CB
:101AE000862E7C01A12FF9018716D8F4B42FBA23D2
:101AF00059F0E701B881682C6D2460FE02C0B52B57
:101B000002C0B721E701B883B0E0B595A79510975B
:101B100019F431964491A0E88394DFEFED1AFD0AA1
:101B2000E3CFD92416C0B42FBA2321F0E701B8813E
:101B3000B527B883B0E0B595A795109719F43196FD
:101B40004491A0E8DFEFED1AFD0AB82DBE0DB717DE
:101B500050F3550F19F48C5A9F4F51E0C394240D44
:101B6000351D6DCFDF91CF911F910F91FF90EF90B9
:101B7000DF90CF90BF90AF909F908F907F906F90AD
:101B80005F904F900895FC01643508F053C04033D6
:101B900008F050C090A1742F759575957595262FF6
:101BA000062E000C330B542F57709230A1F4F9011C
:101BB000E157FD4F84E57802E00DF11D112480818D
:101BC00090E0052E02C0959587950A94E2F78095DE
:101BD000982F91700AC0933041F484858170462714
:101BE00040954170841303C014C0911112C084E564
:101BF0007802200D311D1124F901E157FD4F81E0DC
:101C000090E001C0880F5A95EAF78095908189236A
:101C100010C084E57802200D311D1124F901E1572F
:101C2000FD4F81E090E001C0880F5A95EAF790815E
:101C3000892B80830895DF92EF92FF920F931F9379
:101C4000CF93DF931F92CDB7DEB78C01D62EF42E43
:101C5000E12CE21654F46E2D6D0D4F2DC801298331
:101C60000E94C30DE3942981F4CF0F90DF91CF91AF
:101C70001F910F91FF90EF90DF9008952F923F9268
:101C80004F925F926F927F928F929F92AF92BF928C
:101C9000CF92DF92EF92FF920F931F93CF93DF9338
:101CA000EC016A3019F42D819885C3C06D3009F4B8
:101CB000C6C038847A84D98448A083E58D150CF495
:101CC000A1C08FE287150CF49DC08C8190E0019734
:101CD000389E9001399E300D1124C9018D0D911D42
:101CE000D7FC9A95181619060CF08CC08D81839D2F
:101CF000C0011124870D911D77FC9A9518161906BD
:101D00000CF080C05D2CCD2CE62EF12CA32C032CE6
:101D1000000CBB08EC2DED190E2E000CFF0B8C8176
:101D200090E0E817F9070CF06CC00197E817F90785
:101D300079F0E89E9001E99E300DF89E300D112457
:101D4000E20FF31F8E8D9F8DE80FF91F149101C0D4
:101D500010E0072D672C262D2719022E000C330BBF
:101D60008D8190E0281739070CF048C010FF1EC085
:101D700081E0381206C0462D6C2DCE010E94C30DA5
:101D800039C0202E4501800E911C07FD9A94822DAA
:101D9000022C000C990B8815990564F5232D422D12
:101DA000652DCE010E941B0E2394F1CF89A198A12D
:101DB000891701F188A381E0381206C0462D6C2DE9
:101DC000CE010E94C30D15C0202E4501800E911C2E
:101DD00007FD9A94822D022C000C990B8815990509
:101DE00044F4232D422D652DCE010E941B0E239419
:101DF000F1CF48A216956394030DADCFC394530C55
:101E000089CF48A228853C818985329F800D112485
:101E100089879F81992399F0082E000C990B44E53E
:101E200050E0239F401951091124481759073CF4E9
:101E30009D818A85299F800D11248A87198681E0DA
:101E400090E0DF91CF911F910F91FF90EF90DF9085
:101E5000CF90BF90AF909F908F907F906F905F904A
:101E60004F903F902F9008958F929F92AF92BF9284
:101E7000CF92DF92EF92FF920F931F93CF93DF9356
:101E800082E38093110581E090E0A0E0B0E08093D0
:101E90000D0590930E05A0930F05B09310058FEFDD
:101EA00080930205E0E8F7E7259134912130304C2A
:101EB00009F049C0E6E9F7E7E491E093EB04E7E9CC
:101EC000F7E7E491E0939604E8E9F7E7E491E0931B
:101ED0009704E9E9F7E785919491909399048093A9
:101EE0009804EBE9F7E78591949190939B04809394
:101EF0009A0487E08093BD04EEE9F7E7E491E0936C
:101F0000BC04EFE9F7E7E491E0930205E0EAF7E7C4
:101F1000859194919093AF048093AE04E2EAF7E741
:101F2000859194919093B1048093B004E4EAF7E72B
:101F3000859194919093B3048093B204E6EAF7E715
:101F4000859194912CC09CE39093EB04109296049D
:101F50008093970480E293E090939904809398048F
:101F600084ED93E090939B0480939A0487E08093A0
:101F7000BD048093BC048CEA9DE09093AF048093F1
:101F8000AE048EED9DE09093B1048093B00484E79D
:101F90009EE09093B3048093B2048CE39FE090930F
:101FA000B5048093B404C1E0C09392046FEF70E075
:101FB00085E00E940D0B88E080939C0489E080936B
:101FC0009D0487E080939E0486E080939F04D4E084
:101FD000D093A00482E08093A10481E18093A204C5
:101FE0000E94E8188CE39FE09093AD048093AC04CA
:101FF000D093AB04C093B6048BE08093EE048DE0E5
:102000008093ED0480E18093EF048EE08093F104EF
:102010008FE08093F004C093E804C0930005109211
:102020000105C093E704ECEEF1E1E491EF5FE0938A
:10203000E404EDEEF1E1E491EF5FE093E5048EEE70
:1020400091E19093FF048093FE04CFB7F8948091C0
:102050008202811127C0E3EEF3E18491E7EFF3E11F
:102060009491E82FF0E0EE0FFF1FE058FE4EA5918F
:10207000B491EC91E92321F461E08AE00E94A10A85
:1020800061E08AE00E94D10A8CB580618CBD8CB57C
:1020900080648CBD61E08DE00E94D10A61E08BE03C
:1020A0000E94D10A809182028F5F80938202CFBF0B
:1020B0008CB58F7D8CBD8CB58C7F81608CBD8DB5D2
:1020C00081608DBD8CB58C608CBD61E08091EE042B
:1020D0000E94D10A61E08091ED040E94D10A61E082
:1020E0008091EF040E94D10A8091F10418161CF42B
:1020F00061E00E94D10A8091F00418161CF461E09E
:102100000E94D10A8091F104181674F460E00E94D4
:10211000A10A6AE070E080E090E00E94A80B61E014
:102120008091F1040E94A10A8091ED04082E000C18
:10213000990BFC01E752FC4EE491F0E0EE0FFF1F1B
:10214000E657FE4E259134913093F5042093F40424
:10215000FC01E351FC4EE491E093FB048091EE041A
:10216000082E000C990BFC01E752FC4EE491F0E0C4
:10217000EE0FFF1FE657FE4E259134913093F30486
:102180002093F204FC01E351FC4EE491E093FA0445
:102190008091F004082E000C990BFC01E752FC4ED4
:1021A000E491F0E0EE0FFF1FE657FE4E25913491CB
:1021B0003093F7042093F604FC01E351FC4EE491C4
:1021C000E093FC048091EF04082E000C990BFC01B5
:1021D000E752FC4EE491F0E0EE0FFF1FE657FE4E93
:1021E000259134913093F9042093F804FC01E351D4
:1021F000FC4EE491E093FD0481E20E943C1984E1ED
:102200000E943C198091EB0487FF03C08FE7809305
:10221000EB048091EB0480680E943C1980E20E94EC
:102220003C198CE00E943C190E945B19C1E0C093EC
:10223000BB0484E08093DF0489E19DE09093C704B0
:102240008093C60460E080E00E946B1A61E070E059
:1022500083E00E940D0B8091B100887F81608093A4
:10226000B100F894109280001092810010928500C5
:102270001092840088E191E0909389008093880017
:1022800080918100886080938100809181008160CD
:102290008093810080916F00826080936F007894BA
:1022A0000E94E51B8091A804813019F41092BC04AF
:1022B0001CC08091AB048823C9F380E00E94D11830
:1022C0008DE19DE09093C5048093C4041092CA04EC
:1022D0001092C904C093B80489E08093CD04109291
:1022E000D0041092D2041092D40480910205882365
:1022F00009F4E9C081E08093E8041092E7041092A9
:10230000E6041092AA048093000580930105CFE7AC
:10231000D1E18CE0F82E04E911E1EE24E39499E098
:10232000D92E0E9401138823E1F3FE0184918823B2
:1023300019F0C090E50401C0C12C27E43DE040E065
:1023400060E080EE94E00E94810C4CE04C0D29E3AB
:1023500030E160E080EE94E00E94810C1092E9048C
:10236000F092EA048FE791E10E949B198091E404C6
:10237000982F990F890F81958D5A8093E904809148
:10238000E504982F990F890F8195835D8093EA0466
:102390008091030584FF03C083E49DE002C08FE3C6
:1023A0009DE00E94BC198091E404982F990F890F39
:1023B00081958D5A8093E9048091EA048F5F809320
:1023C000EA048091BC04882319F08BE39DE002C0ED
:1023D00087E39DE00E94BC198091E404982F990F37
:1023E000890F81958D5A8093E9048091EA048F5F6B
:1023F0008093EA0483E39DE00E94BC198091A804C5
:10240000813039F58091BC048F5F6091BD0487FDF8
:1024100009C0082E000C990B70E06F5F7F4F0E947F
:102420008824682F6093BC0480E00E94D118109328
:10243000C5040093C4041092CA041092C904E09227
:10244000B804D092CD041092D0041092D20410920D
:10245000D4048091A7048130B9F080910205482FFF
:1024600050E060E070E08090030590900405A0903B
:102470000505B090060584169506A606B70608F46D
:1024800043C08F3F09F440C08FEF8093020580E086
:102490000E94D11880E00E94D1188BE29DE09093B9
:1024A000C5048093C4041092CA041092C90481E048
:1024B0008093B80489E08093CD041092D0041092E8
:1024C000D2041092D404E7EBFDE0E491EF5FE093D7
:1024D000E404E8EBFDE0E491EF5FE093E50489EBD1
:1024E0009DE09093FF048093FE041092AA04DF9174
:1024F000CF911F910F91FF90EF90DF90CF90BF9001
:10250000AF909F908F9008958091A904813009F039
:1025100008CF0E94CC1905CFCF92DF92EF92FF92A5
:102520000F931F93CF93DF93C82FD62F142F422FD3
:10253000022E000C550B461B510967FD539557FFA2
:1025400003C0519541955109812F012E000C990B23
:102550008C1B9109C7FD939597FF03C091958195B9
:102560009109DD24D3948417950714F0D12C06C06B
:10257000812F122F282F8C2FCD2FD82F1C1734F4FA
:102580008D2FD22F282F8C2FC12F182FE12EEC1A30
:10259000822F022E000C990B8D1B9109D7FD93956C
:1025A00097FF03C0919581959109F82E0E2DE7FEB6
:1025B00002C001E00E0D0595D2171CF0CC24CA9480
:1025C00011C0CC24C3940EC0DD2079F04C2F6D2FA8
:1025D00080EE94E00E94C30D0F1907FF02C0DC0DCE
:1025E0000E0DCF5F1C1784F703C04D2F6C2FF0CF5B
:1025F000DF91CF911F910F91FF90EF90DF90CF90DF
:1026000008954F925F926F927F928F929F92AF92B6
:10261000BF92CF92DF92EF92FF920F931F93CF93CF
:10262000DF9300D000D01F92CDB7DEB740911205E6
:102630005091130560911405709115052FB7F8940A
:1026400080918B0290918C02A0918D02B0918E02AC
:102650002FBF481B590B6A0B7B0B8091110590E033
:10266000A0E0B0E000910D0510910E0520910F053E
:102670003091100584179507A607B70730F40115A8
:1026800011052105310509F040C3012B022B032B55
:1026900009F039C38091A90481508E3FC0F5809123
:1026A000A8048130C9F58091BC048F5F6091BD049E
:1026B00087FD09C0082E000C990B70E06F5F7F4FFB
:1026C0000E948824682F6093BC048BE793E1909369
:1026D00017058093160588E48093180580E00E9412
:1026E000D11884E991E19093C5048093C4041092B9
:1026F000CA041092C90481E08093B80489E08093F1
:10270000CD041092D0041092D2041092D40480917F
:10271000A90481508E3F70F48091A704813009F0A4
:10272000A0C38EE693E1909317058093160588E485
:102730008093180580E00E94011A8091B8048823D4
:1027400009F4ABC08091CC048111A7C08091C4046E
:102750009091C504E091C904F091CA04EE0FFF1FE7
:10276000E80FF91F4591549141155105F1F420915D
:10277000C804222331F01092CA041092C904FC014B
:1027800012C01092B8048091B704882341F080E011
:102790000E94011AE091C904F091CA042DC080E0A2
:1027A0000E94BC187AC0459154919A01369527959C
:1027B0003695279540FF51C0CA01B6E0969587959A
:1027C000BA95E1F78F71952F9695969596959051BC
:1027D0002F70223071F1F8F4211117C08B3008F0FE
:1027E0008AE08093CD04E091C904F091CA04319647
:1027F000F093CA04E093C904EE0FFF1F8091C40454
:102800009091C504E80FF91FCECF213061F760E049
:102810000E946B1AE8CF2330B1F0243021F72091C9
:10282000BB04829F802D11248093D4049093D504FF
:10283000DACF2091BB04829F802D11248093D00495
:102840009093D104D0CF2091BB04829F802D11247E
:102850008093D2049093D304C6CF2F732093CB04DC
:102860008091BB04859F802D11248093CC0410920D
:10287000DC041092DB041092DA0481E08093CE0431
:1028800080938F041092CF048091C9049091CA0460
:1028900001969093CA048093C9048091CE04882342
:1028A00009F4EEC08091CC04811103C00E94BC18D1
:1028B000E7C081508093CC048091DC04811146C034
:1028C0002091DA043091DB042F5F3F4FC901880F5C
:1028D000991FE091D604F091D704E80FF91F659194
:1028E0007491862F87708093DD04AB0163E0569569
:1028F00047956A95E1F7CA0196958795972F969522
:1029000096959093DE048F739091BB04899F802DE0
:1029100011248093DC04417040938A023093DB04DD
:102920002093DA048091D80490E02817390770F0DA
:102930002091D904222339F0821B91099093DB0462
:102940008093DA0403C080E00E94BC188091DC040C
:1029500081508093DC048091CF0421E0280F2093E4
:10296000CF044091CB043091DE04340F8091C30436
:10297000380F3093B9046091D204662371F070E08F
:10298000822F022E000C990B0E9488248091D30480
:10299000869F300D11243093B9048091B90490E0E2
:1029A000849664E270E00E9488248093B904309198
:1029B000CD043093BA046091D004662381F0062ED2
:1029C000000C770B822F022E000C990B0E9488249A
:1029D0008091D104869F300D11243093BA04609108
:1029E000D4046623A1F0822F220F990B70E00E947D
:1029F0008824CB0162E070E00E9488242091D504F5
:102A00009091BA04289F900D11249093BA0480915C
:102A1000BA044F3341F08A300CF089E087FD80E042
:102A20008093BA0402C01092BA04F894E091B904F9
:102A3000F0E0E656FE4EE491E09389023091BA044C
:102A40002091DF043203900111244091DD04420300
:102A5000C001439F900D11240090BC0402C0880F58
:102A6000991F0A94E2F797FF02C081589F4F880F81
:102A7000892F881F990B80939004809391047894F8
:102A800080911805882309F493C08C3020F49CE0D1
:102A9000D92ED81A01C0D12C81E08093E80410927D
:102AA0000005109201051091E50483E0810F3D2D92
:102AB000311B335D032FE82E880FFF08E30EF11C56
:102AC00037FDFA94802F002E000C990B8E159F0570
:102AD0005CF42EE4402F63E080EE94E03D830E949E
:102AE0001B0E0F5F3D81EECF145003E0030F212F2B
:102AF00041E0602F80E50E943C1B212F42E0602FC7
:102B000083E00E943C1B81E08093000580930105D7
:102B10000091E5048D2D801B3DE2F32EF80E2EE48E
:102B20004F2D63E080EE94E00E941B0E13E0100F27
:102B30001F0D4FEF410F2EE463E080EE94E00E9402
:102B40001B0E035033E0F30E402F6F2D80E00E94E8
:102B5000241B402F6F2D83E50E94241B41E06F2D25
:102B600083E00E94A61A42E06F2D80E50E94A61A1B
:102B7000145044E0612F80E50E94A61A48E0612FBE
:102B800083E00E94A61A84E08093E9048091E50422
:102B9000D81A8D2D815D8093EA048091160590915D
:102BA00017050E949B198091180581508093180584
:102BB0008091AE049091AF04892B09F47CC011E0A0
:102BC00010930005109201059091E40485E5891B9E
:102BD0008093E9041092EA048091AB04813009F4F7
:102BE0004DC030F09091AA04853008F05FC05AC003
:102BF00080E00E94D1181093E804ECEEF1E1E4913A
:102C0000EF5FE093E404EDEEF1E1E491EF5FE09338
:102C1000E5048EEE91E19093FF048093FE04109200
:102C2000AF041092AE041092E60418EA0E94011359
:102C30008823E1F38EED91E10E949B196091AC0431
:102C40007091AD0480E090E04AE00E94971B89EC0F
:102C500091E10E949B19612F62956F7070E080E096
:102C600090E04AE00E94971B8EEB91E10E949B1935
:102C70008091A704813009F0FAC01DC0809103053E
:102C800090910405A0910505B09106058F709927D4
:102C9000AA27BB270897A105B10510F487E009C052
:102CA00088E707C0992339F08B5F03C0992319F097
:102CB0008FE20E94DA1B0E945B198091E604811169
:102CC0000EC088EF91E0EFE8F2E0DF019C011D9279
:102CD00021503040E1F71092E9041092EA040E947A
:102CE000830B60930D0570930E0580930F059093F1
:102CF00010052091090530910A05621B730B709332
:102D000008056093070580E0CCC02FB7F894809148
:102D10008B0290918C02A0918D02B0918E022FBFF8
:102D200020911105820F911DA11DB11D80931205E7
:102D300090931305A0931405B09315058091030596
:102D400090910405A0910505B09106050196A11D7D
:102D5000B11D8093030590930405A0930505B093DE
:102D6000060510920D0510920E0510920F05109297
:102D700010050E94830B6093090570930A058093E8
:102D80000B0590930C0580919304909194042FE08F
:102D9000289F8001299F100D112485E10E946C0B52
:102DA000800F911F24E0969587952A95E1F79093DF
:102DB00094048093930420919204222309F44BC03D
:102DC00060919604262F30E040E050E029833A835A
:102DD0004B835C83C0909704D12CE12CF12C409163
:102DE0009A0450919B044A01A12CB12C2091980483
:102DF000309199042901612C712C8217930728F0D6
:102E00009C014817590708F49A01C901A0E0B0E0F5
:102E10009C01AD01241935094609570969817A8158
:102E20008B819C816C197D098E099F090E946C24FD
:102E3000A501940124193509460957090E94E52581
:102E4000C20ED31EE41EF51EC09295046C2D70E0D8
:102E500085E00E940D0B0E94E8180E94E51B81E0AE
:102E600020C0893209F066CC0E94CC1963CC115085
:102E700009F0DCCE60E070E085E00E940D0B83B7C6
:102E8000817F846083BF83B7816083BF83B78160A4
:102E900083BF889583B78E7F83BF83B78E7F83BFC1
:102EA000C5CE0F900F900F900F900F90DF91CF91A4
:102EB0001F910F91FF90EF90DF90CF90BF90AF9058
:102EC0009F908F907F906F905F904F900895EF92BA
:102ED000FF920F931F93CF93DF93C82FD62F142FFA
:102EE000F22E0E948C122E2D402F6F2D812F0E94CA
:102EF0008C122D2F4C2F6E2D802FDF91CF911F9193
:102F00000F91FF90EF900C948C122F923F924F9262
:102F10005F926F927F928F929F92AF92BF92CF9269
:102F2000DF92EF92FF920F931F93CF93DF93CDB772
:102F3000DEB729970FB6F894DEBF0FBECDBF282E9F
:102F40006987F42E322E261754F4E6160CF0E3C0EF
:102F50003E2CE62E2987F02E022D242E08C0E216E4
:102F600074F4832D3E2CE82E8F2DF02E082F3985FA
:102F700033162CF43986332E822D2F2CF82E3985DA
:102F80003E112FC0F21434F0822D2F140CF48F2D2B
:102F9000F22C282E0F1524F020160CF4202E0F2DC5
:102FA00021E0220D201B4985602F80EE94E02996B8
:102FB0000FB6F894DEBF0FBECDBFDF91CF911F914A
:102FC0000F91FF90EF90DF90CF90BF90AF909F90C8
:102FD0008F907F906F905F904F903F902F900C94C8
:102FE0001B0E822D022C000C990B2F2D0F2C000C88
:102FF000330BA901481B590B5C834B83832C032C97
:10300000000C99085985A52E550FBB08F401EA1943
:10301000FB09FE83ED83002E000C110B6801C81A1A
:10302000D90A8E2D0E2C000C990BAC014A195B09A4
:103030005A834983021B130BFC01E819F909F8872D
:10304000EF833E103A94412C512C612C712C398520
:1030500033162CF1C3016D817E810E948824322DAC
:10306000360FC20169817A810E948824222D260FA1
:103070004B815C81640E751E4C0C5D1C23171CF487
:10308000832F322F282F2F5F231B4985632F80EE3C
:1030900094E00E941B0E39853F5F3987D8CF832F7C
:1030A000330F990B9C0128193909029F4001039F96
:1030B000900C129F900C11248A199B09C89E5001F4
:1030C000C99EB00CD89EB00C11243985E31644F18A
:1030D000C4016F8178850E9488243F2D360FC50179
:1030E00069817A810E948824222D260F800E911EEC
:1030F000AC0CBD1C23171CF4832F322F282F2F5FFD
:10310000231B4985632F80EE94E00E941B0E3985B6
:103110003F5F3987DACF39842987F22C242E2FCFCD
:1031200029960FB6F894DEBF0FBECDBFDF91CF91C9
:103130001F910F91FF90EF90DF90CF90BF90AF90D5
:103140009F908F907F906F905F904F903F902F90C7
:103150000895CF93DF93BC0180EE94E00E94630A50
:10316000EC016AE672E080EE94E00E94630A8C0F44
:103170009D1FDF91CF910895811112C01092CE044E
:103180001092CC041092DB041092DA041092CF0457
:10319000109291041092900410928F040C942C0CB5
:1031A0000895811114C01092CE041092CC04109294
:1031B000DB041092DA041092CF0410929104109262
:1031C000900410928F040E942C0C1092B804089561
:1031D000CF92DF92EF92FF920F931F93CF93DF93E3
:1031E000CCE9D4E003EA14E0FF24FA9497E0E92E56
:1031F000E00E62E088810E94D10A288130E0F90166
:10320000EF5FFB4E8491F901E351FC4EC490F9014C
:10321000E752FC4ED490DD2071F081110E94780AB3
:10322000ED2DF0E0EE0FFF1FE153FC4EA591B491A0
:10323000EC91EC21B1F4F80180818F5F808360E034
:1032400088810E94D10A21960F5F1F4FE012D1CFD3
:10325000DF91CF911F910F91FF90EF90DF90CF9072
:103260000895F8018081882371F3F8018F3F11F4EC
:103270001082E5CFF082E3CFCF93C82FF89460E0BF
:103280008091EF040E94A10A8091F00418161CF4AA
:1032900060E00E94A10ACEBD00000DB407FEFDCF84
:1032A0008EB58091F00418161CF461E00E94A10A0A
:1032B0007894CF9108950F931F93CF938091EC044E
:1032C0008F5F8093EC040FE812E0C0E08C2F8064E5
:1032D0000E943C1980E80E943C1961E08091EF0453
:1032E0000E94A10A8091F00418161CF460E00E946C
:1032F000A10A80E090E0F801E80FF91F20812EBDBF
:1033000000000DB407FEFDCF2EB501968435910562
:1033100091F78091F00418161CF461E00E94A10A54
:10332000CF5F0C5A1F4FC63089F680E4CF911F91B2
:103330000F910C943C190F931F93CF93DF938C0143
:10334000C0E0D0E0F801EC0FFD1F6491662371F03E
:10335000E091E004F091E1040190F081E02D80EE35
:1033600094E00995892B11F02196ECCFCE01DF91E5
:10337000CF911F910F910895CF93DF930E949B19D6
:10338000EC016AE672E080EE94E00E94630A8C0F22
:103390009D1FDF91CF91089588EF91E0EFE8F2E073
:1033A000DF019C011D9221503040E1F71092E904A9
:1033B0001092EA0487EA93E10E949B190E945B192C
:1033C0008CB583608CBD8DB58E7F8DBD8DE692E012
:1033D000EEEFFFE309951092E60482E893E10E9484
:1033E000BC190E945B190E94E8188091A7048130E3
:1033F00039F062E370E080E090E00E94A80BF3CF28
:103400000895AF92BF92CF92DF92EF92FF920F9307
:103410001F93CF93DF93C82ED12CE601CE56DB4FFE
:103420009DA1992309F44CC07E019FEFE91AF90A86
:10343000F70195A1911144C09EA58601000F111FAF
:103440000E561B4FF80134A525A5E32FF22FE90FE7
:10345000F11DE90FF11D259134912F3FFFEF3F073B
:1034600011F41DA22DC039ABF601EE0FFF1FE4567B
:10347000FB4F3327220F331F05A0F6A1E02DE20FEB
:10348000F31FA590B490811117C00E94D118F801C4
:10349000B3AAA2AAF601EE0FFF1FEC55FB4F16A22E
:1034A00015A281E0F70185A389E08BAF1EAEFE0176
:1034B0007B9615A2329615A229968DA18F5F8DA3BA
:1034C000DF91CF911F910F91FF90EF90DF90CF9000
:1034D000BF90AF90089570E0DB01AA0FBB1FAE56FE
:1034E000BB4FD4962C91D497D5969C91D597E22F2B
:1034F000F92FE80FF11DE80FF11D259134915F962A
:1035000096963C932E939597F9018591949190917D
:10351000BB04989F802D11246E567B4FFB01B19602
:1035200085A3F901A591B4914B2F50E0E82FF0E06D
:103530004E175F0720F4F90125913491832FFB0189
:10354000B296899F802D112485A30895AF92BF92D2
:10355000CF92DF92EF92FF920F931F93CF93DF935F
:10356000182F062FC1E0D3E08AEFD82E9EEFE92E68
:10357000842F8470C82E842F8270B82E842F887078
:10358000A82E4170F42E8C2F880F8F5FE80ECC2070
:1035900081F04D2F400F6C2F610F80EE94E00E9460
:1035A000C30D4C2F400F6D2F610F80EE94E00E94F1
:1035B000C30DBB2081F0402F4D1B6C2F610F80EE9F
:1035C00094E00E94C30D402F4C1B6D2F610F80EEC5
:1035D00094E00E94C30DAA2081F04C2F400F612F70
:1035E0006D1B80EE94E00E94C30D4D2F400F612FA4
:1035F0006C1B80EE94E00E94C30DFF2081F0402FF1
:103600004C1B612F6D1B80EE94E00E94C30D402F78
:103610004D1B612F6C1B80EE94E00E94C30DCD17F3
:1036200044F4E7FC04C0D150D394D394ED0CCF5FA5
:10363000AACFDF91CF911F910F91FF90EF90DF9074
:10364000CF90BF90AF9008950F931F93CF93DF93C8
:10365000182F062FD42FC0E0CD174CF44C2F400F5D
:10366000612F80EE94E00E94C30DCF5FF5CFDF9114
:10367000CF911F910F9108959F92AF92BF92CF92D9
:10368000DF92EF92FF920F931F93CF93DF93F82E69
:10369000E62EB22E03E0020FD0E0C3E08AEFC82E80
:1036A0001EEF842F8170982EAA24A394A20E42703C
:1036B000D42EDF5F802F8B19180F992081F04C2FAB
:1036C000440F4A0D6E2D6C1B8D2F8F0D0E94241BF5
:1036D000402F6E2D6D1B8C2F8F0D0E94241BDD2023
:1036E00081F04C2F440F4A0D6E2D6C1B8F2D8D1BBE
:1036F0000E94241B402F6E2D6D1B8F2D8C1B0E9452
:10370000241BDC1744F417FD04C0C150C394C394B8
:103710001C0D0E5FCECFDF91CF911F910F91FF90C7
:10372000EF90DF90CF90BF90AF909F9008958F92D1
:103730009F92AF92BF920F931F93CF93DF93CDB71A
:10374000DEB7A1970FB6F894DEBF0FBECDBF19A2AA
:10375000423008F44AE08E010F5D1F4F842E912CF9
:10376000A12CB12CA50194010E940F26E62FB901CE
:10377000CA0101501109EA3014F4E05D01C0E95CAE
:10378000D801EC93232B242B252B61F7B80180EE75
:1037900094E00E94630AA1960FB6F894DEBF0FBEB4
:1037A000CDBFDF91CF911F910F91BF90AF909F90B0
:1037B0008F900895E091E004F091E1040190F08190
:1037C000E02D682F80EE94E009948091AE049091F2
:1037D000AF04892BB1F18091B6048F7169F584E152
:1037E0000E946C0BBC01990F880B990B0E94E72477
:1037F00026EE3FE34EEC50E40E944B250E94B62497
:103800009B017093AD046093AC04672B91F084E04E
:103810008093AB04EEEAF4E080E0419151912417EB
:10382000350718F48093AB0408958F5F8430A9F7AF
:1038300003C08FEF8093AB048091B6048F5F8093B9
:10384000B6040895789484B5826084BD84B581609F
:1038500084BD85B5826085BD85B5816085BD80915B
:103860006E00816080936E001092810080918100D3
:1038700082608093810080918100816080938100CB
:10388000809180008160809380008091B10084608D
:103890008093B1008091B00081608093B0008091EE
:1038A0007A00846080937A0080917A0082608093AD
:1038B0007A0080917A00816080937A0080917A000A
:1038C000806880937A001092C1000E94340FC8E48F
:1038D000D0E08FE1282E312C0E940113882309F4B7
:1038E00064C68091A904813009F467C640908002C3
:1038F00050908102F201EE0FFF1FE35FFE4F208127
:10390000318149E160E080EE94E00E94810C60909A
:103910007E0270907F02F301EE0FFF1FE35FFE4F08
:103920002081318149E161E180EE94E00E94810CC7
:1039300080907C0290907D02F401EE0FFF1FE35F08
:10394000FE4F2081318149E162E280EE94E00E94E5
:10395000810CA0907A02B0907B02F501EE0FFF1F60
:10396000E35FFE4F2081318149E163E380EE94E023
:103970000E94810CC0907802D0907902F601EE0F7F
:10398000FF1FE35FFE4F2081318149E164E480EE57
:1039900094E00E94810C8091A3048F3F79F4809180
:1039A0000001909101010197181619060CF408C640
:1039B00021E030E030930101209300018091A504C3
:1039C0008F3F71F480910001909101010196863042
:1039D000910514F085E090E090930101809300013F
:1039E00080910001909101018330910509F44BC051
:1039F00034F48130910559F0029739F19BC084303D
:103A0000910509F45DC0059709F477C093C057E1AB
:103A1000E52E0BE023E147E067E183E00E946717B2
:103A20006AE2E62E2EE247E06AE283E00E94671730
:103A30008091A40481508E3F08F4C7C58091A604EC
:103A400081508E3F08F076C0D1C537E1E32E0CE1FE
:103A500023E148E167E184E10E9467174AE2E42E2E
:103A60002EE248E16AE284E10E9467178091A40493
:103A700081508E3F08F4CDC58091A60481508E3FC1
:103A800008F058C0D7C597E1E92E0DE223E149E2DD
:103A900067E185E20E9467172AE2E22E2EE249E200
:103AA0006AE285E20E9467178091A40481508E3FEC
:103AB00008F4D3C58091A60481508E3FD8F5DEC5A9
:103AC00017E1E12E0EE323E14AE367E186E30E947A
:103AD00067178AE2E82E2EE24AE36AE286E30E9452
:103AE00067178091A40481508E3F08F4DAC5809155
:103AF000A60481508E3FF0F4E5C5A7E1EA2E0FE45D
:103B000023E14BE467E187E40E946717BAE2EB2EFA
:103B10002EE24BE46AE287E40E9467178091A404D6
:103B200081508E3F08F4E1C58091A60481508E3FFC
:103B300008F4ECC51092E9041092EA04E0918002C6
:103B4000F0918102E834F10508F0DDC0EC5CFF4F34
:103B50000C949C248AEC91E0D4C085EA91E0D1C019
:103B600088EA91E0CEC08BEA91E0CBC08EEA91E08A
:103B7000C8C081EB91E0C5C084EB91E0C2C087EB87
:103B800091E0BFC08AEB91E0BCC08DEB91E0B9C081
:103B900080EC91E0B6C083EC91E0B3C086EC91E09C
:103BA000B0C089EC91E0ADC08CEC91E0AAC08DEE84
:103BB00091E0A7C08FEC91E0A4C082ED91E0A1C09C
:103BC00086ED91E09EC08AED91E09BC087ED91E08B
:103BD00098C08DED91E095C080EE91E092C083EEAB
:103BE00091E08FC086EE91E08CC089EE91E089C0B3
:103BF0008CEE91E086C08FEE91E083C08FE092E082
:103C000080C082EF91E07DC086EF91E07AC085EFC1
:103C100091E077C089EF91E074C08CEF91E071C0C2
:103C20008FEF91E06EC082E092E06BC085E092E0A1
:103C300068C088E092E065C08BE092E062C08EE0F0
:103C400092E05FC081E192E05CC084E192E059C003
:103C500089E392E056C087E192E053C08AE192E0A6
:103C600050C08DE192E04DC080E292E04AC083E214
:103C700092E047C086E292E044C089E292E041C00F
:103C80008CE292E03EC08FE292E03BC082E392E0A1
:103C900038C085E392E035C088E392E032C08BE320
:103CA00092E02FC080E692E02CC08EE392E029C023
:103CB00081E492E026C084E492E023C087E492E0AD
:103CC00020C08AE492E01DC08DE492E01AC080E535
:103CD00092E017C083E592E014C086E592E011C03F
:103CE00089E592E00EC08CE592E00BC08FE592E092
:103CF00008C082E692E005C085E692E002C088E650
:103D000092E00E94A91881E18093E9041092EA04EC
:103D1000E0917E02F0917F02E834F10508F0DDC009
:103D2000E458FF4F0C949C248AEC91E0D4C085EABF
:103D300091E0D1C088EA91E0CEC08BEA91E0CBC09F
:103D40008EEA91E0C8C081EB91E0C5C084EB91E0C0
:103D5000C2C087EB91E0BFC08AEB91E0BCC08DEBA5
:103D600091E0B9C080EC91E0B6C083EC91E0B3C0C3
:103D700086EC91E0B0C089EC91E0ADC08CEC91E0B4
:103D8000AAC08DEE91E0A7C08FEC91E0A4C082EDB7
:103D900091E0A1C086ED91E09EC08AED91E09BC0CC
:103DA00087ED91E098C08DED91E095C080EE91E0B7
:103DB00092C083EE91E08FC086EE91E08CC089EED8
:103DC00091E089C08CEE91E086C08FEE91E083C0D7
:103DD0008FE092E080C082EF91E07DC086EF91E0BD
:103DE0007AC085EF91E077C089EF91E074C08CEFE5
:103DF00091E071C08FEF91E06EC082E092E06BC005
:103E000085E092E068C088E092E065C08BE092E0D7
:103E100062C08EE092E05FC081E192E05CC084E12C
:103E200092E059C089E392E056C087E192E053C026
:103E30008AE192E050C08DE192E04DC080E292E0D4
:103E40004AC083E292E047C086E292E044C089E241
:103E500092E041C08CE292E03EC08FE292E03BC033
:103E600082E392E038C085E392E035C088E392E0D7
:103E700032C08BE392E02FC080E692E02CC08EE34C
:103E800092E029C081E492E026C084E492E023C05D
:103E900087E492E020C08AE492E01DC08DE492E0C5
:103EA0001AC080E592E017C083E592E014C086E571
:103EB00092E011C089E592E00EC08CE592E00BC063
:103EC0008FE592E008C082E692E005C085E692E0C8
:103ED00002C088E692E00E94A91882E28093E90479
:103EE0001092EA04E0917C02F0917D02E834F10541
:103EF00008F0DDC0EC53FF4F0C949C248AEC91E059
:103F0000D4C085EA91E0D1C088EA91E0CEC08BEAC6
:103F100091E0CBC08EEA91E0C8C081EB91E0C5C0D2
:103F200084EB91E0C2C087EB91E0BFC08AEB91E0E7
:103F3000BCC08DEB91E0B9C080EC91E0B6C083ECE1
:103F400091E0B3C086EC91E0B0C089EC91E0ADC0E7
:103F50008CEC91E0AAC08DEE91E0A7C08FEC91E0CF
:103F6000A4C082ED91E0A1C086ED91E09EC08AEDF3
:103F700091E09BC087ED91E098C08DED91E095C0F8
:103F800080EE91E092C083EE91E08FC086EE91E0EA
:103F90008CC089EE91E089C08CEE91E086C08FEEF6
:103FA00091E083C08FE092E080C082EF91E07DC01D
:103FB00086EF91E07AC085EF91E077C089EF91E0DC
:103FC00074C08CEF91E071C08FEF91E06EC082E021
:103FD00092E06BC085E092E068C088E092E065C046
:103FE0008BE092E062C08EE092E05FC081E192E0FF
:103FF0005CC084E192E059C089E392E056C087E159
:1040000092E053C08AE192E050C08DE192E04DC051
:1040100080E292E04AC083E292E047C086E292E00A
:1040200044C089E292E041C08CE292E03EC08FE25F
:1040300092E03BC082E392E038C085E392E035C075
:1040400088E392E032C08BE392E02FC080E692E0FA
:104050002CC08EE392E029C081E492E026C084E483
:1040600092E023C087E492E020C08AE492E01DC081
:104070008DE492E01AC080E592E017C083E592E0FB
:1040800014C086E592E011C089E592E00EC08CE58F
:1040900092E00BC08FE592E008C082E692E005C096
:1040A00085E692E002C088E692E00E94A91883E3C8
:1040B0008093E9041092EA04E0917A02F0917B0285
:1040C000E834F10508F0DDC0E45FFE4F0C949C2459
:1040D0008AEC91E0D4C085EA91E0D1C088EA91E011
:1040E000CEC08BEA91E0CBC08EEA91E0C8C081EBF4
:1040F00091E0C5C084EB91E0C2C087EB91E0BFC006
:104100008AEB91E0BCC08DEB91E0B9C080EC91E00E
:10411000B6C083EC91E0B3C086EC91E0B0C089EC0E
:1041200091E0ADC08CEC91E0AAC08DEE91E0A7C00B
:104130008FEC91E0A4C082ED91E0A1C086ED91E00A
:104140009EC08AED91E09BC087ED91E098C08DED17
:1041500091E095C080EE91E092C083EE91E08FC037
:1041600086EE91E08CC089EE91E089C08CEE91E002
:1041700086C08FEE91E083C08FE092E080C082EF36
:1041800091E07DC086EF91E07AC085EF91E077C045
:1041900089EF91E074C08CEF91E071C08FEF91E0F6
:1041A0006EC082E092E06BC085E092E068C088E07B
:1041B00092E065C08BE092E062C08EE092E05FC06A
:1041C00081E192E05CC084E192E059C089E392E031
:1041D00056C087E192E053C08AE192E050C08DE181
:1041E00092E04DC080E292E04AC083E292E047C094
:1041F00086E292E044C089E292E041C08CE292E023
:104200003EC08FE292E03BC082E392E038C085E39B
:1042100092E035C088E392E032C08BE392E02FC099
:1042200080E692E02CC08EE392E029C081E492E027
:1042300026C084E492E023C087E492E020C08AE4B0
:1042400092E01DC08DE492E01AC080E592E017C0B4
:1042500083E592E014C086E592E011C089E592E022
:104260000EC08CE592E00BC08FE592E008C082E6BC
:1042700092E005C085E692E002C088E692E00E94E6
:10428000A91884E48093E9041092EA04E09178028A
:10429000F0917902E834F10508F0DDC0EC5AFE4FE8
:1042A0000C949C248AEC91E0D4C085EA91E0D1C0C2
:1042B00088EA91E0CEC08BEA91E0CBC08EEA91E033
:1042C000C8C081EB91E0C5C084EB91E0C2C087EB30
:1042D00091E0BFC08AEB91E0BCC08DEB91E0B9C02A
:1042E00080EC91E0B6C083EC91E0B3C086EC91E045
:1042F000B0C089EC91E0ADC08CEC91E0AAC08DEE2D
:1043000091E0A7C08FEC91E0A4C082ED91E0A1C044
:1043100086ED91E09EC08AED91E09BC087ED91E033
:1043200098C08DED91E095C080EE91E092C083EE53
:1043300091E08FC086EE91E08CC089EE91E089C05B
:104340008CEE91E086C08FEE91E083C08FE092E02A
:1043500080C082EF91E07DC086EF91E07AC085EF6A
:1043600091E077C089EF91E074C08CEF91E071C06B
:104370008FEF91E06EC082E092E06BC085E092E04A
:1043800068C088E092E065C08BE092E062C08EE099
:1043900092E05FC081E192E05CC084E192E059C0AC
:1043A00089E392E056C087E192E053C08AE192E04F
:1043B00050C08DE192E04DC080E292E04AC083E2BD
:1043C00092E047C086E292E044C089E292E041C0B8
:1043D0008CE292E03EC08FE292E03BC082E392E04A
:1043E00038C085E392E035C088E392E032C08BE3C9
:1043F00092E02FC080E692E02CC08EE392E029C0CC
:1044000081E492E026C084E492E023C087E492E055
:1044100020C08AE492E01DC08DE492E01AC080E5DD
:1044200092E017C083E592E014C086E592E011C0E7
:1044300089E592E00EC08CE592E00BC08FE592E03A
:1044400008C082E692E005C085E692E002C088E6F8
:1044500092E00E94A9188091800290918102893493
:10446000910524F0109281021092800280917E02C8
:1044700090917F028934910524F010927F0210926E
:104480007E0280917C0290917D028934910524F016
:1044900010927D0210927C0280917A0290917B02B0
:1044A0008934910524F010927B0210927A02809157
:1044B0007802909179028934910524F01092790262
:1044C00010927802809180029091810297FF04C03F
:1044D000D0938102C093800280917E0290917F02EE
:1044E00097FF04C0D0937F02C0937E0280917C022C
:1044F00090917D0297FF04C0D0937D02C0937C020F
:1045000080917A0290917B0297FF04C0D0937B0246
:10451000C0937A02809178029091790297FF04C04B
:10452000D0937902C09378028091A7048F3FC1F4A1
:1045300080917602909177020196893091050CF472
:10454000B6C121E030E03093770220937602E0910B
:104550007602F09177023197E830F10508F4E9C06E
:10456000C0907402D090750231E0C316D10429F0D6
:104570008091A8048F3FC9F40CC010E028E5412FBA
:1045800060E080EE94E00E941B0E1F5F1730B1F7D1
:10459000EFCF9FEFC91AD90A22E0C216D1040CF45A
:1045A0008BC1109275021092740280E090E0892B0A
:1045B00009F492C90E9400008FC90E94340F96C965
:1045C0009093010180930001F9C9F7E1EF2E0BE010
:1045D00023E147E067E183E00E9485178FEF481AE7
:1045E000580A509281024092800228CAEAE2EE2ED6
:1045F0000BE02EE247E06AE283E00E94851780919B
:1046000080029091810201979093810280938002B1
:1046100091CA77E1E72E0CE123E148E167E184E10B
:104620000E9485179FEF691A790A70927F02609243
:104630007E0222CA6AE2E62E0CE12EE248E16AE23C
:1046400084E10E94851780917E0290917F020197FC
:1046500090937F0280937E026DCA57E1E52E0DE2B2
:1046600023E149E267E185E20E9485172FEF821A74
:10467000920A90927D0280927C021CCA4AE2E42E49
:104680000DE22EE249E26AE285E20E9485178091FE
:104690007C0290917D02019790937D0280937C0231
:1046A00049CA37E1E32E0EE323E14AE367E186E3FB
:1046B0000E9485173FEFA31AB30AB0927B02A09223
:1046C0007A0215CA2AE2E22E0EE32EE24AE36AE2F9
:1046D00086E30E94851780917A0290917B02019770
:1046E00090937B0280937A0225CA97E1E92E0FE42A
:1046F00023E14BE467E187E40E9485178FEFC81A36
:10470000D80AD0927902C09278020ECA8AE2E82EC4
:104710000FE42EE24BE46AE287E40E948517809161
:1047200078029091790201979093790280937802B0
:1047300001CAE456FE4F0C949C2489E090E09093CB
:1047400081028093800223E030E030937F02209347
:104750007E0221E130E030937D0220937C0248C04C
:1047600089E390E0909381028093800227E430E017
:1047700030937F0220937E0283E190E090937D024C
:1047800080937C0282E190E090937B0280937A0296
:1047900089E090E09093790280937802E1CE82E004
:1047A00090E090938102809380028FE390E0909359
:1047B0007F0280937E0284E090E090937D0280935C
:1047C0007C0288E090E014C08DE390E09093810239
:1047D000809380028EE290E090937F0280937E022D
:1047E0008AE090E090937D0280937C028FE090E0DD
:1047F00090937B0280937A0255C021E130E03093A0
:1048000081022093800286E090E090937F02809363
:104810007E0230927D0220927C02D0937B02C09374
:104820007A0240C029E330E0309381022093800275
:1048300030937F0220937E0285E390E090937D0287
:1048400080937C022EE130E030937B0220937A0249
:1048500029C08BE390E0909381028093800227E44B
:1048600030E030937F0220937E0281E090E09093CD
:104870007D0280937C0212C02EE130E030938102F1
:104880002093800280E190E090937F0280937E02EB
:1048900025E330E030937D0220937C0230927B024E
:1048A00020927A02D0937902C093780259CE9093E5
:1048B0007702809376024BCED0927502C09274023A
:1048C00074CE1092E3041092E20481EA91E0909396
:1048D000E1048093E0040895DB018F939F930E948D
:1048E0000426BF91AF91A29F800D911DA39F900DB3
:1048F000B29F900D11240895991B79E004C0991F6F
:10490000961708F0961B881F7A95C9F78095089529
:1049100097FB072E16F4009407D077FD09D00E946C
:10492000A22407FC05D03EF4909581959F4F0895F1
:10493000709561957F4F0895EE0FFF1F0590F491DC
:10494000E02D0994AA1BBB1B51E107C0AA1FBB1F86
:10495000A617B70710F0A61BB70B881F991F5A950B
:10496000A9F780959095BC01CD0108950E942A2554
:1049700088F09F5798F0B92F9927B751B0F0E1F020
:10498000660F771F881F991F1AF0BA95C9F714C0D0
:10499000B13091F00E944425B1E008950C94442573
:1049A000672F782F8827B85F39F0B93FCCF3869509
:1049B00077956795B395D9F73EF490958095709566
:1049C00061957F4F8F4F9F4F0895E89409C097FBE3
:1049D0003EF490958095709561957F4F8F4F9F4FD6
:1049E0009923A9F0F92F96E9BB279395F69587951A
:1049F00077956795B795F111F8CFFAF4BB0F11F4DD
:104A000060FF1BC06F5F7F4F8F4F9F4F16C0882383
:104A100011F096E911C0772321F09EE8872F762FB9
:104A200005C0662371F096E8862F70E060E02AF0FA
:104A30009A95660F771F881FDAF7880F96958795E6
:104A400097F9089557FD9058440F551F59F05F3F4F
:104A500071F04795880F97FB991F61F09F3F79F0A0
:104A600087950895121613061406551FF2CF469522
:104A7000F1DF08C0161617061806991FF1CF8695A4
:104A80007105610508940895E894BB276627772788
:104A9000CB0197F908950E945E250C94CF250E94C2
:104AA000C12538F00E94C82520F0952311F00C9400
:104AB000B8250C94BE2511240C9445250E9422256E
:104AC00070F3959FC1F3950F50E0551F629FF00161
:104AD000729FBB27F00DB11D639FAA27F00DB11D7A
:104AE000AA1F649F6627B00DA11D661F829F222703
:104AF000B00DA11D621F739FB00DA11D621F839F8A
:104B0000A00D611D221F749F3327A00D611D231F5F
:104B1000849F600D211D822F762F6A2F11249F57AD
:104B200050409AF0F1F088234AF0EE0FFF1FBB1FB0
:104B3000661F771F881F91505040A9F79E3F51056F
:104B400080F00C94B8250C9445255F3FE4F3983E23
:104B5000D4F3869577956795B795F795E7959F5F19
:104B6000C1F7FE2B880F911D9695879597F90895AB
:104B700097F99F6780E870E060E008959FEF80EC10
:104B8000089500240A9416161706180609060895B3
:104B900000240A9412161306140605060895092E19
:104BA0000394000C11F4882352F0BB0F40F4BF2B88
:104BB00011F460FF04C06F5F7F4F8F4F9F4F0895C8
:104BC00081E090E0F8940C944026052E97FB1EF4AB
:104BD00000940E94FC2557FD07D00E940F2607FC79
:104BE00003D04EF40C94FC255095409530952195BA
:104BF0003F4F4F4F5F4F0895909580957095619509
:104C00007F4F8F4F9F4F08950E943126A59F900D93
:104C1000B49F900DA49F800D911D11240895A1E2D1
:104C20001A2EAA1BBB1BFD010DC0AA1FBB1FEE1F26
:104C3000FF1FA217B307E407F50720F0A21BB30B71
:104C4000E40BF50B661F771F881F991F1A9469F7ED
:104C500060957095809590959B01AC01BD01CF0149
:104C60000895A29FB001B39FC001A39F700D811D45
:104C70001124911DB29F700D811D1124911D089565
:044C8000F894FFCFD6
:104C840001000100001905800001000000EF0CCDB7
:104C94000CAB0C890C670C450C230C010CDF0BBD11
:104CA4000B9B0B790B570B350B130BF10ACF0AAD8A
:104CB4000A8B0A690A470A250A030AE109BF099D02
:104CC40009620940091E09FC08DA08B80896087444
:104CD40008520830080E08EC07CA07A807860764BC
:104CE4000742072007FE06DC06BA06980676065435
:104CF4000632061006EE05CC05AA058805660544AD
:104D04000522050005DE04BC049A04780456043424
:104D1400041204F003BE039C036A0348030000006A
:104D2400003E0E360A4B41005341005441004E41AF
:104D3400004841004D410059410052410057410093
:104D44004741005A41004441004241005041004B58
:104D5400490053484900434849004E49004D490021
:104D64005249005749004749004A49004249005006
:104D740049004B5500545355004E55004655004DBF
:104D840055005955005255004755005A5500425593
:104D9400005055005655004B4500534500544500FE
:104DA4004E45004845004D450052450057450047D3
:104DB40045005A45004445004245005045004B4FCC
:104DC40000534F00544F004E4F00484F004D4F00CA
:104DD400594F00524F00574F00474F005A4F00425F
:104DE4004F00444F00504F004E000D0A004C4F41FD
:044DF40044455200E0
:00000001FF
