:100000000C94BC030C94E4030C94E4030C94E403FC
:100010000C94E4030C94E4030C94E4030C94E403C4
:100020000C94E4030C94E4030C94E4030C9488060D
:100030000C94E4030C94E4030C94E4030C94E403A4
:100040000C9402060C94E4030C94E4030C94E40373
:100050000C94E4030C94E4030C94E4030C94E40384
:100060000C94E4030C94E40308000000BE922449BD
:10007000123EABAAAA2ABECDCCCC4C3E00000080DA
:10008000BEABAAAAAA3E00000000BF000000803F4D
:100090000000000000084178D3BB4387D1133D190D
:1000A0000E3CC3BD4282AD2B3E68EC8276BED98F3A
:1000B000E1A93E4C80EFFFBE01C4FF7F3F0000007E
:1000C00000000101FF030101F703C600C2000000A8
:1000D0000000240027002A0000000000250028005E
:1000E0002B000500893008023802497868140000A6
:1000F000000005077F4141417F3E5B4F5B3E3E6B09
:100100004F6B3E183C783C18183C7E3C181C577DC1
:10011000571C1C5E7F5E1C007E43437E007E737313
:100120007E007E7F7F7E7F4141417F30483A060ED0
:1001300006297929067F4141417F60703F02042AE8
:100140001C361C2A7F3E1C080000081C3E7F14221F
:100150007F22143C3C3C7EFF18423C817E3E63750E
:10016000633E3E616B633E3E636B6B3E04027F0207
:100170000410207F201008082A1C08081C2A0808E0
:10018000143E554122637569756310181C181004DC
:100190000C1C0C04000000000000005F00000007C1
:1001A000000700147F147F14042A7F2A10231308E9
:1001B000646236495620500008070300001C2241A3
:1001C000000041221C002A1C3E1C2A08083E080888
:1001D00000E0600000080808080800606000006097
:1001E000100804033E5149453E00427F40006251E1
:1001F0004949462141494D331814127F102745457E
:1002000045393C4A49493041211109073649494994
:1002100036064949291E00002400000080640000C1
:10022000081422410014141414140041221408026A
:10023000015909063E415D594E7C1211127C7F49DD
:100240004949363E414141227F4141221C7F494973
:1002500049417F090909013E414151327F0808089F
:100260007F00417F41002041413F017F081422412E
:100270007F404040407F020C027F7F0204087F3EA7
:100280004141413E7F090909063E416141BE7F0966
:10029000192946264949493201017F01013F404061
:1002A000403F1F2040201F3F4038403F6314081448
:1002B0006303047804036151494543007F414100D1
:1002C00003040810600041417F0004020102048021
:1002D00080808080000307080020545478407F28E5
:1002E0004444383844444428384444287F385454DB
:1002F0005418087E09090218A4A49C787F080404F5
:100300007800447D4000006080847D7F1010284488
:1003100000417F40007C047804787C08040478382D
:1003200044444438FC1824241818242418FC7C085D
:100330000404080854545420043F4444203C4040E2
:10034000207C1C2040201C3C4020403C442810289D
:10035000444C9090907C4464544C440008364100D6
:1003600000007F00000041360800180408100C7FD0
:100370004141417F0000450068010000F6E8DBCF05
:10038000C3B8AEA49B928A827B746E68625C57523B
:100390004E4945413E3A3734312E2C292725232119
:1003A0000A0A153A49676E6F7265006D560A0A505F
:1003B0004C45415345205455524E204F464620004F
:1003C0004C4F5720424154544552592120000305B7
:1003D0003F213F1208120A100A0E1C0E0C1E0C14AC
:1003E0001A14161F161E131E1E1B1E1E1F1E3F2133
:1003F0003F3A2F3A173D173F213F181F02040A04C6
:100400001F0E04040E1F0A1F0A0E0E1F04110E2ECB
:10041000252E2F2A2E262929021F02081F08150E15
:1004200004040E150E15151B151B040604040C04FC
:100430000000000017000300031F0A1F16371A19D7
:1004400004130A153A000300000E11110E000A04ED
:100450000A040E0400300004040400100018040311
:100460001F111F121F101D151711151F07041F172D
:10047000151D1F151D01011F1F151F17151F000A30
:1004800000003200040A110A0A0A110A04011502C6
:100490000E11171E051E1F150A0E110A1F110E1F21
:1004A00015111F05010E111D1F041F111F1108102A
:1004B0000F1F041B1F10101F061F1E040F0E110E0E
:1004C0001F09060E112E1F051A121509011F011F03
:1004D000101F0F180F1F0C1F1B041B031C031915E3
:1004E00013001F11030418111F0002010220202015
:1004F0000001020C121E1F120C0C12120C121F0C07
:100500001A14041E05242A1E1F021C141D1020206C
:100510001D1F0814111F101E041E1E021C0C120C9D
:100520003E0A040C123E1E040214160A020F120E9A
:10053000101E0E100E1E081E120C1226281E322A25
:1005400026041E21001F00211E040102013F213F3D
:10055000172B152010204C4F4144455200172B16E5
:10056000201314000A4E6F205344206361726420EC
:100570006F720A6E6F204C4F414445522E484558C9
:100580000A0A153A45786974001D20466C61736843
:10059000696E670A20206C6F616465722E2E2E0AC8
:1005A0000A444F4E2754205455524E204F46462160
:1005B00000000000002300260029000404040404B5
:1005C0000404040202020202020303030303030100
:1005D00002040810204080010204081020010204D7
:1005E00008102000000008000201000003040700BA
:1005F000000000000000000500380168010000173D
:10060000534400161378001613140015102000151B
:10061000201000540A03E181867F3E186D830F0F7E
:100620000E0183866033186DC3198F1803C38E6063
:1006300033186DE330CF1803C39E603630CDE360CE
:10064000CF3006C79E7E3E30CDB360CF300CC6F6AD
:10065000603330D9B660CF33CFCCF66061B0DB1EEB
:1006600060CF30D86CE6C061B0DB1E618F19986C2A
:10067000C6C063B19B0E330F0FB078C6FF7E1F1B41
:10068000061E0F401E0000000000000000000000D9
:100690000000000001000000000000000700000052
:1006A000000000004F00000000000001CF0000002B
:1006B00000000001CE00000000000001CE0000009C
:1006C00000000031CE0000000000F1F1CE0000007B
:1006D000000FF3F1CE000000001EF671CE00000006
:1006E000001CE671C8000000001FE77380000000D6
:1006F000019FF75000000000079CF7C000000003B6
:100700001E3CE3800000C00F7E3FC0000003C03EDF
:100710000C3F0000000F9CFE0FB80000003F3E1C85
:100720001F800000007E73183C00000000FE7F1F49
:100730006000000000CEFC3E00000000000EF070E3
:1007400000000000000EFF0000000000001E7C0002
:1007500000000000003C00000000000000780000E5
:100760000000000000700000000000000000000019
:10077000000000000000481D11241FBECFEFD8E08C
:10078000DEBFCDBF11E0A0E0B1E0E2E6F4E402C0DC
:1007900005900D92AA35B107D9F724E0AAE5B1E09A
:1007A00001C01D92AE30B207E1F713E0CCEBD3E00D
:1007B00004C02197FE010E941D22CB3BD107C9F73F
:1007C0000E9431130C942F220C940000CF92DF92E0
:1007D000EF92FF920F931F93CF93DF936C017A01F7
:1007E0008B01C0E0D0E0CE15DF0589F0D8016D9116
:1007F0008D01D601ED91FC910190F081E02DC601B3
:100800000995892B11F47E0102C02196ECCFC70116
:10081000DF91CF911F910F91FF90EF90DF90CF90DC
:1008200008950E9423220F931F93CF930091690193
:1008300010916A0101151105C9F0C0E080916801AD
:10084000C81758F4F801EC0FF11DEC0FF11D808171
:1008500091810E94F71DCF5FF1CFC8010E94F71D63
:1008600010926A011092690110926801CF911F9154
:100870000F9108956115710579F0FB010190002039
:10088000E9F73197AF01461B570BDC01ED91FC9165
:100890000280F381E02D099480E090E008954F926A
:1008A0005F926F927F92EF92FF920F931F93CF937D
:1008B000DF93CDB7DEB7A1970FB6F894DEBF0FBEBA
:1008C000CDBF7C01FA01CB0119A2223008F42AE045
:1008D0008E010F5D1F4F422E512C612C712CBF01D8
:1008E000A30192010E94331FF901CA0101501109AD
:1008F0006A3014F4605D01C0695CD8016C93232BED
:10090000242B252B61F7B801C7010E943A04A19658
:100910000FB6F894DEBF0FBECDBFDF91CF911F9110
:100920000F91FF90EF907F906F905F904F900895A0
:10093000833081F028F4813099F08230A1F008955D
:100940008730A9F08830B9F08430D1F480918000EC
:100950008F7D03C0809180008F7780938000089501
:1009600084B58F7702C084B58F7D84BD0895809152
:10097000B0008F7703C08091B0008F7D8093B0006E
:1009800008951F93CF93DF93282F30E0F901ED51A5
:10099000FA4F8491F901E153FA4FD491F901E554EA
:1009A000FA4FC491CC23C9F0162F81110E949804EC
:1009B000EC2FF0E0EE0FFF1FE852FF4FA591B4912E
:1009C0008FB7F894111105C09C91ED2FE095E923A4
:1009D00002C0EC91ED2BEC938FBFDF91CF911F9173
:1009E0000895CF93DF9390E0FC01E153FA4F2491F7
:1009F000FC01E554FA4F8491882361F190E0880F5F
:100A0000991FFC01E253FF4FC591D491FC01E852BC
:100A1000FF4FA591B491611109C09FB7F8948881E7
:100A2000209582238883EC912E230BC0623061F4E1
:100A30009FB7F8943881822F809583238883EC9127
:100A40002E2B2C939FBF06C08FB7F894E8812E2BD6
:100A500028838FBFDF91CF9108951F93CF93DF93AA
:100A6000182FEB0161E00E94F104209711F460E07F
:100A700004C0CF3FD10539F461E0812FDF91CF91E0
:100A80001F910C94C104E12FF0E0ED51FA4FE49175
:100A9000E330F9F048F4E130B9F0E230A1F584B583
:100AA000806284BDC8BD34C0E730E9F0E83019F198
:100AB000E43049F580918000806280938000D0937B
:100AC0008B00C0938A0024C084B5806884BDC7BDF4
:100AD0001FC080918000806880938000D09389003F
:100AE000C093880015C08091B00080688093B000EA
:100AF000C093B3000DC08091B00080628093B000BD
:100B0000C093B40005C0C038D1050CF0B5CFAFCF4D
:100B1000DF91CF911F9108958E3008F08E5087702D
:100B2000806480937C0080917A00806480937A0056
:100B300080917A0086FDFCCF809178002091790029
:100B400090E0922B08953FB7F89480916D019091B9
:100B50006E01A0916F01B091700126B5A89B05C0F0
:100B60002F3F19F00196A11DB11D3FBFBA2FA92F2C
:100B7000982F8827820F911DA11DB11DBC01CD01A9
:100B800042E0660F771F881F991F4A95D1F7089595
:100B90008F929F92AF92BF92CF92DF92EF92FF928D
:100BA0006B017C010E94A3054B015C01C114D104BF
:100BB000E104F104F1F00E94A305DC01CB018819E6
:100BC0009909AA09BB09883E9340A105B10570F3B4
:100BD00021E0C21AD108E108F10888EE880E83E00E
:100BE000981EA11CB11CC114D104E104F10419F731
:100BF000DDCFFF90EF90DF90CF90BF90AF909F90B0
:100C00008F9008951F920F920FB60F9211242F9379
:100C10003F938F939F93AF93BF9380917601909171
:100C20007701A0917801B091790130916C0123E0B6
:100C3000230F2D3720F40196A11DB11D05C026E814
:100C4000230F0296A11DB11D20936C0180937601A4
:100C500090937701A0937801B093790180916D0111
:100C600090916E01A0916F01B09170010196A11D4C
:100C7000B11D80936D0190936E01A0936F01B093AD
:100C80007001BF91AF919F918F913F912F910F90E4
:100C90000FBE0F901F90189580917101882319F055
:100CA0008091720101C080E08093B4000895CF93D9
:100CB000DF93EC011F8A1D8A1CA21BA2188E1092C2
:100CC000720110927301109271010E944C0686E726
:100CD00093E09E878D871B8A1A8A81E0898389E049
:100CE0008E8B198E1B8E1D8EDF91CF910895FC0186
:100CF00061110DC0178A158A14A213A2108E1092CA
:100D0000720110927301109271010C944C060895B7
:100D10001F920F920FB60F9211242F933F934F9370
:100D20005F936F937F938F939F93AF93BF93EF9353
:100D3000FF9360917301662321F180916B018F5FB6
:100D400080936B01909174018917D8F09091710193
:100D500081E089278093710110926B018091750168
:100D6000882369F08091050193E4899F802D1124E7
:100D7000895B809305010E94E921909372010E9492
:100D80004C06FF91EF91BF91AF919F918F917F9111
:100D90006F915F914F913F912F910F900FBE0F90E8
:100DA0001F901895DC01FB0184918F5F14968C9342
:100DB00014973196E491EF5F1596EC9315976E5F5B
:100DC0007F4F5F967C936E935E970895FC01643528
:100DD00008F053C0403308F050C090A1742F7595AF
:100DE00075957595262F062E000C330B542F5770D2
:100DF0009230A1F4F901E658FE4F84E57802E00D47
:100E0000F11D1124808190E0052E02C095958795F3
:100E10000A94E2F78095982F91700AC0933041F4BC
:100E200084858170462740954170841303C014C0A7
:100E3000911112C084E57802200D311D1124F901B1
:100E4000E658FE4F81E090E001C0880F5A95EAF71E
:100E500080959081892310C084E57802200D311D92
:100E60001124F901E658FE4F81E090E001C0880F9F
:100E70005A95EAF79081892B80830895DF92EF924B
:100E8000FF920F931F93CF93DF931F92CDB7DEB7DF
:100E90008C01D62EF42EE12CE21654F46E2D6D0D3D
:100EA0004F2DC80129830E94E606E3942981F4CFDF
:100EB0000F90DF91CF911F910F91FF90EF90DF90F6
:100EC0000895DF92EF92FF920F931F93CF93DF93DA
:100ED0007C01D62FD22EC42F002E000C110B040F34
:100EE000111D47FD1A954C2F0C2E000C550B401769
:100EF000510744F42D2D4C2F6D2FC7010E943E0742
:100F0000CF5FF1CFDF91CF911F910F91FF90EF90C5
:100F1000DF9008956F927F928F929F92AF92BF92CF
:100F2000CF92DF92EF92FF920F931F93CF93DF93B5
:100F3000EC016A3019F42D819885A1C06D3009F457
:100F4000A4C01885BA84D98488A083E58D150CF4D3
:100F50007FC08FE28B150CF47BC08C8190E00197F1
:100F6000189F9001199F300D1124C9018D0D911DFD
:100F7000D7FC9A95181619060CF06AC08D81819FCE
:100F8000C00111248B0D911DB7FC9A9518161906F6
:100F90000CF05EC09D2CCD2CE62EF12CEC2DED1925
:100FA0000E2E000CFF0B8C8190E0E817F9070CF077
:100FB0004EC00197E817F90779F0E89E9001E99E85
:100FC000300DF89E300D1124E20FF31F8E8D9F8D92
:100FD000E80FF91F749001C0712C6B2CAB2C2A2DDB
:100FE0002B19022E000C330B8D8190E02817390746
:100FF0005CF570FE10C0113031F44A2D6C2DCE011D
:101000000E94E6061DC0012F212F462D692DCE011D
:101010000E94610715C089A198A1891789F088A34A
:10102000113031F44A2D6C2DCE010E94E60607C026
:10103000012F212F462D692DCE010E94610788A224
:101040007694A394610ECBCFC394910EA7CF88A2C0
:1010500028853C818985329F800D112489879F8155
:10106000992399F0082E000C990B44E550E0239F3A
:10107000401951091124481759073CF49D818A856C
:10108000299F800D11248A87198681E090E0DF91E5
:10109000CF911F910F91FF90EF90DF90CF90BF9075
:1010A000AF909F908F907F906F900895DF92EF9216
:1010B000FF920F931F93CF93DF931F92CDB7DEB7AD
:1010C0008C01D62EF42EE12CE21654F44E2D4F0D49
:1010D0006D2DC80129830E94E606E3942981F4CF8F
:1010E0000F90DF91CF911F910F91FF90EF90DF90C4
:1010F0000895009719F19C01BC01990F880B990B79
:10110000121613065CF40E9409200E94ED200E9432
:10111000442020E030E040E85FE30AC00E9409205C
:101120000E94ED200E94442020E030E040E050E4A6
:101130000E94651F0E94D11FCB01089581E090E0BD
:101140000895CF93C0E02C2F30E040915F01509183
:1011500060018091080490910904241735076CF40C
:10116000220F331FFC01E20FF31F80819181009752
:1011700011F00E94F71DCF5FE6CF0E94F71D0E947D
:1011800013041092020410920104CF9108957F92EB
:101190008F929F92AF92BF92CF92DF92EF92FF9287
:1011A0000F931F93CF93DF93C0915A01D0915B01AE
:1011B0002196D0935B01C0935A0110926201109264
:1011C0006101209731F0C031D10528F0CFE0D0E0A7
:1011D00002C0C1E0D0E06E01CC0CDD1CC6010E9453
:1011E000621D7C01909309048093080481E090E0E3
:1011F0009093600180935F01F7011182108287E074
:1012000090E00E94621D8C01FC01108211828EE32D
:10121000828380E38383158214821682F70111830F
:1012200000838091690190916A01892B11F00E94DD
:101230001304C0936801C6010E94621D90936A0165
:1012400080936901F801C68395838483FC01118230
:101250001082F12C82E0882E912CA12CB12CDD245F
:10126000DA94CC24C39480916801F81608F051C038
:10127000F801228130E0E901229751F00E94DD1E41
:101280009E01DD0F440B550B0E94011F762E01C0FD
:10129000712CF801238130E0E901229751F00E947E
:1012A000DD1E9E01DD0F440B550B0E94011FE62E33
:1012B00001C0E12C84E090E00E94621DEC01788284
:1012C000E9820E94DD1EA50194010E94011F672B87
:1012D000682B692B11F0CA8201C0DA820E94DD1EE0
:1012E000A50194010E94011F672B682B692B11F047
:1012F000CB8201C0DB829091690180916A01E92F64
:10130000F82FEF0DF11DEF0DF11DD183C083F39484
:10131000AACF1092020410920104DF91CF911F9185
:101320000F91FF90EF90DF90CF90BF90AF909F9084
:101330008F907F9008954F925F926F927F928F92DD
:101340009F92AF92BF92CF92DF92EF92FF920F9354
:101350001F93CF93DF9300D000D01F92CDB7DEB79D
:101360004091FA035091FB036091FC037091FD03DF
:101370002FB7F8948091760190917701A091780130
:10138000B09179012FBF481B590B6A0B7B0B8091E1
:10139000F90390E0A0E0B0E00091F5031091F603AE
:1013A0002091F7033091F80384179507A607B70734
:1013B00030F4011511052105310509F021C3012B78
:1013C000022B032B09F01AC38091910381508E3FA9
:1013D00018F580919003813021F58091A4038F5FEF
:1013E0006091A50387FD09C0082E000C990B70E0E1
:1013F0006F5F7F4F0E94F521682F6093A4038DE5F6
:1014000095E09093FF038093FE0388E480930004AB
:101410008FE993E00E9457068091910381508E3F9F
:1014200070F480918F03813009F096C380E595E0D8
:101430009093FF038093FE0388E48093000480E090
:101440000E943F0F8091A003882309F4ADC08091D2
:10145000B4038111A9C08091AC039091AD03E091D8
:10146000B103F091B203EE0FFF1FE80FF91F459192
:1014700054914115510501F52091B003222331F01B
:101480001092B2031092B103FC0114C01092A00399
:1014900080919F03882341F080E00E943F0FE091FC
:1014A000B103F091B2032FC060E08FE993E00E9496
:1014B00077067AC0459154919A01369527953695CD
:1014C000279540FF51C0CA0116E0969587951A9559
:1014D000E1F78F71952F96959695969590512F706F
:1014E000223071F1F8F4211117C08B3008F08AE036
:1014F0008093B503E091B103F091B2033196F0937C
:10150000B203E093B103EE0FFF1F8091AC03909103
:10151000AD03E80FF91FCECF213061F760E00E94E4
:10152000AC0FE8CF2330B1F0243021F72091A30392
:10153000829F802D11248093BC039093BD03DACF4A
:101540002091A303829F802D11248093B803909350
:10155000B903D0CF2091A303829F802D11248093C3
:10156000BA039093BB03C6CF2F732093B30380912C
:10157000A303859F802D11248093B4031092C4038C
:101580001092C3031092C20381E08093B60380934C
:1015900071011092B7038091B1039091B20301964B
:1015A0009093B2038093B1038091B603882309F42A
:1015B000F3C08091B403811106C060E08FE993E02D
:1015C0000E947706E9C081508093B4038091C403E0
:1015D000811148C02091C2033091C3032F5F3F4F58
:1015E000C901880F991FE091BE03F091BF03E80F76
:1015F000F91F65917491862F87708093C503AB01A5
:10160000E3E056954795EA95E1F7CA0196958795E7
:10161000972F969596959093C6038F739091A303F9
:10162000899F802D11248093C403417040937501DC
:101630003093C3032093C2038091C00390E0281726
:10164000390780F02091C103222339F0821B9109D0
:101650009093C3038093C20305C060E08FE993E0D9
:101660000E9477068091C40381508093C4038091C7
:10167000B70321E0280F2093B7034091B3033091C3
:10168000C603340F8091AB03380F3093A1036091F0
:10169000BA03662371F070E0822F022E000C990BC2
:1016A0000E94F5218091BB03869F300D1124309359
:1016B000A1038091A10390E0849664E270E00E940F
:1016C000F5218093A1033091B5033093A20360917B
:1016D000B803662381F0062E000C770B822F022EB2
:1016E000000C990B0E94F5218091B903869F300D63
:1016F00011243093A2036091BC036623A1F0822FD2
:10170000220F990B70E00E94F521CB0162E070E09E
:101710000E94F5212091BD039091A203289F900D76
:1017200011249093A2038091A2034F3341F08A3099
:101730000CF089E087FD80E08093A20302C0109244
:10174000A203F894E091A103F0E0E458FC4FE49187
:10175000E09374013091A2032091C70332039001FA
:1017600011244091C5034203C001439F900D1124F1
:101770000090A40302C0880F991F0A94E2F797FF14
:1017800002C081589F4F880F892F881F990B809323
:10179000730180937201789480910004882309F486
:1017A00086C08C3020F49CE0E92EE81A01C0E12CC0
:1017B000FF24F394F092D0031092E8031092E9030F
:1017C0003091CD034DE2D42E1D2D131B1E0D03E0D1
:1017D000030F2EE4412F63E088EC93E03D830E94E9
:1017E00061073D810CEF030F1D5F202F41E0612F4A
:1017F00080E50E946510202F42E0612F83E00E9467
:101800006510F092E803F092E9030091CD03FD2CFE
:10181000F01AFE0C2EE44F2D63E088EC93E00E945A
:101820003E0713E0100F1F0D4FEF410F2EE463E052
:1018300088EC93E00E943E07035033E0F30E202F24
:101840004F2D60E088EC93E00E945608202F4F2D2A
:1018500063E588EC93E00E94560841E06F2D83E039
:101860000E94E70F42E06F2D80E50E94E70F1450C1
:1018700044E0612F80E50E94E70F48E0612F83E09C
:101880000E94E70F84E08093D1038091CD03E81A92
:101890008E2D815D8093D2038091FE039091FF0392
:1018A0000E94D90E809100048150809300048091A1
:1018B000960390919703892B09F478C011E0109357
:1018C000E8031092E9039091CC0385E5891B80938E
:1018D000D1031092D20380919303813009F449C05F
:1018E00030F090919203853008F05BC056C060E004
:1018F0008FE993E00E9477061092A0031093D00323
:101900006EEC73E088EC93E00E94D206109297038D
:10191000109296031092CE0318EA0E949B09882326
:10192000E1F380EC93E00E94D90E40919403509132
:10193000950360E070E02AE088EC93E00E944F0499
:101940008BEA93E00E94D90E412F42954F7050E0F0
:1019500060E070E02AE088EC93E00E944F0480EAA7
:1019600093E00E94D90E80918F03813009F0FAC074
:101970001DC08091EB039091EC03A091ED03B09119
:10198000EE038F709927AA27BB270897A105B105F9
:1019900010F487E009C088E707C0992339F08B5F0E
:1019A00003C0992319F08FE20E94C8100E94990E7B
:1019B0008091CE0381110EC088EF91E0EAE7F1E05B
:1019C000DF019C011D9221503040E1F71092D103BC
:1019D0001092D2030E94A3056093F5037093F6035F
:1019E0008093F7039093F8032091F1033091F20371
:1019F000621B730B7093F0036093EF0380E0CCC025
:101A00002FB7F8948091760190917701A091780199
:101A1000B09179012FBF2091F903820F911DA11D73
:101A2000B11D8093FA039093FB03A093FC03B09342
:101A3000FD038091EB039091EC03A091ED03B09135
:101A4000EE030196A11DB11D8093EB039093EC036F
:101A5000A093ED03B093EE031092F5031092F603FA
:101A60001092F7031092F8030E94A3056093F1030C
:101A70007093F2038093F3039093F40380917B03BC
:101A800090917C032FE0289F8001299F100D112445
:101A900085E10E948C05800F911F24E09695879523
:101AA0002A95E1F790937C0380937B0320917A033E
:101AB000222309F44BC060917E03262F30E040E0E2
:101AC00050E029833A834B835C83C0907F03D12C01
:101AD000E12CF12C40918203509183034A01A12C07
:101AE000B12C20918003309181032901612C712C4C
:101AF0008217930728F09C014817590708F49A01A8
:101B0000C901A0E0B0E09C01AD01241935094609E6
:101B1000570969817A818B819C816C197D098E09B5
:101B20009F090E94D921A50194012419350946096C
:101B300057090E94011FC20ED31EE41EF51EC0925B
:101B40007D036C2D70E085E00E942D050E94260E1D
:101B50000E94D31081E020C0893209F070CC0E942D
:101B60000A0F6DCC115009F0D8CE60E070E085E02E
:101B70000E942D0583B7817F846083BF83B7816016
:101B800083BF83B7816083BF889583B78E7F83BF10
:101B900083B78E7F83BFC1CE0F900F900F900F90B1
:101BA0000F90DF91CF911F910F91FF90EF90DF90F9
:101BB000CF90BF90AF909F908F907F906F905F90ED
:101BC0004F90089580910704209108049091090492
:101BD000E22FF92FE80FF11DE80FF11D0190F081C0
:101BE000E02D80910604909105048823B1F02091A6
:101BF0000304422F50E0292F30E0808190E0BA01A9
:101C0000621B730B86179707FCF0240F351F428168
:101C1000BC01640F711DAB0113C020910404622F3D
:101C200070E0292F30E0418150E0DB01A21BB30BB3
:101C30004A175B0754F0260F371F8381480F511D49
:101C400081E0241735070CF480E00895CF92DF92ED
:101C5000EF92FF920F931F93CF93DF93C4E8D3E0EB
:101C60000BE813E0FF24FA9497E0E92EE00E62E01F
:101C700088810E94F104288130E0F901ED51FA4F8A
:101C80008491F901E153FA4FC490F901E554FA4FF8
:101C9000D490DD2071F081110E949804ED2DF0E0C8
:101CA000EE0FFF1FEF54FA4FA591B491EC91EC2188
:101CB000B1F4F80180818F5F808360E088810E94A9
:101CC000F10421960F5F1F4FE012D1CFDF91CF912A
:101CD0001F910F91FF90EF90DF90CF900895F80142
:101CE0008081882371F3F8018F3F11F41082E5CFD2
:101CF000F082E3CFCF93C82FF89460E08091D703B0
:101D00000E94C1048091D80318161CF460E00E9460
:101D1000C104CEBD00000DB407FEFDCF8EB580918D
:101D2000D80318161CF461E00E94C1047894CF9186
:101D300008950F931F93CF938091D4038F5F809367
:101D4000D4030AE711E0C0E08C2F80640E947A0E71
:101D500080E80E947A0E61E08091D7030E94C1045E
:101D60008091D80318161CF460E00E94C10480E042
:101D700090E0F801E80FF91F20812EBD00000DB49E
:101D800007FEFDCF2EB501968435910591F7809120
:101D9000D80318161CF461E00E94C104CF5F0C5AEE
:101DA0001F4FC63089F680E4CF911F910F910C949C
:101DB0007A0E0F931F93CF93DF938C01C0E0D0E096
:101DC000F801EC0FFD1F6491662371F0E091C803E8
:101DD000F091C9030190F081E02D88EC93E0099522
:101DE000892B11F02196ECCFCE01DF91CF911F917D
:101DF0000F910895CF93DF930E94D90EEC016FE409
:101E000071E088EC93E00E943A048C0F9D1FDF91F3
:101E1000CF91089588EF91E0EAE7F1E0DF019C01BE
:101E20001D9221503040E1F71092D1031092D2035D
:101E300089E895E00E94D90E0E94990E8CB58360C6
:101E40008CBD8DB58E7F8DBD82E591E0EEEFFFE319
:101E500009951092CE0384E695E00E94FA0E0E9446
:101E6000990E0E94260E80918F03813039F062E333
:101E700070E080E090E00E94C805F3CF0895AF9233
:101E8000BF92CF92DF92EF92FF920F931F93CF9367
:101E9000DF93C82ED12CE601C658DC4F9DA19923B3
:101EA00009F44FC07E019FEFE91AF90AF70195A1E5
:101EB000911147C09EA58601000F111F06581C4FA7
:101EC000F80134A525A5E32FF22FE90FF11DE90F45
:101ED000F11D259134912F3FFFEF3F0711F41DA213
:101EE00030C039ABF601EE0FFF1FEC57FC4F332724
:101EF000220F331F05A0F6A1E02DE20FF31FA590DE
:101F0000B49081111AC060E08FE993E00E947706D7
:101F1000F801B3AAA2AAF601EE0FFF1FE457FC4F87
:101F200016A215A281E0F70185A389E08BAF1EAE52
:101F3000FE017B9615A2329615A229968DA18F5F80
:101F40008DA3DF91CF911F910F91FF90EF90DF90C4
:101F5000CF90BF90AF90089570E0DB01AA0FBB1F38
:101F6000A658BC4FD4962C91D497D5969C91D597D2
:101F7000E22FF92FE80FF11DE80FF11D25913491A3
:101F80005F9696963C932E939597F901859194913F
:101F90009091A303989F802D112466587C4FFB01DC
:101FA000B19685A3F901A591B4914B2F50E0E82F8C
:101FB000F0E04E175F0720F4F90125913491832F4B
:101FC000FB01B296899F802D112485A30895AF92BD
:101FD000BF92CF92DF92EF92FF920F931F93CF9316
:101FE000DF93182F062FC1E0D3E08AEFD82E9EEFA3
:101FF000E92E842F8470C82E842F8270B82E842FEF
:102000008870A82E4170F42E8C2F880F8F5FE80EF9
:10201000CC2081F04D2F400F6C2F610F88EC93E0A6
:102020000E94E6064C2F400F6D2F610F88EC93E065
:102030000E94E606BB2081F0402F4D1B6C2F610FE4
:1020400088EC93E00E94E606402F4C1B6D2F610F39
:1020500088EC93E00E94E606AA2081F04C2F400F06
:10206000612F6D1B88EC93E00E94E6064D2F400F18
:10207000612F6C1B88EC93E00E94E606FF2081F044
:10208000402F4C1B612F6D1B88EC93E00E94E606ED
:10209000402F4D1B612F6C1B88EC93E00E94E606DD
:1020A000CD1744F4E7FC04C0D150D394D394ED0C85
:1020B000CF5FAACFDF91CF911F910F91FF90EF904B
:1020C000DF90CF90BF90AF9008959F92AF92BF9254
:1020D000CF92DF92EF92FF920F931F93CF93DF93F4
:1020E000F82EE62EB22E03E0020FD0E0C3E08AEF16
:1020F000C82E1EEF842F8170982EAA24A394A20EBE
:102100004270D42EDF5F802F8B19180F9920A1F019
:102110002C2F220F2A0D4E2D4C1B6D2F6F0D88EC8E
:1021200093E00E945608202F4E2D4D1B6C2F6F0DF3
:1021300088EC93E00E945608DD20A1F02C2F220F9E
:102140002A0D4E2D4C1B6F2D6D1B88EC93E00E94C9
:102150005608202F4E2D4D1B6F2D6C1B88EC93E0E5
:102160000E945608DC1744F417FD04C0C150C39404
:10217000C3941C0D0E5FC6CFDF91CF911F910F91BD
:10218000FF90EF90DF90CF90BF90AF909F90089519
:10219000E091C803F091C9030190F081E02D682F10
:1021A00088EC93E009948091960390919703892B92
:1021B000B1F180919E038F7169F584E10E948C05D5
:1021C000BC01990F880B990B0E94092026EE3FE372
:1021D0004EEC50E40E9445210E94D81F9B01709351
:1021E000950360939403672B91F084E080939303AD
:1021F000E6E9F3E080E0419151912417350718F4A6
:102200008093930308958F5F8430A9F703C08FEF05
:102210008093930380919E038F5F80939E03089524
:102220008F929F92AF92BF92CF92DF92EF92FF92E6
:102230000F931F93CF93DF93FB0124913196C490AA
:10224000F090E803022E000C330B121613060CF06C
:10225000D7C080330CF0D4C0482F082E000C550B8B
:10226000FA01EC0DF11DC7FCFA951E161F060CF0C5
:10227000C7C06E5F7F4FD901179693E0B595A795BC
:102280009A95E1F787FF0BC0C80EA49FC001A59FD8
:10229000900DB49F900D1124681B790B80E04C2D9C
:1022A0000C2C000C550B480F511D87FD5A954133DE
:1022B00051051CF090E3C92EC81A2535310514F0DC
:1022C00024E530E01091D4031827982F977031E05F
:1022D00001C0330F9A95EAF7859585958595F4E5C4
:1022E0008F02C001112486589E4F00E00C2C000C78
:1022F000DD08BB24B394402F50E04C155D050CF075
:102300007FC0FB01E490F1E0FF1218C0FB01EC017B
:1023100040E8542F5E2119F05881532B588350E028
:10232000559547954115510519F43196E49040E8CB
:1023300021965C2F581B521760F359C0F1101AC038
:10234000A32EA094FB01EC0140E8542F5E2119F06C
:1023500058815A21588350E05595479541155105AC
:1023600019F43196E49040E821965C2F581B5217DF
:1023700060F33DC043E0F41223C0932E9094FB0120
:10238000EC0140E8A82E8C2E881A542F5E2141F0D3
:102390008126588180FE02C0532B01C059215883E9
:1023A00050E0559547954115510519F43196E49043
:1023B00040E821965C2F5A19521728F31B2517C0A5
:1023C000FB01EC0140E8542F5E2119F0588153279E
:1023D000588350E0559547954115510519F43196AC
:1023E000E49040E821965C2F581B521760F3330F9E
:1023F00019F48C5A9F4F31E00F5F6A0F7B1F7BCF20
:10240000DF91CF911F910F91FF90EF90DF90CF90D0
:10241000BF90AF909F908F900895CF92DF92EF92F0
:10242000FF920F931F93CF93DF932091EA03222310
:1024300009F4E5C0EC0181E08093D0031092CF0352
:102440001092CE03109292038093E8038093E903E5
:102450001CE00E949B098823E1F3FE0184918823FC
:1024600019F00091CD0301C000E063E176E080E067
:102470000E94101163E876E08CE0800F0E9410113A
:102480001092D1031093D203CE010E94D90E8091F5
:10249000CC03982F990F890F81958D5A8093D10382
:1024A0008091CD03982F990F890F8195835D80933B
:1024B000D2038091EB0384FF03C08FE096E002C05B
:1024C0008BE096E00E94FA0E8091CC03982F990F32
:1024D000890F81958D5A8093D1038091D2038F5FAC
:1024E0008093D2038091A403882319F087E096E0BB
:1024F00002C083E096E00E94FA0E9091CC03892FEF
:10250000880F980F91959D5A9093D1038091D20393
:102510008F5F8093D2038FEF95E00E94FA0E809137
:1025200090038130B1F48091A4038F5F6091A50383
:1025300087FD09C0082E000C990B70E06F5F7F4F7C
:102540000E94F521682F6093A4038FE993E00E9415
:10255000570680918F038130A9F08091EA03482FBC
:1025600050E060E070E0C090EB03D090EC03E090AE
:10257000ED03F090EE03C416D506E606F706B8F1B3
:102580008F3FA9F18FEF8093EA0360E08FE993E03A
:102590000E9477061092A0031092B6031092B40323
:1025A0001092C3031092C2031092B70310927201EB
:1025B00010927301109271010E944C0687EF95E012
:1025C0009093AD038093AC031092B2031092B103C9
:1025D00081E08093A00399E09093B5031092B80333
:1025E0001092BA031092BC038093920308C08091AA
:1025F0009103813009F02DCF0E940A0F2ACFDF917D
:10260000CF911F910F91FF90EF90DF90CF900895A1
:10261000CF93DF93BC0188EC93E00E943A04EC0175
:102620006FE471E088EC93E00E943A048C0F9D1FE8
:10263000DF91CF910895CF93DF93AC0160E070E01C
:102640002AE088EC93E00E944F04EC016FE471E013
:1026500088EC93E00E943A048C0F9D1FDF91CF918C
:102660000895CF93DF93CDB7DEB72B970FB6F894CD
:10267000DEBF0FBECDBF789484B5826084BD84B5C3
:10268000816084BD85B5826085BD85B5816085BD6D
:1026900080916E00816080936E0010928100809125
:1026A00081008260809381008091810081608093AD
:1026B0008100809180008160809380008091B100D2
:1026C00084608093B1008091B00081608093B000FD
:1026D00080917A00846080937A0080917A00826091
:1026E00080937A0080917A00816080937A00809153
:1026F0007A00806880937A001092C10082E3809310
:10270000F90381E090E0A0E0B0E08093F5039093BE
:10271000F603A093F703B093F8038FEF8093EA03D7
:10272000E0E8F7E7259134912130304C09F049C0B9
:10273000E6E9F7E7E491E093D303E7E9F7E7E4910B
:10274000E0937E03E8E9F7E7E491E0937F03E9E9AA
:10275000F7E7859194919093810380938003EBE94F
:10276000F7E785919491909383038093820388E0A7
:102770008093A503EEE9F7E7E491E093A403EFE982
:10278000F7E7E491E093EA03E0EAF7E785919491B3
:102790009093970380939603E2EAF7E785919491EB
:1027A0009093990380939803E4EAF7E785919491D5
:1027B00090939B0380939A03E6EAF7E785919491BF
:1027C0002CC09CE39093D30310927E0380937F03ED
:1027D00080E293E0909381038093800384ED93E003
:1027E000909383038093820388E08093A503809372
:1027F000A4038CEA9DE090939703809396038EED5B
:102800009DE0909399038093980384E79EE09093D2
:102810009B0380939A038CE39FE090939D038093A6
:102820009C0311E010937A036FEF70E085E00E9443
:102830002D0588E08093840389E08093850387E0F9
:102840008093860386E08093870304E000938803E7
:1028500082E08093890381E180938A030E94260E9F
:102860008CE39FE0909395038093940300939303EC
:1028700010939E038BE08093D6038DE08093D50365
:1028800080E18093D7038EE08093D9038FE080931B
:10289000D8031093D0031093E8031092E903109328
:1028A000CF036EEC73E088EC93E00E94D2061FB772
:1028B000F89480916301811127C0E5ECF5E08491E3
:1028C000E9EDF5E09491E82FF0E0EE0FFF1FE25301
:1028D000FF4FA591B491EC91E92321F461E08AE0E6
:1028E0000E94C10461E08AE00E94F1048CB580611D
:1028F0008CBD8CB580648CBD61E08DE00E94F104DC
:1029000061E08BE00E94F104809163018F5F80930E
:1029100063011FBF8CB58F7D8CBD8CB58C7F8160B2
:102920008CBD8DB581608DBD8CB58C608CBD61E03A
:102930008091D6030E94F10461E08091D5030E944A
:10294000F10461E08091D7030E94F1048091D903E2
:1029500018161CF461E00E94F1048091D803181647
:102960001CF461E00E94F1048091D903181674F4FC
:1029700060E00E94C1046AE070E080E090E00E94A4
:10298000C80561E08091D9030E94C1048091D503FC
:10299000082E000C990BFC01E554FA4FE491F0E08D
:1029A000EE0FFF1FE852FF4F259134913093DD0366
:1029B0002093DC03FC01E153FA4FE491E093E3033D
:1029C0008091D603082E000C990BFC01E554FA4FB8
:1029D000E491F0E0EE0FFF1FE852FF4F2591349194
:1029E0003093DB032093DA03FC01E153FA4FE491C7
:1029F000E093E2038091D803082E000C990BFC01B0
:102A0000E554FA4FE491F0E0EE0FFF1FE852FF4F5C
:102A1000259134913093DF032093DE03FC01E153D1
:102A2000FA4FE491E093E4038091D703082E000C61
:102A3000990BFC01E554FA4FE491F0E0EE0FFF1F13
:102A4000E852FF4F259134913093E1032093E00346
:102A5000FC01E153FA4FE491E093E50381E20E9427
:102A60007A0E84E10E947A0E8091D30387FF03C01F
:102A70008FE78093D3038091D30380680E947A0EFE
:102A800080E20E947A0E8CE00E947A0E0E94990EDB
:102A900011E01093A30384E08093C7038AEC90E0D5
:102AA0009093AF038093AE0360E080E00E94AC0F90
:102AB00061E070E083E00E942D058091B100887F85
:102AC00081608093B100F894109280001092810090
:102AD000109285001092840088E191E09093890023
:102AE000809388008091810088608093810080912C
:102AF000810081608093810080916F00826080936B
:102B00006F0078940E94D31080919003813019F463
:102B10001092A4031EC0809193038823C9F360E040
:102B20008FE993E00E94770682EE90E09093AD03E8
:102B30008093AC031092B2031092B1031093A003E0
:102B400089E08093B5031092B8031092BA031092F3
:102B5000BC0380EF90E00E940D12C0909403D090CF
:102B60009503C094D094E12CF12C0E94A3054B0155
:102B70005C010E94A305A501940120953095409524
:102B8000509560957095809590950E94D9219B01F4
:102B9000AC01C701B6010E94D9214B015C018091B3
:102BA0007B0390917C036C01E12CF12C0E94A30526
:102BB000C60ED71EE81EF91EC701B601680D791DA5
:102BC0008A1D9B1D611571058105910511F00E94FB
:102BD000E21E1092920300E011E07801C12CD12C8A
:102BE000C6010E94EB1ED7019D917D019817C1F08F
:102BF000F80161918F0180E090E069870E94EB1EEF
:102C00006985681721F080E090E00E94F31EF1E0F2
:102C100003301F0769F7109265011092640113C019
:102C20002FEFC21AD20A33E0C316D104C9F683E0EB
:102C300090E00E94EB1E8093640184E090E00E948B
:102C4000EB1E809365010E94C7082224239433243D
:102C50003A94AA24A3940E949B09882309F4AEC441
:102C60008091030190910401892B09F0BFC08FE08E
:102C70008093D1038AE08093D20362EF70E088EC06
:102C800093E00E94D20668E171E088EC93E00E9434
:102C90003A0420916601309167018091640190911E
:102CA000650182179307D0F58CE08093D1038EE104
:102CB0008093D20382E291E00E9408138091660122
:102CC000909167010E9479082EEF3FEF281B390B86
:102CD00046E0429FC001439F900D11248B5A9F4FA5
:102CE00097FD0196959587958093D1036DE271E0EC
:102CF00088EC93E00E943A0440916601509167018C
:102D000060E070E02AE088EC93E00E944F046DE2FE
:102D100071E088EC93E00E943A0423C08BE1809339
:102D2000D1038EE18093D2038FE291E00E940813D9
:102D30000091660110916701C8010E9479082AEF8D
:102D4000AC012403C001259F900D11248B5A9F4F85
:102D500097FD0196959587958093D103C8010E94B0
:102D60001B1380918F038130D9F5609166017091BA
:102D70006701809164019091650186179707F0F4CF
:102D8000709365016093640183E090E069870E941D
:102D9000EB1E6985681721F083E090E00E94F31E26
:102DA0006091650184E090E069870E94EB1E69856F
:102DB000681721F084E090E00E94F31E10926701F2
:102DC0001092660110925B0110925A0185E090E02A
:102DD00090930401809303010E94A1080E94C708F8
:102DE00080919103813009F0E9C3E4C380916101CE
:102DF000909162018C3F984008F444C08BE180932D
:102E0000D10385E08093D20362EF70E088EC93E019
:102E10000E94D20685E391E00E94081300915A01B6
:102E200010915B01C8010E9479082AEFAC012403CC
:102E3000C001259F900D11248B5A9F4F97FD01963D
:102E4000959587958093D103C8010E941B1315E1C6
:102E50001093D1038BE391E00E9408131093D103E8
:102E600083E28093D20383E491E00E94081380916F
:102E70008F03813009F4AAC380919103813009F056
:102E80009DC3A9C3E12C00915F01109160018E2DBB
:102E900090E0801791070CF0C6C0880F991FE09151
:102EA0000804F0910904E80FF91F60807180F12C8B
:102EB000F3018681F81608F0B4C0D3011396BC90D4
:102EC000139711969C9011974C910F2D10E02801AB
:102ED000440C551C1496ED91FC911597E40DF51DCD
:102EE000C080D180F6015081252F30E012968C9160
:102EF00090E0840F911D029762812817390711F421
:102F0000161624F054130BC067FF09C06195D60153
:102F100012966C938FE993E00E94570603C0560FF8
:102F2000F6015083D60111964C911197242F30E071
:102F30008B2D90E0890D911D029713965C912817B7
:102F4000390711F4151624F049110AC057FF08C0BB
:102F50005195F60153838FE993E00E94570604C010
:102F6000450FD60111964C93F394BF2CD3011696BE
:102F70008C91B81608F09CCFF30184819581FC01F7
:102F8000EB0DF11DEB0DF11DA081B181FC01E40DF4
:102F9000F51D0190F081E02D11968C9111972C91E7
:102FA00030E04181608170E06B0112E0C10ED11C04
:102FB0002C153D05A4F5690152E0C50ED11C6C1518
:102FC0007D056CF590E050E06A0112E0C10ED11C65
:102FD0008C159D0524F56C0112E0C10ED11C4C1519
:102FE0005D05ECF4D2801D140CF0F8C26F5F7F4FCA
:102FF0002617370721F4328212962C9212972381DA
:1030000012160CF0F9C24F5F5F4F8417950719F441
:10301000338213962C928FE993E00E945706B39463
:10302000A5CFE39430CF80910104909102040197E1
:1030300009F075C2809105048F5F8093050420918B
:103040000804309109043A83298390910704F90117
:10305000E90FF11DE90FF11D408151815B874A871E
:10306000DA011696BC91BB83B0900604409003042D
:10307000512C90E03201681A790A4C01880C991C95
:10308000F4013196FD83EC83C0900404D12CA60199
:10309000481B590B80E090E02B81821708F08EC00E
:1030A000AA85BB8514966D917C9115979C01220F82
:1030B000331FFB01E20FF31F0190F081E02DBB20D5
:1030C000B9F13C9112962C91230F2150A32FB0E01F
:1030D00030E06A167B0634F0B901621673061CF400
:1030E000B30101C0BD012A1B3B0B8216930614F4E9
:1030F0002C813D81F180A081B0E0260F371FA217FF
:10310000B3070CF059C012966A177B070CF054C035
:103110002F2D30E0C216D3060CF44EC02E5F3F4F69
:10312000C216D3060CF048C083818195838336C0D4
:10313000AA85BB8511963C91119713962C91230F6C
:103140002150A32FB0E030E04A175B0734F0B901FB
:10315000421753071CF4BA0101C0BD012A1B3B0BE7
:103160008216930614F42C813D81A181E080F12C1C
:103170004E145F040CF1B2E0EB0EF11C4E145F0430
:10318000DCF4B0E0260F371FA217B307ACF4129699
:103190006A177B078CF48281819582838FE993E0A3
:1031A0000E9457068091030190910401019790932A
:1031B000040180930301AFC101966ECF0E94E20D1E
:1031C000882309F4ACC1809106047801EE0CFF1C41
:1031D000882309F44BC0D0900404AA85BB851396BC
:1031E0000C91139711968C91080F01500D1987E0DF
:1031F00090E00E94621DFC01AA85BB8512968C910D
:1032000012979C919083D394D182828303831582F9
:1032100014821682A981BA81AE0DBF1DED93FC9375
:103220008091080490910904FC01EE0DFF1D0190AE
:10323000F081E02DAA85BB8516962C9116971496E1
:103240004C91149715963C911597842F932F820FCC
:10325000911D820F911D95838483809104041196A2
:103260009C911197891B13968C9346C0D0900304B0
:10327000EA85FB8502818081080F01500D1987E0E6
:1032800090E00E94621DFC01AA85BB8513968C917B
:10329000139711969C91D394D08291830283838358
:1032A000158214821682A981BA81AE0DBF1DED93DD
:1032B000FC938091080490910904FC01EE0DFF1D20
:1032C0000190F081E02DAA85BB8516962C9116976A
:1032D00014964C91149715963C911597842F932F23
:1032E000820F911D820F911D958384838091030429
:1032F0009C91891B12968C93EA85FB85168280909F
:103300005F0190906001B401660F771F1B81812FD0
:1033100090E0AA85BB851696BC90A0910804B09158
:103320000904A60FB71FED90FC901197F7011681C5
:10333000412E512C2B2D30E0A901440D551D48176D
:1033400059070CF040C0AA85BB8514960D911C91BD
:103350001597F901EE0FFF1F9F01200F311F3A83D0
:103360002983F901A081B18111962C9111974C917B
:1033700050E0EA85FB8573806180E080F12C32812A
:103380006701C30ED11C4C155D050CF041C14E5FA9
:103390005F4FE416F5060CF03BC130E0462D50E0DF
:1033A0007A01E70CF11C2E153F050CF031C12E5FA0
:1033B0003F4F421753070CF02BC1B394AA85BB852E
:1033C0001696BC92A6CF80916601909167012091DC
:1033D00061013091620150910604111123C04281B4
:1033E0006381552349F070E06F5F7F4F469F8001F6
:1033F000479F100D112408C050E04F5F5F4F649F3E
:103400008001659F100D1124800F911F909367011B
:1034100080936601200F311F309362012093610178
:10342000F70152C0B11059C0EA85FB856381428122
:10343000552349F070E06F5F7F4F469F8001479FA3
:10344000100D112408C050E04F5F5F4F649F800152
:10345000659F100D1124800F911F90936701809339
:103460006601200F311F3093620120936101F70143
:103470008081EA85FB858083ED91FC9111978181A4
:10348000EA85FB858183ED91FC9111978281EA8524
:10349000FB858283ED91FC9111978381EA85FB8501
:1034A0008383ED91FC91119784819581EA85FB8559
:1034B00095838483ED91FC9111978681EA85FB8544
:1034C0008683ED91FC911197158214828D919C91C8
:1034D000009709F10E94F71D1EC0552329F0AA8507
:1034E000BB8512964C9103C0EA85FB85438150E071
:1034F000840F951F9093670180936601240F351FF9
:103500003093620120936101FFEF8F1A9F0A90921E
:10351000600180925F011092020410920104809178
:103520008F038130B1F5B8C04F5F5F4F4C155D051B
:1035300084F5F401219131914F01F901F3809281D9
:103540008181208130E0A217B30774F3290F311D68
:10355000A217B3074CF790E0681779072CF38F0D8B
:10356000911D6817790704F780915E01882309F49B
:10357000ADC00093030410930404A09206041092BB
:1035800005044093070421E030E0309302042093C7
:10359000010480919003813009F4A9C080919103C6
:1035A000813009F4AAC080918C0381508E3F08F0CD
:1035B000C0C0A8C081EF90E00E940D1280E090E0B2
:1035C000892B09F448CB0E94000045CB0E94A1083A
:1035D0000E94C70851CC84E793E0EECFDD2009F4C8
:1035E0000ECD2F5F3F4F6217730709F008CD22827F
:1035F00012963C92129703CD222309F40CCD01962A
:103600004817590709F007CD238213963C9203CD42
:103610009C012419350921503048220F331F020F15
:10362000131FF80120813181E981FA8131832083E0
:10363000E0910804F0910904E60FF71F0190F08172
:10364000E02D2681FC01E21BF109E150F048AF01B9
:10365000440F551FEA85FB8524813581FA01E20F6D
:10366000F31FB183A083E0910804F0910904E60FF1
:10367000F71FA081B18114962D913C91159722508E
:10368000310915963C932E9314970190F081E02D0B
:1036900026812F5F26833DCE809101049091020404
:1036A000892B09F076CFC0905F01D0906001109116
:1036B0005D0100915C01A02FB0E0612F70E080906F
:1036C00008049090090440E050E030CF00930304D8
:1036D000109304041092060410920504409307040A
:1036E00041E050E0509302044093010452CF909186
:1036F0005E01892780935E0151CF85E793E00E94A8
:103700000D1251CF80915D01282F30E02115310538
:1037100071F02133310514F4815001C08FE28093A0
:103720005D0180918B0381508E3F88F496C180E0CB
:10373000F6CF80918E0381508E3F98F780915D0186
:10374000282F30E02F3231054CF78F5FE8CF809182
:103750008D0381508E3F08F492C148EF51E06FEF26
:103760007FEF8AE791E00E9428221092E8031092EE
:10377000E90300E325E140E06FE388EC93E00E9479
:103780006107A092E803A092E90310E41093D1032B
:10379000A092D2036EEC73E088EC93E00E94D20614
:1037A00085E391E00E940813E0905A01F0905B01DC
:1037B000C7010E947908A5E1B0E0A81BB90BCD01B3
:1037C000880F880F8093D103C7010E941B131093A9
:1037D000D1038FE291E00E940813E0906601F0901F
:1037E0006701C7010E947908E5E1F0E0E81BF90BE9
:1037F000CF01880F880F8093D103C7010E941B134C
:103800001093D10310E0812F90E0209103013091BB
:1038100004018217930740F46BE471E088EC93E0B5
:103820000E943A041F5FEFCF209161013091620145
:10383000A4E6B0E00E94551F20EA3BE040E050E0E3
:103840000E94331FBA01A901CA014E835F836987B1
:1038500078870E94790824E130E0281B390BC901E0
:10386000880F880F8093D1038FE18093D2032AE0E1
:103870004E815F816985788588EC93E00E944F04D2
:103880006DE471E088EC93E00E943A041092E80342
:103890001092E90310E080905F0190906001812F09
:1038A00090E088159905ACF4880F991FE091080401
:1038B000F0910904E80FF91F0190F081E02D0381D8
:1038C00022814181608188EC93E00E9461071F5F43
:1038D000E2CFA092E803A092E903809101049091C5
:1038E0000204892B09F465C0409106043091080454
:1038F000209109049091070480910504E32FF22F91
:10390000E90FF11DE90FF11DA081B181442341F1BF
:10391000EC9112962C912E0F21504091030450E00F
:1039200090E0481B590BF0E030E04E175F0734F091
:10393000622F421753071CF4642F01C06E2F880FAB
:10394000991F2E1B3F0B821793071CF49C012F5FBE
:103950003F4F4091040488EC93E00E943E0729C049
:103960001196EC91119713962C912E0F2150609186
:10397000040470E090E0681B790BF0E030E06E1713
:103980007F0734F0422F621773071CF4462F01C0E3
:103990004E2F880F991F2E1B3F0B821793071CF485
:1039A0009C012F5F3F4F6091030488EC93E00E94DD
:1039B000560882E08093E8038093E90380915E01DA
:1039C000882359F060915C01615023E040915D01D2
:1039D00088EC93E00E943E070AC040915D0141508F
:1039E00023E060915C0188EC93E00E945608A0926D
:1039F000E803A092E90310E0812F90E08815990573
:103A00000CF0DCCD880F991F209108043091090437
:103A1000F901E80FF91FE080F180D12CF7018681D0
:103A2000D816C8F4D70114969C91149715968C91CA
:103A3000E92FF82FED0DF11DED0DF11D0190F08135
:103A4000E02D02E022E04181608188EC93E00E9459
:103A50006107D394E3CF1F5FCFCF80915C01282F04
:103A600030E02115310549F02F33310514F4815030
:103A700001C08DE380935C0170CE80E0FBCF80912C
:103A80005C01282F30E02D3331059CF78F5FF2CF9A
:103A90001092CB031092CA0384E191E09093C90382
:103AA0008093C803ECE5F1E08DE1808388E18183B8
:103AB00081E08283E1E0F4E0128213821482858344
:103AC00016820895CF93DF938230910510F482E03F
:103AD00090E0E0910C04F0910D0420E030E0C0E0B3
:103AE000D0E0309711F14081518148175907C0F05B
:103AF0004817590761F482819381209719F09B83BD
:103B00008A832BC090930D0480930C0426C021154A
:103B1000310519F04217530718F49A01BE01DF016D
:103B2000EF010280F381E02DDCCF2115310509F191
:103B3000281B390B2430310590F412968D919C91FD
:103B400013976115710521F0FB019383828304C0F3
:103B500090930D0480930C04FD01329644C0FD0146
:103B6000E20FF31F81939193225031092D933C93DF
:103B70003AC020910A0430910B04232B41F4209188
:103B800008013091090130930B0420930A0420911D
:103B90000601309107012115310541F42DB73EB7DB
:103BA00040910A0150910B01241B350BE0910A044E
:103BB000F0910B04E217F307A0F42E1B3F0B28171C
:103BC000390778F0AC014E5F5F4F2417350748F096
:103BD0004E0F5F1F50930B0440930A0481939193FF
:103BE00002C0E0E0F0E0CF01DF91CF9108950F93A4
:103BF0001F93CF93DF93009709F48CC0FC01329799
:103C00001382128200910C0410910D04011511050C
:103C100081F420813181820F931F20910A04309119
:103C20000B042817390779F5F0930B04E0930A0485
:103C300071C0D80140E050E0AE17BF0750F41296B3
:103C40002D913C911397AD012115310509F1D90151
:103C5000F3CF9D01DA013383228360817181860F66
:103C6000971F8217930769F4EC0128813981260F89
:103C7000371F2E5F3F4F318320838A819B8193833F
:103C80008283452B29F4F0930D04E0930C0442C089
:103C90001396FC93EE931297ED01499159919E0171
:103CA000240F351FE217F30771F480819181840F8F
:103CB000951F029611969C938E9382819381139601
:103CC0009C938E931297E0E0F0E0D80112968D91CC
:103CD0009C911397009719F0F8018C01F6CF8D9104
:103CE0009C9198012E5F3F4F820F931F20910A04F1
:103CF00030910B042817390769F4309729F4109292
:103D00000D0410920C0402C01382128210930B0453
:103D100000930A04DF91CF911F910F9108958F9224
:103D20009F92AF92BF92CF92DF92EF92FF92CF938A
:103D3000DF93EC01688179818A819B81611571052E
:103D40008105910521F464E279ED8BE597E02DE1A1
:103D500033EF41E050E00E94011F49015A019B01ED
:103D6000AC01A7EAB1E40E94201F6B017C01ACEE1C
:103D7000B4EFA50194010E942E1FDC01CB018C0D34
:103D80009D1DAE1DBF1DB7FF03C00197A109B0481F
:103D900088839983AA83BB83BC01CD019F77DF9180
:103DA000CF91FF90EF90DF90CF90BF90AF909F901A
:103DB0008F9008950E948F1E08958CE091E00E94DC
:103DC0008F1E089560930C0170930D0180930E0176
:103DD00090930F010895F999FECF92BD81BDF89A95
:103DE000992780B50895262FF999FECF1FBA92BD65
:103DF00081BD20BD0FB6F894FA9AF99A0FBE0196CC
:103E00000895052E97FB1EF400940E94181F57FD7D
:103E100007D00E94331F07FC03D04EF40C94181FE8
:103E200050954095309521953F4F4F4F5F4F0895E6
:103E300090958095709561957F4F8F4F9F4F089516
:103E40000E94551FA59F900DB49F900DA49F800DBB
:103E5000911D11240895B7FF0C94201F0E94201F6C
:103E6000821B930B0895A1E21A2EAA1BBB1BFD0116
:103E70000DC0AA1FBB1FEE1FFF1FA217B307E40749
:103E8000F50720F0A21BB30BE40BF50B661F771FA1
:103E9000881F991F1A9469F7609570958095909581
:103EA0009B01AC01BD01CF010895A29FB001B39F5A
:103EB000C001A39F700D811D1124911DB29F700D33
:103EC000811D1124911D08955058BB27AA270E94D7
:103ED0007C1F0C949B200E948D2038F00E9494201F
:103EE00020F039F49F3F19F426F40C948A200EF444
:103EF000E095E7FB0C945B20E92F0E94AC2058F37F
:103F0000BA17620773078407950720F079F4A6F5BE
:103F10000C94E6200EF4E0950B2EBA2FA02D0B0189
:103F2000B90190010C01CA01A0011124FF27591BFE
:103F300099F0593F50F4503E68F11A16F040A22F04
:103F4000232F342F4427585FF3CF46953795279575
:103F5000A795F0405395C9F77EF41F16BA0B620B74
:103F6000730B840BBAF09150A1F0FF0FBB1F661FBB
:103F7000771F881FC2F70EC0BA0F621F731F841FFE
:103F800048F4879577956795B795F7959E3F08F024
:103F9000B0CF9395880F08F09927EE0F97958795E6
:103FA00008950E94D81F6894B1110C94E7200895D9
:103FB0000E94B42088F09F5798F0B92F9927B751E5
:103FC000B0F0E1F0660F771F881F991F1AF0BA95BD
:103FD000C9F714C0B13091F00E94E620B1E0089515
:103FE0000C94E620672F782F8827B85F39F0B93F07
:103FF000CCF3869577956795B395D9F73EF4909570
:104000008095709561957F4F8F4F9F4F0895E894ED
:1040100009C097FB3EF490958095709561957F4F10
:104020008F4F9F4F9923A9F0F92F96E9BB279395BE
:10403000F695879577956795B795F111F8CFFAF4CE
:10404000BB0F11F460FF1BC06F5F7F4F8F4F9F4FFF
:1040500016C0882311F096E911C0772321F09EE85D
:10406000872F762F05C0662371F096E8862F70E0C3
:1040700060E02AF09A95660F771F881FDAF7880F9D
:104080009695879597F908950E94CE2090F09F37D6
:1040900048F4911116F00C94E72060E070E080E89D
:1040A0009FEB089526F41B16611D711D811D0C9454
:1040B00061200C947C2097F99F6780E870E060E0B5
:1040C0000895882371F4772321F09850872B762F59
:1040D00007C0662311F499270DC09051862B70E01C
:1040E00060E02AF09A95660F771F881FDAF7880F2D
:1040F0009695879597F908959F3F31F0915020F458
:10410000879577956795B795880F911D96958795B3
:1041100097F908959FEF80EC089500240A941616ED
:10412000170618060906089500240A9412161306A5
:10413000140605060895092E0394000C11F4882333
:1041400052F0BB0F40F4BF2B11F460FF04C06F5F4F
:104150007F4F8F4F9F4F089557FD9058440F551F25
:1041600059F05F3F71F04795880F97FB991F61F0F9
:104170009F3F79F087950895121613061406551F70
:10418000F2CF4695F1DF08C0161617061806991FDC
:10419000F1CF869571056105089408950E94B420B9
:1041A000A0F0BEE7B91788F4BB279F3860F4161655
:1041B000B11D672F782F8827985FF7CF8695779561
:1041C0006795B11D93959639C8F30895E894BB2778
:1041D00066277727CB0197F908950E94FD2029EDE6
:1041E0003BE54EED5EE30C94452116F00C947C20EB
:1041F0000C948A2068940C945B200E94B420A8F34D
:104200009923C1F3AEF3DF93CF931F930F93FF92E4
:10421000C92FDD2788232AF02197660F771F881F73
:10422000DAF720E030E040E85FEB9FE3883920F0E8
:10423000803E38F021968F770E94651FE8E6F0E017
:1042400004C00E94651FE5E9F0E00E94B2218B01E5
:10425000BE01EC01FB2E6F5771097595771F880B16
:10426000990B0E94092028E132E741E35FE30E94B5
:104270005821AF2D9801AE01FF900F911F91CF9162
:10428000DF910E947C1F0C949B200E9458210C946B
:104290009B200E948D2038F00E94942020F09523CE
:1042A00011F00C945B200C948A2011240C94E720CC
:1042B0000E94AC2070F3959FC1F3950F50E0551FFD
:1042C000629FF001729FBB27F00DB11D639FAA276B
:1042D000F00DB11DAA1F649F6627B00DA11D661FBA
:1042E000829F2227B00DA11D621F739FB00DA11DDB
:1042F000621F839FA00D611D221F749F3327A00D95
:10430000611D231F849F600D211D822F762F6A2F30
:1043100011249F5750409AF0F1F088234AF0EE0F95
:10432000FF1FBB1F661F771F881F91505040A9F7C2
:104330009E3F510580F00C945B200C94E7205F3F7A
:10434000E4F3983ED4F3869577956795B795F795FE
:10435000E7959F5FC1F7FE2B880F911D9695879576
:1043600097F90895DF93CF931F930F93FF92EF92E6
:10437000DF927B018C01689406C0DA2EEF010E9467
:104380005821FE01E894A5912591359145915591CB
:10439000A6F3EF010E947C1FFE019701A801DA94A9
:1043A00069F7DF90EF90FF900F911F91CF91DF9110
:1043B0000895DB018F939F930E94201FBF91AF91BF
:1043C000A29F800D911DA39F900DB29F900D11246F
:1043D0000895991B79E004C0991F961708F0961B61
:1043E000881F7A95C9F78095089597FB072E16F4D4
:1043F000009407D077FD09D00E94092207FC05D060
:104400003EF4909581959F4F0895709561957F4FEB
:104410000895AA1BBB1B51E107C0AA1FBB1FA6170B
:10442000B70710F0A61BB70B881F991F5A95A9F75D
:1044300080959095BC01CD010895EE0FFF1F05906A
:10444000F491E02D099481E090E0F8940C942F22EF
:10445000DC0101C06D9341505040E0F70895F8949D
:02446000FFCF8C
:104462002A0C1C05000100000E048000010000005F
:10447200000000008A07E60347616D65204F7665FC
:104482007200486967682073636F7265000F00539A
:10449200636F7265004C6576656C00636C65617272
:1044A2006564005072657373201500030025000DCA
:0A44B2000A004C4F4144455200003F
:00000001FF
