:100000000C9463030C948B030C948B030C948B0360
:100010000C948B030C948B030C948B030C948B0328
:100020000C948B030C948B030C948B030C948621FF
:100030000C948B030C948B030C948B030C948B0308
:100040000C94F9210C948B030C948B030C948B036C
:100050000C948B030C948B030C948B030C948B03E8
:100060000C948B030C948B0347616D65204F766570
:1000700072210047616D65204F76657221004761EE
:100080006D65204F766572210047616D65204F7662
:100090006572210047616D65204F766572210047CA
:1000A000616D65204F766572210047616D65204F57
:1000B000766572210047616D65204F76657221007B
:1000C00047616D65204F766572210047616D65203F
:1000D0004F766572210047616D6520262057617457
:1000E00063683A2042414C4C0047616D65202620F0
:1000F00057617463683A2042414C4C00070100018B
:1001000047616D6520420047616D65204100100523
:10011000C180E30076003C0018000808060C0C0EB5
:100120000E6EF6FC0805A0E060C0800805A0E02087
:1001300010100806A0E030180C0430300000000059
:1001400000000000000000000000000000000000AF
:10015000000000000000000000000000000000009F
:10016000000000000000000000000000000000008F
:10017000000000000000000000000000000000007F
:10018000000000000000000000000000000000006F
:10019000000000000000000000000000000000005F
:1001A000000000000000000000000000000000004F
:1001B00000000000000000000000800000000000BF
:1001C000C00000000000B40000000000FC000000BF
:1001D0000000FC0000000000FC0000000000F40033
:1001E00000000000C000000000008000000000408F
:1001F000C000000000C0E000000001C0F0000000EE
:1002000003C0F000000007C0F78000000FC0F7F047
:1002100000000FC0F07000000FC0E00000000FC031
:10022000C00000000FC0000000000FC00000000070
:100230000FC0000000000FC0000000000FC0000051
:1002400000000FC0000000000FC0000000000FC041
:10025000000000000FC0FFFFFFFFFFC030300000B4
:10026000000000000000000000000000000000008E
:10027000000000000000000000000000000000007E
:10028000000000000000000000000000000000006E
:10029000000000000000000000000000000000005E
:1002A000000000000000000000000000000000004E
:1002B000000000000000000000000000000000003E
:1002C000000000000000000000000000000000002E
:1002D000000000000000000000000000000000001E
:1002E00000400000000000C0000000000B400000C3
:1002F00000000FC0000000000FC0000000000FC091
:10030000000000000BC00000000000C080000000E2
:100310000040C000000000C0E000000001C0F0008C
:10032000000003C0F800000003C0FC0000007BC018
:10033000FC000003FBC0FC00000383C0FC000000C5
:1003400001C0FC00000000C0FC0000000000FC0038
:1003500000000000FC0000000000FC0000000000A5
:10036000FC0000000000FC0000000000FC00000099
:100370000000FC0000000000FFFFFFFFFFC00305BE
:100380003F213F1208120A100A0E1C0E0C1E0C14FC
:100390001A14161F161E131E1E1B1E1E1F1E3F2183
:1003A0003F3A2F3A173D173F213F181F02040A0416
:1003B0001F0E04040E1F0A1F0A0E0E1F04110E2E1C
:1003C000252E2F2A2E262929021F02081F08150E66
:1003D00004040E150E15151B151B040604040C044D
:1003E0000000000017000300031F0A1F16371A1928
:1003F00004130A153A000300000E11110E000A043E
:100400000A040E0400300004040400100018040361
:100410001F111F121F101D151711151F07041F177D
:10042000151D1F151D01011F1F151F17151F000A80
:1004300000003200040A110A0A0A110A0401150216
:100440000E11171E051E1F150A0E110A1F110E1F71
:1004500015111F05010E111D1F041F111F1108107A
:100460000F1F041B1F10101F061F1E040F0E110E5E
:100470001F09060E112E1F051A121509011F011F53
:10048000101F0F180F1F0C1F1B041B031C03191533
:1004900013001F11030418111F0002010220202065
:1004A0000001020C121E1F120C0C12120C121F0C57
:1004B0001A14041E05242A1E1F021C141D102020BD
:1004C0001D1F0814111F101E041E1E021C0C120CEE
:1004D0003E0A040C123E1E040214160A020F120EEB
:1004E000101E0E100E1E081E120C1226281E322A76
:1004F00026041E21001F00211E040102013F213F8E
:100500000A4E6F2053442063617264206F720A6E3A
:100510006F204C4F414445522E4845580A0A153A1F
:1005200045786974001D20466C617368696E670ABE
:1005300020206C6F616465722E2E2E0A0A444F4E85
:100540002754205455524E204F464621000A0A1582
:100550003A49676E6F7265006D560A0A504C454104
:100560005345205455524E204F464620004C4F577D
:10057000204241545445525921200017534400163B
:1005800013780016131400151020001520100054C5
:100590000A03E181867F3E186D830F0F0E0183866B
:1005A0006033186DC3198F1803C38E6033186DE361
:1005B00030CF1803C39E603630CDE360CF3006C71E
:1005C0009E7E3E30CDB360CF300CC6F6603330D95E
:1005D000B660CF33CFCCF66061B0DB1E60CF30D8D1
:1005E0006CE6C061B0DB1E618F19986CC6C063B148
:1005F0009B0E330F0FB078C6FF7E1F1B061E0F0524
:1006000000893008023802497868140000F6E8DBF7
:10061000CFC3B8AEA49B928A827B746E68625C572B
:10062000524E4945413E3A3734312E2C2927252355
:10063000211F1D1C1A1917161514131211100F0E55
:100640000D0C0B0A090807064500680100000500AB
:1006500068013801000005003801680100006606E5
:1006600062060101FF030101F70300000008000218
:100670000100000304070000000000000000010268
:100680000408102040800102040810200102040820
:1006900010200404040404040404020202020202FE
:1006A00003030303030300000000230026002900C6
:1006B00000000000250028002B000000000024009E
:1006C00027002A007F1011241FBECFEFD8E0DEBF25
:1006D000CDBF11E0A0E0B1E0EEEBFFE402C0059079
:1006E0000D92AE33B107D9F725E0AEE3B1E001C01A
:1006F0001D92A734B207E1F716E0C6ECD6E004C0BD
:100700002297FE010E946527C43CD107C9F70E94C9
:10071000A6250C94DD270C94000086E491E00E944D
:10072000A71E69EE70E086E491E00E942A1E1092F6
:10073000210310922203109223031092240386E4D3
:1007400091E00C9428198EE190E090931B01809326
:100750001A0188E290E0909319018093180184E1D6
:1007600090E0909317018093160182E090E09093BF
:1007700015018093140190931301809312019093BB
:1007800011018093100190930F0180930E019093BB
:100790000D0180930C0190930B0180930A0110923C
:1007A00045011092440110924301109242011092AF
:1007B00041011092400110923F0110923E010895B4
:1007C0008F929F92AF92BF92CF92DF92EF920F9350
:1007D0001F93CF93DF9381E4C82ED12CC1E0D0E0EA
:1007E00091E5A92EB12C21E6822E912C86E491E090
:1007F0000E94981A8823D1F380911A0190911B01CD
:10080000019690931B0180931A0180911801909199
:100810001901019690931901809318018091160196
:1008200090911701019690931701809316016091A2
:100830004401709145014AE050E084E991E00E9452
:100840003B252CE532E040E060E084E991E00E9445
:10085000EF152AE331E040E06AE284E991E00E948A
:10086000EF1562E080E591E00E94B711882341F026
:100870008091140190911501833091050CF451C6BB
:1008800060E080E591E00E94B711882341F08091FB
:10089000140190911501823091050CF075C680917C
:1008A000140190911501019729F422E331E04EE102
:1008B00067E10AC08091100190911101029769F4DB
:1008C0002BE231E04DE16BE184E991E00E94EF150C
:1008D0002AE131E047E261E212C080910C0190917F
:1008E0000D01039781F424E231E04DE160E284E9F7
:1008F00091E00E94EF152EE031E047E26DE184E9DE
:1009000091E00E94EF1580911201909113010197DF
:1009100081F4EE24E39400E024E231E04DE16CE266
:1009200084E991E00E9400162EE031E047E267E2A0
:1009300023C080910E0190910F01029741F4EE24A3
:10094000E39400E02BE231E04DE161E30DC08091E2
:100950000A0190910B01039799F4EE24E39400E0CF
:1009600022E331E04EE165E384E991E00E94001664
:100970002AE131E047E26CE284E991E00E9400164E
:1009800080911A0190911B01099774F480913E01A6
:1009900090913F01892B41F403E023E04BE160E2B9
:1009A00084E991E00E941C1380911A0190911B012F
:1009B0000997089740F403E023E046E160E284E908
:1009C00091E00E941C1380911A0190911B014197A4
:1009D000089740F403E023E041E162E284E991E01A
:1009E0000E941C1380911A0190911B01499708974E
:1009F00040F403E023E04DE066E284E991E00E94E8
:100A00001C1380911A0190911B018197089740F463
:100A100003E023E04DE06BE284E991E00E941C13C7
:100A200080911A0190911B018997089740F403E087
:100A300023E041E16FE284E991E00E941C13809180
:100A40001A0190911B01C197089740F403E023E03D
:100A500046E161E384E991E00E941C1380911A0150
:100A600090911B01C997089740F403E023E04BE104
:100A700061E384E991E00E941C1380911A01909136
:100A80001B01C8970997E0F400911201109113011E
:100A900001301105A9F48BE691E00E94AA21109380
:100AA0003F0100933E01D0921B01C0921A01809138
:100AB0004401909145010196909345018093440132
:100AC00080911A0190911B018034910559F4209175
:100AD0001201309113012130310521F044E16BEC1A
:100AE00070E00EC581549109089770F480913E0121
:100AF00090913F01019741F403E023E04BE161E372
:100B000084E991E00E941C1380911A0190911B01CD
:100B100089549109089770F480913E0190913F01AA
:100B2000019741F403E023E046E161E384E991E0C9
:100B30000E941C1380911A0190911B01815591090B
:100B4000089770F480913E0190913F01019741F424
:100B500003E023E041E16FE284E991E00E941C138D
:100B600080911A0190911B0189559109089770F4A1
:100B700080913E0190913F01019741F403E023E011
:100B80004DE06BE284E991E00E941C1380911A0110
:100B900090911B0181569109089770F480913E0154
:100BA00090913F01019741F403E023E04DE066E2BC
:100BB00084E991E00E941C1380911A0190911B011D
:100BC00089569109089770F480913E0190913F01F8
:100BD000019741F403E023E041E162E284E991E01E
:100BE0000E941C1380911A0190911B018157910959
:100BF000089770F480913E0190913F01019741F474
:100C000003E023E046E160E284E991E00E941C13E6
:100C100080911A0190911B0189579109089770F4EE
:100C200080913E0190913F01019741F403E023E060
:100C30004BE160E284E991E00E941C1380911A016B
:100C400090911B0188579109099708F580910C0133
:100C500090910D010397D9F480913E0190913F014D
:100C60000197A9F48BE691E00E94AA2110923F011E
:100C700010923E0110921B0110921A0180914401C2
:100C80009091450101969093450180934401809194
:100C90001A0190911B018038910581F480910C011B
:100CA00090910D01039751F080913E0190913F0189
:100CB000019721F444E160EC70E022C480911801B6
:100CC00090911901099774F480914001909141012C
:100CD000892B41F403E023E04BE16BE184E991E0EF
:100CE0000E941C138091180190911901099708978F
:100CF00040F403E023E045E16BE184E991E00E94E8
:100D00001C1380911801909119014197089740F4A4
:100D100003E023E04FE06DE184E991E00E941C13C1
:100D200080911801909119014997089740F403E0C8
:100D300023E04AE061E284E991E00E941C13809183
:100D40001801909119018197089740F403E023E07E
:100D500047E066E284E991E00E941C13809118014B
:100D6000909119018997089740F403E023E047E048
:100D70006BE284E991E00E941C138091180190912C
:100D80001901C197089740F403E023E04AE060E3CB
:100D900084E991E00E941C1380911801909119013F
:100DA000C997089740F403E023E04FE064E384E947
:100DB00091E00E941C1380911801909119018154B7
:100DC0009109089740F403E023E045E166E384E9F4
:100DD00091E00E941C13809118019091190189548F
:100DE0009109089740F403E023E04BE166E384E9CE
:100DF00091E00E941C138091180190911901885470
:100E000091090997D8F480910E0190910F010297F2
:100E1000A9F48BE691E00E94AA21D0934101C093EE
:100E20004001B0921901A092180180914401909163
:100E300045010196909345018093440180911801EA
:100E4000909119018035910559F420910E0130914E
:100E50000F012230310521F044E165EB70E050C311
:100E600081559109089770F480914001909141015A
:100E7000019741F403E023E04BE166E384E991E06C
:100E80000E941C13809118019091190189559109B4
:100E9000089770F48091400190914101019741F4CD
:100EA00003E023E045E166E384E991E00E941C133E
:100EB000809118019091190181569109089770F459
:100EC0008091400190914101019741F403E023E0BA
:100ED0004FE064E384E991E00E941C1380911801C3
:100EE0009091190189569109089770F480914001F9
:100EF00090914101019741F403E023E04AE060E36F
:100F000084E991E00E941C138091180190911901CD
:100F100081579109089770F48091400190914101A7
:100F2000019741F403E023E047E06BE284E991E0BC
:100F30000E941C1380911801909119018957910901
:100F4000089770F48091400190914101019741F41C
:100F500003E023E047E066E284E991E00E941C138D
:100F6000809118019091190181589109089770F4A6
:100F70008091400190914101019741F403E023E009
:100F80004AE061E284E991E00E941C13809118011B
:100F90009091190189589109089770F48091400146
:100FA00090914101019741F403E023E04FE06DE1AE
:100FB00084E991E00E941C1380911801909119011D
:100FC00081599109089770F48091400190914101F5
:100FD000019741F403E023E045E16BE184E991E00E
:100FE0000E941C138091180190911901895991094F
:100FF000089770F48091400190914101019741F46C
:1010000003E023E04BE16BE184E991E00E941C13D3
:10101000809118019091190188599109099708F553
:1010200080911001909111010297D9F480914001B3
:10103000909141010197A9F48BE691E00E94AA21C9
:101040001092410110924001109219011092180162
:1010500080914401909145010196909345018093C0
:1010600044018091180190911901803A910581F411
:101070008091400190914101019751F480911001BC
:1010800090911101029721F044E16AEA70E038C2C0
:101090008091160190911701099774F48091420193
:1010A00090914301892B41F403E023E04CE167E197
:1010B00084E991E00E941C13809116019091170120
:1010C0000997089740F403E023E045E167E184E9EC
:1010D00091E00E941C138091160190911701419795
:1010E000089740F403E023E04EE069E184E991E0F1
:1010F0000E941C138091160190911701499708973F
:1011000040F403E023E048E06CE184E991E00E94D0
:101110001C1380911601909117018197089740F454
:1011200003E023E044E061E284E991E00E941C13C3
:1011300080911601909117018997089740F403E078
:1011400023E042E066E284E991E00E941C13809172
:10115000160190911701C197089740F403E023E02E
:1011600042E06BE284E991E00E941C138091160139
:1011700090911701C997089740F403E023E044E0F9
:1011800060E384E991E00E941C1380911601909124
:10119000170181549109089740F403E023E048E0E7
:1011A00065E384E991E00E941C13809116019091FF
:1011B000170189549109089740F403E023E04EE0B9
:1011C00068E384E991E00E941C13809116019091DC
:1011D000170181559109089740F403E023E045E1A8
:1011E0006AE384E991E00E941C13809116019091BA
:1011F000170189559109089740F403E023E04CE179
:101200006AE384E991E00E941C1380911601909199
:101210001701885591090997D8F480910A01909196
:101220000B010397A9F48BE691E00E94AA21D093C9
:101230004301C09342019092170180921601809160
:10124000440190914501019690934501809344019A
:1012500080911601909117018835910559F42091DC
:101260000A0130910B012330310521F044E16FE98F
:1012700070E046C181569109089770F4809142014F
:1012800090914301019741F403E023E04CE16AE3CC
:1012900084E991E00E941C1380911601909117013E
:1012A00089569109089770F4809142019091430109
:1012B000019741F403E023E045E16AE384E991E02A
:1012C0000E941C138091160190911701815791097A
:1012D000089770F48091420190914301019741F485
:1012E00003E023E04DE068E384E991E00E941C13F1
:1012F000809116019091170189579109089770F410
:101300008091420190914301019741F403E023E071
:1013100048E065E384E991E00E941C138091160186
:101320009091170181589109089770F480914201BA
:1013300090914301019741F403E023E044E060E32E
:1013400084E991E00E941C1380911601909117018D
:1013500089589109089770F4809142019091430156
:10136000019741F403E023E042E06BE284E991E07D
:101370000E941C13809116019091170181599109C7
:10138000089770F48091420190914301019741F4D4
:1013900003E023E042E066E284E991E00E941C134E
:1013A000809116019091170189599109089770F45D
:1013B0008091420190914301019741F403E023E0C1
:1013C00044E061E284E991E00E941C1380911601DF
:1013D00090911701815A9109089770F48091420108
:1013E00090914301019741F403E023E048E06CE170
:1013F00084E991E00E941C138091160190911701DD
:10140000895A9109089770F48091420190914301A3
:10141000019741F403E023E04DE069E184E991E0C4
:101420000E941C138091160190911701815B910914
:10143000089770F48091420190914301019741F423
:1014400003E023E045E167E184E991E00E941C1399
:101450008091160190911701895B9109089770F4AA
:101460008091420190914301019741F403E023E010
:101470004CE167E184E991E00E941C138091160120
:1014800090911701885B9109099708F580911401E3
:10149000909115010197D9F48091420190914301F7
:1014A0000197A9F48BE691E00E94AA2110924301D2
:1014B000109242011092170110921601809144017E
:1014C000909145010196909345018093440180914C
:1014D000160190911701803C910509F087C9809110
:1014E000420190914301019709F080C98091140154
:1014F00090911501019709F479C944E164E970E01C
:1015000086E491E00E946D19DF91CF911F910F91B8
:10151000EF90DF90CF90BF90AF909F908F900C9402
:10152000A3030196909315018093140180911001FB
:101530009091110101969093110180931001809177
:101540000C0190910D01019690930D0180930C0177
:101550008091120190911301019690931301809351
:10156000120180910E0190910F01019690930F014D
:1015700080930E0180910A0190910B010196909346
:101580000B0180930A017CC9019790931501809308
:101590001401809110019091110101979093110114
:1015A0008093100180910C0190910D01019790930F
:1015B0000D0180930C01809112019091130101970C
:1015C000909313018093120180910E0190910F016D
:1015D000019790930F0180930E0180910A019091E1
:1015E0000B01019790930B0180930A0158C9AF92A8
:1015F000BF92CF92DF92EF920F93CF93DF93C1E030
:10160000D0E031E5C32ED12C41E6A42EB12C86E4E6
:1016100091E00E94981A8823D1F380911A01909149
:101620001B01019690931B0180931A018091180170
:10163000909119010196909319018093180180915E
:10164000160190911701019690931701809316014E
:1016500060914401709145014AE050E084E991E0D5
:101660000E943B252CE532E040E060E084E991E017
:101670000E94EF152AE331E040E06AE284E991E05C
:101680000E94EF1562E080E591E00E94B711882387
:1016900041F08091140190911501833091050CF473
:1016A000B0C460E080E591E00E94B711882341F06A
:1016B0008091140190911501823091050CF0D4C4F1
:1016C0008091140190911501019729F422E331E0F2
:1016D0004EE167E10AC080911001909111010297DB
:1016E00069F42BE231E04DE16BE184E991E00E9485
:1016F000EF152AE131E047E261E212C080910C016E
:1017000090910D01039781F424E231E04DE160E214
:1017100084E991E00E94EF152EE031E047E26DE1AF
:1017200084E991E00E94EF158091120190911301DC
:10173000019781F4EE24E39400E024E231E04DE1EE
:101740006CE284E991E00E9400162EE031E047E26D
:1017500067E223C080910E0190910F01029741F43E
:10176000EE24E39400E02BE231E04DE161E30DC0B3
:1017700080910A0190910B01039799F4EE24E39470
:1017800000E022E331E04EE165E384E991E00E946C
:1017900000162AE131E047E26CE284E991E00E9420
:1017A00000168091180190911901099774F48091A5
:1017B000400190914101892B41F403E023E04BE18A
:1017C0006BE184E991E00E941C13809118019091D3
:1017D00019010997089740F403E023E045E16BE124
:1017E00084E991E00E941C138091180190911901E5
:1017F0004197089740F403E023E04FE06DE184E96E
:1018000091E00E941C138091180190911901499751
:10181000089740F403E023E04AE061E284E991E0C4
:101820000E941C13809118019091190181970897CB
:1018300040F403E023E047E066E284E991E00E949F
:101840001C1380911801909119018997089740F411
:1018500003E023E047E06BE284E991E00E941C137F
:101860008091180190911901C197089740F403E005
:1018700023E04AE060E384E991E00E941C13809138
:10188000180190911901C997089740F403E023E0EB
:101890004FE064E384E991E00E941C1380911801F9
:1018A0009091190181549109089740F403E023E0D5
:1018B00045E166E384E991E00E941C1380911801E0
:1018C0009091190189549109089740F403E023E0AD
:1018D0004BE166E384E991E00E941C1380911801BA
:1018E00090911901885491090997D8F480910E01BB
:1018F00090910F010297A9F48BE691E00E94AA2132
:10190000D0934101C0934001D0921901C0921801B7
:1019100080914401909145010196909345018093F7
:10192000440180911801909119018035910559F475
:1019300020910E0130910F012230310521F044E158
:1019400069E870E050C381559109089770F480915F
:10195000400190914101019741F403E023E04BE104
:1019600066E384E991E00E941C1380911801909134
:10197000190189559109089770F48091400190915F
:101980004101019741F403E023E045E166E384E986
:1019900091E00E941C1380911801909119018156C9
:1019A0009109089770F4809140019091410101974D
:1019B00041F403E023E04FE064E384E991E00E9416
:1019C0001C1380911801909119018956910908976B
:1019D00070F48091400190914101019741F403E03E
:1019E00023E04AE060E384E991E00E941C138091C7
:1019F00018019091190181579109089770F480910D
:101A0000400190914101019741F403E023E047E058
:101A10006BE284E991E00E941C138091180190917F
:101A2000190189579109089770F4809140019091AC
:101A30004101019741F403E023E047E066E284E9D5
:101A400091E00E941C138091180190911901815816
:101A50009109089770F4809140019091410101979C
:101A600041F403E023E04AE061E284E991E00E946E
:101A70001C138091180190911901895891090897B8
:101A800070F48091400190914101019741F403E08D
:101A900023E04FE06DE184E991E00E941C13809106
:101AA00018019091190181599109089770F480915A
:101AB000400190914101019741F403E023E045E1A9
:101AC0006BE184E991E00E941C13809118019091D0
:101AD000190189599109089770F4809140019091FA
:101AE0004101019741F403E023E04BE16BE184E91C
:101AF00091E00E941C13809118019091190188595E
:101B00009109099708F580911001909111010297B0
:101B1000D9F480914001909141010197A9F48BE69D
:101B200091E00E94AA21109241011092400110926E
:101B3000190110921801809144019091450101967C
:101B4000909345018093440180911801909119016F
:101B5000803A910581F48091400190914101019773
:101B600051F48091100190911101029721F044E10C
:101B70006EE770E038C280911601909117010997C5
:101B800074F48091420190914301892B41F403E068
:101B900023E04CE167E184E991E00E941C1380910D
:101BA0001601909117010997089740F403E023E08C
:101BB00045E167E184E991E00E941C1380911601E0
:101BC000909117014197089740F403E023E04EE01D
:101BD00069E184E991E00E941C13809116019091C3
:101BE00017014997089740F403E023E048E06CE1CF
:101BF00084E991E00E941C138091160190911701D5
:101C00008197089740F403E023E044E061E284E92F
:101C100091E00E941C138091160190911701899701
:101C2000089740F403E023E042E066E284E991E0B3
:101C30000E941C138091160190911701C19708977B
:101C400040F403E023E042E06BE284E991E00E948B
:101C50001C138091160190911701C997089740F4C1
:101C600003E023E044E060E384E991E00E941C1378
:101C7000809116019091170181549109089740F4C1
:101C800003E023E048E065E384E991E00E941C134F
:101C9000809116019091170189549109089740F499
:101CA00003E023E04EE068E384E991E00E941C1326
:101CB000809116019091170181559109089740F480
:101CC00003E023E045E16AE384E991E00E941C130C
:101CD000809116019091170189559109089740F458
:101CE00003E023E04CE16AE384E991E00E941C13E5
:101CF0008091160190911701885591090997D8F4A0
:101D000080910A0190910B010397A9F48BE691E071
:101D10000E94AA21D0934301C0934201B0921701BF
:101D2000A0921601809144019091450101969093F3
:101D300045018093440180911601909117018835E7
:101D4000910559F420910A0130910B01233031059E
:101D500021F044E163E770E046C18156910908979C
:101D600070F48091420190914301019741F403E0A6
:101D700023E04CE16AE384E991E00E941C13809126
:101D800016019091170189569109089770F4809176
:101D9000420190914301019741F403E023E045E1C2
:101DA0006AE384E991E00E941C13809116019091EE
:101DB000170181579109089770F480914201909121
:101DC0004301019741F403E023E04DE068E384E937
:101DD00091E00E941C138091160190911701895780
:101DE0009109089770F48091420190914301019705
:101DF00041F403E023E048E065E384E991E00E94D8
:101E00001C13809116019091170181589109089730
:101E100070F48091420190914301019741F403E0F5
:101E200023E044E060E384E991E00E941C13809188
:101E300016019091170189589109089770F48091C3
:101E4000420190914301019741F403E023E042E015
:101E50006BE284E991E00E941C138091160190913D
:101E6000170181599109089770F48091420190916E
:101E70004301019741F403E023E042E066E284E994
:101E800091E00E941C1380911601909117018959CD
:101E90009109089770F48091420190914301019754
:101EA00041F403E023E044E061E284E991E00E9430
:101EB0001C138091160190911701815A910908977E
:101EC00070F48091420190914301019741F403E045
:101ED00023E048E06CE184E991E00E941C138091CA
:101EE000160190911701895A9109089770F4809111
:101EF000420190914301019741F403E023E04DE05A
:101F000069E184E991E00E941C138091160190918F
:101F10001701815B9109089770F4809142019091BB
:101F20004301019741F403E023E045E167E184E9DF
:101F300091E00E941C138091160190911701895B1A
:101F40009109089770F480914201909143010197A3
:101F500041F403E023E04CE167E184E991E00E9471
:101F60001C138091160190911701885B91090997C4
:101F700008F580911401909115010197D9F4809191
:101F80004201909143010197A9F48BE691E00E94F0
:101F9000AA2110924301109242011092170110924F
:101FA000160180914401909145010196909345015D
:101FB000809344018091160190911701803C910516
:101FC00009F025CB8091420190914301019709F0DE
:101FD0001ECB8091140190911501019709F417CB44
:101FE00044E168E670E086E491E00E946D19DF91BB
:101FF000CF910F91EF90DF90CF90BF90AF900C9466
:10200000A303019690931501809314018091100110
:10201000909111010196909311018093100180918C
:102020000C0190910D01019690930D0180930C018C
:102030008091120190911301019690931301809366
:10204000120180910E0190910F01019690930F0162
:1020500080930E0180910A0190910B01019690935B
:102060000B0180930A011DCB01979093150180937A
:102070001401809110019091110101979093110129
:102080008093100180910C0190910D010197909324
:102090000D0180930C018091120190911301019721
:1020A000909313018093120180910E0190910F0182
:1020B000019790930F0180930E0180910A019091F6
:1020C0000B01019790930B0180930A01F9CA42E03A
:1020D0006CEF70E086E491E00E94541B882351F07D
:1020E000813051F08F3F51F466ED70E086E491E06D
:1020F0000C942A1E0C94F70A0C94E0030895109295
:1021000097011092960182E291E09093950180935D
:1021100094011092090381E080930A030895CF93FC
:10212000CFB7F89480913703811127C0ECE9F6E02E
:102130008491E8E8F6E09491E82FF0E0EE0FFF1FBD
:10214000E654F94FA591B4918C91892321F461E073
:102150008AE00E94C52361E08AE00E948C238CB54E
:1021600080618CBD8CB580648CBD61E08DE00E9487
:102170008C2361E08BE00E948C23809137038F5F7A
:1021800080933703CFBFCF91089521E0FC012083D6
:10219000089570E085E00C940423AF92BF92CF9233
:1021A000DF92EF92FF920F931F93CF93DF93EC0197
:1021B00089819A812FE0289F8001299F100D112489
:1021C00085E10E94E722800F911F24E09695879574
:1021D0002A95E1F79A8389832881222391F1AC81A2
:1021E000AD80B12CC12CD12CE885F9857F0100E0B0
:1021F00010E06E817F819B0140E050E086179707D9
:1022000028F0BC01E817F90708F4BF0180E090E06E
:102210001F921F921F92AF930E945E256B830F90B7
:102220000F900F900F9070E085E0DF91CF911F919C
:102230000F91FF90EF90DF90CF90BF90AF900C94F4
:102240000423DF91CF911F910F91FF90EF90DF90CA
:10225000CF90BF90AF900895FC018CE39FE09383F3
:10226000828384E0818381E084870895CF93DF9324
:10227000EC018C819D81892B81F18C858F7151F5C9
:1022800084E10E94E722BC01882777FD8095982F82
:102290000E94E42526EE3FE34EEC50E40E947026B7
:1022A0000E94B6259B017B836A836115710581F0CD
:1022B00084E08983FE0140E08481958128173907F5
:1022C00010F449830AC04F5F32964430A9F702C028
:1022D0008FEF89838C858F5F8C87DF91CF910895F5
:1022E000FC0188E0808389E0818387E0828386E047
:1022F000838384E0848382E0858381E186830895FB
:10230000DF92EF92FF920F931F93CF93DF937C01A5
:10231000EC0100E010E0DD24DA9462E088810E94A4
:102320008C2388810E94FB23F701E00FF11F892B8A
:1023300021F487818F5F878308C08781882349F0D4
:102340008F3F11F4178201C0D78260E088810E941C
:102350008C230F5F1F4F219607301105F1F6DF9197
:10236000CF911F910F91FF90EF90DF900895FC01A6
:10237000E60FF11D81E09781913009F080E008952A
:10238000262F30E0FC01E20FF31F8781423028F452
:1023900081508E3F48F080E008958F3FE1F3642F35
:1023A0000E94E3269130B9F781E008958EBD0000C8
:1023B0000DB407FEFDCF8EB50895643508F056C004
:1023C000403308F053C0FC01E657FE4F2081542FE4
:1023D000559555955595E62FFF27E7FDF095342F38
:1023E00037702230A1F4DF01A85CBC4F84E55802AD
:1023F000A00DB11D11248C9190E0032E02C0959583
:1024000087950A94E2F7282F209521700AC023307F
:1024100041F44627DC011C968C91482740FF03C0FD
:1024200014C0211112C0B4E55B02E00DF11D1124AE
:10243000E85CFC4F81E090E0032E01C0880F0A9415
:10244000EAF780959081982310C084E55802E00D4A
:10245000F11D1124E85CFC4F81E090E0032E01C0E7
:10246000880F0A94EAF79081982B908308951F9320
:10247000CF93DF93EC01162FF894FC01E758FE4F41
:1024800060E080810E94C523C658DE4F88811816FF
:102490001CF460E00E94C523812F0E94D611888120
:1024A00018161CF461E00E94C5237894DF91CF9147
:1024B0001F91089528EF31E0E8E3F3E0DF01A9017F
:1024C0001D9241505040E1F7DC0119961C9219977A
:1024D0001A961C9208959F92AF92BF92CF92DF926C
:1024E000EF92FF920F931F93CF93DF93EC018C85B4
:1024F0008F5F8C8788E3E82E83E0F82E912C5E01B5
:1025000087E8A81A8EEFB80A6E01E6E8CE1AEEEF59
:10251000DE0A692D6064CE010E94371260E8CE01A8
:102520000E94371261E0F50180810E94C523F60107
:10253000808118161CF460E00E94C52300E010E0C2
:10254000F701E00FF11F80810E94D6110F5F1F4F2E
:1025500004351105A9F7F601808118161CF461E015
:102560000E94C5239394F4E5EF0EF11C86E09812C7
:10257000D0CF60E4CE01DF91CF911F910F91FF90FA
:10258000EF90DF90CF90BF90AF909F900C94371258
:10259000FC01E657FE4F6083319660830895FC018D
:1025A000E657FE4F6083319640830895CF92DF92C5
:1025B000FF920F931F93CF93DF931F92CDB7DEB798
:1025C0006C01062FF42E10E0121754F4412F4F0D1A
:1025D000602FC60129830E94DD111F5F2981F4CF7E
:1025E0000F90DF91CF911F910F91FF90DF90CF90CF
:1025F0000895CF92DF92FF920F931F93CF93DF93B3
:102600001F92CDB7DEB76C01062FF42E10E0121723
:1026100054F4612F600F4F2DC60129830E94DD11F4
:102620001F5F2981F4CF0F90DF91CF911F910F9100
:10263000FF90DF90CF900895DF92EF92FF920F937B
:102640001F93CF93DF93EC01E62ED22EF42E1127A9
:1026500007FD1095040F111D47FD1A958F2D992721
:1026600087FD90958017910744F42D2D4F2D6E2DE9
:10267000CE010E94F912F394F1CFDF91CF911F9117
:102680000F91FF90EF90DF9008958F929F92AF92FD
:10269000BF92CF92DF92EF92FF920F931F93CF934F
:1026A000DF93EC01E62ED42E122FCC24C394C21A51
:1026B000B22EB194BB0CF12C802F8470A82E802FE9
:1026C0008270982E802F8870882E0170F1160CF081
:1026D0004DC0C7FC04C01150B394B394CB0CF39419
:1026E0008F2D880F8F5FC80EAA2071F0412F4D0DDE
:1026F0006F2D6E0DCE010E94DD114F2D4D0D612FFE
:102700006E0DCE010E94DD11992071F04D2D411BFF
:102710006F2D6E0DCE010E94DD114D2D4F19612FD1
:102720006E0DCE010E94DD11882071F04F2D4D0DF0
:102730006E2D611BCE010E94DD11412F4D0D6E2DBE
:102740006F19CE010E94DD11002309F4BFCF4D2D7A
:102750004F196E2D611BCE010E94DD114D2D411BC5
:102760006E2D6F19CE010E94DD11B0CFDF91CF9198
:102770001F910F91FF90EF90DF90CF90BF90AF909F
:102780009F908F9008958F929F92AF92BF92CF9219
:10279000DF92EF92FF920F931F93CF93DF93EC01A1
:1027A000B62EA42E122FDD24D394D21AC22EC19499
:1027B000CC0CFF24F394802F8170882E992493945D
:1027C0009E0C02708FEF8F0D8117C4F5D7FC04C0EB
:1027D0001150C394C394DC0C8F2D880F8F5FD80EDB
:1027E000882099F0212F220F290D4A2D411B6F2D92
:1027F0006B0DCE010E94D61223E02E0D4A2D4F19EB
:10280000612F6B0DCE010E94D612002399F0212F6B
:10281000220F290D4A2D411B6B2D6F19CE010E94ED
:10282000D61223E02E0D4A2D4F196B2D611BCE01C0
:102830000E94D612F394E394E394C4CFDF91CF9136
:102840001F910F91FF90EF90DF90CF90BF90AF90CE
:102850009F908F9008959F92AF92BF92CF92DF92F8
:10286000EF92FF920F931F93CF93DF93EC01B62E5D
:10287000F42EA22EDE2CD194DD0C9D2C920E1E2D5A
:10288000160F292D612F0E94F912CC24CA94C00E74
:10289000CF0C292D4C2D612FCE010E94F912D00EA4
:1028A000FE0C2D2D4F2D6B2DCE010E94D612BA0C91
:1028B0006FEF6B0D2D2D4F2DCE010E94D61201E032
:1028C0002E2D4F2D612FCE010E944513DE2CD0946A
:1028D000DB0C02E02E2D4F2D6D2DCE010E944513F5
:1028E000CE1804E02E2D4C2D6D2DCE010E944513E7
:1028F00008E02E2D4C2D612FCE010E944513DF9153
:10290000CF911F910F91FF90EF90DF90CF90BF90EC
:10291000AF909F900895AF92BF92CF92DF92EF92C7
:10292000FF920F931F93CF93DF93EC01A62EC42E3B
:10293000B22EF02E1E2DE194EE0CD12ED60E2E2DA1
:102940002B0D6D2D0E941C13FA94FE0CC10E6FEF1F
:102950006A0D6B0D611BEF2C01E0212F4C2DCE0178
:102960000E94C31302E0212F4C2D6D2DCE010E9439
:10297000C313DF91CF911F910F91FF90EF90DF90E4
:10298000CF90BF90AF9008956F927F928F929F9259
:10299000AF92BF92CF92DF92EF92FF920F931F936D
:1029A000CF93DF93502FFC01E657FE4F0081643533
:1029B0000CF006C1C22FDD27C7FDD095A62FBB277F
:1029C000A7FDB0959D012C0F3D1F121613060CF0AC
:1029D000F7C040330CF0F4C0C42EDD24C7FCD09403
:1029E000F601E50FF11D57FDFA951E161F060CF0B6
:1029F000E7C0FE013796F7FD37964F01E3E0959467
:102A00008794EA95E1F747FF09C0540F8C9CE001D9
:102A10008D9CD00D1124EC1AFD0A40E0C52FDD2756
:102A2000C7FDD095C40FD11D47FDDA95E19714F08D
:102A300050E3541B67FD60E02535310514F024E5B3
:102A400030E0D22FFC01C485C427862F992787FD4B
:102A500090959C012A1B3B0B6901F7E0CF22DD24F6
:102A6000A0E8B0E002C0B595A795CA94E2F71A2F86
:102A700037FF02C0295F3F4F73E0359527957A9560
:102A8000E1F72E0D3F1DA42FA77071E001C0770F55
:102A9000AA95EAF7459545954595E4E54E02800DE2
:102AA000911D1124885C9C4FF12CC52EDD24C7FCA0
:102AB000D094BB24B394A4015527EF2DF0E0EC157E
:102AC000FD050CF07DC0F901E4900130C9F4DC0192
:102AD000A12EF901862E881A982C9A0E9D1608F0C0
:102AE00066C09E2C9A2019F09C90972A9C92A694DE
:102AF00029F43196E4906894AA24A7F81196ECCFB3
:102B000001111BC0772E7094DC01A12EF901862ED5
:102B1000881A982C9A0E9D1608F049C09E2C9A206F
:102B200019F09C9097209C92A69429F43196E490F9
:102B30006894AA24A7F81196ECCF033031F0DC0199
:102B4000A12EF901862E881A2EC0772E7094962E0B
:102B5000DC01A12EF9019D16B0F48E2C8A2049F0DB
:102B60008C90692C6C2660FE02C0872A01C08720E9
:102B70008C92A69429F43196E4906894AA24A7F83C
:102B800093941196E8CFCB2512C09E2C9A2019F071
:102B90009C9097269C92A69429F43196E490689490
:102BA000AA24A7F81196982C9A0E9D1670F3770F09
:102BB00019F48C5A9F4F71E0F394240F351F7DCF89
:102BC000DF91CF911F910F91FF90EF90DF90CF9009
:102BD000BF90AF909F908F907F906F900895EF92ED
:102BE000FF920F937901F901249131960491F2E05B
:102BF000EF0EF11C0E94C4140F91FF90EF90089506
:102C00002F923F924F925F926F927F928F929F92FC
:102C1000AF92BF92CF92DF92EF92FF920F931F93EA
:102C2000CF93DF93CDB7DEB72A970FB6F894DEBF08
:102C30000FBECDBF6C01262E542F01111CC0E11018
:102C40001AC02A960FB6F894DEBF0FBECDBFDF9133
:102C5000CF911F910F91FF90EF90DF90CF90BF9099
:102C6000AF909F908F907F906F905F904F903F902C
:102C70002F900C94EF15F901849131963490B9019D
:102C80006E5F7F4F7A836983A82EB12C9501295FEF
:102C90003F4F63E0359527956A95E1F73A87298795
:102CA00003702FEF280F522E10E07FEF730D832D4E
:102CB00090E09C838B83812F992787FD90958A15BF
:102CC0009B050CF071C0812F17FF02C087E0810FB8
:102CD000682E659465946594812F877887FF03C07B
:102CE0008150886F8F5F40E8842E912C02C09594AC
:102CF00087948A95E2F7472EF12C772467FC70942D
:102D00008F2D992787FD9095EB81FC818E179F076A
:102D10000CF047C0A985BA858A9FF0018B9FF00D02
:102D20009A9FF00D1124E60DF71D89819A81E80F15
:102D3000F91FE491F0E0E821F921EF2B79F102305D
:102D400039F0033041F0013049F4452D6F2D08C0B2
:102D5000652D442D05C0642D412F02C04F2D612FDC
:102D6000EE2069F03E2D3370E0FE03C0922F961BDB
:102D7000692FE1FE05C0A32DA41B4A2F01C030E03E
:102D8000620D450FC6012E833D835F8378870E94C5
:102D9000DD113D81E32E78855F812E81F3944A9485
:102DA000AFCF1F5F5A9487CF2A960FB6F894DEBF35
:102DB0000FBECDBFDF91CF911F910F91FF90EF908C
:102DC000DF90CF90BF90AF909F908F907F906F904B
:102DD0005F904F903F902F900895FB0124912F5FBB
:102DE000DC0114962C933196E491EF5FDC0115968B
:102DF000EC93FC01E857FE4F6E5F7F4F7183608359
:102E000008956F927F928F929F92AF92BF92CF92CE
:102E1000DF92EF92FF920F93CF93DF93EC014C017F
:102E200088E8881A8EEF980AF40140833E01F9E899
:102E30006F1AFEEF7F0AF30160835E01F7E8AF1AB5
:102E4000FEEFBF0AF50120836E01F5E8CF1AFEEF11
:102E5000DF0AF601E0827E01F6E8EF1AFEEFFF0AD4
:102E6000F701008381E08887709680833196108215
:102E70008F836EE773E0CE010E94ED160E948F10E3
:102E80008CB58F7D8CBD8CB58C7F81608CBD8DB5F4
:102E900081608DBD8CB58C608CBD61E0F40180815A
:102EA0000E948C2361E0F30180810E948C2361E009
:102EB000F50180810E948C23F601808118161CF494
:102EC00061E00E948C23F701808118161CF461E0F8
:102ED0000E948C23F6018081181674F460E00E9431
:102EE000C5236AE070E080E090E00E94722261E019
:102EF000F60180810E94C523F3018081992787FD17
:102F00009095FC01EE56F94FE491F0E0EE0FFF1FB3
:102F1000E055F94F25913491FE01E258FE4F31837F
:102F20002083FC01E258F94F8491DE01AB57BE4F7C
:102F30008C93F4018081992787FD9095FC01EE56D2
:102F4000F94FE491F0E0EE0FFF1FE055F94F2591A6
:102F50003491FE01E458FE4F31832083FC01E25896
:102F6000F94F849111978C93F7018081992787FD00
:102F70009095FC01EE56F94FE491F0E0EE0FFF1F43
:102F8000E055F94F25913491FE01E058FE4F318311
:102F90002083FC01E258F94F849112968C93F5013D
:102FA0008081992787FD9095FC01EE56F94FE491B9
:102FB000F0E0EE0FFF1FE055F94F25913491FE012F
:102FC000EE57FE4F31832083FC01E258F94F849184
:102FD00011968C9361E2CE010E94371264E1CE011A
:102FE0000E9437128B8587FF02C08FE78B876B8526
:102FF0006068CE010E94371260E2CE010E94371253
:103000006CE0CE010E943712CE01DF91CF910F917B
:10301000FF90EF90DF90CF90BF90AF909F908F90F8
:103020007F906F900C946B122F923F924F925F9211
:103030006F927F928F929F92AF92BF92CF92DF92C8
:10304000EF92FF920F931F93CF93DF9300D000D0A6
:103050001F92CDB7DEB79D838C83162F642ED02EA2
:103060007C0186E7E81A8EEFF80AD701CC90643528
:103070000CF09EC0BFE2B4170CF49AC0EC81FD8145
:10308000448150E041505109049FC001059F900DBB
:103090001124860F911D67FD9A95181619060CF0DC
:1030A00087C08581809FC0011124860D911D67FC1A
:1030B0009A95181619060CF07BC0762E462EE85706
:1030C000FE4FFB83EA83A22EB12C8C809D80F5E716
:1030D0008F1AFEEF9F0A872D811B992787FD9095F8
:1030E000EC81FD81448150E0841795070CF05EC0AF
:1030F000BA01615071098617970789F0A69EA00151
:10310000A79E500DB69E500D1124480F591FAA813D
:10311000BB81ED91FC91E40FF51F349001C0312C7F
:10312000562C262C452D4619552747FD5095AC8128
:10313000BD8115968C9190E048175907A4F530FE93
:1031400013C0B1E0DB1207C0452D672D8C819D8136
:103150000E94DD1124C00D2D2D2D422D642D8C815A
:103160009D810E941C131BC0F4018081D7019C919A
:103170008917A9F08C93B1E0DB1207C0452D672DAC
:103180008C819D810E94DD1108C00D2D2D2D422DB9
:10319000642D8C819D810E941C13F701C08236949E
:1031A0002D0C5394BFCF4D0C739495CFD701CC9277
:1031B0000F900F900F900F900F90DF91CF911F9174
:1031C0000F91FF90EF90DF90CF90BF90AF909F90C6
:1031D0008F907F906F905F904F903F902F900895C9
:1031E0000F93CF93DF93EC01262F6A3039F42D81B2
:1031F00098858A85299F800D112422C06D3011F198
:1032000008854A8569850E94141848855C8129854E
:10321000549F200D112429878F81882399F033270B
:1032200027FD309584E590E0459F80199109112490
:10323000821793073CF49D818A85499F800D112454
:103240008A87198681E090E0DF91CF910F910895F0
:103250008F929F92AF92BF92CF92DF92EF92FF92A6
:10326000CF93DF93EC01CA8CDB8CC094D094E12C1B
:10327000F12C0E944F224B015C010E944F22A501BC
:103280009401209530954095509560957095809566
:1032900090950E94D3269B01AC01C701B6010E9404
:1032A000D3266B017C0189809A80A12CB12C0E94CD
:1032B0004F22680D791D8A1D9B1D6C0D7D1D8E1D75
:1032C0009F1DDF91CF91FF90EF90DF90CF90BF9047
:1032D000AF909F908F900C945625FC01E251FE4FC9
:1032E000718360833296445F408308958F929F92EA
:1032F000AF92BF92CF92DF92EF92FF920F931F9304
:10330000CF93DF93EC015C0180E1A81A8EEFB80A3D
:10331000D5018C91882309F44DC08C3018F41CE041
:10332000181B01C010E0FE01EA5AFF4F81E08083C4
:103330006E01BEE4CB0ED11C60E0C6010E94C81233
:103340004E01E3E58E0E911CD4018C9103E0080F31
:103350009DE2F92E4F2D481B410F23E0E22E24E57C
:1033600060E0C6010E948B1461E0C6010E94C81291
:10337000F401808103E0080F4F2D481B410F24E525
:1033800060E0C6010E942B14FE01E95AFF4F84E061
:1033900080833196D4018C91181B115D1083C2512A
:1033A000DE4F68817981C6010E946224F501808127
:1033B00081508083DF91CF911F910F91FF90EF900B
:1033C000DF90CF90BF90AF909F908F900895DF9245
:1033D000EF92FF920F931F93CF93DF93EC018C8DAD
:1033E0009D8D892B09F49CC08E01025B1F4F40E02C
:1033F00061E0C8010E94CF1285E5FE01EE5AFF4F41
:103400009081891B3596808331961082698D613059
:1034100009F462C028F0888D653008F074C06FC070
:10342000CE0185960E942C2081E0FE01EA5AFF4FD2
:1034300080836EE773E0C8010E94ED161D8E1C8E1E
:10344000FE01EC5AFF4F108238EAD32E7E018AE04B
:10345000E80EF11CCE010E94981A8823D9F36DE67C
:1034600075E0C8010E9462246A8D7B8D4AE050E0BD
:10347000C8010E94502568E575E0C8010E946224D9
:103480006D2D62956F7070E04AE050E0C8010E94B7
:103490003B256DE475E0C8010E94622464E0C70129
:1034A0000E94B71181113CC0DA94A1F660E0CE0110
:1034B0000E94C91083B7817F846083BF83B7816016
:1034C00083BF83B7816083BF889583B78E7F83BFB7
:1034D00083B78E7F83BFBECFC552DE4F48815981EF
:1034E0006A817B814F7055276627772748305105C1
:1034F0006105710510F467E009C068E707C088231B
:1035000079F06B5F03C0882359F06FE2C801DF9147
:10351000CF911F910F91FF90EF90DF900C94852435
:10352000DF91CF911F910F91FF90EF90DF90089561
:103530008F929F92AF92BF92EF92FF920F931F9341
:10354000CF93DF93EC017C0106E1E01A0EEFF00A65
:10355000F70180809180A280B3800E944322950170
:103560008401061B170B280B390BB901A8015E015A
:1035700017E1A11A1EEFB10AF501808190E0A0E0E9
:10358000B0E08E010B511E4F84179507A607B707B1
:1035900050F4F80180819181A281B381892B8A2B1B
:1035A0008B2B09F040C0F80180819181A281B38109
:1035B000892B8A2B8B2BA9F57E01F5E2EF0EF11CEE
:1035C000C7010E942920C7010E949620C7010E94BE
:1035D0005A21CE010E947619CE010E94E7197E0180
:1035E0002EE4E20EF11CC7010E946B12FE01EC5AA0
:1035F000FF4F8081811103C0C7010E945A120E94AF
:103600004F22F8016083718382839383FE01E1522C
:10361000FE4FCF51DE4F28813981621B730B7183BE
:10362000608380E036C00E944322F5012081620F52
:10363000711D811D911DF7016083718382839383C6
:10364000FE01E552FE4F40815181628173814F5FDF
:103650005F4F6F4F7F4F4083518362837383F801C5
:1036600010821182128213820E944F22FE01EF51BA
:10367000FE4F6083718382839383CE010E94CD10BD
:10368000CE010A960E948011CE0148960E94361102
:1036900081E0DF91CF911F910F91FF90EF90BF904C
:1036A000AF909F908F9008952F923F924F925F928C
:1036B0006F927F928F929F92AF92BF92CF92DF9242
:1036C000EF92FF920F931F93CF93DF93CDB7DEB7A7
:1036D00066970FB6F894DEBF0FBECDBF9E8B8D8B65
:1036E0006F87788B942EFC01EC5AFF4F1082882450
:1036F0008A941C82A12C30E33B83B12C6C018AE0BC
:10370000C80ED11C6D887E8893E5690E711CED8909
:10371000FE89B5962F01242F30E03A8729878D89BD
:103720009E89895A9F4F9E838D83ED89FE89E85A31
:10373000FF4FF887EF832D893E892A5A3F4F3C87F8
:103740002B878D899E898B5A9F4F9E878D87ED8908
:10375000FE89E25BFF4F1F018D899E890E94981AA6
:103760008823D1F364E0C6010E94B7113B81032F87
:10377000112707FD109581113EC065E0C6010E942A
:10378000B711811138C066E0C6010E94B7118111DE
:1037900032C03C81311142C044E063E0C6010E9466
:1037A000C011882321F0B394C2010E94D62144E0C5
:1037B00061E0C6010E94C011882321F0BA94C201C1
:1037C0000E94D6218B2D992787FD9095E985FA8552
:1037D0008E179F0731F0B7FE05C0BB24BA94B90C11
:1037E00001C0B12CF301808174E0A72EA80E8B9D3F
:1037F000A01811241DC0F301A08064E0C6010E943E
:10380000B711882309F484C0C2010E94AA218B2C1D
:10381000A194A99CA02C1124AA94AA94C8018A1945
:103820009109A7FC939502970CF476C031E03C8394
:103830000A0D111DA7FC1A9517FF02C00F5F1F4F3D
:10384000C801959587959A83898329812B83ED817A
:10385000FE811082EF81F885808381E0EB85FC8515
:103860008083ED85FE8510820F851889E12CF12C6F
:103870004B2D552747FD509533E0E91420F5E4160C
:10388000F50669F4ED81FE813083F3018081F22F2A
:10389000B89EF00D11248F2FEF81F8858083F801F9
:1038A00065917491C101298B3C8B4A8B5B8B0E9483
:1038B0009024FFEFEF1AFF0A0E5F1F4F5B894A89C2
:1038C0003C892989DACF60E0C1010E94C812F30166
:1038D00080814981B89E400D1124415024E560E06B
:1038E000C1010E94F91261E0C1010E94C812F301F6
:1038F000808103E0080F4981B89E400D1124425099
:1039000053E0E52E24E560E0C1010E942B1424CF92
:10391000C2010E94C0217CCF882D66960FB6F89414
:10392000DEBF0FBECDBFDF91CF911F910F91FF90F2
:10393000EF90DF90CF90BF90AF909F908F907F904F
:103940006F905F904F903F902F9008950F931F932B
:10395000CF93DF938C01EC01C25BDF4FCE010E945D
:103960005A1265E275E0CE010E946224CE010E94E7
:103970006B128CB583608CBD8DB58E7F8DBD86E25C
:1039800091E0EEEFFFE30995F801EC5AFF4F10824A
:1039900060E075E0CE010E949024CE010E946B127F
:1039A000065F1F4FC8010E94801164E0C8010E9499
:1039B000B711811107C062E370E080E090E00E94DF
:1039C0007222F0CFDF91CF911F910F9108952F9226
:1039D0003F924F925F926F927F928F929F92AF929F
:1039E000BF92CF92DF92EF92FF920F931F93CF93EC
:1039F000DF93CDB7DEB729970FB6F894DEBF0FBEC1
:103A0000CDBF998788871B012A013C0186E2681A8D
:103A10008EEF780AF3018081882309F402C181E0E6
:103A2000E885F985EA5AFF4F8083E885F985EB5AE6
:103A3000FF4F1082E885F985EC5AFF4F1082E88528
:103A4000F985108E8F01025B1F4F61E0C8010E9453
:103A5000C812888599858D5A9F4F9C838B83C88413
:103A6000D98497E5C90ED11CE884F984E8E5EE0E07
:103A7000F11C888599858E5A9F4F9A838983E885A2
:103A8000F985E552FE4FFE83ED8388849984FAE040
:103A90008F0E911CA884B98485E2A80EB11C88857C
:103AA00099850E94981A8823D1F3F1018491882383
:103AB00021F0EB81FC81508101C050E02FE835E01E
:103AC00040E060E0C8015F830E94EF155F81411410
:103AD000510439F04CE0450F920160E0C8010E94AA
:103AE000EF15F60110828CE0F7018083B101C80167
:103AF0000E946224E981FA819081892F880F890FC1
:103B000081958D5AF6018083EB81FC819081892F0C
:103B1000880F890F8195835DF7018083ED81FE8198
:103B2000808184FF03C06BE875E002C067E875E040
:103B3000C8010E949024E981FA819081892F880F21
:103B4000890F81958D5AF6018083F70180818F5FFF
:103B50008083E885F98582A5882319F063E875E0FC
:103B600002C06FE775E0C8010E949024E981FA81E4
:103B70009081892F880F890F81958D5AF601808356
:103B8000F70180818F5F80836BE775E0C8010E9439
:103B9000902465E0C4010E94B711882351F0E885A4
:103BA000F98562A56F5FC5010E94EC21C5010E94E5
:103BB000D62164E0C4010E94B711811113C0F30142
:103BC0002081822F90E0A0E0B0E0ED81FE81408175
:103BD000518162817381481759076A077B07A8F0F2
:103BE0002F3F99F08FEFF3018083088519850B5DD6
:103BF0001F4F60E0C8010E94D31FC8010E94AA2184
:103C000081E0E885F985808F0CC066E0C4010E94E0
:103C1000B711882309F443CF888599850E94A61C93
:103C200034CF29960FB6F894DEBF0FBECDBFDF911B
:103C3000CF911F910F91FF90EF90DF90CF90BF90A9
:103C4000AF909F908F907F906F905F904F903F903C
:103C50002F90089540E050E00C94E71CE0E8F7E76F
:103C60002591349181E02130304C09F080E00895B5
:103C7000CF93DF93EC010E942E1E9E01275A3F4FE7
:103C8000DE01A652BE4F882309F43CC0E6E9F7E7FF
:103C90008491F9018083E7E9F7E7E491EC83E8E9AF
:103CA000F7E7E491ED83E9E9F7E7859194919F8344
:103CB0008E83EBE9F7E78591949199878887EDE901
:103CC000F7E7E491EBA7EEE9F7E7E491EAA7EFE97C
:103CD000F7E7E491EC93E0EAF7E7859194919D8F03
:103CE0008C8FE2EAF7E7859194919F8F8E8FE4EABB
:103CF000F7E78591949199A388A3E6EAF7E7859180
:103D0000949120C08CE3F90180831C822FEF2D83D6
:103D100080E293E09F838E8384ED93E09987888788
:103D200081E08BA78AA72C938CEA9DE09D8F8C8FD6
:103D30008EED9DE09F8F8E8F84E79EE099A388A3F0
:103D40008CE39FE09BA38AA3DF91CF910895CF924C
:103D5000DF92EF920F93CF93DF93EC01FC01E751D9
:103D6000FE4F82E38083349741E050E060E070E0F2
:103D700040835183628373833B978FEF8083CE01AF
:103D80000E94381ECE010E94C5106FEFCE010E9426
:103D9000C9106E018AE0C80ED11CC6010E947011C4
:103DA000C6010E948011CE0148960E942C113EE06F
:103DB000E32E0FE020E14BE06DE0CE01825B9F4FF0
:103DC0000E940117A596CE010E943F1F65E0C60123
:103DD0000E94B711882351F060E0CE01DF91CF91AE
:103DE0000F91EF90DF90CF900C94EC2140E06FEFBB
:103DF00075E0CE01DF91CF910F91EF90DF90CF90E2
:103E00000C94DE1FCF93DF9350E0FA01EE0FFF1FFB
:103E1000E80FF91F37852089E32FF22FE60FF11DF8
:103E2000E60FF11D25913491FA01EE0FFF1FE80F07
:103E3000F91F30A3278FF90165917491FC01D4819A
:103E4000D69FC02D1124E40FF51FC1A3F901A59140
:103E5000B4916B2F70E0EC2FF0E0DC01A40FB51FE4
:103E60006E177F0720F4F90125913491C32FCD9F60
:103E7000C02D11249296CC93DF91CF91089521E02B
:103E8000FC01248324E020A72EE536E0308B278731
:103E900040E060E00E94021F61E070E083E00E9469
:103EA0000423E1EBF0E08081887F81608083F894D7
:103EB00010928000E1E8F0E01082109285001092EC
:103EC000840088E191E0909389008093880080814C
:103ED00088608083808181608083EFE6F0E080816C
:103EE00082608083789408950F93FC01862F642F5D
:103EF000011129C08230D1F048F4882391F081303B
:103F000011F540E0CF010F910C94021F8330A9F00E
:103F10008430C9F48481489F602D1124658F268FD9
:103F200012C04B3008F06AE0668B0DC08481489F58
:103F3000602D1124618F228F06C08481489F602DDF
:103F40001124638F248F0F910895FC0121110EC05D
:103F5000648B8481489F402D1124458B15A214A2A7
:103F600013A281E0878B80933C05108E0895809189
:103F70003C05882319F08091390501C080E08093C9
:103F8000B4000895FC0161110DC0178A158A14A2AE
:103F900013A2108E1092390510923A0510923C052A
:103FA0000C94B71F0895CF93DF93EC01611103C008
:103FB0000E94C21F1982DF91CF9108950F931F9322
:103FC000CF93DF93EC018B0141110EC060E00E94A2
:103FD000D31F1E870D871B8A1A8A81E0898389E097
:103FE0008E8B198E1B8E1D8EDF91CF911F910F919D
:103FF0000895CF93DF93EC01611128C08881882355
:1040000029F18981811122C089852F819885E22F2C
:10401000F92FE80FF11DE80FF11D859194918F3F65
:104020002FEF920711F4188211C09C879927880FEF
:10403000991FEA85FB85E80FF91F6591749140E0AF
:10404000CE010E94DE1F89858F5F8987DF91CF9126
:10405000089560E00C94F91F60E00C94D31F0F9357
:10406000CF93DF93EC0161115DC08981882309F44E
:1040700059C08D89811156C02D853E858A899B89BD
:10408000880F991F820F931FFC01859194910097CF
:10409000D1F48989882321F01B8A1A8AF90111C079
:1040A0001982888160E0882331F0CE010E94F91FD7
:1040B0008A899B8925C0CE01DF91CF910F910C9405
:1040C000C21F85919491BC01769567957695679509
:1040D00080FF1DC0AC01A6E056954795AA95E1F773
:1040E000292F26952695269520514F716F7000E057
:1040F000CE010E94741F8A899B8901969B8B8A8BB3
:10410000880F991FED85FE85E80FF91FDACF492F3B
:104110006F7320E0CE010E94A51F8A899B890196BA
:104120009B8B8A8BDF91CF910F91089560E00C9467
:104130002F20CF93DF93EC016111B9C08F898823C1
:1041400009F4B5C08D89811105C0CE01DF91CF91F1
:104150000C94C21F81508D8B8DA1811138C08BA111
:104160009CA101969C01220F331FEF8DF8A1E20F55
:10417000F31F25913491422F47704EA3A90163E0AC
:10418000569547956A95E1F7BA0176956795232F7D
:10419000269526952FA36F732C81629F602D112485
:1041A0006DA34170409338059CA38BA329A130E0F7
:1041B0008217930760F08AA1882329F0281B310910
:1041C0003CA32BA304C060E0CE010E94C21F8DA1BE
:1041D00081508DA3288D2F5F288F4C893FA1340FEC
:1041E0008C85380F3A836B8D662361F070E0822FE7
:1041F000992787FD90950E9403278C8D869F300D0F
:1042000011243A838A8190E0CB966BE370E00E94A0
:1042100003278A833E893B83698D662371F0772764
:1042200067FD7095822F992787FD90950E9403273F
:104230008A8D869F300D11243B836D8D662391F00E
:10424000822F992787FD909570E00E940327CB016C
:1042500062E070E00E9403272E8D9B81289F900DC5
:1042600011249B838B814F3339F08A300CF089E025
:1042700087FD80E08B8301C01B82F894EA81F0E027
:10428000E35FF94FE491E0933B0598A58D81989FFA
:10429000802D11249B81899F802D11249EA1899FAF
:1042A000802D112480933A05809339057894DF910D
:1042B000CF91089560E00C94992060913A056623AF
:1042C00021F180913D058F5F80933D0590913B05E5
:1042D0008917D8F080913C0591E0892780933C05AF
:1042E00010923D0580913805882369F090911C015A
:1042F00083E4989F802D1124895B80931C010E9488
:10430000E326909339050C94B71F08951F920F92DE
:104310000FB60F9211242F933F934F935F936F9398
:104320007F938F939F93AF93BF93EF93FF930E94DD
:104330005D21FF91EF91BF91AF919F918F917F91FF
:104340006F915F914F913F912F910F900FBE0F9002
:104350001F901895CF93DF93EC0160E00E94D31F6C
:1043600086E596E09E878D871B8A1A8A81E089837D
:1043700089E08E8B198E1B8E1D8EDF91CF91089553
:10438000CF93DF93EC0160E00E94D31F8EE496E0B0
:104390009E878D871B8A1A8A81E0898389E08E8BAC
:1043A000198E1B8E1D8EDF91CF910895CF93DF93D1
:1043B000EC0160E00E94D31F88E496E09E878D8721
:1043C0001B8A1A8A81E0898389E08E8B198E1B8E65
:1043D0001D8EDF91CF910895FC01862F992787FDCF
:1043E0009095668170E06F5F7F4F0E940327858301
:1043F00008951F920F920FB60F9211242F933F939F
:104400008F939F93AF93BF9380913F059091400509
:10441000A0914105B091420530913E0523E0230F64
:104420002D3720F40196A11DB11D05C026E8230FEC
:104430000296A11DB11D20933E0580933F059093E8
:104440004005A0934105B0934205809143059091AA
:104450004405A0914505B09146050196A11DB11DE9
:104460008093430590934405A0934505B09346057A
:10447000BF91AF919F918F913F912F910F900FBE60
:104480000F901F9018952FB7F89460913F05709189
:10449000400580914105909142052FBF08953FB797
:1044A000F8948091430590914405A0914505B09101
:1044B000460526B5A89B05C02F3F19F00196A11D02
:1044C000B11D3FBF6627782F892F9A2F620F711D6C
:1044D000811D911D42E0660F771F881F991F4A9525
:1044E000D1F708958F929F92AF92BF92CF92DF92B1
:1044F000EF92FF926B017C010E944F224B015C0105
:10450000C114D104E104F104F1F00E94B5250E9428
:104510004F22681979098A099B09683E7340810511
:10452000910570F321E0C21AD108E108F10888EE84
:10453000880E83E0981EA11CB11CC114D104E104B3
:10454000F10429F7DDCFFF90EF90DF90CF90BF907F
:10455000AF909F908F900895789484B5826084BDC9
:1045600084B5816084BD85B5826085BD85B5816077
:1045700085BDEEE6F0E0808181608083E1E8F0E0D7
:104580001082808182608083808181608083E0E806
:10459000F0E0808181608083E1EBF0E080818460E5
:1045A0008083E0EBF0E0808181608083EAE7F0E0E7
:1045B000808184608083808182608083808181604B
:1045C00080838081806880831092C10008958E303E
:1045D00008F08E50877020911D0190E4299F900172
:1045E0001124822B80937C0080917A0080648093D8
:1045F0007A0080917A0086FDFCCF8091780020912E
:10460000790090E0922B08951F93CF93DF93182F9A
:10461000EB0161E00E948C23209711F460E004C05C
:10462000CF3FD10539F461E0812FDF91CF911F9108
:104630000C94C523E12FF0E0E659F94FE491E33003
:10464000F9F048F4E130B9F0E230A1F584B58062C8
:1046500084BDC8BD34C0E730E9F0E83019F1E4307A
:1046600049F580918000806280938000D0938B0018
:10467000C0938A0024C084B5806884BDC7BD1FC0B4
:1046800080918000806880938000D0938900C093DF
:10469000880015C08091B00080688093B000C093FE
:1046A000B3000DC08091B00080628093B000C093D1
:1046B000B40005C0C038D1050CF0B5CFAFCFDF9145
:1046C000CF911F910895833081F028F4813099F0C3
:1046D0008230A1F008958730A9F08830B9F0843095
:1046E000D1F4809180008F7D03C0809180008F770E
:1046F00080938000089584B58F7702C084B58F7D44
:1047000084BD08958091B0008F7703C08091B00080
:104710008F7D8093B0000895CF93DF9390E0FC01EC
:10472000E258F94F2491FC01EE56F94F8491882309
:1047300049F190E0880F991FFC01E654F94FA591CB
:10474000B4918055994FFC01C591D4919FB76111E7
:1047500008C0F8948C91209582238C9388818223C1
:104760000AC0623051F4F8948C91322F3095832333
:104770008C938881822B888304C0F8948C91822B3F
:104780008C939FBFDF91CF9108950F931F93CF9389
:10479000DF931F92CDB7DEB7282F30E0F901E6593D
:1047A000F94F8491F901E258F94F1491F901EE564D
:1047B000F94F04910023C9F0882321F069830E94F6
:1047C00063236981E02FF0E0EE0FFF1FE055F94F02
:1047D000A591B4919FB7F8948C91611103C0109585
:1047E000812301C0812B8C939FBF0F90DF91CF91CC
:1047F0001F910F910895CF93DF93282F30E0F90197
:10480000E659F94F8491F901E258F94FD491F90131
:10481000EE56F94FC491CC2391F081110E9463238D
:10482000EC2FF0E0EE0FFF1FEA55F94FA591B49180
:104830002C912D2381E090E021F480E002C080E003
:1048400090E0DF91CF910895CF92DF92EF92FF92A7
:104850000F931F93CF93DF937C016A01EB0100E07C
:1048600010E00C151D0571F06991D701ED91FC91D7
:104870000190F081E02DC7010995892B19F00F5F98
:104880001F4FEFCFC801DF91CF911F910F91FF9084
:10489000EF90DF90CF9008956115710581F0DB01F5
:1048A0000D900020E9F7AD0141505109461B570B0F
:1048B000DC01ED91FC910280F381E02D099480E010
:1048C00090E00895EF92FF920F931F93CF93DF93A1
:1048D0008C017B01C0E0D0E0F701EC0FFD1F64917B
:1048E000662359F0F801A081B181ED91FC91C801D6
:1048F0000995892B11F02196EFCFCE01DF91CF9151
:104900001F910F91FF90EF900895DC01ED91FC91C4
:104910000190F081E02D09946DE271E00C944C243B
:104920000F931F93CF93DF93EC010E9462248C01BD
:10493000CE010E948C24800F911FDF91CF911F9197
:104940000F9108958F929F92AF92BF92DF92EF9254
:10495000FF920F931F93CF93DF93CDB7DEB7A1974D
:104960000FB6F894DEBF0FBECDBF7C01F42FD52E5D
:10497000CB0119A2223008F42AE08E010F5D1F4FEF
:10498000822E912CA12CB12C6F2F7D2DA50194018D
:104990000E941727F22FD32ECA01015011096A3045
:1049A00014F4E0E301C0E7E3E60FD801EC93232B16
:1049B000242B252B49F7B801C7010E944C24A1964E
:1049C0000FB6F894DEBF0FBECDBFDF91CF911F9120
:1049D0000F91FF90EF90DF90BF90AF909F908F90DE
:1049E0000895CF92DF92EF92FF920F931F93CF9390
:1049F000DF93EC016A017B012115310579F4E8812F
:104A0000F9810190F081E02D642FDF91CF911F910A
:104A10000F91FF90EF90DF90CF9009942A303105ED
:104A2000E9F477FF1AC06DE20E9485248C014427C7
:104A30005527BA014C195D096E097F092AE0CE019C
:104A40000E94A224800F911FDF91CF911F910F919F
:104A5000FF90EF90DF90CF9008952AE0B701A60174
:104A6000CE01DF91CF911F910F91FF90EF90DF90DA
:104A7000CF900C94A2249A01AB01662757FD609554
:104A8000762F0C94F1242115310541F4DC01ED91D0
:104A9000FC910190F081E02D642F09940C94A224E4
:104AA0009A01AB0160E070E00C944325611571053B
:104AB0008105910511F00C94CC2708954F925F92D7
:104AC0006F927F92AF92BF92CF92DF92EF92FF925E
:104AD0000F931F93CF93DF93CDB7DEB729013A0130
:104AE000621B730B840B950B29893A894B895C896E
:104AF0002A193B094C095D09298B3A8B4B8B5C8B3E
:104B00009B01AC0169897A898B899C890E94D32693
:104B1000E418F50806091709A80197010E9439272A
:104B20002A0D3B1D4C1D5D1DCA01B901DF91CF91BE
:104B30001F910F91FF90EF90DF90CF90BF90AF90BB
:104B40007F906F905F904F90089508950E94AC22DF
:104B50000E94A5250E948D03C0E0D0E00E9467104E
:104B60002097E1F30E940000F9CF089598D088F0D3
:104B70009F5790F0B92F9927B751A0F0D1F0660F49
:104B8000771F881F991F1AF0BA95C9F712C0B13064
:104B900081F09FD0B1E008959CC0672F782F8827BF
:104BA000B85F39F0B93FCCF3869577956795B395A3
:104BB000D9F73EF490958095709561957F4F8F4F12
:104BC0009F4F0895E89409C097FB3EF49095809517
:104BD000709561957F4F8F4F9F4F9923A9F0F92FC3
:104BE00096E9BB279395F695879577956795B79541
:104BF000F111F8CFFAF4BB0F11F460FF1BC06F5F27
:104C00007F4F8F4F9F4F16C0882311F096E911C038
:104C1000772321F09EE8872F762F05C0662371F059
:104C200096E8862F70E060E02AF09A95660F771F6D
:104C3000881FDAF7880F9695879597F9089597F961
:104C40009F6780E870E060E008959FEF80EC089532
:104C500000240A941616170618060906089500245B
:104C60000A9412161306140605060895092E0394D5
:104C7000000C11F4882352F0BB0F40F4BF2B11F449
:104C800060FF04C06F5F7F4F8F4F9F4F089557FDA8
:104C90009058440F551F59F05F3F71F04795880FAA
:104CA00097FB991F61F09F3F79F087950895121641
:104CB00013061406551FF2CF4695F1DF08C01616ED
:104CC00017061806991FF1CF86957105610508949E
:104CD0000895E894BB2766277727CB0197F90895B5
:104CE0000BD0C4CFB5DF28F0BADF18F0952309F058
:104CF000A6CFABCF1124EECFCADFA0F3959FD1F39F
:104D0000950F50E0551F629FF001729FBB27F00D79
:104D1000B11D639FAA27F00DB11DAA1F649F6627CE
:104D2000B00DA11D661F829F2227B00DA11D621F1D
:104D3000739FB00DA11D621F839FA00D611D221FD7
:104D4000749F3327A00D611D231F849F600D211DBB
:104D5000822F762F6A2F11249F5750408AF0E1F05E
:104D600088234AF0EE0FFF1FBB1F661F771F881FA7
:104D700091505040A9F79E3F510570F060CFAACFE7
:104D80005F3FECF3983EDCF3869577956795B79592
:104D9000F795E7959F5FC1F7FE2B880F911D9695BC
:104DA000879597F90895DB018F939F930E94582769
:104DB000BF91AF91A29F800D911DA39F900DB29FB7
:104DC000900D11240895991B79E004C0991F96173E
:104DD00008F0961B881F7A95C9F780950895AA1B3D
:104DE000BB1B51E107C0AA1FBB1FA617B70710F0D6
:104DF000A61BB70B881F991F5A95A9F78095909508
:104E0000BC01CD01089597FB072E16F4009407D03E
:104E100077FD09D00E94EF2607FC05D03EF490955F
:104E200081959F4F0895709561957F4F0895A1E2F8
:104E30001A2EAA1BBB1BFD010DC0AA1FBB1FEE1F14
:104E4000FF1FA217B307E407F50720F0A21BB30B5F
:104E5000E40BF50B661F771F881F991F1A9469F7DB
:104E600060957095809590959B01AC01BD01CF0137
:104E70000895052E97FB1EF400940E94502757FDBD
:104E800007D00E94172707FC03D04EF40C9450273C
:104E900050954095309521953F4F4F4F5F4F089566
:104EA00090958095709561957F4F8F4F9F4F089596
:104EB0000E946927A59F900DB49F900DA49F800D1F
:104EC000911D11240895EE0FFF1F0590F491E02D20
:104ED0000994A29FB001B39FC001A39F700D811DD3
:104EE0001124911DB29F700D811D1124911D0895F3
:104EF0008F929F92AF92BF92CF92DF92EF92FF92EA
:104F0000CF93DF93EC01688179818A819B81611560
:104F100071058105910521F464E279ED8BE597E057
:104F20002DE133EF41E050E00E94392749015A0159
:104F30009B01AC01A7EAB1E40E9458276B017C01F8
:104F4000ACEEB4EFA50194010E94D827C60ED71E7F
:104F5000E81EF91EF7FE06C081E0C81AD108E10874
:104F600080E8F80AC882D982EA82FB82C701B601CA
:104F70009F77DF91CF91FF90EF90DF90CF90BF9020
:104F8000AF909F908F9008950E947827089586E0B3
:104F900091E00E94782708956093060170930701BD
:104FA00080930801909309010895B7FF0C94582746
:0E4FB0000E945827821B930B0895F894FFCFA0
:104FBE000000470580000100000002000200020010
:104FCE00020002000200140028001E000101000071
:104FDE000000F01824244C4F41444552000D0A00A5
:0E4FEE006E616E00696E66006F7666002E00C2
:00000001FF
