:100000000C94C6020C94EE020C94EE020C94EE02D8
:100010000C94EE020C94EE020C94EE020C94EE02A0
:100020000C94EE020C94EE020C94EE020C94A31AC3
:100030000C94EE020C94EE020C94EE020C94EE0280
:100040000C94201B0C94EE020C94EE020C94EE0225
:100050000C94EE020C94EE020C94EE020C94EE0260
:100060000C94EE020C94EE02401E00000000000012
:100070000000000000000000000000000000100070
:100080000000000000000F0000000000000C7F8056
:10009000000000000007FF80000000000007FFC014
:1000A00000000000000FF0C0000000000007C0408A
:1000B0000000000000078440000000000003014031
:1000C0000000000000078080000000000079C100EF
:1000D000000000000181F200000000000201FC00AD
:1000E00000000000027FFA0000000000018FF260B3
:1000F00000000000001FF1A000000000001FFC2015
:1001000000000000003FD3C000000000005FD000EE
:1001100000000000008FF000000000000107F980DF
:1001200000000000020FFF80000000000411FF80AB
:100130000000000004207F800000000002101F006B
:100140000000000001E006000000000000000000C8
:10015000000000000000000000000803FF99FF08F5
:1001600008387478501810101008083874B810380F
:10017000101814080838F4381018102844080838E3
:1001800074B8103810305008063874785018380099
:100190000008057088B8887000000008052050A885
:1001A0005020000000080570F8F888700000000872
:1001B00005381038381000000008043810387C006A
:1001C0000000000803BAD67C00000000000803BA53
:1001D000D67C00000000000804AA57BBD60000002F
:1001E000000804AA57BBD6000000000802AA570066
:1001F000000000000047414D4531004D61636965D5
:100200006A446F62727A616E736B692047414D4533
:100210000003053F213F1208120A100A0E1C0E0CA3
:100220001E0C141A14161F161E131E1E1B1E1E1F34
:100230001E3F213F3A2F3A173D173F213F181F021B
:10024000040A041F0E04040E1F0A1F0A0E0E1F04C8
:10025000110E2E252E2F2A2E262929021F02081FB5
:1002600008150E04040E150E15151B151B040604A7
:10027000040C040000000017000300031F0A1F16EF
:10028000371A1904130A153A000300000E11110E53
:10029000000A040A040E04003000040404001000E4
:1002A0001804031F111F121F101D151711151F070A
:1002B000041F17151D1F151D01011F1F151F1715E1
:1002C0001F000A00003200040A110A0A0A110A0477
:1002D0000115020E11171E051E1F150A0E110A1F09
:1002E000110E1F15111F05010E111D1F041F111FD7
:1002F0001108100F1F041B1F10101F061F1E040FD4
:100300000E110E1F09060E112E1F051A12150901D6
:100310001F011F101F0F180F1F0C1F1B041B031C96
:1003200003191513001F11030418111F0002010205
:100330002020200001020C121E1F120C0C12120CA5
:10034000121F0C1A14041E05242A1E1F021C141D41
:100350001020201D1F0814111F101E041E1E021C39
:100360000C120C3E0A040C123E1E040214160A0261
:100370000F120E101E0E100E1E081E120C12262832
:100380001E322A26041E21001F00211E0401020124
:100390003F213F0A4E6F2053442063617264206FF7
:1003A000720A6E6F204C4F414445522E4845580A00
:1003B0000A153A45786974001D20466C61736869B6
:1003C0006E670A20206C6F616465722E2E2E0A0AF9
:1003D000444F4E2754205455524E204F464621003C
:1003E0000A0A153A49676E6F7265006D560A0A501F
:1003F0004C45415345205455524E204F464620000F
:100400004C4F5720424154544552592120001773F4
:1004100061766500166261636B0015747970650022
:100420000A0A0A153A6F6B617920163A6564697495
:1004300000596F7520656E74657265640A00540A10
:1004400003E181867F3E186D830F0F0E0183866066
:1004500033186DC3198F1803C38E6033186DE330E2
:10046000CF1803C39E603630CDE360CF3006C79E01
:100470007E3E30CDB360CF300CC6F6603330D9B697
:1004800060CF33CFCCF66061B0DB1E60CF30D86C6C
:10049000E6C061B0DB1E618F19986CC6C063B19B6A
:1004A0000E330F0FB078C6FF7E1F1B061E0F1753AB
:1004B00044001613780016131400151020001520A0
:1004C00010000000050089300802380249786814DD
:1004D00000004500680100000500680138010000C7
:1004E0000500380168010000F6E8DBCFC3B8AEA410
:1004F0009B928A827B746E68625C57524E4945417A
:100500003E3A3734312E2C29272523211F1D1C1A52
:100510001917161514131211100F0E0D0C0B0A09D2
:1005200008070627052B050101F7030101FF03005A
:10053000000000240027002A0000000000250028F9
:10054000002B000000000023002600290004040402
:10055000040404040402020202020203030303036C
:100560000301020408102040800102040810200149
:10057000020408102000000007000201000003042C
:1005800006000000000000000000230411241FBE2C
:10059000CFEFD8E0DEBFCDBF11E0A0E0B1E0E2E3F5
:1005A000F3E402C005900D92AC34B107D9F714E022
:1005B000ACE4B1E001C01D92A631B107E1F715E04E
:1005C000CCE8D5E004C02297FE010E945C21CA3825
:1005D000D107C9F70E94981D0C9497210C94000034
:1005E000A0E0B0E0E6EFF2E00C946821EC01A88016
:1005F000B980CA80DB80A114B104C104D10441F4E4
:1006000084E2A82E89EDB82E8BE5C82E87E0D82E7F
:10061000C601B5012DE133EF41E050E00E943F21DA
:1006200027EA31E440E050E00E94D7207B018C01B2
:10063000C601B5012DE133EF41E050E00E943F21BA
:10064000CA01B9012CEE34EF4FEF5FEF0E94D720C3
:100650006E0D7F1D801F911F97FF04C06150704079
:1006600080409048688379838A839B839B013F778E
:10067000C901CDB7DEB7EAE00C9484210E94F002F4
:10068000089581E391E00E94F0020895A0E0B0E0B7
:100690008093310190933201A0933301B0933401E0
:1006A0000895A0E0B0E0E7E5F3E00C946821EC01E8
:1006B000A880B980CA80DB80A114B104C104D10430
:1006C00041F484E2A82E89EDB82E8BE5C82E87E090
:1006D000D82EC601B5012DE133EF41E050E00E9474
:1006E0003F2127EA31E440E050E00E94D7207B011F
:1006F0008C01C601B5012DE133EF41E050E00E94CD
:100700003F21CA01B9012CEE34EF4FEF5FEF0E9499
:10071000D7206E0D7F1D801F911F97FF04C0615071
:10072000704080409048688379838A839B839B01D3
:10073000AC015F77B901CA01CDB7DEB7EAE00C942E
:1007400084210E945103089585E391E00E945103A2
:10075000089560933501709336018093370190932B
:1007600038010895DC0101C06D9341505040E0F71D
:1007700008951092D50186E290E09093D70180937E
:10078000D6012091390130913A0128503040309300
:10079000DB012093DA0181E090E09093E101809306
:1007A000E00142E050E05093DF014093DE018FEF23
:1007B0009FEF9093E3018093E2011092E501109284
:1007C000E4011092E6019093E8018093E7012C5F29
:1007D0003F4F3093EA012093E9015093EC0140939D
:1007E000EB011092EE011092ED011092F0011092C7
:1007F000EF011092FB019093FD018093FC01909317
:10080000FF018093FE0110920302109202021092E7
:10081000F1011092F2019093F4018093F3012850BA
:1008200030403093F6012093F5011092F8011092B8
:10083000F7011092FA011092F90183E0809304020B
:1008400010920502089510929D0110929C0187E478
:1008500091E090939B0180939A0186E092E060E0A2
:1008600070E00E945E0A8093D3010895DF92EF92B8
:10087000FF920F931F93D090A00121E02093A0013D
:100880002091BD013091BE01280F391F7901002749
:10089000F7FC0095102F06C08CE491E00E94DD1457
:1008A0008823D1F38091BD019091BE01A091BF0139
:1008B000B091C0018E159F05A007B10768F3109293
:1008C000A001DD2019F081E08093A0011F910F911C
:1008D000FF90EF90DF9008958F929F92AF92BF921A
:1008E000CF92DF92EF92FF920F931F93DF93CF93FC
:1008F00000D000D000D0CDB7DEB78CE491E00E94EC
:10090000DD14882309F476C580910402882309F058
:1009100073C08AE991E00E9439128AE991E061E0AE
:100920000E9430128AE991E060E041E00E94050CEB
:100930008AE18093A3018FE08093A4018AE991E08A
:1009400060E071E00E94561F84E18093A30189E179
:100950008093A4018AE991E069E071E00E94531F4D
:10096000809105028A3028F48AE991E061E171E022
:1009700006C0843630F48AE991E065E171E00E94B6
:10098000531F8AE991E0609105024AE050E00E941D
:10099000E21E90910502992381F08091D30198176E
:1009A00061F484E18093A30183E28093A4018AE946
:1009B00091E068E171E00E94561F8AE991E061E0F0
:1009C00040E00E94050C86E092E060E070E040911B
:1009D000D3010E94650A8CE390E00E9436040E94D5
:1009E000B9038CE491E065EF71E048E650E00E94C5
:1009F000501610926401FEC48AE991E00E943912F7
:100A00008AE991E064E271E00E94531F8AE991E073
:100A1000609104024AE050E00E94D01E83E280937D
:100A2000A3018AE991E0609105024AE050E00E944A
:100A3000D01E8CE38093A3018AE991E066E271E025
:100A40000E94531F8AE991E06091D3014AE050E08F
:100A50000E94D01E10E08AE991E0612F4091390197
:100A60002AE531E000E0EE240E94E30F185F103623
:100A700091F78091E4019091E501892B09F059C02B
:100A80000FEF1FEF1093E3010093E2011092D901E1
:100A90001092D8011092DD011092DC0186E591E000
:100AA00060E041E00E94460B882359F01092E30178
:100AB0001092E20181E08093D5011093E10100934F
:100AC000E00186E591E062E041E00E94460B882368
:100AD00071F082E090E09093E3018093E201109244
:100AE000D50181E090E09093E1018093E00186E5FB
:100AF00091E061E041E00E94460B882341F0809143
:100B0000DA019091DB019093E5018093E40186E5A1
:100B100091E063E041E00E94460B882351F083E0BE
:100B200090E09093E3018093E2011092E101109232
:100B3000E0018091E2019091E30197FD21C0809155
:100B4000E0019091E1012091D6013091D701820F0F
:100B5000931F9093D7018093D60197FF04C0109202
:100B6000D7011092D6018091D6019091D7018D3492
:100B7000910534F08CE490E09093D7018093D601F6
:100B80004091E4015091E5014115510509F44CC033
:100B90002091DA013091DB018091DE019091DF013B
:100BA000281B390B3093DB012093DA012115310525
:100BB00029F0421B530B4031510559F48091DE015D
:100BC0009091DF01909581959F4F9093DF018093E5
:100BD000DE014091390150913A016091DC01709140
:100BE000DD019A01275030408091DA019091DB01BC
:100BF000860F971F82179307BCF048505040461B42
:100C0000570B5093DB014093DA018091DE01909104
:100C1000DF01909581959F4F9093DF018093DE01D6
:100C20001092E5011092E4012091E2013091E3017C
:100C300037FF06C08091E4019091E501892BD1F046
:100C40008091E4019091E501892B11F082E004C0CC
:100C50002330310521F484E08093D4010DC08091CC
:100C6000BD0180FD09C08091D4018F5F8093D401C4
:100C7000843010F01092D401E091D4018AE0E89F12
:100C8000B0011124DB01A15ABE4FFD01249188E07F
:100C900090E0AC01421B51099A015093D901409355
:100CA000D801605A7E4FFB013491831B91099093C8
:100CB000DD018093DC016091D601620F4091DA0181
:100CC000480F8AE991E09D0100E0E090D5010E9483
:100CD000E30F8091F1018823C1F48091F701909195
:100CE000F801892B91F40091BD011091BE010E9481
:100CF00041030C591F4F64E670E00E940A21080F5F
:100D0000191F1093F8010093F7018091F1018823D6
:100D100009F070C08091F7019091F801AA2797FD22
:100D2000A095BA2F2091BD013091BE014091BF0125
:100D30005091C001281739074A075B0708F45AC0C9
:100D4000DE011196EDE3F1E086E001900D92815015
:100D5000E1F70E94410321E02093F1011092F2019A
:100D6000E1E0F0E029813A81E21BF30B64E670E0F8
:100D70000E940A21E80FF91FF7FF02C080E010C0AF
:100D80008B819C819F01281B390B37FF02C081E0BA
:100D900007C08D819E81281B390B37FF03C082E07D
:100DA0008093F2018091D6019091D7018B9754F0F6
:100DB0000E9441036FE070E00E940A219C01265FBF
:100DC0003F4F0AC00E9441036FE070E00E940A2179
:100DD0002AE430E0281B390B3093F4012093F3010F
:100DE0008091BD019091BE0188539F4F9093FA016D
:100DF0008093F9018091F101882309F4B7C0209113
:100E0000F2018AE0289F900111242F563E4F8AE973
:100E100091E06091F3014091F50100E0EE240E9421
:100E2000E30F8091D8019091D901E091DC01F0911C
:100E3000DD016091D6017091D701680F791F409153
:100E4000DA015091DB014E0F5F1F08E010E09801BE
:100E5000281B390B0E1B1F0BE090F301F090F401DF
:100E6000C090F501D090F6018CE491E0F5E0AF2E52
:100E7000B12CE5E08E2E912C0E94B213882309F448
:100E800050C081E791E00E94C71A8091F201813041
:100E900059F0813018F08230C1F51DC080910502F3
:100EA0008E5F8093050231C01092FB018FEF9FEFA0
:100EB0009093FD018093FC019093FF018093FE01CC
:100EC0008091BD019091BE0180579E4F9093030287
:100ED000809302021AC08091EB019091EC011816E8
:100EE00019061CF08FEF9FEF02C081E090E0909315
:100EF000EC018093EB018091BD019091BE01805780
:100F00009E4F9093F0018093EF011092F1011092A7
:100F1000F2011092F4011092F3011092F801109274
:100F2000F7018091F9019091FA01AA2797FDA09508
:100F3000BA2F2091BD013091BE014091BF01509167
:100F4000C001281739074A075B0780F01092F101AA
:100F50001092F2011092F4011092F3011092F80134
:100F60001092F7011092FA011092F9018091FB01A1
:100F70008823C1F48091020290910302892B91F49D
:100F80000091BD011091BE010E9441030E5C1F4FF4
:100F900064E670E00E940A21080F191F10930302F3
:100FA000009302028091FB01882349F5809102029F
:100FB00090910302AA2797FDA095BA2F2091BD0119
:100FC0003091BE014091BF015091C00128173907EF
:100FD0004A075B07A0F081E08093FB010E94410378
:100FE0006CE270E00E940A210C969093FD018093C0
:100FF000FC0186E090E09093FF018093FE018091D8
:10100000FB01882309F4C9C02091FE013091FF0142
:101010002F5F3F4F3093FF012093FE0180913901F4
:1010200090913A010497281739072CF41092010285
:101030001092000209C08091000290910102019675
:1010400090930102809300024091000250910102AE
:10105000473051050CF091C04115510529F4C0905D
:10106000FE01D090FF0114C0FA01EE0FFF1FCA016C
:1010700023E0880F991F2A95E1F7E80FF91FE05543
:10108000FE4FE491C0903901D0903A01CE1AD108B8
:101090009A0193E0220F331F9A95E1F7440F551FF1
:1010A000240F351F21553E4F8AE991E06091FC01E4
:1010B0004C2D00E0EE240E94E30F2091D8013091E6
:1010C000D901A091DC01B091DD01809100029091E5
:1010D0000102FC0103E0EE0FFF1F0A95E1F7880F04
:1010E000991FE80FF91FE055FE4FE4916091D6017A
:1010F0007091D701620F731F4091DA015091DB01AB
:101100004A0F5B1F08E010E0C801821B930B9C0193
:101110000A1B1B0BE090FC01F090FD018CE491E0B8
:10112000B8E0AB2EB12C8E2E99240E94B2138823E6
:10113000A1F181E791E00E94D31A809104028150CD
:10114000809304021092FB018FEF9FEF9093FD01BB
:101150008093FC019093FF018093FE0110920302A3
:10116000109202021092E6019093E8018093E70149
:101170001092EE011092ED0110C01092FB018FEF62
:101180009FEF9093FD018093FC019093FF0180936A
:10119000FE0110920302109202028091E601882360
:1011A000C1F48091ED019091EE01892B91F40091B1
:1011B000BD011091BE010E944103065F1F4F68E20E
:1011C00070E00E940A21080F191F1093EE0100938E
:1011D000ED018091E601882309F063C08091ED0163
:1011E0009091EE01AA2797FDA095BA2F2091BD01FD
:1011F0003091BE014091BF015091C00128173907BD
:101200004A075B0708F44DC081E08093E60181E75F
:1012100091E00E94CD1A8091EF019091F001892B0D
:1012200019F082E090E007C00E94410362E070E0A4
:101230000E940A2102969093EC018093EB010091A9
:10124000390110913A010E94410363E070E00E946D
:101250000A2180959095880F991F880F991F080F74
:10126000191F1093EA010093E9010E94410380FDD8
:1012700007C081E090E09093E8018093E70111C0FE
:1012800083E590E09093E8018093E7018091EB0182
:101290009091EC01909581959F4F9093EC018093F4
:1012A000EB018091E601882309F480C06091EB0195
:1012B0007091EC018091E7019091E801680F791F2E
:1012C0007093E8016093E7018AE991E04091E901B8
:1012D00021E00E949B0D8091D8019091D901E0916D
:1012E000DC01F091DD016091D6017091D701680FAA
:1012F000791F4091DA015091DB014E0F5F1F08E02A
:1013000010E09801281B390B0E1B1F0BE090E70122
:10131000F090E801C090E901D090EA018CE491E0FE
:10132000F2E0AF2EB12CE2E08E2E912C0E94B2138F
:10133000882319F181E791E00E94D31A8091040279
:101340008150809304021092E6018FEF9FEF9093FB
:10135000E8018093E7011092EE011092ED011092E6
:10136000FB019093FD018093FC019093FF0180931A
:10137000FE0110920302109202028091EF019091FF
:10138000F001AA2797FDA095BA2F2091BD013091B9
:10139000BE014091BF015091C00182179307A4077D
:1013A000B50720F41092F0011092EF018091E60150
:1013B0008823C1F08091E7019091E801843591057F
:1013C00088F0809105028F5F809305021092E601FC
:1013D0008FEF9FEF9093E8018093E7011092EE0169
:1013E0001092ED01909105028091D301891710F4BC
:1013F0009093D30126960FB6F894DEBF0FBECDBFF3
:10140000CF91DF911F910F91FF90EF90DF90CF90E0
:10141000BF90AF909F908F9008958091D3018F3FA0
:1014200011F41092D3018CE491E00E94B3178CE484
:1014300091E00E9492148CE491E06BEF71E048E639
:1014400050E00E945016109264010E94B903089562
:10145000882319F48CB5806202C08CB58F7D8CBD59
:1014600008959CB5937F982B9CBD08952CB5382F7B
:1014700033702C7F322B3CBD2DB590E09595879530
:101480009595879581702E7F822B8DBD08958AE07A
:1014900061E00E94F11C8AE061E00E94B21C8CB500
:1014A00080618CBD8CB580648CBD8DE061E00E9454
:1014B000B21C8BE061E00E94B21C0895F999FECF46
:1014C00072BD61BDF89A80B50895F999FECF1FBA33
:1014D00072BD61BD40BD0FB6F894FA9AF99A0FBE7D
:1014E0000895FC0181E08083089585E070E00E940A
:1014F000521C08956F927F928F929F92AF92BF92EB
:10150000CF92DF92EF92FF920F931F93CF93DF93CF
:10151000EC0189819A818C0124E0000F111F2A952A
:10152000E1F7081B190B85E10E94301CBC01600F1C
:10153000711F84E0769567958A95E1F77A836983D0
:101540008881882381F12E813F816217730710F40F
:10155000B90106C0888599858617970708F4BC01EC
:1015600000D000D080E090E040E050E0E884F984D2
:1015700000E010E0AD80BB24CC24DD246C80772417
:1015800088249924EDB7FEB76182728283829482A7
:101590000E94691F6B830F900F900F900F9085E052
:1015A00070E00E94521CDF91CF911F910F91FF902C
:1015B000EF90DF90CF90BF90AF909F908F907F90F3
:1015C0006F900895FC018CE39FE09383828384E015
:1015D000818381E084870895CF93DF93EC018C8130
:1015E0009D81892BB1F18C8590E08F719070892B52
:1015F00069F584E10E94301CAA2797FDA095BA2FB7
:10160000BC01CD010E94E81F26EE3FE34EEC50E402
:101610000E9474200E94BA1F9B01AC017B836A83E5
:101620006115710589F084E08983B901FE0120E02C
:10163000848195816817790710F429830AC02F5F88
:1016400032962430A9F702C08FEF89838C858F5F93
:101650008C87DF91CF910895FC0188E0808389E039
:10166000818387E0828386E0838384E0848382E0D1
:10167000858381E18683089520E0FC01E60FF11D5A
:101680008781813009F421E0822F0895E62FF0E070
:10169000423040F420E0E80FF91F878181508E3FEF
:1016A00088F40FC0E80FF91F87818F3F11F420E005
:1016B00009C020E090E0642F70E00E94F6200197BE
:1016C00009F421E0822F08950F931F93CF93DF93A6
:1016D000EC0110E00FEF888162E00E94B21C88816B
:1016E0000E94451D2F81892B19F42F5F2F8307C07E
:1016F000222349F02F3F11F41F8201C00F838881FC
:1017000060E00E94B21C1F5F2196173021F7DF9125
:10171000CF911F910F910895FC01742F643508F04B
:101720006FC047FD6DC040330CF06AC080A18230AD
:1017300021F5842F859585958595992787FD909529
:10174000462F552747FD509524E530E0829FF00154
:10175000839FF00D929FF00D1124E40FF51FE95FB8
:10176000FD4F808190E0272F277002C095958795C7
:101770002A95E2F78095817009C0833039F4948509
:10178000842F8627892780FF03C01FC08823E9F4A0
:10179000E72FE595E595E59584E5E802F00111244C
:1017A000862F992787FD9095E80FF91FE95FFD4F78
:1017B000777081E090E002C0880F991F7A95E2F778
:1017C00080952081282320830895E72FE595E595CE
:1017D000E59584E5E802F0011124862F992787FD1D
:1017E0009095E80FF91FE95FFD4F777081E090E079
:1017F00002C0880F991F7A95E2F72081282B208359
:101800000895FC0160A361A30895FC0160A341A3B6
:101810000895EF92FF920F931F93CF93DF93EC0104
:10182000E62EF42E022F10E007C0412F4F0DCE01FF
:101830006E2D0E948C0B1F5F1017BCF3DF91CF91B0
:101840001F910F91FF90EF900895EF92FF920F93E9
:101850001F93CF93DF93EC01E62EF42E022F10E0BE
:1018600007C0612F6E0DCE014F2D0E948C0B1F5FA4
:101870001017BCF3DF91CF911F910F91FF90EF9064
:1018800008959F92AF92BF92CF92DF92EF92FF9214
:101890000F931F93CF93DF936C01962EB42EA22E3D
:1018A000C0E0D0E0E42EFF24E7FCF094112707FD10
:1018B00010950E0D1F1D06C0C601692D2A2D0E9410
:1018C000250C21964B2D4C0FCE018E0D9F1D8017A0
:1018D000910794F3DF91CF911F910F91FF90EF90BB
:1018E000DF90CF90BF90AF909F9008952F923F923E
:1018F0005F926F927F928F929F92AF92BF92CF92A0
:10190000DF92EF92FF920F931F93DF93CF9300D05C
:1019100000D000D0CDB7DEB79E838D83C62ED42EE7
:10192000EE24E394E21A8EEF289F502C1124842E8B
:101930008A94962E9A94A42EA394B62EB394F22E43
:10194000662423E0722E10E0C801847090709A83A0
:101950008983F801E270F070FC83EB8398E0292E14
:10196000312C202231220170107054C0E7FC04C0D9
:10197000FA94F2E05F0EE50C639489819A81892BD9
:1019800071F04F2D4D0D8D819E816B2D0E948C0B22
:101990006F2D6C0D8D819E814A2D0E948C0BEB81E9
:1019A000FC81EF2B71F04D2D4F198D819E816B2D98
:1019B0000E948C0B6F2D6C0D8D819E81482D0E9495
:1019C0008C0B2114310471F06C2D6F198D819E8167
:1019D0004A2D0E948C0B4F2D4D0D8D819E81692DBE
:1019E0000E948C0B0115110571F06C2D6F198D8102
:1019F0009E81482D0E948C0B4D2D4F198D819E810B
:101A0000692D0E948C0BE70CF2E07F0E8A949A9469
:101A1000A394B3946F140CF4A9CF26960FB6F89440
:101A2000DEBF0FBECDBFCF91DF911F910F91FF9011
:101A3000EF90DF90CF90BF90AF909F908F907F906E
:101A40006F905F903F902F9008954F925F926F92AA
:101A50007F928F929F92AF92BF92CF92DF92EF923E
:101A6000FF920F931F93CF93DF93EC01A62E742E5A
:101A70009E2DFF24F394F21A8EEF289F802C1124C0
:101A8000B42EBA9453E0C52ECE0CE22EDD2443E0F2
:101A9000942E10E031E0432E512C40225122692E29
:101AA00063940270107034C0F7FC04C0EA9482E0C2
:101AB000880EF80CD3944114510489F06D2D6A0DF1
:101AC000472D4E192E2D220F260DCE010E94090CF6
:101AD0006E2D6A0DCE014B2D2C2D0E94090C011587
:101AE000110589F06A2D6D19472D4E192E2D220FE3
:101AF000260DCE010E94090C6A2D6E19CE014B2DC8
:101B00002C2D0E94090CF90C82E0980EBA94C80E94
:101B1000DE1454F2DF91CF911F910F91FF90EF905F
:101B2000DF90CF90BF90AF909F908F907F906F90FD
:101B30005F904F900895DF92EF92FF920F931F9363
:101B40007C01062FD42E122F421B220F2F5F0E94E2
:101B5000090CC701602F4D2D212F03E0EE240E94B8
:101B6000250D1F910F91FF90EF90DF9008957F92C8
:101B70008F929F92AF92BF92CF92DF92EF92FF929D
:101B80000F931F936C01962EA42EF22E7E2C760EB0
:101B90001EEFE19E102D1124812E820E672D282D1F
:101BA0000E94250CB02EBA0CBA94C601672D4B2D9D
:101BB000282D0E94250CAE0C100FC601692D4A2D50
:101BC000212F0E94090CF90CFA94C6016F2D4A2DA1
:101BD000212F0E94090CC601672D4A2D2E2D01E0F0
:101BE0000E94760CFE18C6016F2D4A2D2E2D02E0A4
:101BF0000E94760CBE18C6016F2D4B2D2E2D04E0D1
:101C00000E94760CC601672D4B2D2E2D08E00E94F8
:101C1000760C1F910F91FF90EF90DF90CF90BF90C7
:101C2000AF909F908F907F9008958F929F92AF92E8
:101C3000BF92CF92DF92EF92FF920F931F936C01AE
:101C4000162FA42E922EF02EBE2C8E2C860E2EEF4A
:101C5000E29EE02C11242E2D290D682D0E94410CAE
:101C6000AB0CFA94FE0C1150190D1B19C601612F13
:101C70004A2D2B2D01E0EF2C0E94250DC601682D69
:101C80004A2D2B2D02E00E94250D1F910F91FF90F0
:101C9000EF90DF90CF90BF90AF909F908F9008957E
:101CA0002F923F924F925F926F927F928F929F926C
:101CB000AF92BF92CF92DF92EF92FF920F931F935A
:101CC000DF93CF9300D000D0CDB7DEB74C01D62E36
:101CD000142FF9018491319694913197D401909603
:101CE0006C90B3E5B6170CF457C1482F552747FD44
:101CF0005095A62EBB24A7FCB0942A014A0C5B1C6D
:101D0000141415040CF048C110330CF045C1092F10
:101D1000212F332727FD3095892F992787FD90950F
:101D2000820F931F181619060CF036C162E0E62EDA
:101D3000F12CEE0EFF1ECA01079668E070E00E94CB
:101D40000A21762E17FF0EC0010F862F90E0FC01AE
:101D5000E29FC001E39F900DF29F900D1124E81ABD
:101D6000F90A10E0802F992787FD9095212F3327BE
:101D700027FD3095820F931FC19714F000E3011BDC
:101D8000D7FCDD24C2018535910514F084E590E08F
:101D9000C82ED4011C969C909126ED2DF0E0CF0129
:101DA0008A199B09AC014770507020E830E002C0EE
:101DB000359527954A95E2F7B22E68E070E00E94CB
:101DC0000A21AB014E0D5F1D5C834B83212F2770D1
:101DD00081E090E0682F01C0660F2A95EAF715951B
:101DE0001595159584E51802A00111244E0F5F1F6B
:101DF000495F5D4F8824202E332427FC3094472CE4
:101E00005524C4C0EB81FC812491F1E06F1629F5C3
:101E1000AB81BC817B2D022F7A011D2D1BC0872F2A
:101E200090E0202F30E082239323892B21F0F701CB
:101E30008081862B8083872F90E095958795782FDA
:101E4000882321F41196FD01049170E81F5F089426
:101E5000E11CF11C1C1518F38DC0662059F5F62EF7
:101E6000F094AB81BC817B2D022F5A8349831D2DB9
:101E70001EC0872F90E0202F30E082239323892BF0
:101E800029F0E981FA8180818F218083872F90E07A
:101E900095958795782F882321F41196FD0104915B
:101EA00070E81F5F89819A8101969A8389831C1546
:101EB00000F360C093E0691639F0AB81BC817B2DE3
:101EC000022F7A011D2D54C0A62EA094AB81BC8197
:101ED0007B2D022F5A8349831D2DE92CFF2428C016
:101EE000872F90E0202F30E082239323892B79F0F5
:101EF000812F90E08E259F25E981FA81908180FFD6
:101F000002C0962B03C09A21E981FA819083872F22
:101F100090E095958795782F882321F41196FD01FF
:101F2000049170E81F5F89819A8101969A83898361
:101F30001C15B0F291E099261DC0872F90E0202F4C
:101F400030E082239323892B21F0F70180818627BB
:101F50008083872F90E095958795782F882321F4AB
:101F60001196FD01049170E81F5F0894E11CF11CBB
:101F70001C1518F3660F19F44C5A5F4F61E08394F7
:101F80008B819C81840D951D9C838B83882D90E093
:101F9000821593050CF436CF0F900F900F900F9091
:101FA000CF91DF911F910F91FF90EF90DF90CF9035
:101FB000BF90AF909F908F907F906F905F904F9069
:101FC0003F902F9008952F923F924F925F926F9281
:101FD0007F928F929F92AF92BF92CF92DF92EF92B9
:101FE000FF920F931F93DF93CF93CDB7DEB7289760
:101FF0000FB6F894DEBF0FBECDBF1C016A834B83C2
:1020000069019E2C002329F4EE2019F40E94500E41
:1020100083C0F60174900894C11CD11CF601849011
:102020000894C108D108872D90E0079623E0959584
:1020300087952A95E1F703700983672C6A94A62C8B
:1020400000E0282F332727FD30953D832C83382D42
:1020500031503E835EC0802F877090E8492E512C0E
:1020600002C0559447948A95E2F7802F859585950F
:102070008595E82FFF27E7FDF0953296EC0DFD1DC5
:10208000F887EF83BE80FF243FC0EF81F8858491FD
:1020900090E084219521892B69F1F981F13051F08B
:1020A000F13028F0F23049F0F33061F409C0102F1C
:1020B000EF2C08C0EA2C1F2D05C01A2DEB2C02C0F6
:1020C0001B2DE02E992069F023E09222892D90FEAD
:1020D00003C0362D311B132F81FF03C0882D8E19AD
:1020E000E82E9A81190FEB81EE0EC101612F4E2D62
:1020F0000E948C0BF3942F8138858C819D81280F51
:10210000391F38872F83BA94F81409F0BECF0F5FB8
:10211000AA94071509F09FCF28960FB6F894DEBF52
:102120000FBECDBFCF91DF911F910F91FF90EF9028
:10213000DF90CF90BF90AF909F908F907F906F90E7
:102140005F904F903F902F900895DC01FB018491A8
:102150008F5F14968C931497319684918F5F1596A8
:102160008C93159731965F96FC93EE935E97089546
:102170003F924F925F926F927F928F929F92AF9217
:10218000BF92CF92DF92EF92FF920F931F93CF9364
:10219000DF93EC01862EA42E422F102F38A023E5CA
:1021A00026170CF4ABC03FE23A150CF4A7C0C02EC2
:1021B000DD248C8190E001979C01C29EC001C39EEA
:1021C000900DD29E900D1124262F332727FD309598
:1021D000820F931F181619060CF090C08D8190E0A5
:1021E0009C01C29EC001C39E900DD29E900D1124F1
:1021F0002A2D332727FD3095820F931F18161906B5
:102200000CF07CC09924442E55246DC09C012150B3
:1022100030404217530711F460E00EC0429EC001E7
:10222000439E900D529E900D1124840F951FEE8DAC
:10223000FF8DE80FF91F64914C9DC0014D9D900DDD
:102240005C9D900D1124682C680EBB24792C780CB1
:102250003FC0E62EFF2460FF19C0113039F44B2D2A
:102260004A0DCE01672D0E948C0B2EC02C9DC00103
:102270002D9D900D3C9D900D11244A2D480FCE01AF
:10228000662D212F012F0E94410C1EC099A188A10B
:102290009817D1F098A3113039F44B2D4A0DCE0187
:1022A000672D0E948C0B0FC02C9DC0012D9D900DA1
:1022B0003C9D900D11244A2D480FCE01662D212FF3
:1022C000012F0E94410C38A2F594E7946E2DB3942F
:1022D0002B2D332727FD30958D8190E02817390766
:1022E0000CF4B7CF9394492D552747FD50958C8119
:1022F00090E0481759070CF489CF38A2DF91CF91AD
:102300001F910F91FF90EF90DF90CF90BF90AF9013
:102310009F908F907F906F905F904F903F90089527
:102320000F93CF93DF93EC01262F6A3049F48D8110
:102330009885899F802D11249A85980F9A8726C0A9
:102340006D3029F169854A8508850E94B8109C8105
:102350006885969F402D11248985480F49878F8174
:102360008823A9F0552747FD5095699F90011124B6
:1023700084E590E0821B930B8417950744F49D81BC
:10238000699F902D11248A85890F8A87198681E09B
:1023900090E0DF91CF910F9108951F93CF93DF933A
:1023A000EC01162FF8948F8560E00E94F11C88895B
:1023B00018161CF460E00E94F11C1EBD0DB407FE4F
:1023C000FDCF8EB5888918161CF461E00E94F11CBF
:1023D0007894DF91CF911F910895FF920F931F93EF
:1023E000CF93DF93EC018C858F5F8C87FF2400E017
:1023F00010E06F2D6064CE010E94CD11CE0160E827
:102400000E94CD118F8561E00E94F11C8889181609
:102410001CF460E00E94F11CF801E95FFD4F90E0C0
:1024200080818EBD0DB407FEFDCF8EB59F5F3196C6
:102430009435B1F7888918161CF461E00E94F11CEC
:10244000F3940C5A1F4F86E0F81699F6CE0160E41B
:102450000E94CD11DF91CF911F910F91FF900895B0
:1024600087E092E06FEF7FEF48EF51E00E94B20308
:102470000895CF93DF93DC0188EF91E0E7E0F2E08D
:10248000EF019C01199221503040E1F719961C92FE
:1024900019971A961C92DF91CF910895EF920F939E
:1024A000CF93DF93EC014E876D872F87E98A088BE6
:1024B00081E0888788A319A28F83E1E1F2E084910B
:1024C0008F5F8C83319684918F5F8D833196FF8FE0
:1024D000EE8F0E94470A81E00E94280A85E00E9450
:1024E000360A8CE00E94310A8E8561E00E94B21C9F
:1024F0008D8561E00E94B21C8F8561E00E94B21C54
:10250000898918161CF461E00E94B21C888918168B
:102510001CF461E00E94B21C898918166CF460E01A
:102520000E94F11C6AE070E080E090E00E949C1B39
:10253000898961E00E94F11CED852E2F332727FD4C
:102540003095F901E35BFA4FE491F0E0EE0FFF1FE5
:10255000E75CFA4F859194919D8B8C8B2F593A4F64
:10256000F90184918B8FEE852E2F332727FD30952F
:10257000F901E35BFA4FE491F0E0EE0FFF1FE75C37
:10258000FA4F859194919B8B8A8B2F593A4FF90181
:1025900084918A8FE8892E2F332727FD3095F90102
:1025A000E35BFA4FE491F0E0EE0FFF1FE75CFA4FB8
:1025B000859194919F8B8E8B2F593A4FF90184917D
:1025C0008C8FEF852E2F332727FD3095F901E35BA4
:1025D000FA4FE491F0E0EE0FFF1FE75CFA4F8591B0
:1025E0009491998F888F2F593A4FF90184918D8F4B
:1025F000CE0161E20E94CD11CE0164E10E94CD11B5
:102600008B8587FF02C08FE78B876B856068CE0163
:102610000E94CD11CE0160E20E94CD11CE016CE08E
:102620000E94CD11CE010E94ED11DF91CF910F914B
:10263000EF900895CF93DF93DC01E0E8F7E7859111
:102640009491ED01C75ADF4FAD0140595F4F815062
:10265000904C09F04EC0E6E9F7E7E491E883E7E93A
:10266000F7E7E4911496EC931497E8E9F7E7E4911F
:102670001596EC931597E9E9F7E7859194911796EC
:102680009C938E931697EBE9F7E7859194911996B1
:102690009C938E931897EDE9F7E7E4919B96EC9362
:1026A0009B97EEE9F7E7E4919A96EC939A97EFE916
:1026B000F7E7E491EA01E883E0EAF7E7859194918E
:1026C0005D969C938E935C97E2EAF7E785919491EF
:1026D0005F969C938E935E97E4EAF7E785919491D9
:1026E00091969C938E939097E6EAF7E78591949163
:1026F00032C08CE3888314961C9214972FEF1596A2
:102700002C93159780E293E017969C938E931697DF
:1027100084ED93E019969C938E93189781E09B9695
:102720008C939B979A968C939A97FA0120838CEAC4
:102730009DE05D969C938E935C978EED9DE05F96F9
:102740009C938E935E9784E79EE091969C938E93E4
:1027500090978CE39FE093969C938E939297DF9152
:10276000CF9108958F929F92AF92BF92CF92DF92B6
:10277000EF92FF920F931F93DF93CF93CDB7DEB706
:10278000260F371FE216F30694F4AE0CBF1C6A1531
:102790007B056CF4040F151FC016D10644F480E0CD
:1027A0008C0C9D1C481559051CF481E001C080E08B
:1027B000CF91DF911F910F91FF90EF90DF90CF901D
:1027C000BF90AF909F908F900895EF92FF920F93DC
:1027D0001F93CF93DF937C018C01025B1F4FC801D5
:1027E0000E943912C80168EB73E00E94D11DC80134
:1027F0000E94ED1183E00E94360A8AE291E0EEEF3A
:10280000FFE3099584E590E0E80EF91EF7011082D8
:10281000C80163E973E00E941C1EC8010E94ED110B
:10282000E701CA54D040CE010E94640BCE0164E09F
:102830000E943C0B882339F462E370E080E090E072
:102840000E949C1BF0CFDF91CF911F910F91FF90C1
:10285000EF900895AF92BF92CF92DF92EF92FF92E6
:102860000F931F93CF93DF93EC01CA57DF4F8881FB
:10287000C658D040882309F44AC08C3010F010E0CC
:1028800002C01CE0181BCA5ADF4F81E08883C6557E
:10289000D0406EE4C62ED12CCC0EDD1EC60160E009
:1028A0000E94010C53E5A52EB12CAC0EBD1EF50106
:1028B00000814DE2F42E4F2D401B410F0D5FC601EC
:1028C00060E024E533E0E32E0E94150EC60161E0CE
:1028D0000E94010CF5010081F01AF10E0D5FC60196
:1028E00060E04F2D24E50E94B70DC95ADF4F84E008
:1028F0008993F5018081181B115D1883AC9669914D
:102900007991C6010E94D11D888181508883DF9111
:10291000CF911F910F91FF90EF90DF90CF90BF90DC
:10292000AF9008954F925F926F927F928F929F9295
:10293000AF92BF92CF92DF92EF92FF920F931F93CD
:102940002C01FC01628C738C60947094882499240F
:102950000E94761B5B016C010E94761B7B018C013F
:10296000F201418052800E94761B460E571EA094B1
:10297000B094C094D094E094F09400951095C60162
:10298000B501A80197010E94D720A40193010E94DC
:10299000D720460E571EC2010E94B21F1F910F91F1
:1029A000FF90EF90DF90CF90BF90AF909F908F906F
:1029B0007F906F905F904F900895AF92BF92CF92AB
:1029C000DF92EF92FF920F931F93CF93DF93EC016F
:1029D000E0E8AE2EB12CA80EB91EF501E080F18022
:1029E000028113810E94681BE61AF70A080B190B73
:1029F0007FE7C72ED12CCC0EDD1EF601808190E042
:102A0000A0E0B0E08E159F05A007B10708F081C0D7
:102A10008E0105581F4FF80180819181A281B381F9
:102A20000097A105B10509F474C00E94681BF60166
:102A30002081620F711D811D911DF50160837183DD
:102A400082839383FE01EF58FF4F80819181A281A1
:102A5000B3810196A11DB11D80839183A283B383AD
:102A6000F80110821182128213820E94761BC958CB
:102A7000DF4F688379838A839B83C757D040CE0119
:102A80000E947A0ACE010A960E94640BCE014896F3
:102A90000E94EC0A81E032C08E010B5D1F4FC8011D
:102AA0000E947618C8010E947419C8010E946A1A0F
:102AB000CE010E942A14CE010E9496158E01025B5F
:102AC0001F4FC8010E94ED11CC5ADF4F8881C455B9
:102AD000D040882319F4C8010E9439120E94761B45
:102AE000C558DF4F688379838A839B832497288125
:102AF0003981621B730B7A936A9380E0DF91CF91E7
:102B00001F910F91FF90EF90DF90CF90BF90AF900B
:102B10000895C558DF4F88819981AA81BB81CB5721
:102B2000D0400097A105B10541F7B6CFBF92CF9233
:102B3000DF92EF92FF920F931F93CF93DF93EC01FD
:102B40008C8D9D8D892B09F4A1C08E01025B1F4FD6
:102B5000C80161E040E00E94050CFE01E95AFF4F08
:102B6000CE5ADF4F85E59881891B8083269618828F
:102B7000C855D040698D613009F469C0613028F0D2
:102B8000888D653008F07CC076C0CE0185960E94A5
:102B90007A18CA5ADF4F81E08883C655D040C801F1
:102BA00061E172E00E94A5101D8E1C8ECC5ADF4F91
:102BB0001882C455D040AAE0CA2ED12CCC0EDD1EFE
:102BC000BC2EED2EF8EAFF2ECE010E94DD148823E4
:102BD000D9F3C80160E074E00E94D11D6A8D7B8D3D
:102BE000C8014AE050E00E94BF1EC8016BEE73E0CE
:102BF0000E94D11D6F2D62956F70C80170E04AE090
:102C000050E00E94401FC80160EE73E00E94D11D99
:102C1000C60164E00E943C0B8823C1F5FA94A1F63A
:102C20008B2D9E2D60E00E94750A83B7817F8460A2
:102C300083BF83B7816083BF83B7816083BF88957B
:102C400083B78E7F83BF83B78E7F83BFBDCFCF58BF
:102C5000DF4F88819981AA81BB818F709070A070AD
:102C6000B0700897A105B10518F4C80167E00CC061
:102C7000C80168E709C0882349F06B5FC80104C038
:102C8000882321F0C8016FE20E94F41DDF91CF91EB
:102C90001F910F91FF90EF90DF90CF90BF9008951C
:102CA0002F923F924F925F926F927F928F929F925C
:102CB000AF92BF92CF92DF92EF92FF920F931F934A
:102CC000DF93CF93CDB7DEB72B970FB6F894DEBF67
:102CD0000FBECDBF9B878A877A8369835C834B83D2
:102CE0008C0100591F4FF8018081882309F422C10B
:102CF0008A859B858A5A9F4F9B878A8781E0EA85D0
:102D0000FB85808312921292E455F040FB87EA879C
:102D1000108E4EE4E42EF12CEE0EFF1EC70161E092
:102D20000E94010C3AE0232E312C8A859B85280EC7
:102D3000391E25E2622E712C680E791EE981FA8116
:102D4000F491FD83B7E58B2E912C880E991EA8E592
:102D5000CA2ED12CC80ED91EF2E54F2E512C480E8A
:102D6000591E8D5A9F4F9F838E83E1E7AE2EB12C63
:102D70008A859B85A80EB91E198708878A859B8539
:102D80000E94DD148823D1F39D81992311F410E072
:102D900003C0EE81FF811081C70160E040E02EE3B7
:102DA00034E00E94500E8B819C81892B41F0145F8E
:102DB000C70160E0412F2B813C810E94500EF4013D
:102DC00010828CE0F6018083C70169817A810E94BC
:102DD000D11DF201208130E0C901880F991F820FB7
:102DE000931F909581959F4F8D5AF4018083EE81BA
:102DF000FF81208130E0C901880F991F820F931F46
:102E0000909581959F4F835DF6018083F5018081C8
:102E100084FF04C0C7016EEB74E003C0C7016AEB16
:102E200074E00E941C1EF201208130E0C901880F6D
:102E3000991F820F931F909581959F4F8D5AF40192
:102E40008083F60180818F5F8083EA85FB8582A580
:102E5000882321F0C70166EB74E003C0C70162EB71
:102E600074E00E941C1EF201808190E09C01220F00
:102E7000331F280F391F309521953F4F2D5AF401EC
:102E80002083F60180818F5F8083C7016EEA74E042
:102E90000E941C1EC10165E00E943C0B882351F07A
:102EA000EA85FB8562A56F5FC3010E94D91AC30141
:102EB0000E94D31AC10164E00E943C0B882399F45C
:102EC000E885F9856081262F30E040E050E0F5018B
:102ED00080819181A281B38182179307A407B507EE
:102EE00008F16F3FF9F08A859B8580599F4F9B873A
:102EF0008A878FEFEA85FB858083E057F040FB8768
:102F0000EA87C30160E00E941A18C3010E94C71A31
:102F100081E0EA85FB85808F0DC08A859B850E94B4
:102F2000E5132CCFC10166E00E943C0B882309F415
:102F300025CFF3CF2B960FB6F894DEBF0FBECDBFD3
:102F4000CF91DF911F910F91FF90EF90DF90CF9085
:102F5000BF90AF909F908F907F906F905F904F90B9
:102F60003F902F900895AF92BF92CF92DF92EF9251
:102F70000F93CF93DF936C018FE790E0C80ED91EBB
:102F800082E3F601808381E090E0A0E0B0E0B293BC
:102F9000A293929382936F0185EF9FEFC80ED91E83
:102FA0008FEFF601808380E99FEFC80ED91EC6011E
:102FB0000E941A13C6010E94710AC6016FEF0E9497
:102FC000750A6AE0A62EB12CAC0CBD1CC5010E948E
:102FD0002C0BC5010E94640BC60148960E94E20AB0
:102FE000C601825B9F4F6DE04BE020E10FE05EE0A9
:102FF000E52E0E944E12E601A596CE010E94E61A29
:10300000C50165E00E943C0B882329F0CE0160E0F9
:103010000E94D91A06C0CE0164EC74E040E00E9420
:103020002C18DF91CF910F91EF90DF90CF90BF9050
:10303000AF900895FC01662371F4178A158A14A2D3
:1030400013A2108E10920B0410920A04109208041E
:103050001092B400118208950F931F93CF93DF93C2
:10306000EC018B01442371F460E00E941A181E8762
:103070000D871B8A1A8A81E0898389E08E8B198EDD
:103080001B8E1D8EDF91CF911F910F910895CF93CD
:10309000DF93EC01662339F58881882321F189814A
:1030A000882309F5898590E0880F991FEF81F885BD
:1030B000E80FF91F859194912FEF8F3F920711F43C
:1030C000188211C09C8790E0880F991FEA85FB85C4
:1030D000E80FF91F65917491CE0140E00E942C1811
:1030E00089858F5F8987DF91CF91089560E00E9485
:1030F0004718089560E00E941A1808950F93DC01A4
:10310000002309F069C0623009F443C0633030F431
:10311000662359F0613009F05FC00DC0633009F4D7
:1031200044C0643009F058C04CC04B3008F04AE04D
:1031300056964C9351C0842F90E0880F991F1F968C
:103140002D913C915097280F391FF9018591949149
:1031500090969C938E935F97FC01459154911496A1
:103160008C911497849F602D112491966C93919764
:10317000252F3327862F90E02817390708F4652F6D
:1031800014968C911497689F802D112492968C939D
:1031900023C014968C911497489F802D1124599622
:1031A0008C9359975A962C9317C014968C91149718
:1031B000489F802D11245B968C935B975C962C9393
:1031C0000BC014968C911497489F802D11245D9606
:1031D0008C935D975E962C930F9108950F93CF93E8
:1031E000DF93EC01662309F07BC08981882309F411
:1031F00077C08D89882309F073C0EA89FB89EE0FB7
:10320000FF1F4D855E85E40FF51F25913491211533
:10321000310509F049C08989813031F41B8A1A8A45
:10322000FA012591349140C019828881882379F070
:10323000CE0160E00E9447188A899B89880F991FF8
:10324000ED85FE85E80FF91F259134912DC01F8A69
:103250001D8A1CA21BA2188E10920B0410920A0445
:10326000109208041092B4003BC006E036952795F2
:103270000A95E1F76F70422F4F71B5E036952795AB
:10328000BA95E1F72051CE0100E00E947E188A89AC
:103290009B8901969B8B8A8B880F991FED85FE85F4
:1032A000E80FF91F25913491B901769567957695C8
:1032B000679520FDDACF862F8F738C8B8C81839F4F
:1032C000802D11248D8B1DA21CA21BA281E08F8B4F
:1032D00080930804188E8A899B8901969B8B8A8B20
:1032E000DF91CF910F91089560E00E94EE1808954C
:1032F000CF93DF93EC01662309F0E9C08F8988231F
:1033000009F4E5C08D89882371F41F8A1D8A1CA2E7
:103310001BA2188E10920B0410920A04109208043B
:103320001092B400D4C081508D8B8DA1882309F0F8
:1033300044C08BA19CA10196880F991FEF8DF8A125
:10334000E80FF91F85919491282F27702EA3AC01C7
:1033500073E0569547957A95E1F79A01369527954A
:10336000892F9927869586958FA32F738C81289F07
:10337000202D11242DA3417040930C048BA19CA1FE
:1033800001969CA38BA329A130E082179307A8F094
:103390008AA1882329F0281B31093CA32BA30DC047
:1033A0001F8A1D8A1CA21BA2188E10920B04109259
:1033B0000A04109208041092B4008DA181508DA3CC
:1033C000988D9F5F988F2FA18C89280F8C85280F4F
:1033D0002A836B8D662369F0892F992787FD909545
:1033E00070E00E940A218C8D869F802D1124820F0F
:1033F0008A838A8190E0CB966BE370E00E940A2179
:103400008A832E892B83698D662379F0888D7727AF
:1034100067FD7095992787FD90950E940A218A8DF6
:10342000869F802D1124820F8B836D8D662399F0EA
:10343000888D992787FD909570E00E940A21CB0125
:1034400062E070E00E940A219E8D899F802D1124E8
:103450009B81890F8B838B818A300CF089E087FDFB
:1034600080E08B838C898F3309F41B82F894EA8186
:10347000F0E0E851FB4FE491E09309042D8130E046
:103480008B81992787FD9095A901489F9001499FBD
:10349000300D589F300D112488A590E0A901489F58
:1034A0009001499F300D589F300D11248EA199270E
:1034B00087FD9095AC01249FC001259F900D349FFE
:1034C000900D112480930A0480930B047894DF916B
:1034D000CF91089560E00E947819089560910A04E0
:1034E000662381F1809107048F5F80930704909198
:1034F0000904891738F130E080910804882309F421
:1035000031E0309308041092070480910C04882362
:10351000A9F080913B0123E4829FC0011124895BC3
:1035200080933B0190E070E00E94F62080930B04B2
:1035300005C080910B048093B40008953323C9F72C
:1035400080E0F9CF08951F920F920FB60F921124C9
:103550002F933F934F935F936F937F938F939F939B
:10356000AF93BF93EF93FF930E946E1AFF91EF9179
:10357000BF91AF919F918F917F916F915F914F918B
:103580003F912F910F900FBE0F901F90189560EEF6
:1035900074E040E00E942C18089568ED74E040E06B
:1035A0000E942C18089562ED74E040E00E942C18EF
:1035B0000895FC01862F668170E06F5F7F4F992729
:1035C00087FD90950E940A21858308950F93FC0141
:1035D00081E0848384E080A783E295E0908B8787F5
:1035E000CF0161E040E020E000E00E947E1883E02F
:1035F00061E070E00E94521CE1EBF0E08081887F86
:1036000081608083F89410928000E1E8F0E01082FD
:10361000109285001092840088E191E090938900D7
:10362000809388008081886080838081816080832E
:10363000EFE6F0E080818260808378940F910895B6
:103640001F920F920FB60F9211242F933F938F93D7
:103650009F93AF93BF938091110490911204A09116
:103660001304B0911404309115040196A11DB11DED
:10367000232F2D5F2D3720F02D570196A11DB11D51
:10368000209315048093110490931204A0931304C3
:10369000B093140480910D0490910E04A0910F0436
:1036A000B09110040196A11DB11D80930D0490935B
:1036B0000E04A0930F04B0931004BF91AF919F919B
:1036C0008F913F912F910F900FBE0F901F901895E3
:1036D0008FB7F89420911104309112044091130493
:1036E000509114048FBFB901CA0108959FB7F8948F
:1036F00020910D0430910E0440910F04509110045C
:1037000086B5A89B06C08F3F21F02F5F3F4F4F4FDC
:103710005F4F9FBF542F432F322F2227280F311D79
:10372000411D511D82E0220F331F441F551F8A95F2
:10373000D1F7B901CA0108959B01AC017FB7F89494
:1037400080910D0490910E04A0910F04B09110048B
:1037500066B5A89B05C06F3F19F00196A11DB11D6C
:103760007FBFBA2FA92F982F8827860F911DA11DE3
:10377000B11D62E0880F991FAA1FBB1F6A95D1F780
:10378000BC012DC0FFB7F89480910D0490910E04F8
:10379000A0910F04B0911004E6B5A89B05C0EF3FBF
:1037A00019F00196A11DB11DFFBFBA2FA92F982FA7
:1037B00088278E0F911DA11DB11DE2E0880F991F72
:1037C000AA1FBB1FEA95D1F7861B970B885E934013
:1037D000C8F2215030404040504068517C4F211584
:1037E00031054105510571F60895789484B58260DC
:1037F00084BD84B5816084BD85B5826085BD85B595
:10380000816085BDEEE6F0E0808181608083E1E843
:10381000F0E010828081826080838081816080837B
:10382000E0E8F0E0808181608083E1EBF0E080817E
:1038300084608083E0EBF0E0808181608083EAE750
:10384000F0E08081846080838081826080838081D9
:10385000816080838081806880831092C100089598
:10386000982F8E3008F09E50977080913C01829581
:10387000880F880F807C892B80937C0080917A0050
:10388000806480937A0080917A0086FDFCCF20913D
:10389000780040917900942F80E030E0282B392B7C
:1038A000C90108951F93CF93DF93182FEB0161E0B7
:1038B0000E94B21C209709F44AC0CF3FD10509F4F9
:1038C00049C0E12FF0E0EB58FA4F84918330C1F00A
:1038D000843028F4813051F08230B1F50CC086304C
:1038E00019F1873049F1843079F514C084B58068C6
:1038F00084BDC7BD33C084B5806284BDC8BD2EC041
:1039000080918000806880938000D0938900C0936C
:10391000880024C080918000806280938000D093D2
:103920008B00C0938A001AC08091B0008068809399
:10393000B000C093B30012C08091B0008062809349
:10394000B000C093B4000AC0C038D1051CF4812F68
:1039500060E002C0812F61E00E94F11CDF91CF91F5
:103960001F910895CF93DF93482F50E0CA018F59DC
:103970009A4FFC013491435B5A4FFA01849188239A
:1039800069F190E0880F991FFC01E15DFA4FA59164
:10399000B491FC01E75CFA4FC591D491662351F4D0
:1039A0002FB7F8948C91932F909589238C938881CD
:1039B00089230BC0623061F42FB7F8948C91932F58
:1039C000909589238C938881832B88832FBF06C091
:1039D0009FB7F8948C91832B8C939FBFDF91CF91ED
:1039E0000895482F50E0CA018B589A4FFC0124914A
:1039F000CA018F599A4FFC019491435B5A4FFA01C7
:103A00003491332309F440C0222351F1233071F063
:103A1000243028F42130A1F0223011F514C02630D2
:103A2000B1F02730C1F02430D9F404C08091800077
:103A30008F7703C0809180008F7D8093800010C0BD
:103A400084B58F7702C084B58F7D84BD09C0809115
:103A5000B0008F7703C08091B0008F7D8093B0005D
:103A6000E32FF0E0EE0FFF1FE75CFA4FA591B49152
:103A70002FB7F894662321F48C919095892302C086
:103A80008C91892B8C932FBF0895682F70E0CB0108
:103A90008B589A4FFC012491CB018F599A4FFC010E
:103AA0004491635B7A4FFB019491992319F420E0D0
:103AB00030E03CC0222351F1233071F0243028F44F
:103AC0002130A1F0223011F514C02630B1F027309A
:103AD000C1F02430D9F404C0809180008F7703C0F6
:103AE000809180008F7D8093800010C084B58F7797
:103AF00002C084B58F7D84BD09C08091B0008F77EE
:103B000003C08091B0008F7D8093B000892F90E03A
:103B1000880F991F8D5B9A4FFC01A591B4918C91F0
:103B200020E030E0842311F021E030E0C901089565
:103B3000CF93DF930E94F51B0E940D0AC0E0D0E0F6
:103B40000E946C042097E1F30E940000F9CFCF920D
:103B5000DF92EF92FF920F931F93CF93DF937C013D
:103B60006B018A01C0E0D0E00FC0D6016D916D01FC
:103B7000D701ED91FC910190F081E02DC7010995ED
:103B8000C80FD91F015010400115110571F7CE0162
:103B9000DF91CF911F910F91FF90EF90DF90CF9029
:103BA0000895EF92FF920F931F93CF93DF937C01C1
:103BB0008B01C0E0D0E0F8010F5F1F4F64916623D6
:103BC00059F0D701ED91FC910190F081E02DC701F2
:103BD0000995C80FD91FEFCFCE01DF91CF911F916B
:103BE0000F91FF90EF900895DC01ED91FC91019011
:103BF000F081E02D09950895EF92FF920F931F93A6
:103C00008C01DC01ED91FC910190F081E02D6DE0E3
:103C100009957C01D801ED91FC910190F081E02D96
:103C2000C8016AE009959C012E0D3F1DC9011F9135
:103C30000F91FF90EF900895EF92FF920F931F93D3
:103C40007C010E94D11D8C01C7010E94FC1D9C01BA
:103C5000200F311FC9011F910F91FF90EF90089520
:103C6000CF93DF93EC016115710519F420E030E08A
:103C70000FC0DB010D900020E9F71197A61BB70BD1
:103C8000E881F9810280F381E02DAD0109959C0165
:103C9000C901DF91CF9108954F925F927F928F92E9
:103CA0009F92AF92BF92CF92DF92EF92FF920F93CB
:103CB0001F93DF93CF93CDB7DEB7A1970FB6F894DC
:103CC000DEBF0FBECDBF2C01742ECB01223008F415
:103CD0002AE019A231E2C32ED12CCC0EDD1E822E99
:103CE0009924AA24BB24672D752FA50194010E9455
:103CF0001D2179018A01C801B701A50194010E9423
:103D0000D720472D461B0894C108D1084A3014F427
:103D1000405D01C0495CF6014083E114F1040105F6
:103D2000110521F07E2C5F2DC801DDCFC201B60147
:103D30000E94301EA1960FB6F894DEBF0FBECDBF15
:103D4000CF91DF911F910F91FF90EF90DF90CF9077
:103D5000BF90AF909F908F907F905F904F9008950D
:103D6000DC012115310541F4ED91FC910190F081C8
:103D7000E02D642F099508950E944C1E0895EF923E
:103D8000FF920F931F939A017B0100E010E0B801AE
:103D9000A7010E94B01E1F910F91FF90EF90089510
:103DA000EF92FF920F931F939A01E62EFF2400E0FB
:103DB00010E0B801A7010E94B01E1F910F91FF9063
:103DC000EF900895CF92DF92EF92FF920F931F939F
:103DD0006C01E62E9A01FF2400E010E0B801A70173
:103DE0000E94B01E8C01C6010E94FC1D080F191F05
:103DF000C8011F910F91FF90EF90DF90CF90089531
:103E0000CF92DF92EF92FF920F931F93CF93DF93A6
:103E1000EC016A017B012115310541F4E881F9814A
:103E20000190F081E02D642F09951FC02A303105E3
:103E3000D1F477FF17C0E881F9810190F081E02D7E
:103E40006DE209958C0144275527BA014C195D098B
:103E50006E097F09CE012AE00E944C1E9801280FAE
:103E6000391F04C02AE00E944C1E9C01C901DF9149
:103E7000CF911F910F91FF90EF90DF90CF90089519
:103E8000EF92FF920F931F937B019A010027F7FC9B
:103E90000095102FB801A7010E94001F1F910F91DC
:103EA000FF90EF9008950E94301E0895EF92FF92C8
:103EB0000F931F937C010E94301E8C01C7010E944A
:103EC000FC1D080F191FC8011F910F91FF90EF9063
:103ED00008952F923F924F925F926F927F928F92AE
:103EE0009F92AF92BF92CF92DF92EF92FF920F9389
:103EF0001F93DF93CF93CDB7DEB73B014C01190180
:103F00002A016D897E898F89988D6A197B098C09B0
:103F10009D09621A730A840A950AA40193010E94FA
:103F2000D720E218F30804091509A80197010E9497
:103F30003F212A0D3B1D4C1D5D1DB901CA01CF91CA
:103F4000DF911F910F91FF90EF90DF90CF90BF9086
:103F5000AF909F908F907F906F905F904F903F9029
:103F60002F900895009729F0BC0180E090E00E9416
:103F7000A903089598D088F09F5790F0B92F9927FA
:103F8000B751A0F0D1F0660F771F881F991F1AF064
:103F9000BA95C9F712C0B13081F09FD0B1E0089551
:103FA0009CC0672F782F8827B85F39F0B93FCCF3D2
:103FB000869577956795B395D9F73EF4909580955A
:103FC000709561957F4F8F4F9F4F0895E89409C07A
:103FD00097FB3EF490958095709561957F4F8F4F3C
:103FE0009F4F9923A9F0F92F96E9BB279395F69552
:103FF000879577956795B795F111F8CFFAF4BB0FD0
:1040000011F460FF1BC06F5F7F4F8F4F9F4F16C033
:10401000882311F096E911C0772321F09EE8872FBD
:10402000762F05C0662371F096E8862F70E060E079
:104030002AF09A95660F771F881FDAF7880F9695F2
:10404000879597F9089597F99F6780E870E060E099
:1040500008959FEF80EC089500240A941616170621
:1040600018060906089500240A9412161306140669
:1040700005060895092E0394000C11F4882352F0CC
:10408000BB0F40F4BF2B11F460FF04C06F5F7F4F84
:104090008F4F9F4F089557FD9058440F551F59F06B
:1040A0005F3F71F04795880F97FB991F61F09F3F25
:1040B00079F087950895121613061406551FF2CF4E
:1040C0004695F1DF08C0161617061806991FF1CF9E
:1040D00086957105610508940895E894BB276627C5
:1040E0007727CB0197F908950BD0C4CFB5DF28F01F
:1040F000BADF18F0952309F0A6CFABCF1124EECF8D
:10410000CADFA0F3959FD1F3950F50E0551F629F32
:10411000F001729FBB27F00DB11D639FAA27F00D20
:10412000B11DAA1F649F6627B00DA11D661F829F47
:104130002227B00DA11D621F739FB00DA11D621F2C
:10414000839FA00D611D221F749F3327A00D611D49
:10415000231F849F600D211D822F762F6A2F11242B
:104160009F5750408AF0E1F088234AF0EE0FFF1F7E
:10417000BB1F661F771F881F91505040A9F79E3FB5
:10418000510570F060CFAACF5F3FECF3983EDCF3AF
:10419000869577956795B795F795E7959F5FC1F7F2
:1041A000FE2B880F911D9695879597F90895629F2C
:1041B000D001739FF001829FE00DF11D649FE00D1F
:1041C000F11D929FF00D839FF00D749FF00D659F80
:1041D000F00D9927729FB00DE11DF91F639FB00D7F
:1041E000E11DF91FBD01CF0111240895AA1BBB1BBE
:1041F00051E107C0AA1FBB1FA617B70710F0A61BE7
:10420000B70B881F991F5A95A9F780959095BC0107
:10421000CD01089597FB092E07260AD077FD04D01B
:10422000E5DF06D000201AF4709561957F4F089560
:10423000F6F7909581959F4F0895A1E21A2EAA1B3B
:10424000BB1BFD010DC0AA1FBB1FEE1FFF1FA21746
:10425000B307E407F50720F0A21BB30BE40BF50B43
:10426000661F771F881F991F1A9469F760957095CC
:10427000809590959B01AC01BD01CF01089597FBFE
:10428000092E05260ED057FD04D0D7DF0AD0001C1A
:1042900038F450954095309521953F4F4F4F5F4FE3
:1042A0000895F6F790958095709561957F4F8F4FA3
:1042B0009F4F0895EE0FFF1F0590F491E02D099494
:1042C0002F923F924F925F926F927F928F929F9226
:1042D000AF92BF92CF92DF92EF92FF920F931F9314
:1042E000CF93DF93CDB7DEB7CA1BDB0B0FB6F894C5
:1042F000DEBF0FBECDBF09942A88398848885F8405
:104300006E847D848C849B84AA84B984C884DF8075
:10431000EE80FD800C811B81AA81B981CE0FD11D59
:104320000FB6F894DEBF0FBECDBFED010895F8942F
:02433000FFCFBD
:10433200594F5520444945440053434F52453A2072
:104342000030303000303000484947482053434F56
:10435200524521000300484920004C4F4144455238
:104362000001000000010000002C000101320019D0
:0C437200001900000000009011A71D00C1
:00000001FF
