:100000000C94E7020C940F030C940F030C940F0351
:100010000C940F030C940F030C940F030C940F0318
:100020000C940F030C940F030C940F030C9498176B
:100030000C940F030C940F030C940F030C940F03F8
:100040000C94F8190C940F030C940F030C940F03E9
:100050000C940F030C940F030C940F030C940F03D8
:100060000C940F030C940F03C403DA03B803BB030F
:10007000BE03C103C703CC03D703D103D4034D652B
:1000800074616C6F67004D6574616C6F6700AF00E1
:10009000BC00A00096004D61696E204D656E750034
:1000A00044656C6574652043697263756974004CBE
:1000B0006F6164204369726375697400536176658A
:1000C000204369726375697400101000000002001B
:1000D000060FF6181E37CE2C6E282C282C282C2C18
:1000E0006837D818300FE000000000101000000042
:1000F000000C000E00270033C01FFC0E7E061E07FA
:100100000603000380038003C001C000001010003C
:10011000000E000A000BE00AA00AA03AA02830282E
:100120001028102810203038600FC00FC0000008C1
:10013000046090906010100000000000001FF81094
:1001400008F02810681728102F1728F00810081F2B
:10015000F800000000000010100000000006001F62
:10016000F8164816C816481648100F10E810A810C0
:10017000E81FF80000000000001010000000000060
:10018000001FF8104810C810481648160F16E81639
:10019000A816E81FF806000000000010100000007C
:1001A0000000001FF81008F62813681628102F17F3
:1001B00028F00810081FF8000000000000101000D0
:1001C00000000000001FF810081088118C108AF041
:1001D0008F1088100810081FF800000000000010A1
:1001E000100000000000001FF81008F628136C161D
:1001F0002A102F1728F00810081FF8000000000030
:100200000010100000000000001FF81008F3081490
:100210008C130A14CF1488F34810081FF80000004C
:1002200000000010100000000000000FF01FF81F79
:10023000F81FF81FF8FFFF1FF81FF81FF80FF00056
:10024000000000000010100000000000000FF01F70
:10025000F81C3818181818F81F18181C381FF80F31
:10026000F000000000000010100000000000001F5F
:10027000F81008F3081488130814CF1488F34810F2
:10028000081FF80000000000000A4E6F20534420B1
:1002900063617264206F720A6E6F204C4F41444557
:1002A000522E4845580A0A153A45786974001D20AF
:1002B000466C617368696E670A20206C6F616465C3
:1002C000722E2E2E0A0A444F4E2754205455524E59
:1002D000204F464621000A0A153A49676E6F72653B
:1002E000006D560A0A504C45415345205455524E14
:1002F000204F464620004C4F57204241545445520F
:1003000059212000172B152010204C4F41444552F5
:1003100000172B16201314001753440016137800EF
:10032000161314001510200015201000540A03E1C4
:1003300081867F3E186D830F0F0E01838660331810
:100340006DC3198F1803C38E6033186DE330CF1857
:1003500003C39E603630CDE360CF3006C79E7E3E3D
:1003600030CDB360CF300CC6F6603330D9B660CF35
:1003700033CFCCF66061B0DB1E60CF30D86CE6C006
:1003800061B0DB1E618F19986CC6C063B19B0E33E0
:100390000F0FB078C6FF7E1F1B061E0F05008930A9
:1003A0000802380249786814000003053F213F1213
:1003B00008120A100A0E1C0E0C1E0C141A14161F1A
:1003C000161E131E1E1B1E1E1F1E3F213F3A2F3AD4
:1003D000173D173F213F181F02040A041F0E040493
:1003E0000E1F0A1F0A0E0E1F04110E2E252E2F2A75
:1003F0002E262929021F02081F08150E04040E15B7
:100400000E15151B151B040604040C040000000047
:1004100017000300031F0A1F16371A1904130A15C1
:100420003A000300000E11110E000A040A040E0423
:100430000030000404040010001804031F111F12F0
:100440001F101D151711151F07041F17151D1F1548
:100450001D01011F1F151F17151F000A0000320084
:10046000040A110A0A0A110A040115020E11171EC4
:10047000051E1F150A0E110A1F110E1F15111F054B
:10048000010E111D1F041F111F1108100F1F041B47
:100490001F10101F061F1E040F0E110E1F09060E3F
:1004A000112E1F051A121509011F011F101F0F1809
:1004B0000F1F0C1F1B041B031C03191513001F1116
:1004C000030418111F000201022020200001020C69
:1004D000121E1F120C0C12120C121F0C1A14041EE6
:1004E00005242A1E1F021C141D1020201D1F081485
:1004F000111F101E041E1E021C0C120C3E0A040CBE
:10050000123E1E040214160A020F120E101E0E10C6
:100510000E1E081E120C1226281E322A26041E2128
:10052000001F00211E040102013F213FF6E8DBCF3E
:10053000C3B8AEA49B928A827B746E68625C575289
:100540004E4945413E3A3734312E2C292725232167
:100550004500680100000500680138010000050041
:100560003801680100006E056A050101FF03010101
:10057000F70300000007000201000003040600006A
:100580000000000000000102040810204080010269
:1005900004081020010204081020040404040404C8
:1005A0000404020202020202030303030303000025
:1005B000000023002600290000000000250028007C
:1005C0002B0000000000240027002A009D071124B2
:1005D0001FBECFEFD8E0DEBFCDBF11E0A0E0B1E09D
:1005E000E0EAFCE302C005900D92AE31B107D9F705
:1005F00026E0AEE1B1E001C01D92A238B207E1F7FA
:1006000012E0C7EED2E004C02197FE010E94181E3E
:10061000C63ED107C9F70E941B1C0C944E1E0C94B9
:10062000000086E291E00E94710D4BE951E066E81E
:1006300070E086E291E00C94BB0B1F93CF93DF93A5
:100640000097C9F1EC018B819C81009711F419810D
:1006500003C00E941D03182F8D819E81009711F405
:100660008A8102C00E941D039881933091F028F482
:10067000913051F0923051F017C0953081F060F018
:10068000963091F4812715C0812F0CC0112389F079
:100690000BC011110EC00AC0111108C002C01123F5
:1006A00039F091E0892705C0812F03C080E001C0A7
:1006B00081E0898301C080E0DF91CF911F9108958F
:1006C0000F931F93CF93DF938C01C0E0D0E0C8015C
:1006D0008C0F9D1F0E941D032B96C03C82E0D80703
:1006E000B1F7DF91CF911F910F9108950F931F9351
:1006F000CF93DF9301EB11E0C0E0D0E0F80141912E
:100700008F01BE0182E794E00E94C6072196C13C9A
:10071000F2E0DF0799F7DF91CF911F910F910895D4
:100720000F931F93CF93DF9301EB11E0C0E0D0E074
:10073000BE0182E794E00E94C307F80181938F0114
:100740002196C13CF2E0DF0799F7DF91CF911F912D
:100750000F9108950F931F93922F042F10E0F8012B
:100760003197EB30F105B0F5EC5CFF4F0C94181E9F
:1007700027E632E027C02FED31E024C021E032E04F
:1007800021C025E331E01EC02DEB31E01BC09111EB
:1007900014C029E731E016C0911112C025E432E0FF
:1007A00011C02DE031E00EC02BEE30E00BC029EC83
:1007B00030E008C02BE931E005C027E531E002C098
:1007C00023E232E0462F682F84E791E01F910F91DA
:1007D0000C9415121F910F910895982F81E091307C
:1007E00021F0983011F080E0089508954F925F92C3
:1007F0006F927F928F929F92AF92BF92CF92DF9231
:10080000EF92FF920F931F93CF93DF938091250177
:1008100081117EC0C2EBD1E0612C712C2AE0522EF6
:1008200035E0432E8091B10190E06816790608F01A
:100830006FC0C090AF01D090B001E090AD01F090DA
:10084000AE0149855A856F81788580E3882E912C89
:1008500094E5A92EB12C00E110E020E130E086E221
:1008600091E00E94FF0D882309F44DC069857A85C7
:100870008091AF019091B001681B790B8F819885B1
:10088000E091AD01F091AE01298148818E1B9F0B53
:100890000E94AA0388810E94ED03882311F083E05F
:1008A00001C080E0EB81FC813097A9F09091AF010D
:1008B0003091AD010185085F091B2781205F231B53
:1008C000442D491B9985490F480F6F81631B84E7AD
:1008D00091E00E941C10ED81FE813097A1F0809183
:1008E000AF019091AD010185085F081B2781205F52
:1008F000291B452D481B8985480F6F81691B84E79B
:1009000091E00E941C108FEF681A780A2B968ACF0C
:10091000DF91CF911F910F91FF90EF90DF90CF90DB
:10092000BF90AF909F908F907F906F905F904F900F
:100930000895CF92DF92EF92FF920F931F93CF9380
:10094000DF9380912501882339F081E0C82E81E072
:10095000D82E00E010E039C02FE231E046E168E235
:1009600084E791E00E94151260E084E791E00E9424
:100970007D0F00E120E140E064E484E791E00E9423
:10098000F30F61E084E791E00E947D0F21E140E0F8
:1009900063E484E791E00E94850F21E140E163E494
:1009A00084E791E00E94A80F20E04091000160E000
:1009B00070E084E490E0DF91CF911F910F91FF9060
:1009C000EF90DF90CF900C94AA03E12CF12CC0E0C3
:1009D000D0E0F601EC0FFD1F20E04081B801C70117
:1009E0000E94AA03219680E1E80EF11CC430D105D3
:1009F00081F784E0C80ED11C005F1F4F0033110542
:100A000021F7409121014295407F60912301629539
:100A1000607F00E120E184E791E00E94CB0FDF914D
:100A2000CF911F910F91FF90EF90DF90CF9008959D
:100A300044E06EE870E086E291E00E94B8098130FF
:100A400059F01CF4882331F00895823039F0833056
:100A500099F008950C9490030C9476031092B101D0
:100A600080E090E0FC01EF54FE4F11820B96803C39
:100A700022E09207B9F708954BE951E06EE770E084
:100A800086E291E00C94BB0B9091B101692F70E06C
:100A900042EB51E020E030E0261737073CF4455F99
:100AA0005F4FFA013B97E081E1111DC04BE0429F8F
:100AB000F001439FF00D1124EF54FE4F81832091EC
:100AC000AD013091AE012E5D3F4F318720872091DF
:100AD000AF013091B001205F3F4F338722879F5F86
:100AE0009093B10108952F5F3F4FD6CFCF92DF9201
:100AF000EF92FF920F931F93CF93DF93C2EBD1E05E
:100B000009851A852F8138854091AF015091B00138
:100B1000485E5F4F6091AD017091AE01665D7F4FA1
:100B200080E1C82ED12C90E1E92EF12C86E291E0F3
:100B30000E94E00D882319F10091AF011091B001DE
:100B4000005F1F4FE984FA840E151F052CF0888181
:100B50000E94ED03882351F08B819C81892B19F031
:100B60001C821B820CC00E151F0524F08D819E81F6
:100B7000892B19F418821C821B821E821D822B96DF
:100B800084E0C237D80709F0BBCFDF91CF911F9126
:100B90000F91FF90EF90DF90CF900895BF92CF928A
:100BA000DF92EF92FF920F931F93CF93DF93809189
:100BB0002001C2EBD1E0882309F442C009851A85DF
:100BC0002F8138854091AF015091B001485E5F4F51
:100BD0006091AD017091AE01665D7F4FE0E1CE2E78
:100BE000D12CF0E1EF2EF12C86E291E00E94E00D95
:100BF0008823F9F000911E0110911F01C017D10741
:100C000009F44BC08091AF019091B00140962985C5
:100C10003A8582179307F4F188810E94ED038111D0
:100C200039C01E830D831092200110921F01109273
:100C30001E012B9684E0C237D80709F0BFCF2DC024
:100C4000BB24B39409851A852F8138854091AF0163
:100C50005091B001485E5F4F6091AD017091AE015F
:100C6000665D7F4F80E1C82ED12C90E1E92EF12CFA
:100C700086E291E00E94E00D882331F0D0931F01BD
:100C8000C0931E01B09220012B9684E0C237D80792
:100C9000C9F603C01C830B83C6CFDF91CF911F9190
:100CA0000F91FF90EF90DF90CF90BF900895BF928B
:100CB000CF92DF92EF92FF920F931F93CF93DF9328
:100CC0008091250181118DC041E061E080E391E0D8
:100CD0000E948F0E882349F08091AF019091B0015E
:100CE00001979093B0018093AF0141E063E080E30E
:100CF00091E00E948F0E882349F08091AF0190917E
:100D0000B00101969093B0018093AF0141E060E0A3
:100D100080E391E00E948F0E882349F08091AD011D
:100D20009091AE0101979093AE018093AD0141E0A7
:100D300062E080E391E00E948F0E882349F0809169
:100D4000AD019091AE0101969093AE018093AD01FB
:100D500064E080E391E00E94780E882309F497C054
:100D6000809100018A3061F5C3EBD1E0BB24B394DC
:100D7000088519852E813F814091AF015091B001C6
:100D8000485E5F4F6091AD017091AE01665D7F4F2F
:100D900090E1C92ED12CE0E1EE2EF12C86E291E01B
:100DA0000E94E00D882331F0FE0131978081873069
:100DB00009F48CC02B9684E0C337D807C9F667C006
:100DC000893019F40E94CE0507C08B3019F40E94B7
:100DD000760502C00E94440582EB91E00E94600308
:100DE00056C061E080E391E00E94780E882341F0D4
:100DF0008091210190912201181619060CF46EC001
:100E000063E080E391E00E94780E882341F08091B6
:100E1000210190912201823091050CF465C060E0BF
:100E200080E391E00E94780E882341F080912301B5
:100E300090912401181619060CF45CC062E080E35E
:100E400091E00E94780E882341F0809123019091D7
:100E50002401833091050CF453C064E080E391E0F9
:100E60000E94780E882399F0E0912101F0912201EF
:100E7000EE0FFF1FEE0FFF1F8091230190912401C1
:100E8000E80FF91FEF5FFE4F80818093000165E05E
:100E900080E391E00E94780E882331F09091250143
:100EA00081E089278093250166E080E391E00E943C
:100EB000780E882359F1DF91CF911F910F91FF9008
:100EC000EF90DF90CF90BF900C94180588818B2510
:100ED000888382EB91E00E9460036CCF019790932E
:100EE0002201809321018CCF01969093220180935F
:100EF000210195CF019790932401809323019ECFE8
:100F000001969093240180932301A7CFDF91CF9185
:100F10001F910F91FF90EF90DF90CF90BF900895B9
:100F200086E291E00E94AA08882331F00E945706C9
:100F30000E94F6030C94990408951092B101E4EB19
:100F4000F1E0DF0112971C9211961C92108212821E
:100F50001182148213823B9684E0E437F80789F704
:100F60001092AE011092AD011092B0011092AF013B
:100F700010927701109276018AE191E090937501C9
:100F8000809374010895CB010C94381ECB01642F1B
:100F90000C94401E61E08AE00E949F1961E08AE0A3
:100FA0000E9463198CB580618CBD8CB580648CBD4A
:100FB00061E08DE00E94631961E08BE00C9463199D
:100FC000811103C08CB5806202C08CB58F7D8CBD51
:100FD00008959CB5937F892B8CBD08959CB5282FCF
:100FE00023709C7F922B9CBD2DB582FB992790F995
:100FF000822F8E7F892B8DBD08958F929F92AF9205
:10100000BF92CF92DF92EF92FF920F931F93CF93F5
:10101000DF93EC015C0186E8A80EB11CD5019C9120
:10102000992309F44DC09C3018F41CE0191B01C031
:1010300010E0FE01EA5AFF4F81E080836E01BEE4BA
:10104000CB0ED11C60E0C6010E947D0F4E01E3E58E
:101050008E0E911CD4018C9103E0080F9DE2F92EB5
:101060004F2D481B410F23E0E22E24E560E0C6012E
:101070000E94D81161E0C6010E947D0FF4018081B9
:1010800003E0080F4F2D481B410F24E560E0C60127
:101090000E947811FE01E95AFF4F84E08083319667
:1010A000D4018C91181B115D1083CC57DF4F6881E0
:1010B0007981C6010E94111BF501808181508083D6
:1010C000DF91CF911F910F91FF90EF90DF90CF9024
:1010D000BF90AF909F908F9008950F931F93CF93E1
:1010E000DF93EC018C01025B1F4FC8010E94230FAC
:1010F0006EEA72E0C8010E94111BC8010E94340F01
:1011000083E00E94EE078FE091E0EEEFFFE30995A8
:10111000FE01EC5AFF4F108269E872E0C8010E949C
:101120004F1BC8010E94340F2A96CE010E94400E28
:1011300064E0CE010E94780E811107C062E370E086
:1011400080E090E00E94731AF0CFDF91CF911F9161
:101150000F9108958F929F92AF92BF92CF92DF929C
:10116000EF92FF920F931F93CF93DF93EC018C01CB
:1011700000581F4FF801C080D180E280F3800E94A8
:10118000421A46015701861A970AA80AB90A7E012F
:101190002FE7E20EF11CF701808190E0A0E0B0E0C3
:1011A0009E0125583F4F690188159905AA05BB0581
:1011B00050F4F90180819181A281B381892B8A2B1E
:1011C0008B2B09F06BC0F60180819181A281B381E4
:1011D000892B8A2B8B2B09F05FC07E01FAE0EF0E82
:1011E000F11C41E066E0C7010E948F0E8E010B5D8D
:1011F0001F4F882331F065E0C7010E94780E8111EE
:1012000085C041E066E0C7010E948F0E882331F05F
:1012100064E0C7010E94780E81118EC041E066E053
:10122000C7010E948F0E882339F048E264E0C701AD
:101230000E94810E81118BC0C8010E942E16C80128
:101240000E949A16C8010E946B17CE010E94FD07EA
:10125000CE010E94070B8E01025B1F4FC8010E9446
:10126000340FFE01EC5AFF4F8081811103C0C80189
:101270000E94230F0E944E1AF601608371838283BD
:101280009383FE01EB58FF4FC958DF4F2881398106
:10129000621B730B7183608380E05DC00E94421A01
:1012A000F7012081DC01CB01820F911DA11DB11D31
:1012B000F80180839183A283B383FE01EF58FF4F2F
:1012C00080819181A281B3810196A11DB11D80838E
:1012D0009183A283B383F60110821182128213825A
:1012E0000E944E1AFE01E958FF4F6083718382838A
:1012F0009383CE010E941C18CE010A960E94400ED4
:10130000CE0148960E94851881E025C0C8010E9440
:10131000111861E0680FC8010E94FE1781E193E097
:10132000FE01EC57FF4F9183808388E432968083DF
:10133000C8010E94E81765CF84E093E0FE01EC57F6
:10134000FF4F9183808388E43296808367CFCE01FC
:101350000E946D0871CFDF91CF911F910F91FF9087
:10136000EF90DF90CF90BF90AF909F908F900895B7
:101370002F923F924F925F926F927F928F929F92A5
:10138000AF92BF92CF92DF92EF92FF920F931F9393
:10139000CF93DF93CDB7DEB766970FB6F894DEBF75
:1013A0000FBECDBF6C01688B798B4B83FC01EC5A6F
:1013B000FF4F10823FEF3D831C821E8A10E31D8A7F
:1013C0005C015AE0A50EB11C1C0183E5280E311CFE
:1013D000BF972F01242F30E03F832E83C601895A07
:1013E0009F4F99878887F396FB87EA8796012A5A49
:1013F0003F4F3D872C8702979F878E873A973F0103
:10140000C6010E94AA088823D9F364E0C5010E949E
:10141000780E012F110F110B811144C065E0C50139
:101420000E94780E81113EC066E0C5010E94780ED0
:10143000811138C05C8151114BC044E063E0C501AB
:101440000E948F0E882331F03D893F5F3D8BC201A2
:101450000E94E81744E061E0C5010E948F0E8823D6
:1014600031F05D8951505D8BC2010E94E8173D89C2
:10147000832F032E000C990BEE81FF818E179F079F
:1014800031F037FF05C03B8131503D8B01C01D8AD3
:10149000F101808194E0980F3D89839F9019112478
:1014A0009E8B21C0F101F08064E0C5010E94780E9E
:1014B000882309F48EC0C2010E94BC173D893D8378
:1014C000F1943B81F39EF02C1124FA94FA94FE8A55
:1014D000C8015E89851B910957FD939502970CF40D
:1014E0007CC031E03C835E89050F111D57FD1A95C4
:1014F00017FF02C00F5F1F4FC801959587959A830C
:1015000089830981102FE885F9851082EA85FB859A
:10151000808381E0EC85FD858083EE85FF851082E8
:10152000E888F988812C912C5D89252F550F330B84
:1015300043E08E819F818816990621F182169306D9
:1015400071F4E885F9854083F1018081F02F5D8990
:10155000589FF00D11248F2FEA85FB858083F701BA
:1015600065917491C3012A8B3B8B4C8B0E944F1B5E
:10157000FFEF8F1A9F0A52E0E50EF11C4C893B8960
:101580002A89D7CF60E0C3010E947D0FF1018081DD
:1015900049813D89389F400D1124415024E560E088
:1015A000C3010E94A80F61E0C3010E947D0FF101F9
:1015B000808103E0080F49813D89389F400D112447
:1015C000425083E0E82E24E560E0C3010E947811D8
:1015D00017CFC2010E94D21773CF8D8166960FB6C6
:1015E000F894DEBF0FBECDBFDF91CF911F910F9159
:1015F000FF90EF90DF90CF90BF90AF909F908F9033
:101600007F906F905F904F903F902F900895CF9272
:10161000DF92FF920F931F93CF93DF93FC01248DF2
:10162000358D232B09F49FC0EC018C01025B1F4F09
:1016300040E061E0C8010E94810FFE01E95AFF4FBE
:10164000DE01AE5ABF4F9C9185E5891B80833196A0
:101650001082698D613009F463C028F0888D65308F
:1016600008F074C06FC0CE0185960E94311681E0EB
:10167000FE01EA5AFF4F80836AEA73E0C8010E94C4
:1016800057131D8E1C8EFE01EC5AFF4F108288EA04
:10169000F82E6E01FAE0CF0ED11CCE010E94AA08EE
:1016A0008823D9F366EF72E0C8010E94111B6A8D8E
:1016B0007B8D4AE050E0C8010E94151C61EE72E08B
:1016C000C8010E94111B6F2D62956F7070E04AE097
:1016D00050E0C8010E94011C66ED72E0C8010E9442
:1016E000111B64E0C6010E94780E81113CC0FA947F
:1016F000F110D3CF60E0CE010E94181893B7917F0C
:10170000946093BF83B7816083BF83B7816083BFD9
:10171000889583B78E7F83BF83B78E7F83BFBDCF0E
:10172000CF58DF4F88819981AA81BB818F7099271B
:10173000AA27BB270897A105B10510F467E009C0E7
:1017400068E707C0882379F06B5F03C0882359F0EE
:101750006FE2C801DF91CF911F910F91FF90DF9051
:10176000CF900C94341BDF91CF911F910F91FF907C
:10177000DF90CF9008952F923F924F925F926F9299
:101780007F928F929F92AF92BF92CF92DF92EF9211
:10179000FF920F931F93CF93DF93CDB7DEB72997B7
:1017A0000FB6F894DEBF0FBECDBF2C0120E7420E6E
:1017B000511CF2012081222309F403C13A011B01CB
:1017C000998788877A9781E08083E885F985EB5A45
:1017D000FF4F1082E885F985EC5AFF4F1082E885AB
:1017E000F985108E8F01025B1F4F61E0C8010E94D6
:1017F0007D0F888599858D5A9F4F9C838B83C884E4
:10180000D98497E5C90ED11CE884F984E8E5EE0E89
:10181000F11C888599858E5A9F4F9A838983E88524
:10182000F985EF58FF4FFE83ED83A884B984FAE071
:10183000AF0EB11C8884998425E2820E911C8885A4
:1018400099850E94AA088823D1F3F1018491882305
:1018500021F0EB81FC81508101C050E02CE233E0AB
:1018600040E060E0C8015F830E9415125F8161144F
:10187000710439F04CE0450F930160E0C8010E940B
:101880001512F60110822CE0F7012083B101C80186
:101890000E94111BE981FA818081982F990F890F8D
:1018A00081958D5AF6018083EB81FC818081982F90
:1018B000990F890F8195835DF7018083ED81FE810A
:1018C000808184FF03C068E273E002C064E273E0D9
:1018D000C8010E944F1BE981FA818081982F990FDE
:1018E000890F81958D5AF6018083F70180818F5F82
:1018F0008083E885F98582A5882319F060E273E08A
:1019000002C06CE173E0C8010E944F1BE981FA81BB
:101910008081982F990F890F81958D5AF6018083C8
:10192000F70180818F5F808368E173E0C8010E94C6
:101930004F1B65E0C5010E94780E882359F0C40151
:101940000E94111861E0680FC4010E94FE17C401D3
:101950000E94E81764E0C5010E94780E81111FC043
:10196000F2012081422F50E060E070E0ED81FE81C5
:1019700080819181A281B38184179507A607B7075B
:1019800010F02F3F61F466E0C5010E94780E8823B5
:1019900009F455CF888599850E946D0846CF8FEF51
:1019A000F2018083088519850B5D1F4F60E0C80137
:1019B0000E94CF15C8010E94BC1781E0E885F98517
:1019C000808F29960FB6F894DEBF0FBECDBFDF9192
:1019D000CF911F910F91FF90EF90DF90CF90BF902C
:1019E000AF909F908F907F906F905F904F903F90BF
:1019F0002F900895E0E8F7E72591349181E02130B8
:101A0000304C09F080E00895CF93DF93EC010E9401
:101A1000FA0C9E01275A3F4FDE01A059BF4F882381
:101A200009F43AC0E6E9F7E78491F9018083E7E930
:101A3000F7E7E491EC83E8E9F7E7E491ED83E9E97E
:101A4000F7E7859194919F838E83EBE9F7E7859182
:101A500094919987888787E08BA7EEE9F7E7E4916F
:101A6000EAA7EFE9F7E7E491EC93E0EAF7E785917D
:101A700094919D8F8C8FE2EAF7E7859194919F8FE7
:101A80008E8FE4EAF7E78591949199A388A3E6EA1B
:101A9000F7E78591949120C08CE3F90180831C8243
:101AA0008FEF8D8320E233E03F832E8324ED33E0FC
:101AB0003987288797E09BA79AA78C938CEA9DE0AB
:101AC0009D8F8C8F8EED9DE09F8F8E8F84E79EE0A3
:101AD00099A388A38CE39FE09BA38AA3DF91CF9176
:101AE0000895AF92BF92CF92DF92EF920F931F9320
:101AF000CF93DF93EC01FC01E158FF4F82E3808339
:101B0000349781E090E0A0E0B0E080839183A283ED
:101B1000B3833B978FEF8083CE010E94040DCE01EB
:101B20000E9414186FEFCE010E9418186E018AE00F
:101B3000C80ED11CC6010E94300EC6010E94400E84
:101B40005E0188E1A80EB11CC5010E947B188EE0E1
:101B5000E82E0FE020E14BE06DE0CE01825B9F4F6D
:101B60000E946B138E010B5D1F4FC8010E943B1535
:101B7000C5010E94851865E0C6010E94780E81119A
:101B800012C0898D882379F040E06CE973E0C801C8
:101B9000DF91CF911F910F91EF90DF90CF90BF9089
:101BA000AF900C94DA1560E0C801DF91CF911F91DE
:101BB0000F91EF90DF90CF90BF90AF900C94FE17F5
:101BC000CF92DF92EF92FF920F931F9362177307EA
:101BD00074F0E20EF31E6E157F054CF440175107AA
:101BE00034F0C00ED11E81E04C155D050CF080E094
:101BF0001F910F91FF90EF90DF90CF9008958F92FB
:101C00009F92AF92BF92CF92DF92EF92FF920F938B
:101C10001F93CF93DF93CDB7DEB7260F371FE216A2
:101C2000F30684F4EA0CFB1C6E157F055CF4040FCC
:101C3000151FC016D10634F48C0C9D1C81E048158C
:101C400059050CF080E0DF91CF911F910F91FF902B
:101C5000EF90DF90CF90BF90AF909F908F900895BE
:101C6000FC0188E0808389E0818387E0828386E0CD
:101C7000838384E0848382E0858381E18683089581
:101C8000DF92EF92FF920F931F93CF93DF93EC01BC
:101C90007C0187E0E80EF11C8701DD24DA9462E024
:101CA00088810E94631988810E94CF19F801892BCD
:101CB00021F480818F5F808309C08081882351F067
:101CC0008F3F11F4108202C0F801D08260E0888159
:101CD0000E94631921960F5F1F4FCE15DF05F9F69D
:101CE000DF91CF911F910F91FF90EF90DF900895BA
:101CF000FC01E60FF11D81E09781913009F080E051
:101D00000895860F911DFC01278130E050E04F5F60
:101D10005F4F81E02417350709F080E00895FC014A
:101D2000262F30E0E20FF31F423030F497819150BC
:101D300081E09E3F58F009C087818F3F31F0642FCA
:101D40000E94A31D81E0913009F080E008958EBDCE
:101D50000DB407FEFDCF8EB50895FC01643508F083
:101D600053C0403308F050C090A1742F75957595FD
:101D70007595262F062E000C330B542F577092307A
:101D8000A1F4F901ED58FB4F84E57802E00DF11D57
:101D90001124808190E0052E02C0959587950A94C4
:101DA000E2F78095982F91700AC0933041F48485B2
:101DB0008170462740954170841303C014C091116F
:101DC00012C084E57802200D311D1124F901ED586F
:101DD000FB4F81E090E001C0880F5A95EAF78095AB
:101DE0009081892310C084E57802200D311D1124D3
:101DF000F901ED58FB4F81E090E001C0880F5A9542
:101E0000EAF79081892B808308951F93CF93DF9306
:101E1000EC01162FF89460E08F850E949F19888945
:101E200018161CF460E00E949F19812F0E94A70ED3
:101E3000888918161CF461E00E949F197894DF913C
:101E4000CF911F91089528EF31E0E3E7F4E0DF013F
:101E5000A9011D9241505040E1F7DC0119961C92F6
:101E600019971A961C920895CF92DF92EF92FF92E3
:101E70001F93CF93DF93EC018C858F5F8C8783E773
:101E8000C82E84E0D82E10E0612F6064CE010E943D
:101E9000050F60E8CE010E94050F61E08F850E946A
:101EA0009F19888918161CF460E00E949F19E12C84
:101EB000F12CF601EE0DFF1D80810E94A70E8FEF21
:101EC000E81AF80A84E5E816F10499F788891816E3
:101ED0001CF461E00E949F191F5F84E5C80ED11CAD
:101EE000163091F660E4CE01DF91CF911F91FF9003
:101EF000EF90DF90CF900C94050FFC0160A361A3DD
:101F00000895FC0160A341A30895DF92EF92FF9230
:101F10000F931F93CF93DF931F92CDB7DEB78C0142
:101F2000D62EF42EE12CE21654F44E2D4F0D6D2DCD
:101F3000C80129830E94AD0EE3942981F4CF0F904C
:101F4000DF91CF911F910F91FF90EF90DF90089557
:101F5000DF92EF92FF920F931F93CF93DF931F9225
:101F6000CDB7DEB78C01D62EF42EE12CE21654F458
:101F70006E2D6D0D4F2DC80129830E94AD0EE39487
:101F80002981F4CF0F90DF91CF911F910F91FF9096
:101F9000EF90DF900895EF92FF920F931F93CF93EE
:101FA000DF937C01C62F142FD22F0E94A80F4FEF72
:101FB000400F410F2D2F6C2FC7010E94A80F202F1B
:101FC000412F6C2FC7010E94850F6FEF6D0F6C0FB3
:101FD000202F412FC701DF91CF911F910F91FF90CB
:101FE000EF900C94850FDF92EF92FF920F931F9367
:101FF000CF93DF937C01D62FD22EC42F002E000C5E
:10200000110B040F111D47FD1A954C2F0C2E000CBF
:10201000550B4017510744F42D2D4C2F6D2FC70140
:102020000E94A80FCF5FF1CFDF91CF911F910F9149
:10203000FF90EF90DF900895AF92BF92CF92DF9222
:10204000EF92FF920F931F93CF93DF936C01C62FF4
:10205000D42F122F202F002E000C330B241B3109FC
:1020600047FD339537FF03C0319521953109812F05
:10207000012E000C990B8C1B9109C7FD939597FFBE
:1020800003C0919581959109BB24B394821793075E
:1020900014F0B12C06C0812F102F082F8C2FCD2FBC
:1020A000D82F1C1734F48D2FD02F082F8C2FC12F31
:1020B000182FA12EAC1A202F002E000C330B2D1B35
:1020C0003109D7FD339537FF03C03195219531098B
:1020D000E22EFA2CA7FE03C0FF24F394FA0CF59429
:1020E000D01714F00FEF0FC001E00DC0BB2071F04E
:1020F0004C2F6D2FC6010E94AD0EFE18F7FE02C0D8
:10210000D00FFA0CCF5F1C178CF703C04D2F6C2F2C
:10211000F1CFDF91CF911F910F91FF90EF90DF9062
:10212000CF90BF90AF9008958F929F92AF92BF9241
:10213000CF92DF92EF92FF920F931F93CF93DF9393
:102140007C01162FD42EC22F81E0C82EC21AB22EC7
:10215000B194BB0CD0E0802F8470A82E802F8270A9
:10216000982E802F8870882E0170DC170CF04DC0DF
:10217000C7FC04C0C150B394B394CB0CDF5F8D2F68
:10218000880F8F5FC80EAA2071F04C2F4D0D6D2F58
:10219000610FC7010E94AD0E4D2F4D0D6C2F610FC9
:1021A000C7010E94AD0E992071F04D2D4C1B6D2F73
:1021B000610FC7010E94AD0E4D2D4D1B6C2F610F9D
:1021C000C7010E94AD0E882071F04D2F4D0D612F7B
:1021D0006C1BC7010E94AD0E4C2F4D0D612F6D1B66
:1021E000C7010E94AD0E002309F4BFCF4D2D4D1B3A
:1021F000612F6C1BC7010E94AD0E4D2D4C1B612F32
:102200006D1BC7010E94AD0EB0CFDF91CF911F9122
:102210000F91FF90EF90DF90CF90BF90AF909F9085
:102220008F9008958F929F92AF92BF92CF92DF923C
:10223000EF92FF920F931F93CF93DF936C01B62E13
:10224000A42EC22F11E0121BF22EF194FF0CD1E04C
:10225000802F8170882E992493949E0C02708FEFAA
:102260008D0F8C17C4F517FD04C0C150F394F3947F
:102270001F0D8D2F880F8F5F180F882099F02C2F3E
:10228000220F290D4A2D4C1B6D2F6B0DC6010E948C
:10229000850F23E02E0D4A2D4D1B6C2F6B0DC601B3
:1022A0000E94850F002399F02C2F220F290D4A2D13
:1022B0004C1B6B2D6D1BC6010E94850F23E02E0D5C
:1022C0004A2D4D1B6B2D6C1BC6010E94850FDF5FD5
:1022D000E394E394C4CFDF91CF911F910F91FF90CE
:1022E000EF90DF90CF90BF90AF909F908F90089528
:1022F0009F92AF92BF92CF92DF92EF92FF920F9395
:102300001F93CF93DF936C01C62FD42FA22EBE2C28
:10231000B194BB0C9B2C920EFE2CF60E292D6F2D2A
:102320000E94A80F1FEF100F1D0F292D412F6F2D99
:10233000C6010E94A80F0B0DDE0D202F4D2F6C2F14
:10234000C6010E94850FCA0D6FEF6C0F202F4D2F15
:10235000C6010E94850F01E02E2D4D2F6F2DC60165
:102360000E9494108E2D8095C80F02E02E2D4D2FC7
:102370006C2FC6010E949410D12FDE1904E02E2D7F
:102380004D2F6C2FC6010E94941008E02E2D4D2F6A
:102390006F2DC6010E949410DF91CF911F910F9174
:1023A000FF90EF90DF90CF90BF90AF909F900895F7
:1023B0009F92AF92BF92CF92DF92EF92FF920F93D4
:1023C0001F93CF93DF936C01A62EB42EF22EC02F55
:1023D0001E2DDE2DD195DD0F9E2C960E2D2F2F0D4F
:1023E000692D0E94F30FC150CD0FDE2DDB0DAA9495
:1023F000FA0C6F2D6E19EC2E01E0212F4D2FC60126
:102400000E94121102E0212F4D2F692DC6010E945A
:102410001211DF91CF911F910F91FF90EF90DF90FC
:10242000CF90BF90AF909F9008954F925F926F9220
:102430007F928F929F92AF92BF92CF92DF92EF9254
:10244000FF920F931F93CF93DF93F901C4903196BE
:102450005491EC0108A164350CF018C10C2C000C4F
:10246000DD08A62F062E000CBB0B7D01EC0CFD1C1D
:102470001E141F040CF00AC140330CF007C1A52E36
:10248000842E042E000C9908F401E50FF11D57FD70
:10249000FA951E161F060CF0F9C02E5F3F4FE6019D
:1024A0002796D7FD279673E0D595C7957A95E1F7DE
:1024B00047FF0AC0A52EA40EC89DA001C99D500DBE
:1024C0001124241B350B40E0EA2D0A2C000CFF0BD5
:1024D000E40FF11D47FDFA95F1971CF050E3A52E8E
:1024E000A41A67FD60E0F701E535F10514F0E4E5B5
:1024F000F0E07E2FFC01D484D426862F062E000C1B
:10250000990BFC01EA1BFB0BDF017F01F7E0EF22D7
:10251000FF24E0E8F0E002C0F595E795EA94E2F7E1
:102520001E2FB7FD179653E0B595A7955A95E1F77D
:102530002A0F3B1FE42FE77051E001C0550FEA95C9
:10254000EAF7459545954595B4E54B02800D911DFB
:1025500011248D589B4FC12C0A2C000CBB089924C8
:1025600093942E015524EC2DF0E0EA15FB050CF0B8
:102570008DC0F90144910130E1F47C01A12F862E38
:10258000881AB82DBE0DB71708F077C0B42FBA233C
:1025900021F0E701B881B52BB883B0E0B595A795D8
:1025A000109719F431964491A0E8DFEFED1AFD0A77
:1025B000E8CF01111FC0752E70947C01A12FF90185
:1025C000862E881AB82DBE0DB71708F056C0B42F46
:1025D000BA2321F0E701B881B721B883B0E0B595FF
:1025E000A795109719F431964491A0E8DFEFED1A02
:1025F000FD0AE8CF033031F07C01A12FF901862ECE
:10260000881A37C0752E7094862E7C01A12FF9018F
:102610008716D8F4B42FBA2359F0E701B881682C93
:102620006D2460FE02C0B52B02C0B721E701B8835C
:10263000B0E0B595A795109719F431964491A0E8AC
:102640008394DFEFED1AFD0AE3CFD92416C0B42F2F
:10265000BA2321F0E701B881B527B883B0E0B5957A
:10266000A795109719F431964491A0E8DFEFED1A81
:10267000FD0AB82DBE0DB71750F3550F19F48C5A3B
:102680009F4F51E0C394240D351D6DCFDF91CF9145
:102690001F910F91FF90EF90DF90CF90BF90AF9080
:1026A0009F908F907F906F905F904F900895DC0186
:1026B000FB0184918F5F14968C9314973196E4916B
:1026C000EF5F1596EC9315976E5F7F4F5F967C9347
:1026D0006E935E970895EF920F93CF93DF93EC0183
:1026E0004E876D872F87E98A088B81E0888788A3CA
:1026F00019A28F836AEA73E0CE010E9457130E94E9
:10270000CA0781E00E94E00785E00E94EE078CE0A6
:102710000E94E90761E08E850E94631961E08D8562
:102720000E94631961E08F850E94631989891816D8
:102730001CF461E00E946319888918161CF461E09A
:102740000E946319898918166CF460E00E949F1931
:102750006AE070E080E090E00E94731A61E089898D
:102760000E949F198D85082E000C990BFC01E656DE
:10277000FA4FE491F0E0EE0FFF1FE854FA4F259175
:1027800034913D8B2C8BFC01EA57FA4FE491EB8F8F
:102790008E85082E000C990BFC01E656FA4FE49149
:1027A000F0E0EE0FFF1FE854FA4F259134913B8B78
:1027B0002A8BFC01EA57FA4FE491EA8F8889082EA8
:1027C000000C990BFC01E656FA4FE491F0E0EE0F95
:1027D000FF1FE854FA4F259134913F8B2E8BFC015B
:1027E000EA57FA4FE491EC8F8F85082E000C990B75
:1027F000FC01E656FA4FE491F0E0EE0FFF1FE854BB
:10280000FA4F25913491398F288FFC01EA57FA4FFE
:10281000E491ED8F61E2CE010E94050F64E1CE01EB
:102820000E94050F8B8587FF02C08FE78B876B8522
:102830006068CE010E94050F60E2CE010E94050F84
:102840006CE0CE010E94050FCE01DF91CF910F9178
:10285000EF900C94340F6F927F928F929F92AF9271
:10286000BF92CF92DF92EF92FF920F931F93CF937D
:10287000DF93EC0188A064350CF080C040330CF08D
:102880007DC0EC81F0E031970E9FC0010F9F900D4D
:102890001124860F911D67FD9A95181619060CF0E4
:1028A0006DC0ED81E09FF0011124E40FF11D47FDA3
:1028B000FA951E161F060CF061C0102FE42EF62E9E
:1028C000B62E962EC22ED12CEB2DEF190E2E000C0B
:1028D000FF0B8C8190E0E817F9070CF04EC00197D0
:1028E000E817F90779F0C89E9001C99E300DD89E6F
:1028F000300D1124E20FF31F8E8D9F8DE80FF91F0D
:10290000749001C0712CAE2C6E2C2A2D2E19022E23
:10291000000C330B8D8190E0281739075CF570FEB1
:1029200010C0113031F44A2D6B2DCE010E94AD0E36
:102930001DC0012F212F462D692DCE010E94F30FBE
:1029400015C089A198A1891789F088A3113031F4A5
:102950004A2D6B2DCE010E94AD0E07C0012F212FF5
:10296000462D692DCE010E94F30F88A27694610E48
:10297000A394CBCF910EB394A7CF88A2DF91CF9130
:102980001F910F91FF90EF90DF90CF90BF90AF908D
:102990009F908F907F906F9008950F93CF93DF93C8
:1029A000EC016A3019F42D8198851FC06D3019F142
:1029B000262F08854A8569850E942B1428853C812D
:1029C0008985329F800D112489879F81992399F0F1
:1029D000082E000C990B44E550E0239F4019510943
:1029E0001124481759073CF49D818A85299F800D41
:1029F00011248A87198681E090E0DF91CF910F91B1
:102A0000089550E0DA01AA0FBB1FA80FB91F1F9647
:102A10003C911F9750962C915097E32FF22FE60F81
:102A2000F11DE60FF11D6591749190967C936E9364
:102A30005F97FB0125913491FC013481329F202D59
:102A40001124DC01A40FB51F91962C939197FB01E3
:102A500085919491E92FF0E0822F90E0E817F90733
:102A600020F4FB0185919491292F239F202D11247F
:102A700092962C93089521E0FC01248324E020A762
:102A800026E635E0308B278740E060E00E940115A4
:102A900061E070E083E00E94DB18E1EBF0E0808110
:102AA000887F81608083F89410928000E1E8F0E0F4
:102AB0001082109285001092840088E191E090933A
:102AC0008900809388008081886080838081816014
:102AD0008083EFE6F0E080818260808378940895BF
:102AE0000F93FC01942F01112AC06230D9F050F4E9
:102AF000662399F0613019F540E0692FCF010F91FD
:102B00000C9401156330A9F06430C9F46481469FC8
:102B1000902D1124958F268F12C04B3008F09AE02B
:102B2000968B0DC06481469F902D1124918F228F2A
:102B300006C06481469F902D1124938F248F0F919E
:102B40000895FC0121110EC0648B8481489F402DA3
:102B50001124458B15A214A213A281E0878B8093C8
:102B60007706108E089580917706882319F080915A
:102B7000740601C080E08093B4000895FC016111E7
:102B80000DC0178A158A14A213A2108E1092740613
:102B900010927506109277060C94B3150895CF9392
:102BA000DF93611104C0EC010E94BE151982DF9110
:102BB000CF9108950F931F93CF93DF93411110C0CE
:102BC0008B01EC0160E00E94CF151E870D871B8AE8
:102BD0001A8A81E0898389E08E8B198E1B8E1D8E67
:102BE000DF91CF911F910F910895CF93DF93DC0177
:102BF000611131C08C91882371F111968C911197DC
:102C0000811129C019968C91199717962C911797B5
:102C100018969C911897E22FF92FE80FF11DE80FF5
:102C2000F11D259134912F3F8FEF380711F41C923D
:102C300012C0ED013C873327220F331FEA85FB8545
:102C4000E20FF31F6591749140E0CD010E94DA1507
:102C500089858F5F8987DF91CF91089560E00C941B
:102C6000F51560E00C94CF150F93CF93DF93EC0133
:102C700061115CC08981882309F458C08D89811154
:102C800055C02D853E85EA89FB89EE0FFF1FE20FB7
:102C9000F31F859194910097D1F48989813021F4B3
:102CA0001B8A1A8AF90111C01982888160E0882381
:102CB00031F0CE010E94F515EA89FB8925C0CE01CD
:102CC000DF91CF910F910C94BE1585919491BC0129
:102CD000769567957695679580FF1DC0AC0176E087
:102CE000569547957A95E1F7292F269526952695AD
:102CF00020514F716F7000E0CE010E947015EA897B
:102D0000FB893196FB8BEA8BEE0FFF1F8D859E852D
:102D1000E80FF91FDACF492F6F7320E0CE010E9430
:102D2000A1158A899B8901969B8B8A8BDF91CF9114
:102D30000F91089560E00C943416CF93DF93EC016B
:102D40006111C6C08F89882309F4C2C09D89911181
:102D500005C0CE01DF91CF910C94BE1591509D8B93
:102D60008DA1811139C02BA13CA12F5F3F4FC9011B
:102D7000880F991FEF8DF8A1E80FF91F65917491E5
:102D8000862F87708EA3AB0163E0569547956A95B1
:102D9000E1F7CA0196958795972F969596959FA3EB
:102DA0008F739C81899F802D11248DA34170409346
:102DB00073063CA32BA389A190E02817390760F084
:102DC0002AA1222329F0821B91099CA38BA304C072
:102DD00060E0CE010E94BE158DA181508DA3888D2B
:102DE00021E0280F288F4C893FA1340F8C85380FA4
:102DF0003A836B8D662361F070E0822F022E000C07
:102E0000990B0E94C31D8C8D869F300D11243A832F
:102E10008A8190E0849664E270E00E94C31D8A83F8
:102E20003E893B83698D662371F0062E000C770B7B
:102E3000822F022E000C990B0E94C31D8A8D869F43
:102E4000300D11243B836D8D662389F0822F220F74
:102E5000990B70E00E94C31DCB0162E070E00E94FC
:102E6000C31D2E8D9B81289F900D11249B838B81E8
:102E70004F3339F08A300CF089E087FD80E08B8396
:102E800001C01B82F894EA81F0E0E45DFA4FE4911E
:102E9000E09376063B8128A53203900111244EA1D0
:102EA0004203C001439F900D11240D8002C0880F82
:102EB000991F0A94E2F797FF02C081589F4F880F2D
:102EC000892F881F990B80937506809374067894D8
:102ED000DF91CF91089560E00C949D166091750686
:102EE000662329F1809178068F5F80937806909110
:102EF00076068917E0F081E090917706911180E0E5
:102F0000809377061092780680917306882369F083
:102F100080910D0193E4899F802D1124895B80931A
:102F20000D010E94A31D909374060C94B31508958F
:102F30001F920F920FB60F9211242F933F934F932E
:102F40005F936F937F938F939F93AF93BF93EF9311
:102F5000FF930E946E17FF91EF91BF91AF919F91E8
:102F60008F917F916F915F914F913F912F910F9032
:102F70000FBE0F901F901895CF93DF93EC0160E088
:102F80000E94CF158EE595E09E878D871B8A1A8A51
:102F900081E0898389E08E8B198E1B8E1D8EDF91D7
:102FA000CF910895CF93DF93EC0160E00E94CF159D
:102FB00086E595E09E878D871B8A1A8A81E0898342
:102FC00089E08E8B198E1B8E1D8EDF91CF91089517
:102FD000CF93DF93EC0160E00E94CF1580E595E090
:102FE0009E878D871B8A1A8A81E0898389E08E8B70
:102FF000198E1B8E1D8EDF91CF910895FC01968155
:1030000067FF02C0692F0BC0262F660F330B692F95
:1030100070E06F5F7F4FC9010E94C31D682F6583F9
:103020000895FC018581089521E0FC012083089525
:1030300070E085E00C94DB18AF92BF92CF92DF92E4
:10304000EF92FF920F931F93CF93DF93EC0189814F
:103050009A812FE0289F8001299F100D112485E17E
:103060000E94BE18800F911F24E0969587952A959F
:10307000E1F79A8389832881222391F1EC81AD8045
:10308000B12CC12CD12CA885B9857D0100E010E0C0
:103090006E817F819B0140E050E08617970728F002
:1030A000BC01A817B90708F4BD0180E090E01F92A9
:1030B0001F921F92EF930E94281C6B830F900F901A
:1030C0000F900F9070E085E0DF91CF911F910F91ED
:1030D000FF90EF90DF90CF90BF90AF900C94DB18F3
:1030E000DF91CF911F910F91FF90EF90DF90CF90E4
:1030F000BF90AF900895FC018CE39FE0938382839F
:1031000084E0818381E084870895CF93DF93FC017D
:1031100024813581232B79F1EC0184858F7141F570
:1031200084E10E94BE18BC01990F880B990B0E9484
:103130009A1C26EE3FE34EEC50E40E94261D0E94AE
:10314000691C9B017B836A83672B81F084E0898300
:10315000FE01349680E0419151912417350710F417
:10316000898309C08F5F8430B1F702C08FEF8983F4
:103170008C858F5F8C87DF91CF9108958E3008F01A
:103180008E50877020910E0190E4299F90011124A8
:10319000822B80937C0080917A00806480937A00F7
:1031A00080917A0086FDFCCF809178002091790093
:1031B00090E0922B08951F93CF93DF93182FEB018C
:1031C00061E00E946319209711F460E004C0CF3FD2
:1031D000D10539F461E0812FDF91CF911F910C94DB
:1031E0009F19E12FF0E0EE58FA4FE491E330F9F047
:1031F00048F4E130B9F0E230A1F584B5806284BDD5
:10320000C8BD34C0E630E9F0E73019F1E43049F5E3
:1032100080918000806280938000D0938B00C09367
:103220008A0024C084B5806884BDC7BD1FC080915A
:103230008000806880938000D0938900C0938800CC
:1032400015C08091B00080688093B000C093B30037
:103250000DC08091B00080628093B000C093B40034
:1032600005C0C038D1050CF0B5CFAFCFDF91CF91FD
:103270001F910895833081F028F4813099F08230D5
:10328000A1F008958630A9F08730B9F08430D1F4E8
:10329000809180008F7D03C0809180008F77809324
:1032A0008000089584B58F7702C084B58F7D84BD7A
:1032B00008958091B0008F7703C08091B0008F7D1A
:1032C0008093B0000895CF93DF9390E0FC01EA571C
:1032D000FA4F2491FC01E656FA4F8491882361F15C
:1032E00090E0880F991FFC01EE53FA4FC591D491DD
:1032F000FC01E854FA4FA591B491611109C09FB740
:10330000F8948881209582238883EC912E230BC02A
:10331000623061F49FB7F8943881822F80958323BF
:103320008883EC912E2B2C939FBF06C08FB7F89407
:10333000E8812E2B28838FBFDF91CF9108951F93B3
:10334000CF93DF93282F30E0F901EE58FA4F8491A4
:10335000F901EA57FA4FD491F901E656FA4FC491B0
:10336000CC23C9F0162F81110E943A19EC2FF0E0FE
:10337000EE0FFF1FE854FA4FA591B4918FB7F89460
:10338000111105C09C91ED2FE095E92302C0EC914D
:10339000ED2BEC938FBFDF91CF911F910895CF93C9
:1033A000DF93282F30E0F901EE58FA4F8491F901AC
:1033B000EA57FA4FD491F901E656FA4FC491CC235B
:1033C00091F081110E943A19EC2FF0E0EE0FFF1FEF
:1033D000E255FA4FA591B491EC91ED2381E090E094
:1033E00021F480E002C080E090E0DF91CF91089569
:1033F0001F920F920FB60F9211242F933F938F932A
:103400009F93AF93BF9380917A0690917B06A09192
:103410007C06B0917D063091790623E0230F2D378D
:1034200020F40196A11DB11D05C026E8230F0296C8
:10343000A11DB11D2093790680937A0690937B0697
:10344000A0937C06B0937D0680917E0690917F06C6
:10345000A0918006B09181060196A11DB11D8093B7
:103460007E0690937F06A0938006B0938106BF915D
:10347000AF919F918F913F912F910F900FBE0F9021
:103480001F9018952FB7F89460917A0670917B067B
:1034900080917C0690917D062FBF08953FB7F894E8
:1034A00080917E0690917F06A0918006B091810662
:1034B00026B5A89B05C02F3F19F00196A11DB11D8F
:1034C0003FBFBA2FA92F982F8827820F911DA11DCA
:1034D000B11DBC01CD0142E0660F771F881F991F07
:1034E0004A95D1F70895CF92DF92EF92FF92CF9352
:1034F000DF936B017C010E944E1AEB01C114D104D1
:10350000E104F10479F00E944E1A6C1B7D0B683EB9
:103510007340A0F381E0C81AD108E108F108C8514E
:10352000DC4FECCFDF91CF91FF90EF90DF90CF9009
:103530000895789484B5826084BD84B5816084BD2B
:1035400085B5826085BD85B5816085BDEEE6F0E01C
:10355000808181608083E1E8F0E010828081826078
:103560008083808181608083E0E8F0E080818160F9
:103570008083E1EBF0E0808184608083E0EBF0E029
:10358000808181608083EAE7F0E0808184608083CD
:103590008081826080838081816080838081806877
:1035A00080831092C1000895CF92DF92EF92FF9234
:1035B0000F931F93CF93DF936C01EB017B01E40E1C
:1035C000F51E00E010E0CE15DF0561F06991D6012F
:1035D000ED91FC910190F081E02DC6010995080F55
:1035E000191FF1CFC801DF91CF911F910F91FF906B
:1035F000EF90DF90CF9008956115710579F0FB0190
:1036000001900020E9F73197AF01461B570BDC0111
:10361000ED91FC910280F381E02D099480E090E02F
:103620000895EF92FF920F931F93CF93DF937C0146
:10363000FB0100E010E06491EF012196662361F048
:10364000D701ED91FC910190F081E02DC701099522
:10365000080F191FFE01EFCFC801DF91CF911F9115
:103660000F91FF90EF900895DC01ED91FC91019096
:10367000F081E02D09940F931F93CF93DF93EC011A
:103680006DE00E94341B8C016AE0CE010E94341B65
:10369000800F911FDF91CF911F910F9108950F938C
:1036A0001F93CF93DF93EC010E94111B8C01CE017D
:1036B0000E943B1B800F911FDF91CF911F910F91B3
:1036C00008958F929F92AF92BF92CF92DF92EF9226
:1036D000FF920F931F93CF93DF93CDB7DEB7A197E0
:1036E0000FB6F894DEBF0FBECDBF6C01142FE52FCF
:1036F000CB01022F19A2223008F40AE07E0121E258
:10370000E20EF11C802E912CA12CB12C612F7E2F6A
:10371000A50194010E94D71D029F1019112481E078
:10372000E81AF1081A3014F4105D01C0195CF701B1
:103730001083122FE32FCA01232B242B252B31F7C3
:10374000B701C6010E94FC1AA1960FB6F894DEBF1D
:103750000FBECDBFDF91CF911F910F91FF90EF90E2
:10376000DF90CF90BF90AF909F908F900895CF92B1
:10377000DF92EF92FF920F931F93CF93DF93EC01B1
:103780006A017B012115310579F4E881F981019005
:10379000F081E02D642FDF91CF911F910F91FF9069
:1037A000EF90DF90CF9009942A303105E9F477FF4C
:1037B0001AC06DE20E94341B8C0144275527BA01C0
:1037C0004C195D096E097F092AE0CE010E94611B38
:1037D000800F911FDF91CF911F910F91FF90EF907C
:1037E000DF90CF9008952AE0B701A601CE01DF91C6
:1037F000CF911F910F91FF90EF90DF90CF900C949D
:10380000611B9A01AB01770F660B770B0C94B71B0A
:103810002115310541F4DC01ED91FC910190F0811D
:10382000E02D642F09940C94611B9A01AB0160E0B8
:1038300070E00C94081C0E94991A0E941103C0E0C9
:10384000D0E00E9490072097E1F30E940000F9CF9A
:103850004F925F926F927F92AF92BF92CF92DF9220
:10386000EF92FF920F931F93CF93DF93CDB7DEB705
:1038700029013A019B01AC01241935094609570970
:1038800089899A89AB89BC89BC01CD016A197B09F8
:103890008C099D090E94931DA801970124193509DF
:1038A000460957090E94F91DCA01B9016A0D7B1D1D
:1038B0008C1D9D1DDF91CF911F910F91FF90EF9077
:1038C000DF90CF90BF90AF907F906F905F904F90C0
:1038D00008950E94051D88F09F5798F0B92F9927E9
:1038E000B751B0F0E1F0660F771F881F991F1AF0EB
:1038F000BA95C9F714C0B13091F00E941F1DB1E014
:1039000008950C941F1D672F782F8827B85F39F012
:10391000B93FCCF3869577956795B395D9F73EF483
:1039200090958095709561957F4F8F4F9F4F08952B
:10393000E89409C097FB3EF4909580957095619549
:103940007F4F8F4F9F4F9923A9F0F92F96E9BB27FF
:103950009395F695879577956795B795F111F8CF7B
:10396000FAF4BB0F11F460FF1BC06F5F7F4F8F4FE6
:103970009F4F16C0882311F096E911C0772321F0DC
:103980009EE8872F762F05C0662371F096E8862F74
:1039900070E060E02AF09A95660F771F881FDAF7CB
:1039A000880F9695879597F9089597F99F6780E80E
:1039B00070E060E008959FEF80EC089500240A9481
:1039C0001616170618060906089500240A941216FA
:1039D0001306140605060895092E0394000C11F42D
:1039E000882352F0BB0F40F4BF2B11F460FF04C0DA
:1039F0006F5F7F4F8F4F9F4F089557FD9058440F33
:103A0000551F59F05F3F71F04795880F97FB991F3D
:103A100061F09F3F79F087950895121613061406FA
:103A2000551FF2CF4695F1DF08C016161706180687
:103A3000991FF1CF86957105610508940895E89462
:103A4000BB2766277727CB0197F908950E94391D78
:103A50000C94EC1C0E94DE1C38F00E94E51C20F047
:103A6000952311F00C94D51C0C94DB1C11240C94A0
:103A7000201D0E94FD1C70F3959FC1F3950F50E02F
:103A8000551F629FF001729FBB27F00DB11D639F10
:103A9000AA27F00DB11DAA1F649F6627B00DA11DB6
:103AA000661F829F2227B00DA11D621F739FB00D5C
:103AB000A11D621F839FA00D611D221F749F3327CC
:103AC000A00D611D231F849F600D211D822F762F65
:103AD0006A2F11249F5750409AF0F1F088234AF042
:103AE000EE0FFF1FBB1F661F771F881F91505040AE
:103AF000A9F79E3F510580F00C94D51C0C94201D15
:103B00005F3FE4F3983ED4F3869577956795B79534
:103B1000F795E7959F5FC1F7FE2B880F911D96954E
:103B2000879597F90895DB018F939F930E941E1E3E
:103B3000BF91AF91A29F800D911DA39F900DB29F49
:103B4000900D11240895991B79E004C0991F9617D0
:103B500008F0961B881F7A95C9F780950895AA1BCF
:103B6000BB1B51E107C0AA1FBB1FA617B70710F068
:103B7000A61BB70B881F991F5A95A9F7809590959A
:103B8000BC01CD01089597FB072E16F4009407D0D1
:103B900077FD09D00E94AF1D07FC05D03EF490953B
:103BA00081959F4F0895709561957F4F0895A1E28B
:103BB0001A2EAA1BBB1BFD010DC0AA1FBB1FEE1FA7
:103BC000FF1FA217B307E407F50720F0A21BB30BF2
:103BD000E40BF50B661F771F881F991F1A9469F76E
:103BE00060957095809590959B01AC01BD01CF01CA
:103BF0000895052E97FB1EF400940E94101E57FD99
:103C000007D00E94D71D07FC03D04EF40C94101E61
:103C100050954095309521953F4F4F4F5F4F0895F8
:103C200090958095709561957F4F8F4F9F4F089528
:103C3000EE0FFF1F0590F491E02D09940E94291EBC
:103C4000A59F900DB49F900DA49F800D911D1124F0
:103C50000895A29FB001B39FC001A39F700D811D65
:103C60001124911DB29F700D811D1124911D089585
:103C7000F999FECF92BD81BDF89A992780B5089534
:103C8000262FF999FECF1FBA92BD81BD20BD0FB678
:103C9000F894FA9AF99A0FBE01960895F894FFCF16
:103CA0000A0102030405060708090A0B0001014C7A
:0E3CB0004F414445520000000000CD14D41ACC
:00000001FF
