:100000000C94B3050C94DB050C94DB050C94DB0518
:100010000C94DB050C94DB050C94DB050C94DB05E0
:100020000C94DB050C94DB050C94DB050C94DB05D0
:100030000C94DB050C947C100C94DB050C94DB0514
:100040000C940B390C94DB050C94DB050C94DB054C
:100050000C94DB050C94DB050C94DB050C94DB05A0
:100060000C94DB050C94DB05B934B934AB34B734EC
:10007000AB34AB34AB34B934B534B534AB34AB3466
:10008000B934AB34B934AB34AB34B534AB34AB3452
:10009000AB34AB34AB34AB34AB34AB34AB34AB3468
:1000A000AB34AB34AB34AB34AB34AB34AB34B5344E
:1000B000AB34B534B534AB34AB34B934AB34AB3426
:1000C000B534B734BB34AB34AB34AB34AB34B53408
:1000D000AB34AB34AB34B734AB34AB34AB34AB341C
:1000E000AB34AB34AB34AB34AB34AB34AB34B5340E
:1000F000AB34AB34B534AB34AB34B934B534AB34E6
:10010000B534B734AB34AB34AB34AB34B534AB34D7
:10011000B534AB34AB34B734303000596F7520612F
:1001200072652044454144004C4556454C20434CA3
:1001300045415220210030002F32300050415553AC
:1001400045005265736375653A2032300056696C1C
:100150006C61676500040407030C030403030302D6
:1001600003150A01030F1F010F3F7FD90537FF1F3A
:10017000030E000F1F300100C0C0C0C0C0C0C0C00F
:10018000C0C0C0C0C0C040C0C0C040C0C00808009F
:10019000070000810038000808070700818138380F
:1001A000E0150811322222203B3717376B6B75F5AB
:1001B000F4FCFE7D7D3D3D1D0808F0C0A040F0C070
:1001C000A040161003040707060CFE6C3F6C6CFD84
:1001D000837C3E7DDEDD7E1D0E07F0F8BC7EF7EBF6
:1001E000F77EBC58585898FCFEF7EBF7FEFC38E059
:1001F000161007070F0F0F1FFF7F3F7FFFFFFF7FC7
:100200003F7FFFFF7F1F0F0FF0F8FCFEFFFFFFFE99
:10021000FCF8F8F8F8FCFEFFFFFFFEFCF8E01E1605
:1002200000000001030C193160018C9CE4CC8C802F
:1002300083878F9CBF9CCF77190C060300001C7C22
:10024000D78C8F9E9F1E372E0F3E0F1F78FFF3BF58
:10025000FF3FFF3FFFB1CEF77F1FC8380000F0B867
:10026000F858F058F828FC2CFCFCBCF898F8F8F882
:10027000F8F8F010F030E0E000001E160000000179
:10028000030F1F3F7F7FFFFFFFFFFFFFFFFFFFFF0A
:10029000FFFFFF7F1F0F070300001C7CFFFFFFFF16
:1002A000FFFFFFFFFFFFFFFFFFFFFFFFFFFFFFFF5E
:1002B000FFFFFFFFFFFFF8380000F0F8F8F8F0F854
:1002C000F8F8FCFCFCFCFCF8F8F8F8F8F8F8F0F0AA
:1002D000F0F0E0E000000C0C7FF5BFE0A3E3AFEF2F
:1002E000A3E3603FE070F0101010D0D0101010E0C9
:1002F0000C0C7FFFFFFFFFFFFFFFFFFF7F3FE0F0E2
:10030000F0F0F0F0F0F0F0F0F0E00904C0E0B0D070
:10031000F0B0D070300B06385C5C5C7C383810383C
:100320007C7C070860B0F87CF8F0600808C3A55A28
:1003300024245AA5C30808C3E77E3C3C7EE7C318C3
:10034000082070F8F8FEFFF3F3FFFEFCFCFCFCFE57
:10035000FFF3F3FFFEFC783000180700003232365E
:100360003636363E7E5E6E5E6E5E3E1E04060402CD
:100370000000001807007272767E7E7E7E7EFEFE92
:10038000FEFEFEFE7E3E1E06060602000018070068
:10039000000202060606063E7E6E566E7E3E06068B
:1003A000040604020000001807000206060E0E0EE6
:1003B0003E7EFEFEFEFEFE7E3E0E0E0E0E0602008F
:1003C0000015057FBFBFFF7F7F3F3F17372F2F2FC0
:1003D0003F3F3F1F3F776F6F160E0F1A356FD7EFF6
:1003E000D7EFB7DAAD978887808383432313080755
:1003F000FCAC54FCFCFCFCFCFCAC5CFC04FC00C451
:10040000C0C4C0C400FC160E0F1F3F7FFFFFFFFFDC
:10041000FFFFFFFFFFFFFFFFFF7F3F1F0F07FCFCFA
:10042000FCFCFCFCFCFCFCFCFCFCFCFCFCFCFCFC0C
:10043000FCFCFCFC141C000000000000000000009C
:100440000F1A1A1A1F070000000000183C246464E9
:1004500074D49F8C9FFF7FDE8283CC48291E0000CE
:10046000000000000306CD7AF5FAF5EA75EA75FE9C
:1004700083000000000030E0D0A050B070E0C0F079
:1004800050A050A0F000141C00000000000000006C
:1004900000000F1F1F1F1F070000000000183C3C3A
:1004A0007C7C7CFCFFFFFFFFFFFFFFFFFF7F3F1E09
:1004B0000000000000000307CFFFFFFFFFFFFFFF6A
:1004C000FFFF83000000000030F0F0F0F0F0F0E0FB
:1004D000C0F0F0F0F0F0F000141C0000000000008C
:1004E00001000000000006060000010100000000FD
:1004F00000363200031F3E3E3E3E3F1110108887FB
:1005000000000000001E35E4C4CEF9F7E7CB8B9362
:10051000A7FF40C00E0E000000008040603080F059
:10052000F0A0B0E0D0A0D06030000F181C396F5C94
:1005300053476E2753516F282C1C0600C040C00043
:10054000FF92DBFF8080000000000000000000FE42
:100550006677FF0703020000000F181C397F7F7FBA
:100560007F7F3F7F7F7F383C1C0600C0C0C000FFFC
:10057000FFFFFF8080000000000000000000FEFE82
:10058000FFFF07030200000012140000000000003B
:1005900003070B1B6C746C190905030000000000B5
:1005A000000080C05FFAF5EAF7EB75DF000000009D
:1005B00000000000000010F0F0F000E0F0F030006B
:1005C000121400000000000003070F1F7F7F7F1F31
:1005D0000F07030000000000000080C0DFFFFFFFE6
:1005E000FFFFFFDF0000000000000000000010F02F
:1005F000F0F000E0F0F03000121408002000030CCE
:100600001879587C553C080906030000000036CCD8
:1006100098B0C0804FFAF5EA372CF75AC7000000AF
:100620000000003070F0E0E0808060F070D080006A
:100630000E160000000103020E3E22323C030000B1
:100640000000F8BC77DF1F5F5F7FC78000000000FD
:100650000000FC8CFC80C060B8CC7C040E1600004E
:10066000000103030F3F3F3F3F0300000000F8FC81
:10067000FFFFFFFFFFFFC780000000000000FCFC41
:10068000FC80C0E0F8FC7C040E16000000010102B2
:1006900002020307070703000000F89C77DF9F3F73
:1006A0005F7FE7F0E00000000000FC8CFC80C06091
:1006B000B8CC7C040E1600000001010303030307FD
:1006C000070703000000F8FCFFFFFFFFFFFFE7F054
:1006D000E00000000000FCFCFC80C0E0F8FC7C04B2
:1006E0000E1600000001020E3E22323C07F9827C09
:1006F0003848B040F71F5F5F5FFF870000000000D1
:100700000000FC8CFC80C060B8CC7C040E1600009D
:100710000001030F3F3F3F3F07FFFE7C3878F0C0EA
:10072000F7FFFFFFFFFF8700000000000000FCFC58
:10073000FC80C0E0F8FC7C040E0E000000070F3FB8
:100740006F6D6A3D070300000000000CBCFCFCEC70
:10075000E0FCFC0000000E0E000000070F3F7F7F52
:100760007F3F070300000000000CBCFCFCECE0FC39
:10077000FC0000000E0E00040C0C0E0F0D7FDFDDE0
:100780007D0D070000000000000008F8F8C0E0F050
:1007900038000E0E00040C0C0E0F0F7FFFFF7F0FB2
:1007A000070000000000000008F8F8C0E0F0380082
:1007B0000E0E000206060707063F6F6E3E06030098
:1007C0000000000000808088F8F8E0E0F0000E0EE5
:1007D000000206060707073F7F7F3F070300000070
:1007E000000000808088F8F8E0E0F0000E0E0004C1
:1007F0000C0C0E0F0D7FDFDD7D0D070000000000EB
:10080000000000E0E0A8F8F800000E0E00040C0C58
:100810000E0F0F7FFFFF7F0F07000000000000009A
:1008200000E0E0E8F8F800000E0E0061517B1F0FB9
:100830001F3F5F5E7E37058340C0C0C00000D0F020
:10084000700000808000140A000E1B35232F6D6D90
:100850002D3F3E1C1818181810183060804040C0FA
:1008600040404040C0404000000000000000000048
:100870000808D5D5D5D5D5FF81FF0E0B00000000A7
:10088000000E0B0E0000000000000000002060E0E1
:10089000E0E06020000000000E0B04020508106775
:1008A000858760122C0201010040A000A060E0607A
:1008B0002000A0C000000A0A0C3B6D5ACE9E566D67
:1008C0003B0C00008080C040808000000A0A0C3F82
:1008D0007F7FFFFF7F7F3F0C00008080C0C0808053
:1008E000000011120C142A745E69D2E9DEE9D269A3
:1008F0005E6A34380C000000000000E03F5F3FE01B
:1009000000000000000000000000000000C000C067
:10091000000000000000002A1787037B87FF030305
:100920006F9FFF03035B7BFF03036F93FF8303371B
:1009300083FF7F03037FFF0303FF87037B87FF039F
:100940009FCF0380000000FF18395A395A395FFFE2
:10095000FFC08000003F5FBF5F3F000080C0FFFF1F
:100960001F0F1703C6ECF8F0C2070B172F04020481
:100970000AFEFEFEFEFEFEFEFEFEFE06020402F47F
:10098000F2FEF2F402040206FEFEE4C284020E1E2F
:100990003E7E8E8482C4E2271BF8F8F8F9F9F9F953
:1009A000FFFF000000F9F9F9F8F8F8FFFFFAF0F896
:1009B000F0F9F0F8F0FAFFFFF8F8F8FFFFF8F8F8B0
:1009C0000F0F0FFFFFFFFFFFFF0F0F0FCFCFCF0F57
:1009D0000F0FFFFFAF070F87CF870F07AFFFFF0C8A
:1009E0000C0CCCCC000000FCFDFDFFFFFFFFFFFF67
:1009F000FCFDFCFFFFFFFFFFFFFCFDFEFDFCFFFF1A
:100A0000FFFFFFFFFCFDFFFFFFFFFFFFFCFD00C03E
:100A100000E0E0E0E0E0E0006000E0E0E0E0E0E0F6
:100A200000E000E000E0E0E0E0E0E00040E0E0E0E6
:100A3000E0E0E0400043433A42594120332E300089
:100A40004B6576696E204D61634C656F640052653D
:100A5000616374696F6E206279004D757369633AE2
:100A6000566F6C6174696C65004A6F6E6E652056D6
:100A7000616C6F6C6100436F707972696768742094
:100A8000323031350047616D652026204172740097
:100A9000000070083030AFA46FDC943AA5A6300097
:100AA000E1041E08A4A04E40000844400008843819
:100AB000F1FE1F04D57E55FE74F275DEF5DE953825
:100AC000F5FE75FEA000D000400AA0AA1A481574D1
:100AD000FFFFF5FAF5ACF10CF1ECF50CF508F1DEE1
:100AE000F4FAF00880F6F4BAF00CF1E8F248E1E428
:100AF000F578E1E6F5AA7D0C1F14F0FEF8F4F8F4A1
:100B0000B4BA3C34953E00000000240027002A00BF
:100B100000000000250028002B000000000023003A
:100B2000260029000404040404040404020202024E
:100B300002020303030303030102040810204080A0
:100B40000102040810200102040810200000000720
:100B50000002010000030406000000000000000085
:100B60001C096311382511241FBECFEFD8E0DEBF6A
:100B7000CDBF11E0A0E0B1E0EAE0F7E702C00590E8
:100B80000D92A834B107D9F718E0A8E4B1E001C08C
:100B90001D92AF30B107E1F71BE0C6E6DBE004C011
:100BA0002297FE010E947F3BC036D107C9F70E9401
:100BB0009C370C94833B0C9400000F931F93CF93AE
:100BC000DF93689F8001699F100D789F100D11249D
:100BD000C8010E94F905EC01009729F060E070E07F
:100BE000A8010E94FB06CE01DF91CF911F910F91CA
:100BF0000895CF93DF93BC018230910510F462E039
:100C000070E0A0910D08B0910E08ED01E0E0F0E079
:100C100040E050E021C0888199818617970769F4E8
:100C20008A819B81309719F09383828304C09093CB
:100C30000E0880930D08FE0134C06817790738F458
:100C40004115510519F08417950708F4AC01FE0110
:100C50008A819B819C01E9012097E9F641155105A4
:100C6000A9F1CA01861B970B049708F4BA01E0E0CA
:100C7000F0E02AC08D919C91119784179507F9F4A3
:100C80006417750781F412968D919C911397309794
:100C900019F09383828304C090930E0880930D080B
:100CA000FD0132964CC0CA01861B970BFD01E80F6F
:100CB000F91F6193719302978D939C9340C0FD013E
:100CC000828193819C01D9011097A1F680910B0834
:100CD00090910C08892B41F480912301909124017B
:100CE00090930C0880930B084091250150912601A8
:100CF0004115510541F44DB75EB7809121019091A6
:100D00002201481B590B20910B0830910C08CA0195
:100D1000821B930B8617970780F0AB014E5F5F4FE6
:100D20008417950750F0420F531F50930C084093BF
:100D30000B08F9016193719302C0E0E0F0E0CF018C
:100D4000DF91CF910895CF93DF93009709F450C0BE
:100D5000EC0122971B821A82A0910D08B0910E0817
:100D6000109709F140E050E0AC17BD0708F1BB83D4
:100D7000AA83FE0121913191E20FF31FAE17BF0745
:100D800079F48D919C911197280F391F2E5F3F4F59
:100D90003983288312968D919C9113979B838A8324
:100DA0004115510571F4D0930E08C0930D0820C071
:100DB00012968D919C911397AD01009711F0DC0173
:100DC000D3CFFA01D383C28321913191E20FF31F74
:100DD000CE17DF0769F488819981280F391F2E5FAC
:100DE0003F4FFA01318320838A819B8193838283E1
:100DF000DF91CF910895DC0101C06D9341505040C7
:100E0000E0F70895FB01DC0101900D920020E1F76D
:100E10000895909358018093570170934A0160930D
:100E2000490150935601409355013093540120934A
:100E300053010895DF92EF92FF920F931F93D82EE4
:100E40007A018B0187FD60C0E0915301F09154015C
:100E50000995E0915501F09156010995E0914901FC
:100E6000F0914A010995E0914901F0914A010995F3
:100E70008F3FC9F7E0915701F09158018D2D0995E9
:100E8000812F9927AA27BB27E0915701F09158019C
:100E90000995C801AA27BB27E0915701F091580195
:100EA0000995BB27A12F902F8F2DE0915701F0912D
:100EB00058010995E0915701F09158018E2D09953F
:100EC00080E4D81629F088E4D81651F587E801C0E7
:100ED00085E9E0915701F091580109951AE0E091F8
:100EE0004901F0914A01099587FD06C01F910F91B4
:100EF000FF90EF90DF900895115089F71F910F91A7
:100F0000FF90EF90DF90089587E740E050E060E0C9
:100F100070E00E941A07823048F78FE7D82294CFFA
:100F200081E0D7CFCF92DF92EF92FF920F931F9382
:100F3000DF93CF9300D000D00F92CDB7DEB714E689
:100F4000E0914901F0914A0109951150C9F780E4F7
:100F500040E050E060E070E00E941A078130E9F064
:100F600090E011E090934801E0915301F091540119
:100F70000995E0914901F0914A010995812F0F905F
:100F80000F900F900F900F90CF91DF911F910F91C5
:100F9000FF90EF90DF90CF90089588E44AEA51E007
:100FA00060E070E00E941A07813049F56E010894F4
:100FB000C11CD11C76018E010B5F1F4FE0914901CE
:100FC000F0914A010995F70181937F01E017F1073C
:100FD000A9F78B81813021F68C818A3A09F608EADB
:100FE00011E689EE40E050E060E070E40E941A07EC
:100FF0008823A9F10150104009F4B2CFF2CF89EE55
:1010000040E050E060E070E00E941A07823008F48F
:1010100044C041E4F42E91E008EA11E68F2D40E04F
:1010200050E060E070E09D830E941A079D81882354
:1010300029F00150104009F493CFF0CF012B09F4AF
:101040008FCF80E540E052E060E070E09D830E9439
:101050001A079D81882309F083CF10E083CF012BED
:1010600009F47ECF8AE740E050E060E070E00E9443
:101070001A07882309F074CFE0914901F0914A01E1
:101080000995F60181936F01EE15FF05A9F7898196
:1010900086FD07C094E010E065CF39EEF32E92E0B4
:1010A000BBCF9CE010E05ECFAF92BF92CF92DF92B9
:1010B000EF92FF920F931F93CF93DF93B82EA92E39
:1010C000790168011F770115110509F465C0C80190
:1010D000820F931F8150924008F05EC080914801BA
:1010E00083FD07C0E9E0440F551F661F771FEA958F
:1010F000D1F781E50E941A07882309F05EC0C8EE87
:10110000D3E0E0914901F0914A0109958F3F09F43C
:1011100051C08E3F09F051C0CC27DD27CE19DF0921
:10112000CE5FDD4FC01BD10BE114F10459F0E0910B
:101130004901F0914A0109950894E108F108E11488
:10114000F104A9F7D7FC46C08B2D9A2D9C0179019B
:10115000E0914901F0914A010995F70181937F01DE
:1011600001501040A9F7E0914901F0914A01099519
:101170002197C9F7E0915301F09154010995E0914D
:101180004901F0914A010995C8010115110511F0B5
:1011900081E090E09C0102C024E030E0C901DF91D1
:1011A000CF911F910F91FF90EF90DF90CF90BF9064
:1011B000AF900895219709F0A4CFE0915301F091E9
:1011C00054010995E0914901F0914A01099521E006
:1011D00030E0E4CFEB2CFA2CE0914B01F0914C0184
:1011E0000995E0914D01F0914E010995E091490179
:1011F000F0914A010995F7010995D82EE0914F0128
:10120000F091500109950150104041F4E0915101D5
:10121000F09152010995C00FD11FA5CFDD2009F72C
:10122000F5CF80E290E062E070E00E94DD058093FF
:101230008B0190938C0108958FE891E00E94110931
:101240000895CB010E94A70D08950F931F93CF938C
:10125000DF938B018FE791E00E945A0DEC0100971C
:1012600039F480918B0190918C01B8010E940207A2
:10127000CE01DF91CF911F910F91089580918D0143
:1012800061E00E94A63A0895CF92DF92EF92FF921A
:101290000F931F936C01862F7A01890160938D0152
:1012A00070938E0161E00E943A3A0E943E09C801A3
:1012B000B70141E759E02EE339E00E9409070E9497
:1012C000920789E591E00E945C0FC60160E071E041
:1012D0000E9425091F910F91FF90EF90DF90CF9012
:1012E000089580918D0160E00E94A63A08950F93C1
:1012F0001F93CF93DF93EC01009190011091910126
:10130000198218826C817D8161307105C1F0F8010C
:10131000808591856817790790F47F836E836115C6
:101320007105A9F062507040808591850297681719
:101330007907F0F020E030E040E050E00DC021E01F
:1013400030E0C901DF91CF911F910F910895F8010D
:101350002685378540895189288739874A875B8761
:1013600020E030E0C901DF91CF911F910F910895E6
:1013700080E090E0F801218130E040E050E00E9400
:10138000093B9B01AC01F80182899389A489B58945
:10139000280F391F4A1F5B1FDFCF8F929F92AF929A
:1013A000BF92CF92DF92EF92FF920F931F93DF9342
:1013B000CF9300D000D0CDB7DEB77C01C0909001B4
:1013C000D090910182E0E816F10458F0F601808592
:1013D0009185E816F90628F480818130A1F18230E8
:1013E000A1F021E030E0C9010F900F900F900F9015
:1013F000CF91DF911F910F91FF90EF90DF90CF90F1
:10140000BF90AF909F908F9008954F2D552760E02B
:1014100070E0F60182859385A485B585480F591F34
:101420006A1F7B1FFFEFEF22FF24EE0CFF1CCE0193
:101430000196970102E010E00E945408892B89F67A
:1014400029813A81D0CFC701969587958E0D9F1D32
:101450009C013170AC01452F55274695F1E02F3F97
:101460003F0719F160E070E0F60182859385A4855D
:10147000B585480F591F6A1F7B1FCE01019602E0F8
:1014800010E00E945408892B09F0ABCF89819A8122
:10149000E0FE08C09C01329522952F7023273F70F3
:1014A0002327A1CF9C013F709ECF4A01AA24BB24D1
:1014B000F6014285538564857585480D591D6A1D61
:1014C0007B1DCE0101962FEF31E001E010E00E947C
:1014D0005408892B09F085CFF60142855385648530
:1014E00075854F5F5F4F6F4F7F4F480D591D6A1DC8
:1014F0007B1DCE01029620E030E00E945408892B2B
:1015000029F26FCFEF92FF920F931F93CF93DF9348
:101510008C01E0909001F0909101FC01C081D1819B
:10152000219671F12085318542855385211531053C
:101530004105510529F1CE018F709070892B99F4E6
:101540002F5F3F4F4F4F5F4F208731874287538731
:101550004681578141155105E9F4F7018481958150
:10156000C817D90768F4F801D183C08320E030E0C0
:10157000C901DF91CF911F910F91FF90EF900895D6
:1015800023E030E0C901DF91CF911F910F91FF90CF
:10159000EF900895F701818190E001979E013295C7
:1015A00022952F7023273F70232782239323892B93
:1015B000D1F6CA010E94CD09BC0182309105A8F183
:1015C000F7018085918568177907D0F6F801778350
:1015D0006683E0909001F090910162507040F701B5
:1015E0008085918502976817790750F020E030E0F8
:1015F00040E050E0F8012087318742875387B3CF1E
:1016000080E090E0F701218130E040E050E00E946E
:10161000093B9B01AC01F70182899389A489B589B3
:10162000280F391F4A1F5B1FE5CF21E030E0AACF0A
:101630002F923F924F925F926F927F928F929F92E2
:10164000AF92BF92CF92DF92EF92FF920F931F93D0
:10165000CF93DF93E82FC0919001D0919101209713
:1016600009F411C18A8180FF78C0EA8CFB8C0C8D53
:101670001D8D4E2F592FCB01DA013C014D01E6148F
:10168000F7040805190510F437014801EE88FF88B2
:10169000088D198D1E8A1F8A188E198E6114710487
:1016A0008104910409F4B7C08981A82EBB24CC24FD
:1016B000DD24A9E0AA0CBB1CCC1CDD1CAA95D1F72B
:1016C000E114F1040105110509F0A8C06E8D7F8DAC
:1016D00079A368A3A614B704C804D90408F053C0BA
:1016E0002224332421012A183B084C085D086A187B
:1016F0007B088C089D0826C088859985681779071E
:1017000040F579A368A32E893F89488D598D2A0D0C
:101710003B1D4C1D5D1D2E8B3F8B488F598F8401C7
:101720007301E20CF31C041D151DD801C7018A0DBD
:101730009B1DAC1DBD1DA816B906CA06DB0638F5F3
:1017400037014801CB010E94CD09BC0182309105CF
:1017500098F61A8221E030E002C027E030E0C901AB
:10176000DF91CF911F910F91FF90EF90DF90CF907D
:10177000BF90AF909F908F907F906F905F904F90B1
:101780003F902F9008952E893F89488D598D260DC1
:10179000371D481D591D2E8B3F8B488F598FF9E0FF
:1017A0009694879477946794FA95D1F7F62CF394EE
:1017B000FB82009190011091910162507040F801FC
:1017C0008085918502976817790718F680E090E088
:1017D000218130E040E050E00E94093B9B01AC01D8
:1017E000F80182899389A489B589280F391F4A1F76
:1017F0005B1F211531054105510509F4AACF2F0DB5
:10180000311D411D511D21503040404050402AA300
:101810003BA34CA35DA320E030E0A1CF170128013A
:1018200008942108310841085108C401B3016150EE
:10183000704080409040A60195010E945B3B790179
:101840008A01C201B101A60195010E945B3BE2162B
:10185000F3060407150708F439CF88279927DC0118
:101860008A199B09AC09BD0982219321A421B521C4
:101870008E8B9F8BA88FB98F681A790A8A0A9B0A68
:1018800068A179A127CF28E030E069CF7F928F92BD
:101890009F92AF92BF92CF92DF92EF92FF920F93FF
:1018A0001F93CF93DF935C016B01DB018C918F322F
:1018B00009F4E4C0F50115821482D6018C918032BE
:1018C00008F4E7C0F50102811381F0E2EF2E7724DE
:1018D0007394F801C8010B96E192E817F907E1F754
:1018E00030E0FF2468E0F601EF0DF11D2081F39454
:1018F000203240F12F3231F12E32B9F03617A8F4F0
:101900002F3708F43FC085E0882E912CC401DF9169
:10191000CF911F910F91FF90EF90DF90CF90BF90EC
:10192000AF909F908F907F900895683061F72E322E
:1019300051F738E06BE0F601EF0DF11D2081F394D3
:101940002032C0F63323F9F2D8011B961C921B9764
:10195000203210F41B967C92C5010E9477094C013D
:10196000009779F1F3E08F16910481F6D501129674
:10197000ED91FC9113978385882341F604E0802E36
:10198000912CC4CF422F50E04032510509F4BBCF17
:10199000E2E0F1E007C0992787FD909548175907C5
:1019A00009F4B1CF319680818823A9F7822F81561F
:1019B0008A3108F42052F801E30FF11D20833F5FC4
:1019C00092CFE0919001F0919101C681D781F5010C
:1019D0004085518562857385208131812F703070FB
:1019E000220F331F22953295307F3227207F3227F6
:1019F000CE0100E210E00E945408892B21F091E012
:101A0000892E912CAFCF8881882309F44FC08B8514
:101A100083FD11C0D50112960D911C91139720E002
:101A200030E0FE01E20FF31FD801A20FB31F908137
:101A30008C91981739F0C5010E94820A009739F2FB
:101A40004C0190CF2F5F3F4F2B30310551F7F801FC
:101A50008385882309F05ACFE0919001F09191019C
:101A60000680F781E02D838584FF88CFCF0CD11CC1
:101A7000828D938DF501958384832BCF0894C11CAF
:101A8000D11CF50115821482D6018C91803208F0A8
:101A900019CFC5010E9477094C01E0919001F091A6
:101AA00091010680F781E02D108230CF13E0812E66
:101AB000912C58CFEF92FF920F931F93DF93CF9308
:101AC000CDB7DEB7AC970FB6F894DEBF0FBECDBF73
:101AD0008C01E0919001F09191013097A9F1ADE076
:101AE000EA2EF12CEC0EFD1EF782E682CE01019665
:101AF000F80193838283C8010E94460C9C010097E1
:101B000081F48D85882349F0888D84FF0DC0F7010D
:101B1000828D938DF80195838483C8010E94770993
:101B20009C012330310511F424E030E0C901AC966A
:101B30000FB6F894DEBF0FBECDBFCF91DF911F91DE
:101B40000F91FF90EF90089528E030E0EFCFEF92F3
:101B5000FF920F931F93DF93CF93CDB7DEB7E89734
:101B60000FB6F894DEBF0FBECDBFBC01009190014F
:101B7000109191010115110509F441C0F80112827B
:101B8000B9E1EB2EF12CEC0EFD1EF782E682CE01C0
:101B90000D969C838B83CE0101960E94460C9C017E
:101BA0000097E1F4898D882339F18CA184FD24C04C
:101BB000F701828D938DF801978F868FF701848DC1
:101BC000958DA68DB78DF801828F938FA48FB58FD9
:101BD000168A178A108E118E81E08283C901E896D9
:101BE0000FB6F894DEBF0FBECDBFCF91DF911F912E
:101BF0000F91FF90EF90089523E030E0EFCF28E0C1
:101C000030E0ECCF2F923F924F925F926F927F9293
:101C10008F929F92AF92BF92CF92DF92EF92FF92FC
:101C20000F931F93CF93DF931C015B013A01C09088
:101C30009001D0909101FA0111821082C114D10457
:101C400009F4F4C0F601828180FF61C0F601E688E4
:101C5000F788008D118D228D338D448D558D2E1971
:101C60003F09400B510BCB01A0E0B0E0281739072A
:101C70004A075B0708F45901A114B10409F4D3C061
:101C80004101412C32E0532ED801C7019170A07060
:101C9000B0700097A105B10509F076C0C801B70181
:101CA00029E096958795779567952A95D1F7F6015E
:101CB000218130E040E050E00E945B3B61157105FE
:101CC0008105910581F4E114F1040105110509F084
:101CD000A4C0F601868D978D8230910598F0F601AB
:101CE00091A380A31382C0919001D0919101F6013C
:101CF00060A171A16250704088859985029768172C
:101D00007907D8F0F601128221E030E002C027E026
:101D100030E0C901DF91CF911F910F91FF90EF90BB
:101D2000DF90CF90BF90AF909F908F907F906F90FB
:101D30005F904F903F902F90089580E090E0298130
:101D400030E040E050E00E94093B9B01AC018A89F1
:101D50009B89AC89BD89280F391F4A1F5B1F21153C
:101D600031054105510571F2F6018381280F311DBE
:101D7000411D511D22A333A344A355A38F5F838329
:101D8000E688F788008D118D97013170E201C21B42
:101D9000D30BAC16BD0608F4E501F601828186FF7F
:101DA0002AC042A153A164A175A18E011068C1018E
:101DB0000E945408009751F5CE01A0E0B0E0F60172
:101DC00026893789408D518D280F391F4A1F5B1F87
:101DD000268B378B408F518FF301808191818C0F3F
:101DE0009D1F91838083AC1ABD0AE9F08C0E9D1E65
:101DF00079018A0149CFF60142A153A164A175A1DD
:101E0000C4018E010E9454080097B1F2F6011282BB
:101E1000029779F021E030E07CCFF60180A191A11A
:101E20000E94CD0959CF20E030E073CF28E030E0A8
:101E300070CF26E030E06DCFAF92BF92CF92DF92AD
:101E4000EF92FF920F931F93CF93DF93B82EA92E9B
:101E50006A017B012EEF31E002E010E00E9454089D
:101E6000892BA1F4CB2DDA2D8881998185559A4A49
:101E700079F022E0822FDF91CF911F910F91FF9097
:101E8000EF90DF90CF90BF90AF90089523E0F2CF16
:101E90008B2D9A2DB701A60126E330E002E010E079
:101EA0000E945408892B31F420E08881998186545E
:101EB000914401F321E0DECF4F925F926F927F92C7
:101EC0008F929F92AF92BF92CF92DF92EF92FF924A
:101ED0000F931F93DF93CF93CDB7DEB7A4970FB6C1
:101EE000F894DEBF0FBECDBF6C011092910110922D
:101EF0009001009709F4DFC00E94920780FF1AC08A
:101F000022E030E0C901A4960FB6F894DEBF0FBE00
:101F1000CDBFCF91DF911F910F91FF90EF90DF9098
:101F2000CF90BF90AF909F908F907F906F905F9079
:101F30004F9008957E010894E11CF11CC70140E018
:101F400050E060E070E00E941C0F813009F4B9C0DD
:101F5000882499245401833009F4B0C0882319F0EF
:101F600029E030E0CFCFC701B501A4012DE030E07A
:101F700004E210E00E945408892B09F09FC08A8572
:101F80009B85BC0180E090E061157105810591059C
:101F900021F4688D798D8A8D9B8D2C8130E040E015
:101FA00050E00E94093B2B013C014A815B81CA0140
:101FB000A0E0B0E0880E991EAA1EBB1EF601828624
:101FC0009386A486B586898181832D813E81358360
:101FD00024838F8198857C0100E010E0E114F104F6
:101FE0000105110521F4EC88FD880E891F89CA01BD
:101FF000A0E0B0E0E81AF90A0A0B1B0BE418F50898
:1020000006091709329522952F7023273F70232741
:10201000C901A0E0B0E0E81AF90A0A0B1B0BF601AF
:10202000218130E040E050E0C801B7010E945B3BF5
:102030002E5F3F4F4F4F5F4FF60131872087273F7D
:10204000FFE03F07F0E04F07F0E05F0740F0275F59
:102050003F4F4040504008F083CF82E001C081E014
:10206000F60180832285338544855585D301C201DD
:10207000820F931FA41FB51F86879787A08BB18BF4
:1020800084819581929582958F7089279F70892789
:10209000A0E0B0E0820F931FA41FB51F840D951D13
:1020A000A61DB71D828B938BA48BB58B1282D09209
:1020B0009101C092900120E030E024CF21E030E097
:1020C00021CFC70140E050E060E070E02EEB31E04E
:1020D00000E110E00E945408892B81F78D8188234C
:1020E00009F43ECF89849A84AB84BC84C701B501CE
:1020F000A4010E941C0F2FCF1F920F920FB60F92B8
:1021000011242F933F934F935F936F937F938F93FC
:102110009F93AF93BF93EF93FF93E0919601F0915C
:1021200097010995FF91EF91BF91AF919F918F9189
:102130007F916F915F914F913F912F910F900FBEC3
:102140000F901F9018950F931F93FC01440F551F7C
:10215000661F771F440F551F661F771F440F551FBB
:10216000661F771F403080E0580781E0680780E0F5
:1021700078070CF462C08A019B01B3E0359527957E
:1021800017950795BA95D1F7003080E0180781E0E0
:10219000280780E03807ACF18A019B01A6E035955D
:1021A000279517950795AA95D1F7003080E0180775
:1021B00081E0280780E038070CF442C0452F562FF5
:1021C000672F772767FD7A95403080E0580781E0D8
:1021D000680780E07807C4F175956795579547952E
:1021E0007595679557954795403080E0580781E091
:1021F000680780E078075CF185E082834FEF5FEF4E
:1022000003C082E08283A8018FB78383F89451834F
:102210004083509387004093860083818FBF8091D5
:102220008100887F80938100809181009281892B39
:10223000809381001F910F91089581E08283E4CF04
:1022400083E08283A801E0CF84E08283DDCF85E054
:102250008283DACF1092800020E1209381000E94D7
:10226000A31008950F931F93CF93DF93EC018B017D
:10227000121613061406150624F4BA01A9010E94C9
:10228000A3101D830C8381E080936F0080918100F7
:102290009A81892B80938100DF91CF911F910F91BB
:1022A0000895282F99E2981B97FD91958091A4019C
:1022B000981744F49093A40120932C0160932D016E
:1022C0004093A50108950F931F930AEA11E0C801F6
:1022D0000E945A24C80106960E945A24C8010C96EE
:1022E0000E945A24C80142960E945A24C801489666
:1022F0000E945A24C8014E960E945A24C80184960E
:102300000E945A24C8018A960E945A24C801C09685
:102310000E945A24C801C6960E945A2406EE11E073
:10232000C8010E942725C8010B960E942725C801D5
:1023300046960E942725C80181960E942725C8013C
:102340008C960E942725C801C7960E94272588E2FF
:1023500092E00E94272583E392E00E9427258EE3E6
:1023600092E00E94272589E492E00E94272504E557
:1023700012E0C8010E943325C80103960E9433254C
:10238000C80106960E943325C80109960E9433258C
:10239000C8010C960E9433251F910F9108959F92BA
:1023A000AF92BF92CF92DF92EF92FF920F931F9363
:1023B000CF93DF937C01B82ECF2C60E070E04AE22F
:1023C00050E00E94BD340091290110912A0112951C
:1023D00002950F7001271F700127AE2C9F2C602FD4
:1023E000772767FD7095C7014AE050E00E94EC38FE
:1023F000C7016FE070E04AE250E00E94BD34809176
:1024000029018F70002319F0882309F4FAC0C82F1E
:10241000DD27C7FDD095CC0FDD1F1C161D06A4F4CB
:1024200010E037E2D32E6D2D611B8B2D9C2D40E0EB
:1024300050E023E030E001E00E9496271E5F812FEC
:1024400090E08C179D077CF38091A0018A3008F002
:10245000AEC08B2D9C2D64E470E041E050E00E9402
:10246000BD346091A0018A2D992D70E04AE050E0C2
:102470000E94EC388B2D9C2D68E470E041E050E028
:102480000E94BD348A2D992D68E371E00E941838AE
:102490008B2D9C2D6BE470E04AE250E00E94BD342D
:1024A00060919C0170919D0180919E0190919F018E
:1024B000653171058105910508F449C023E630E0D6
:1024C00040E050E00E94093B7B018C019BE01695A7
:1024D0000795F794E7949A95D1F78AE0E816F10406
:1024E00008F480C08A2D992DB7014AE050E00E947F
:1024F000EC388B2D9C2D6CE442E222E233E0890122
:10250000EE240E94F12E8091A3018823A1F0FF24E4
:102510008CE0D82EFD9CB00111248B2D9C2D40E029
:1025200025E133E08901EE240E94F12EF39480919D
:10253000A301F81678F3DF91CF911F910F91FF90CF
:10254000EF90DF90CF90BF90AF909F9008958091D3
:102550003001882319F08150809330010E94163198
:10256000882371F58B2D9C2D67E170E044E150E0EC
:102570000E94BD3480912B01803109F445C0823026
:1025800009F449C08A2D992D6BE171E00E94183839
:102590008B2D9C2D6BE470E04AE250E00E94BD342C
:1025A0008A2D992D68E171E00E941838A2CF8B2DF9
:1025B0009C2D61E470E041E050E00E94BD3451CFB9
:1025C00080913001882371F681E080932B01EEEB3E
:1025D000F0E0EE0EFF1EF7011182108282E8809378
:1025E0003001C0CF8A2D992D66E371E00E94183822
:1025F0008B2D9C2D6FE470E04AE250E00E94BD34C8
:1026000071CFC0E2D0E00CCF8A2D992D68E271E045
:102610000E941838BDCF88E080932B01B3CFCF92B2
:10262000DF92EF92FF920F931F93E62ED42EC22ECD
:10263000FF24E7FCF0940E9468378701000F111F08
:102640000E0D1F1D0C5A1D4F9DEFD90E66E00E9406
:10265000283BD90EF801D1820E946837FDEFCF0EDA
:1026600066E00E94283BC90EF801C28265E070E076
:102670006E197F0985E290E00E94483B60831F91BC
:102680000F91FF90EF90DF90CF9008955F926F923F
:102690007F928F929F92AF92BF92CF92DF92EF92F2
:1026A000FF920F931F93CF93DF93562EA62EBB243A
:1026B000A7FCB0943501660C771C4501880C991C69
:1026C000880C991C880C991CF301E80DF91DEA0D82
:1026D000FB1DEA51FE4F8581813009F457C18FEF10
:1026E000581609F489C0E301C80DD91DCA0DDB1DB8
:1026F000CA51DE4F18821B828091A701882309F4FA
:102700009EC085E08D83F301E80DF91DEA0DFB1DE8
:10271000EA51FE4F8581833009F45BC0F301E80D77
:10272000F91DEA0DFB1DEA51FE4F8581873009F442
:1027300048C0823011F483E08583C0919A01D09122
:102740009B018091980190919901C80FD91F630155
:10275000C80CD91CCA0CDB1CE6EEF1E0CE0EDF1E65
:10276000F601D783C6838581843009F417C185308B
:1027700008F077C0833009F495C08301080D191D56
:102780000A0D1B1D0A511E4FC80161E00E94612401
:10279000C80161E00E94962481E0F80182878AE006
:1027A0008187DF91CF911F910F91FF90EF90DF9084
:1027B000CF90BF90AF909F908F907F906F905F90E1
:1027C00008958091A001853008F0B7CF84E085831B
:1027D000B4CF8091A0018E3008F0A0CF0E9468375E
:1027E00080FF9CCFF301E80DF91DEA0DFB1DEA51B6
:1027F000FE4F84E08583A1CF8091EB01882309F00F
:10280000FFC0E6EFF1E021E030E0522E5901808177
:10281000882331F42F5F3F4F3B962C303105A9F7C9
:102820009AE0591609F4BDCF3501660C771C4501B5
:10283000880C991C880C991C880C991C54CF0E94F8
:102840007C3787708D83823050F1863009F063CFFA
:1028500011E01D83CE0160E00E9496241093A70131
:10286000A0CF8530A9F1873009F087CF84E0F60149
:1028700084830E946837C853DF4FC80FD11DF6010B
:10288000D283C18380919A0190919B0120919801FC
:1028900030919901820F931F978386836ECF84E0D6
:1028A0008D8331CF88E0F6018483C455D140D28333
:1028B000C1830E946837C051DF4F90E0959587959E
:1028C00095958795C81BD90BF601D783C68355CF3D
:1028D00081E0F60184830E946837CA56DF4FC80F33
:1028E000D11DF601D283C18380919A0190919B0101
:1028F0002091980130919901820F931F97838683CD
:102900008FEF8383EBEEF1E0C0E0D0E006C02196CC
:102910003B96CA30D10509F430CFD08081E0D8167B
:10292000B1F78E01000F111FCE01880F991F880F7C
:10293000991F880F991F080F191F0C0F1D1F0A518F
:102940001E4F86E0F80185837301E80CF91CEA0C40
:10295000FB1C86EE91E0E80EF91EF7018181928161
:10296000F801928381831082C80161E00E94612492
:10297000C80160E00E94962482E0F8018483D28638
:102980005382F701C3831092A701F7CE0E946837E4
:102990008A3F08F406CF1092A701A1CE82E0F6018B
:1029A00084830E94683780FF12C0E0909801F09005
:1029B000990100919A0110919B010E9468370E0DB8
:1029C0001F1D080F111DF60112830183D6CE009141
:1029D000980110919901E0909A01F0909B010E945A
:1029E00068370E0D1F1D0659104090E0959587958C
:1029F00095958795081B190BF60112830183BDCEAF
:102A00005524AA24BB2466247724882499246BCED9
:102A1000EF92FF920F931F93CF93DF93C62FDD2783
:102A2000C7FDD0950E94683766E00E94283B9E5FF4
:102A30007E01EE0CFF1CF701EC0FFD1FEE0FFF1FD8
:102A4000E655FE4F958320912F01222321F09630E9
:102A500021F0943011F0953049F4F701EC0FFD1F8F
:102A6000EE0FFF1FE655FE4F82E08583F701EC0F66
:102A7000FD1FEE0FFF1FE655FE4F8091270190913D
:102A8000280192838183108281E084838581833051
:102A900009F43FC0222349F500919A0110919B014E
:102AA0008091980190919901080F191F0E947C371D
:102AB0000C591F4F292F26952695269530E0020F99
:102AC000131F1093280100932701CE0DDF1DCC0F9B
:102AD000DD1FC655DE4F8D818093A801DF91CF9118
:102AE0001F910F91FF90EF9008950E947C374091C5
:102AF000270150912801415F5F4F292F2695269588
:102B0000269530E0420F531F509328014093270130
:102B1000DCCF8091A801833009F0BCCF82E08583AF
:102B2000B9CFEF92FF921F93CF93DF937C0110E018
:102B3000C701612F0E9408151F5F1A30C9F7CBEE3D
:102B4000D1E010E01882C701612F0E9446131F5F79
:102B50002B961A30B9F7DF91CF911F91FF90EF902C
:102B6000089524EF31E03093990120939801109259
:102B70009B0110929A01109228011092270121E0E6
:102B800020932F010E94911510922F01109299010C
:102B9000109298011092A0011092A30180E098E099
:102BA000A0E0B0E080939C0190939D01A0939E01D2
:102BB000B0939F0180E094E090932A0180932901D3
:102BC00008952F923F924F925F926F927F928F92D1
:102BD0009F92AF92BF92CF92DF92EF92FF920F93AC
:102BE0001F93DF93CF93CDB7DEB72B970FB6F89433
:102BF000DEBF0FBECDBF282E99871092A201109282
:102C0000A50122E0622EABEAB1E0BB87AA87CC2403
:102C1000DD2440919A0150919B01E0919801F0913F
:102C2000990160E3462E512C0EC00894C11CD11CA2
:102C30002A853B852A5F3F4F3B872A873AE0C316A8
:102C4000D10409F44AC0BC2CAA85BB8514968C918A
:102C50001497861551F788279927841B950B8E1B8F
:102C60009F0B2D913C91820F931F80579E4F74F4C0
:102C7000822D99856C2D0E94081540919A015091E2
:102C80009B01E0919801F0919901CFCF7601EE0C74
:102C9000FF1CEC0CFD1CEE0CFF1CEAEAF1E0EE0E52
:102CA000FF1EC70160E00E946124F4E06F1609F482
:102CB000EBC3F61508F4A6C122E0621609F490C42D
:102CC00033E0631609F445C440919A0150919B0189
:102CD000E0919801F0919901A8CF87EE91E09B8750
:102CE0008A87CC24DD247724739430C0EA85FB8561
:102CF0008481863009F4EDC08091A001843158F0C0
:102D000010929C0110929D0110929E0110929F01C1
:102D100080E180932B01822D9985632D0E944613BB
:102D20000894C11CD11C73942A853B85255F3F4FB5
:102D30003B872A873BE0731609F4ADC040919A01A6
:102D400050919B01E0919801F09199013C2C4E0F1C
:102D50005F1FAA85BB858D919C91481B590B4F55D0
:102D6000514024F6AA85BB8514961C91149716151C
:102D7000B9F618968C911897882309F4AAC1815046
:102D800018968C93153009F4BEC1163008F0BCC0FB
:102D9000133009F475C2143019F64601880C991CD9
:102DA0002601440C551C440C551C440C551C740144
:102DB000E40CF51CEC0CFD1C26EE31E0E20EF31EDB
:102DC000C7010E948B24882309F47FC4AA85BB8590
:102DD0008D919C9120919A0130919B01E0919801F5
:102DE000F09199012E0F3F1F281B390B220F331F23
:102DF000C90182959295907F9827807F9827820FAE
:102E0000931F082E892F000C881F990B000C881F18
:102E1000991F2CEEA22E2FEFB22EA80EB91E0B97E3
:102E20008B35910508F07CCF8401040D151D0C0D28
:102E30001D1D0A511E4FC8010E94C924882309F490
:102E400082C40E946837873E08F051C5EA85FB8539
:102E50008185813009F460C5843009F45DC5823014
:102E600009F467C6853009F464C6C7010E9482244C
:102E7000E82E822D99856A2D47E12CEE37E00AE095
:102E800018E00E94F12EFA2C8F2D875F6EE1472DFE
:102E90000E94511145CF639488E0681609F0B3CEC3
:102EA0002B960FB6F894DEBF0FBECDBFCF91DF914A
:102EB0001F910F91FF90EF90DF90CF90BF90AF9058
:102EC0009F908F907F906F905F904F903F902F904A
:102ED0000895C601880F991F9601220F331F220FF4
:102EE000331F220F331F820F931F8C0D9D1D8A519C
:102EF0009E4F0E94C924882309F4FECE8091A00130
:102F00008F5F8093A001FACE163009F464C11730A8
:102F100009F006CF40919A0150919B01E0919801F0
:102F2000F09199014E0F5F1FEA85FB8580819181A9
:102F3000481B590B80E390E09C01429FC001439FD6
:102F4000900D529F900D1124082E892F000C881F80
:102F5000990B000C881F991FDC015496BA83A98332
:102F6000CB968B37910508F0DBCE0E946837883FFF
:102F700008F087C54601880C991C2601440C551C95
:102F8000440C551C440C551C0E9468378F3F09F4B3
:102F90006FC65401A40CB51CAC0CBD1CE6EEF1E0F0
:102FA000AE0EBF1EC5010E94C224882309F4F9C3D6
:102FB0000E946837853B60F029813A8126303105CF
:102FC0003CF080912E0190E0880F991F8093A20120
:102FD000822D9985698144E124E334E006E814E018
:102FE000EE240E94F12EAA85BB8519968C91813022
:102FF00009F4ECC5F9808F2D865F60E2472D0E94B1
:1030000051118ECE85E0681609F4DBC196E0691691
:1030100009F05ACE40919A0150919B01E09198019C
:10302000F0919901CA018E0F9F1FAA85BB852D9132
:103030003C91821B930B849D4001859D900C949D37
:10304000900C1124082C892C000C881C9908000C69
:10305000881C991CC40187968B37910508F0E5CD33
:10306000C7010E948B24882309F4DEC4EA85FB850E
:1030700022812150228380819181029791838083D4
:103080002C3E0CF44AC5C7010E94822460E08823CC
:1030900009F4A9C3C7010E946C24AA85BB851296B6
:1030A0001C911E5DC7010E948224E82E822D998505
:1030B000682D412F26ED32E000EF12E00E94F12E44
:1030C00040919A0150919B01E0919801F0919901F2
:1030D000ACCD4601880C991C2601440C551C440CAF
:1030E000551C440C551C840C951C8C0C9D1CC40157
:1030F0008A519E4F0E94E1248AE0EA85FB85808701
:10310000153009F042CE0E946837893C08F0FFC2B2
:103110004601880C991C2601440C551C440C551C76
:10312000440C551CC401840D951D8C0D9D1D8A51A8
:103130009E4F60E00E94AC2480919A0190919B0187
:10314000E0919801F09199018E0F9F1FEA85FB8510
:1031500020813181821B930B880F991F880F991F43
:10316000880F991F9C01220F331F220F331F280F36
:10317000391F022E232F000C221F330B000C221F9D
:10318000331FC90105979C838B832E5D3F4F2B37DF
:10319000310508F0C5CD5401A40CB51CAC0CBD1C08
:1031A000A6EEB1E0AA0EBB1EC5010E948B248823A7
:1031B00009F4DDC3AA85BB8519968C9180FD99C45D
:1031C0008C3009F47DC3FB808F2D845F64E2472D32
:1031D0000E945111A5CD80919A0190919B01E0919F
:1031E0009801F09199018E0F9F1FAA85BB852D91A3
:1031F0003C91821B930B880F991F880F991F880F92
:10320000991F9C01220F331F220F331F280F391FD4
:10321000022E232F000C221F330B000C221F331F02
:1032200048E0A42EB12CA20EB31E215D3F4F2B37D8
:10323000310508F075CD8601000F111FC601880FFA
:10324000991F880F991F880F991F080F191F0C0DC0
:103250001D1D0A511E4FC8010E948B24882309F4AA
:10326000FEC3EA85FB85818580FD2DC48C3009F481
:1032700080C48A2D895F63E2472D0E94511150CD91
:103280004601880C991C2601440C551C440C551C05
:10329000440C551C5401A40CB51CAC0CBD1C26EEF2
:1032A00031E0A20EB31EC5010E948B24882309F4CD
:1032B000D7C180919A0190919B01E0919801F09182
:1032C00099018E0F9F1FAA85BB852D913C91821B72
:1032D000930B880F991F880F991F9C01220F331F92
:1032E000220F331F220F331F280F391F022E232FC7
:1032F000000C221F330B000C221F331FF90174979F
:10330000FE83ED83215030402536310508F008CD8D
:10331000C5010E948224E82E822D99856D8148E1A5
:1033200022EC31E000EF11E00E94F12E840C951C9C
:103330008C0C9D1CC4018A519E4F0E94C22488237C
:1033400009F057C29D80C5010E948B24882391F10A
:10335000FAEFBF2EB90CE2E0FE2E0E946837182F5C
:103360000E946837282F812F6DE00E94283B392F5B
:103370003B0D822F0E94283B492F4E5E822D99855E
:10338000632F26EB38E08901EE240E94F12EFA9497
:10339000BFEFFB1611F7EA85FB85808580FD7BC2B8
:1033A000AA85BB8512968C918F3009F4D2C38431E3
:1033B00009F41AC4892D895F6FE1472D0E945111CC
:1033C000AFCC40919A0150919B01E0919801F0910E
:1033D0009901CA018E0F9F1FAA85BB852D913C9133
:1033E000821B930B880F991F4C018294929470EF6B
:1033F0009722982487229824880E991E082C892CBD
:10340000000C881C9908000C881C991CC401879624
:103410008B37910508F009CCC7010E948B248823C3
:1034200009F4F0C2EA85FB85228121502283808144
:1034300091810296918380832C3E0CF474C3C70162
:103440000E94822460E0882309F4CFC1C7010E9452
:103450006C24AA85BB8512961C911F5DC7010E9432
:103460008224E82E822D9985682D412F25E133E0B5
:1034700089010E94F12E40919A0150919B01E091A7
:103480009801F0919901D1CB40919A0150919B0103
:10349000E0919801F0919901CA018E0F9F1FAA85B2
:1034A000BB852D913C91821B930B880F991F4C017A
:1034B0008294929410EF9122982481229824880E6D
:1034C000991E082C892C000C881C9908000C881C5B
:1034D000991CC40187968B37910508F0A6CBC701CC
:1034E0000E948B24882309F473C2EA85FB858281BC
:1034F000815082838C3E0CF40AC3AA85BB858D91D2
:103500009C91119703968D939C93C7010E948224EE
:1035100060E0882309F46BC1C7010E946C24EA852E
:10352000FB8512811E5DC7010E948224E82E822D38
:103530009985682D412F2AE033E089010E94F12E00
:1035400040919A0150919B01E0919801F09199016D
:103550006CCB40919A0150919B01E0919801F091C0
:103560009901CA018E0F9F1FAA85BB852D913C91A1
:10357000821B930B880F991F880F991F9C01220FA4
:10358000331F220F331F220F331F281B390B022E2C
:10359000232F000C221F330B000C221F331FC901E5
:1035A00087968B37910508F040CBA601417050708B
:1035B000440F551F465F7C2D7170822D9985622FB7
:1035C0002EE132E00AE712E0E72E0E94F12E409150
:1035D0009A0150919B01E0919801F091990125CBBE
:1035E00040919A0150919B01E0919801F0919901CD
:1035F000CA018E0F9F1FAA85BB852D913C91821B0E
:10360000930BBC01660F771F680F791F660F771F3A
:10361000660F771F660F771F062E672F000C661F39
:10362000770B000C661F771FCB0187968B379105B0
:1036300008F0FBCA5C2D5170452F4D5F822D998596
:103640002AE235E009E515E0E52E0E94F12E4091D1
:103650009A0150919B01E0919801F0919901E5CA7E
:10366000C5010E94C9248823A9F0AA85BB852D9194
:103670003C91119715968D919C91169728173907B3
:103680000CF0E4C02B5F3F4F2D933C93C50160E0ED
:103690000E946C24C5010E94C224882309F0E4C062
:1036A000C5010E94D624882309F403CEEA85FB8550
:1036B000808580FFFECD80819181059791838083F5
:1036C000C50161E00E946C24F4CDC7010E94C224B0
:1036D000882309F031C1EA85FB85808191812581AC
:1036E0003681821793070CF4FEC1281739070CF0B6
:1036F000D8C00197EA85FB8591838083C70161E08B
:103700000E946C24C70161E00E9496245FCB4601B1
:10371000880C991C2601440C551C440C551C440C67
:10372000551C8401040D151D0C0D1D1D0A511E4F45
:10373000C8010E948B24882309F0F4CCC80161E001
:103740000E94AC24F9CCC8010E94C224882309F449
:103750006EC00E946837853B28F0F6E0AF16B104D2
:103760000CF051C2AA85BB8519968C91813009F461
:1037700091C2822D99856A2D47E128E337E006E55D
:1037800017E0EE240E94F12EFA2C6A2D6B5F822D39
:1037900099854AE12BE233E005E313E00E94F12E24
:1037A00073CBC5010E948B24882309F4A9C0EA8544
:1037B000FB85818580FDEDC10E947C379F83188643
:1037C0002F8138852F3F310508F0D9C1EA85FB8567
:1037D00081858C3009F00ECC822D9985632D0E9455
:1037E0004613F98008CC61E055CC61E02FCE61E052
:1037F00093CE0E946837853B30F02D813E81263084
:1038000031050CF0F7C1AA85BB8519968C9180FF14
:1038100099CD9D80692D635F822D998548E12BE2CA
:1038200033E005E313E0EE240E94F12E8CCDC701B6
:103830000E948B24882341F0EA85FB85818580FDE9
:10384000F5C18C3009F401C2FA2C1ECBC50160E031
:103850000E949624C50161E00E94AC24C5010E942B
:10386000C224882309F41CCF0E946837893C08F0E1
:103870009BC10E9468378F3F09F012CFC50160E0FD
:103880000E94AC24C50160E00E949624C50161E05D
:103890000E94A12405CFEA85FB8582818F5F828308
:1038A00083CDC70160E00E949624C70161E00E94B9
:1038B000AC24EA85FB8580819181968385838ACAC1
:1038C000AA85BB8512968C918F3F59F01BE081022F
:1038D000C00111248A519E4F0E948B24882309F431
:1038E000BBC1822D9985632D0E9446136CCCC80103
:1038F00060E00E949624C80161E00E94AC24A6CA40
:10390000822D9985698144E124E334E006E814E0DE
:10391000EE240E94F12E6ECBC7010E948224E82E75
:10392000822D99856A2D47E124E737E002E917E007
:103930000E94F12EFA2CA8CA0E9468378D3D08F427
:1039400045CAC70160E00E94AC24C70161E00E9443
:1039500096240E947C3780FF5BC1EA85FB858581C8
:103960009681C297968385838081918133CA822D07
:1039700099856B814BE128E835E000EC15E0EE24F9
:103980000E94F12EC5010E94C224882309F41BCC99
:10399000EA85FB85818580FF16CC0E946837853BD0
:1039A00048F02B813C812630310524F080912E0196
:1039B0008093A201FB806F2D6B5F822D99854EE174
:1039C0002BE233E005E313E0EE240E94F12EFCCB62
:1039D000822D9985682D42E22AE033E08901EE24A8
:1039E0000E94F12EB094882D8D5F64E24B2D0E94D1
:1039F000511140919A0150919B01E0919801F091F1
:103A0000990113C9822D9985682D41E225E133E0A2
:103A10008901EE240E94F12EB094882D8D5F63E21F
:103A20004B2D0E94511150C9822D9985682D42E27B
:103A300026ED32E000EF12E0EE240E94F12EB09469
:103A4000882D8B5F66E24B2D0E94511140919A01A7
:103A500050919B01E0919801F0919901E6C8C8014D
:103A60000E94C924882309F478C0822D99856A2D83
:103A70004AE120EE36E00CE017E0EE240E94F12E41
:103A8000F8CB4601880C991C2601440C551C440CAB
:103A9000551C440C551C8401040D151D0C0D1D1DD9
:103AA0000A511E4FC8010E948B24882309F06CCA5A
:103AB000C8010E94C224882309F066CAC80161E0D7
:103AC0000E94AC2466CA822D99856A2D4AE128E8B5
:103AD00036E004EB16E0EE240E94F12EAA85BB85A9
:103AE00019968C91C3CB019691838083C70160E0C6
:103AF00007CE822D99856B814BE128EF35E0890156
:103B0000EE240E94F12EEA85FB85818559CB822D1A
:103B100099856C2D0E940815F0CC822D99856C2D0D
:103B20000E940815B0CA822D99856C2D0E94081537
:103B300086CCC7010E948224E82E822D99856A2DA9
:103B400047E120EB37E00EEC17E00E94F12EFA2C53
:103B50009BC98CE38093D9052DCC822D99856A2D44
:103B60004AE120E336E00CE516E0EE240E94F12E57
:103B700080CB822D9985632D0E9446137ACBC50197
:103B800060E00E94B72482E0AA85BB8513968C93DF
:103B90001DCE822D9985698144E128ED34E08901AB
:103BA000EE240E94F12E08CEEA85FB85008111816A
:103BB0000E946837055010406DE00E94283B090FB5
:103BC000111DAA85BB850D931C9353CEF9806F2DD3
:103BD000685F822D99854CE12BE233E005E313E029
:103BE000EE240E94F12E07CA822D9985632D0E9432
:103BF0004613E0CB80912E0123E0829FC001112467
:103C00008093A20100CE80912E018093A201AACDC3
:103C1000AA85BB8515968D919C911697C29616968E
:103C20009C938E9315978D919C91D4C8822D9985E4
:103C30006A2D47E128E238E08901EE240E94F12E46
:103C4000AA85BB8519968C91FCCD822D9985632D13
:103C50000E944613FA2C18C9EA85FB8582818102ED
:103C6000C00111248A519E4F61E00E94962439CEF2
:103C70008401040D151D0C0D1D1D0A511E4FC80198
:103C80000E94C224882309F484C9C80160E00E940C
:103C9000AC247FC9822D99856A2D47E128E337E05E
:103CA00006E517E0EE240E94F12EFA2CEDC88F9263
:103CB0009F92AF92BF92CF92DF92EF92FF920F93BB
:103CC0001F93CF93DF934C0188E08093A401209150
:103CD0009A0130919B018091980190919901280F50
:103CE000391FC901880F991F820F931F880F991FD1
:103CF000880F991F880F991F082E892F000C881F85
:103D0000990B000C881F991F68E070E00E94483BE7
:103D1000D82EA8EFAA2EA80EC82CB92CC0E0D0E04F
:103D2000F0E5FF2EF80E9E01220F220F220F6F2DBD
:103D3000621B8C2D9B2D48E128EB31E08901EE249C
:103D40000E94F12E2196CB30D10569F73FEFD316B3
:103D50000CF449C21D1454F48C2D9B2D6A2D48E19E
:103D600028EB31E08901EE240E94F12E80919A0126
:103D700090919B012091980130919901820F931F9E
:103D8000880F991F880F991F880F991F082E892F58
:103D9000000C881F990B000C881F991F65E170E0CB
:103DA0000E94483BF82E8BEEF80E8C2D9B2D6F2D2C
:103DB00047E021EA31E08901EE240E94F12EC0E0C3
:103DC000D0E099E6F90E65E1D62ECD9D802D112427
:103DD0006F2D681B8C2D9B2D47E021EA31E0890176
:103DE000EE240E94F12E2196C530D10571F7C40151
:103DF0000E94E1155091A901552309F4B0C1DD24B9
:103E000002C05091A90151508C2D9B2D6D2D40E089
:103E10002DE831E007E911E0E52E0E94F12EFD2C9E
:103E2000F394E090A901EA948C2D9B2D6F2D48E02E
:103E30002DE831E00E94F12EE090A901EA948C2D4A
:103E40009B2D6D2D40E12DE831E00E94F12E6D2D6E
:103E50006E5FE090A901EA948C2D9B2D48E12DE83E
:103E600031E00E94F12EE090A901EA948C2D9B2D67
:103E70006D2D40E22DE831E00E94F12EE090A90185
:103E8000EA948C2D9B2D6F2D48E22DE831E00E94A5
:103E9000F12EE8E0DE0EF8E5DF1609F0B2CF2EEBEA
:103EA00030E0820E931EF401808191818F709070BA
:103EB000892B09F088C15091A9015F5F5093A90136
:103EC000533009F485C18091E6079091E707A091EE
:103ED000E807B091E9078134FCE99F07F4E1AF07F7
:103EE000F0E0BF0728F48058944CA640B04010F092
:103EF0001092A90180919A0190919B0120919801C3
:103F000030919901820F931F00249695879507940D
:103F1000969587950794982F802D082E892F000C51
:103F2000881F990B000C881F991F65E170E00E94A3
:103F3000483BF82E2BEEF20E8C2D9B2D6F2D45E27B
:103F400021E631E08901EE240E94F12E8C2D9B2D7B
:103F50006FE240E050E023E530E001E00E94962768
:103F6000C0E0D0E039E6F30E35E1D32ECD9D802DB3
:103F700011246F2D681B8C2D9B2D45E221E631E02D
:103F80008901EE240E94F12E2196C530D10571F7EA
:103F90008091A101882309F4FFC0809129019091AB
:103FA0002A01009709F4F8C0019790932A018093A1
:103FB00029018091A401883009F45FC14091A501D5
:103FC00047FD1AC1442309F490C0842F992787FD27
:103FD00090950197FC01EE0FFF1F9C01220F331FEC
:103FE000220F331F220F331FE20FF31FE80FF91FB9
:103FF000EA51FE4F848181508483882309F075C083
:104000008581863009F43FC180919C0190919D018A
:10401000A0919E01B0919F014896A11DB11D809372
:104020009C0190939D01A0939E01B0939F018150AC
:104030009840A040B04060F080E098E0A0E0B0E0A0
:1040400080939C0190939D01A0939E01B0939F014A
:10405000242F332727FD309521503040C901880F88
:10406000991FA901440F551F440F551F440F551F99
:10407000840F951F820F931F8A519E4F61E00E940B
:10408000B7242091A501332727FD309521503040DA
:10409000C901880F991FA901440F551F440F551FCF
:1040A000440F551F840F951F820F931F8A519E4FF7
:1040B00060E00E9496242091A501332727FD3095CA
:1040C00021503040C901880F991FA901440F551F85
:1040D000440F551F440F551F840F951F820F931FC8
:1040E0008A519E4F60E00E94AC2460912C01655083
:1040F00040912D0144508C2D9B2D26EB38E08901F9
:10410000EE240E94F12E8C2D9B2D62E242E228E9E2
:1041100038E08901EE240E94F12E20912C0130E03C
:104120002150304000912D018C2D9B2D68E270E0D4
:1041300044E250E010E0E2E0EE2E0E94982A209146
:104140002C0100912D018C2D9B2D69E270E044E241
:1041500050E030E0EE24E3940E94982A27C080913A
:10416000E6079091E707A091E807B091E90781344D
:104170003CE9930734E1A30730E0B30708F0B8CE79
:104180008134EAE39E07EDE0AE07E0E0BE0720F1F0
:1041900081E08093A901AECE8C2D9B2D62E242E29C
:1041A0002AE738E08901EE240E94F12EDF91CF91B9
:1041B0001F910F91FF90EF90DF90CF90BF90AF9045
:1041C0009F908F9008955091A901533009F07BCEB4
:1041D00081E08093A90177CE8058944CA640B040EE
:1041E00008F088CED5CF6D2D685A8C2D9B2D48E1D7
:1041F00098010E94F12EAECD842F992787FD9095CE
:1042000080959095FC01EE0FFF1FE80FF91FEE0F50
:10421000FF1FE655FE4F848181508483882309F077
:1042200064CFCF0161E00E9477248091A501A82F7F
:10423000BB27A7FDB095A095B0959D01220F331F18
:10424000F901EA0FFB1FEE0FFF1FE655FE4F8581B8
:10425000843009F1853009F444C0863009F44DC03A
:10426000813009F042CFA20FB31FAA0FBB1FA65582
:10427000BE4F88E113968C9338CF89E261E240E02B
:104280000E94511140CFCF010E94C9248823F9F424
:104290004091A501B9CE60912E0184EC90E070E0D0
:1042A0000E94483B8091290190912A01680F791F53
:1042B00070932A01609329016150744008F415CF6E
:1042C00080E094E090932A01809329010ECF8091A1
:1042D000A001882319F081508093A0014091A5018D
:1042E000B7CE8091A3018F5F8093A301843008F43F
:1042F000FCCE83E08093A301F8CE60912E0180E094
:1043000091E070E00E94483B882777FD8095982FC8
:1043100020919C0130919D0140919E0150919F01FF
:10432000620F731F841F951F60939C0170939D0102
:1043300080939E0190939F0161507840804090400F
:1043400008F4D3CE80E098E0A0E0B0E080939C0138
:1043500090939D01A0939E01B0939F01C6CEAF9212
:10436000BF92CF92DF92EF92FF920F931F93CF9362
:10437000DF93EC010E9402340EEBC02ED12CCC0E48
:10438000DD1EF601808191810196918380831091D9
:104390002B01113009F49CC080FD46C01430E1F1BE
:1043A00087709070892B49F48091980190919901C0
:1043B00002969093990180939801CE0160E00E944B
:1043C000392CCE0160E040E023E50EE0EE24EA94D3
:1043D00012E0C12E0E94882BCE0160E04EE023E562
:1043E00007E1CC24C3940E94882BCE010E94571E63
:1043F0002091A2012223A1F5CE010E94CF1190911C
:104400002B01923009F4ACC01092A1018091A60159
:10441000823011F01092A6010E940431882391F499
:1044200080912B018430B9F1CE010E94C52CDF911F
:10443000CF911F910F91FF90EF90DF90CF90BF90A1
:10444000AF90089580912B01823061F784E08093D2
:104450002B016CE271E080E090E00E947939E0CFBE
:1044600080919C0190919D01A0919E01B0919F012E
:104470008B309105A105B10508F4BECF821B9109CF
:10448000A109B10980939C0190939D01A0939E0185
:10449000B0939F01B1CFCE016FE170E044E150E0F5
:1044A0000E94BD34CE016CE371E00E9418380E9476
:1044B0002831882309F47CC10E9401318F5F0E945A
:1044C000AE3162E370E080E090E00E947939ACCFD9
:1044D0001092A601FC2EBD2ECE0160E00E94392C68
:1044E000CE54DF4F19931882C35BD040CE016CE0ED
:1044F00070E044E150E00E94BD34CE016DE471E013
:104500000E941838CE016CE070E04BE150E00E9450
:10451000BD34CE0162E471E00E941838F60180815A
:1045200086FF33C1CE0162E34AE020EE36E00CE0C4
:1045300017E0EE240E94F12E0E941631882341F0EC
:10454000F601808191818F3F910511F008F047C1FC
:10455000CE010E94B1158F2D9B2D0E94C52C67CFD7
:104560008091D905882309F41BC19093A6010E946C
:104570000D31882309F4C7C08091A301882309F471
:10458000C2C080915402882309F0BDC010E00FE240
:10459000CE01612F44E2202F0E940F131F5F0750AE
:1045A0001530B1F782E08093A6018091A30181507C
:1045B0008093A3018091A50118160CF04DC0992796
:1045C00087FD90950197FC01EE0FFF1F9C01220FC4
:1045D000331F220F331F220F331FE20FF31FE80F89
:1045E000F91FEA51FE4F1482CF0161E00E94B72407
:1045F0002091A501332727FD309521503040C90176
:10460000880F991FA901440F551F440F551F440FD0
:10461000551F840F951F820F931F8A519E4F60E094
:104620000E9496242091A501332727FD3095215023
:104630003040C901880F991FA901440F551F440F2D
:10464000551F440F551F840F951F820F931F8A51CA
:104650009E4F60E00E94AC2447EEC42E41E0D42E71
:10466000EE24FF2410C084508383882339F10894FA
:10467000E11CF11C8BE090E0C80ED91E9AE0E9160F
:10468000F10409F440C020919A0130919B0180917E
:10469000980190919901280F391FF60140815181AD
:1046A000C90183569040481759070CF34217530726
:1046B000F4F683818430BCF6F6011382F60184811E
:1046C000863009F4C7C05701AA0CBB1C8701000F34
:1046D000111F000F111F000F111F0A0D1B1D0E0DC2
:1046E0001F1D0A511E4FC80160E00E949624C80198
:1046F00060E00E94AC24C80161E00E94B72481E020
:10470000F6018187B4CF0E943A31882369F0809105
:104710009A0190919B01029690939B0180939A013C
:10472000815D92400CF066C00E943131882369F0AF
:1047300080919A0190919B01049790939B018093A3
:104740009A018C549F4F0CF44EC00E94163188235E
:1047500009F45ACE80912B01823009F055CE809118
:10476000290190912A01892B39F08091A60182308C
:1047700019F081E08093A60190E08091A101882347
:1047800009F491E09093A10147CECE0162E34AE0A3
:1047900020E336E00CE516E0EE240E94F12ECCCEAC
:1047A0008091A601823009F0E2CE1092A601DFCE00
:1047B0000E941F31882329F50E943A31882369F12C
:1047C000CE010E949426682F6150CE010E9481265E
:1047D00062E370E080E090E00E94793925CE82E0CB
:1047E00080932B01B5CE8CE49FEF90939B01809337
:1047F0009A01ABCF80ED92E090939B0180939A0158
:1048000093CF0E94013181500E94AE3162E370E08B
:1048100080E090E00E94793907CE0E9431318823F0
:1048200031F0CE010E949426682F6F5FCECF0E9498
:104830001631882371F50E940431882309F4F4CDE0
:1048400082E080932B016CE271E080E090E00E94B6
:104850007939EACD5701AA0CBB1C8701000F111F43
:10486000000F111F000F111FC501800F911F8E0D2A
:104870009F1D8A519E4F0E94C924882309F42DCF81
:104880008091A001882309F428CF81508093A00152
:1048900024CF0E940D31882371F282E191E0EEEF86
:1048A000FFE30995C1CDFC011082128211821382AF
:1048B00015820895FC0110821282118213821582E2
:1048C0000895FC01662321F480818E7F8083089502
:1048D0008081816080830895FC01662321F48081BA
:1048E0008B7F808308958081846080830895FC019C
:1048F000662321F48081877F80830895808188608A
:1049000080830895FC01808190E096958795969527
:10491000879581700895FC01808190E09695879538
:10492000969587959695879581700895FC016623E5
:1049300021F480818F7D80830895808180628083CF
:104940000895FC01662321F480818F7E8083089581
:104950008081806180830895FC01662321F4808139
:104960008D7F808308958081826080830895FC011B
:10497000662321F48081877F808308958081886009
:1049800080830895FC01808190E0969587958170E1
:104990000895FC01808190E0969587959295829587
:1049A0008F7089279F70892781700895FC0180810D
:1049B00090E0929582958F7089279F7089278170EA
:1049C00008951F93CF93DF93EC018881282F30E067
:1049D000C90180739070892BA9F0ED81F0E0ED5A48
:1049E000FE4FE4914E2F50E01E2F2A85822F90E03B
:1049F00001968417950774F42F5F2A87DF91CF9172
:104A00001F91089521FD10C0CE010E948B248823A0
:104A1000D1F411E0CE010E948B24882371F01A8713
:104A2000DF91CF911F910895ED81F0E0E75AFE4F9D
:104A3000E4914E2F50E01E2FD8CF81E08A87DF917E
:104A4000CF911F9108951CE04CE050E0CECF0F9322
:104A50001F938C010E945324F801118681E0828704
:104A60001F910F910895FC01108211821282089506
:104A7000109266021092650283E491E090936402C2
:104A80008093630210922403109223038BE391E03E
:104A90009093220380932103089581E293E00E9482
:104AA000AF210895CF92EF92FF920F931F9381E26F
:104AB00093E061EE73E00E94F92C81E293E060E004
:104AC0000E947A2681E08093D4031092D30335E0CC
:104AD000F32E81E293E062E00E94392C81E293E0C0
:104AE0006FE047E025E408E2EE24EA94CC24C39486
:104AF0000E94882B81E293E060E04EE024E501E132
:104B0000EE24E3940E94882B81E293E06DEF44E071
:104B100029E535E08901EE240E94F12E81E293E03F
:104B200068E04FEF98010E94F12E81E293E06CE380
:104B300041E098010E94F12E81E293E06BE444E0B1
:104B400098010E94F12E81E293E061E444E126E8BD
:104B500034E089010E94F12E81E293E061E048E1B6
:104B600020EC35E089010E94F12E83E0F81609F46B
:104B70004CC08F1570F082E0F81609F473C081E222
:104B800093E068EB7BE00E94DE2CFA9409F0A1CF61
:104B9000A7C084E0F81609F185E0F81681F781E2F4
:104BA00093E067E14AE02EE304E2EE24EA94CC24A9
:104BB0000E94882B81E293E067E14AE027E939E02F
:104BC0008901EE240E94F12E24E0F22E81E293E08E
:104BD00068EB7BE00E94DE2C7CCF81E293E065E114
:104BE0004CE02FE302E2EE24EA94CC240E94882BCE
:104BF00081E293E065E14CE027E139E08901EE24B0
:104C00000E94F12E93E0F92EE1CF81E293E066E17C
:104C100070E04AE050E00E94BD3481E293E065E834
:104C20007AE00E94183881E293E061E170E046E1A9
:104C300050E00E94BD3481E293E066E77AE00E9492
:104C4000183881E293E063E170E04FE150E00E94A8
:104C5000BD3481E293E069E67AE00E94183882E090
:104C6000F82EB4CF81E293E063E170E049E050E0D8
:104C70000E94BD3481E293E06AE57AE00E94183830
:104C800081E293E066E170E040E150E00E94BD34D3
:104C900081E293E06EE47AE00E94183881E293E0CA
:104CA00063E170E047E150E00E94BD3481E293E0AF
:104CB00060E47AE00E94183881E293E06BE170E0F2
:104CC00042E250E00E94BD3481E293E065E37AE085
:104CD0000E94183881E293E068EB7BE00E94DE2CB2
:104CE00081E293E00E94B1151F910F91FF90EF9028
:104CF000CF900895FC01E454FF4F6083609331012D
:104D00000895FC0167FD09C064300CF063E0E354D2
:104D1000FF4F608360933201089560E0E354FF4FDA
:104D20006083609332010895FC01E354FF4F80815A
:104D30000895FC01643558F5403348F5213041F1C0
:104D4000242F30E0A90155954795559547955595E0
:104D5000479584E590E0DC014A9FC0014B9F900D90
:104D60005A9F900D1124860F911D0480F581E02D2E
:104D7000E80FF91F2770307080E890E002C0959529
:104D800087952A95E2F7809520812823208308952E
:104D9000242F30E0A9015595479555954795559590
:104DA000479584E590E0DC014A9FC0014B9F900D40
:104DB0005A9F900D1124860F911D0480F581E02DDE
:104DC000E80FF91F2770307080E890E002C09595D9
:104DD00087952A95E2F72081282B20830895FC01EE
:104DE000213009F456C0223041F1242F30E0A901CE
:104DF00055954795559547955595479584E590E088
:104E0000DC014A9FC0014B9F900D5A9F900D1124C9
:104E1000860F911D0480F581E02DE80FF91F2770A2
:104E2000307080E890E002C0959587952A95E2F76A
:104E30008095208128232083089570E050E0CA01E6
:104E4000860F971F80FF4CC09A01359527953595A1
:104E500027953595279584E590E0DC012A9FC001D0
:104E60002B9F900D3A9F900D1124860F971F048061
:104E7000F581E02DE80FF91F4770507080E890E051
:104E800002C0959587954A95E2F72081282B2083CB
:104E90000895242F30E0A9015595479555954795DC
:104EA0005595479584E590E0DC014A9FC0014B9FF2
:104EB000900D5A9F900D1124860F911D0480F5814D
:104EC000E02DE80FF91F2770307080E890E002C0F5
:104ED000959587952A95E2F72081282B20830895C0
:104EE0009A0135952795359527953595279584E52C
:104EF00090E0DC012A9FC0012B9F900D3A9F900DFE
:104F00001124860F971F0480F581E02DE80FF91F0B
:104F10004770507080E890E002C0959587954A955B
:104F2000E2F7809520812823208308950F931F9313
:104F3000CF93DF93EC01762F241735070CF445C08F
:104F4000F9014E175F0709F447C0672F772767FD00
:104F500070959B012770307080E890E002C09595B5
:104F600087952A95E2F7182F9B013595279535955A
:104F700027953595279584E590E0DC012A9FC001AF
:104F80002B9F900D3A9F900D1124480F591FDF0160
:104F9000A80FB91F013009F455C0002341F5A4172B
:104FA000B50774F0912F9095EC81FD81E40FF51F0A
:104FB0008081892380834F5F5F4FA417B507A4F7D3
:104FC000DF91CF911F910F910895E42FF0E0A90197
:104FD0004E175F0709F0B9CFCE01642F472F202F5E
:104FE0000E94EF26DF91CF911F910F910895053018
:104FF000F1F1023029F7A417B50714F3640F751FF8
:105000009A012F5F3F4F012F009511C0EC81FD8168
:10501000E40FF51F8081812B8083C9016F5F7F4F73
:105020002F5F3F4F4F5F5F4FA817B9074CF260FDEE
:10503000EDCFEC81FD81E40FF51F8081802380831B
:10504000C901ECCFA417B5070CF4BACFEC81FD81F0
:10505000E40FF51F8081812B80834F5F5F4FA41782
:10506000B507A4F7DF91CF911F910F910895A41771
:10507000B5070CF4A5CFEC81FD81E40FF51F80810D
:10508000812780834F5F5F4FA417B507A4F798CFA0
:10509000AF92BF92CF92DF92EF92FF920F931F9346
:1050A000CF93DF937B015A01E9016801E881F9811F
:1050B000DB018D919C91E817F9070CF47DC0FC0190
:1050C000E435F1050CF06CC0F7FD82C00881198150
:1050D000043511053CF1D601ED91FC91D5012C91DF
:1050E000D7018D919C91B801681B790B80E09E2FB0
:1050F000921B0E94483B23E530E0C901801B910BC5
:10510000AC01649FC001659F900D749F900D1124A8
:10511000892F990F990B8E0F9F1FD6018D939C930A
:1051200039832883D601ED91FC91D5018D919C9115
:10513000E817F9070CF445C0FC01E033F10584F5EC
:10514000F7FD6DC0D6010D911C910033110534F1AE
:10515000E881F981D7012C91D5018D919C91B801FD
:10516000681B790B80E09E2F921B0E94483B2FE228
:1051700030E0C901801B910BAC01649FC001659FA9
:10518000900D749F900D1124892F990F990B8E0FFC
:105190009F1F99838883D6012D933C9381E001C0A2
:1051A00080E0DF91CF911F910F91FF90EF90DF9002
:1051B000CF90BF90AF900895EB0179016A0158013B
:1051C0007FCFCE01E7017C01C60165015C01B5CF4F
:1051D0006881798177FDE4CFD5012D913C91D6018D
:1051E0009C916E1B7F0B80E0921B0E94483B88279E
:1051F00099278E1B9F0BFC016E9FC0016F9F900D26
:105200007E9F900D1124892F990F990B820F931F68
:10521000D5018D939C93F7011182108257CFD6014F
:105220006D917C9177FDBCCFD7012D913C919881F8
:105230006E1B7F0B80E0921B0E94483B88279927BA
:105240008E1B9F0BFC016E9FC0016F9F900D7E9F78
:10525000900D1124892F990F990B820F931FD7015D
:105260008D939C93F501118210826CCFAF92BF9207
:10527000CF92DF92EF92FF920F931F93CF93DF9322
:105280007C01C62EEA01D02E241735070CF48BC002
:105290008901C017D10709F47BC043E0D41609F493
:1052A00007C14D150CF083C084E0D81609F48CC0FA
:1052B000A6E0DA1609F4F4C06C2D772767FD709527
:1052C000BB24CE01877090702FEF30E0A90102C09F
:1052D000559547958A95E2F7C42EC801809590951B
:1052E0008770907002C0220F331F8A95E2F7A22EBA
:1052F000D595C795D595C795D595C79584E590E083
:10530000C89FD001C99FB00DD89FB00D1124A60F22
:10531000B71F159507951595079515950795089F3E
:10532000A001099F500D189F500D1124460F571FC3
:10533000A417B50709F4C5C081E0D81609F48BC0DD
:10534000DD2009F04AC0E701EC81FD81EA0FFB1F77
:10535000C09480818C218083CD018C5A9F4F84170B
:1053600095076CF4D7011496ED91FC911597E80F11
:10537000F91F10828C5A9F4F841795079CF3E70101
:10538000EC81FD81E40FF51FA09480818A21808348
:10539000DF91CF911F910F91FF90EF90DF90CF9011
:1053A000BF90AF900895042F10E0E90172CF52E052
:1053B000D51609F081CF6C2D772767FD709560FDBC
:1053C000B1C08AEAB82E7DCF6C2D772767FD709526
:1053D00060FDABC0EDEDBE2E74CF85E0D81609F4AC
:1053E00078C0BB20A9F2E701EC81FD81EA0FFB1F29
:1053F0009C2D9095808189238083EC81FD81EA0F2B
:10540000FB1FCB2080818C298083CD018C5A9F4F3C
:10541000841795076CF4D7011496ED91FC911597BC
:10542000E80FF91FB0828C5A9F4F841795079CF3A1
:10543000E701EC81FD81E40FF51F9A2D90958081A5
:1054400089238083EC81FD81E40FF51FAB208081EF
:105450008A2980839DCFE701EC81FD81EA0FFB1F44
:1054600080818C298083CD018C5A9F4F84179507AA
:1054700074F42FEFD7011496ED91FC911597E80F76
:10548000F91F20838C5A9F4F841795079CF3E701DF
:10549000EC81FD81E40FF51F80818A29808378CF1C
:1054A0000E946837B82E6C2D772767FD709509CF5D
:1054B0006C2D772767FD709560FD31C0A8E8BA2E86
:1054C00000CF222309F438CFCA2009F435CFAC2C01
:1054D00033CFE701EC81FD81EA0FFB1F80818C2532
:1054E00080839D012C5A3F4F241735077CF4D70148
:1054F0001496ED91FC911597E20FF31F8081809532
:1055000080832C5A3F4F241735078CF3E701EC8139
:10551000FD81E40FF51F80818A25808339CFF2E277
:10552000BF2ECFCEB5E5BB2ECCCE57E7B52EC9CE1C
:105530002F923F924F925F926F927F928F929F92A3
:10554000AF92BF92CF92DF92EF92FF920F931F9391
:10555000DF93CF93CDB7DEB72E970FB6F894DEBFAB
:105560000FBECDBF9D878C877A8369835C834B8315
:105570003E832D8318870F83EE86643520F48B815C
:10558000803308F494C08C859D85BE016F5F7F4F8A
:10559000AE014D5F5F4F9E012B5F3F4F8E01095F54
:1055A0001F4F0E944828882309F468C0A980BA8048
:1055B0002D813E81A216B30609F497C0CB80DC8012
:1055C0008F819885C816D90609F49AC02A153B051B
:1055D0000CF079C04501821A930A7FEF8C159D0566
:1055E0000CF079C0A601481B590B6FEF8416950685
:1055F0000CF079C0CA01A4014C0181E0898797FCB5
:105600003DC02A01440C551C820108191909C40126
:10561000880F991F9B878A87EE24FF24262E332428
:1056200027FC3094672E772467FC70940AC0A60C80
:10563000B71C0894E11CF11C8E149F04FCF0040DAF
:10564000151D8C859D856A2D4C2D2E850E94EF267B
:1056500017FD09C09985913099F1C20CD31C8A8538
:105660009B85081B190B9985913009F7C20CD31C37
:105670000894E11CF11C8E149F040CF72E960FB6B3
:10568000F894DEBF0FBECDBFCF91DF911F910F9178
:10569000FF90EF90DF90CF90BF90AF909F908F9052
:1056A0007F906F905F904F903F902F9008958D81E5
:1056B000843508F068CF8F81803308F477CF63CFCB
:1056C000A60CB71CCCCF49018A189B0871E08C1539
:1056D0009D050CF487CFAC014C195D0961E084167F
:1056E00095060CF487CF19868ACF4B815C812F8178
:1056F00038858C859D856A2D0E850E943629BECF02
:105700008C859D856C2DA5010E850E949627B6CFB0
:105710002F923F924F925F926F927F928F929F92C1
:10572000AF92BF92CF92DF92EF92FF920F931F93AF
:10573000CF93DF932C01A42E202E3E2C8C2C67FDC2
:1057400096C027FD92C0B62E83E5861714F453E564
:10575000B52E622E83E5821714F443E5642E8FEF95
:10576000881611F1B6140CF05FC01B2DC62CDD2479
:10577000C7FCD0948B2D90E08C159D05ACF4EA2CE1
:10578000FF24E7FCF094C22DDD27C7FDD095C201B0
:10579000612FA7019E01082D0E9436291F5F812FCE
:1057A00090E08C159D059CF38FEF381651F18B2CF2
:1057B000992487FC9094772467FC7094CA2CDD248C
:1057C000C7FCD094C201B401A60193018601E32C69
:1057D0000E94982AA22CBB24A7FCB094C201B40159
:1057E000A601940185010E94982AC201B301A60175
:1057F00093010E94982AC201B401A50193010E945D
:10580000982ADF91CF911F910F91FF90EF90DF9039
:10581000CF90BF90AF909F908F907F906F905F9050
:105820004F903F902F900895162DCB2CDD24C7FC70
:10583000D094862D90E08C159D050CF0B5CFEA2C08
:10584000FF24E7FCF094C22DDD27C7FDD095C201EF
:10585000612FA7019E01082D0E9436291F5F812F0D
:1058600090E08C159D059CF39FCF20E06CCF60E00D
:1058700068CF0F931F93CF93DF93EC01623009F44D
:1058800049C06330B8F0643009F46DC0643060F52D
:1058900010E0CE01612F40E050E02FE230E003E065
:1058A0000E9436291F5F1435A1F7DF91CF911F9118
:1058B0000F910895662389F480E090E0EC81FD81EA
:1058C000E80FF91F1082019641E0883F9407B1F775
:1058D000DF91CF911F910F910895613091F1DF9188
:1058E000CF911F910F9108956530C9F720E030E006
:1058F000EC81FD81E20FF31F8081809580832F5F13
:105900003F4F81E0283F380799F7DF91CF911F91F2
:105910000F91089580E090E03AEA25E50AC0EC8115
:10592000FD81E80FF91F2083019641E0883F94072D
:10593000B1F280FDF4CFEC81FD81E80FF91F3083D7
:10594000F3CF80E090E02FEFEC81FD81E80FF91FAD
:105950002083019631E0883F9307B1F7DF91CF9123
:105960001F910F91089510E0CE01612F40E050E0AB
:105970002FE230E004E00E9436291F5F1435A1F7C2
:10598000DF91CF911F910F910895CF93DF93EC0199
:1059900080913101882331F0815080933101DF9172
:1059A000CF9108958C819D810E94DC32C454DF4FD9
:1059B000888180933101DF91CF9108950F931F93D8
:1059C000CF93DF938C01EB010E940234C8010E9447
:1059D000C52C219729F4DF91CF911F910F91089544
:1059E0000E941631882381F3DF91CF911F910F918F
:1059F0000895EF92FF920F931F938C017B010E94F9
:105A00004A320E94283380E00E9432320E9456318E
:105A10001092D905F801F582E48200551F4FF80174
:105A200011821082129212928F010C5F1F4F91E02F
:105A3000F80191938F018FEF80830E5F1F4FF80164
:105A4000108212928F010C5F1F4FF801119283E5B3
:105A50008193119280E381938FE0819390831F91D2
:105A60000F91FF90EF9008952F923F924F925F9287
:105A70006F927F928F929F92AF92BF92CF92DF925E
:105A8000EF92FF920F931F93DF93CF93CDB7DEB7C3
:105A900028970FB6F894DEBF0FBECDBF5C01F901A9
:105AA00064350CF0E3C07491572F262E332427FC65
:105AB0003094E72EFF24E7FCF0946701C20CD31C5E
:105AC0001C141D040CF0D2C0319694903F01089430
:105AD000611C711C0E5F1F4F47FD55C1A42FBB27D2
