:100000000C94E2030C940A040C940A040C940A0461
:100010000C940A040C940A040C940A040C940A0428
:100020000C940A040C940A040C940A040C942F23D4
:100030000C940A040C940A040C940A040C940A0408
:100040000C94A6230C940A040C940A040C940A043D
:100050000C940A040C940A040C940A040C940A04E8
:100060000C940A040C940A0407634236B79BD8A781
:100070001A39685618AEBAAB558C1D3CB7CC5763CD
:10008000BD6DEDFD753EF6177231BF000000803F7B
:1000900008000000BE922449123EABAAAA2ABECD97
:1000A000CCCC4C3E00000080BEABAAAAAA3E000009
:1000B0000000BF000000803F000000000008417801
:1000C000D3BB4387D1133D190E3CC3BD4282AD2B38
:1000D0003E68EC8276BED98FE1A93E4C80EFFFBE30
:1000E00001C4FF7F3F0000000000401E0000000030
:1000F0000000000000000000000000000000078772
:10010000E000000000000E4737E0000000001F671D
:1001100037EE600000001FE737EE6FFE01F81FE7C3
:10012000E18F6FFE06061FE7018F600009F90FC718
:10013000018F600017FE878707EEE000160E80072C
:1001400007EEE0002E07400007EE60002FE74007B3
:10015000E00E60002E07400733C007002E0740075F
:10016000376E07002FE74007376E07002E0740075E
:10017000E7EE07001E0E8007376E07001FFE8007A0
:10018000376E07000FFD0007376E070007FE0007F8
:10019000E76E070001F80000076E07F80000000096
:1001A000000FF00000000000000000000000000050
:1001B0000000000000018000000000000001E000DD
:1001C000000000000001F8000000000000007E00B8
:1001D00000000000000007C0000000005830FFFFD2
:1001E000FFFFFFFFFFFFFFF8000008000000000016
:1001F0007FFEDA40FFD0000000700000FE0AA0FF82
:10020000A0000000F800000EF920FF41FFF0016C93
:10021000000001F800FE82000001043F8000790028
:10022000FD040000017C0FFF003A80FA0800000086
:10023000F8007FF03A80F410FFFC00700000FC181A
:1002400000E821FFFE000000000E1900D001F000C0
:1002500000000000061A80A001C000000000000697
:1002600019004000000000000000030800800001A9
:10027000F000000000030B80000000000000000000
:100280000308800001F0000070001C0108800000DD
:10029000000000F8003E010800000001F001140019
:1002A00055000B800000000001540055000A80003A
:1002B00001F00001440041000A000000000000F8C5
:1002C000003E000800000001F00070001C000A2041
:1002D00000000000000000000008000001F0000025
:1002E00000000000080000000000000000000008FE
:1002F00000000001F0000000000008000000000005
:10030000000000000008000001F0000000000000F4
:1003100008000000000000700000000800800001DC
:10032000F000F8000000080040000000016C000030
:10033000000800A001C0000104003E180800D00120
:10034000F000017C01D50C0800E821FFFE00F80F49
:10035000D50C0800F410FFFC007007C10E0800FA6D
:10036000080000000003FF0E0800FD04000000006C
:1003700000000E1800FE820000000020000E180091
:10038000FF41FFF0000030001C1800FFA00000003B
:10039000003C00F81800FFD0000000003FFFF038DC
:1003A000000008000000003FFF003800FFFFFFFFD3
:1003B000FFFFFF80007800FFF80000000000000150
:1003C000F800FFF80000000000000FF800FFF80040
:1003D0000000000000FFF800FFF800000000007FB0
:1003E000FFF800FFFFFFFFFFFFFFFFFFF800080718
:1003F00040F038381E0E0308096060E0E0E0C0C03D
:10040000808010040040AAC05540004008040858ED
:10041000A808080460F0D0600803F888F808039082
:10042000F8800803E8A8B80803A8A8F8080338204B
:10043000F80803B8A8E80803F8A8E808030808F8CB
:100440000803F8A8F808033828F803053F213F12ED
:1004500008120A100A0E1C0E0C1E0C141A14161F79
:10046000161E131E1E1B1E1E1F1E3F213F3A2F3A33
:10047000173D173F213F181F02040A041F0E0404F2
:100480000E1F0A1F0A0E0E1F04110E2E252E2F2AD4
:100490002E262929021F02081F08150E04040E1516
:1004A0000E15151B151B040604040C0400000000A7
:1004B00017000300031F0A1F16371A1904130A1521
:1004C0003A000300000E11110E000A040A040E0483
:1004D0000030000404040010001804031F111F1250
:1004E0001F101D151711151F07041F17151D1F15A8
:1004F0001D01011F1F151F17151F000A00003200E4
:10050000040A110A0A0A110A040115020E11171E23
:10051000051E1F150A0E110A1F110E1F15111F05AA
:10052000010E111D1F041F111F1108100F1F041BA6
:100530001F10101F061F1E040F0E110E1F09060E9E
:10054000112E1F051A121509011F011F101F0F1868
:100550000F1F0C1F1B041B031C03191513001F1175
:10056000030418111F000201022020200001020CC8
:10057000121E1F120C0C12120C121F0C1A14041E45
:1005800005242A1E1F021C141D1020201D1F0814E4
:10059000111F101E041E1E021C0C120C3E0A040C1D
:1005A000123E1E040214160A020F120E101E0E1026
:1005B0000E1E081E120C1226281E322A26041E2188
:1005C000001F00211E040102013F213F0A4E6F203F
:1005D00053442063617264206F720A6E6F204C4F27
:1005E000414445522E4845580A0A153A45786974DF
:1005F000001D20466C617368696E670A20206C6F6D
:10060000616465722E2E2E0A0A444F4E27542054E0
:1006100055524E204F464621000A0A153A49676E48
:100620006F7265006D560A0A504C4541534520547F
:1006300055524E204F464620004C4F5720424154C1
:100640005445525921200017736176650016626186
:10065000636B001574797065000A0A0A153A6F6BAE
:10066000617920163A6564697400596F7520656E6A
:1006700074657265640A00540A03E181867F3E183E
:100680006D830F0F0E0183866033186DC3198F18A9
:1006900003C38E6033186DE330CF1803C39E6036FA
:1006A00030CDE360CF3006C79E7E3E30CDB360CF05
:1006B000300CC6F6603330D9B660CF33CFCCF6609D
:1006C00061B0DB1E60CF30D86CE6C061B0DB1E616C
:1006D0008F19986CC6C063B19B0E330F0FB078C6EC
:1006E000FF7E1F1B061E0F175344001613780016BB
:1006F00013140015102000152010000000050089BB
:10070000300802380249786814000045006801008A
:10071000000500680138010000050038016801008B
:1007200000F6E8DBCFC3B8AEA49B928A827B746EDE
:1007300068625C57524E4945413E3A3734312E2C5F
:1007400029272523211F1D1C1A19171615141312EA
:1007500011100F0E0D0C0B0A09080706600764073D
:100760000101F7030101FF0300000000240027003E
:100770002A0000000000250028002B0000000000D7
:1007800023002600290004040404040404040202D3
:100790000202020203030303030301020408102000
:1007A000408001020408102001020408102000000B
:1007B0000007000201000003040600000000000022
:1007C0000000020611241FBECFEFD8E0DEBFCDBF70
:1007D00014E0A0E0B1E0E0ECF9E502C005900D9274
:1007E000A435B107D9F717E0A4E5B4E001C01D9224
:1007F000A432B107E1F717E0C4ECD7E004C02297B8
:10080000FE010E94422CC23CD107C9F70E94D425A8
:100810000C94DE2C0C940000EF92FF920F931F9328
:1008200010926C0482E080931F0180E090E0A0E2CF
:10083000B2E48093E1049093E204A093E304B093C4
:10084000E40480E090E0ACE2B2E48093E5049093AD
:10085000E604A093E704B093E8040F2EF0E0EF2E37
:10086000F0E0FF2EF0E00F2FF1E41F2FF02DE092CB
:10087000F504F092F6040093F7041093F80480E076
:1008800090E0A0E0B2E48093F9049093FA04A0937E
:10089000FB04B093FC0420E030E040EC50E42093F3
:1008A000FD043093FE044093FF045093000580E064
:1008B00090E0A8EBB1E48093010590930205A0932A
:1008C0000305B0930405E0920505F0920605009338
:1008D00007051093080580E090E0A0E2B1E4809362
:1008E000090590930A05A0930B05B0930C0520937E
:1008F0000D0530930E0540930F055093100580E0D1
:1009000090E0A8E9B1E48093110590931205A093BB
:100910001305B09314051F910F91FF90EF90089568
:100920002F923F924F925F926F927F928F929F92FF
:10093000AF92BF92CF92DF92EF92FF920F931F93ED
:10094000DF93CF93CDB7DEB7A0970FB6F894DEBF95
:100950000FBECDBFA986BA86CB86DC86ED86FE8625
:100960000F87188B298B3A8B4B8B5C8B6D8B7E8B17
:100970008F8B988F89859A85AB85BC858D8F9E8F4F
:10098000AF8FB8A38D859E85AF85B889898F9A8FE3
:10099000AB8FBC8F69897A898B899C892D8D3E8D1F
:1009A0004F8D58A10E94E8273B014C016D897E893B
:1009B0008F89988D298D3A8D4B8D5C8D0E94E8270B
:1009C0005B016C016DA97EA98FA998AD20E030E094
:1009D00040E050E40E94E9272D8D3E8D4F8D58A1B7
:1009E0000E94E8279B01AC01C401B3010E94A02929
:1009F0007B018C0169AD7AAD8BAD9CAD20E030E020
:100A000040E050E40E94E927298D3A8D4B8D5C8DA2
:100A10000E94E8279B01AC01C601B5010E94A029F4
:100A20009B01AC01C801B7010E94E9271B012C0101
:100A3000C401B301A40193010E94A0297B018C0190
:100A4000C601B501A60195010E94A0299B01AC0138
:100A5000C801B7010E94E9279B01AC01C201B101A5
:100A60000E9451287B018C01A60195010E94A029BA
:100A70009B01AC01698D7A8D8B8D9C8D0E94E9273D
:100A80006D837E838F839887C801B701A40193018A
:100A90000E94A0299B01AC016D8D7E8D8F8D98A148
:100AA0000E94E92769837A838B839C8329813A8119
:100AB0004B815C816D817E818F819885A0960FB678
:100AC000F894DEBF0FBECDBFCF91DF911F910F9184
:100AD000FF90EF90DF90CF90BF90AF909F908F905E
:100AE0007F906F905F904F903F902F9008952F923E
:100AF0003F924F925F926F927F928F929F92AF92AE
:100B0000BF92CF92DF92EF92FF920F931F93DF93EA
:100B1000CF93CDB7DEB72C970FB6F894DEBF0FBEDC
:100B2000CDBF8DA59EA5AFA5B8A989879A87AB87AC
:100B3000BC8769A87AA88BA89CA82DA83EA84FA816
:100B400058ACA9ACBAACCBACDCACBC01CD01A201B9
:100B500091010E94A0297B018C01C401B301A6016F
:100B600095010E94A0299B01AC01C801B7010E9418
:100B7000E92720E030E040E050EC0E94A0297B0112
:100B80008C01A60195010E94A0299B01AC01C40122
:100B9000B3010E94E9276D837E838F839887C80104
:100BA000B701A20191010E94A0299B01AC016985B6
:100BB0007A858B859C850E94E92769837A838B835C
:100BC0009C8329813A814B815C816D817E818F81FB
:100BD00098852C960FB6F894DEBF0FBECDBFCF918F
:100BE000DF911F910F91FF90EF90DF90CF90BF901A
:100BF000AF909F908F907F906F905F904F903F90BD
:100C00002F9008951092A5041092A40480E594E01A
:100C10009093A3048093A204089584E594E06AEE7F
:100C200070E00E9443200E940C0408952F923F928E
:100C30004F925F926F927F928F929F92AF92BF92EC
:100C4000CF92DF92EF92FF920F931F93DF93CF9398
:100C5000CDB7DEB768970FB6F894DEBF0FBECDBF35
:100C6000A986BA86CB86DC86ED86FE860F87188B32
:100C7000298B3A8B4B8B5C8B6D8B7E8B8F8B988FFC
:100C800069847A848B849C84AD84BE84CF84D88824
:100C900069897A898B899C89A40193010E94E8273C
:100CA0001B012C016D897E898F89988DA601950184
:100CB0000E94E8277B018C0169A97AA98BA99CA9CC
:100CC000A60195010E94E8279B01AC01C201B10178
:100CD0000E94A0295B016C016DA57EA58FA598A936
:100CE000A40193010E94E8279B01AC01C801B70150
:100CF0000E94A0299B01AC01C601B5010E94E82712
:100D00005B016C0117FB109517F91095C801B7012D
:100D1000A60195010E94A0293B014C01C201B1012D
:100D2000A60195010E94A0297B018C01C401B30199
:100D3000A40193010E94A0295B016C01C801B701C5
:100D4000A80197010E94A0299B01AC01C601B50131
:100D50000E94E9270E94532A5B016C01C801B70178
:100D6000A60195010E9451286D837E838F83988709
:100D7000C401B301A60195010E94512869837A83B9
:100D80008B839C8329813A814B815C816D817E813B
:100D90008F81988568960FB6F894DEBF0FBECDBFE1
:100DA000CF91DF911F910F91FF90EF90DF90CF9047
:100DB000BF90AF909F908F907F906F905F904F907B
:100DC0003F902F900895AF92BF92CF92DF92EF9213
:100DD000FF920F931F93DF93CF93CDB7DEB7E097CA
:100DE0000FB6F894DEBF0FBECDBFA98EBA8ECB8EE4
:100DF000DC8EED8EFE8E0F8F18A329A33AA34BA392
:100E00005CA36DA37EA38FA398A78DB79EB74497CD
:100E10000FB6F8949EBF0FBE8DBFADB7BEB711968B
:100E2000E1EEF4E084E101900D928150E1F7A98CAC
:100E3000BA8CCB8CDC8CED8CFE8C0F8D18A129A18B
:100E40003AA14BA15CA16DA17EA18FA198A50E94A2
:100E5000160629A73AA74BA75CA76DA77EA78FA761
:100E600098ABDE011196FE01B99688E001900D92D3
:100E70008150E1F7ADB7BEB71196E1EEF4E084E141
:100E800001900D928150E1F7A98CBA8CCB8CDC8C4F
:100E9000ED8CFE8C0F8D18A129A13AA14BA15CA16C
:100EA0006DA17EA18FA198A50E949004EDB7FEB719
:100EB00074960FB6F894FEBF0FBEEDBF29A73AA7F0
:100EC0004BA75CA76DA77EA78FA798ABDE011996ED
:100ED000FE01B99688E001900D928150E1F7698595
:100EE0007A858B859C8520E030E040E050E40E94CC
:100EF000E8276093E1047093E2048093E304909305
:100F0000E4046D857E858F85988920E030E040E09F
:100F100050E40E94E8276093E5047093E604809310
:100F2000E7049093E8048DB79EB74C970FB6F894FA
:100F30009EBF0FBE8DBF2DB73EB72F5F3F4FD9016C
:100F4000E1EEF4E084E101900D928150E1F7D901E6
:100F50005496FE01319688E001900D928150E1F7A0
:100F60000E947705EDB7FEB77C960FB6F894FEBFEA
:100F70000FBEEDBF29A73AA74BA75CA76DA77EA719
:100F80008FA798ABDE015196FE01B99688E00190DB
:100F90000D928150E1F7ED88FE880F89188D6989DF
:100FA0007A898B899C8928E431EE4AE75FE30E94C5
:100FB000A0296093ED047093EE048093EF04909366
:100FC000F004C801B70128E431EE4AE75FE30E946C
:100FD000A0296093F1047093F2048093F30490933A
:100FE000F404E0960FB6F894DEBF0FBECDBFCF91EC
:100FF000DF911F910F91FF90EF90DF90CF90BF9006
:10100000AF9008952F923F924F925F926F927F928E
:101010008F929F92AF92BF92CF92DF92EF92FF9208
:101020000F931F93DF93CF93CDB7DEB760970FB6C3
:10103000F894DEBF0FBECDBFA982BA82CB82DC821C
:10104000ED82FE820F83188729873A874B875C875A
:101050006D877E878F87988BA980BA80CB80DC8054
:10106000ED80FE800F81188569857A858B859C854A
:10107000A60195010E94E8271B012C016D857E8544
:101080008F859889A80197010E94E8273B014C01B0
:1010900069A57AA58BA59CA520E030E040E050E44E
:1010A0000E94E927A80197010E94E8279B01AC0153
:1010B000C201B1010E94A0297B018C016DA17EA11A
:1010C0008FA198A520E030E040E050E40E94E9279D
:1010D000A60195010E94E8279B01AC01C401B30160
:1010E0000E94A0299B01AC01C801B7010E94E8271A
:1010F0005B016C0120E030E040E050E00E944D28B0
:10110000882324F4D7FAD094D7F8D094C201B1013F
:10111000A20191010E94A0297B018C01C401B301AD
:10112000A40193010E94A0299B01AC01C801B70151
:101130000E94E9270E94532A9B01AC0110E0C601DE
:10114000B5010E94512820E030E040E050E40E94C8
:101150004D2888230CF411E0812F60960FB6F89487
:10116000DEBF0FBECDBFCF91DF911F910F91FF90DA
:10117000EF90DF90CF90BF90AF909F908F907F9037
:101180006F905F904F903F902F9008952F923F92D5
:101190004F925F926F927F928F929F92AF92BF9287
:1011A000CF92DF92EF92FF920F931F93DF93CF9333
:1011B000CDB7DEB7AC970FB6F894DEBF0FBECDBF8C
:1011C000A982BA82CB82DC82ED82FE820F831887ED
:1011D00029873A874B875C876D877E878F87988BB7
:1011E00089859A85AB85BC858D8F9E8FAF8FB8A37F
:1011F00069807A808B809C808D859E85AF85B8893B
:10120000898F9A8FAB8FBC8F2D803E804F80588402
:1012100025968CAD9DADAEADBFAD25978D8B9E8BCC
:10122000AF8BB88F29968CAD9DADAEADBFAD299774
:10123000898B9A8BAB8BBC8BADB7BEB754970FB66F
:10124000F894BEBF0FBEADBF1196FE01EF5BFF4F1E
:1012500084E101900D928150E1F7A980BA80CB80A2
:10126000DC80ED80FE800F81188529853A854B85CD
:101270005C856D857E858F8598890E9402082DB7D3
:101280003EB72C5E3F4F0FB6F8943EBF0FBE2DBF4A
:10129000882309F4A3C06D8D7E8D8F8D98A1A40144
:1012A00093010E94E82769A37AA38BA39CA3698D6D
:1012B0007A8D8B8D9C8DA20191010E94E8276DA3F0
:1012C0007EA38FA398A76D897E898F89988D20E052
:1012D00030E040E050E40E94E9275B016C0169893D
:1012E0007A898B899C8920E030E040E050E40E94BC
:1012F000E92769A77AA78BA79CA7C601B501A40116
:1013000093010E94E8279B01AC0169A17AA18BA1FE
:101310009CA10E94A0297B018C0169A57AA58BA5BF
:101320009CA5A20191010E94E8279B01AC016DA13F
:101330007EA18FA198A50E94A0299B01AC01C801A4
:10134000B7010E94E92720E030E040E050E00E9431
:101350009C2988230CF442C09924E9A0FAA00BA18F
:101360001CA117FB109517F91095C601B5012D8D1D
:101370003E8D4F8D58A10E94E8279B01AC01C8010A
:10138000B7010E94A0295B016C01EDA0FEA00FA196
:1013900018A517FB109517F9109569A57AA58BA5C7
:1013A0009CA5298D3A8D4B8D5C8D0E94E8279B0171
:1013B000AC01C801B7010E94A0299B01AC01C60184
:1013C000B5010E94E92720E030E040E050E00E94B3
:1013D0009C29882324F09924939401C09924892D71
:1013E000AC960FB6F894DEBF0FBECDBFCF91DF91A4
:1013F0001F910F91FF90EF90DF90CF90BF90AF9033
:101400009F908F907F906F905F904F903F902F9024
:101410000895EF92FF920F931F936091E1047091F2
:10142000E2048091E3049091E4040E94B9287B01D6
:101430008C016091E5047091E6048091E70490913D
:10144000E8040E94B9289B01AC0182EA94E06E2D69
:10145000422F22E134E00E9426171F910F91FF9046
:10146000EF9008952F923F924F925F926F927F92EA
:101470008F929F92AF92BF92CF92DF92EF92FF92A4
:101480000F931F93DF93CF9300D000D000D0CDB740
:10149000DEB78091DB04882309F4E9C081E892E09B
:1014A0009E838D83ED81FE81608171818281938134
:1014B0000E94B9281B012C01ED81FE816481758198
:1014C000868197810E94B9283B014C01ED81FE8104
:1014D00060857185828593850E94B9285B016C01C6
:1014E000ED81FE8164857585868597850E94B92882
:1014F0007B018C0182EA94E0622D462D2A2D0E2D6F
:101500000E94EB148D819E8140969E838D83815B2A
:10151000934041F681E291E09E838D83ED81FE81CF
:1015200060817181828193810E94B9281B012C0105
:10153000ED81FE8164817581868197810E94B92841
:101540003B014C01ED81FE8160857185828593852B
:101550000E94B9285B016C01ED81FE81648575856F
:10156000868597850E94B9287B018C0182EA94E0E8
:10157000622D462D2A2D0E2D0E94EB148D819E8109
:1015800040969E838D838158924041F66091F50488
:101590007091F6048091F7049091F8040E94B928A4
:1015A0001B012C016091F9047091FA048091FB04F5
:1015B0009091FC040E94B9283B014C016091FD040C
:1015C0007091FE048091FF04909100050E94B9285B
:1015D0005B016C016091010570910205809103052A
:1015E000909104050E94B9287B018C0182EA94E065
:1015F000622D462D2A2D0E2D0E94EB1460910505BB
:101600007091060580910705909108050E94B92800
:101610001B012C016091090570910A0580910B0551
:1016200090910C050E94B9283B014C0160910D0579
:1016300070910E0580910F05909110050E94B928B8
:101640005B016C0160911105709112058091130589
:10165000909114050E94B9287B018C0182EA94E0E4
:10166000622D462D2A2D0E2D0E94EB142AC082EAEF
:1016700094E060E040E02CED31E00E94261780917C
:10168000DF04882321F427EF33E047E103C02EEE87
:1016900033E049E182EA94E068E000E052E0E52EC0
:1016A0000E94B9188091DE04882319F427EF33E0F3
:1016B00002C02EEE33E082EA94E068E04AE00E9445
:1016C000261780912001882319F42CE034E002C011
:1016D00022E034E082EA94E06DE04BE20E942617BB
:1016E00082EA94E062E00E94761400E010C0B90142
:1016F000660F771F660F771F620F731F6E5F82EA98
:1017000094E04BE222E134E00E9426170F5F202F85
:1017100030E080911F01992787FD909528173907A0
:1017200034F381EB93E09E838D83ED81FE8180898C
:1017300018160CF04AC08091C5049091C604A0917F
:10174000C704B091C80483709070A070B070029705
:10175000A105B105D0F1E080F18002811381A48060
:10176000B580C680D780C801B7010E94B9286983B7
:101770007A838B839C83C601B5010E94B9281B0123
:101780002C01ED81FE816085718582859385A8019C
:1017900097010E94E8270E94B9283B014C01ED8186
:1017A000FE816485758586859785A60195010E94D1
:1017B000E8270E94B9287B018C0182EA94E06981C4
:1017C000422D262D0E2D0E94B6148D819E814196AC
:1017D0009E838D838A54944009F0A7CF82EA94E0D7
:1017E00061E00E94761400E01BE2602F70E080E070
:1017F00090E00E94EA289B01AC0160E070E080E28A
:1018000091E40E94032A9B01AC01CA01B9010E9424
:10181000B9289B01AC018091DC049091DD04B901F1
:101820000E94F02BCB016AE070E00E94F02BE82FC1
:10183000FF27E7FDF095EE0FFF1FE55FFE4F2081CC
:10184000318182EA94E06EE4412F0E9426170F5FF7
:101850001450063051F626960FB6F894DEBF0FBE30
:10186000CDBFCF91DF911F910F91FF90EF90DF904F
:10187000CF90BF90AF909F908F907F906F905F9030
:101880004F903F902F9008956F927F928F929F92EA
:10189000AF92BF92CF92DF92EF92FF920F931F937E
:1018A000DF93CF93CDB7DEB760970FB6F894DEBF66
:1018B0000FBECDBF8EE594E064E00E94A71388239D
:1018C00009F45DC0E090ED04F090EE040091EF04A7
:1018D0001091F00460E070E080E090E024E130E0FE
:1018E00040E050E00E94CA270E94EC2820E030E04F
:1018F00040E251E40E94E82720E030E040E251E479
:101900000E9451289B01AC01C801B7010E94E92740
:101910006093ED047093EE048093EF049093F004D1
:10192000E090F104F090F2040091F3041091F404BB
:1019300060E070E080E090E024E130E040E050E0E2
:101940000E94CA270E94EC2820E030E040E251E4E7
:101950000E94E82720E030E040E251E40E94512854
:101960009B01AC01C801B7010E94E9276093F10413
:101970007093F2048093F3049093F40416C0609182
:10198000ED047091EE048091EF049091F0042DEC41
:101990003CEC4CEC5DE30E94E8276093ED0470930F
:1019A000EE048093EF049093F004E090ED04F09047
:1019B000EE040091EF041091F004C801B70120E09B
:1019C00030E040E050E00E949C2918165CF4C80109
:1019D000B70120E030E040EA50E40E949C2918164C
:1019E0005CF025C0C801B70120E030E040EA50ECCF
:1019F0000E944D288823DCF4C801B70120E030E0C4
:101A000040E050E00E949C2918162CF080E090E005
:101A1000A0EAB0EC04C080E090E0A0EAB0E48093DB
:101A2000ED049093EE04A093EF04B093F004E090E3
:101A3000F104F090F2040091F3041091F404C80151
:101A4000B70120E030E040E050E00E949C291816E9
:101A50005CF4C801B70120E030E040EA50E40E94A5
:101A60009C2918165CF025C0C801B70120E030E0C1
:101A700040EA50EC0E944D288823DCF4C801B701ED
:101A800020E030E040E050E00E949C2918162CF045
:101A900080E090E0A0EAB0EC04C080E090E0A0EA32
:101AA000B0E48093F1049093F204A093F304B09314
:101AB000F40480912001882319F405E010E002C0AD
:101AC0000AE010E06091E1047091E2048091E30487
:101AD0009091E4040E94B9283B014C016091E50417
:101AE0007091E6048091E7049091E8040E94B9287F
:101AF0005B016C0184E594E06DE070E04BE250E046
:101B0000980104E010E073016501F2E0AF2EB12C02
:101B1000E2E08E2E912C0E948D1C882309F470C067
:101B2000809120018823F1F18091E004882309F459
:101B300045C06091E1047091E2048091E3049091CA
:101B4000E40420E030E040E951E40E94E82720E08E
:101B500030E040EA50EC0E94512820E030E040E8BC
:101B60005FE30E94E92720E030E040EC50E40E946F
:101B7000A0299B01AC016091ED047091EE0480916D
:101B8000EF049091F0040E94E9276093ED047093B4
:101B9000EE048093EF049093F00480E090E0A8EBD3
:101BA000B1E404C080E090E0A0E9B1E48093E104F6
:101BB0009093E204A093E304B093E404E090ED0476
:101BC000F090EE040091EF041091F004C801B70109
:101BD00020E030E040E050E00E944D28882384F46B
:101BE000C801B70120E030E040E05FEB0E94A0298F
:101BF0006093ED047093EE048093EF049093F004EF
:101C00006091ED047091EE048091EF049091F004E6
:101C100028E431EE4AE75FE30E94A0299B01AC0172
:101C20006093ED047093EE048093EF049093F004BE
:101C30006091E1047091E2048091E3049091E404E6
:101C40000E94E9276093E1047093E2048093E30427
:101C50009093E4046091E5047091E6048091E704B8
:101C60009091E8042091F1043091F2044091F30442
:101C70005091F4040E94E9276093E5047093E60410
:101C80008093E7049093E8042DB73EB72451304089
:101C90000FB6F8943EBF0FBE2DBFADB7BEB71196BD
:101CA000E1EEF4E084E101900D928150E1F7A09023
:101CB000F504B090F604C090F704D090F804E090DA
:101CC000F904F090FA040091FB041091FC042091B7
:101CD000FD043091FE044091FF0450910005609195
:101CE00001057091020580910305909104050E9401
:101CF000C608ADB7BEB754960FB6F894BEBF0FBEB8
:101D0000ADBF882309F477C0A090F504B090F60425
:101D1000C090F704D090F804E090F904F090FA0431
:101D20000091FB041091FC042091FD043091FE040D
:101D30004091FF04509100056091010570910205EA
:101D400080910305909104050E94E3068091DF04D1
:101D5000882309F44DC08091E004882309F448C029
:101D60006091ED047091EE048091EF049091F00485
:101D700020E030E040E85FE30E944D28882364F4CF
:101D800080E090E0A0E8BFE38093ED049093EE0440
:101D9000A093EF04B093F0046091ED047091EE0411
:101DA0008091EF049091F00420E030E040EC5FE39C
:101DB0000E94A0296093ED047093EE048093EF04D9
:101DC0009093F0046091F1047091F2048091F30417
:101DD0009091F40420E030E040EC5FE30E94A02901
:101DE0006093F1047093F2048093F3049093F404ED
:101DF0008824992465C0EDB7FEB774970FB6F894A0
:101E0000FEBF0FBEEDBFADB7BEB71196E1EEF4E079
:101E100084E101900D928150E1F7A0900505B0900A
:101E20000605C0900705D0900805E0900905F090E0
:101E30000A0500910B0510910C0520910D053091BC
:101E40000E0540910F05509110056091110570919C
:101E5000120580911305909114050E94C6082DB7B4
:101E60003EB72C5E3F4F0FB6F8943EBF0FBE2DBF5E
:101E7000882309F4BDCFA0900505B0900605C09059
:101E80000705D0900805E0900905F0900A0500913B
:101E90000B0510910C0520910D0530910E05409118
:101EA0000F055091100560911105709112058091F8
:101EB0001305909114050E94E3068091DE0448CF3B
:101EC0008DB79EB744970FB6F8949EBF0FBE8DBFD7
:101ED000F40104E0EE0FFF1F0A95E1F7EF5DFE4FFE
:101EE0002DB73EB72F5F3F4F41EE54E084E1DA015A
:101EF0000D90AD01D9010D929D018150C1F7A080D7
:101F0000B180C280D380E480F5800681178120856E
:101F100031854285538564857585868597850E94C0
:101F2000C608EDB7FEB774960FB6F894FEBF0FBEA5
:101F3000EDBF8823E9F0F40114E0EE0FFF1F1A95BE
:101F4000E1F7EF5DFE4FA080B180C280D380E480D6
:101F5000F58006811781208531854285538564850A
:101F60007585868597850E94E3068824992409C093
:101F70000894811C911CF6E18F16910409F0A0CF02
:101F8000F4CF782C2DB73EB7245130400FB6F894DB
:101F90003EBF0FBE2DBFF401B4E0EE0FFF1FBA9598
:101FA000E1F7EF57FD4F2F5F3F4F41EE54E084E1E3
:101FB000DA010D90AD01D9010D929D018150C1F75B
:101FC000A080B180C280D380E480F5800681178133
:101FD00020853185428553856485758586859785FD
:101FE0000E94C608EDB7FEB774960FB6F894FEBF10
:101FF0000FBEEDBF882309F468C0F401A4E0EE0F22
:10200000FF1FAA95E1F7EF57FD4FA080B180C28076
:10201000D380E480F5800681178120853185428553
:10202000538564857585868597850E94E306609152
:10203000E1047091E2048091E3049091E40426E6C7
:1020400036E646E85FE30E94A0296093E1047093BE
:10205000E2048093E3049093E4046091E5047091BA
:10206000E6048091E7049091E80426E636E646E827
:102070005FE30E94A0296093E5047093E6048093D7
:10208000E7049093E804F3E0F71520F4872D8850D7
:10209000843030F48091DC049091DD040A9608C00D
:1020A0008091DC049091DD042BE0271560F44E96BE
:1020B0009093DD048093DC0471EB872E73E0972E00
:1020C000662477240BC04496F3CF0894811C911C9E
:1020D00033E18316910409F054CFEECFD40150962A
:1020E0008C91509718161CF4815050968C93F401E3
:1020F00080819181A281B38189839A83AB83BC83E0
:1021000084819581A681B7818D839E83AF83B887B3
:1021100080859185A285B38589879A87AB87BC879F
:1021200084859585A685B7858D879E87AF87B88B73
:102130002DB73EB7245130400FB6F8943EBF0FBEC6
:102140002DBFADB7BEB71196E1EEF4E084E101908A
:102150000D928150E1F7A980BA80CB80DC80ED80C0
:10216000FE800F81188529853A854B855C856D85B4
:102170007E858F8598890E94C608ADB7BEB75496F4
:102180000FB6F894BEBF0FBEADBF8823B1F0F30108
:1021900064E0EE0FFF1F6A95E1F7E60DF71DEF54BF
:1021A000FC4F8EE1808B8091DC049091DD040196E0
:1021B0009093DD048093DC040CC00894611C711CB6
:1021C000E1E1F0E08E0E9F1EF9E06F16710409F058
:1021D00085CF6091E1047091E2048091E3049091D5
:1021E000E40420E030E048EA52E40E949C291816FA
:1021F00064F480E090E0A4EAB2E48093E104909378
:10220000E204A093E304B093E4046091E5047091C8
:10221000E6048091E7049091E80420E030E040E09B
:1022200050E00E944D28882364F480E090E0A0E014
:10223000B0E48093E5049093E604A093E704B093A0
:10224000E8046091E5047091E6048091E7049091C0
:10225000E80420E030E040E452E40E949C29181693
:1022600064F480E090E0A8E3B2E48093E504909306
:10227000E604A093E704B093E8046091E104709150
:10228000E2048091E3049091E40420E030E040EA2D
:1022900050EC0E944D288823B4F580E090E0A0E047
:1022A000B0E08093ED049093EE04A093EF04B0931C
:1022B000F0048093F1049093F204A093F304B0939C
:1022C000F40480E090E0A0E2B2E48093E104909313
:1022D000E204A093E304B093E40480E090E0ACE275
:1022E000B2E48093E5049093E604A093E704B093EE
:1022F000E80480911F01815080931F0187FF03C074
:1023000082E080931F0160960FB6F894DEBF0FBE87
:10231000CDBFCF91DF911F910F91FF90EF90DF9094
:10232000CF90BF90AF909F908F907F906F900895C7
:10233000DF92EF92FF920F931F93E090E004EE2064
:1023400009F459C0DE2CDA94D092E0048091DE04C6
:10235000882341F1ED2CFF2460E170E06E197F09C4
:10236000882777FD8095982F0E94EC2860930D05B3
:1023700070930E0580930F05909310058FE090E009
:10238000E80EF91E0027F7FC0095102FC801B701D1
:102390000E94EC2860931105709312058093130539
:1023A000909314058091DF04882329F160E170E0A7
:1023B0006D197109882777FD8095982F0E94EC2868
:1023C0006093FD047093FE048093FF0490930005D6
:1023D000D6946AE170E06D197109882777FD8095C0
:1023E000982F0E94EC28609301057093020580935A
:1023F00003059093040581E0809320018EE594E02D
:1024000060E041E00E94BB13882329F01092200174
:1024100085E08093E0048EE594E061E00E94A713DC
:10242000882339F081E08093DE0485E08093E00426
:1024300021C08EE594E061E00E94B1138823D1F0C1
:1024400080E090E0A0ECB0E480930D0590930E0541
:10245000A0930F05B093100580E090E0A8E9B1E4E7
:102460008093110590931205A0931305B093140562
:102470001092DE048EE594E063E00E94A7138823A7
:1024800039F081E08093DF0485E08093E00421C08F
:102490008EE594E063E00E94B1138823D1F080E0E0
:1024A00090E0A0ECB0E48093FD049093FE04A09330
:1024B000FF04B093000580E090E0A8EBB1E48093C6
:1024C000010590930205A0930305B09304051092B3
:1024D000DF041F910F91FF90EF90DF90089584E546
:1024E00094E00E946D1D882301F18EE594E066E082
:1024F0000E94A713882311F00E940D068EE594E038
:1025000065E00E94A713882341F090E08091DB04EE
:10251000882309F491E09093DB040E9498110E94B3
:10252000440C0E94090A0E94320A08950F931F93D7
:1025300004E514E0C8010E9449200E940D06C8016C
:1025400068E20E94E01B1F910F910895882319F4FF
:102550008CB5806202C08CB58F7D8CBD08959CB512
:10256000937F982B9CBD08952CB5382F33702C7F0A
:10257000322B3CBD2DB590E0959587959595879527
:1025800081702E7F822B8DBD08958AE061E00E94CC
:1025900071258AE061E00E9405258CB580618CBDC3
:1025A0008CB580648CBD8DE061E00E9405258BE0D8
:1025B00061E00E9405250895FC0181E08083089573
:1025C00085E070E00E94A52408956F927F928F921B
:1025D0009F92AF92BF92CF92DF92EF92FF920F93B2
:1025E0001F93CF93DF93EC0189819A818C0124E0C2
:1025F000000F111F2A95E1F7081B190B85E10E94B6
:102600008324BC01600F711F84E0769567958A95DD
:10261000E1F77A8369838881882381F12E813F8164
:102620006217730710F4B90106C08885998586176B
:10263000970708F4BC0100D000D080E090E040E0B3
:1026400050E0E884F98400E010E0AD80BB24CC24A5
:10265000DD246C80772488249924EDB7FEB761824D
:102660007282838294820E945F276B830F900F9007
:102670000F900F9085E070E00E94A524DF91CF912C
:102680001F910F91FF90EF90DF90CF90BF90AF9090
:102690009F908F907F906F900895FC018CE39FE056
:1026A0009383828384E0818381E084870895CF933C
:1026B000DF93EC018C819D81892BB1F18C8590E0B9
:1026C0008F719070892B69F584E10E948324AA2779
:1026D00097FDA095BA2FBC01CD010E94EC2826EEF3
:1026E0003FE34EEC50E40E94A0290E94BE289B01CB
:1026F000AC017B836A836115710589F084E089836D
:10270000B901FE0120E0848195816817790710F4F2
:1027100029830AC02F5F32962430A9F702C08FEFB9
:1027200089838C858F5F8C87DF91CF910895FC0121
:1027300088E0808389E0818387E0828386E08383E9
:1027400084E0848382E0858381E18683089520E0AC
:10275000FC01E60FF11D8781813009F421E0822F11
:10276000089520E0FC01E60FF11D87818F3F09F4F9
:1027700021E0822F0895E62FF0E0423040F420E07F
:10278000E80FF91F878181508E3F88F40FC0E80F52
:10279000F91F87818F3F11F420E009C020E090E00D
:1027A000642F70E00E94DC2B019709F421E0822F56
:1027B00008950F931F93CF93DF93EC0110E00FEF79
:1027C000888162E00E94052588810E94A4252F81CE
:1027D000892B19F42F5F2F8307C0222349F02F3F45
:1027E00011F41F8201C00F83888160E00E940525DB
:1027F0001F5F2196173021F7DF91CF911F910F9125
:102800000895FC01742F643508F06FC047FD6DC05A
:1028100040330CF06AC080A1823021F5842F859569
:1028200085958595992787FD9095462F552747FDD6
:10283000509524E530E0829FF001839FF00D929F38
:10284000F00D1124E40FF51FEB5EFA4F808190E04C
:10285000272F277002C0959587952A95E2F78095D6
:10286000817009C0833039F49485842F86278927A5
:1028700080FF03C01FC08823E9F4E72FE595E595A5
:10288000E59584E5E802F0011124862F992787FD5C
:102890009095E80FF91FEB5EFA4F777081E090E0BA
:1028A00002C0880F991F7A95E2F78095208128232E
:1028B00020830895E72FE595E595E59584E5E80201
:1028C000F0011124862F992787FD9095E80FF91FB5
:1028D000EB5EFA4F777081E090E002C0880F991F9D
:1028E0007A95E2F72081282B20830895FC0160A3CC
:1028F00061A30895FC0160A341A30895EF92FF92A4
:102900000F931F93CF93DF93EC01E62EF42E022F4B
:1029100010E007C0412F4F0DCE016E2D0E94011413
:102920001F5F1017BCF3DF91CF911F910F91FF90A4
:10293000EF900895EF92FF920F931F93CF93DF9341
:10294000EC01E62EF42E022F10E007C0612F6E0D71
:10295000CE014F2D0E9401141F5F1017BCF3DF91B1
:10296000CF911F910F91FF90EF9008959F92AF929A
:10297000BF92CF92DF92EF92FF920F931F93CF936C
:10298000DF936C01962EB42EA22EC0E0D0E0E42E90
:10299000FF24E7FCF094112707FD10950E0D1F1D75
:1029A00006C0C601692D2A2D0E949A1421964B2D2E
:1029B0004C0FCE018E0D9F1D8017910794F3DF9170
:1029C000CF911F910F91FF90EF90DF90CF90BF902C
:1029D000AF909F900895AF92BF92CF92DF92EF9207
:1029E000FF920F931F93CF93DF93EC01162FF42EDA
:1029F000E22EAA24402F552747FD50958F2D992769
:102A000087FD9095481B590B57FF03C05095419582
:102A10005F4F2E2D332727FD3095812F992787FD76
:102A20009095281B390B37FF03C0309521953F4FF8
:102A30002417350744F4AA24A3948F2DF12E182FC0
:102A4000802F0E2DE82EE11634F48E2DE12E182F56
:102A5000802F0F2DF82EDE2CD11A202F332727FDA3
:102A600030958F2D992787FD9095281B390B37FFBF
:102A700003C0309521953F4FB22EF0161CF0CC24A8
:102A8000CA9402C0CC24C3948D2DD7FC8F5F082F2D
:102A9000059511C0AA2021F0CE016F2D412F03C052
:102AA000CE01612F4F2D0E9401140B1907FF02C0A8
:102AB000FC0C0D0D1F5FE1166CF7DF91CF911F919C
:102AC0000F91FF90EF90DF90CF90BF90AF9008955F
:102AD0002F923F925F926F927F928F929F92AF92CE
:102AE000BF92CF92DF92EF92FF920F931F93DF93EB
:102AF000CF9300D000D000D0CDB7DEB79E838D83BA
:102B0000C62ED42EEE24E394E21A8EEF289F502C8A
:102B10001124842E8A94962E9A94A42EA394B62ED1
:102B2000B394F22E662423E0722E10E0C801847064
:102B300090709A838983F801E270F070FC83EB83D4
:102B400098E0292E312C202231220170107054C0BF
:102B5000E7FC04C0FA94F2E05F0EE50C639489810F
:102B60009A81892B71F04F2D4D0D8D819E816B2D9A
:102B70000E9401146F2D6C0D8D819E814A2D0E9443
:102B80000114EB81FC81EF2B71F04D2D4F198D81DC
:102B90009E816B2D0E9401146F2D6C0D8D819E8185
:102BA000482D0E9401142114310471F06C2D6F190D
:102BB0008D819E814A2D0E9401144F2D4D0D8D81D6
:102BC0009E81692D0E9401140115110571F06C2D73
:102BD0006F198D819E81482D0E9401144D2D4F1932
:102BE0008D819E81692D0E940114E70CF2E07F0E19
:102BF0008A949A94A394B3946F140CF4A9CF269654
:102C00000FB6F894DEBF0FBECDBFCF91DF911F91FD
:102C10000F91FF90EF90DF90CF90BF90AF909F907B
:102C20008F907F906F905F903F902F9008954F927C
:102C30005F926F927F928F929F92AF92BF92CF924C
:102C4000DF92EF92FF920F931F93CF93DF93EC01EC
:102C5000A62E742E9E2DFF24F394F21A8EEF289F39
:102C6000802C1124B42EBA9453E0C52ECE0CE22E43
:102C7000DD2443E0942E10E031E0432E512C40221D
:102C80005122692E63940270107034C0F7FC04C0A6
:102C9000EA9482E0880EF80CD3944114510489F030
:102CA0006D2D6A0D472D4E192E2D220F260DCE01AA
:102CB0000E947E146E2D6A0DCE014B2D2C2D0E948C
:102CC0007E140115110589F06A2D6D19472D4E19D5
:102CD0002E2D220F260DCE010E947E146A2D6E1914
:102CE000CE014B2D2C2D0E947E14F90C82E0980E03
:102CF000BA94C80EDE1454F2DF91CF911F910F9158
:102D0000FF90EF90DF90CF90BF90AF909F908F900B
:102D10007F906F905F904F9008957F928F929F92D7
:102D2000AF92BF92CF92DF92EF92FF920F931F93D9
:102D30006C01962EA42EF22E7E2C760E1EEFE19EB6
:102D4000102D1124812E820E672D282D0E949A1499
:102D5000B02EBA0CBA94C601672D4B2D282D0E94B7
:102D60009A14AE0C100FC601692D4A2D212F0E9416
:102D70007E14F90CFA94C6016F2D4A2D212F0E9462
:102D80007E14C601672D4A2D2E2D01E00E94681584
:102D9000FE18C6016F2D4A2D2E2D02E00E946815E7
:102DA000BE18C6016F2D4B2D2E2D04E00E94681514
:102DB000C601672D4B2D2E2D08E00E9468151F912E
:102DC0000F91FF90EF90DF90CF90BF90AF909F90CA
:102DD0008F907F9008958F929F92AF92BF92CF92E3
:102DE000DF92EF92FF920F931F936C01162FA42E88
:102DF000922EF02EBE2C8E2C860E2EEFE29EE02C14
:102E000011242E2D290D682D0E94B614AB0CFA94B6
:102E1000FE0C1150190D1B19C601612F4A2D2B2DC7
:102E200001E0EF2C0E941716C601682D4A2D2B2DAC
:102E300002E00E9417161F910F91FF90EF90DF9014
:102E4000CF90BF90AF909F908F9008952F923F9218
:102E50004F925F926F927F928F929F92AF92BF92AA
:102E6000CF92DF92EF92FF920F931F93DF93CF9356
:102E700000D000D0CDB7DEB74C01D62E142FF9010B
:102E80008491319694913197D40190966C90B3E5EA
:102E9000B6170CF457C1482F552747FD5095A62E5D
:102EA000BB24A7FCB0942A014A0C5B1C1414150423
:102EB0000CF048C110330CF045C1092F212F3327E6
:102EC00027FD3095892F992787FD9095820F931FB5
:102ED000181619060CF036C162E0E62EF12CEE0E43
:102EE000FF1ECA01079668E070E00E94F02B762E64
:102EF00017FF0EC0010F862F90E0FC01E29FC0017A
:102F0000E39F900DF29F900D1124E81AF90A10E04A
:102F1000802F992787FD9095212F332727FD309506
:102F2000820F931FC19714F000E3011BD7FCDD242F
:102F3000C2018535910514F084E590E0C82ED401D6
:102F40001C969C909126ED2DF0E0CF018A199B09EB
:102F5000AC014770507020E830E002C035952795ED
:102F60004A95E2F7B22E68E070E00E94F02BAB01C8
:102F70004E0D5F1D5C834B83212F277081E090E015
:102F8000682F01C0660F2A95EAF7159515951595D6
:102F900084E51802A00111244E0F5F1F4B5E5A4FAB
:102FA0008824202E332427FC3094472C5524C4C079
:102FB000EB81FC812491F1E06F1629F5AB81BC8196
:102FC0007B2D022F7A011D2D1BC0872F90E0202F13
:102FD00030E082239323892B21F0F7018081862B17
:102FE0008083872F90E095958795782F882321F40B
:102FF0001196FD01049170E81F5F0894E11CF11C1B
:103000001C1518F38DC0662059F5F62EF094AB818F
:10301000BC817B2D022F5A8349831D2D1EC0872F13
:1030200090E0202F30E082239323892B29F0E9813F
:10303000FA8180818F218083872F90E095958795F5
:10304000782F882321F41196FD01049170E81F5F09
:1030500089819A8101969A8389831C1500F360C047
:1030600093E0691639F0AB81BC817B2D022F7A0188
:103070001D2D54C0A62EA094AB81BC817B2D022FA8
:103080005A8349831D2DE92CFF2428C0872F90E007
:10309000202F30E082239323892B79F0812F90E039
:1030A0008E259F25E981FA81908180FF02C0962BB1
:1030B00003C09A21E981FA819083872F90E095954A
:1030C0008795782F882321F41196FD01049170E8EB
:1030D0001F5F89819A8101969A8389831C15B0F2BA
:1030E00091E099261DC0872F90E0202F30E08223A9
:1030F0009323892B21F0F701808186278083872FF6
:1031000090E095958795782F882321F41196FD01FD
:10311000049170E81F5F0894E11CF11C1C1518F362
:10312000660F19F44C5A5F4F61E083948B819C8148
:10313000840D951D9C838B83882D90E082159305CB
:103140000CF436CF0F900F900F900F90CF91DF912E
:103150001F910F91FF90EF90DF90CF90BF90AF90B5
:103160009F908F907F906F905F904F903F902F90A7
:1031700008952F923F924F925F926F927F928F921B
:103180009F92AF92BF92CF92DF92EF92FF920F93F6
:103190001F93DF93CF93CDB7DEB728970FB6F89480
:1031A000DEBF0FBECDBF1C016A834B8369019E2C1D
:1031B000002329F4EE2019F40E94261783C0F6019B
:1031C00074900894C11CD11CF60184900894C10825
:1031D000D108872D90E0079623E0959587952A954D
:1031E000E1F703700983672C6A94A62C00E0282F6E
:1031F000332727FD30953D832C83382D31503E8376
:103200005EC0802F877090E8492E512C02C05594E3
:1032100047948A95E2F7802F859585958595E82FC7
:10322000FF27E7FDF0953296EC0DFD1DF887EF8343
:10323000BE80FF243FC0EF81F885849190E0842117
:103240009521892B69F1F981F13051F0F13028F0A5
:10325000F23049F0F33061F409C0102FEF2C08C0B0
:10326000EA2C1F2D05C01A2DEB2C02C01B2DE02EC1
:10327000992069F023E09222892D90FE03C0362D1B
:10328000311B132F81FF03C0882D8E19E82E9A81E0
:10329000190FEB81EE0EC101612F4E2D0E9401141A
:1032A000F3942F8138858C819D81280F391F3887B1
:1032B0002F83BA94F81409F0BECF0F5FAA940715B4
:1032C00009F09FCF28960FB6F894DEBF0FBECDBF92
:1032D000CF91DF911F910F91FF90EF90DF90CF90F2
:1032E000BF90AF909F908F907F906F905F904F9026
:1032F0003F902F900895DC01FB0184918F5F14961D
:103300008C931497319684918F5F15968C931597B3
:1033100031965F96FC93EE935E9708953F924F929D
:103320005F926F927F928F929F92AF92BF92CF9255
:10333000DF92EF92FF920F931F93CF93DF93EC01F5
:10334000862EA42E422F102F38A023E526170CF42A
:10335000ABC03FE23A150CF4A7C0C02EDD248C812F
:1033600090E001979C01C29EC001C39E900DD29E29
:10337000900D1124262F332727FD3095820F931FA0
:10338000181619060CF090C08D8190E09C01C29E29
:10339000C001C39E900DD29E900D11242A2D33277B
:1033A00027FD3095820F931F181619060CF07CC06C
:1033B0009924442E55246DC09C0121503040421761
:1033C000530711F460E00EC0429EC001439E900D71
:1033D000529E900D1124840F951FEE8DFF8DE80FE6
:1033E000F91F64914C9DC0014D9D900D5C9D900D09
:1033F0001124682C680EBB24792C780C3FC0E62E73
:10340000FF2460FF19C0113039F44B2D4A0DCE0155
:10341000672D0E9401142EC02C9DC0012D9D900D82
:103420003C9D900D11244A2D480FCE01662D212F71
:10343000012F0E94B6141EC099A188A19817D1F03F
:1034400098A3113039F44B2D4A0DCE01672D0E94FF
:1034500001140FC02C9DC0012D9D900D3C9D900D21
:1034600011244A2D480FCE01662D212F012F0E94D5
:10347000B61438A2F594E7946E2DB3942B2D332710
:1034800027FD30958D8190E0281739070CF4B7CFD0
:103490009394492D552747FD50958C8190E048170E
:1034A00059070CF489CF38A2DF91CF911F910F916A
:1034B000FF90EF90DF90CF90BF90AF909F908F9054
:1034C0007F906F905F904F903F9008950F93CF93B0
:1034D000DF93EC01262F6A3049F48D819885899F0E
:1034E000802D11249A85980F9A8726C06D3029F176
:1034F00069854A8508850E948E199C816885969FFA
:10350000402D11248985480F49878F818823A9F090
:10351000552747FD5095699F9001112484E590E05F
:10352000821B930B8417950744F49D81699F902D0E
:1035300011248A85890F8A87198681E090E0DF91BE
:10354000CF910F9108951F93CF93DF93EC01162F26
:10355000F8948F8560E00E947125888918161CF404
:1035600060E00E9471251EBD0DB407FEFDCF8EB533
:10357000888918161CF461E00E9471257894DF9107
:10358000CF911F910895FF920F931F93CF93DF93D5
:10359000EC018C858F5F8C87FF2400E010E06F2D9D
:1035A0006064CE010E94A31ACE0160E80E94A31AB3
:1035B0008F8561E00E947125888918161CF460E0EF
:1035C0000E947125F801EB5EFA4F90E080818EBD7C
:1035D0000DB407FEFDCF8EB59F5F31969435B1F7E0
:1035E000888918161CF461E00E947125F3940C5A26
:1035F0001F4F86E0F81699F6CE0160E40E94A31AE8
:10360000DF91CF911F910F91FF900895CF93DF939A
:10361000DC0188EF91E0E5E1F5E0EF019C01199212
:1036200021503040E1F719961C9219971A961C9276
:10363000DF91CF910895EF920F93CF93DF93EC0139
:103640004E876D872F87E98A088B81E0888788A35A
:1036500019A28F83CE016AE474E00E947B190E9454
:10366000C51281E00E94A61285E00E94B4128CE08F
:103670000E94AF128E8561E00E9405258D8561E074
:103680000E9405258F8561E00E940525898918160D
:103690001CF461E00E940525888918161CF461E07D
:1036A0000E940525898918166CF460E00E94712536
:1036B0006AE070E080E090E00E942224898961E065
:1036C0000E947125ED852E2F332727FD3095F901B6
:1036D000EA57F84FE491F0E0EE0FFF1FEE58F84F75
:1036E000859194919D8B8C8B2656384FF90184914E
:1036F0008B8FEE852E2F332727FD3095F901EA5762
:10370000F84FE491F0E0EE0FFF1FEE58F84F85916F
:1037100094919B8B8A8B2656384FF90184918A8F1E
:10372000E8892E2F332727FD3095F901EA57F84F06
:10373000E491F0E0EE0FFF1FEE58F84F8591949161
:103740009F8B8E8B2656384FF90184918C8FEF8595
:103750002E2F332727FD3095F901EA57F84FE491D2
:10376000F0E0EE0FFF1FEE58F84F85919491998F7E
:10377000888F2656384FF90184918D8FCE0161E2F2
:103780000E94A31ACE0164E10E94A31A8B8587FFD1
:1037900002C08FE78B876B856068CE010E94A31AF9
:1037A000CE0160E20E94A31ACE016CE00E94A31A2F
:1037B000CE010E94C31ADF91CF910F91EF9008952F
:1037C000FC01262FE158FF4F88EE93E070E00E9445
:1037D000F02B6083EF57F040822F64E10E94D02BE2
:1037E000882309F481E081A70895CF93DF93DC015A
:1037F000E0E8F7E785919491ED01C75ADF4FAD01FD
:1038000040595F4F8150904C09F04EC0E6E9F7E710
:10381000E491E883E7E9F7E7E4911496EC931497D1
:10382000E8E9F7E7E4911596EC931597E9E9F7E7EE
:103830008591949117969C938E931697EBE9F7E7F1
:103840008591949119969C938E931897EDE9F7E7DB
:10385000E4919B96EC939B97EEE9F7E7E4919A96B7
:10386000EC939A97EFE9F7E7E491EA01E883E0EA5D
:10387000F7E7859194915D969C938E935C97E2EA2D
:10388000F7E7859194915F969C938E935E97E4EA17
:10389000F7E78591949191969C938E939097E6EAA1
:1038A000F7E78591949132C08CE3888314961C923B
:1038B00014972FEF15962C93159780E293E01796A7
:1038C0009C938E93169784ED93E019969C938E9318
:1038D000189781E09B968C939B979A968C939A97D6
:1038E000FA0120838CEA9DE05D969C938E935C9711
:1038F0008EED9DE05F969C938E935E9784E79EE0AD
:1039000091969C938E9390978CE39FE093969C93D3
:103910008E939297DF91CF9108958F929F92AF925D
:10392000BF92CF92DF92EF92FF920F931F93DF939C
:10393000CF93CDB7DEB7260F371FE216F30694F408
:10394000AE0CBF1C6A157B056CF4040F151FC01666
:10395000D10644F480E08C0C9D1C481559051CF4DC
:1039600081E001C080E0CF91DF911F910F91FF9026
:10397000EF90DF90CF90BF90AF909F908F90089581
:10398000EF92FF920F931F93CF93DF937C018C01F3
:10399000025B1F4FC8010E94061BC80161EF75E062
:1039A0000E940D26C8010E94C31A83E00E94B4122F
:1039B00080E091E0EEEFFFE3099584E590E0E80E0A
:1039C000F91EF7011082C8016CEC75E00E945826C0
:1039D000C8010E94C31AE701CA54D040CE010E9418
:1039E000D913CE0164E00E94A713882339F462E35F
:1039F00070E080E090E00E942224F0CFDF91CF9130
:103A00001F910F91FF90EF900895AF92BF92CF92C8
:103A1000DF92EF92FF920F931F93CF93DF93EC010E
:103A2000CA57DF4F8881C658D040882309F44AC05E
:103A30008C3010F010E002C01CE0181BCA5ADF4F97
:103A400081E08883C655D0406EE4C62ED12CCC0EC2
:103A5000DD1EC60160E00E94761453E5A52EB12C50
:103A6000AC0EBD1EF50100814DE2F42E4F2D401B22
:103A7000410F0D5FC60160E024E533E0E32E0E94B4
:103A8000EB16C60161E00E947614F5010081F01A80
:103A9000F10E0D5FC60160E04F2D24E50E948D16EA
:103AA000C95ADF4F84E08993F5018081181B115DAD
:103AB0001883AC9669917991C6010E940D26888180
:103AC00081508883DF91CF911F910F91FF90EF90EC
:103AD000DF90CF90BF90AF900895AF92BF92CF92FA
:103AE000DF92EF92FF920F931F93CF93DF93EC013E
:103AF000E0E8AE2EB12CA80EB91EF501E080F180F1
:103B0000028113810E94EE23E61AF70A080B190BB3
:103B10007FE7C72ED12CCC0EDD1EF601808190E010
:103B2000A0E0B0E08E159F05A007B10708F081C0A6
:103B30008E0105581F4FF80180819181A281B381C8
:103B40000097A105B10509F474C00E94EE23F601A7
:103B50002081620F711D811D911DF50160837183AC
:103B600082839383FE01EF58FF4F80819181A28170
:103B7000B3810196A11DB11D80839183A283B3837C
:103B8000F80110821182128213820E94FC23C9580C
:103B9000DF4F688379838A839B83C757D040CE01E8
:103BA0000E94E512CE010A960E94D913CE014896D2
:103BB0000E94571381E032C08E010B5D1F4FC80178
:103BC0000E949C21C8010E941322C8010E94F62273
:103BD000CE010E94051DCE010E94261E8E01025BB1
:103BE0001F4FC8010E94C31ACC5ADF4F8881C455A9
:103BF000D040882319F4C8010E94061B0E94FC23B0
:103C0000C558DF4F688379838A839B8324972881F3
:103C10003981621B730B7A936A9380E0DF91CF91B5
:103C20001F910F91FF90EF90DF90CF90BF90AF90DA
:103C30000895C558DF4F88819981AA81BB81CB57F0
:103C4000D0400097A105B10541F7B6CFBF92CF9202
:103C5000DF92EF92FF920F931F93CF93DF93EC01CC
:103C60008C8D9D8D892B09F4A1C08E01025B1F4FA5
:103C7000C80161E040E00E947A14FE01E95AFF4F5A
:103C8000CE5ADF4F85E59881891B8083269618825E
:103C9000C855D040698D613009F469C0613028F0A1
:103CA000888D653008F07CC076C0CE0185960E9474
:103CB0004E21CA5ADF4F81E08883C655D040C801E3
:103CC0006AE474E00E947B191D8E1C8ECC5ADF4F73
:103CD0001882C455D040AAE0CA2ED12CCC0EDD1ECD
:103CE000BC2EED2EF8EAFF2ECE010E946D1D88231A
:103CF000D9F3C80169E376E00E940D266A8D7B8DB9
:103D0000C8014AE050E00E94FB26C80164E276E068
:103D10000E940D266F2D62956F70C80170E04AE019
:103D200050E00E944C27C80169E176E00E940D2610
:103D3000C60164E00E94A7138823C1F5FA94A1F696
:103D40008B2D9E2D60E00E94E01283B7817F8460FE
:103D500083BF83B7816083BF83B7816083BF88954A
:103D600083B78E7F83BF83B78E7F83BFBDCFCF588E
:103D7000DF4F88819981AA81BB818F709070A0707C
:103D8000B0700897A105B10518F4C80167E00CC030
:103D9000C80168E709C0882349F06B5FC80104C007
:103DA000882321F0C8016FE20E943026DF91CF9175
:103DB0001F910F91FF90EF90DF90CF90BF900895EB
:103DC0002F923F924F925F926F927F928F929F922B
:103DD000AF92BF92CF92DF92EF92FF920F931F9319
:103DE000DF93CF93CDB7DEB72B970FB6F894DEBF36
:103DF0000FBECDBF9B878A877A8369835C834B83A1
:103E00008C0100591F4FF8018081882309F422C1D9
:103E10008A859B858A5A9F4F9B878A8781E0EA859E
:103E2000FB85808312921292E455F040FB87EA876B
:103E3000108E4EE4E42EF12CEE0EFF1EC70161E061
:103E40000E9476143AE0232E312C8A859B85280E19
:103E5000391E25E2622E712C680E791EE981FA81E5
:103E6000F491FD83B7E58B2E912C880E991EA8E561
:103E7000CA2ED12CC80ED91EF2E54F2E512C480E59
:103E8000591E8D5A9F4F9F838E83E1E7AE2EB12C32
:103E90008A859B85A80EB91E198708878A859B8508
:103EA0000E946D1D8823D1F39D81992311F410E0A8
:103EB00003C0EE81FF811081C70160E040E027E789
:103EC00036E00E9426178B819C81892B41F0145F7C
:103ED000C70160E0412F2B813C810E942617F4012D
:103EE00010828CE0F6018083C70169817A810E948B
:103EF0000D26F201208130E0C901880F991F820F41
:103F0000931F909581959F4F8D5AF4018083EE8188
:103F1000FF81208130E0C901880F991F820F931F14
:103F2000909581959F4F835DF6018083F501808197
:103F300084FF04C0C70167EF76E003C0C70163EFE9
:103F400076E00E945826F201208130E0C901880FF6
:103F5000991F820F931F909581959F4F8D5AF40161
:103F60008083F60180818F5F8083EA85FB8582A54F
:103F7000882321F0C7016FEE76E003C0C7016BEE26
:103F800076E00E945826F201808190E09C01220F89
:103F9000331F280F391F309521953F4F2D5AF401BB
:103FA0002083F60180818F5F8083C70167EE76E012
:103FB0000E945826C10165E00E94A713882351F092
:103FC000EA85FB8562A56F5FC3010E945F23C30181
:103FD0000E945923C10164E00E94A713882399F429
:103FE000E885F9856081262F30E040E050E0F5015A
:103FF00080819181A281B38182179307A407B507BD
:1040000008F16F3FF9F08A859B8580599F4F9B8708
:104010008A878FEFEA85FB858083E057F040FB8736
:10402000EA87C30160E00E944321C3010E94532339
:1040300081E0EA85FB85808F0DC08A859B850E9483
:10404000C01C2CCFC10166E00E94A713882309F48D
:1040500025CFF3CF2B960FB6F894DEBF0FBECDBFA2
:10406000CF91DF911F910F91FF90EF90DF90CF9054
:10407000BF90AF909F908F907F906F905F904F9088
:104080003F902F900895AB016CEF76E00E94E01E08
:104090000895AF92BF92CF92DF92EF920F93CF939A
:1040A000DF936C018FE790E0C80ED91E82E3F60122
:1040B000808381E090E0A0E0B0E0B293A29392937D
:1040C00082936F0185EF9FEFC80ED91E8FEFF60127
:1040D000808380E99FEFC80ED91EC6010E94F51BA0
:1040E000C6010E94DC12C6016FEF0E94E0126AE076
:1040F000A62EB12CAC0CBD1CC5010E949713C501A6
:104100000E94D913C60148960E944D13C601825BD6
:104110009F4F6DE04BE020E10FE05EE0E52E0E9456
:104120001B1BE601A596CE010E946C23C50165E02C
:104130000E94A713882329F0CE0160E00E945F232C
:1041400006C0CE016DEF76E040E00E945221DF9183
:10415000CF910F91EF90DF90CF90BF90AF900895E7
:104160000F93DC01002309F069C0623009F443C0F9
:10417000633030F4662359F0613009F05FC00DC040
:10418000633009F444C0643009F058C04CC04B306F
:1041900008F04AE056964C9351C0842F90E0880F67
:1041A000991F1F962D913C915097280F391FF901A7
:1041B0008591949190969C938E935F97FC01459185
:1041C000549114968C911497849F602D112491968C
:1041D0006C939197252F3327862F90E02817390766
:1041E00008F4652F14968C911497689F802D1124E4
:1041F00092968C9323C014968C911497489F802D8F
:10420000112459968C9359975A962C9317C014964B
:104210008C911497489F802D11245B968C935B970B
:104220005C962C930BC014968C911497489F802D0C
:1042300011245D968C935D975E962C930F91089553
:10424000FC01222371F4648B8481489F802D11240A
:10425000858B15A214A213A281E0878B8093160789
:10426000108E0895FC01662369F4178A158A14A23A
:1042700013A2108E109219071092180710921607A9
:104280001092B4000895CF93DF93EC01662319F4E4
:104290000E9432211982DF91CF91089560E00E943F
:1042A000432108950F931F93CF93DF93EC018B016C
:1042B000442371F460E00E9443211E870D871B8A0E
:1042C0001A8A81E0898389E08E8B198E1B8E1D8E60
:1042D000DF91CF911F910F910895CF93DF93EC0160
:1042E000662339F58881882321F18981882309F59E
:1042F000898590E0880F991FEF81F885E80FF91FF5
:10430000859194912FEF8F3F920711F4188211C07D
:104310009C8790E0880F991FEA85FB85E80FF91FBD
:1043200065917491CE0140E00E94522189858F5F92
:104330008987DF91CF91089560E00E946D210895F3
:104340000F93CF93DF93EC01662309F068C0898156
:10435000882309F464C08D89882309F060C0EA8944
:10436000FB89EE0FFF1F4D855E85E40FF51F25913C
:1043700034912115310509F040C08989813031F42B
:104380001B8A1A8AFA012591349137C019828881D3
:10439000882379F0CE0160E00E946D218A899B8993
:1043A000880F991FED85FE85E80FF91F259134913F
:1043B00024C0CE0160E00E94322131C0E6E0369593
:1043C0002795EA95E1F76F70422F4F7175E03695AA
:1043D00027957A95E1F72051CE0100E00E94B020A8
:1043E0008A899B8901969B8B8A8B880F991FED8503
:1043F000FE85E80FF91F25913491B90176956795EF
:104400007695679520FDDACF6F73432FCE0120E0BC
:104410000E9420218A899B8901969B8B8A8BDF9140
:10442000CF910F91089560E00E94A0210895CF934D
:10443000DF93EC01662309F0D6C08F89882309F445
:10444000D2C08D89882321F4CE010E943221CBC0B5
:1044500081508D8B8DA1882309F03BC08BA19CA13D
:104460000196880F991FEF8DF8A1E80FF91F85912C
:104470009491282F27702EA3AC0163E056954795A1
:104480006A95E1F79A0136952795892F99278695A0
:1044900086958FA32F738C81289F202D11242DA307
:1044A000417040931A078BA19CA101969CA38BA3FA
:1044B00029A130E08217930760F08AA1882329F0B0
:1044C000281B31093CA32BA304C0CE0160E00E944D
:1044D00032218DA181508DA3988D9F5F988F2FA140
:1044E0008C89280F8C85280F2A836B8D662369F0B1
:1044F000892F992787FD909570E00E94F02B8C8D75
:10450000869F802D1124820F8A838A8190E0CB962A
:104510006BE370E00E94F02B8A832E892B83698DD8
:10452000662379F0888D772767FD7095992787FD39
:1045300090950E94F02B8A8D869F802D1124820FEA
:104540008B836D8D662399F0888D992787FD9095D3
:1045500070E00E94F02BCB0162E070E00E94F02B33
:104560009E8D899F802D11249B81890F8B838B8148
:104570008A300CF089E087FD80E08B838C898F3353
:1045800009F41B82F894EA81F0E0EF5DF84FE491C2
:10459000E09317072D8130E08B81992787FD909557
:1045A000A901489F9001499F300D589F300D11245B
:1045B00088A590E0A901489F9001499F300D589F20
:1045C000300D11248EA1992787FD9095AC01249F71
:1045D000C001259F900D349F900D112480931807E2
:1045E000809319077894DF91CF91089560E00E943D
:1045F0001722089560911807662381F180911507AD
:104600008F5F8093150790911707891738F130E075
:1046100080911607882309F431E030931607109231
:10462000150780911A078823A9F080914A0423E492
:10463000829FC0011124895B80934A0490E070E05E
:104640000E94DC2B8093190705C080911907809385
:10465000B40008953323C9F780E0F9CF08951F927D
:104660000F920FB60F9211242F933F934F935F93A6
:104670006F937F938F939F93AF93BF93EF93FF932A
:104680000E94FA22FF91EF91BF91AF919F918F917C
:104690007F916F915F914F913F912F910F900FBE3E
:1046A0000F901F90189569E177E040E00E94522139
:1046B00008956BE077E040E00E9452210895FC01EC
:1046C000862F668170E06F5F7F4F992787FD9095F9
:1046D0000E94F02B858308950F93FC0181E0848371
:1046E00084E080A78CE597E0908B8787CF0161E01D
:1046F00040E020E000E00E94B02083E061E070E054
:104700000E94A524E1EBF0E08081887F81608083B6
:10471000F89410928000E1E8F0E010821092850099
:104720001092840088E191E0909389008093880042
:10473000808188608083808181608083EFE6F0E003
:1047400080818260808378940F9108951F920F92E8
:104750000FB60F9211242F933F938F939F93AF9394
:10476000BF9380911F0790912007A0912107B091DE
:104770002207309123070196A11DB11D232F2D5F24
:104780002D3720F02D570196A11DB11D2093230731
:1047900080931F0790932007A0932107B0932207CF
:1047A00080911B0790911C07A0911D07B0911E07D7
:1047B0000196A11DB11D80931B0790931C07A09328
:1047C0001D07B0931E07BF91AF919F918F913F91AD
:1047D0002F910F900FBE0F901F9018958FB7F894E0
:1047E00020911F0730912007409121075091220707
:1047F0008FBFB901CA0108959FB7F89420911B0794
:1048000030911C0740911D0750911E0786B5A89B4B
:1048100006C08F3F21F02F5F3F4F4F4F5F4F9FBF2D
:10482000542F432F322F2227280F311D411D511D98
:1048300082E0220F331F441F551F8A95D1F7B9011B
:10484000CA010895EF92FF920F931F93CF93DF93C6
:104850007B018C010E94FC23EB010EC00E94FC2313
:104860006C1B7D0B685E7340C8F30894E108F10887
:1048700001091109C851DC4FE114F10401051105CA
:1048800069F7DF91CF911F910F91FF90EF900895FD
:10489000789484B5826084BD84B5816084BD85B51B
:1048A000826085BD85B5816085BDEEE6F0E08081E2
:1048B00081608083E1E8F0E0108280818260808303
:1048C000808181608083E0E8F0E080818160808386
:1048D000E1EBF0E0808184608083E0EBF0E08081B8
:1048E00081608083EAE7F0E080818460808380815A
:1048F0008260808380818160808380818068808302
:104900001092C1000895982F8E3008F09E50977035
:1049100080914B048295880F880F807C892B80932F
:104920007C0080917A00806480937A0080917A0084
:1049300086FDFCCF2091780040917900942F80E093
:1049400030E0282B392BC90108951F93CF93DF93B3
:10495000182FEB0161E00E940525209709F44AC059
:10496000CF3FD10509F449C0E12FF0E0E255F84FFF
:1049700084918330C1F0843028F4813051F082304A
:10498000B1F50CC0863019F1873049F1843079F5E2
:1049900014C084B5806884BDC7BD33C084B580624F
:1049A00084BDC8BD2EC08091800080688093800047
:1049B000D0938900C093880024C0809180008062D9
:1049C00080938000D0938B00C0938A001AC080919E
:1049D000B00080688093B000C093B30012C0809193
:1049E000B00080628093B000C093B4000AC0C038A9
:1049F000D1051CF4812F60E002C0812F61E00E948C
:104A00007125DF91CF911F910895CF93DF93482FA8
:104A100050E0CA018656984FFC0134914A57584FCE
:104A2000FA018491882369F190E0880F991FFC01B5
:104A3000E859F84FA591B491FC01EE58F84FC59193
:104A4000D491662351F42FB7F8948C91932F9095BD
:104A500089238C93888189230BC0623061F42FB73E
:104A6000F8948C91932F909589238C938881832B34
:104A700088832FBF06C09FB7F8948C91832B8C93AB
:104A80009FBFDF91CF910895833071F0843028F477
:104A90008130A1F0823021F514C08630B1F087302A
:104AA000D1F08430E9F404C0809180008F7703C096
:104AB000809180008F7D80938000089584B58F77EA
:104AC00002C084B58F7D84BD08958091B0008F773A
:104AD0008093B00008958091B0008F7D8093B000E6
:104AE0000895FF920F931F93F62E482F50E0CA01AE
:104AF0008255984FFC012491CA018656984FFC01BB
:104B000014914A57584FFA0104910023C9F0222307
:104B100019F0822F0E944425E02FF0E0EE0FFF1FD6
:104B2000EE58F84FA591B4919FB7F894FF2021F467
:104B30008C911095812302C08C91812B8C939FBF07
:104B40001F910F91FF9008950F931F93482F50E0EE
:104B5000CA018255984FFC012491CA018656984F8C
:104B6000FC0104914A57584FFA011491112319F48A
:104B700020E030E015C0222319F0822F0E94442546
:104B8000812F90E0880F991F8458984FFC01A591C0
:104B9000B4918C9120E030E0802311F021E030E0EE
:104BA000C9011F910F910895CF93DF930E9448246C
:104BB0000E949612C0E0D0E00E946F122097E1F3AD
:104BC0000E940000F9CFCF92DF92EF92FF920F93F5
:104BD0001F93CF93DF937C016B018A01C0E0D0E08B
:104BE0000FC0D6016D916D01D701ED91FC9101903F
:104BF000F081E02DC7010995C80FD91F0150104061
:104C00000115110571F7CE01DF91CF911F910F9121
:104C1000FF90EF90DF90CF900895EF92FF920F9367
:104C20001F93CF93DF937C018B01C0E0D0E0F801AC
:104C30000F5F1F4F6491662359F0D701ED91FC91EE
:104C40000190F081E02DC7010995C80FD91FEFCF62
:104C5000CE01DF91CF911F910F91FF90EF900895BA
:104C6000DC01ED91FC910190F081E02D0995089512
:104C7000EF92FF920F931F938C01DC01ED91FC9159
:104C80000190F081E02D6DE009957C01D801ED9156
:104C9000FC910190F081E02DC8016AE009959C012A
:104CA0002E0D3F1DC9011F910F91FF90EF900895A8
:104CB000EF92FF920F931F937C010E940D268C01AF
:104CC000C7010E9438269C01200F311FC9011F9186
:104CD0000F91FF90EF900895CF93DF93EC01611552
:104CE000710519F420E030E00FC0DB010D900020C9
:104CF000E9F71197A61BB70BE881F9810280F381D0
:104D0000E02DAD0109959C01C901DF91CF91089576
:104D10004F925F927F928F929F92AF92BF92CF926B
:104D2000DF92EF92FF920F931F93DF93CF93CDB754
:104D3000DEB7A1970FB6F894DEBF0FBECDBF2C0132
:104D4000742ECB01223008F42AE019A231E2C32EDE
:104D5000D12CCC0EDD1E822E9924AA24BB24672DD3
:104D6000752FA50194010E94032C79018A01C801C5
:104D7000B701A50194010E94B12B472D461B089451
:104D8000C108D1084A3014F4405D01C0495CF60105
:104D90004083E114F1040105110521F07E2C5F2D03
:104DA000C801DDCFC201B6010E946C26A1960FB6E4
:104DB000F894DEBF0FBECDBFCF91DF911F910F9151
:104DC000FF90EF90DF90CF90BF90AF909F908F902B
:104DD0007F905F904F900895DC012115310541F4DB
:104DE000ED91FC910190F081E02D642F09950895DB
:104DF0000E9488260895EF92FF920F931F939A01C5
:104E00007B0100E010E0B801A7010E94EC261F9191
:104E10000F91FF90EF900895CF92DF92EF92FF9263
:104E20000F931F93CF93DF93EC016A017B01211550
:104E3000310541F4E881F9810190F081E02D642F82
:104E400009951FC02A303105D1F477FF17C0E881DA
:104E5000F9810190F081E02D6DE209958C014427E4
:104E60005527BA014C195D096E097F09CE012AE068
:104E70000E9488269801280F391F04C02AE00E944A
:104E800088269C01C901DF91CF911F910F91FF905E
:104E9000EF90DF90CF900895EF92FF920F931F93C2
:104EA0007B019A010027F7FC0095102FB801A7019C
:104EB0000E940C271F910F91FF90EF9008952F9261
:104EC0003F924F925F926F927F928F929F92AF929A
:104ED000BF92CF92DF92EF92FF920F931F93DF93D7
:104EE000CF93CDB7DEB73B014C0119012A016D8983
:104EF0007E898F89988D6A197B098C099D09621AB0
:104F0000730A840A950AA40193010E94B12BE21846
:104F1000F30804091509A80197010E94252C2A0D00
:104F20003B1D4C1D5D1DB901CA01CF91DF911F9141
:104F30000F91FF90EF90DF90CF90BF90AF909F9038
:104F40008F907F906F905F904F903F902F9008953B
:104F5000EF92FF920F931F937B018C0161157105F6
:104F60008105910529F420E030E040E050E00BC0DD
:104F70000E94992CA80197010E94252CAC01CB011D
:104F8000DA019C01AD01B901CA011F910F91FF9097
:104F9000EF900895EF92FF920F931F937B018C0186
:104FA000621773078407950764F4261B370B480BB9
:104FB000590BCA01B9010E94A827E60EF71E081F67
:104FC000191FB701C8011F910F91FF90EF9008952D
:104FD0005058BB27AA270ED075C166D130F06BD1CF
:104FE00020F031F49F3F11F41EF45BC10EF4E09504
:104FF000E7FB51C1E92F77D180F3BA176207730736
:105000008407950718F071F49EF58FC10EF4E095B2
:105010000B2EBA2FA02D0B01B90190010C01CA0172
:10502000A0011124FF27591B99F0593F50F4503E1D
:1050300068F11A16F040A22F232F342F4427585F0F
:10504000F3CF469537952795A795F0405395C9F727
:105050007EF41F16BA0B620B730B840BBAF09150DF
:10506000A1F0FF0FBB1F661F771F881FC2F70EC07E
:10507000BA0F621F731F841F48F487957795679551
:10508000B795F7959E3F08F0B3CF9395880F08F03A
:105090009927EE0F979587950895D9D008F481E068
:1050A00008950CD00FC107D140F0FED030F021F4AC
:1050B0005F3F19F0F0C0511139C1F3C014D198F31A
:1050C0009923C9F35523B1F3951B550BBB27AA2789
:1050D00062177307840738F09F5F5F4F220F331FFB
:1050E000441FAA1FA9F333D00E2E3AF0E0E830D0C7
:1050F00091505040E695001CCAF729D0FE2F27D0CA
:10510000660F771F881FBB1F261737074807AB0797
:10511000B0E809F0BB0B802DBF01FF2793585F4F0C
:105120002AF09E3F510568F0B6C000C15F3FECF326
:10513000983EDCF3869577956795B795F7959F5FD1
:10514000C9F7880F911D9695879597F90895E1E025
:10515000660F771F881FBB1F621773078407BA0784
:1051600020F0621B730B840BBA0BEE1F88F7E095DF
:10517000089504D06894B111D9C00895BCD088F0C6
:105180009F5790F0B92F9927B751A0F0D1F0660F33
:10519000771F881F991F1AF0BA95C9F712C0B1304E
:1051A00081F0C3D0B1E00895C0C0672F782F882761
:1051B000B85F39F0B93FCCF3869577956795B3958D
:1051C000D9F73EF490958095709561957F4F8F4FFC
:1051D0009F4F0895E89409C097FB3EF49095809501
:1051E000709561957F4F8F4F9F4F9923A9F0F92FAD
:1051F00096E9BB279395F695879577956795B7952B
:10520000F111F8CFFAF4BB0F11F460FF1BC06F5F10
:105210007F4F8F4F9F4F16C0882311F096E911C022
:10522000772321F09EE8872F762F05C0662371F043
:1052300096E8862F70E060E02AF09A95660F771F57
:10524000881FDAF7880F9695879597F90895990F33
:105250000008550FAA0BE0E8FEEF16161706E80740
:10526000F907C0F012161306E407F50798F0621B61
:10527000730B840B950B39F40A2661F0232B242B36
:10528000252B21F408950A2609F4A140A6958FEF55
:10529000811D811D089597F99F6780E870E060E0A7
:1052A00008959FEF80EC089500240A9416161706BF
:1052B00018060906089500240A9412161306140607
:1052C00005060895092E0394000C11F4882352F06A
:1052D000BB0F40F4BF2B11F460FF04C06F5F7F4F22
:1052E0008F4F9F4F089557FD9058440F551F59F009
:1052F0005F3F71F04795880F97FB991F61F09F3FC3
:1053000079F087950895121613061406551FF2CFEB
:105310004695F1DF08C0161617061806991FF1CF3B
:1053200086957105610508940895E894BB27662762
:105330007727CB0197F908958ADF08F48FEF089556
:105340000BD0C0CFB1DF28F0B6DF18F0952309F0FD
:10535000A2CFA7CF1124EACFC6DFA0F3959FD1F348
:10536000950F50E0551F629FF001729FBB27F00D13
:10537000B11D639FAA27F00DB11DAA1F649F662768
:10538000B00DA11D661F829F2227B00DA11D621FB7
:10539000739FB00DA11D621F839FA00D611D221F71
:1053A000749F3327A00D611D231F849F600D211D55
:1053B000822F762F6A2F11249F5750408AF0E1F0F8
:1053C00088234AF0EE0FFF1FBB1F661F771F881F41
:1053D00091505040A9F79E3F510570F05CCFA6CF89
:1053E0005F3FECF3983EDCF3869577956795B7952C
:1053F000F795E7959F5FC1F7FE2B880F911D969556
:10540000879597F90895FA01EE0FFF1F3096210551
:10541000310599F16115710561F48038BFE39B078F
:1054200049F168949038810561F08038BFEF9B079F
:1054300041F0992342F5FF3FE1053105210511F1C6
:10544000E8940894E795D901AA2329F4AB2FBE2F3D
:10545000F85FD0F310C0FF5F70F4A695E0F7F7395E
:1054600050F019F0FF3A38F49F779F930CD00F90CB
:1054700007FC905808953EF014CF60E070E080E89B
:105480009FE308954FE79F775F934F933F932F9349
:10549000F5D02F913F914F915F9152DF47C011F4AA
:1054A0000EF4FFCE6FC027DFD0F39923D9F3CEF3EC
:1054B0009F57550B87FF74D00024A0E640EA900167
:1054C00080585695979528F4805C660F771F881F43
:1054D00020F026173707480730F4621B730B840B44
:1054E000202931294A2BA695179407942025312588
:1054F0004A2758F7660F771F881F20F026173707AF
:10550000480730F4620B730B840B200D311D411DD5
:10551000A09581F7B901842F9158880F96958795AA
:10552000089519F40EF0B7CE00CFBBCEE4DEC8F379
:105530009638C0F707F80F92E8942BE33AEA48EB65
:105540005FE70CDF0F920F920F924DB75EB70F928D
:10555000D5D0E8E6F0E02BD04F915F91EF91FF912D
:10556000E595EE1FFF1F49F0FE57E0684427EE0F58
:10557000441FFA95E1F74195550B47D00F9007FE70
:105580003BC008959F3F31F0915020F48795779567
:105590006795B795880F911D9695879597F908950A
:1055A00091505040660F771F881FD2F70895DF9300
:1055B000CF931F930F93FF92EF92DF927B018C01A9
:1055C000689405C0DA2EEF01C7DEFE01E894A591CC
:1055D0002591359145915591AEF3EF010BDDFE011B
:1055E0009701A801DA9479F7DF90EF90FF900F917F
:1055F0001F91CF91DF9108959B01AC0160E070E0B5
:1056000080E89FE34ECD47CEBDCF75DEE8F399230A
:10561000D9F3940F511DBBF39150504094F059F0C1
:10562000882332F0660F771F881F91505040C1F7D2
:105630009E3F510544F7880F911D9695879597F9E0
:1056400008955F3FACF0983E9CF0BB278695779518
:105650006795B79508F4B1609395C1F7BB0F58F7FC
:1056600011F460FFE8CF6F5F7F4F8F4F9F4FE3CF05
:105670005DCE0EF087CF15CE68940DCE3CDEC8F31C
:105680009923D1F3C6F3DF93CF931F930F93FF9228
:10569000C92FDD2788232AF02197660F771F881FDF
:1056A000DAF720E030E040E85FEB9FE3883920F054
:1056B000803E30F021968F778CDCE0E9F0E003C08B
:1056C00088DCEDEBF0E073DF8B01BE01EC01FB2E1B
:1056D0006F5771097595771F880B990B7DDD28E150
:1056E00032E741E35FE338DEAF2D9801AE01FF9072
:1056F0000F911F91CF91DF917DDCE4CDFA01DC01A8
:10570000AA0FBB1F9B01AC01BF5728F422273327E8
:10571000442750781FC0B75188F4AB2F002446951A
:1057200037952795011CA395D2F3002069F0220F2D
:10573000331F441FB395DAF30DD04ACC61307105A5
:10574000A0E88A07B94630F49B01AC0166277727A9
:1057500088279078309621F02083318342835383C9
:105760000895629FD001739FF001829FE00DF11DAB
:10577000649FE00DF11D929FF00D839FF00D749FCB
:10578000F00D659FF00D9927729FB00DE11DF91F77
:10579000639FB00DE11DF91FBD01CF0111240895D4
:1057A000991B79E004C0991F961708F0961B881F73
:1057B0007A95C9F780950895AA1BBB1B51E107C0D4
:1057C000AA1FBB1FA617B70710F0A61BB70B881F91
:1057D000991F5A95A9F780959095BC01CD01089520
:1057E00097FB092E07260AD077FD04D0E5DF06D007
:1057F00000201AF4709561957F4F0895F6F7909503
:1058000081959F4F0895A1E21A2EAA1BBB1BFD0193
:105810000DC0AA1FBB1FEE1FFF1FA217B307E4078F
:10582000F50720F0A21BB30BE40BF50B661F771FE7
:10583000881F991F1A9469F76095709580959095C7
:105840009B01AC01BD01CF01089597FB092E0526F0
:105850000ED057FD04D0D7DF0AD0001C38F4509585
:105860004095309521953F4F4F4F5F4F0895F6F784
:1058700090958095709561957F4F8F4F9F4F0895BC
:10588000EE0FFF1F0590F491E02D0994A0E0B0E029
:10589000ECE4FCE20C94AF2CEC01A880B980CA8047
:1058A000DB80A114B104C104D10441F484E2A82E28
:1058B00089EDB82E8BE5C82E87E0D82EC601B5013C
:1058C0002DE133EF41E050E00E94252C27EA31E43E
:1058D00040E050E00E94B12B7B018C01C601B50174
:1058E0002DE133EF41E050E00E94252CCA01B901BF
:1058F0002CEE34EF4FEF5FEF0E94B12B6E0D7F1D4A
:10590000801F911F97FF04C06150704080409048F5
:10591000688379838A839B839B01AC015F77B9019C
:10592000CA01CDB7DEB7EAE00C94CB2C0E94462C1E
:10593000089587E091E00E94462C08956093070146
:10594000709308018093090190930A0108952F92A2
:105950003F924F925F926F927F928F929F92AF92FF
:10596000BF92CF92DF92EF92FF920F931F93CF934C
:10597000DF93CDB7DEB7CA1BDB0B0FB6F894DEBFE3
:105980000FBECDBF09942A88398848885F846E8409
:105990007D848C849B84AA84B984C884DF80EE8053
:1059A000FD800C811B81AA81B981CE0FD11D0FB65C
:1059B000F894DEBF0FBECDBFED010895F894FFCF80
:1059C0004C4F41444552000100000018041D0422C0
:1059D0000427042C04310436043B0440044504022B
:1059E0000100000000000000000000A842000000CC
:1059F00000000000000000504100003041000000A5
:105A000000000000410000304100007041000080B3
:105A10004000008041000080400000D8410000802C
:105A2000400000804100003041000098410000101B
:105A3000410000A041000010410000F041000010B2
:105A400041000048420000A04000008C42000010CD
:105A50004100008E420000104100008E4200008094
:105A60004100008242000080BF00009A42000020F6
:105A700041000096420000004100009642000020D4
:105A80004200006042000024420000444200001036
:105A9000420000864200001C42000086420000F8DE
:105AA000410000864200001C420000204100002806
:105AB0004200002041000028420000204100004038
:105AC00042000020410000404200008442000040AB
:105AD0004200008442000040420000964200002044
