:100000000C942B030C9453030C9453030C94530340
:100010000C9453030C9453030C9453030C94530308
:100020000C9453030C9453030C9453030C94B21389
:100030000C9453030C9453030C9453030C945303E8
:100040000C9429140C9453030C9453030C945303F1
:100050000C9453030C9453030C9453030C945303C8
:100060000C9453030C945303582C02A0000000007E
:10007000000000000002000000000000000001C0BD
:1000800003400000000000000003380200000000F0
:1000900000000000060C0700000000000000001C2B
:1000A0000604400000000000000010021C000000D8
:1000B00000000000001FFEF2000000000000000031
:1000C000100248000000000000000010E200800064
:1000D00000000000000011124200000000000000BB
:1000E00000191200000000000000000008E30000FA
:1000F000000000000000000B1B00000000000000DA
:1001000000000A0B00000000000000000FEFFF00DD
:1001100000000000000000083FFF02AAAAA00000A3
:1001200000000C00000355556000000000040000B2
:100130000200002000000000040000020000200077
:100140000000000400000221042000000000040060
:10015000000112832000000000040000008C044015
:1001600000000000040000004208800000000004BD
:1001700000000021090000000000040000001FFE34
:10018000000000000004000000180600000000004D
:100190000400000008040000000000040000000843
:1001A000040000000000040000000804000000003B
:1001B000000400000008040000000000041F00000C
:1001C0000804000000000007F9C0000984000000D6
:1001D0000000061060000A44000000000004103017
:1001E000000A440000000000041010000984000010
:1001F000000000041018000804000000000005D3EF
:1002000088000804000000000005DB8C00080400E2
:1002100000000000040804000804000000000004BE
:1002200008040008040000000000040C0200080498
:100230000000000000040402555806AAAAAAAAAAAF
:10024000AC0402FFFFFFFFFFFFFFFFFFFFFF1010E7
:100250000000070008800880070002002720172000
:100260000FFF0720072007000500050005000D808F
:100270001010001F001100150019000F0086004625
:10028000002F001F004F1FFF004F000F000500054B
:10029000000510100000070108820884074802309A
:1002A000273017480F8007000700070005000500EA
:1002B00005000D801010001F001100150019000F1F
:1002C00004860246016F009F014F003F000F000FA0
:1002D0000005000500055361757665206C6120708E
:1002E00072696E63657373650003053F213F1208F1
:1002F000120A100A0E1C0E0C1E0C141A14161F16CD
:100300001E131E1E1B1E1E1F1E3F213F3A2F3A1793
:100310003D173F213F181F02040A041F0E04040E5C
:100320001F0A1F0A0E0E1F04110E2E252E2F2A2E15
:10033000262929021F02081F08150E04040E150E97
:1003400015151B151B040604040C040000000017FF
:10035000000300031F0A1F16371A1904130A153A5F
:10036000000300000E11110E000A040A040E04001E
:1003700030000404040010001804031F111F121F92
:10038000101D151711151F07041F17151D1F151D0B
:1003900001011F1F151F17151F000A00003200045E
:1003A0000A110A0A0A110A040115020E11171E0584
:1003B0001E1F150A0E110A1F110E1F15111F050110
:1003C0000E111D1F041F111F1108100F1F041B1FEA
:1003D00010101F061F1E040F0E110E1F09060E110E
:1003E0002E1F051A121509011F011F101F0F180FCC
:1003F0001F0C1F1B041B031C03191513001F1103E3
:100400000418111F000201022020200001020C121A
:100410001E1F120C0C12120C121F0C1A14041E05B3
:10042000242A1E1F021C141D1020201D1F08141139
:100430001F101E041E1E021C0C120C3E0A040C127D
:100440003E1E040214160A020F120E101E0E100E8B
:100450001E081E120C1226281E322A26041E2100F7
:100460001F00211E040102013F213F0A4E6F20534D
:10047000442063617264206F720A6E6F204C4F419A
:100480004445522E4845580A0A153A457869740081
:100490001D20466C617368696E670A20206C6F616D
:1004A0006465722E2E2E0A0A444F4E27542054554E
:1004B000524E204F464621006D560A0A504C454187
:1004C00053450A5455524E204F4646004C4F572034
:1004D000424154544552590A00177361766500161B
:1004E0006261636B001574797065000A0A0A153A37
:1004F0006F6B617920163A6564697400596F7520D5
:10050000656E74657265640A00540A03E181867F32
:100510003E186D830F0F0E0183866033186DC3196B
:100520008F1803C38E6033186DE330CF1803C39E5A
:10053000603630CDE360CF3006C79E7E3E30CDB30F
:1005400060CF300CC6F6603330D9B660CF33CFCC35
:10055000F66061B0DB1E60CF30D86CE6C061B0DB06
:100560001E618F19986CC6C063B19B0E330F0FB01C
:1005700078C6FF7E1F1B061E0F1753440016137804
:10058000001613140015102000152010000000059F
:100590000089300802380249786814000045006874
:1005A00001000005006801380100000500380168FD
:1005B000010000F6E8DBCFC3B8AEA49B928A827B31
:1005C000746E68625C57524E4945413E3A37343149
:1005D0002E2C29272523211F1D1C1A191716151427
:1005E000131211100F0E0D0C0B0A09080706F20565
:1005F000F6050101F7030101FF03000000002400DC
:1006000027002A0000000000250028002B00000021
:100610000000230026002900040404040404040448
:10062000020202020202030303030303010204089D
:10063000102040800102040810200102040810204C
:100640000000000700020100000304060000000093
:1006500000000000550311241FBECFEFD8E0DEBF1D
:10066000CDBF11E0A0E0B1E0ECEDF4E302C00590F5
:100670000D92AC32B107D9F713E0ACE2B1E001C0A2
:100680001D92AE3BB107E1F716E0C6E5D6E004C027
:100690002297FE010E94D019C435D107C9F70E94E4
:1006A00057160C946C1A0C94000010927D01109255
:1006B0007C0188E291E090937B0180937A01089518
:1006C0008CE291E066ED72E00E94C7101092B301D7
:1006D0001092B20180E190E09093B5018093B40153
:1006E0001092B60108958CE291E00E94AB0E88232F
:1006F000D1F38AE791E060E071E00E9492178AE707
:1007000091E069E071E00E948F178AE791E065E16E
:1007100071E00E948F1786E391E064E00E94F70584
:10072000882309F30E9460030895CF92DF92EF922D
:10073000FF920F931F938CE291E00E94AB0E8823EF
:1007400009F448C186E391E066E00E94F70588233A
:1007500011F00E9460038AE791E060E040E028E643
:1007600030E00E94370986E391E062E041E00E94B8
:1007700001068823F9F06091B2017091B3010091F4
:10078000B4011091B5018CE291E04CE150E02EE40F
:1007900032E0BCE1EB2EF12CA0E7CA2EA2E0DA2E6B
:1007A0000E94C60C8823B9F48091B2019091B301E4
:1007B00001960DC086E391E060E041E00E940106F1
:1007C000882349F08091B2019091B30101979093F1
:1007D000B3018093B2018091B2019091B30197FF70
:1007E00004C01092B3011092B2018091B2019091B5
:1007F000B3018934910534F088E490E09093B3011B
:100800008093B20186E391E064E041E00E9401063A
:10081000882371F08AE791E06091B2014CE12EE407
:1008200032E00E94370981E591E00E94DC1309C0A3
:100830008AE791E06091B2014CE122E932E00E9446
:10084000370986E391E064E00E94F705882331F1DF
:100850006091B2017091B3010091B4011091B501A2
:100860008CE291E04CE150E02EE432E0FCE1EF2E2E
:10087000F12CE0E7CE2EE2E0DE2E0E94C60C8823AB
:1008800069F08091B4019091B50104969093B501FF
:100890008093B40181E591E00E94D6138091B60166
:1008A000882341F08AE791E06091B4014CE120E7B0
:1008B00032E007C08AE791E06091B4014CE124EB9B
:1008C00032E00E9437096091B2017091B30100914A
:1008D000B4011091B5018CE291E04CE150E02EE4BE
:1008E00032E0BCE1EB2EF12CA0E7CA2EA2E0DA2E1A
:1008F0000E94C60C882349F48091B4019091B501FF
:1009000001979093B5018093B40160E070E080E0BE
:1009100090E026E030E040E050E00E9410186115C1
:10092000710581059105B9F58091B60191E089279E
:100930008093B601882379F16091B2017091B3017F
:100940000091B4011091B5018CE291E04CE150E0CE
:100950002EE432E0FCE1EF2EF12CE0E7CE2EE2E0D7
:10096000DE2E0E94C60C8823B1F08091B2019091D6
:10097000B30104979093B3018093B2018091B401C5
:100980009091B50101979093B5018093B40181E5F1
:1009900091E00E94D6132091B2013091B301809171
:1009A000B4019091B5018217930744F4265F3F4F3D
:1009B0003093B5012093B4012A50304023343105DF
:1009C0004CF086E391E065E00E94F705882311F082
:1009D0000E9473031F910F91FF90EF90DF90CF90D3
:1009E00008958CE291E00E94CC100E946003109266
:1009F00044010895882319F48CB5806202C08CB537
:100A00008F7D8CBD08959CB5937F982B9CBD0895D8
:100A10002CB5382F33702C7F322B3CBD2DB590E098
:100A2000959587959595879581702E7F822B8DBDA5
:100A300008958AE061E00E94F4158AE061E00E9476
:100A400088158CB580618CBD8CB580648CBD8DE0C3
:100A500061E00E9488158BE061E00E94881508958E
:100A6000FC0181E08083089585E070E00E942815F4
:100A700008956F927F928F929F92AF92BF92CF9282
:100A8000DF92EF92FF920F931F93CF93DF93EC01CE
:100A900089819A818C0124E0000F111F2A95E1F7CA
:100AA000081B190B85E10E940615BC01600F711F20
:100AB00084E0769567958A95E1F77A8369838881E2
:100AC000882381F12E813F816217730710F4B901E9
:100AD00006C0888599858617970708F4BC0100D061
:100AE00000D080E090E040E050E0E884F98400E04D
:100AF00010E0AD80BB24CC24DD246C8077248824D6
:100B00009924EDB7FEB761827282838294820E943B
:100B1000A5176B830F900F900F900F9085E070E0FA
:100B20000E942815DF91CF911F910F91FF90EF90B8
:100B3000DF90CF90BF90AF909F908F907F906F90FD
:100B40000895FC018CE39FE09383828384E081839A
:100B500081E084870895CF93DF93EC018C8590E04A
:100B60008F719070892B69F584E10E940615AA2780
:100B700097FDA095BA2FBC01CD010E945C1826EE0E
:100B80003FE34EEC50E40E94E8180E942E189B01AF
:100B9000AC017B836A836115710589F084E08983E8
:100BA000B901FE0120E0848195816817790710F46E
:100BB00029830AC02F5F32962430A9F702C08FEF35
:100BC00089838C858F5F8C87DF91CF910895FC019D
:100BD00088E0808389E0818387E0828386E0838365
:100BE00084E0848382E0858381E18683089520E028
:100BF000FC01E60FF11D8781813009F421E0822F8D
:100C00000895E62FF0E0423040F420E0E80FF91FAD
:100C1000878181508E3F88F40FC0E80FF91F8781CC
:100C20008F3F11F420E009C020E090E0642F70E0D5
:100C30000E946A19019709F421E0822F08950F9309
:100C40001F93CF93DF93EC0110E00FEF888162E0F8
:100C50000E94881588810E9427162F81892B19F4FC
:100C60002F5F2F8307C0222349F02F3F11F41F82EB
:100C700001C00F83888160E00E9488151F5F219664
:100C8000173021F7DF91CF911F910F910895FC014B
:100C9000742F643508F05DC047FD5BC040330CF035
:100CA00058C0878D823019F5842F85958595859557
:100CB000992787FD9095462F552747FD509524E5A8
:100CC00030E0829FF001839FF00D929FF00D112480
:100CD000E40FF51FE954FE4F808190E0272F277025
:100CE00002C0959587952A95E2F780958170972F98
:100CF000959595959595462F552747FD5095272F06
:100D000027708823A1F4E4E59E02F0011124E40F8A
:100D1000F51FE954FE4F81E090E002C0880F991F53
:100D20002A95E2F780952081282320830895E4E521
:100D30009E02F0011124E40FF51FE954FE4F81E0FB
:100D400090E002C0880F991F2A95E2F72081282B96
:100D500020830895FC01678F60A30895FC01678FCD
:100D600040A30895AF92BF92CF92DF92EF92FF928D
:100D70000F931F93CF93DF93EC01162FF42EE22EE7
:100D8000AA24402F552747FD50958F2D992787FD81
:100D90009095481B590B57FF03C0509541955F4FE5
:100DA0002E2D332727FD3095812F992787FD90958C
:100DB000281B390B37FF03C0309521953F4F24176F
:100DC000350744F4AA24A3948F2DF12E182F802FD9
:100DD0000E2DE82EE11634F48E2DE12E182F802FE3
:100DE0000F2DF82EDE2CD11A202F332727FD30951A
:100DF0008F2D992787FD9095281B390B37FF03C04E
:100E0000309521953F4FB22EF0161CF0CC24CA9499
:100E100002C0CC24C3948D2DD7FC8F5F082F05957D
:100E200011C0AA2021F0CE016F2D412F03C0CE01A9
:100E3000612F4F2D0E9447060B1907FF02C0FC0CC3
:100E40000D0D1F5FE1166CF7DF91CF911F910F9190
:100E5000FF90EF90DF90CF90BF90AF9008950F93E9
:100E6000042F322F262F2150230F0E94B2060F91FC
:100E700008950F93362F042F0150020F232F0E9445
:100E8000B2060F9108959F92AF92BF92CF92DF92D8
:100E9000EF92FF920F931F93CF93DF936C01B62EC7
:100EA000942EA02EC0E0D0E0E62EFF24E7FCF094C4
:100EB000022F112707FD10950E0D1F1D06C0C6013C
:100EC000492D2A2D0E94390721966B2D6C0FCE01DA
:100ED0008E0D9F1D8017910794F3DF91CF911F9185
:100EE0000F91FF90EF90DF90CF90BF90AF909F90C9
:100EF00008952F923F925F926F927F928F929F926E
:100F0000AF92BF92CF92DF92EF92FF920F931F9317
:100F1000DF93CF9300D000D000D0CDB7DEB79E8353
:100F20008D83C62ED42EEE24E394E21A8EEF289FF2
:100F3000502C1124842E8A94962E9A94A42EA39435
:100F4000B62EB394F22E662423E0722E10E0C80170
:100F5000847090709A838983F801E270F070FC834A
:100F6000EB8398E0292E312C202231220170107061
:100F700054C0E7FC04C0FA94F2E05F0EE50C639401
:100F800089819A81892B71F04F2D4D0D8D819E8124
:100F90006B2D0E9447066F2D6C0D8D819E814A2D11
:100FA0000E944706EB81FC81EF2B71F04D2D4F190C
:100FB0008D819E816B2D0E9447066F2D6C0D8D815A
:100FC0009E81482D0E9447062114310471F06C2D3A
:100FD0006F198D819E814A2D0E9447064F2D4D0D20
:100FE0008D819E81692D0E9447060115110571F0C2
:100FF0006C2D6F198D819E81482D0E9447064D2DC5
:101000004F198D819E81692D0E944706E70CF2E001
:101010007F0E8A949A94A394B3946F140CF4A9CF7E
:1010200026960FB6F894DEBF0FBECDBFCF91DF91ED
:101030001F910F91FF90EF90DF90CF90BF90AF90F6
:101040009F908F907F906F905F903F902F9008952A
:101050004F925F926F927F928F929F92AF92BF92C8
:10106000CF92DF92EF92FF920F931F93CF93DF9374
:10107000EC01A62E742E9E2DFF24F394F21A8EEF0F
:10108000289F802C1124B42EBA9453E0C52ECE0C88
:10109000E22EDD2443E0942E10E031E0432E512C6B
:1010A00040225122692E63940270107034C0F7FC04
:1010B00004C0EA9482E0880EF80CD39441145104E1
:1010C00089F06D2D6A0D472D4E192E2D220F260DFC
:1010D000CE010E9439076E2D6A0DCE014B2D2C2DAD
:1010E0000E9439070115110589F06A2D6D19472DE8
:1010F0004E192E2D220F260DCE010E9439076A2D82
:101100006E19CE014B2D2C2D0E943907F90C82E06F
:10111000980EBA94C80EDE1454F2DF91CF911F914D
:101120000F91FF90EF90DF90CF90BF90AF909F9086
:101130008F907F906F905F904F9008957F928F92E5
:101140009F92AF92BF92CF92DF92EF92FF920F9356
:101150001F936C01962EA42EF22E7E2C760E1EEF7F
:10116000E19E102D1124812E820E672D282D0E94C4
:101170002F07B02EBA0CBA94C601672D4B2D282D1F
:101180000E942F07AE0C100FC601692D4A2D212F8A
:101190000E943907F90CFA94C6016F2D4A2D212FB0
:1011A0000E943907C601672D4A2D2E2D01E00E94AD
:1011B0007907FE18C6016F2D4A2D2E2D02E00E94E0
:1011C0007907BE18C6016F2D4B2D2E2D04E00E940D
:1011D0007907C601672D4B2D2E2D08E00E94790757
:1011E0001F910F91FF90EF90DF90CF90BF90AF9045
:1011F0009F908F907F9008958F929F92AF92BF9211
:10120000CF92DF92EF92FF920F931F936C01162FF4
:10121000A42E922EF02EBE2C8E2C860E2EEFE29E49
:10122000E02C11242E2D290D682D0E944307AB0CB4
:10123000FA94FE0C1150190D1B19C601612F4A2D8D
:101240002B2D01E0EF2C0E942808C601682D4A2DA5
:101250002B2D02E00E9428081F910F91FF90EF9024
:10126000DF90CF90BF90AF909F908F9008953F9266
:101270004F925F926F927F928F929F92AF92BF92A6
:10128000CF92DF92EF92FF920F931F93CF93DF9352
:101290004C01362E442EF901A490319654906F01E2
:1012A0000894C11CD11C8A2D992787FD909507961B
:1012B00068E070E00E947E19E62EFF24E7FCF094BF
:1012C00000E0C0E0D0E060E8662E712C26C0E12F7F
:1012D000E595E595E595FF27E7FDF095EC0FFD1FFA
:1012E000EC0DFD1DE4912E2F30E0812F8770A301BE
:1012F00002C0559547958A95E2F724233523232B81
:1013000031F0612F630DC4014B2D0E9447061F5F12
:101310001A15ECF20F5FCE0DDF1D051524F410E059
:10132000B02EB40CF5CFDF91CF911F910F91FF90AC
:10133000EF90DF90CF90BF90AF909F908F907F9075
:101340006F905F904F903F900895FB018491E42F40
:10135000E695E695E695F0E0329690E00796A3E0F4
:1013600095958795AA95E1F730E0DC01A29FC00131
:10137000A39F900DB29F900D1124E80FF91FE60F67
:10138000F71FE491477080E890E002C0959587953B
:101390004A95E2F78E230895DC01FB0184918F5F6B
:1013A00014968C931497319684918F5F15968C9335
:1013B000159731965E96FC93EE935D9708953F9254
:1013C0004F925F926F927F928F929F92AF92BF9255
:1013D000CF92DF92EF92FF920F931F93CF93DF9301
:1013E000EC01862EA42E422F102F3F8C23E52617CA
:1013F0000CF4ABC03FE23A150CF4A7C0C02EDD24BC
:101400008C8190E001979C01C29EC001C39E900D0B
:10141000D29E900D1124262F332727FD3095820F61
:10142000931F181619060CF090C08D8190E09C0156
:10143000C29EC001C39E900DD29E900D11242A2DF4
:10144000332727FD3095820F931F181619060CF0CD
:101450007CC09924442E55246DC09C0121503040FD
:101460004217530711F460E00EC0429EC001439E34
:10147000900D529E900D1124840F951FED8DFE8DC1
:10148000E80FF91F64914C9DC0014D9D900D5C9D2E
:10149000900D1124682C680EBB24792C780C3FC069
:1014A000E62EFF2460FF19C0113039F44B2D4A0D90
:1014B000CE01672D0E9447062EC02C9DC0012D9D98
:1014C000900D3C9D900D11244A2D480FCE01662DA4
:1014D000212F012F0E9443071EC098A18F8D9817BE
:1014E000D1F09F8F113039F44B2D4A0DCE01672D6D
:1014F0000E9447060FC02C9DC0012D9D900D3C9D64
:10150000900D11244A2D480FCE01662D212F012F59
:101510000E9443073F8EF594E7946E2DB3942B2DD4
:10152000332727FD30958D8190E0281739070CF47B
:10153000B7CF9394492D552747FD50958C8190E066
:10154000481759070CF489CF3F8EDF91CF911F9137
:101550000F91FF90EF90DF90CF90BF90AF909F9052
:101560008F907F906F905F904F903F9008950F9372
:10157000CF93DF93EC01262F6A3049F48D81988553
:10158000899F802D11249A85980F9A8726C06D30E7
:1015900029F169854A8508850E94DF099C81688553
:1015A000969F402D11248985480F49878F81882374
:1015B000A9F0552747FD5095699F9001112484E5B6
:1015C00090E0821B930B8417950744F49D81699FDB
:1015D000902D11248A85890F8A87198681E090E0F1
:1015E000DF91CF910F9108951F93CF93DF93EC017B
:1015F000162FF8948E8560E00E94F4158F851816DA
:101600001CF460E00E94F4151EBD0DB407FEFDCF72
:101610008EB58F8518161CF461E00E94F41578943D
:10162000DF91CF911F910895FF920F931F93CF9356
:10163000DF93EC01FF2400E010E06F2D6064CE0129
:101640000E94F40ACE0160E80E94F40A8E8561E0EF
:101650000E94F4158F8518161CF460E00E94F415A2
:10166000F801E954FE4F90E080818EBD0DB407FE75
:10167000FDCF8EB59F5F31969435B1F78F851816E3
:101680001CF461E00E94F415F3940C5A1F4F86E09D
:10169000F81699F6CE0160E40E94F40ADF91CF912A
:1016A0001F910F91FF900895CF93DF93DC0188EF96
:1016B00091E0E7EBF1E0EF019C01199221503040FD
:1016C000E1F719961C9219971A961C92DF91CF9107
:1016D0000895EF920F93CF93DF93EC014D876C87C2
:1016E0002E87E88A0F8781E088878F8F18A28F83E3
:1016F000CE0169EE72E00E94CC090E94190581E0DA
:101700000E94FA0485E00E9408058CE00E9403050F
:101710008D8561E00E9488158C8561E00E948815A6
:101720008E8561E00E948815888918161CF461E096
:101730000E9488158F8518161CF461E00E94881598
:10174000888918166CF460E00E94F4156AE070E075
:1017500080E090E00E94A514888961E00E94F41561
:10176000EC852E2F332727FD3095F901E85EF94FE0
:10177000E491F0E0EE0FFF1FEC5FF94F859194913B
:101780009C8B8B8B245D394FF90184918A8FED8579
:101790002E2F332727FD3095F901E85EF94FE491AC
:1017A000F0E0EE0FFF1FEC5FF94F859194919A8B5B
:1017B000898B245D394FF9018491898FEF852E2F14
:1017C000332727FD3095F901E85EF94FE491F0E009
:1017D000EE0FFF1FEC5FF94F859194919E8B8D8BDF
:1017E000245D394FF90184918B8FEE852E2F33279D
:1017F00027FD3095F901E85EF94FE491F0E0EE0F36
:10180000FF1FEC5FF94F85919491988F8F8B245D2A
:10181000394FF90184918C8FCE0161E20E94F40A64
:10182000CE0164E10E94F40A8B8587FF02C08FE736
:101830008B876B856068CE010E94F40ACE0160E25E
:101840000E94F40ACE016CE00E94F40ACE010E94CC
:10185000140BDF91CF910F91EF900895CF93DF9309
:10186000DC01E0E8F7E785919491ED01C75ADF4F7D
:10187000AD0141595F4F8150904C09F04EC0E6E9EF
:10188000F7E7E491E883E7E9F7E7E4911496EC934E
:101890001497E8E9F7E7E4911596EC931597E9E9D1
:1018A000F7E78591949117969C938E931697EBE9A1
:1018B000F7E78591949119969C938E931897EDE98B
:1018C000F7E7E4919B96EC939B97EEE9F7E7E491B9
:1018D0009A96EC939A97EFE9F7E7E491EA01E883A7
:1018E000E0EAF7E7859194915D969C938E935C97DF
:1018F000E2EAF7E7859194915F969C938E935E97C9
:10190000E4EAF7E78591949191969C938E93909752
:10191000E6EAF7E78591949132C08CE388831496C8
:101920001C9214972FEF15962C93159780E293E055
:1019300017969C938E93169784ED93E019969C933B
:101940008E93189781E09B968C939B979A968C9395
:101950009A97FA0120838CEA9DE05D969C938E9382
:101960005C978EED9DE05F969C938E935E9784E7E7
:101970009EE091969C938E9390978CE39FE0939634
:101980009C938E939297DF91CF9108952F923F92DF
:101990004F925F926F927F928F929F92AF92BF927F
:1019A000CF92DF92EF92FF920F931F93DF93CF932B
:1019B00000D000D0CDB7DEB79A838983F901849136
:1019C000482E5524319684913197FC83EB83F601A0
:1019D00024910894C11CD11CF60134910894C108CB
:1019E000D1085201A60EB71E0A151B050CF06BC0DC
:1019F000D801A20FB11D6A177B070CF064C0682ED6
:101A00007724C301840F951FE816F9060CF05BC01C
:101A1000F701E30FF11D4E175F070CF054C060177C
:101A200071071CF08824992403C04801861A970A7C
:101A30004E155F051CF020E030E003C09701241B29
:101A4000350BAA16BB0614F4120103C01D01261A99
:101A5000370A8E179F0714F4230103C02F01441A7D
:101A6000550AB22E69807A802EE430E0620E731E31
:101A7000342F3E19E32EEB0CA82CF62EF01AF80C9E
:101A80001DC01A2D0F2D13C0C3016B817C81412F06
:101A90002B2D0E94A509882371F1C301B601402FA7
:101AA0002E2D0E94A509882331F181E00DC0812FE0
:101AB00090E08215930544F3B394E3948B2D90E06A
:101AC00084159505F4F280E00F900F900F900F9021
:101AD000CF91DF911F910F91FF90EF90DF90CF900A
:101AE000BF90AF909F908F907F906F905F904F903E
:101AF0003F902F9008951F5F0F5FD9CFEF92FF9215
:101B00000F931F93CF93DF937C018C01025B1F4FD8
:101B1000C8010E94540BC80160E974E00E9490164D
:101B2000C8010E94140B83E00E94080587E191E040
:101B3000EEEFFFE3099584E590E0E80EF91EF7016A
:101B40001082C8016BE674E00E94DB16C8010E9497
:101B5000140BE701CA54D040CE010E941F06CE01EB
:101B600064E00E94F705882339F462E370E080E0C6
:101B700090E00E94A514F0CFDF91CF911F910F91BB
:101B8000FF90EF9008950F931F93CF93DF93EC0195
:101B90008C01025B1F4FC80161E040E00E94AE066D
:101BA000FE01E95AFF4FCE5ADF4F85E59881891B28
:101BB000808326961882C855D040698D613009F41B
:101BC0003EC0613028F0888D653008F051C04BC0B0
:101BD000CE0185960E94D111CE0160E00E943405AD
:101BE000C8010E94540BCA5ADF4F81E08883C65552
:101BF000D040C8016CEC74E00E9490166A8D7B8D19
:101C0000C8014AE050E00E947E17C80168EB74E00A
:101C10000E949016C8010E94140B83B7817F8460D4
:101C200083BF83B7816083BF83B7816083BF88959B
:101C300083B78E7F83BF83B78E7F83BF1FC0C0599A
:101C4000DF4F88819981AA81BB818F709070A070CD
:101C5000B0700897A105B10518F4C80167E00CC081
:101C6000C80168E709C0882349F06B5FC80104C058
:101C7000882321F0C8016FE20E94B316DF91CF9153
:101C80001F910F910895AF92BF92CF92DF92EF9282
:101C9000FF920F931F93CF93DF93EC01CB57DF4F4E
:101CA0008881C558D040882309F44AC08C3010F090
:101CB00010E002C01CE0181BCA5ADF4F81E0888385
:101CC000C655D0406EE4C62ED12CCC0EDD1EC6010A
:101CD00060E00E94AA0653E5A52EB12CAC0EBD1EF5
:101CE000F50100814DE2F42E4F2D401B410F0D5F99
:101CF000C60160E024E533E0E32E0E94FC08C60143
:101D000061E00E94AA06F5010081F01AF10E0D5F54
:101D1000C60160E04F2D24E50E949E08C95ADF4F9E
:101D200084E08993F5018081181B115D1883AB96BF
:101D300069917991C6010E949016888181508883AB
:101D4000DF91CF911F910F91FF90EF90DF90CF9097
:101D5000BF90AF900895AF92BF92CF92DF92EF9273
:101D6000FF920F931F93CF93DF93EC01EFE7AE2E1B
:101D7000B12CA80EB91EF501E080F180028113811B
:101D80000E947114E61AF70A080B190B7EE7C72E9A
:101D9000D12CCC0EDD1EF601808190E0A0E0B0E0F9
:101DA0008E159F05A007B10708F081C08E01065867
:101DB0001F4FF80180819181A281B3810097A10515
:101DC000B10509F474C00E947114F6012081620FFC
:101DD000711D811D911DF501608371838283938341
:101DE000FE01E059FF4F80819181A281B38101966C
:101DF000A11DB11D80839183A283B383F80110825A
:101E00001182128213820E947F14CA58DF4F6883A6
:101E100079838A839B83C657D040CE010E943905BF
:101E2000CE010A960E941F06CE0148960E94AB057D
:101E300081E032C08E010B5D1F4FC8010E941F124E
:101E4000C8010E949612C8010E947913CE010E9417
:101E5000430ECE010E94C30D8E01025B1F4FC801CD
:101E60000E94140BCC5ADF4F8881C455D040882380
:101E700019F4C8010E94540B0E947F14C658DF4F0A
:101E8000688379838A839B83249728813981621BA5
:101E9000730B7A936A9380E0DF91CF911F910F913A
:101EA000FF90EF90DF90CF90BF90AF900895C6580D
:101EB000DF4F88819981AA81BB81CA57D0400097A2
:101EC000A105B10541F7B6CF2F923F924F925F9295
:101ED0006F927F928F929F92AF92BF92CF92DF923A
:101EE000EF92FF920F931F93DF93CF93CDB7DEB79F
:101EF0002B970FB6F894DEBF0FBECDBF9B878A87A6
:101F00007A8369835C834B838C0101591F4FF801ED
:101F10008081882309F422C18A859B858A5A9F4F34
:101F20009B878A8781E0EA85FB85808312921292E3
:101F3000E455F040FB87EA87108E9EE4E92EF12CF1
:101F4000EE0EFF1EC70161E00E94AA068AE0282E5D
:101F5000312C8A859B85280E391EB5E26B2E712C9B
:101F6000680E791EE981FA81F491FD83A7E58A2E36
:101F7000912C880E991EF8E5CF2ED12CC80ED91EB3
:101F8000E2E54E2E512C480E591E8D5A9F4F9F83CD
:101F90008E8370E7A72EB12C8A859B85A80EB91E6B
:101FA000198708878A859B850E94AB0E8823D1F309
:101FB0009D81992311F410E003C0EE81FF8110810F
:101FC000C70160E040E029E035E00E9437098B81DD
:101FD0009C81892B41F0145FC70160E0412F2B8168
:101FE0003C810E943709F40110828CE0F601808365
:101FF000C70169817A810E949016F201208130E048
:10200000C901880F991F820F931F909581959F4F4B
:102010008D5AF4018083EE81FF81208130E0C90177
:10202000880F991F820F931F909581959F4F835D15
:10203000F6018083F501808184FF04C0C70169E84F
:1020400075E003C0C70165E875E00E94DB16F20188
:10205000208130E0C901880F991F820F931F90954E
:1020600081959F4F8D5AF4018083F60180818F5FA7
:102070008083EA85FB8582A5882321F0C70161E87A
:1020800075E003C0C7016DE775E00E94DB16F20141
:10209000808190E09C01220F331F280F391F30955B
:1020A00021953F4F2D5AF4012083F60180818F5FE7
:1020B0008083C70169E775E00E94DB16C10165E016
:1020C0000E94F705882351F0EA85FB8562A56F5FC2
:1020D000C3010E94E213C3010E94DC13C10164E04A
:1020E0000E94F705882399F4E885F9856081262FF9
:1020F00030E040E050E0F50180819181A281B38120
:1021000082179307A407B50708F16F3FF9F08A8596
:102110009B8581599F4F9B878A878FEFEA85FB8537
:102120008083EF56F040FB87EA87C30160E00E949E
:10213000C611C3010E94D61381E0EA85FB85808F1A
:102140000DC08A859B850E947E0D2CCFC10166E063
:102150000E94F705882309F425CFF3CF2B960FB6FD
:10216000F894DEBF0FBECDBFCF91DF911F910F91CD
:10217000FF90EF90DF90CF90BF90AF909F908F90A7
:102180007F906F905F904F903F902F90089540E028
:1021900050E00E94640F0895AF92BF92CF92DF92F9
:1021A000EF920F93CF93DF936C018EE790E0C80E10
:1021B000D91E82E3F601808381E090E0A0E0B0E0E8
:1021C000B293A293929382936F0185EF9FEFC80E13
:1021D000D91E8FEFF601808381E99FEFC80ED91ECB
:1021E000C6010E942E0CC6010E943005C6016FEF89
:1021F0000E9434054AE0A42EB12CAC0CBD1CC501D4
:102200000E94E705C5010E941F06C60148960E946C
:10221000A105C601825B9F4F6DE04BE020E10FE01E
:102220003EE0E32E0E94690BE601A596CE010E94D6
:10223000EF13C50165E00E94F705882329F0CE0160
:1022400060E00E94E21306C0CE016FE875E040E056
:102250000E94D511DF91CF910F91EF90DF90CF9039
:10226000BF90AF9008950F93DC01002309F069C07F
:10227000623009F443C0633030F4662359F06130B2
:1022800009F05FC00DC0633009F444C0643009F048
:1022900058C04CC04B3008F04AE056964C9351C0A1
:1022A000842F90E0880F991F1F962D913C91509795
:1022B000280F391FF9018591949190969C938E93E4
:1022C0005F97FC014591549114968C911497849FCB
:1022D000602D112491966C939197252F3327862F8B
:1022E00090E02817390708F4652F14968C911497FD
:1022F000689F802D112492968C9323C014968C9104
:102300001497489F802D112459968C9359975A966B
:102310002C9317C014968C911497489F802D1124EC
:102320005B968C935B975C962C930BC014968C9168
:102330001497489F802D11245D968C935D975E962F
:102340002C930F910895FC01222371F4648B8481F6
:10235000489F802D1124858B15A214A213A281E021
:10236000878B8093B003108E0895FC01662369F477
:10237000178A158A14A213A2108E1092B30310921A
:10238000B2031092B0031092B4000895CF93DF937C
:10239000EC01662319F40E94B5111982DF91CF91E7
:1023A000089560E00E94C61108950F931F93CF9384
:1023B000DF93EC018B01442371F460E00E94C611AD
:1023C0001E870D871B8A1A8A81E0898389E08E8B9C
:1023D000198E1B8E1D8EDF91CF911F910F91089545
:1023E000CF93DF93EC01662339F58881882321F1AF
:1023F0008981882309F5898590E0880F991FEF81ED
:10240000F885E80FF91F859194912FEF8F3F920780
:1024100011F4188211C09C8790E0880F991FEA85FB
:10242000FB85E80FF91F65917491CE0140E00E9491
:10243000D51189858F5F8987DF91CF91089560E0FD
:102440000E94F01108950F93CF93DF93EC01662360
:1024500009F068C08981882309F464C08D898823C4
:1024600009F060C0EA89FB89EE0FFF1F4D855E858C
:10247000E40FF51F259134912115310509F040C075
:102480008989813031F41B8A1A8AFA0125913491A5
:1024900037C019828881882379F0CE0160E00E94DC
:1024A000F0118A899B89880F991FED85FE85E80FB9
:1024B000F91F2591349124C0CE0160E00E94B5112E
:1024C00031C0E6E036952795EA95E1F76F70422F27
:1024D0004F7175E0369527957A95E1F72051CE0139
:1024E00000E00E9433118A899B8901969B8B8A8B1D
:1024F000880F991FED85FE85E80FF91F259134910E
:10250000B901769567957695679520FDDACF6F735B
:10251000432FCE0120E00E94A3118A899B89019656
:102520009B8B8A8BDF91CF910F91089560E00E9481
:1025300023120895CF93DF93EC01662309F0D6C0F0
:102540008F89882309F4D2C08D89882321F4CE0194
:102550000E94B511CBC081508D8B8DA1882309F0CD
:102560003BC08BA19CA10196880F991FEF8DF8A10C
:10257000E80FF91F85919491282F27702EA3AC01A5
:1025800063E0569547956A95E1F79A013695279548
:10259000892F9927869586958FA32F738C81289FE5
:1025A000202D11242DA341704093B4038BA19CA135
:1025B00001969CA38BA329A130E08217930760F0BA
:1025C0008AA1882329F0281B31093CA32BA304C02E
:1025D000CE0160E00E94B5118DA181508DA3988D30
:1025E0009F5F988F2FA18C89280F8C85280F2A83B5
:1025F0006B8D662369F0892F992787FD909570E090
:102600000E947E198C8D869F802D1124820F8A83D3
:102610008A8190E0CB966BE370E00E947E198A83FA
:102620002E892B83698D662379F0888D772767FD46
:102630007095992787FD90950E947E198A8D869FB7
:10264000802D1124820F8B836D8D662399F0888DE8
:10265000992787FD909570E00E947E19CB0162E07A
:1026600070E00E947E199E8D899F802D11249B8190
:10267000890F8B838B818A300CF089E087FD80E0A5
:102680008B838C898F3309F41B82F894EA81F0E004
:10269000ED54FA4FE491E093B1032D8130E08B814A
:1026A000992787FD9095A901489F9001499F300D7A
:1026B000589F300D112488A590E0A901489F9001F2
:1026C000499F300D589F300D11248EA1992787FD09
:1026D0009095AC01249FC001259F900D349F900DD3
:1026E00011248093B2038093B3037894DF91CF9148
:1026F000089560E00E949A1208956091B2036623E3
:1027000081F18091AF038F5F8093AF039091B1030C
:10271000891738F130E08091B003882309F431E063
:102720003093B0031092AF038091B4038823A9F0D3
:102730008091220123E4829FC0011124895B809350
:10274000220190E070E00E946A198093B30305C0F3
:102750008091B3038093B40008953323C9F780E0D8
:10276000F9CF08951F920F920FB60F9211242F9355
:102770003F934F935F936F937F938F939F93AF9309
:10278000BF93EF93FF930E947D13FF91EF91BF9151
:10279000AF919F918F917F916F915F914F913F91F9
:1027A0002F910F900FBE0F901F9018956BEA75E058
:1027B00040E00E94D51108956DE975E040E00E9467
:1027C000D5110895FC01862F668170E06F5F7F4F01
:1027D000992787FD90950E947E19858308950F9310
:1027E000FC0181E0848384E080A78EEE95E0908BED
:1027F0008787CF0161E040E020E000E00E943311D4
:1028000083E061E070E00E942815E1EBF0E0808158
:10281000887F81608083F89410928000E1E8F0E086
:102820001082109285001092840088E191E09093CC
:1028300089008093880080818860808380818160A6
:102840008083EFE6F0E080818260808378940F914E
:1028500008951F920F920FB60F9211242F933F935A
:102860008F939F93AF93BF938091B9039091BA03D5
:10287000A091BB03B091BC033091BD030196A11D93
:10288000B11D232F2D5F2D3720F02D570196A11D4F
:10289000B11D2093BD038093B9039093BA03A09315
:1028A000BB03B093BC038091B5039091B603A09194
:1028B000B703B091B8030196A11DB11D8093B50374
:1028C0009093B603A093B703B093B803BF91AF91B1
:1028D0009F918F913F912F910F900FBE0F901F905E
:1028E00018958FB7F8942091B9033091BA034091AD
:1028F000BB035091BC038FBFB901CA0108959FB7B4
:10290000F8942091B5033091B6034091B7035091EC
:10291000B80386B5A89B06C08F3F21F02F5F3F4FBD
:102920004F4F5F4F9FBF542F432F322F2227280F27
:10293000311D411D511D82E0220F331F441F551FC1
:102940008A95D1F7B901CA010895EF92FF920F93CA
:102950001F93CF93DF937B018C010E947F14EB01C7
:102960000EC00E947F146C1B7D0B685E7340C8F321
:102970000894E108F10801091109C851DC4FE1147C
:10298000F1040105110569F7DF91CF911F910F91B6
:10299000FF90EF900895789484B5826084BD84B5EB
:1029A000816084BD85B5826085BD85B5816085BD4A
:1029B000EEE6F0E0808181608083E1E8F0E0108263
:1029C000808182608083808181608083E0E8F0E0A4
:1029D000808181608083E1EBF0E08081846080838E
:1029E000E0EBF0E0808181608083EAE7F0E08081C5
:1029F0008460808380818260808380818160808325
:102A00008081806880831092C1000895982F8E3055
:102A100008F09E509770809123018295880F880F4F
:102A2000807C892B80937C0080917A0080648093E5
:102A30007A0080917A0086FDFCCF20917800409149
:102A40007900942F80E030E0282B392BC9010895BC
:102A50001F93CF93DF93182FEB0161E00E9488153D
:102A6000209709F44AC0CF3FD10509F449C0E12FAE
:102A7000F0E0E05CF94F84918330C1F0843028F4B9
:102A8000813051F08230B1F50CC0863019F18730B9
:102A900049F1843079F514C084B5806884BDC7BD20
:102AA00033C084B5806284BDC8BD2EC080918000D3
:102AB000806880938000D0938900C093880024C0F0
:102AC00080918000806280938000D0938B00C093BF
:102AD0008A001AC08091B00080688093B000C093D3
:102AE000B30012C08091B00080628093B000C093A8
:102AF000B4000AC0C038D1051CF4812F60E002C0C8
:102B0000812F61E00E94F415DF91CF911F9108950C
:102B1000CF93DF93482F50E0CA01845D994FFC01A9
:102B20003491485E594FFA018491882369F190E00D
:102B3000880F991FFC01E650FA4FA591B491FC0152
:102B4000EC5FF94FC591D491662351F42FB7F894F7
:102B50008C91932F909589238C93888189230BC026
:102B6000623061F42FB7F8948C91932F909589235C
:102B70008C938881832B88832FBF06C09FB7F894DE
:102B80008C91832B8C939FBFDF91CF9108958330DD
:102B900071F0843028F48130A1F0823021F514C026
:102BA0008630B1F08730D1F08430E9F404C08091F0
:102BB00080008F7703C0809180008F7D809380009C
:102BC000089584B58F7702C084B58F7D84BD089544
:102BD0008091B0008F778093B00008958091B0000D
:102BE0008F7D8093B0000895FF920F931F93F62E70
:102BF000482F50E0CA01805C994FFC012491CA0122
:102C0000845D994FFC011491485E594FFA0104917B
:102C10000023C9F0222319F0822F0E94C715E02F4C
:102C2000F0E0EE0FFF1FEC5FF94FA591B4919FB755
:102C3000F894FF2021F48C911095812302C08C918F
:102C4000812B8C939FBF1F910F91FF9008950F933D
:102C50001F93482F50E0CA01805C994FFC012491DA
:102C6000CA01845D994FFC010491485E594FFA01F5
:102C70001491112319F420E030E015C0222319F03B
:102C8000822F0E94C715812F90E0880F991F825FC5
:102C9000994FFC01A591B4918C9120E030E0802304
:102CA00011F021E030E0C9011F910F910895CF93F9
:102CB000DF930E94CB140E94F104C0E0D0E00E9498
:102CC00095032097E1F30E940000F9CFCF92DF92A5
:102CD000EF92FF920F931F93CF93DF937C016B01D1
:102CE0008A01C0E0D0E00FC0D6016D916D01D7011F
:102CF000ED91FC910190F081E02DC7010995C80F7D
:102D0000D91F015010400115110571F7CE01DF9157
:102D1000CF911F910F91FF90EF90DF90CF9008958A
:102D2000EF92FF920F931F93CF93DF937C018B0160
:102D3000C0E0D0E0F8010F5F1F4F6491662359F0A7
:102D4000D701ED91FC910190F081E02DC70109952B
:102D5000C80FD91FEFCFCE01DF91CF911F910F91F7
:102D6000FF90EF900895DC01ED91FC910190F081CE
:102D7000E02D09950895EF92FF920F931F938C0118
:102D8000DC01ED91FC910190F081E02D6DE0099561
:102D90007C01D801ED91FC910190F081E02DC801FA
:102DA0006AE009959C012E0D3F1DC9011F910F91ED
:102DB000FF90EF900895EF92FF920F931F937C0185
:102DC0000E9490168C01C7010E94BB169C01200F27
:102DD000311FC9011F910F91FF90EF900895CF937C
:102DE000DF93EC016115710519F420E030E00FC0AC
:102DF000DB010D900020E9F71197A61BB70BE881C6
:102E0000F9810280F381E02DAD0109959C01C90192
:102E1000DF91CF9108954F925F927F928F929F9210
:102E2000AF92BF92CF92DF92EF92FF920F931F93D8
:102E3000DF93CF93CDB7DEB7A1970FB6F894DEBF7F
:102E40000FBECDBF2C01742ECB01223008F42AE036
:102E500019A231E2C32ED12CCC0EDD1E822E992474
:102E6000AA24BB24672D752FA50194010E949119F6
:102E700079018A01C801B701A50194010E944B198B
:102E8000472D461B0894C108D1084A3014F4405D10
:102E900001C0495CF6014083E114F104010511050C
:102EA00021F07E2C5F2DC801DDCFC201B6010E944A
:102EB000EF16A1960FB6F894DEBF0FBECDBFCF912F
:102EC000DF911F910F91FF90EF90DF90CF90BF9017
:102ED000AF909F908F907F905F904F900895DC010E
:102EE0002115310541F4ED91FC910190F081E02D27
:102EF000642F099508950E940B170895EF92FF9291
:102F00000F931F939A017B0100E010E0B801A70125
:102F10000E946F171F910F91FF90EF9008950E94EC
:102F2000EF160895EF92FF920F931F937C010E947A
:102F3000EF168C01C7010E94BB16080F191FC801AC
:102F40001F910F91FF90EF9008952F923F924F9213
:102F50005F926F927F928F929F92AF92BF92CF9229
:102F6000DF92EF92FF920F931F93DF93CF93CDB732
:102F7000DEB73B014C0119012A016D897E898F89D9
:102F8000988D6A197B098C099D09621A730A840A53
:102F9000950AA40193010E944B19E218F308040951
:102FA0001509A80197010E94B3192A0D3B1D4C1D5C
:102FB0005D1DB901CA01CF91DF911F910F91FF9063
:102FC000EF90DF90CF90BF90AF909F908F907F90C9
:102FD0006F905F904F903F902F900895EF92FF92E7
:102FE0000F931F937B018C0161157105810591057C
:102FF00029F420E030E040E050E00BC00E94271AA6
:10300000A80197010E94B319AC01CB01DA019C0120
:10301000AD01B901CA011F910F91FF90EF90089582
:10302000EF92FF920F931F937B018C01621773073E
:103030008407950764F4261B370B480B590BCA010C
:10304000B9010E94EE17E60EF71E081F191FB701FF
:10305000C8011F910F91FF90EF90089598D088F0CC
:103060009F5790F0B92F9927B751A0F0D1F0660F74
:10307000771F881F991F1AF0BA95C9F712C0B1308F
:1030800081F09FD0B1E008959CC0672F782F8827EA
:10309000B85F39F0B93FCCF3869577956795B395CE
:1030A000D9F73EF490958095709561957F4F8F4F3D
:1030B0009F4F0895E89409C097FB3EF49095809542
:1030C000709561957F4F8F4F9F4F9923A9F0F92FEE
:1030D00096E9BB279395F695879577956795B7956C
:1030E000F111F8CFFAF4BB0F11F460FF1BC06F5F52
:1030F0007F4F8F4F9F4F16C0882311F096E911C064
:10310000772321F09EE8872F762F05C0662371F084
:1031100096E8862F70E060E02AF09A95660F771F98
:10312000881FDAF7880F9695879597F9089597F98C
:103130009F6780E870E060E008959FEF80EC08955D
:1031400000240A9416161706180609060895002486
:103150000A9412161306140605060895092E039400
:10316000000C11F4882352F0BB0F40F4BF2B11F474
:1031700060FF04C06F5F7F4F8F4F9F4F089557FDD3
:103180009058440F551F59F05F3F71F04795880FD5
:1031900097FB991F61F09F3F79F08795089512166C
:1031A00013061406551FF2CF4695F1DF08C0161618
:1031B00017061806991FF1CF8695710561050894C9
:1031C0000895E894BB2766277727CB0197F90895E0
:1031D0000BD0C4CFB5DF28F0BADF18F0952309F083
:1031E000A6CFABCF1124EECFCADFA0F3959FD1F3CA
:1031F000950F50E0551F629FF001729FBB27F00DA5
:10320000B11D639FAA27F00DB11DAA1F649F6627F9
:10321000B00DA11D661F829F2227B00DA11D621F48
:10322000739FB00DA11D621F839FA00D611D221F02
:10323000749F3327A00D611D231F849F600D211DE6
:10324000822F762F6A2F11249F5750408AF0E1F089
:1032500088234AF0EE0FFF1FBB1F661F771F881FD2
:1032600091505040A9F79E3F510570F060CFAACF12
:103270005F3FECF3983EDCF3869577956795B795BD
:10328000F795E7959F5FC1F7FE2B880F911D9695E7
:10329000879597F90895629FD001739FF001829FEF
:1032A000E00DF11D649FE00DF11D929FF00D839FD5
:1032B000F00D749FF00D659FF00D9927729FB00D72
:1032C000E11DF91F639FB00DE11DF91FBD01CF0185
:1032D00011240895AA1BBB1B51E107C0AA1FBB1FE5
:1032E000A617B70710F0A61BB70B881F991F5A9592
:1032F000A9F780959095BC01CD01089597FB092E03
:1033000007260AD077FD04D0E5DF06D000201AF4A6
:10331000709561957F4F0895F6F7909581959F4F31
:103320000895A1E21A2EAA1BBB1BFD010DC0AA1F06
:10333000BB1FEE1FFF1FA217B307E407F50720F01E
:10334000A21BB30BE40BF50B661F771F881F991F99
:103350001A9469F760957095809590959B01AC01E2
:10336000BD01CF01089597FB092E05260ED057FD0C
:1033700004D0D7DF0AD0001C38F450954095309522
:1033800021953F4F4F4F5F4F0895F6F790958095E9
:10339000709561957F4F8F4F9F4F0895EE0FFF1FE0
:1033A0000590F491E02D0994A0E0B0E0EAEDF9E198
:1033B0000C943D1AEC01A880B980CA80DB80A1146E
:1033C000B104C104D10441F484E2A82E89EDB82EE1
:1033D0008BE5C82E87E0D82EC601B5012DE133EF6D
:1033E00041E050E00E94B31927EA31E440E050E0A8
:1033F0000E944B197B018C01C601B5012DE133EF11
:1034000041E050E00E94B319CA01B9012CEE34EF3B
:103410004FEF5FEF0E944B196E0D7F1D801F911FB4
:1034200097FF04C061507040804090486883798362
:103430008A839B839B01AC015F77B901CA01CDB739
:10344000DEB7EAE00C94591A0E94D41908958EE16F
:1034500091E00E94D419089560931E0170931F019A
:10346000809320019093210108952F923F924F92D3
:103470005F926F927F928F929F92AF92BF92CF9204
:10348000DF92EF92FF920F931F93CF93DF93CDB70D
:10349000DEB7CA1BDB0B0FB6F894DEBF0FBECDBF85
:1034A00009942A88398848885F846E847D848C8456
:1034B0009B84AA84B984C884DF80EE80FD800C815F
:1034C0001B81AA81B981CE0FD11D0FB6F894DEBF42
:0C34D0000FBECDBFED010895F894FFCFB2
:1034DC00596F75686F752021006170707569732064
:1034EC00737572200041004C4F414445520001005D
:0C34FC000000010100000000B70A661685
:00000001FF
