:100000000C94DC020C9404030C9404030C9404037D
:100010000C9404030C9404030C9404030C94040344
:100020000C9404030C9404030C9404030C94830BAD
:100030000C9404030C9404030C9404030C94040324
:100040000C94FD0A0C9404030C9404030C94040314
:100050000C9404030C9404030C9404030C94040304
:100060000C9404030C940403BC1ADD1AF31A311B1C
:10007000681B9E1BD91B031C3A1CC11EC41EC71E35
:10008000CA1ECD1ED01ED31E0101FF030101F703BE
:100090008C00880000000000240027002A000000D7
:1000A0000000250028002B000500893008023802D6
:1000B0004978681400000000100A000001E000E028
:1000C0001068302C700E340C160807000780100DD5
:1000D000010002803118783CF01EC006FEFE628CE2
:1000E0003EF8000007C003800100100B03E007701A
:1000F00075775525570560036703752735760770B3
:1001000003E0080800FEAAFE283800000808007076
:10011000507C5E7A0E000808000E0A3E7A5E70007F
:10012000080800F8A8FE2A3E0000080800F8A8F811
:10013000A8F8000008080038283E7A5E7000080819
:1001400000FEAAFE0A0E0000090900001E003D0084
:1001500003007B007B007A007800000009091F8003
:1001600021804280FC808480848085008600FC00A1
:1001700009091F803F807F80FF80FF80FF80FF0094
:10018000FE00FC0040243FE01FF007FFFFE044605A
:10019000223008102060FFA07FD01FFFFFA088A0A2
:1001A000445013775EA088BE445F156AD5A088C608
:1001B0004463136ACEA0FFFA7FFD156AD6A0008AB9
:1001C0004545133755C0038A45451FFFFF80048C02
:1001D0004747000000000FF87D7D0F11170008A0B1
:1001E000454516AAB10008BE4545148A910008C6C7
:1001F0004747169292000FFA7D7D0F391400008A4E
:100200004545000000003F8A45C50C081200448C9B
:10021000464612003A00FFF87FFC12A9930088A01E
:10022000445012AA928088A0445016AA928088C096
:1002300044600E69CA80FF807FC00100000000009A
:10024000000000000000A000418104016000E00403
:1002500001438E80500CA4AA41493541564AAAACAC
:100260000195558054ACA44E414935C16448000005
:100270000000000000000A104858050930001B3833
:1002800014548D9C29003B805499DDC133B81B3830
:100290001D148D9C29100A10551805093000000006
:1002A00000000000000017534400161378001613D6
:1002B00014001510200015201000540A03E1818657
:1002C0007F3E186D830F0F0E0183866033186DC358
:1002D000198F1803C38E6033186DE330CF1803C332
:1002E0009E603630CDE360CF3006C79E7E3E30CD77
:1002F000B360CF300CC6F6603330D9B660CF33CFA1
:10030000CCF66061B0DB1E60CF30D86CE6C061B067
:10031000DB1E618F19986CC6C063B19B0E330F0F43
:10032000B078C6FF7E1F1B061E0FF6E8DBCFC3B8F2
:10033000AEA49B928A827B746E68625C57524E496F
:1003400045413E3A3734312E2C29272523210A0AEC
:10035000153A49676E6F7265006D560A0A504C4532
:10036000415345205455524E204F464620004C4F95
:1003700057204241545445525921200003053F2142
:100380003F1208120A100A0E1C0E0C1E0C141A142E
:10039000161F161E131E1E1B1E1E1F1E3F213F3A38
:1003A0002F3A173D173F213F181F02040A041F0E62
:1003B00004040E1F0A1F0A0E0E1F04110E2E252EF6
:1003C0002F2A2E262929021F02081F08150E0404B1
:1003D0000E150E15151B151B040604040C04000055
:1003E000000017000300031F0A1F16371A19041311
:1003F0000A153A000300000E11110E000A040A0447
:100400000E040030000404040010001804031F113F
:100410001F121F101D151711151F07041F17151D7B
:100420001F151D01011F1F151F17151F000A0000B2
:100430003200040A110A0A0A110A040115020E11F7
:10044000171E051E1F150A0E110A1F110E1F15116A
:100450001F05010E111D1F041F111F1108100F1F72
:10046000041B1F10101F061F1E040F0E110E1F0964
:10047000060E112E1F051A121509011F011F101F4C
:100480000F180F1F0C1F1B041B031C03191513004F
:100490001F11030418111F00020102202020000177
:1004A000020C121E1F120C0C12120C121F0C1A142A
:1004B000041E05242A1E1F021C141D1020201D1FAF
:1004C0000814111F101E041E1E021C0C120C3E0AE2
:1004D000040C123E1E040214160A020F120E101E05
:1004E0000E100E1E081E120C1226281E322A26047A
:1004F0001E21001F00211E040102013F213F172B76
:10050000152010204C4F4144455200172B16201344
:10051000140005003801680100000A4E6F205344A2
:100520002063617264206F720A6E6F204C4F4144E9
:1005300045522E4845580A0A153A45786974001DF7
:1005400020466C617368696E670A20206C6F616475
:1005500065722E2E2E0A0A444F4E275420545552AF
:100560004E204F46462100000000002300260029AF
:10057000000404040404040404020202020202034C
:100580000303030303010204081020408001020456
:1005900008102001020408102000000008000201D9
:1005A0000000030407000000000000000045006890
:1005B0000100000075206F2011241FBECFEFD8E08E
:1005C000DEBFCDBF11E0A0E0B1E0EAE7FAE402C08F
:1005D00005900D92A033B107D9F724E0A0E3B1E074
:1005E00001C01D92A034B207E1F712E0CBEDD2E0DA
:1005F00004C02197FE010E94C020CA3DD107C9F75F
:100600000E94DA130C9430250C9400004F925F92F4
:100610006F927F928F929F92AF92BF92CF92DF9212
:10062000EF92FF920F931F93CF93DF9300D000D0F0
:100630001F92CDB7DEB74091C6035091C7036091BA
:10064000C8037091C9032FB7F8948091330190913A
:100650003401A0913501B09136012FBF481B590BD1
:100660006A0B7B0B8091C50390E0A0E0B0E00091A5
:10067000C1031091C2032091C3033091C4038417B6
:100680009507A607B70730F40115110521053105B7
:1006900009F027C3012B022B032B09F020C3809103
:1006A0005D0381508E3F08F580915C03813011F528
:1006B000809170038F5F6091710387FD09C0082EE0
:1006C000000C990B70E06F5F7F4F0E94AC20682F89
:1006D000609370038BE095E09093CB038093CA0303
:1006E00088E48093CC030E94FB0E80915D038150CF
:1006F0008E3F70F480915B03813009F09EC38EEFD2
:1007000094E09093CB038093CA0388E48093CC0356
:1007100080E00E943B1080916C03882309F4ADC0F7
:10072000809180038111A9C0809178039091790311
:10073000E0917D03F0917E03EE0FFF1FE80FF91F9C
:10074000459154914115510501F520917C032223D7
:1007500031F010927E0310927D03FC0114C01092C0
:100760006C0380916B03882341F080E00E943B1072
:10077000E0917D03F0917E032FC060E08BE693E073
:100780000E94720B7AC0459154919A013695279533
:100790003695279540FF51C0CA0116E0969587957A
:1007A0001A95E1F78F71952F96959695969590519C
:1007B0002F70223071F1F8F4211117C08B3008F03E
:1007C0008AE080938103E0917D03F0917E0331966E
:1007D000F0937E03E0937D03EE0FFF1F809178037B
:1007E00090917903E80FF91FCECF213061F760E0D7
:1007F0000E94A810E8CF2330B1F0243021F72091D7
:100800006F03829F802D1124809388039093890326
:10081000DACF20916F03829F802D1124809384036F
:1008200090938503D0CF20916F03829F802D112458
:100830008093860390938703C6CF2F7320937F0303
:1008400080916F03859F802D1124809380031092E7
:10085000900310928F0310928E0381E080938203A5
:10086000809343031092830380917D0390917E03D4
:10087000019690937E0380937D0380918203882369
:1008800009F4F3C080918003811106C060E08BE61B
:1008900093E00E94720BE9C08150809380038091A5
:1008A0009003811148C020918E0330918F032F5FF8
:1008B0003F4FC901880F991FE0918A03F0918B0384
:1008C000E80FF91F65917491862F877080939103CB
:1008D000AB01E3E056954795EA95E1F7CA01969595
:1008E0008795972F96959695909392038F739091F5
:1008F0006F03899F802D1124809390034170409352
:10090000320130938F0320938E0380918C0390E00B
:100910002817390780F020918D03222339F0821B9C
:10092000910990938F0380938E0305C060E08BE65E
:1009300093E00E94720B809190038150809390030A
:100940008091830321E0280F2093830340917F034C
:1009500030919203340F80917703380F30936D03F9
:1009600060918603662371F070E0822F022E000CE6
:10097000990B0E94AC2080918703869F300D112433
:1009800030936D0380916D0390E0849664E270E093
:100990000E94AC2080936D033091810330936E03ED
:1009A00060918403662381F0062E000C770B822F62
:1009B000022E000C990B0E94AC2080918503869F2B
:1009C000300D112430936E03609188036623A1F0EB
:1009D000822F220F990B70E00E94AC20CB0162E0C5
:1009E00070E00E94AC202091890390916E03289FB3
:1009F000900D112490936E0380916E034F3341F05C
:100A00008A300CF089E087FD80E080936E0302C09D
:100A100010926E03F894E0916D03F0E0E65DFC4FF8
:100A2000E491E093310130916E03209193033203FE
:100A300090011124409191034203C001439F900D06
:100A400011240090700302C0880F991F0A94E2F7E6
:100A500097FF02C081589F4F880F892F881F990BDD
:100A6000809344038093450378948091CC0388233A
:100A700009F486C08C3020F49CE0E92EE81A01C00D
:100A8000E12CFF24F394F0929C031092B403109293
:100A9000B503309199034DE2D42E1D2D131B1E0D6D
:100AA00003E0030F2EE4412F63E084E993E03D83EC
:100AB0000E948A0D3D810CEF030F1D5F202F41E046
:100AC000612F80E50E946111202F42E0612F83E0B9
:100AD0000E946111F092B403F092B5030091990362
:100AE000FD2CF01AFE0C2EE44F2D63E084E993E018
:100AF0000E94670D13E0100F1F0D4FEF410F2EE402
:100B000063E084E993E00E94670D035033E0F30E45
:100B1000202F4F2D60E084E993E00E947F0E202F6C
:100B20004F2D63E584E993E00E947F0E41E06F2D35
:100B300083E00E94E31042E06F2D80E50E94E31005
:100B4000145044E0612F80E50E94E31048E0612FDB
:100B500083E00E94E31084E080939D0380919903D9
:100B6000E81A8E2D815D80939E038091CA03909137
:100B7000CB030E94D50F8091CC0381508093CC038E
:100B80008091620390916303892B09F480C011E086
:100B90001093B4031092B5039091980385E5891BD7
:100BA00080939D0310929E0380915F03813009F42E
:100BB00051C030F090915E03853008F063C05EC094
:100BC00060E08BE693E00E94720B10926C0310932E
:100BD0009C03ECE7F3E0E491EF5FE0939803EDE72B
:100BE000F3E0E491EF5FE09399038EE793E0909355
:100BF000B3038093B20310926303109262031092C6
:100C00009A0318EA0E9406038823E1F38EE693E034
:100C10000E94D50F609160037091610380E090E0C5
:100C20004AE00E94C41189E593E00E94D50F612F2C
:100C300062956F7070E080E090E04AE00E94C4111D
:100C40008EE493E00E94D50F80915B03813009F020
:100C5000FAC01DC08091B7039091B803A091B90369
:100C6000B091BA038F709927AA27BB270897A105CF
:100C7000B10510F487E009C088E707C0992339F06F
:100C80008B5F03C0992319F08FE20E9407120E9424
:100C9000950F80919A0381110EC088EF91E0E3E4F3
:100CA000F1E0DF019C011D9221503040E1F71092EC
:100CB0009D0310929E030E949E0A6093C10370934D
:100CC000C2038093C3039093C4032091BD0330916A
:100CD000BE03621B730B7093BC036093BB0380E085
:100CE000CCC02FB7F8948091330190913401A0913A
:100CF0003501B09136012FBF2091C503820F911DA0
:100D0000A11DB11D8093C6039093C703A093C80390
:100D1000B093C9038091B7039091B803A091B90330
:100D2000B091BA030196A11DB11D8093B7039093B2
:100D3000B803A093B903B093BA031092C103109201
:100D4000C2031092C3031092C4030E949E0A6093D0
:100D5000BD037093BE038093BF039093C003809143
:100D60004703909148032FE0289F8001299F100D91
:100D7000112485E10E94870A800F911F24E0969537
:100D800087952A95E1F79093480380934703209134
:100D90004603222309F44BC060914A03262F30E01A
:100DA00040E050E029833A834B835C83C0904B033F
:100DB000D12CE12CF12C40914E0350914F034A016C
:100DC000A12CB12C20914C0330914D032901612CB1
:100DD000712C8217930728F09C014817590708F4D3
:100DE0009A01C901A0E0B0E09C01AD0124193509C8
:100DF0004609570969817A818B819C816C197D092B
:100E00008E099F090E949020A5019401241935099B
:100E1000460957090E949624C20ED31EE41EF51EF1
:100E2000C09249036C2D70E085E00E94280A0E9460
:100E3000220F0E94121281E020C0893209F068CC92
:100E40000E94061065CC115009F0DCCE60E070E025
:100E500085E00E94280A83B7817F846083BF83B7BF
:100E6000816083BF83B7816083BF889583B78E7F9E
:100E700083BF83B78E7F83BFC5CE0F900F900F9037
:100E80000F900F90DF91CF911F910F91FF90EF90F6
:100E9000DF90CF90BF90AF909F908F907F906F909A
:100EA0005F904F900895CF92DF92EF92FF920F9351
:100EB0001F93CF93DF93EC0181E080939C0310920A
:100EC0009B0310929A0310925E038093B403809365
:100ED000B5031CE00E9406038823E1F3FE01849120
:100EE000882319F00091990301C000E02AEB32E059
:100EF00040E060E084E993E00E94CD0B4CE0400FBD
:100F000024E831E060E084E993E00E94CD0B109288
:100F10009D0310939E03CE010E94D50F80919803EC
:100F2000982F990F890F81958D5A80939D038091F9
:100F30009903982F990F890F8195835D80939E0364
:100F40008091B70384FF03C086EB92E002C082EB7E
:100F500092E00E94F60F80919803982F990F890FC5
:100F600081958D5A80939D0380919E038F5F80931E
:100F70009E0380917003882319F08EEA92E002C0EC
:100F80008AEA92E00E94F60F90919803892F880FC9
:100F9000980F91959D5A90939D0380919E038F5F2A
:100FA00080939E0386EA92E00E94F60F80915C0394
:100FB0008130A1F4809170038F5F6091710387FD90
:100FC00009C0082E000C990B70E06F5F7F4F0E94E4
:100FD000AC20682F609370030E94FB0E80915B032E
:100FE0008130A9F08091B603482F50E060E070E0B6
:100FF000C090B703D090B803E090B903F090BA0363
:10100000C416D506E606F706E0F08F3FD1F08FEF65
:101010008093B60360E08BE693E00E94720B10921F
:101020006C038BE693E00E94520B81E080935E0399
:10103000DF91CF911F910F91FF90EF90DF90CF90B4
:10104000089580915D03813009F044CF0E9406101D
:1010500041CF2F923F924F925F926F927F928F92E9
:101060009F92AF92BF92CF92DF92EF92FF920F9337
:101070001F93CF93DF9300D000D0CDB7DEB7F90137
:10108000818380836383628345834483082E000CBD
:10109000990B9C012150310937FF02C020E030E05C
:1010A000522E0196062E000C770B7B0101E0E01A10
:1010B000F1086F5F7F4F042E000C550B6A0111E0A1
:1010C000C11AD1084F5F5F4F2BE1322E39E0432E1A
:1010D000052D052C000C110B1A8309839C0183300C
:1010E000910514F022E030E0A981BA812A173B076C
:1010F0000CF480C08E2CF7FC812C29813A81329E21
:101100003001339E700C1124082D082C000C110B9B
:101110001C830B839B016330710514F022E030E0E7
:10112000AB81BC812A173B070CF462C09C2CD7FC16
:10113000912CAB81BC814A9E50014B9EB00C112476
:1011400093012A0D3B1D890103531C4F5801292D82
:10115000092C000C330B8A014930510514F008E0CA
:1011600010E0021713070CF441C08501020F131F92
:10117000D8015E961C911230B9F5008110E02980EB
:10118000A981BA810A171B070CF4202E2082018145
:1011900010E02980A981BA81A017B1070CF4202E94
:1011A0002182028110E02B80AB81BC810A171B07D2
:1011B0000CF4202E2282038110E02B80AB81BC81B5
:1011C000A017B1070CF4202E2382048110E0222EF8
:1011D000021713070CF4202E2482058110E020173B
:1011E00031070CF4980125839394B1CF83948CCF6D
:1011F00053946ECF0F900F900F900F90DF91CF917F
:101200001F910F91FF90EF90DF90CF90BF90AF9024
:101210009F908F907F906F905F904F903F902F9016
:101220000895CF92DF92EF92FF920F931F93CF9387
:10123000DF936C017A018B01C0E0D0E0CE15DF05B1
:1012400089F0D8016D918D01D601ED91FC9101904D
:10125000F081E02DC6010995892B11F47E0102C0B1
:101260002196ECCFC701DF91CF911F910F91FF9095
:10127000EF90DF90CF9008950E94D321EF92FF92DC
:101280000F931F93CF93DF93EC017B018A01888139
:101290009981009729F02A813B8124173507F8F4BA
:1012A000B8016F5F7F4F0E940921009759F0998321
:1012B00088831B830A832C813D81232B81F4FC01CD
:1012C00010820DC088819981009711F00E947D22C3
:1012D000198218821D821C821B821A8207C01D83FC
:1012E0000C83B701888199810E94E121CE01DF91B1
:1012F000CF911F910F91FF90EF90089561157105A7
:1013000079F0FB0101900020E9F73197AF01461B0E
:10131000570BDC01ED91FC910280F381E02D0994E3
:1013200080E090E00895833081F028F4813099F0D6
:101330008230A1F008958730A9F08830B9F0843068
:10134000D1F4809180008F7D03C0809180008F77E1
:1013500080938000089584B58F7702C084B58F7D17
:1013600084BD08958091B0008F7703C08091B00054
:101370008F7D8093B00008951F93CF93DF93282F24
:1013800030E0F901E756FA4F8491F901EB57FA4F33
:10139000D491F901EF58FA4FC491CC23C9F0162F1C
:1013A00081110E949309EC2FF0E0EE0FFF1FE2562F
:1013B000FF4FA591B4918FB7F894111105C09C917E
:1013C000ED2FE095E92302C0EC91ED2BEC938FBF5C
:1013D000DF91CF911F910895CF93DF9390E0FC01AF
:1013E000EB57FA4F2491FC01EF58FA4F8491882370
:1013F00061F190E0880F991FFC01EC56FF4FC591F9
:10140000D491FC01E256FF4FA591B491611109C03E
:101410009FB7F8948881209582238883EC912E23AE
:101420000BC0623061F49FB7F8943881822F8095A9
:1014300083238883EC912E2B2C939FBF06C08FB7FC
:10144000F894E8812E2B28838FBFDF91CF910895E8
:101450001F93CF93DF93182FEB0161E00E94EC09FB
:10146000209711F460E004C0CF3FD10539F461E06A
:10147000812FDF91CF911F910C94BC09E12FF0E0F7
:10148000E756FA4FE491E330F9F048F4E130B9F06F
:10149000E230A1F584B5806284BDC8BD34C0E730B8
:1014A000E9F0E83019F1E43049F58091800080627C
:1014B00080938000D0938B00C0938A0024C084B5B1
:1014C000806884BDC7BD1FC0809180008068809304
:1014D0008000D0938900C093880015C08091B0002F
:1014E00080688093B000C093B3000DC08091B000BD
:1014F00080628093B000C093B40005C0C038D105AD
:101500000CF0B5CFAFCFDF91CF911F9108958E3002
:1015100008F08E508770806480937C0080917A0000
:10152000806480937A0080917A0086FDFCCF809160
:1015300078002091790090E0922B08953FB7F894BD
:1015400080913F0190914001A0914101B0914201F1
:1015500026B5A89B05C02F3F19F00196A11DB11D0E
:101560003FBFBA2FA92F982F8827820F911DA11D49
:10157000B11DBC01CD0142E0660F771F881F991F86
:101580004A95D1F708958F929F92AF92BF92CF92D2
:10159000DF92EF92FF926B017C010E949E0A4B0149
:1015A0005C01C114D104E104F104F1F00E949E0A2F
:1015B000DC01CB0188199909AA09BB09883E93402F
:1015C000A105B10570F321E0C21AD108E108F108C4
:1015D00088EE880E83E0981EA11CB11CC114D104B2
:1015E000E104F10419F7DDCFFF90EF90DF90CF9089
:1015F000BF90AF909F908F9008951F920F920FB65B
:101600000F9211242F933F938F939F93AF93BF9388
:101610008091330190913401A0913501B091360150
:1016200030913E0123E0230F2D3720F40196A11DB8
:10163000B11D05C026E8230F0296A11DB11D209300
:101640003E018093330190933401A0933501B09310
:10165000360180913F0190914001A0914101B091EC
:1016600042010196A11DB11D80933F01909340015D
:10167000A0934101B0934201BF91AF919F918F918F
:101680003F912F910F900FBE0F901F901895809152
:101690004303882319F08091450301C080E08093C3
:1016A000B4000895CF93DF93EC011F8A1D8A1CA21A
:1016B0001BA2188E1092450310924403109243030C
:1016C0000E94470B82E195E09E878D871B8A1A8ACC
:1016D00081E0898389E08E8B198E1B8E1D8EDF91B0
:1016E000CF910895FC0161110DC0178A158A14A2CB
:1016F00013A2108E109245031092440310924303DC
:101700000C94470B08951F920F920FB60F9211245D
:101710002F933F934F935F936F937F938F939F93F9
:10172000AF93BF93EF93FF9360914403662321F13E
:1017300080913D018F5F80933D0190913101891728
:10174000D8F09091430381E089278093430310925E
:101750003D0180913201882369F08091010193E479
:10176000899F802D1124895B809301010E94A02014
:10177000909345030E94470BFF91EF91BF91AF916A
:101780009F918F917F916F915F914F913F912F9199
:101790000F900FBE0F901F9018954F925F926F920F
:1017A0007F928F929F92AF92BF92CF92DF92EF92F1
:1017B000FF920F931F93CF93DF93F901C49031965B
:1017C0005491EC0108A164350CF018C10C2C000CEC
:1017D000DD08A62F062E000CBB0B7D01EC0CFD1CBA
:1017E0001E141F040CF00AC140330CF007C1A52ED3
:1017F000842E042E000C9908F401E50FF11D57FD0D
:10180000FA951E161F060CF0F9C02E5F3F4FE60139
:101810002796D7FD279673E0D595C7957A95E1F77A
:1018200047FF0AC0A52EA40EC89DA001C99D500D5A
:101830001124241B350B40E0EA2D0A2C000CFF0B71
:10184000E40FF11D47FDFA95F1971CF050E3A52E2A
:10185000A41A67FD60E0F701E535F10514F0E4E551
:10186000F0E07E2FFC01D484D426862F062E000CB7
:10187000990BFC01EA1BFB0BDF017F01F7E0EF2274
:10188000FF24E0E8F0E002C0F595E795EA94E2F77E
:101890001E2FB7FD179653E0B595A7955A95E1F71A
:1018A0002A0F3B1FE42FE77051E001C0550FEA9566
:1018B000EAF7459545954595B4E54B02800D911D98
:1018C00011248D5B9E4FC12C0A2C000CBB0899245F
:1018D00093942E015524EC2DF0E0EA15FB050CF055
:1018E0008DC0F90144910130E1F47C01A12F862ED5
:1018F000881AB82DBE0DB71708F077C0B42FBA23D9
:1019000021F0E701B881B52BB883B0E0B595A79574
:10191000109719F431964491A0E8DFEFED1AFD0A13
:10192000E8CF01111FC0752E70947C01A12FF90121
:10193000862E881AB82DBE0DB71708F056C0B42FE2
:10194000BA2321F0E701B881B721B883B0E0B5959B
:10195000A795109719F431964491A0E8DFEFED1A9E
:10196000FD0AE8CF033031F07C01A12FF901862E6A
:10197000881A37C0752E7094862E7C01A12FF9012C
:101980008716D8F4B42FBA2359F0E701B881682C30
:101990006D2460FE02C0B52B02C0B721E701B883F9
:1019A000B0E0B595A795109719F431964491A0E849
:1019B0008394DFEFED1AFD0AE3CFD92416C0B42FCC
:1019C000BA2321F0E701B881B527B883B0E0B59517
:1019D000A795109719F431964491A0E8DFEFED1A1E
:1019E000FD0AB82DBE0DB71750F3550F19F48C5AD8
:1019F0009F4F51E0C394240D351D6DCFDF91CF91E2
:101A00001F910F91FF90EF90DF90CF90BF90AF901C
:101A10009F908F907F906F905F904F900895FC0102
:101A2000643508F053C0403308F050C090A1742FC3
:101A3000759575957595262F062E000C330B542F32
:101A400057709230A1F4F901ED5BFE4F84E5780206
:101A5000E00DF11D1124808190E0052E02C09595C6
:101A600087950A94E2F78095982F91700AC0933079
:101A700041F484858170462740954170841303C0EA
:101A800014C0911112C084E57802200D311D11247B
:101A9000F901ED5BFE4F81E090E001C0880F5A959F
:101AA000EAF780959081892310C084E57802200DA3
:101AB000311D1124F901ED5BFE4F81E090E001C082
:101AC000880F5A95EAF79081892B80830895DF92D9
:101AD000EF92FF920F931F93CF93DF931F92CDB797
:101AE000DEB78C01D62EF42EE12CE21654F46E2DC6
:101AF0006D0D4F2DC80129830E940F0DE39429819C
:101B0000F4CF0F90DF91CF911F910F91FF90EF9045
:101B1000DF900895DF92EF92FF920F931F93CF9380
:101B2000DF937C01D62FD22EC42F002E000C110B78
:101B3000040F111D47FD1A954C2F0C2E000C550B50
:101B40004017510744F42D2D4C2F6D2FC7010E94D3
:101B5000670DCF5FF1CFDF91CF911F910F91FF9074
:101B6000EF90DF9008956F927F928F929F92AF9245
:101B7000BF92CF92DF92EF92FF920F931F93CF937A
:101B8000DF93EC016A3019F42D819885A1C06D3086
:101B900009F4A4C01885BA84D98488A083E58D157A
:101BA0000CF47FC08FE28B150CF47BC08C8190E02D
:101BB0000197189F9001199F300D1124C9018D0DB7
:101BC000911DD7FC9A95181619060CF06AC08D81E4
:101BD000819FC00111248B0D911DB7FC9A95181699
:101BE00019060CF05EC09D2CCD2CE62EF12CEC2DB0
:101BF000ED190E2E000CFF0B8C8190E0E817F90711
:101C00000CF04EC00197E817F90779F0E89E9001B3
:101C1000E99E300DF89E300D1124E20FF31F8E8DDA
:101C20009F8DE80FF91F749001C0712C6B2CAB2CA9
:101C30002A2D2B19022E000C330B8D8190E02817D2
:101C400039075CF570FE10C0113031F44A2D6C2D4F
:101C5000CE010E940F0D1DC0012F212F462D692D91
:101C6000CE010E948A0D15C089A198A1891789F01B
:101C700088A3113031F44A2D6C2DCE010E940F0D36
:101C800007C0012F212F462D692DCE010E948A0DFC
:101C900088A27694A394610ECBCFC394910EA7CF64
:101CA00088A228853C818985329F800D11248987EF
:101CB0009F81992399F0082E000C990B44E550E080
:101CC000239F401951091124481759073CF49D815D
:101CD0008A85299F800D11248A87198681E090E0EA
:101CE000DF91CF911F910F91FF90EF90DF90CF90F8
:101CF000BF90AF909F908F907F906F900895DF92EC
:101D0000EF92FF920F931F93CF93DF931F92CDB764
:101D1000DEB78C01D62EF42EE12CE21654F44E2DB3
:101D20004F0D6D2DC80129830E940F0DE394298169
:101D3000F4CF0F90DF91CF911F910F91FF90EF9013
:101D4000DF900895EF92FF920F931F93F801D70150
:101D50009081240F3C9118163CF4940F961B231B82
:101D6000260F20839C9306C0291B260F641B630F3C
:101D700060832C931F910F91FF90EF9008950E9424
:101D8000632327E030E040E050E00E9496246E5F3D
:101D90006093D8038FEF8093D0038093CF03809319
:101DA000CE031092D5031092D40382E08093CD032A
:101DB00020E030E080E090E040E050E0BC01620FC5
:101DC000731FFA01E60FF71FE353FC4F168E4F5FA8
:101DD0005F4F49305105A9F709968B31910561F79D
:101DE000255E3F4F2135310529F788E28093D603E0
:101DF0001092D7030895CF93DF93C6E4D3E01CAECF
:101E00001AAE10928F0310928E03109283031092D9
:101E1000450310924403109243030E94470B8DEA3E
:101E200095E09BAB8AAB18AE1FAA81E08EA389E038
:101E30008BAF109284031092860310928803DF9177
:101E4000CF910895CF92DF92EF92FF920F931F935D
:101E5000CF93DF93C0E5D3E007E513E0FF24FA94C6
:101E600097E0E92EE00E62E088810E94EC0928816B
:101E700030E0F901E756FA4F8491F901EB57FA4F38
:101E8000C490F901EF58FA4FD490DD2071F0811120
:101E90000E949309ED2DF0E0EE0FFF1FE959FA4F74
:101EA000A591B491EC91EC21B1F4F80180818F5FA0
:101EB000808360E088810E94EC0921960F5F1F4FAC
:101EC000E012D1CFDF91CF911F910F91FF90EF9052
:101ED000DF90CF900895F8018081882371F3F80195
:101EE0008F3F11F41082E5CFF082E3CFCF93C82F5C
:101EF000F89460E08091A3030E94BC098091A40340
:101F000018161CF460E00E94BC09CEBD00000DB4A0
:101F100007FEFDCF8EB58091A40318161CF461E076
:101F20000E94BC097894CF9108950F931F93CF938B
:101F30008091A0038F5F8093A00303E411E0C0E0D1
:101F40008C2F80640E94760F80E80E94760F61E0FB
:101F50008091A3030E94BC098091A40318161CF46D
:101F600060E00E94BC0980E090E0F801E80FF91FF2
:101F700020812EBD00000DB407FEFDCF2EB50196C9
:101F80008435910591F78091A40318161CF461E043
:101F90000E94BC09CF5F0C5A1F4FC63089F680E4FF
:101FA000CF911F910F910C94760F0F931F93CF93A6
:101FB000DF938C01C0E0D0E0F801EC0FFD1F6491CD
:101FC000662371F0E0919403F09195030190F08104
:101FD000E02D84E993E00995892B11F02196ECCF4F
:101FE000CE01DF91CF911F910F910895CF93DF9391
:101FF0000E94D50FEC016CE171E084E993E00E944E
:102000007E098C0F9D1FDF91CF91089588EF91E09D
:10201000E3E4F1E0DF019C011D9221503040E1F743
:1020200010929D0310929E038FE395E00E94D50FBE
:102030000E94950F8CB583608CBD8DB58E7F8DBD54
:1020400088E291E0EEEFFFE3099510929A038AE1AE
:1020500095E00E94F60F0E94950F0E94220F80913A
:102060005B03813039F062E370E080E090E00E9431
:10207000C30AF3CF0895AF92BF92CF92DF92EF924F
:10208000FF920F931F93CF93DF93C82ED12CE601BD
:10209000CA5BDC4F9DA1992309F44FC07E019FEFDD
:1020A000E91AF90AF70195A1911147C09EA5860189
:1020B000000F111F0A5B1C4FF80134A525A5E32F63
:1020C000F22FE90FF11DE90FF11D259134912F3FFA
:1020D000FFEF3F0711F41DA230C039ABF601EE0F40
:1020E000FF1FE05BFC4F3327220F331F05A0F6A133
:1020F000E02DE20FF31FA590B49081111AC060E0AB
:102100008BE693E00E94720BF801B3AAA2AAF60133
:10211000EE0FFF1FE85AFC4F16A215A281E0F7014F
:1021200085A389E08BAF1EAEFE017B9615A2329689
:1021300015A229968DA18F5F8DA3DF91CF911F915D
:102140000F91FF90EF90DF90CF90BF90AF900895E8
:1021500070E0DB01AA0FBB1FAA5BBC4FD4962C9189
:10216000D497D5969C91D597E22FF92FE80FF11DC2
:10217000E80FF11D259134915F9696963C932E932E
:102180009597F9018591949190916F03989F802D77
:1021900011246A5B7C4FFB01B19685A3F901A591DF
:1021A000B4914B2F50E0E82FF0E04E175F0720F47A
:1021B000F90125913491832FFB01B296899F802DDF
:1021C000112485A30895AF92BF92CF92DF92EF9230
:1021D000FF920F931F93CF93DF93182F062FC1E029
:1021E000D3E08AEFD82E9EEFE92E842F8470C82E7C
:1021F000842F8270B82E842F8870A82E4170F42E00
:102200008C2F880F8F5FE80ECC2081F04D2F400F70
:102210006C2F610F84E993E00E940F0D4C2F400F4B
:102220006D2F610F84E993E00E940F0DBB2081F0B8
:10223000402F4D1B6C2F610F84E993E00E940F0D1E
:10224000402F4C1B6D2F610F84E993E00E940F0D0E
:10225000AA2081F04C2F400F612F6D1B84E993E081
:102260000E940F0D4D2F400F612F6C1B84E993E0EE
:102270000E940F0DFF2081F0402F4C1B612F6D1B22
:1022800084E993E00E940F0D402F4D1B612F6C1BC2
:1022900084E993E00E940F0DCD1744F4E7FC04C0DD
:1022A000D150D394D394ED0CCF5FAACFDF91CF91CF
:1022B0001F910F91FF90EF90DF90CF90BF90AF9064
:1022C00008959F92AF92BF92CF92DF92EF92FF92CA
:1022D0000F931F93CF93DF93F82EE62EB22E03E0D9
:1022E000020FD0E0C3E08AEFC82E1EEF842F81706A
:1022F000982EAA24A394A20E4270D42EDF5F802FC2
:102300008B19180F9920A1F02C2F220F2A0D4E2D7A
:102310004C1B6D2F6F0D84E993E00E947F0E202FE0
:102320004E2D4D1B6C2F6F0D84E993E00E947F0EA4
:10233000DD20A1F02C2F220F2A0D4E2D4C1B6F2DCE
:102340006D1B84E993E00E947F0E202F4E2D4D1BC4
:102350006F2D6C1B84E993E00E947F0EDC1744F420
:1023600017FD04C0C150C394C3941C0D0E5FC6CFAB
:10237000DF91CF911F910F91FF90EF90DF90CF9061
:10238000BF90AF909F9008958F929F92AF92BF920F
:102390000F931F93CF93DF93CDB7DEB7A1970FB6FF
:1023A000F894DEBF0FBECDBF19A2423008F44AE058
:1023B0008E010F5D1F4F842E912CA12CB12CA501F5
:1023C00094010E94FF24E62FB901CA0101501109AE
:1023D000EA3014F4E05D01C0E95CD801EC93232BF2
:1023E000242B252B61F7B80184E993E00E947E0934
:1023F000A1960FB6F894DEBF0FBECDBFDF91CF918F
:102400001F910F91BF90AF909F908F900895E09192
:102410009403F09195030190F081E02D682F84E9F9
:1024200093E009948091620390916303892BB1F149
:1024300080916A038F7169F584E10E94870ABC016B
:10244000990F880B990B0E949D2326EE3FE34EECDB
:1024500050E40E94D8230E94DA209B01709361030C
:1024600060936003672B91F084E080935F03E2E662
:10247000F3E080E0419151912417350718F48093DF
:102480005F0308958F5F8430A9F703C08FEF8093B7
:102490005F0380916A038F5F80936A030895CF92F0
:1024A000EF920F931F93FA01D9012E2D30819C9149
:1024B000432F491B460F481B141614F088E73CC0F5
:1024C0002F3F69F01CF42C3F71F028C0213019F027
:1024D000243049F023C0901788F79F5F19C0332339
:1024E00069F331501AC0332341F0901730F49F5FE5
:1024F0009C9390819150908311C0CC20F9F2492F88
:1025000050E04F5F5F4F10E0401751071CF49E5F93
:102510009C9304C0323090F2325030839C914081C1
:1025200070E0681B7109292F30E0241B3109261740
:10253000370724F2892F841B1F910F91EF90CF90C2
:1025400008956F927F928F929F92AF92BF92CF9297
:10255000DF92EF92FF920F931F93CF93DF93662E3C
:10256000712CD301AA0FBB1FA80FB91F1196DC90C5
:1025700011971C91842E912CD1120AC0F401EE0FF8
:10258000FF1FE80FF91F71815081751709F464C0AE
:102590005401AA0CBB1CA80EB91EF50180817181E3
:1025A000982F9D0D911B971B09F458C0C22FD0E0A6
:1025B000C752DC4FE0E0F0E0E8800E2C000CFF0892
:1025C000F7FE03C0F194E194F10857E0E516F10439
:1025D00034F0EF01CC0FDD1F19163CF020C031960E
:1025E0002396E330F10541F737C0CC24C394223061
:1025F00009F0C12CEC0FFD1FE353FC4FE80DF91D52
:10260000E484423020F0423019F408E001C002E0D6
:1026100095012F5F3F4FA5016D2D812F1AC0CC244E
:10262000C394223009F0C12CEC0FFD1FE353FC4F83
:10263000E60DF71DE484623020F0623019F438E0D2
:1026400001C032E0AD014F5F5F4F032F9A01AD0132
:10265000672F0E944F1203C088E701C080E0DF911E
:10266000CF911F910F91FF90EF90DF90CF90BF908F
:10267000AF909F908F907F906F900895DB01FA014B
:102680009C912081181614F4219501C091952C93EA
:1026900090830895CF92DF92EF92FF920F931F9352
:1026A000CF93DF93C82FD62F862F660F990B8C1BE5
:1026B0009109C7FD939597FF03C091958195910965
:1026C000DD24D39409973CF0D12CDC1744F01C2F67
:1026D0002FE2C6E208C02D2FDFE216E204C01D2F54
:1026E000DC2F26E2CFE2ED2EE11A822F022E000C23
:1026F000990B8C1B9109C7FD939597FF03C091958A
:1027000081959109F82E0E2DE7FE02C001E00E0D15
:102710000595C2171CF0CC24CA9411C0CC24C394D4
:102720000EC0DD2079F0412F6C2F84E993E00E94E8
:102730000F0D0F1907FF02C0CC0D0E0D1F5FD11733
:1027400084F703C04C2F612FF0CFDF91CF911F9101
:102750000F91FF90EF90DF90CF9008950F931F930C
:10276000CF93DF93C82F162FD42F022F242F462F5D
:10277000682F84E993E00E94670D4FEF400F410FEF
:102780002D2F6C2F84E993E00E94670D202F412F9D
:102790006C2F84E993E00E947F0ED1506D2F6C0F57
:1027A000202F412F84E993E0DF91CF911F910F916A
:1027B0000C947F0ECF93DF93CDB7DEB7A1970FB602
:1027C000F894DEBF0FBECDBF789484B5826084BD1F
:1027D00084B5816084BD85B5826085BD85B5816025
:1027E00085BD80916E00816080936E0010928100A3
:1027F000809181008260809381008091810081605E
:10280000809381008091800081608093800080911E
:10281000B10084608093B1008091B00081608093AA
:10282000B00080917A00846080937A0080917A0071
:10283000826080937A0080917A00816080937A0030
:1028400080917A00806880937A001092C10082E3C0
:102850008093C50381E090E0A0E0B0E08093C103E5
:102860009093C203A093C303B093C4038FEF8093EC
:10287000B603E0E8F7E7259134912130304C09F0B8
:1028800049C0E6E9F7E7E491E0939F03E7E9F7E75A
:10289000E491E0934A03E8E9F7E7E491E0934B031E
:1028A000E9E9F7E78591949190934D0380934C0368
:1028B000EBE9F7E78591949190934F0380934E0352
:1028C00088E080937103EEE9F7E7E491E093700309
:1028D000EFE9F7E7E491E093B603E0EAF7E78591E3
:1028E00094919093630380936203E2EAF7E7859102
:1028F00094919093650380936403E4EAF7E78591EC
:1029000094919093670380936603E6EAF7E78591D5
:1029100094912CC09CE390939F0310924A03809360
:102920004B0380E293E090934D0380934C0384ED3E
:1029300093E090934F0380934E0388E0809371035C
:10294000809370038CEA9DE090936303809362030D
:102950008EED9DE0909365038093640384E79EE091
:1029600090936703809366038CE39FE090936903E1
:102970008093680311E0109346036FEF70E085E0E9
:102980000E94280A88E08093500389E080935103D5
:1029900087E08093520386E08093530304E0009322
:1029A000540382E08093550381E1809356030E9493
:1029B000220F8CE39FE09093610380936003009368
:1029C0005F0310936A038BE08093A2038DE08093F2
:1029D000A10380E18093A3038EE08093A5038FE0A1
:1029E0008093A40310939C031093B4031092B50337
:1029F00010939B03ECE7F3E0E491EF5FE09398031F
:102A0000EDE7F3E0E491EF5FE09399038EE793E065
:102A10009093B3038093B2031FB7F8948091300171
:102A2000811127C0EBE7F5E08491EFE8F5E09491A0
:102A3000E82FF0E0EE0FFF1FEC56FF4FA591B49189
:102A4000EC91E92321F461E08AE00E94BC0961E095
:102A50008AE00E94EC098CB580618CBD8CB58064E5
:102A60008CBD61E08DE00E94EC0961E08BE00E948A
:102A7000EC09809130018F5F809330011FBF8CB5CE
:102A80008F7D8CBD8CB58C7F81608CBD8DB5816058
:102A90008DBD8CB58C608CBD61E08091A2030E94DD
:102AA000EC0961E08091A1030E94EC0961E0809152
:102AB000A3030E94EC098091A50318161CF461E0A1
:102AC0000E94EC098091A40318161CF461E00E9496
:102AD000EC098091A503181674F460E00E94BC090B
:102AE0006AE070E080E090E00E94C30A61E08091BB
:102AF000A5030E94BC098091A103082E000C990B2C
:102B0000FC01EF58FA4FE491F0E0EE0FFF1FE256A0
:102B1000FF4F259134913093A9032093A803FC0122
:102B2000EB57FA4FE491E093AF038091A203082E94
:102B3000000C990BFC01EF58FA4FE491F0E0EE0F16
:102B4000FF1FE256FF4F259134913093A703209346
:102B5000A603FC01EB57FA4FE491E093AE0380919A
:102B6000A403082E000C990BFC01EF58FA4FE491D6
:102B7000F0E0EE0FFF1FE256FF4F259134913093A6
:102B8000AB032093AA03FC01EB57FA4FE491E093C7
:102B9000B0038091A303082E000C990BFC01EF58A1
:102BA000FA4FE491F0E0EE0FFF1FE256FF4F259140
:102BB00034913093AD032093AC03FC01EB57FA4FF3
:102BC000E491E093B10381E20E94760F84E10E94D8
:102BD000760F80919F0387FF03C08FE780939F0349
:102BE00080919F0380680E94760F80E20E94760F9A
:102BF0008CE00E94760F0E94950F11E010936F03F6
:102C000084E08093930380E990E090937B0380932A
:102C10007A0360E080E00E94A81061E070E083E049
:102C20000E94280A8091B100887F81608093B10062
:102C3000F8941092800010928100109285001092FA
:102C4000840088E191E090938900809388008091CE
:102C500081008860809381008091810081608093F1
:102C6000810080916F00826080936F0078940E9451
:102C7000121280915C03813019F4109270031EC00F
:102C800080915F038823C9F360E08BE693E00E94A4
:102C9000720B88EA90E09093790380937803109206
:102CA0007E0310927D0310936C0389E0809381036F
:102CB0001092840310928603109288038091B603C9
:102CC000882321F086EB90E00E945307C0906003B8
:102CD000D0906103C094D094E12CF12C0E949E0A04
:102CE0004B015C010E949E0AA5019401209530953C
:102CF0004095509560957095809590950E94902094
:102D00009B01AC01C701B6010E9490204B015C0100
:102D100080914703909148036C01E12CF12C0E94B3
:102D20009E0AC60ED71EE81EF91EC701B601680D21
:102D3000791D8A1D9B1D611571058105910511F095
:102D40000E9468230E940603882311F40C945F1FDD
:102D5000C0905B03CA8E0C2D0F3F09F41A8EC090F1
:102D60005C03C98E0C2D0F3F09F4198E8091590315
:102D70004091570330915A03209158039091CD030D
:102D8000943009F4B5C391E0813009F090E081E01E
:102D9000413009F080E0C92EC81A91E0313009F0C5
:102DA00090E081E0213009F080E0A92EA81A1A8D68
:102DB00011110C946C1F298D2111D5C0C11003C0B5
:102DC000AA2009F485C380E090E0912CF9E0BF2EA1
:102DD000ABE16A2EB9E05B2EA82F31E0C31631F0CB
:102DE00077247394E3E0DE2E60E005C077247A94C4
:102DF000DD24DA9462E0B0E06D1509F442C041E0F0
:102E0000A41206C0FF24FA9488248A9472E005C0B4
:102E1000FF24F39473E0872E70E0562D6503900134
:102E20001124E62EEC0C0E2D0503A00111247815BB
:102E300031F1152D7103F0011124E20FF31FE3535B
:102E4000FC4FE80FF91FE68DE230B9F4BF5FEE15D5
:102E500008F43BC3E72FEA0DE33008F036C30E2F2A
:102E60000103F0011124E40FF51FE353FC4FE80FB9
:102E7000F91FE68DE13009F428C37F0DD8CF670D27
:102E8000BBCFB83709F421C3BB2331F0AB1508F42D
:102E9000BA2E9A1608F49A2E01968930910509F0F7
:102EA0009BCFAB2D9B1408F40EC34BE159E09B1450
:102EB00008F44BC011E0C11204C09FEF8FEF22E075
:102EC00003C091E083E020E06B2C712C2817D9F12E
:102ED00031E0A31204C07FEF6FEF32E003C071E076
:102EE00063E030E0240310011124122F1C0D1403A1
:102EF00020011124361729F13503F0011124E20DC8
:102F0000F31DE353FC4F7F01E60CF71CF701B68D70
:102F1000B230A9F41330B8F4032F0A0D033098F43B
:102F20000503F0011124E40DF51DE353FC4FE60DFC
:102F3000F71D068D011107C0B68FF701168E370FEA
:102F4000D9CF290FC3CFB394B2CF8091CE03C80E8F
:102F5000C092CE038091CF03A80EA092CF0393948A
:102F6000892D8A1BB3C2C1104EC082C1DD2011F46D
:102F70000C945E20F8E7DF1611F40C94612029818F
:102F800099249394920E90E0821B910997FD0196EB
:102F900095958795980EBD808E8190E08B1991094B
:102FA000019697FD019695958795B80E9B815BE1FB
:102FB0008C816981891710F40C943720862E09E0E2
:102FC000099F20011124891410F00C9434203D80B5
:102FD0009201589D200D311D1124B90163537C4F7E
:102FE0003B013B1410F00C943120888E3A8A72E039
:102FF000781510F00C94DC1F8D2D80930001398D15
:10300000332309F435C18091CE03833008F02BC1FE
:103010006091CF03633008F026C14091D00349305E
:1030200008F021C19E012F5F3F4F0E94290822E036
:1030300041E060E0CE0101960E94A112883709F4B8
:1030400014C14D80D12C8BE1382E99E0292E8E8130
:10305000841508F443C0B980642C712C8A818B15C7
:10306000D8F15B803B9C400111248C81851590F147
:10307000F401259CE00DF11D1124E353FC4FE60DF6
:10308000F71D868D823021F5D394B88E5A8A6981D6
:103090002A8130E0261B3109AE014E5E5F4F7A0176
:1030A0008E01085E1F4F4B818C2D0E94A20E888DD1
:1030B000EA892E9EF0011124389EE00DF11D1124A5
:1030C000E353FC4FE60DF71D868D813009F4CDC02A
:1030D0005394CBCFB394C2CF4394B9CFDD2009F43E
:1030E000C2C058E7D51609F4C0C029819924939429
:1030F000920E8A8190E0821B910997FD0196959529
:103100008795980EBB808C8190E08B199109019670
:1031100097FD019695958795B80E3D8019E0212E73
:103120008E816981831508F477C0862E632C712CFB
:10313000891408F06FC05B809BE1989DB001112459
:103140007C8F6B8F5B1408F063C0888E5A8A72E0A4
:10315000781508F486C0751508F483C088E08315D7
:1031600008F47FC0EB8DFC8D259CE00DF11D112432
:10317000E353FC4FE60DF71D468C54E069812A812C
:1031800030E0261B3109FE0172967F018E01085E38
:103190001F4F4B818C2D59A398A30E94A20E488DDE
:1031A000AA896A2F70E0242F30E0269EF001279E26
:1031B000F00D112498A1949FE00DF11D1124E3530B
:1031C000FC4FE60DF71D868D59A1433008F049C02C
:1031D000A33008F046C08130A9F0F1E04F1201C0E1
:1031E000412C929FF001939FF00D1124269E900197
:1031F000279E300D1124E20FF31FE353FC4FE60D21
:10320000F71D468E5150482E09F0B8CF53949ACFEF
:1032100083948ECF339484CF2A8130E0261B3109EA
:10322000AFECEA2EA3E0FA2E0EEC13E04B818C2DCE
:103230000E94A20E42ED53E061ED73E08C2D0E94DE
:103240003E1300E010E0A80146525C4FB8016752FF
:103250007C4F8C2D0E943E130D5F1F4F09301105CE
:1032600091F78D2D03C080E001C088E780930001B5
:10327000AA2009F42DC1CA8CCC2009F429C180915F
:10328000CE03833008F01FC16091CF03633008F094
:103290001AC14091D003493008F015C19E012F5F3B
:1032A0003F4F0E94290820E042E061E0CE010196F4
:1032B0000E94A112883709F408C15980D12CEBE192
:1032C0003E2EF9E04F2E8A81851508F440C0CD804E
:1032D000359C300111248E818C15B8F1BB808C2C6B
:1032E000912C8C818B1578F1F3014B9CE00DF11D35
:1032F0001124E353FC4FE80DF91D868D823009F54A
:10330000D394C88EBA8A4D812E8130E0241B3109B6
:103310008E01085E1F4F7801065011096B818A2DBE
:103320000E94A20E888D9A89F301499EE00DF11D3D
:103330001124E353FC4FE80FF11D868D813009F411
:10334000C4C0B394CECFC394C6CF5394BCCFDD20BA
:1033500009F4B9C018E7D11609F4B7C02B81BB2412
:10336000B394B20E8C8190E0821B910997FD019677
:1033700095958795B80ECD808E8190E08C19910936
:10338000019697FD019695958795C80E29807BE15A
:1033900099E08A81821508F46EC09B80729D20019D
:1033A00011249B1408F065C08D809201999D200D19
:1033B000311D1124A90143535C4F3A018C1408F0CC
:1033C00056C0988E8A8A52E0521508F47AC0591570
:1033D00008F477C068E0681508F473C0F301E80DDD
:1033E000F11D368C54E04D812E8130E0241B3109D3
:1033F000FE0172967F018E01085E1F4F6B818A2D40
:1034000059A37F8F98A30E94A20E288D3A89E32F9B
:10341000F0E0022F10E098A1D201929FA00DB11D03
:103420001124A353BC4FAE0FBF1F5E968C9159A1C0
:103430007F8D393008F045C0233008F042C081301C
:1034400081F021E0321201C0312C909F9001919FB8
:10345000300D1124240D351D23533C4FE20FF31F73
:10346000368E5150382E09F0BECF8394A7CF939457
:1034700098CF23948ECF4D812E8130E0241B3109CB
:1034800050EDE52E53E0F52E0FEC13E06B818A2D05
:103490000E94A20E43ED53E062ED73E08A2D0E947C
:1034A0003E1300E010E0A80145525C4FB80166529F
:1034B0007C4F8A2D0E943E130D5F1F4F093011056E
:1034C00091F78D2D03C080E001C088E78093000153
:1034D00080915A0381508E3F20F481E0C98CC11045
:1034E00001C080E09091CD03943011F08093D70318
:1034F0006091B7037091B8038091B9039091BA03BA
:103500002091D703211106C02091D60330E040E07E
:1035100050E004C022E030E040E050E00E94FF2490
:10352000672B682B692B09F001C38091CD03843090
:1035300009F4FCC2823009F0DAC11091D8030E946C
:10354000632327E030E040E050E00E9496246E5F65
:103550006093D8031092D1031092D2038FEF80931F
:10356000D303812F90E08930910508F0BEC1FC01A2
:10357000EC5CFF4F0C94C02081E08093CE038093DD
:10358000CF0398E09093D0038093D2031092D3039B
:1035900080910E048111A9C182E080930E04909164
:1035A00017049111A2C18093170480912004811106
:1035B0009CC182E08093200487C581E08093CE0384
:1035C0008093CF0388E08093D0038091170481110A
:1035D0008CC182E08093170490913204911185C1CF
:1035E00080933204E2CF91E09093CE039093CF0387
:1035F00028E02093D00382E08093D10333E030931E
:10360000D2039093D3031092D90334E03093DA03BA
:1036100037E03093DB031092DC032093DD039093BB
:10362000DE0329E02093DF039093E0031092E1038F
:103630009091FC03911159C18093FC039091170460
:10364000911153C1809317049091320491114DC18F
:103650008093320490913104911147C180933104D9
:1036600033C581E08093CE038093CF0398E090939D
:10367000D0031092D9038093DA0327E02093DB0371
:103680001092DC039093DD0394E09093DE0399E0C5
:103690009093DF031092E0038093E103809117047D
:1036A000811123C182E0809317049091320491111B
:1036B0001CC18093320490912004911116C1809313
:1036C000200490911604911110C180931604FCC43B
:1036D00081E08093CE038093CF0398E09093D00352
:1036E0001092D9031092DA0327E02093DB031092A3
:1036F000DC039093DD038093DE0399E09093DF0376
:103700001092E0038093E103809117048111EDC0D2
:1037100082E080931704909132049111E6C0809367
:103720003204909120049111E0C080932004909184
:103730003B049111DAC080933B04C6C481E08093BE
:10374000CE038093CF0398E09093D0038093D2036D
:103750001092D3031092D9038093DA0327E02093C9
:10376000DB031092DC039093DD0394E09093DE037F
:1037700099E09093DF031092E0038093E10380913E
:1037800017048111B2C082E0809317049091320433
:103790009111ABC08093320490910E049111A5C099
:1037A00080930E049091F30391119FC08093F303D3
:1037B0008BC481E08093CE038093CF0388E0809315
:1037C000D0031092D9031092DA0397E09093DB03B1
:1037D0001092DC038093DD031092DE0389E0809376
:1037E000DF031092E0031092E1038091170481112E
:1037F0007CC082E08093170490913204911175C0CF
:103800008093320429C081E08093CE038093CF035C
:1038100088E08093D0031092D9031092DA0397E0E6
:103820009093DB031092DC038093DD031092DE03A0
:1038300089E08093DF031092E0031092E10380910E
:103840001704811152C082E0809317049091FC0309
:1038500091114BC08093FC0390912004911145C0BD
:103860008093200480911F0481113FC082E08093E7
:103870001F042AC481E08093CE038093CF0398E095
:103880009093D0038093D2031092D3031092D90364
:103890008093DA0327E02093DB031092DC039093FC
:1038A000DD0394E09093DE0399E09093DF031092A0
:1038B000E0038093E10380911704811116C082E038
:1038C000809317049091320491110FC080933204B9
:1038D00090910E04911109C080930E049091FC0305
:1038E000911103C08093FC03EFC384E01DC18330BA
:1038F00009F061C08BE693E00E94520BEE24E39442
:1039000040E050E0F12C80E0FA01E353FC4F968D4B
:10391000933019F0811110C045C081110DC0FE2CEB
:1039200009E0F01649F0EF2DF0E0E353FC4F868DEF
:10393000833011F4F394F4CF80E090E00F2D10E089
:1039400020E030E0DC01A00FB11FBC01640F751F47
:10395000E8E0EF1538F0F901EA0FFB1FE353FC4FE5
:10396000D68C01C0D12CF901E60FF71FE353FC4FB1
:10397000D68E275F3F4F2B31310551F74B9681355E
:103980009105F1F6F8E0FF1508F0F39429E0C22E56
:10399000FC1439F0EF2DF0E0E353FC4F868D8330BB
:1039A000A1F381E04F5F5F4FE3940AE0E012ACCFF8
:1039B00082E08093CD0360E070E080E040E050E082
:1039C00020E030E0DA01A60FB71FF901EA0FFB1F74
:1039D000E353FC4F968D923039F48F5F21153105FA
:1039E00099F0958D913081F02F5F3F4F293031054F
:1039F00061F7475F5F4F4B31510511F7655E7F4FB0
:103A000061357105D9F601C088E79FEF980F9737A8
:103A100018F56DEC73E033E0AB0123E080E090E05B
:103A2000FA01E80FF91FA78DA23011F4A68F178EA7
:103A3000019688309105A1F72150475F5F4F211112
:103A4000EDCF3150655E7F4F3111E6CF8091D003CD
:103A500081508093D0036AC0883709F067C0809195
:103A6000CD03882309F45FC0813009F05FC0209145
:103A7000D4033091D503E3E3F4E010E083E0EE24D7
:103A8000E39499E0D92EDE0EBF016656710903E07A
:103A900090E040E050E0DB01A40FB51F5E96FC9083
:103AA0005E976894CC24C1F8FC1003C05E96EC923B
:103AB00001C0F1109F5F475F5F4F4B31510559F7D0
:103AC0000150655E7F4F0111E4CF9930B1F4265F5C
:103AD0003F4F1F5FDF01A854B1098C9319968C9357
:103AE00019968C9319968C9319968C9319968C939E
:103AF00019968C9319968C9380833196DE12C4CFDD
:103B00002F5F3F4F3093D5032093D4038FEF8093E3
:103B1000D0038093CF038093CE03112311F083E071
:103B200003C082E001C081E08093CD0383E08093F5
:103B3000B4038093B50307E220E140E06DE184E93E
:103B400093E00E948A0D11E01093B4031093B50323
:103B500064E18DE10E944A1363E28CE20E944A1301
:103B60001093B4031093B5031092E2031092E5038F
:103B70001092E8031092E3031092E6031092E90317
:103B80001092E4031092E7031092EA0342EE242E0F
:103B900043E0342E6101812C912C54EF552E4424A6
:103BA00043940EE005190B8F3DE2732E750CA12C8A
:103BB000B12C86016B8CE12CF12CB501680D791DBF
:103BC0007E8F6D8FED8DFE8DEE0DFF1DE353FC4F4F
:103BD000568D523019F15330F1F1513009F066C071
:103BE0001092B4031092B50320E731E0472D662D03
:103BF00084E993E059A30E94CD0B59A15093B403DB
:103C00005093B5032CE531E0472D662D84E993E010
:103C10000E94CD0BF801808181601BC01092B4031B
:103C20001092B50320E731E0472D662D84E993E03B
:103C30000E94CD0B4092B4034092B50328E431E0DA
:103C4000472D662D84E993E00E94CD0BF801808119
:103C5000826080832BC01092B4031092B50320E7DA
:103C600031E0472D662D84E993E00E94CD0B409210
:103C7000B4034092B5036091B7037091B80380918B
:103C8000B9039091BA0325E030E040E050E00E9493
:103C9000FF2420FD03C028E431E002C02CE531E020
:103CA000472D662D84E993E00E94CD0BF5E06F0E61
:103CB0002BE1E20EF11C0D5F1F4F31E5E316F1041D
:103CC00009F080CF4BEF740E5FEFA51AB50A75109F
:103CD00070CF23E0522E570C7FEFC71AD70A89E026
:103CE000880E911C9DEF59125CCF2EE04EE060E2F1
:103CF00080E00E94AE1331E293E0D92ECC24C3942D
:103D0000710111E0F701808180FF12C0D092B403ED
:103D1000D092B50304E024E0432F612F84E993E0BF
:103D20003F8F0E948A0DC092B403C092B5033F8DAD
:103D3000F701808181FF08C024E044E0632F812FD8
:103D40003F8F0E94AE133F8DF3E0EF0EF11C1C5F1E
:103D50001D30C1F63C5F0FEF201A300A3D3281F66C
:103D60008091CD038430E1F1E091D8038E2F90E073
:103D7000FC013297E730F105F0F4E35CFF4F0C945F
:103D8000C0202EE331E011C024E331E00EC02AE26E
:103D900031E00BC020E231E008C026E131E005C08F
:103DA0002CE031E002C022E031E044E064E084E94C
:103DB00093E00E94CD0BCA8CCC2019F02AEE30E0A3
:103DC00005C0C98CCC2049F02EEC30E048E16CE312
:103DD00084E993E00E94CD0B23C028EB30E0F6CFBE
:103DE00012E310939D0388E180939E0364E171E0E8
:103DF00084E993E00E947E096CE171E084E993E03C
:103E00000E947E0910939D036FE171E084E993E0C5
:103E10000E947E096CE171E084E993E00E947E09D2
:103E200082E080939E0382E3F82EF0929D038091BE
:103E3000D4039091D5031B8A1A8A1D8A1C8A1F8A73
:103E40001E8A4AE08E010F5F1F4FB8010E94712346
:103E5000F80101900020E9F73197AF01401B510BA9
:103E6000B801CE0142960E943E09E0919403F09180
:103E700095034E895F896A897B890280F381E02DF1
:103E800084E993E009956CE171E084E993E00E9494
:103E90007E098A899B890E947D22F0929D038091F0
:103EA0005D03813061F48091CD03843091F0809185
:103EB000B603882321F087EB90E00E94530780E04F
:103EC00090E0892B11F40C94A2160E9400000C942F
:103ED000A2160E94BF0EF3CFCC2009F4C9C980916D
:103EE000CE03833008F0EAC06091CF03633008F05E
:103EF000E5C04091D003493008F0E0C09E012F5F3B
:103F00003F4F0E94290821E042E060E0CE01019687
:103F10000E94A112883709F4D4C0B980D12C9BE14A
:103F200059E08A818B1510F40C94B6172B809B9D59
:103F3000200111248C818215E8F13D80529D3001D1
:103F400011249201260D371D890103531C4F48018E
:103F50008E81831568F1F401E30DF11D868D8230A9
:103F600029F5D394B88E3A8A69812A8130E0261BDC
:103F70003109FE0172967F018E01085E1F4F4D814F
:103F80008C2D59A398A30E94A20E8A89288D98A1EE
:103F9000F301929FE00DF11D1124E353FC4FE80F54
:103FA000F11D868D59A1813009F48BC03394D0CF97
:103FB0002394C0CFB394B5CF933010F00C94FC177A
:103FC00088E0831510F40C94FC17F301E30DF11D48
:103FD000268C74E069812A8130E0261B3109FE01BC
:103FE00072967F018E01085E1F4F4D818C2D59A363
:103FF0007F8F98A30E94A20E288D3A89E32FF0E0CC
:10400000022F10E059A1D201529FA00DB11D112421
:10401000A353BC4FAE0FBF1F5E968C917F8D98A1AE
:10402000233010F00C94FC17393010F00C94FC176E
:10403000813081F021E0221201C0212C509F90019B
:10404000519F300D1124240D351D23533C4FE20F99
:10405000F31F268E7150282E09F0BCCF33940C9498
:10406000F11783940C94E3179F5F0C94D8172A815F
:1040700030E0261B310940EDE42E43E0F42E0EEC37
:1040800013E04D818C2D0E94A20E43ED53E061EDB3
:1040900073E08C2D0E943E1300E010E0A801455211
:1040A0005C4FB80167527C4F8C2D0E943E130D5F10
:1040B0001F4F0930110591F70C94FC1780E00C9408
:1040C000FD1788E70C94FD179E012F5F3F4F48E0D6
:1040D00061E081E00E9429081092CD0327CD8091F4
:1040E0003701909138010C947D2210929703109221
:1040F000960380E191E09093950380939403E7E326
:10410000F1E011821082138212821582148240E043
:1041100050E06EE171E0CF010E943E090C94BF0EA9
:10412000DB018F939F930E94B524BF91AF91A29F13
:10413000800D911DA39F900DB29F900D11240895A5
:10414000991B79E004C0991F961708F0961B881FE9
:104150007A95C9F78095089597FB072E16F4009479
:1041600007D077FD09D00E94C62007FC05D03EF499
:10417000909581959F4F0895709561957F4F089513
:10418000EE0FFF1F0590F491E02D0994AA1BBB1BB5
:1041900051E107C0AA1FBB1FA617B70710F0A61B47
:1041A000B70B881F991F5A95A9F780959095BC0168
:1041B000CD0108950E94752488F09F5798F0B92F7B
:1041C0009927B751B0F0E1F0660F771F881F991F4C
:1041D0001AF0BA95C9F714C0B13091F00E948F243B
:1041E000B1E008950C948F24672F782F8827B85F4B
:1041F00039F0B93FCCF3869577956795B395D9F7A4
:104200003EF490958095709561957F4F8F4F9F4FAD
:104210000895A0E0B0E0EFE0F1E20C94CC24EC01D2
:10422000009721F4CB010E94E821B8C0FC01E60F01
:10423000F71F9C0122503109E217F30708F4ACC0C4
:10424000D9010D911C91119706171707B0F0053091
:10425000110508F49FC0C80104978617970708F452
:1042600099C002501109061B170B019311936D930E
:104270007C93CF010E947D228DC05B01A01AB10A00
:104280004C01800E911EA0913E04B0913F0440E08D
:1042900050E0E12CF12C109709F44AC0A815B9059B
:1042A000D1F56D907C901197630182E0C80ED11C0E
:1042B000CA14DB0480F1A3014A195B096A0182E098
:1042C000C80ED11C1296BC9012971396AC91B5E013
:1042D000CB16D10440F0B282A38351834083D9012D
:1042E0006D937C930AC00E5F1F4FC301800F911F17
:1042F000F90191838083EB2DFA2FE114F10431F061
:10430000D7011396FC93EE93129744C0F0933F04A9
:10431000E0933E043FC08D919C9111974817590737
:1043200008F4AC017D0112960D90BC91A02DB3CF85
:1043300080913C0490913D0488159905E1F446175D
:104340005707C8F48091020190910301009741F44E
:104350008DB79EB74091060150910701841B950BC4
:10436000E817F907C8F4F0933D04E0933C04F90121
:10437000718360830FC0CB010E94E8217C0100970C
:1043800059F0A801BE010E94D821CE010E947D22D1
:10439000C70104C0CE0102C080E090E0CDB7DEB717
:1043A000EEE00C94E82481E090E0F8940C94302541
:1043B000FB01DC0102C001900D9241505040D8F742
:1043C0000895FB01DC0101900D920020E1F70895B2
:1043D000CF93DF938230910510F482E090E0E0917A
:1043E0003E04F0913F0420E030E0C0E0D0E03097A0
:1043F00011F14081518148175907C0F048175907FA
:1044000061F482819381209719F09B838A832BC06A
:1044100090933F0480933E0426C02115310519F086
:104420004217530718F49A01BE01DF01EF01028021
:10443000F381E02DDCCF2115310509F1281B390B63
:104440002430310590F412968D919C91139761154B
:10445000710521F0FB019383828304C090933F0494
:1044600080933E04FD01329644C0FD01E20FF31F2C
:1044700081939193225031092D933C933AC020911E
:104480003C0430913D04232B41F4209104013091F0
:10449000050130933D0420933C04209102013091AA
:1044A00003012115310541F42DB73EB740910601B6
:1044B00050910701241B350BE0913C04F0913D0421
:1044C000E217F307A0F42E1B3F0B2817390778F0EB
:1044D000AC014E5F5F4F2417350748F04E0F5F1F4A
:1044E00050933D0440933C048193919302C0E0E0DB
:1044F000F0E0CF01DF91CF9108950F931F93CF93F9
:10450000DF93009709F48CC0FC013297138212826A
:1045100000913E0410913F040115110581F42081A2
:104520003181820F931F20913C0430913D04281764
:10453000390779F5F0933D04E0933C0471C0D8014C
:1045400040E050E0AE17BF0750F412962D913C9119
:104550001397AD012115310509F1D901F3CF9D0163
:10456000DA013383228360817181860F971F82175E
:10457000930769F4EC0128813981260F371F2E5FDC
:104580003F4F318320838A819B8193838283452B94
:1045900029F4F0933F04E0933E0442C01396FC9349
:1045A000EE931297ED01499159919E01240F351F09
:1045B000E217F30771F480819181840F951F0296B1
:1045C00011969C938E938281938113969C938E93E4
:1045D0001297E0E0F0E0D80112968D919C9113972C
:1045E000009719F0F8018C01F6CF8D919C919801FC
:1045F0002E5F3F4F820F931F20913C0430913D046A
:104600002817390769F4309729F410923F04109263
:104610003E0402C01382128210933D0400933C04B6
:10462000DF91CF911F910F9108958F929F92AF923A
:10463000BF92CF92DF92EF92FF92CF93DF93EC0184
:10464000688179818A819B81611571058105910558
:1046500021F464E279ED8BE597E02DE133EF41E061
:1046600050E00E94962449015A019B01AC01A7EA3F
:10467000B1E40E94B5246B017C01ACEEB4EFA5015E
:1046800094010E94C324DC01CB018C0D9D1DAE1D45
:10469000BF1DB7FF03C00197A109B0488883998364
:1046A000AA83BB83BC01CD019F77DF91CF91FF909F
:1046B000EF90DF90CF90BF90AF909F908F90089534
:1046C0000E941523089588E091E00E941523089523
:1046D000609308017093090180930A0190930B0184
:1046E0000895BB27FB015527AA27880F991FAA1FEA
:1046F000A41710F0A41B83955051B9F7A05DAA33FD
:1047000008F0A95DA193009779F7B111B1931192C7
:10471000CB010C948B23DC01FC01672F7191772373
:10472000E1F7329704C07C916D9370836291AE176C
:10473000BF07C8F30895E89409C097FB3EF490952D
:104740008095709561957F4F8F4F9F4F9923A9F06A
:10475000F92F96E9BB279395F695879577956795F9
:10476000B795F111F8CFFAF4BB0F11F460FF1BC03D
:104770006F5F7F4F8F4F9F4F16C0882311F096E9D0
:1047800011C0772321F09EE8872F762F05C066237E
:1047900071F096E8862F70E060E02AF09A95660F37
:1047A000771F881FDAF7880F9695879597F90895F0
:1047B0000E94EB230C945C240E944E2438F00E944B
:1047C000552420F0952311F00C9445240C944B248F
:1047D00011240C9490240E946D2470F3959FC1F3D2
:1047E000950F50E0551F629FF001729FBB27F00D9F
:1047F000B11D639FAA27F00DB11DAA1F649F6627F4
:10480000B00DA11D661F829F2227B00DA11D621F42
:10481000739FB00DA11D621F839FA00D611D221FFC
:10482000749F3327A00D611D231F849F600D211DE0
:10483000822F762F6A2F11249F5750409AF0F1F063
:1048400088234AF0EE0FFF1FBB1F661F771F881FCC
:1048500091505040A9F79E3F510580F00C9445249B
:104860000C9490245F3FE4F3983ED4F386957795BB
:104870006795B795F795E7959F5FC1F7FE2B880F72
:10488000911D9695879597F9089597F99F6780E808
:1048900070E060E008959FEF80EC089500240A9492
:1048A0001616170618060906089500240A9412160B
:1048B0001306140605060895092E0394000C11F43E
:1048C000882352F0BB0F40F4BF2B11F460FF04C0EB
:1048D0006F5F7F4F8F4F9F4F089557FD9058440F44
:1048E000551F59F05F3F71F04795880F97FB991F4F
:1048F00061F09F3F79F0879508951216130614060C
:10490000551FF2CF4695F1DF08C016161706180698
:10491000991FF1CF86957105610508940895E89473
:10492000BB2766277727CB0197F90895052E97FBBC
:104930001EF400940E94AD2457FD07D00E94FF246E
:1049400007FC03D04EF40C94AD245095409530955F
:1049500021953F4F4F4F5F4F0895909580957095EB
:1049600061957F4F8F4F9F4F08950E942125A59FEE
:10497000900DB49F900DA49F800D911D112408955A
:10498000B7FF0C94B5240E94B524821B930B0895A5
:104990002F923F924F925F926F927F928F929F924F
:1049A000AF92BF92CF92DF92EF92FF920F931F933D
:1049B000CF93DF93CDB7DEB7CA1BDB0B0FB6F894EE
:1049C000DEBF0FBECDBF09942A88398848885F842E
:1049D0006E847D848C849B84AA84B984C884DF809F
:1049E000EE80FD800C811B81AA81B981CE0FD11D83
:1049F0000FB6F894DEBF0FBECDBFED010895A1E262
:104A00001A2EAA1BBB1BFD010DC0AA1FBB1FEE1F48
:104A1000FF1FA217B307E407F50720F0A21BB30B93
:104A2000E40BF50B661F771F881F991F1A9469F70F
:104A300060957095809590959B01AC01BD01CF016B
:104A40000895A29FB001B39FC001A39F700D811D67
:104A50001124911DB29F700D811D1124911D089587
:104A600012E0CBEDD2E004C0FE010E94C0202196EE
:0A4A7000CC3DD107C9F7F894FFCF41
:104A7A00580100004004800001000000000000000E
:104A8A00B30D110950726573732043000D0A007447
:104A9A006F207374617274004C4F41444552000098
:107E0000112484B714BE81FFF0D085E080938100F7
:107E100082E08093C00088E18093C10086E0809377
:107E2000C20080E18093C4008EE0C9D0259A86E02C
:107E300020E33CEF91E0309385002093840096BBD3
:107E4000B09BFECF1D9AA8958150A9F7CC24DD24C4
:107E500088248394B5E0AB2EA1E19A2EF3E0BF2EE7
:107E6000A2D0813461F49FD0082FAFD0023811F036
:107E7000013811F484E001C083E08DD089C08234E0
:107E800011F484E103C0853419F485E0A6D080C0E4
:107E9000853579F488D0E82EFF2485D0082F10E0AE
:107EA000102F00270E291F29000F111F8ED06801E7
:107EB0006FC0863521F484E090D080E0DECF843638
:107EC00009F040C070D06FD0082F6DD080E0C81688
:107ED00080E7D80618F4F601B7BEE895C0E0D1E017
:107EE00062D089930C17E1F7F0E0CF16F0E7DF06D8
:107EF00018F0F601B7BEE89568D007B600FCFDCFD4
:107F0000A601A0E0B1E02C9130E011968C91119780
:107F100090E0982F8827822B932B1296FA010C0160
:107F200087BEE89511244E5F5F4FF1E0A038BF0790
:107F300051F7F601A7BEE89507B600FCFDCF97BE46
:107F4000E89526C08437B1F42ED02DD0F82E2BD052
:107F50003CD0F601EF2C8F010F5F1F4F84911BD097
:107F6000EA94F801C1F70894C11CD11CFA94CF0C13
:107F7000D11C0EC0853739F428D08EE10CD085E9AC
:107F80000AD08FE07ACF813511F488E018D01DD067
:107F900080E101D065CF982F8091C00085FFFCCF94
:107FA0009093C60008958091C00087FFFCCF809118
:107FB000C00084FD01C0A8958091C6000895E0E648
:107FC000F0E098E1908380830895EDDF803219F02E
:107FD00088E0F5DFFFCF84E1DECF1F93182FE3DFCA
:107FE0001150E9F7F2DF1F91089580E0E8DFEE27F6
:047FF000FF270994CA
:027FFE00040479
:0400000300007E007B
:00000001FF
