:100000000C9409120C9431120C9431120C9431128C
:100010000C9431120C9431120C9431120C94311254
:100020000C9431120C9431120C9431120C94EA1A83
:100030000C9431120C9431120C9431120C94311234
:100040000C94F9260C9431120C9431120C94311248
:100050000C9431120C9431120C9431120C94311214
:100060000C9431120C9431122D002E002F002F0011
:100070002D002E002F0030002D002E002F002F000D
:100080002D002E002F0030003100320033003400EC
:1000900031003200330034003100320033003400CC
:1000A00031003200330034000D000E000F0010004C
:1000B0000D000E000F00100035003600370038002C
:1000C000350036003700380035003600370038007C
:1000D000350036003700380035003600370038006C
:1000E00039003A003B003C0039003A003B003C003C
:1000F00039003A003B003C0039003A003B003C002C
:1001000000000000000000000000000000000000EF
:10011000FFFF0000000000000000000000000000E1
:1001200000000100020003000400010002000500BD
:1001300006000000000000000000000000000000B9
:10014000000007000800070009000700080007007A
:100150000900070008000700090007000800070061
:1001600009000A000B000A000C000D000E000F0031
:1001700010001100120013001400150016001700E3
:100180001800150016001700180019001A001B00AF
:100190001C001D001E001F00200021002200230063
:1001A0002400250026002700280029002A002B0013
:1001B0002C000000000000000000FFFF3D003D009B
:1001C0003D003D003D003D003D003D003D003D0047
:1001D0003D003D003D003D003D003D003D003D0037
:1001E0003D003D003E003F00400041003E003F001A
:1001F00040004100420043004400450042004300EB
:1002000044004500420043004400450046004700CA
:1002100048004900460047004800490046004700A2
:100220004800490046004700480049004600470092
:10023000480049004A004B004C004D004A004B006A
:100240004C004D004A004B004C004D004A004B0052
:100250004C004D003D003D003D003D003D003D0097
:100260003D003D00FFFFFFFF546865204F74686547
:10027000722044617973204D757369632064656DE4
:100280006F0048124C1256126A127E129212AE126F
:10029000C212FA1232136A13A213D21302141E14DA
:1002A00054148614B014D2140C153E15681582151A
:1002B000BC15EE1522162C164016541668167C1620
:1002C0009816AC16C016DC1600171C1738175417F2
:1002D00068178417A017BC17D017EC17F617461825
:1002E0009618E618361952196E198A19B019DA19C2
:1002F000041A2E1A581A741AB61AE81A1A1B1E1B58
:10030000941B0C1C841CFC1C3E1D801DC21D041E65
:10031000661EC01E221F7C1FBE1F0020422084209C
:1003200088208C2094209C20546865204F74686538
:10033000722044617973204D757369632064656D23
:100340006F003026000000000000000000000000E8
:10035000000000000000000000000000000000009D
:1003600000000000000000000700000000C0079F20
:10037000FFFFF9E007BFFFFFFDC004FFFFFFFC40E8
:100380000FFFFFFFFD480FFFFFFFF840BFFFFFFF1C
:10039000FC050FFFFFFF7830037FFFF6DCE8007FEE
:1003A000FFFFF9A4603FFFFFD954E81FFFFFF88269
:1003B000F8BFFFF55808F23FFDDFB022EF7FB6A48B
:1003C000A0028FF56D555003BFBD52AAB00BFF2799
:1003D000FFFEC03DF0540001403DEF7B242CB1EF07
:1003E000FFC0092D01FFFFFFC00357FC16900480DA
:1003F000E00000000000000000000000000000001D
:1004000000000000000000000000000000000000EC
:1004100000000000000000000000000000000000DC
:100420000000000000000000302600000000000076
:1004300000000000000000000000000000000000BC
:1004400000000000000000010000000007000000A4
:1004500000000F0000000000000000E802ABFC00FC
:1004600001F6AFD7F80100CD6EFDB001000FFBAB78
:10047000700100BEACAAB00100FEAAAAB54101FD00
:100480005555640141ECAAABB802000AADFCA003CB
:1004900000055692B01E0004AAED603E0804AA951D
:1004A000A03E1C09556AA0FC3E05555561DC3FCCB9
:1004B000AABE81F8D5CCB7C167F0C3FD680B07C0F1
:1004C000F3E000290700FCA01003C000FE0C0000B0
:1004D000C000FFF8C0000000FFFF000000007FE048
:1004E0000000000008000000000000000000000004
:1004F00000000000000000000000000000000000FC
:100500000000000000000000000000000000302695
:1005100000000000000000000000000000000000DB
:100520001000000000000000000000038000000038
:1005300000018000000000080000000000A0000092
:10054000000002050000000170160000000DF0BB65
:1005500040000084D1D700000080777A40000088F6
:100560007AD72000008036AA90000090FADF300091
:100570000181C76A7C0008805AAA7800008035DAB9
:10058000F000088076B6F000048035ADF0000084FD
:10059000735DE000048F36F5800004CFB5C4000021
:1005A000008FF7300000048FF40E000000FBF00411
:1005B000000000FFFC00000000FFA000000000FFA2
:1005C00070000000007FE0000000007FC00000001D
:1005D000007F80000000001E0000000000000000FE
:1005E000000000000000000000000000000000000B
:1005F00000000000302600000000000000000000A5
:100600000000000001000000000000C00000000029
:10061000070000000000028000000000034000000E
:100620000000018000000000038000000000007056
:100630000000000001F00000000000B00000000019
:1006400001700000000000F00000000001C8000080
:10065000000000A00000000006C00000000001F043
:100660000000000007B00000000005F000000000DE
:1006700003F00000000005600000000003F8000027
:100680000000057C00000000037C0000000005F86D
:1006900000000000037C0000000000F800000000E3
:1006A000037E0000000002FC0000000001FC0000CE
:1006B0000000007C0000000002B8000000000160A3
:1006C00000000000004000000000000000000000EA
:1006D00000000000000000000000302600000000C4
:1006E000000000000000000000000000000000000A
:1006F00000000000000400000000001B9400000047
:10070000010552B00000005FAF0500000134FA4A55
:10071000000000ADFF2350000029FA85B400012934
:10072000FF56D00C0069BF2B240C0119FF86480C22
:100730000059FFE1240E0149FFFECAAC00918EF979
:10074000290C00688144924C0091A024248C0069FB
:10075000A806910C0055A90D248C00298146454C12
:100760000017888C958C0005E002AA8C0011F8080F
:10077000564C00057F87158C0000BED4F44C000059
:100780003FF5555C00000FFEAACC000002CF775861
:1007900000000037BF980000000ABEF00000000112
:1007A0004DA000000000100000000000000000004C
:1007B0000000000000000000000000000000000039
:1007C00030260000000000000000000000000000D3
:1007D0000000000000000000000000000000000019
:1007E0000000000000004B1054A0000017F07FFF35
:1007F000C0004AFDDFFFE9E0BFDFFFFFECC0DFEF35
:10080000FFFFF320BFB7F5FFC000BD5FFDFFE005B0
:10081000BD9BFAFFE400BF5DC6154960FF9FB5AA06
:100820000000BFBFDA5400005FBF04A000001FBF7C
:100830000000000540BFAA00000693BF2470081006
:10084000902F54080014AA9E000000C0752D0000CF
:100850000090FB7F00000205DA95448012477BFF81
:10086000FA50013D000B74BFF56F00000A85FD7B57
:100870000000000004A800000000000000000000CC
:100880000000000000000000000000000000000068
:100890000000000000000000000000000000000058
:1008A00000000000000030260000000000000000F2
:1008B0000000000000000000000000000000000038
:1008C0000000000000000000000000000000000028
:1008D0000A00000025C0088003400220000004B880
:1008E00025400000024760000000016454800000C1
:1008F00076D1B28010004585600000008A15D600D0
:1009000000002E02440000004A8B400010108C2A88
:10091000E0000000D55F40001001174AC00001024E
:10092000454DA0000005040BC000021500AEA0005C
:100930000024208B400000D4880DC00000B0C00609
:10094000A00073402A1BC03B8000D94ABC000000B5
:10095000ACAD2400000056200000000000000000A4
:100960000000000000000000000000000000000087
:100970000000000000000000000000000000000077
:100980000000000000000000000000003026000011
:100990000000000000000000000000000000000057
:1009A0000000000000000000000000000000000047
:1009B0000000000000000000000000000000000037
:1009C0000000000000000000000000000000000027
:1009D0000000000000000000000000000000000017
:1009E00000000000000000000008000000000000FF
:1009F00001000000000000000000000000000000F6
:100A000000010200000000000800000000000000DB
:100A100000000002000000000000000800000000CC
:100A200001000000000200000000000800000000BB
:100A300000000200000000000000000000100000A4
:100A400000000000000000000002000000000000A4
:100A50000000000000000000000000000000000096
:100A60000000000000000000000000000000000086
:100A70000000302600000000000000000000000020
:100A800000009000000000007800000000008C00D2
:100A9000000000014700000000008B800000000003
:100AA000C1C000000000E0E00000000051D80000DC
:100AB000000049E800000000651200000001CB368C
:100AC00000000001E91A00000003C5020000000355
:100AD000D58E00000003D3FA00000001CB3A60007D
:100AE0000001D77420000003E97E40000001D77C9C
:100AF00040000000737C80000000B77C40000000D4
:100B000059F4800000002FD4400000002BBC80006E
:100B100000000FFC0000000007FC8000000007FC44
:100B20000000000007FC0000000007FC00000000BF
:100B300007F80000000001F88000000000B8000085
:100B400000000000000000000000000000000000A5
:100B5000000000000000000030260000000000003F
:100B60000000000000000000000000006000000025
:100B70000000407900000000007EFD000000107FB2
:100B8000EB74000000FFFFEDA00069FFFFFFEF0026
:100B900057FFFFFFFFC06AFFFFFFFF806DFFFFFFF2
:100BA000FF004AFFFFFFFF00779FFFFFFE004FEFB0
:100BB000FFFFEFA07FAFFFFFFDFA3FEFFFFFF7AAB8
:100BC0007FFFFFFFFFE07EF7FFFFFFDA3FFFBFFF82
:100BD000DFD03FF76FFFE7E41FD7FADF51520FF581
:100BE000FFB76AC007FF8BFDA43703F1E47F515FB5
:100BF00000FEBA84235F010BD6DFD5FF00000CF3A3
:100C0000EAFF000043A05FFB000000CEFFFF0000F2
:100C10000016FFFE000000000BFC000000000000BA
:100C200000000000000000000000000000000000C4
:100C3000000000000000000000000000000030285C
:100C400000000003000000000006C0000000000CCF
:100C50006000000000183000000000300C000000B0
:100C600000601E00000000C0360000000180660029
:100C700000000300C60000000601960000000C03FF
:100C8000360000000C06760000000E0CD6000000B6
:100C90000B199600000009F31E00000008665E00B4
:100CA0000000084C1E000000085A7FFC0000085895
:100CB0007EFC0000084BF7F800001E48663C000070
:100CC0007E48C6180001DE4996000007784B3600C2
:100CD000003DC84E0E0003EF08480C003F3C0840A2
:100CE000180039E0084830003F80085E70001C00A2
:100CF000085DB000180008CB3F00000008C63100B6
:100D0000000006CE3F00000003DE3E00000001FEB2
:100D100000000000006700000000003F000000002D
:100D2000000C0000000000000000000000000000B7
:100D3000302800000003000000000006C000000092
:100D4000000C6000000000183000000000300C00B3
:100D5000000000601E00000000C03600000001809E
:100D6000660000000300C6000000060196000000B7
:100D70000C03360000000C06760000000E0CD600B6
:100D800000000B199600000009F31E000000086621
:100D90005E000000084C1E000000085A7FFC0000A6
:100DA00008587EFC0000084BF7F800001E48663C1F
:100DB00000007E48C6180001DE4996000007784B07
:100DC0003600003DC84E0E0003EF08480C003F3CC3
:100DD0000840180039E0084830003F80085E700085
:100DE0001C00085DF000180008CBB000000008C629
:100DF0009800000006CECC00000003DE7C0000005E
:100E000001FE18000000007600000000001B00003A
:100E10000000000E000000000000000000000000C4
:100E20000000302800000001800000000003600086
:100E30000000000630000000000C18000000001840
:100E40000600000000300E00000000401A00000004
:100E500000803200000001004200000002008A0011
:100E6000000004011A00000006023A000000070C0E
:100E70006A0000000598CA00000004710B00000021
:100E800004226B800000042D0AC0000004293B608E
:100E90000000042D6BBC0000066DDADC00001F6C46
:100EA000227800007F64C2380001DE659A30000FAE
:100EB0007C671E00003DCC66060003EF0C640C004E
:100EC0001F3C0C6018001DE00C6630001F800C6E8B
:100ED00070001C000C6CF0001C000C459800000019
:100EE0000E43C800000003447800000001DE00004B
:100EF00000000076000000000027F0000000000C59
:100F000018000000000FF800000000007000000052
:100F100000000000301BFFFFFFFFFFFFF00E7EE030
:100F2000CCF7E0073B7C107BC0067778007FE000C1
:100F3000000000FBE000000000DFC0000000000334
:100F4000E000000000DBE00000000073E30000218F
:100F5000C073E7DF767BF033C7C63321F023D6E6D4
:100F60003F71F803E7C63E7BF07BEEC46E63F0F39F
:100F7000EDCC76E3F07BEFC46E63B0FBE78E767F5B
:100F8000F07BE30000011003F48004900003E24AC8
:100F900050020003E01D267850FBE03FFEF8FCFB0A
:100FA000C01EEEE1F9FBE00CFEE1F9FBE01CFDF1F7
:100FB000F9F7FFFFFFFBFF0F301BFFFFFFFFFFFFF6
:100FC000E03FEEF0A9FFE01F76F0F8FBE01CEEC07A
:100FD000F9DFE00C7EF0F8FBC00E7EF800FBE00CC1
:100FE000FEE09003C00CEEE0C8F3E00C6EF810F3E6
:100FF000C00CEEF040F3E000000000FBC000000079
:10100000019BC00000000003C000000000D3E0000E
:1010100000000073C600000280E3CFBF6CF7E063FE
:10102000CF8CEEC7E043ED8C6CC3F003DD88FEF798
:10103000E0F3CFCC7CE7E0E3ED88EEC760F3CFCC04
:101040006CC3F0BBCF08EEF760E3E2000425400379
:10105000FA8000000007FFFFFFFFFF0F301BFFFFBC
:10106000FFFFFFFFF01FF778FCFFE0031BB03E7FA0
:10107000C0073F787C6FE0067E7808FFE00C7EE0DA
:10108000A003E00E76E08873C00C777850FBE00692
:101090007678085BE000000000FBE000000000DF65
:1010A000C00000000003E0000000005BC000000082
:1010B000007BD0000000003BC3CF911DF833E6C693
:1010C0007661F033C7E23B31B803C3631FB8F81F42
:1010D000EEC63E7BF0E3EDCC66E3F07BEFCC6E43F7
:1010E00070FBE7C46EFBF073C50824532003E200D5
:1010F00000000007ED2121000007FFFFDEFFFF0FCA
:10110000301BFFFFFFFFFFFFFFE63B7FF8FFC3E061
:101110000000902FC00000000003EED5552400030E
:10112000C00091118007F800FFFBC3C7F401CFDEB8
:101130000F8FE8031FB83F3FC0033FBC3E7FC8038B
:101140009FDE0817C0039FDC1507C8039DB8323F18
:10115000C0031BBE043FC0039DBE123FE000000061
:10116000003FC80000000003E00000000007F0009E
:101170000000000FC0000000001FC06800011C0735
:10118000C0F9F767BE0FC7E71FF8F803E7E33F3181
:10119000F80FE7F31FDEF87BFEC67663F0F7FFFF7C
:1011A000FFFFFF0F301BFFFFFFFFFFFFEA3FDEE106
:1011B000F1FFE0086880F1B3C008FAC0F0E7C008AA
:1011C0007CE000E3C00048800007C008A90000C31D
:1011D000C0105AC000C7C00048E000A3C000000013
:1011E00001E3C00000000003C00000000007C000D1
:1011F00000000043C000000000C7C0000002004320
:10120000CE1480C78087E908A882C003D5007C87F8
:101210004003E900F9C7C0C3C800AC438147EA08EE
:101220005586C063C9004CC340A7C60059F6C0C369
:10123000C00000000007F410A5200007E0820000B5
:101240000007FFFFFFFFFF0FFC2C000081018978E2
:101250000500682C00008101897805008412FC04D7
:1012600081018978050070160000810189780500E8
:101270007012FC148101897805007006000081015C
:10128000897805006812FC048101897805006016E0
:1012900000008101897805007012FC0F81018978B6
:1012A000050078068101897805007005000081013C
:1012B000897805006012FC048101897805005816C0
:1012C00000008101897805003805810189780500D1
:1012D0006805FC018101897805006805FC0681012B
:1012E000897805006805FC0681018978050060059C
:1012F0008101897805006806000081018978050070
:101300003805FC0681018978050078058101897816
:1013100005006005FC018101897805006805FC066F
:1013200081018978050060058101897805006806DA
:1013300000008101897805003805FC068101897863
:10134000050078058101897805006005FC018101AF
:10135000897805006805FC0681018978050060052B
:101360008101897805005406000081018978050013
:1013700068058101897805009805FC01810189785B
:1013800005009805FC068101897805009805FC0692
:10139000810189780500900581018978050098060A
:1013A00000008101897805006805FC0681018978C3
:1013B0000500A8058101897805009005FC018101DF
:1013C00089780500A005FC06810189780500980B45
:1013D00000008101897805006805FC068101897893
:1013E0000500A8058101897805009005FC018101AF
:1013F000897805009805FC06810189780500900B25
:101400000000410289788500380B41028978850007
:101410005415FC0741028978850038050000410217
:101420008978850054064102897885005C0641026E
:10143000897885007004FC0141028978850068057F
:10144000FC014102897885005C1041028978050021
:1014500054050000410289788500400B41028978DB
:1014600085005C064102897885005406410289782E
:101470008500400B4102897885004005410289784A
:101480008500400500004102897885004C06410234
:101490008978850068114102897885004C0B4102EA
:1014A000897885004C054102897885004C0500004B
:1014B000410289788500380B410289788500540BF8
:1014C0004102897885003811410289788500380504
:1014D00000004102897885005405FC0141028978A9
:1014E00085005C05FC014102897885007004FC01DF
:1014F0004102897885006805FC01410289788500F0
:101500005C10410289780500540500004102897889
:101510008500400B4102897885005C06410289788C
:1015200085005406410289788500400B4102897884
:101530008500400541028978850040050000410290
:10154000897885004C06410289788500681141023E
:10155000897885004C0B4102897885004C05410251
:10156000897885004C050000C101C9780500380B59
:10157000C101C978C500541CC101C97805003805EE
:101580000000C101C97805005406C101C9780500F1
:101590005C06C101C97805007005C101C978050064
:1015A0006806C101C978C500700BC101C978050082
:1015B0005C05C101C978050054050000C101C97866
:1015C0000500400BC101C97805005C06C101C9785E
:1015D00005005406C101C978C500400BC101C97896
:1015E00005004005C101C978050040050000C101A2
:1015F000C97805004C06C101C97805006811C10110
:10160000C978C5004C05C101C97805005403FC0325
:10161000C101C97805004C05C101C97805004C0518
:101620000000810189780500682C0000810189781B
:1016300005008412FC048101897805007016000001
:101640008101897805007012FC14810189780500F8
:10165000700600008101897805007C12FC0481017C
:1016600089780500741600008101897805006812E8
:10167000FC0F810189780500680B000081018978E1
:1016800005008412FC04810189780500700B81013A
:1016900089780500680B00008101897805007012C7
:1016A000FC0F810189780500700B000081018978A9
:1016B00005007C12FC048101897805007416000085
:1016C0008101C97805006819FC088101C978050005
:1016D00068068101C9780500680500008101C978A4
:1016E00005008419FC028101097905008C0681013D
:1016F000C978050084068101C978050084050000C9
:101700008101C97805007019FC088101C9780500BC
:1017100070068101C9780500700500008101C97853
:1017200005007C19FC088101C97805007C0681014F
:10173000C97805007C0500008101C9780500681999
:10174000FC088101C978050038068101C9780500C7
:10175000680500008101C97805008419FC08810131
:10176000C9780500540B00008101C9780500701983
:10177000FC088101C978050010068101C9780500BF
:10178000480500008101C97805007C19FC08810129
:10179000C97805004C068101C97805007C05000068
:1017A0008101C97805006819FC088101C978050024
:1017B00038068101C9780500680500008101C978F3
:1017C00005008419FC088101C9780500540B00004C
:1017D0008101C97805007019FC088101C9780500EC
:1017E00010068101C9780500480500008101C9780B
:1017F00005007C2C00008101897805003805FC017A
:101800008101897805000805FC01810189780500BE
:101810003804FC018101897805000805FC0181017B
:10182000897805003804FC018101897805000805E4
:10183000FC018101897805003804FC018101897867
:101840000500080500008101897805004405FC01B8
:101850008101897805001405FC0181018978050062
:101860004404FC018101897805001405FC01810113
:10187000897805004404FC0181018978050014057C
:10188000FC018101897805004404FC01810189780B
:101890000500140500008101897805005405FC014C
:1018A0008101897805002405FC0181018978050002
:1018B0005404FC018101897805002405FC018101A3
:1018C000897805005404FC0181018978050024050C
:1018D000FC018101897805005404FC0181018978AB
:1018E0000500240500008101897805004C05FC01F4
:1018F0008101897805001C05FC01810189780500BA
:101900004C04FC018101897805001C05FC01810162
:10191000897805005404FC018101897805002405BB
:10192000FC018101897805005404FC01810189785A
:10193000050024050000810189780500680B8101FC
:1019400089780501540EFC0E81018978050068052F
:1019500000008101897805008406810189780501EC
:10196000700EFC1381018978050084050000810157
:1019700089780500700B8101897805015C0EFC0EE9
:1019800081018978050070050000810189780500D2
:101990007C06810189780500980EFC038101897815
:1019A00005014C0DFC038101897805007C050000D0
:1019B000810049880500080B810049880500080B53
:1019C000810049880500080B810049880500080648
:1019D0008100498805001005000081004988050044
:1019E000240B810049880500240B810049880500EB
:1019F000240B8100498805002406810049880500E0
:101A00002C050000810049880500100B81004988E1
:101A10000500100B810049880500100B81004988E2
:101A200005001006810049880500180500008100A6
:101A3000498805001C0B8100498805001C0B8100AA
:101A4000498805001C0B8100498805001C0681009F
:101A50004988050024050000010189780500380B3C
:101A6000010189780500540BFC11010189780500FA
:101A700038050000010189780500540601018978C4
:101A800005005C060101897805007005010189786F
:101A90000500680601018978050070050101897853
:101AA000050070060101897805005C05010189784F
:101AB000050054050000410209790500400B410270
:101AC000097905005C0641020979050054064102C6
:101AD00009790500400B41020979050040054102E2
:101AE00009790500400500004102097905004C060E
:101AF00041020979050068114102097905004C0588
:101B000041020979050054064102097905004C0596
:101B10004102097905004C050000FC2C0000010180
:101B20000979050008060101097905000801FC0191
:101B30000101097905000801FC020101097905008C
:101B40000803FC030101097905000801FC010101FA
:101B5000097905000801FC02010109790500080363
:101B6000FC030101097905000801FC010101097963
:101B700005000801FC020101097905000803FC03C6
:101B80000101097905000801FC010101097905003D
:101B9000080300000101097905002403FC03010189
:101BA000097905002401FC010101097905002401DE
:101BB000FC020101097905002403FC0301010979F4
:101BC00005002401FC010101097905002401FC0242
:101BD0000101097905002403FC03010109790500CD
:101BE0002401FC010101097905002401FC02010125
:101BF000097905002403FC0301010979050024018A
:101C0000FC010101097905002403000001010979A3
:101C100005001003FC030101097905001001FC0116
:101C20000101097905001001FC0201010979050093
:101C30001003FC030101097905001001FC010101F9
:101C4000097905001001FC02010109790500100362
:101C5000FC030101097905001001FC01010109796A
:101C600005001001FC020101097905001003FC03C5
:101C70000101097905001001FC0101010979050044
:101C8000100300000101097905001C03FC03010198
:101C9000097905001C01FC010101097905001C01FD
:101CA000FC020101097905001C03FC03010109790B
:101CB00005001C01FC010101097905001C01FC0261
:101CC0000101097905001C03FC03010109790500E4
:101CD0001C01FC010101097905001C01FC02010144
:101CE000097905001C03FC030101097905001C01A9
:101CF000FC010101097905001C03000001010979BB
:101D00000500080601010979050038060101097975
:101D10000500080501010979050038060101097966
:101D20000500080501010979050038060101097956
:101D300005000805010109790500380500000101C9
:101D400009790500240601010979050054060101FD
:101D500009790500240501010979050054060101EE
:101D600009790500240501010979050054060101DE
:101D700009790500240501010979050054050000D1
:101D800001010979050010060101097905004006E5
:101D900001010979050010050101097905004006D6
:101DA00001010979050010050101097905004006C6
:101DB00001010979050010050101097905004005B7
:101DC00000000101097905001C06010109790500DF
:101DD0004C060101097905001C050101097905007E
:101DE0004C060101097905001C050101097905006E
:101DF0004C060101097905001C050101097905005E
:101E00004C0500000101097905003802FC010101BF
:101E10000979050008030101097905003806010167
:101E2000097905003801FC0401010979050038062B
:101E30000101097905003801FC0401010979050057
:101E4000380301010979050008030101097905003A
:101E50003801FC0401010979050038030101097901
:101E60000500080200000101097905005402FC0484
:101E700001010979050054060101097905005401A1
:101E8000FC0101010979050024030101097905001C
:101E900054060101097905005401FC040101097986
:101EA000050054060101097905005401FC040101F3
:101EB0000979050054030101097905002402000095
:101EC0000101097905004002FC01010109790500C1
:101ED0001003010109790500400601010979050097
:101EE0004001FC040101097905004006010109795E
:101EF00005004001FC0401010979050040030101CE
:101F00000979050010030101097905004001FC046D
:101F1000010109790500400301010979050010025A
:101F200000000101097905004C02FC040101097956
:101F300005004C060101097905004C01FC01010175
:101F4000097905001C030101097905004C0601010E
:101F5000097905004C01FC040101097905004C06D2
:101F60000101097905004C01FC0401010979050012
:101F70004C030101097905001C02000001010979E7
:101F800005000806010109790500380601010979F3
:101F900005000805010109790500380601010979E4
:101FA00005000805010109790500380601010979D4
:101FB0000500080501010979050038050000010147
:101FC000097905002406010109790500540601017B
:101FD000097905002405010109790500540601016C
:101FE000097905002405010109790500540601015C
:101FF000097905002405010109790500540500004F
:102000000101097905001006010109790500400662
:102010000101097905001005010109790500400653
:102020000101097905001005010109790500400643
:102030000101097905001005010109790500400534
:1020400000000101097905001C060101097905005C
:102050004C060101097905001C05010109790500FB
:102060004C060101097905001C05010109790500EB
:102070004C060101097905001C05010109790500DB
:102080004C0500000101F7030101FF0303031700E2
:102090001730170003031700170417000303171C5A
:1020A0001730170003053F213F1208120A100A0ECD
:1020B0001C0E0C1E0C141A14161F161E131E1E1BAB
:1020C0001E1E1F1E3F213F3A2F3A173D173F213F4B
:1020D000181F02040A041F0E04040E1F0A1F0A0E12
:1020E0000E1F04110E2E252E2F2A2E262929021FFF
:1020F00002081F08150E04040E150E15151B151BDE
:10210000040604040C040000000017000300031F71
:102110000A1F16371A1904130A153A000300000E95
:1021200011110E000A040A040E0400300004040415
:102130000010001804031F111F121F101D15171186
:10214000151F07041F17151D1F151D01011F1F1542
:102150001F17151F000A00003200040A110A0A0A9C
:10216000110A040115020E11171E051E1F150A0E75
:10217000110A1F110E1F15111F05010E111D1F043D
:102180001F111F1108100F1F041B1F10101F061F07
:102190001E040F0E110E1F09060E112E1F051A1216
:1021A0001509011F011F101F0F180F1F0C1F1B0403
:1021B0001B031C03191513001F11030418111F0022
:1021C0000201022020200001020C121E1F120C0C22
:1021D00012120C121F0C1A14041E05242A1E1F02B0
:1021E0001C141D1020201D1F0814111F101E041E7A
:1021F0001E021C0C120C3E0A040C123E1E04021499
:10220000160A020F120E101E0E100E1E081E120CC1
:102210001226281E322A26041E21001F00211E0419
:102220000102013F213F45006801000005006801EF
:10223000380100000500380168010000F6E8DBCF36
:10224000C3B8AEA49B928A827B746E68625C57525C
:102250004E4945413E3A3734312E2C29272523213A
:102260001F1D1C1A1917161514131211100F0E0D1D
:102270000C0B0A090807067B227F220101F70301E4
:1022800001FF030A4E6F2053442063617264206F84
:10229000720A6E6F204C4F414445522E4845580AF1
:1022A0000A153A45786974001D20466C61736869A7
:1022B0006E670A20206C6F616465722E2E2E0A0AEA
:1022C000444F4E2754205455524E204F464621002D
:1022D0006D560A0A504C454153450A5455524E20FA
:1022E0004F4646004C4F5720424154544552590ADC
:1022F00000177361766500166261636B001574796F
:102300007065000A0A0A153A6F6B617920163A6502
:1023100064697400596F7520656E74657265640A2E
:1023200000540A03E181867F3E186D830F0F0E0172
:1023300083866033186DC3198F1803C38E603318FA
:102340006DE330CF1803C39E603630CDE360CF30ED
:1023500006C79E7E3E30CDB360CF300CC6F66033EC
:1023600030D9B660CF33CFCCF66061B0DB1E60CF22
:1023700030D86CE6C061B0DB1E618F19986CC6C0A6
:1023800063B19B0E330F0FB078C6FF7E1F1B061E76
:102390000F1753440016137800161314001510205D
:1023A000001520100000000500893008023802499D
:1023B000786814000000000000240027002A0000B4
:1023C000000000250028002B00000000002300264C
:1023D00000290004040404040404040202020202AA
:1023E00002030303030303010204081020408001D9
:1023F0000204081020010204081020000000070059
:1024000002010000030406000000000000000000BC
:10241000811411241FBECFEFD8E0DEBFCDBF11E085
:10242000A0E0B1E0E6EDF9E502C005900D92A43719
:10243000B107D9F714E0A4E7B1E001C01D92A538B7
:10244000B107E1F714E2C2E1D4E204C02297FE0131
:102450000E94AE2CC031D107C9F70E94EF2A0C941C
:10246000E92C0C940000A0E0B0E0E9E3F2E10C9468
:10247000BA2CEC01A880B980CA80DB80A114B10419
:10248000C104D10441F484E2A82E89EDB82E8BE575
:10249000C82E87E0D82EC601B5012DE133EF41E00B
:1024A00050E00E94912C27EA31E440E050E00E9485
:1024B0001D2C7B018C01C601B5012DE133EF41E0FC
:1024C00050E00E94912CCA01B9012CEE34EF4FEF7D
:1024D0005FEF0E941D2C6E0D7F1D801F911F97FFC7
:1024E00004C06150704080409048688379838A833B
:1024F0009B839B01AC015F77B901CA01CDB7DEB701
:10250000EAE00C94D62C0E943312089586E691E0FE
:102510000E9433120895609366017093670180935F
:1025200068019093690108958F929F92BF92CF9214
:10253000DF92EF92FF920F931F93CF93DF93982F29
:10254000FA013196B49031978491A82FB0E0179694
:1025500033E0B595A7953A95E1F782E0E82EF12CA6
:10256000EE0EFF1E362F67FD395F35953595359593
:1025700084E53802E0011124892F992787FD909581
:10258000C80FD91FCC57DD4F213009F06AC0262F64
:10259000277081E090E0382F01C0330F2A95EAF7C9
:1025A00012966F01CA0EDB1E129700E010E06F5FFB
:1025B000772767FD70954FC0FA01949197FF04C08B
:1025C000F4018081832B808396FF04C0F401818114
:1025D000832B818395FF04C0F4018281832B828346
:1025E00094FF04C0F4018381832B838393FF04C091
:1025F000F4018481832B848392FF04C0F4018581DC
:10260000832B858391FF04C0F4018681832B86830D
:1026100090FF04C0F4018781832B87834F5F5F4F56
:1026200088E090E0880E991E4C155D0529F6EA0EAB
:10263000FB1EC801860F971F87709070892B11F4BD
:10264000CC5ADF4F37FF02C031E001C0330F0F5FBC
:102650001F4FCA0EDB1EB01609F4E1C0A7014E01E0
:10266000E3CF462F552747FD5095222309F06DC033
:102670004770507081E090E002C0880F991F4A9522
:10268000E2F7382F309512966F01CA0EDB1E1297B3
:1026900000E010E06F5F772767FD709550C0FA018A
:1026A000949197FF04C0F40180818323808396FF77
:1026B00004C0F40181818323818395FF04C0F40168
:1026C00082818323828394FF04C0F4018381832366
:1026D000838393FF04C0F40184818323848392FF66
:1026E00004C0F40185818323858391FF04C0F40134
:1026F00086818323868390FF04C0F401878183232E
:1027000087834F5F5F4F88E090E0880E991E4C15DD
:102710005D0529F6EA0EFB1EC801860F971F87701C
:102720009070892B11F4CC5ADF4F37FD02C03EEF79
:1027300002C0330F3F5F0F5F1F4FCA0EDB1EB01684
:1027400009F46DC0A7014E01E2CF4770507081E0DF
:1027500090E002C0880F991F4A95E2F7382F129631
:102760006F01CA0EDB1E129700E010E06F5F772743
:1027700067FD70954FC0FA01949197FF04C0F40172
:1027800080818327808396FF04C0F40181818327A1
:10279000818395FF04C0F40182818327828394FFA3
:1027A00004C0F40183818327838393FF04C0F40171
:1027B00084818327848392FF04C0F4018581832769
:1027C000858391FF04C0F40186818327868390FF6F
:1027D00004C0F4018781832787834F5F5F4F88E0C0
:1027E00090E0880E991E4C155D0529F6EA0EFB1E39
:1027F000C801860F971F87709070892B11F4CC5AEF
:10280000DF4F37FF02C031E001C0330F0F5F1F4FB2
:10281000CA0EDB1EB01619F0A7014E01E4CFDF91FE
:10282000CF911F910F91FF90EF90DF90CF90BF90CD
:102830009F908F90089560915602709157028091F9
:1028400058029091590223E030E040E050E00E94AD
:102850006F2CCA01B90128E430E040E050E00E944A
:102860006F2C6331710514F4CB011CC0603271050B
:10287000A4F4CB01449763E070E00E945C2C22EF4B
:1028800030E0829FA001839F500D929F500D112434
:10289000425C534F82E160E016C064337105BCF4C2
:1028A000CB0180976AE070E00E945C2C26EE30E05D
:1028B000829FA001839F500D929F500D11244E5B6B
:1028C0005C4F82E165E021E00E9494120895683433
:1028D0007105B4F4CB01C49765E070E00E945C2CF4
:1028E00024EA30E0829FA001839F500D929F500DFB
:1028F00011244C5E504F82E16AE021E00E94941264
:102900000895109237021092360280E791E090937A
:1029100035028093340208950F931F9384E791E06A
:102920000E94231E882309F4D2C00E941B148091A8
:10293000560290915702A0915802B0915902B09559
:10294000A095909581959F4FAF4FBF4FB695A79596
:102950009795879580933D028AE280933E0284E3B7
:1029600092E060E071E00E949A2A809199018823A8
:1029700009F45EC084E392E062E00E94202180912D
:10298000A501992787FD9095909581959F4F8C0182
:10299000000F111F000F111F080F191F84E392E091
:1029A00060E048E227E00E94B9218091A6019927C2
:1029B00087FD9095909581959F4F8C01000F111F79
:1029C000000F111F080F191F84E392E068E048E22E
:1029D00027E00E94B9218091A701992787FD909552
:1029E000909581959F4F8C01000F111F000F111FB3
:1029F000080F191F84E392E065E448E227E00E9493
:102A0000B9218091A801992787FD9095909581958E
:102A10009F4F8C01000F111F000F111F080F191F6E
:102A200084E392E06DE448E227E00E94B92122C0ED
:102A30001AE110933D0284E180933E0284E392E028
:102A400066E371E00E949A2A10933E021CE0109304
:102A50003D0284E392E06EE371E00E949A2A1093B3
:102A60003D0284E280933E0284E392E06FE471E0F1
:102A70000E949A2A8EE791E066E00E9481268823D0
:102A800031F189E991E00E947D1784E791E068E6E1
:102A900072E00E943F2089E991E068E670E040E042
:102AA0000E94921789E991E062E171E041E00E94A1
:102AB000921789E991E06CEB71E042E00E94921775
:102AC00089E991E066E672E043E00E9492171F9167
:102AD0000F9108950F9384E791E00E94442084E7CA
:102AE00091E00E94D81D84E791E068E273E00E94C3
:102AF0003F2080EA92E0A0E0B0E0809356029093FD
:102B00005702A0935802B093590284E791E06EE116
:102B10000E94FE1B00E089E991E062E872E0402F2C
:102B20000E94F81589E991E06EE173E0402F0E9460
:102B300003160F5F043079F789E991E062E171E0F3
:102B400040E00E94921789E991E068E670E041E078
:102B50000E94921789E991E06CEB71E042E00E94DB
:102B6000921789E991E066E672E043E00E949217CD
:102B700089E991E061E041E020E003E00E940E1667
:102B80000F910895882319F48CB5806202C08CB52A
:102B90008F7D8CBD08959CB5937F982B9CBD089527
:102BA0002CB5382F33702C7F322B3CBD2DB590E0E7
:102BB000959587959595879581702E7F822B8DBDF4
:102BC00008958AE061E00E94CA288AE061E00E94DC
:102BD0008B288CB580618CBD8CB580648CBD8DE0FC
:102BE00061E00E948B288BE061E00E948B280895B1
:102BF000443040F4E42FF0E0EE0FFF1FE80FF91F20
:102C000070A3678F0895443040F4E42FF0E0EE0F96
:102C1000FF1FE80FF91F74AB63AB08950F93CF93B9
:102C2000DF93EC01043008F06BC0623009F450C04F
:102C3000633030F4662359F0613009F061C011C08F
:102C4000633009F44BC0643009F05AC04DC0FC0138
:102C5000E00FF11DE15BFF4F4B3008F04AE040838D
:102C60004FC0A02FB0E0BD01660F771F680F791F1E
:102C7000842F90E0880F991FFB0123A934A9280F06
:102C8000391FF901859194916D587F4FFB01918314
:102C90008083FC0145915491FE01EA0FFB1FE5582A
:102CA000FF4F8889849F002D11240083252F33270F
:102CB000802F90E02817390708F4052FAC0FBD1FAF
:102CC000A158BF4F8889089F802D11248C9318C06C
:102CD000FC01E00FF11DE55AFF4F0BC0FC01E00FB6
:102CE000F11DED59FF4F05C0FC01E00FF11DE55945
:102CF000FF4F8889489F802D11248083349620833C
:102D0000DF91CF910F910895CF93DF93EC01643061
:102D100008F03FC0A62FB0E0FC01EA0FFB1FED5A00
:102D2000FF4F108238971082CD01880F991FC80F6E
:102D3000D91FCD57DF4F198218823C961082FD01B2
:102D4000E458FD4F1082FD01E858FD4F1082A05954
:102D5000BD4F1C9280917002882311F490E002C054
:102D600090917C0280917102882319F080917D02FC
:102D7000980F80917202882319F080917E02980F3B
:102D800080917302882319F080917F02980F9093AD
:102D9000B400DF91CF9108951F93CF93DF93EC019F
:102DA000162F643028F40E948416C10FD11D1C8296
:102DB000DF91CF911F9108950F931F938C0160E0D5
:102DC0000E94CC16C80161E00E94CC16C80162E0E6
:102DD0000E94CC16C80163E00E94CC161F910F918F
:102DE0000895EF92FF921F93CF93DF93EC017B0145
:102DF000142F4430F0F4642F0E94CC16812F90E001
:102E0000FC01EE0FFF1FEC0FFD1FF4A6E3A6FF96DB
:102E100011821082FE01E80FF91F81E08483E15BDB
:102E2000FF4F89E080833C96108238961082389656
:102E30001082DF91CF911F91FF90EF9008951F9323
:102E4000CF93DF93AC01162F6430A8F5262F30E026
:102E5000EC01C20FD31F8881882369F18C818823FC
:102E600051F5D901AA0FBB1FA40FB51F8B8D90E0A0
:102E7000880F991F5396ED91FC915497E80FF91F15
:102E8000859194912FEF8F3F920711F4188213C010
:102E90009FA390E0880F991F5F96ED91FC9190970A
:102EA000E80FF91F65917491CA01412F0E94F11634
:102EB0008B8D8F5F8B8FDF91CF911F9108950F9333
:102EC0001F938C0160E00E941F17C80161E00E94FF
:102ED0001F17C80162E00E941F17C80163E00E942B
:102EE0001F171F910F910895643030F4FC01E60F15
:102EF000F11D10820E94CC1608950F931F938C0130
:102F000060E00E947417C80161E00E947417C80154
:102F100062E00E947417C80163E00E9474171F9159
:102F20000F910895EF92FF921F93CF93DF93EC01DF
:102F30007B01142F443098F4642F0E947417E12F02
:102F4000F0E0DE01AE0FBF1F5B961C925B97EE0FA9
:102F5000FF1FEC0FFD1FF48AE38A81E08C93DF9161
:102F6000CF911F91FF90EF9008956F927F929F9263
:102F7000AF92BF92CF92DF92EF92FF920F931F9387
:102F8000CF93DF937C01962E23E0261708F4B3C07D
:102F9000C62EDD24DC01AC0DBD1D14968C9114975A
:102FA000882309F4A8C0A55BBF4F8C91AB54B040F7
:102FB000882309F0A0C05601AA0CBB1CAE0CBF1C94
:102FC0008501015C1F4FE801E881F981EE0FFF1FC9
:102FD000E5014BA55CA5E40FF51F25913491211562
:102FE000310509F047C0DB968C91DB97813039F4CD
:102FF000F80111821082FA01259134913BC0149698
:103000001C9214978C91882381F0C7010E941F178E
:10301000D8018D919C91880F991FE501EBA5FCA526
:10302000E80FF91F2591349125C0C7010E9484162D
:1030300062C0E6E036952795EA95E1F76F70422F7A
:103040004F7175E0369527957A95E1F72051C701C4
:10305000092D0E940E168881998101969983888393
:10306000880F991FD501ED91FC91E80FF91F25916B
:1030700034910DC03601660C771CC701860D971D73
:10308000EC01EF964BE2A42EB12CA80EB91EB901AB
:10309000769567957695679520FDCBCFF701EC0D7A
:1030A000FD1DE95BFF4F862F8F7380833496E70108
:1030B0008889839F802D11248083E05CFF4F1082DC
:1030C000D701A60DB71DAD57BF4F11961C921E928A
:1030D000F89781E0808320E732E0C20ED31EE6013C
:1030E000888334961082A454B0408D919C9111979E
:1030F00001968D939C93DF91CF911F910F91FF903B
:10310000EF90DF90CF90BF90AF909F907F906F90A7
:1031100008950F931F938C0160E00E94B517C801BA
:1031200061E00E94B517C80162E00E94B517C801AE
:1031300063E00E94B5171F910F910895DF92EF92FF
:10314000FF920F931F93CF93DF937C01D62E43E022
:10315000461708F452C1062F10E0DC01A00FB11F82
:10316000AD5ABF4F8C91A355B040882309F445C197
:10317000FD01E55BFF4F8081882321F4C7010E9498
:1031800084163BC181508083BD0165577F4FFB0191
:103190008081882309F052C0F801EE0FFF1FEE0D69
:1031A000FF1DEF01CD57DF4F888199810196880F70
:1031B000991FED58FF4F0190F081E02DE80FF91FA6
:1031C00025913491A157BF4F822F87708C93A9010D
:1031D000F3E056954795FA95E1F7CA0196958795DC
:1031E0001496232F3327269526952C938F73F7015A
:1031F0002089829F802D1124FB018083F801E058F3
:10320000FD4F41704083888199810196998388831D
:1032100058972C91AB57B04030E08217930770F06D
:10322000A158BF4F8C91882329F0281B310939837D
:10323000288304C0C7016D2D0E948416E701C00FCA
:10324000D11FFE01E557FF4F808181508083FE0131
:10325000E95AFF4F90819F5F9083FE01ED56FF4F2B
:10326000C95BDF4FE0818881C754D040E80F8FA150
:10327000E80FE887CD59DF4F6881C356D0406623F9
:1032800089F0892F992787FD909570E00E945C2C2A
:10329000C959DF4F8881C756D040869F802D1124A1
:1032A0008E0F8887F701E00FF11F808590E0CB96A5
:1032B0006BE370E00E945C2C8087E15BFF4F208114
:1032C000EF54F0402487E55AFF4F6081EB55F04002
:1032D0006623A1F0E95AFF4F8081772767FD70953B
:1032E000992787FD90950E945C2C38968081EF5538
:1032F000F040869F802D1124820F8487F701E00F14
:10330000F11FE559FF4F6081EB56F0406623C1F095
:10331000E95AFF4F8081992787FD909570E00E94C0
:103320005C2CCB0162E070E00E945C2C789690816E
:10333000EF56F040899F802D11249485890F848752
:10334000F701E00FF11F84858A300CF089E0F70166
:10335000E00FF11F87FD80E08487F701E00FF11F88
:10336000E95BFF4F8081E754F0408F3309F4148606
:10337000F894A701400F511FDA011896EC91F0E084
:10338000E45CFD4DE491D801AC58BD4FEC93FA01DB
:103390002485332727FD309549565F4FDA018C91FC
:1033A00090E0F901E89F9001E99F300DF89F300D02
:1033B0001124D70151968C9190E0F901E89F90017A
:1033C000E99F300DF89F300D112448505040DA012C
:1033D0008C91992787FD9095FC012E9FC0012F9F0E
:1033E000900D3E9F900D1124F801E858FD4F808309
:1033F00004581D4FD8018C937894DF91CF911F9181
:103400000F91FF90EF90DF9008950F931F938C0121
:1034100060E00E949E18C80161E00E949E18C801E9
:1034200062E00E949E18C80163E00E949E181F91EE
:103430000F91089560917802662341F180916C02AA
:103440008F5F80936C02909174028917F8F090E07E
:1034500080917002882309F491E090937002109299
:103460006C0280918002882379F080916A0123E4C4
:10347000829FC0011124895B80936A0190E070E013
:103480000E94482C80937C0221E001C020E06091E2
:103490007902662339F180916D028F5F80936D020E
:1034A000909175028917F0F090E080917102882365
:1034B00009F491E09093710210926D028091810263
:1034C000882379F080916A0123E4829FC00111244E
:1034D000895B80936A0190E070E00E94482C8093A1
:1034E0007D0221E060917A02662339F180916E02BB
:1034F0008F5F80936E02909176028917F0F090E0D2
:1035000080917202882309F491E0909372021092E4
:103510006E0280918202882379F080916A0123E40F
:10352000829FC0011124895B80936A0190E070E062
:103530000E94482C80937E0221E060917B026623EA
:1035400039F180916F028F5F80936F0290917702C3
:103550008917F0F090E080917302882309F491E0DC
:103560009093730210926F0280918302882391F0EE
:1035700080916A0123E4829FC0011124895B8093BA
:103580006A0190E070E00E94482C80937F0202C0A4
:103590002223F9F080917002882311F490E002C098
:1035A00090917C0280917102882319F080917D02B4
:1035B000980F80917202882319F080917E02980FF3
:1035C00080917302882319F080917F02980F909365
:1035D000B40008951F920F920FB60F9211242F93EB
:1035E0003F934F935F936F937F938F939F93AF938B
:1035F000BF93EF93FF930E941A1AFF91EF91BF912F
:10360000AF919F918F917F916F915F914F913F917A
:103610002F910F900FBE0F901F90189564E372E2E8
:1036200040E00E94F116089566E272E240E00E94D6
:10363000F1160895FC01862F628970E06F5F7F4F5D
:10364000992787FD90950E945C2C818B08959F920D
:10365000AF92BF92CF92DF92EF92FF920F931F93A0
:10366000CF93DF93EC0181E0888B67E9C62ED12CE4
:10367000CC0EDD1E53E3E52EF12CEC0EFD1E10E00A
:103680009924939447E7A42E42E2B42EF601919236
:103690006F01F701A192B1927F01CE0161E040E09C
:1036A00020E0012F0E940E161F5F143079F783E08F
:1036B00061E070E00E942B288091B100887F8160DA
:1036C0008093B100F89410928000109281001092C3
:1036D00085001092840088E191E0909389008093A6
:1036E00088008091810088608093810080918100B2
:1036F00081608093810080916F00826080936F0071
:103700007894DF91CF911F910F91FF90EF90DF9010
:10371000CF90BF90AF909F900895FC0181E080838F
:10372000089585E070E00E942B2808956F927F92A3
:103730008F929F92AF92BF92CF92DF92EF92FF92C1
:103740000F931F93CF93DF93EC0189819A818C01B2
:1037500024E0000F111F2A95E1F7081B190B85E1E2
:103760000E940928BC01600F711F84E0769567955F
:103770008A95E1F77A8369838881882381F12E8194
:103780003F816217730710F4B90106C088859985D7
:103790008617970708F4BC0100D000D080E090E0C5
:1037A00040E050E0E884F98400E010E0AD80BB2404
:1037B000CC24DD246C80772488249924EDB7FEB7CF
:1037C00061827282838294820E949D2A6B830F9011
:1037D0000F900F900F9085E070E00E942B28DF91F2
:1037E000CF911F910F91FF90EF90DF90CF90BF90FE
:1037F000AF909F908F907F906F900895FC01262F3F
:10380000E051FF4F88EE93E070E00E945C2C6083F3
:10381000E05FF040822F64E10E943C2C882309F491
:1038200081E085AB0895CF93DF93DC01E0E8F7E713
:1038300085919491ED01C553DF4FAD014F515F4F1D
:103840008150904C09F04EC0E6E9F7E7E491E88337
:10385000E7E9F7E7E4911496EC931497E8E9F7E7C2
:10386000E4911596EC931597E9E9F7E78591949122
:1038700017969C938E931697EBE9F7E785919491B1
:1038800019969C938E931897EDE9F7E7E491D796F4
:10389000EC93D797EEE9F7E7E491D696EC93D697B9
:1038A000EFE9F7E7E491EA01E883E0EAF7E78591D9
:1038B00094915D969C938E935C97E2EAF7E78591ED
:1038C00094915F969C938E935E97E4EAF7E78591D7
:1038D000949191969C938E939097E6EAF7E7859161
:1038E000949132C08CE3888314961C9214972FEF26
:1038F00015962C93159780E293E017969C938E93E0
:10390000169784ED93E019969C938E93189781E017
:10391000D7968C93D797D6968C93D697FA01208317
:103920008CEA9DE05D969C938E935C978EED9DE076
:103930005F969C938E935E9784E79EE091969C930E
:103940008E9390978CE39FE093969C938E9392979F
:10395000DF91CF910895EF92FF920F931F93CF9332
:10396000DF937C018C0100541F4FC8010E949025F9
:10397000C80168EA72E20E949B29C8010E94502592
:1039800083E00E94D0158FE591E0EEEFFFE309950B
:1039900086EC90E0E80EF91EF7011082C80163E89A
:1039A00072E20E94E629C8010E945025E701CC5B23
:1039B000D040CE010E948B26CE0164E00E94812679
:1039C000882339F462E370E080E090E00E9475277C
:1039D000F0CFDF91CF911F910F91FF90EF9008955D
:1039E0000F931F93CF93DF93EC018C0100541F4F73
:1039F000C80161E040E00E942421FE01E753FF4F2F
:103A0000CC53DF4F85E59881891B808326961882E9
:103A1000CA5CD040698D613009F43EC0613028F045
:103A2000888D653008F051C04BC0CE0185960E944C
:103A3000DC16CE0160E00E94911BC8010E94902517
:103A4000C853DF4F81E08883C85CD040C80164EE72
:103A500072E20E949B296A8D7B8DC8014AE050E08A
:103A60000E94892AC80160ED72E20E949B29C80168
:103A70000E94502583B7817F846083BF83B78160B4
:103A800083BF83B7816083BF889583B78E7F83BFF1
:103A900083B78E7F83BF1FC0CE51DF4F888199814E
:103AA000AA81BB818F709070A070B0700897A1053B
:103AB000B10518F4C80167E00CC0C80168E709C087
:103AC000882349F06B5FC80104C0882321F0C80136
:103AD0006FE20E94BE29DF91CF911F910F9108954F
:103AE000AF92BF92CF92DF92EF92FF920F931F930C
:103AF000CF93DF93EC01C950DF4F8881C75FD0407F
:103B0000882309F44AC08C3010F010E002C01CE099
:103B1000181BC853DF4F81E08883C85CD04060EC3D
:103B2000C62ED12CCC0EDD1EC60160E00E942021E5
:103B300055ECA52EB12CAC0EBD1EF50100814DE259
:103B4000F42E4F2D401B410F0D5FC60160E024E5B0
:103B500033E0E32E0E947223C60161E00E9420211F
:103B6000F5010081F01AF10E0D5FC60160E04F2DE6
:103B700024E50E941423C753DF4F84E08993F501A5
:103B80008081181B115D1883AB9669917991C601EC
:103B90000E949B29888181508883DF91CF911F915A
:103BA0000F91FF90EF90DF90CF90BF90AF9008956E
:103BB0004F925F926F927F928F929F92AF92BF923D
:103BC000CF92DF92EF92FF920F931F932C01FC0193
:103BD000628C738C60947094882499240E944F277F
:103BE0005B016C010E944F277B018C01F201418037
:103BF00052800E944F27460E571EA094B094C09446
:103C0000D094E094F09400951095C601B501A801F8
:103C100097010E941D2CA40193010E941D2C460EA9
:103C2000571EC2010E94E62A1F910F91FF90EF904C
:103C3000DF90CF90BF90AF909F908F907F906F90CC
:103C40005F904F900895AF92BF92CF92DF92EF9224
:103C5000FF920F931F93CF93DF93EC01E1EFAE2E12
:103C6000B12CA80EB91EF501E080F180028113810C
:103C70000E944127E61AF70A080B190B70EFC72EAE
:103C8000D12CCC0EDD1EF601808190E0A0E0B0E0EA
:103C90008E159F05A007B10708F081C08E01045161
:103CA0001F4FF80180819181A281B3810097A10506
:103CB000B10509F474C00E944127F6012081620F0A
:103CC000711D811D911DF501608371838283938332
:103CD000FE01EE51FF4F80819181A281B381019657
:103CE000A11DB11D80839183A283B383F80110824B
:103CF0001182128213820E944F27C851DF4F6883BE
:103D000079838A839B83C85ED040CE010E94961B34
:103D1000CE010A960E948B26CE0148960E94BD26AF
:103D200081E032C08E010B5D1F4FC8010E945F17FA
:103D3000C8010E948918C8010E94051ACE010E947C
:103D4000701DCE010E94F01C8E0100541F4FC8014F
:103D50000E945025CA53DF4F8881C65CD04088231B
:103D600019F4C8010E9490250E944F27C451DF4FCB
:103D7000688379838A839B83249728813981621B96
:103D8000730B7A936A9380E0DF91CF911F910F912B
:103D9000FF90EF90DF90CF90BF90AF900895C45107
:103DA000DF4F88819981AA81BB81CC5ED04000978A
:103DB000A105B10541F7B6CF2F923F924F925F9286
:103DC0006F927F928F929F92AF92BF92CF92DF922B
:103DD000EF92FF920F931F93DF93CF93CDB7DEB790
:103DE0002B970FB6F894DEBF0FBECDBF9B878A8797
:103DF0007A8369835C834B838C010F511F4FF801D9
:103E00008081882309F422C18A859B8588539F4F2E
:103E10009B878A8781E0EA85FB85808312921292D4
:103E2000E65CF040FB87EA87108E90ECE92EF12CDF
:103E3000EE0EFF1EC70161E00E9420218AE0282EBD
:103E4000312C8A859B85280E391EB5E26B2E712C8C
:103E5000680E791EE981FA81F491FD83A9EC8A2E1E
:103E6000912C880E991EFAECCF2ED12CC80ED91E9B
:103E7000E4EC4E2E512C480E591E8B539F4F9F83BE
:103E80008E8372EEA72EB12C8A859B85A80EB91E53
:103E9000198708878A859B850E94231E8823D1F372
:103EA0009D81992311F410E003C0EE81FF81108100
:103EB000C70160E040E021E233E20E94AD238B8144
:103EC0009C81892B41F0145FC70160E0412F2B8159
:103ED0003C810E94AD23F40110828CE0F6018083C6
:103EE000C70169817A810E949B29F201208130E01B
:103EF000C901880F991F820F931F909581959F4F3D
:103F00008D5AF4018083EE81FF81208130E0C90168
:103F1000880F991F820F931F909581959F4F835D06
:103F2000F6018083F501808184FF04C0C70161EA46
:103F300073E203C0C7016DE973E20E94E629F20152
:103F4000208130E0C901880F991F820F931F90953F
:103F500081959F4F8D5AF4018083F60180818F5F98
:103F60008083EA85FB8586A9882321F0C70169E95A
:103F700073E203C0C70165E973E20E94E629F2011A
:103F8000808190E09C01220F331F280F391F30954C
:103F900021953F4F2D5AF4012083F60180818F5FD8
:103FA0008083C70161E973E20E94E629C10165E0EF
:103FB0000E948126882351F0EA85FB8566A96F5F00
:103FC000C3010E941A1BC3010E94141BC10164E0BB
:103FD0000E948126882399F4E885F9856081262F3F
:103FE00030E040E050E0F50180819181A281B38111
:103FF00082179307A407B50708F16F3FF9F08A8588
:104000009B858F519F4F9B878A878FEFEA85FB8522
:104010008083E15EF040FB87EA87C30160E00E9495
:10402000CC16C3010E940E1B81E0EA85FB85808FC0
:104030000DC08A859B850E94AB1C2CCFC10166E018
:104040000E948126882309F425CFF3CF2B960FB643
:10405000F894DEBF0FBECDBFCF91DF911F910F91BE
:10406000FF90EF90DF90CF90BF90AF909F908F9098
:104070007F906F905F904F903F902F90089540E019
:1040800050E00E94DC1E0895AF92BF92CF92DF9263
:10409000EF920F93CF93DF936C0180EF90E0C80E07
:1040A000D91E82E3F601808381E090E0A0E0B0E0D9
:1040B000B293A293929382936F0185EF9FEFC80E04
:1040C000D91E8FEFF60180838FE19FEFC80ED91EB6
:1040D000C6010E94131CC6010E948D1BC6016FEF12
:1040E0000E94911B4AE0A42EB12CAC0CBD1CC50152
:1040F0000E947126C5010E948B26C60148960E9427
:10410000B326C60180549F4F6DE04BE020E10FE0E5
:104110003EE0E32E0E94A525E601A596CE010E9471
:10412000271BC50165E00E948126882329F0CE0166
:1041300060E00E941A1B18C0CE0167EA73E240E0FB
:104140000E94F116CE0167EA73E241E00E94F11687
:10415000CE0167EA73E242E00E94F116CE0167EAFF
:1041600073E243E00E94F116DF91CF910F91EF903F
:10417000DF90CF90BF90AF900895FC01742F64350D
:1041800008F05DC047FD5BC040330CF058C0878D20
:10419000823019F5842F859585958595992787FD1A
:1041A0009095462F552747FD509524E530E0829F96
:1041B000F001839FF00D929FF00D1124E40FF51F85
:1041C000EC57FD4F808190E0272F277002C0959516
:1041D00087952A95E2F780958170972F959595950B
:1041E0009595462F552747FD5095272F27708823F3
:1041F000A1F4E4E59E02F0011124E40FF51FEC5751
:10420000FD4F81E090E002C0880F991F2A95E2F7E8
:1042100080952081282320830895E4E59E02F00103
:104220001124E40FF51FEC57FD4F81E090E002C030
:10423000880F991F2A95E2F72081282B2083089563
:10424000FC01678F60A30895FC01678F40A3089568
:10425000AF92BF92CF92DF92EF92FF920F931F9394
:10426000CF93DF93EC01162FF42EE22EAA24402FD9
:10427000552747FD50958F2D992787FD9095481B11
:10428000590B57FF03C0509541955F4F2E2D332793
:1042900027FD3095812F992787FD9095281B390B95
:1042A00037FF03C0309521953F4F2417350744F45D
:1042B000AA24A3948F2DF12E182F802F0E2DE82ED7
:1042C000E11634F48E2DE12E182F802F0F2DF82EAD
:1042D000DE2CD11A202F332727FD30958F2D9927DB
:1042E00087FD9095281B390B37FF03C0309521952A
:1042F0003F4FB22EF0161CF0CC24CA9402C0CC243E
:10430000C3948D2DD7FC8F5F082F059511C0AA206F
:1043100021F0CE016F2D412F03C0CE01612F4F2D13
:104320000E94BD200B1907FF02C0FC0C0D0D1F5F82
:10433000E1166CF7DF91CF911F910F91FF90EF90F5
:10434000DF90CF90BF90AF9008950F93042F322F3E
:10435000262F2150230F0E9428210F9108950F939B
:10436000362F042F0150020F232F0E9428210F9176
:1043700008959F92AF92BF92CF92DF92EF92FF92F9
:104380000F931F93CF93DF936C01B62E942EA02E24
:10439000C0E0D0E0E62EFF24E7FCF094022F1127C6
:1043A00007FD10950E0D1F1D06C0C601492D2A2DB3
:1043B0000E94AF2121966B2D6C0FCE018E0D9F1D9B
:1043C0008017910794F3DF91CF911F910F91FF9088
:1043D000EF90DF90CF90BF90AF909F9008952F9275
:1043E0003F925F926F927F928F929F92AF92BF9215
:1043F000CF92DF92EF92FF920F931F93DF93CF93B1
:1044000000D000D000D0CDB7DEB79E838D83C62EFE
:10441000D42EEE24E394E21A8EEF289F502C112420
:10442000842E8A94962E9A94A42EA394B62EB39496
:10443000F22E662423E0722E10E0C8018470907082
:104440009A838983F801E270F070FC83EB8398E033
:10445000292E312C202231220170107054C0E7FC2B
:1044600004C0FA94F2E05F0EE50C639489819A81AE
:10447000892B71F04F2D4D0D8D819E816B2D0E94EA
:10448000BD206F2D6C0D8D819E814A2D0E94BD2017
:10449000EB81FC81EF2B71F04D2D4F198D819E81A9
:1044A0006B2D0E94BD206F2D6C0D8D819E81482D3E
:1044B0000E94BD202114310471F06C2D6F198D8183
:1044C0009E814A2D0E94BD204F2D4D0D8D819E81D4
:1044D000692D0E94BD200115110571F06C2D6F1919
:1044E0008D819E81482D0E94BD204D2D4F198D81BB
:1044F0009E81692D0E94BD20E70CF2E07F0E8A9418
:104500009A94A394B3946F140CF4A9CF26960FB683
:10451000F894DEBF0FBECDBFCF91DF911F910F91F9
:10452000FF90EF90DF90CF90BF90AF909F908F90D3
:104530007F906F905F903F902F9008954F925F9281
:104540006F927F928F929F92AF92BF92CF92DF92A3
:10455000EF92FF920F931F93CF93DF93EC01A62E60
:10456000742E9E2DFF24F394F21A8EEF289F802C38
:104570001124B42EBA9453E0C52ECE0CE22EDD24C5
:1045800043E0942E10E031E0432E512C4022512282
:10459000692E63940270107034C0F7FC04C0EA9472
:1045A00082E0880EF80CD3944114510489F06D2DEB
:1045B0006A0D472D4E192E2D220F260DCE010E9479
:1045C000AF216E2D6A0DCE014B2D2C2D0E94AF21F7
:1045D0000115110589F06A2D6D19472D4E192E2DE3
:1045E000220F260DCE010E94AF216A2D6E19CE0139
:1045F0004B2D2C2D0E94AF21F90C82E0980EBA941D
:10460000C80EDE1454F2DF91CF911F910F91FF90ED
:10461000EF90DF90CF90BF90AF909F908F907F9062
:104620006F905F904F9008957F928F929F92AF927C
:10463000BF92CF92DF92EF92FF920F931F936C0184
:10464000962EA42EF22E7E2C760E1EEFE19E102DBD
:104650001124812E820E672D282D0E94A521B02EB7
:10466000BA0CBA94C601672D4B2D282D0E94A521A6
:10467000AE0C100FC601692D4A2D212F0E94AF21CB
:10468000F90CFA94C6016F2D4A2D212F0E94AF21FB
:10469000C601672D4A2D2E2D01E00E94EF21FE1844
:1046A000C6016F2D4A2D2E2D02E00E94EF21BE186B
:1046B000C6016F2D4B2D2E2D04E00E94EF21C60167
:1046C000672D4B2D2E2D08E00E94EF211F910F9199
:1046D000FF90EF90DF90CF90BF90AF909F908F9022
:1046E0007F9008958F929F92AF92BF92CF92DF9268
:1046F000EF92FF920F931F936C01162FA42E922E10
:10470000F02EBE2C8E2C860E2EEFE29EE02C112475
:104710002E2D290D682D0E94B921AB0CFA94FE0CA8
:104720001150190D1B19C601612F4A2D2B2D01E0C7
:10473000EF2C0E949E22C601682D4A2D2B2D02E0EF
:104740000E949E221F910F91FF90EF90DF90CF90DB
:10475000BF90AF909F908F9008953F924F925F923D
:104760006F927F928F929F92AF92BF92CF92DF9281
:10477000EF92FF920F931F93CF93DF934C01362E4E
:10478000442EF901A490319654906F010894C11CF5
:10479000D11C8A2D992787FD9095079668E070E0D7
:1047A0000E945C2CE62EFF24E7FCF09400E0C0E0C1
:1047B000D0E060E8662E712C26C0E12FE595E595E6
:1047C000E595FF27E7FDF095EC0FFD1FEC0DFD1DB6
:1047D000E4912E2F30E0812F8770A30102C0559500
:1047E00047958A95E2F724233523232B31F0612F57
:1047F000630DC4014B2D0E94BD201F5F1A15ECF202
:104800000F5FCE0DDF1D051524F410E0B02EB40CA3
:10481000F5CFDF91CF911F910F91FF90EF90DF9037
:10482000CF90BF90AF909F908F907F906F905F9050
:104830004F903F9008953F924F925F926F927F9278
:104840008F929F92AF92BF92CF92DF92EF92FF92A0
:104850000F931F93CF93DF93EC01862EA42E422F4C
:10486000102F3F8C23E526170CF4ABC03FE23A151E
:104870000CF4A7C0C02EDD248C8190E001979C0130
:10488000C29EC001C39E900DD29E900D1124262F72
:10489000332727FD3095820F931F181619060CF049
:1048A00090C08D8190E09C01C29EC001C39E900D7E
:1048B000D29E900D11242A2D332727FD3095820F8B
:1048C000931F181619060CF07CC09924442E552409
:1048D0006DC09C01215030404217530711F460E035
:1048E0000EC0429EC001439E900D529E900D112419
:1048F000840F951FED8DFE8DE80FF91F64914C9D7F
:10490000C0014D9D900D5C9D900D1124682C680E8A
:10491000BB24792C780C3FC0E62EFF2460FF19C021
:10492000113039F44B2D4A0DCE01672D0E94BD2068
:104930002EC02C9DC0012D9D900D3C9D900D1124ED
:104940004A2D480FCE01662D212F012F0E94B9213B
:104950001EC098A18F8D9817D1F09F8F113039F418
:104960004B2D4A0DCE01672D0E94BD200FC02C9DFE
:10497000C0012D9D900D3C9D900D11244A2D480F96
:10498000CE01662D212F012F0E94B9213F8EF59473
:10499000E7946E2DB3942B2D332727FD30958D8111
:1049A00090E0281739070CF4B7CF9394492D552779
:1049B00047FD50958C8190E0481759070CF489CF3A
:1049C0003F8EDF91CF911F910F91FF90EF90DF907D
:1049D000CF90BF90AF909F908F907F906F905F909F
:1049E0004F903F9008950F93CF93DF93EC01262FC4
:1049F0006A3049F48D819885899F802D11249A858C
:104A0000980F9A8726C06D3029F169854A850885F7
:104A10000E941B249C816885969F402D11248985C6
:104A2000480F49878F818823A9F0552747FD509566
:104A3000699F9001112484E590E0821B930B8417F9
:104A4000950744F49D81699F902D11248A85890FD3
:104A50008A87198681E090E0DF91CF910F910895C8
:104A60001F93CF93DF93EC01162FF8948E8560E0AF
:104A70000E94CA288F8518161CF460E00E94CA287C
:104A80001EBD0DB407FEFDCF8EB58F8518161CF424
:104A900061E00E94CA287894DF91CF911F91089518
:104AA000FF920F931F93CF93DF93EC01FF2400E05D
:104AB00010E06F2D6064CE010E943025CE0160E8C9
:104AC0000E9430258E8561E00E94CA288F851816C5
:104AD0001CF460E00E94CA28F801EC57FD4F90E0FA
:104AE00080818EBD0DB407FEFDCF8EB59F5F3196E0
:104AF0009435B1F78F8518161CF461E00E94CA281E
:104B0000F3940C5A1F4F86E0F81699F6CE0160E434
:104B10000E943025DF91CF911F910F91FF90089552
:104B2000CF93DF93DC0188EF91E0E4E8F2E0EF015E
:104B30009C01199221503040E1F719961C92199767
:104B40001A961C92DF91CF910895EF920F93CF9315
:104B5000DF93EC014D876C872E87E88A0F8781E011
:104B600088878F8F18A28F83E4EAF0E284918F5FA9
:104B70008C83319684918F5F8D833196FE8FED8F7C
:104B80000E94E11581E00E94C21585E00E94D015C7
:104B90008CE00E94CB158D8561E00E948B288C856E
:104BA00061E00E948B288E8561E00E948B288889B5
:104BB00018161CF461E00E948B288F8518161CF4CF
:104BC00061E00E948B28888918166CF460E00E94CE
:104BD000CA286AE070E080E090E00E94752788892A
:104BE00061E00E94CA28EC852E2F332727FD3095DF
:104BF000F901ED52FC4DE491F0E0EE0FFF1FE1549E
:104C0000FC4D859194919C8B8B8B29513C4DF901E6
:104C100084918A8FED852E2F332727FD3095F9015A
:104C2000ED52FC4DE491F0E0EE0FFF1FE154FC4D1E
:104C3000859194919A8B898B29513C4DF9018491EE
:104C4000898FEF852E2F332727FD3095F901ED52FF
:104C5000FC4DE491F0E0EE0FFF1FE154FC4D859117
:104C600094919E8B8D8B29513C4DF90184918B8FB2
:104C7000EE852E2F332727FD3095F901ED52FC4D9F
:104C8000E491F0E0EE0FFF1FE154FC4D859194910B
:104C9000988F8F8B29513C4DF90184918C8FCE01D7
:104CA00061E20E943025CE0164E10E9430258B85AF
:104CB00087FF02C08FE78B876B856068CE010E94FB
:104CC0003025CE0160E20E943025CE016CE00E94CA
:104CD0003025CE010E945025DF91CF910F91EF90AA
:104CE0000895FC0188E0808389E0818387E08283E6
:104CF00086E0838384E0848382E0858381E1868308
:104D0000089520E0FC01E60FF11D8781813009F450
:104D100021E0822F08950F931F93CF93DF93EC012F
:104D200010E00FEF888162E00E948B2888810E944A
:104D30001E292F81892B19F42F5F2F8307C022236F
:104D400049F02F3F11F41F8201C00F83888160E07A
:104D50000E948B281F5F2196173021F7DF91CF919A
:104D60001F910F910895FC018CE39FE09383828350
:104D700084E0818381E084870895CF93DF93EC0101
:104D80008C8590E08F719070892B69F584E10E9489
:104D90000928AA2797FDA095BA2FBC01CD010E9432
:104DA0002E2B26EE3FE34EEC50E40E94BA2B0E94DD
:104DB000002B9B01AC017B836A836115710589F02F
:104DC00084E08983B901FE0120E084819581681720
:104DD000790710F429830AC02F5F32962430A9F78F
:104DE00002C08FEF89838C858F5F8C87DF91CF9195
:104DF00008951F920F920FB60F9211242F933F9395
:104E00008F939F93AF93BF9380918004909181047F
:104E1000A0918204B0918304309184040196A11D75
:104E2000B11D232F2D5F2D3720F02D570196A11D89
:104E3000B11D209384048093800490938104A093F7
:104E40008204B093830480917C0490917D04A091AE
:104E50007E04B0917F040196A11DB11D80937C0456
:104E600090937D04A0937E04B0937F04BF91AF9193
:104E70009F918F913F912F910F900FBE0F901F9098
:104E800018958FB7F8942091800430918104409157
:104E90008204509183048FBFB901CA0108959FB75E
:104EA000F89420917C0430917D0440917E045091CF
:104EB0007F0486B5A89B06C08F3F21F02F5F3F4F30
:104EC0004F4F5F4F9FBF542F432F322F2227280F62
:104ED000311D411D511D82E0220F331F441F551FFC
:104EE0008A95D1F7B901CA0108959B01AC017FB73A
:104EF000F89480917C0490917D04A0917E04B091FF
:104F00007F0466B5A89B05C06F3F19F00196A11DEF
:104F1000B11D7FBFBA2FA92F982F8827860F911D0B
:104F2000A11DB11D62E0880F991FAA1FBB1F6A95C2
:104F3000D1F7BC012DC0FFB7F89480917C0490910B
:104F40007D04A0917E04B0917F04E6B5A89B05C0C6
:104F5000EF3F19F00196A11DB11DFFBFBA2FA92F78
:104F6000982F88278E0F911DA11DB11DE2E0880F9B
:104F7000991FAA1FBB1FEA95D1F7861B970B885E66
:104F80009340C8F2215030404040504068517C4F1F
:104F9000211531054105510571F60895789484B5C0
:104FA000826084BD84B5816084BD85B5826085BD25
:104FB00085B5816085BDEEE6F0E08081816080830B
:104FC000E1E8F0E0108280818260808380818160EE
:104FD0008083E0E8F0E0808181608083E1EBF0E0B5
:104FE000808184608083E0EBF0E080818160808359
:104FF000EAE7F0E080818460808380818260808342
:105000008081816080838081806880831092C1006C
:105010000895982F8E3008F09E50977080916B0104
:105020008295880F880F807C892B80937C008091EB
:105030007A00806480937A0080917A0086FDFCCFAC
:105040002091780040917900942F80E030E0282B67
:10505000392BC90108951F93CF93DF93182FEB01CC
:1050600061E00E948B28209709F44AC0CF3FD10508
:1050700009F449C0E12FF0E0E550FC4D8491833004
:10508000C1F0843028F4813051F08230B1F50CC089
:10509000863019F1873049F1843079F514C084B530
:1050A000806884BDC7BD33C084B5806284BDC8BD7F
:1050B0002EC080918000806880938000D09389000A
:1050C000C093880024C0809180008062809380001B
:1050D000D0938B00C0938A001AC08091B000806882
:1050E0008093B000C093B30012C08091B000806282
:1050F0008093B000C093B4000AC0C038D1051CF43E
:10510000812F60E002C0812F61E00E94CA28DF91F8
:10511000CF911F910895CF93DF93482F50E0CA019C
:1051200089519C4DFC0134914D525C4DFA018491A2
:10513000882369F190E0880F991FFC01EB54FC4D26
:10514000A591B491FC01E154FC4DC591D491662325
:1051500051F42FB7F8948C91932F909589238C93C9
:10516000888189230BC0623061F42FB7F8948C9149
:10517000932F909589238C938881832B88832FBFCD
:1051800006C09FB7F8948C91832B8C939FBFDF91BF
:10519000CF910895482F50E0CA0185509C4DFC01E5
:1051A0002491CA0189519C4DFC0194914D525C4D52
:1051B000FA013491332309F440C0222351F1233002
:1051C00071F0243028F42130A1F0223011F514C000
:1051D0002630B1F02730C1F02430D9F404C08091DA
:1051E00080008F7703C0809180008F7D8093800046
:1051F00010C084B58F7702C084B58F7D84BD09C08F
:105200008091B0008F7703C08091B0008F7D809334
:10521000B000E32FF0E0EE0FFF1FE154FC4DA5912D
:10522000B4912FB7F894662321F48C91909589233B
:1052300002C08C91892B8C932FBF0895682F70E04A
:10524000CB0185509C4DFC012491CB0189519C4D93
:10525000FC0144916D527C4DFB019491992319F40A
:1052600020E030E03CC0222351F1233071F02430A3
:1052700028F42130A1F0223011F514C02630B1F00D
:105280002730C1F02430D9F404C0809180008F779A
:1052900003C0809180008F7D8093800010C084B512
:1052A0008F7702C084B58F7D84BD09C08091B00026
:1052B0008F7703C08091B0008F7D8093B000892FDD
:1052C00090E0880F991F87539C4DFC01A591B491E4
:1052D0008C9120E030E0842311F021E030E0C9011E
:1052E0000895CF92DF92EF92FF920F931F93CF9387
:1052F000DF937C016B018A01C0E0D0E00FC0D601D2
:105300006D916D01D701ED91FC910190F081E02D3F
:10531000C7010995C80FD91F01501040011511058B
:1053200071F7CE01DF91CF911F910F91FF90EF9018
:10533000DF90CF900895EF92FF920F931F93CF933A
:10534000DF937C018B01C0E0D0E0F8010F5F1F4FBD
:105350006491662359F0D701ED91FC910190F081A1
:10536000E02DC7010995C80FD91FEFCFCE01DF91FE
:10537000CF911F910F91FF90EF900895DC01ED9177
:10538000FC910190F081E02D09950895EF92FF9234
:105390000F931F938C01DC01ED91FC910190F08142
:1053A000E02D6DE009957C01D801ED91FC91019013
:1053B000F081E02DC8016AE009959C012E0D3F1D8A
:1053C000C9011F910F91FF90EF900895EF92FF9206
:1053D0000F931F937C010E949B298C01C7010E949F
:1053E000C6299C01200F311FC9011F910F91FF9009
:1053F000EF900895CF93DF93EC016115710519F4D7
:1054000020E030E00FC0DB010D900020E9F711979C
:10541000A61BB70BE881F9810280F381E02DAD0175
:1054200009959C01C901DF91CF9108954F925F9238
:105430007F928F929F92AF92BF92CF92DF92EF9224
:10544000FF920F931F93DF93CF93CDB7DEB7A19752
:105450000FB6F894DEBF0FBECDBF2C01742ECB016A
:10546000223008F42AE019A231E2C32ED12CCC0E4E
:10547000DD1E822E9924AA24BB24672D752FA50139
:1054800094010E946F2C79018A01C801B701A5011E
:1054900094010E941D2C472D461B0894C108D10879
:1054A0004A3014F4405D01C0495CF6014083E114C8
:1054B000F1040105110521F07E2C5F2DC801DDCF1F
:1054C000C201B6010E94FA29A1960FB6F894DEBF78
:1054D0000FBECDBFCF91DF911F910F91FF90EF9045
:1054E000DF90CF90BF90AF909F908F907F905F9014
:1054F0004F900895DC012115310541F4ED91FC91A7
:105500000190F081E02D642F099508950E94162ADC
:105510000895EF92FF920F931F939A017B0100E091
:1055200010E0B801A7010E947A2A1F910F91FF9005
:10553000EF9008950E94FA2908952F923F924F927A
:105540005F926F927F928F929F92AF92BF92CF9213
:10555000DF92EF92FF920F931F93DF93CF93CDB71C
:10556000DEB73B014C0119012A016D897E898F89C3
:10557000988D6A197B098C099D09621A730A840A3D
:10558000950AA40193010E941D2CE218F308040956
:105590001509A80197010E94912C2A0D3B1D4C1D55
:1055A0005D1DB901CA01CF91DF911F910F91FF904D
:1055B000EF90DF90CF90BF90AF909F908F907F90B3
:1055C0006F905F904F903F902F900895009729F033
:1055D000BC0180E090E00E948B1208950895CF9363
:1055E000DF930E94CE270E94EE2A0E946A15C0E037
:1055F000D0E00E948C142097E1F30E940000F9CFC4
:1056000098D088F09F5790F0B92F9927B751A0F004
:10561000D1F0660F771F881F991F1AF0BA95C9F746
:1056200012C0B13081F09FD0B1E008959CC0672FC7
:10563000782F8827B85F39F0B93FCCF386957795F6
:105640006795B395D9F73EF49095809570956195DF
:105650007F4F8F4F9F4F0895E89409C097FB3EF40A
:1056600090958095709561957F4F8F4F9F4F9923AF
:10567000A9F0F92F96E9BB279395F695879577952D
:105680006795B795F111F8CFFAF4BB0F11F460FFED
:105690001BC06F5F7F4F8F4F9F4F16C0882311F045
:1056A00096E911C0772321F09EE8872F762F05C059
:1056B000662371F096E8862F70E060E02AF09A95F4
:1056C000660F771F881FDAF7880F9695879597F9E9
:1056D000089597F99F6780E870E060E008959FEF74
:1056E00080EC089500240A94161617061806090679
:1056F000089500240A941216130614060506089548
:10570000092E0394000C11F4882352F0BB0F40F4CF
:10571000BF2B11F460FF04C06F5F7F4F8F4F9F4F0F
:10572000089557FD9058440F551F59F05F3F71F091
:105730004795880F97FB991F61F09F3F79F08795F8
:105740000895121613061406551FF2CF4695F1DF81
:1057500008C0161617061806991FF1CF8695710511
:10576000610508940895E894BB2766277727CB0145
:1057700097F908950BD0C4CFB5DF28F0BADF18F041
:10578000952309F0A6CFABCF1124EECFCADFA0F34B
:10579000959FD1F3950F50E0551F629FF001729FC6
:1057A000BB27F00DB11D639FAA27F00DB11DAA1FE5
:1057B000649F6627B00DA11D661F829F2227B00D32
:1057C000A11D621F739FB00DA11D621F839FA00DBD
:1057D000611D221F749F3327A00D611D231F849F0D
:1057E000600D211D822F762F6A2F11249F57504064
:1057F0008AF0E1F088234AF0EE0FFF1FBB1F661FFF
:10580000771F881F91505040A9F79E3F510570F0B7
:1058100060CFAACF5F3FECF3983EDCF38695779597
:105820006795B795F795E7959F5FC1F7FE2B880FB2
:10583000911D9695879597F90895629FD001739F62
:10584000F001829FE00DF11D649FE00DF11D929F1C
:10585000F00D839FF00D749FF00D659FF00D99275B
:10586000729FB00DE11DF91F639FB00DE11DF91F7F
:10587000BD01CF0111240895991B79E004C0991F3F
:10588000961708F0961B881F7A95C9F7809508959A
:10589000AA1BBB1B51E107C0AA1FBB1FA617B70756
:1058A00010F0A61BB70B881F991F5A95A9F7809572
:1058B0009095BC01CD01089597FB092E07260AD0CB
:1058C00077FD04D0E5DF06D000201AF470956195CD
:1058D0007F4F0895F6F7909581959F4F0895A1E227
:1058E0001A2EAA1BBB1BFD010DC0AA1FBB1FEE1F5A
:1058F000FF1FA217B307E407F50720F0A21BB30BA5
:10590000E40BF50B661F771F881F991F1A9469F720
:1059100060957095809590959B01AC01BD01CF017C
:10592000089597FB092E05260ED057FD04D0D7DF2A
:105930000AD0001C38F450954095309521953F4F82
:105940004F4F5F4F0895F6F790958095709561954C
:105950007F4F8F4F9F4F0895EE0FFF1F0590F491DB
:10596000E02D09942F923F924F925F926F927F9217
:105970008F929F92AF92BF92CF92DF92EF92FF925F
:105980000F931F93CF93DF93CDB7DEB7CA1BDB0B0B
:105990000FB6F894DEBF0FBECDBF09942A883988B0
:1059A00048885F846E847D848C849B84AA84B984B7
:1059B000C884DF80EE80FD800C811B81AA81B981C3
:1059C000CE0FD11D0FB6F894DEBF0FBECDBFED01D7
:0659D0000895F894FFCFDA
:1059D6006120736F6E672063616C6C65642042752D
:1059E600696E6F203A29202D20436F64653A205452
:1059F6006865204F746865722044617973202B2096
:105A0600526F646F74005448414E4B5321005468E2
:105A1600654F74686572446179732E6E65740050C3
:105A260052455353204320544F2045584954004C67
:105A36004F414445520001000000010100000000F2
:045A4600F3247129AB
:00000001FF
