:100000000C947B020C94A3020C94A3020C94A30204
:100010000C94A3020C94A3020C94A3020C94A302CC
:100020000C94A3020C94A3020C94A3020C94072436
:100030000C94A3020C94A3020C94A3020C94A302AC
:100040000C94E01E0C94A3020C94A3020C94A30243
:100050000C94A3020C94A3020C94A3020C94A3028C
:100060000C94A3020C94A30254686F72646172270B
:100070007320616476656E7475726500616E6420CC
:100080007475726E206F6E20616761696E2E005408
:1000900075726E206F66662C20636865636B2053F3
:1000A000440054484F524441522E444154206D69FB
:1000B0007373696E672100CB00C400BD0043616E9D
:1000C00063656C0041747461636B00496E666F0018
:1000D0003D000000000000000000000000000000E3
:1000E0000000000000000000000000000000000010
:1000F000FE0004035E014C01420138012E0124017F
:100100001A011001060108080000384600041A0010
:100110000808003846000C1200000808001C6200A5
:1001200008160000080800001C62000C12000808F5
:10013000003A5E7D377E3E1C080822B6AA49495522
:1001400053B20808000000000000000008107CDE28
:10015000EBD5BB5F3A3C342C2434245AEB0008081E
:10016000004200080050210000B001A6019C01924D
:10017000010502010101010001880188018801884F
:1001800001050201010101000808000010FEBA107B
:1001900000000808103818382828181808081038DF
:1001A00030382828303008081038386C546C38281B
:1001B000080810382854444438280000000700027A
:1001C000010000030406000000000000000001021E
:1001D00004081020408001020408102001020408D5
:1001E00010200404040404040404020202020202B3
:1001F000030303030303000000002300260029007B
:1002000000000000250028002B0000000000240052
:1002100027002A0003053F213F1208120A100A0E88
:100220001C0E0C1E0C141A14161F161E131E1E1B59
:100230001E1E1F1E3F213F3A2F3A173D173F213FF9
:10024000181F02040A041F0E04040E1F0A1F0A0EC0
:100250000E1F04110E2E252E2F2A2E262929021FAD
:1002600002081F08150E04040E150E15151B151B8C
:10027000040604040C040000000017000300031F20
:100280000A1F16371A1904130A153A000300000E44
:1002900011110E000A040A040E04003000040404C4
:1002A0000010001804031F111F121F101D15171135
:1002B000151F07041F17151D1F151D01011F1F15F1
:1002C0001F17151F000A00003200040A110A0A0A4B
:1002D000110A040115020E11171E051E1F150A0E24
:1002E000110A1F110E1F15111F05010E111D1F04EC
:1002F0001F111F1108100F1F041B1F10101F061FB6
:100300001E040F0E110E1F09060E112E1F051A12C4
:100310001509011F011F101F0F180F1F0C1F1B04B1
:100320001B031C03191513001F11030418111F00D0
:100330000201022020200001020C121E1F120C0CD0
:1003400012120C121F0C1A14041E05242A1E1F025E
:100350001C141D1020201D1F0814111F101E041E28
:100360001E021C0C120C3E0A040C123E1E04021447
:10037000160A020F120E101E0E100E1E081E120C70
:100380001226281E322A26041E21001F00211E04C8
:100390000102013F213F0A4E6F20534420636172E6
:1003A00064206F720A6E6F204C4F414445522E48B4
:1003B00045580A0A153A45786974001D20466C6153
:1003C0007368696E670A20206C6F616465722E2EF7
:1003D0002E0A0A444F4E2754205455524E204F4661
:1003E0004621006D560A0A504C454153450A545562
:1003F000524E204F4646004C4F57204241545445E0
:1004000052590A00175344001613780016131400AB
:100410001510200015201000540A03E181867F3E4C
:10042000186D830F0F0E0183866033186DC3198F0B
:100430001803C38E6033186DE330CF1803C39E607A
:100440003630CDE360CF3006C79E7E3E30CDB36000
:10045000CF300CC6F6603330D9B660CF33CFCCF690
:100460006061B0DB1E60CF30D86CE6C061B0DB1ECF
:10047000618F19986CC6C063B19B0E330F0FB078B3
:10048000C6FF7E1F1B061E0F0500893008023802BA
:10049000497868140000F6E8DBCFC3B8AEA49B929D
:1004A0008A827B746E68625C57524E4945413E3A7F
:1004B0003734312E2C29272523211F1D1C1A1917EB
:1004C000161514131211100F0E0D0C0B0A09080744
:1004D00006450068010000050068013801000005BC
:1004E00000380168010000EF04EB040101FF030183
:1004F00001F70300851011241FBECFEFD8E0DEBF47
:10050000CDBF11E0A0E0B1E0EAE1FEE402C0059059
:100510000D92AA33B107D9F715E0AAE3B1E001C003
:100520001D92AC37B107E1F714E0C6EFD4E004C088
:100530002297FE010E940727C43FD107C9F70E94F6
:1005400077120C943E250C9400000F931F93E091BA
:100550003A01F0913B019C012250310940855185BF
:10056000425051092417350768F4A181B0E00E9478
:100570005E260289138924893589600F711F821FC5
:10058000931F03C060E070E0CB011F910F910895AD
:10059000CF93DF93EC01E0913A01F0913B01198296
:1005A00018828C819D8181309105B9F0208531853B
:1005B0008217930790F49F838E83009719F00E940F
:1005C000A50204C0668577858089918968877987C7
:1005D0008A879B8780E090E002C081E090E0DF9115
:1005E000CF9108958F929F92AF92BF92CF92DF9258
:1005F000EF92FF920F931F93CF93DF9300D000D021
:10060000CDB7DEB77C01C0903A01D0903B0182307B
:10061000910508F473C0F60180859185E816F90606
:1006200008F06CC08081813021F0823009F44CC028
:1006300065C04701969487948E0C9F1C940131707D
:10064000892C99248694A12CB12CF601828593855E
:10065000A485B585B501A401480F591F6A1F7B1FEA
:100660002F3FF1E03F0729F002E010E0CE010196B4
:100670001BC001E010E02FEF31E0CE0101960E9497
:100680008C09892BD9F5F6014285538564857585DA
:100690004F5F5F4F6F4F7F4F480D591D6A1D7B1D88
:1006A00020E030E0CE0102960E948C09892B31F5C2
:1006B00089819A81E0FE06C024E0969587952A9567
:1006C000E1F71EC09F701CC097013327220F331F14
:1006D000EF2CFF24F60142855385648575854E0D08
:1006E0005F1D611D711D02E010E0CE0101960E94A8
:1006F0008C09892B19F489819A8102C081E090E0EC
:100700000F900F900F900F90DF91CF911F910F914D
:10071000FF90EF90DF90CF90BF90AF909F908F9021
:100720000895CF92DF92EF92FF920F931F93CF9392
:10073000DF93EC016A017B0102E010E02EEF31E073
:100740000E948C09892BC1F48881998185359A4A48
:10075000A9F426E330E0B701A601CE010E948C097E
:10076000892B41F481E0288139812634314439F4E0
:1007700080E005C081E003C083E001C082E0DF913A
:10078000CF911F910F91FF90EF90DF90CF90089540
:100790004F925F926F927F92AF92BF92CF92DF9211
:1007A000EF92FF920F931F93CF93DF93CDB7DEB7F6
:1007B000A8970FB6F894DEBF0FBECDBF5C011092B4
:1007C0003B0110923A01009709F4D0C00E94E4085E
:1007D00080FDCFC040E050E0BA01CE0101960E94FA
:1007E0009103813009F500E110E02EEB31E040E0AB
:1007F00050E0BA01CE0101960E948C09892B19F0B4
:1008000081E090E0B8C08D81811103C089E090E063
:10081000B2C049845A846B847C84B301A201CE01A6
:1008200001960E94910303C0412C512C3201833068
:1008300039F38111EBCF04E210E02DE030E0B30199
:10084000A201CE0101960E948C09892BC9F62A8546
:100850003B8540E050E0211531054105510521F46B
:10086000288D398D4A8D5B8DAC81B0E00E946D265C
:100870006DA37EA38FA398A70A811B8120E030E09F
:10088000400E511E621E731ED5011A964D925D9246
:100890006D927C921D97498111964C931197CD8052
:1008A000DE801596DC92CE9214978F819885A0E019
:1008B000B0E00097A105B10521F48C899D89AE892E
:1008C000BF8954E0D694C7945A95E1F7E12CF12CF6
:1008D000BC01CD01601B710B820B930B0DA11EA1FE
:1008E0002FA138A5601B710B820B930B6C197D092E
:1008F0008E099F09242F30E040E050E00E94C4267A
:100900002E5F3F4F4F4F5F4FD50119963C932E936B
:100910001897273FBFE03B074105510540F0273FAF
:100920003F4F4105510508F071CF82E001C081E0E1
:10093000D5018C930DA11EA12FA138A5400E511EEB
:10094000621E731E1E964D925D926D927C9251971F
:100950004C0C5D1C6E1C7F1CF501428A538A648A14
:10096000758A1282B0923B01A0923A0180E090E039
:1009700002C082E090E0A8960FB6F894DEBF0FBEEA
:10098000CDBFDF91CF911F910F91FF90EF90DF903E
:10099000CF90BF90AF907F906F905F904F900895F1
:1009A0007F928F929F92AF92BF92CF92DF92EF92FF
:1009B000FF920F931F93CF93DF93CDB7DEB7E897E6
:1009C0000FB6F894DEBF0FBECDBF6C01E0903A01C8
:1009D000F0903B01E114F10409F423C1D701129610
:1009E0001C921297CE01019617969C938E931697A0
:1009F000CE01819698AB8FA7F60180818F3219F4D2
:100A0000FFEFCF1ADF0A1AAA19AAD6018C918032F9
:100A100070F4CE018D960E94C802D7011696ED9112
:100A2000FC9117971082009709F4E0C02CC1E0E216
:100A30007E2EEFA5F8A9DF01CF010B96A817B90705
:100A400011F07D92FBCF50E080E068E071E0780F1C
:100A5000D601A80FB11D4C914032D0F04F32C1F0F9
:100A60004E3209F4EFC0561708F00AC14F3708F0AC
:100A700007C1842F90E0ACE0B1E02D91222309F46E
:100A8000D5C0332727FD309528173907B1F7F8C0AF
:100A9000552309F4F5C0C70ED11C81E0403208F09F
:100AA00080E08387CE018D960E94C802009709F0EE
:100AB000D0C0E0913A01F0913B01A680B7802DA50E
:100AC0003EA52F70332775E0220F331F7A95E1F78B
:100AD0004DA95EA96FA978AD00E210E0C5010E94A2
:100AE0008C09892B09F0C6C0F5018081882309F49F
:100AF00070C0838583FD11C06FA578A9C501DB0196
:100B00009B01255F3F4FA217B30709F46BC0FC019F
:100B10005191CF014D915417B1F380903A019090CB
:100B20003B010DA51EA50F5F1F4F09F44AC08DA9FB
:100B30009EA9AFA9B8AD0097A105B10509F441C0C0
:100B400098012F703327232BC9F50196A11DB11DE4
:100B50008DAB9EABAFABB8AF8BA99CA9009749F406
:100B6000D40114968D919C9115970817190748F593
:100B700025C0F401218130E021503109A80164E051
:100B8000569547956A95E1F724233523232BB1F435
:100B90000E94F2028230910508F459C0D4011896DF
:100BA0002D913C9119978217930758F49CAB8BAB0E
:100BB0000E94A5026DAB7EAB8FAB98AF1EA70DA7B1
:100BC0007ECF93E080E0292F382F2330310509F0C4
:100BD00059C0EFA5F8A98385882309F44EC023E006
:100BE00030E050C0FB0183858823A9F189818823E7
:100BF000D1F08C8584FD17C08B8D9C8DF701978F6C
:100C0000868F8D8D9E8DAF8DB8A1828F938FA48F8F
:100C1000B58F168A178A108E118E81E0828380E04C
:100C200003C088E001C083E090E02DC08FE9840F0D
:100C30008A3108F44052DF01A50FB11D4C935F5F6C
:100C4000872F04CF6830E1F458E06BE0F9CF91E0F2
:100C5000B9CF9C01BACFE0913A01F0913B010680F7
:100C6000F781E02D838584FF08C0828D938D9AAB38
:100C700089ABDFCE21E030E005C024E030E002C0E7
:100C800025E030E0C901E8960FB6F894DEBF0FBE4C
:100C9000CDBFDF91CF911F910F91FF90EF90DF902B
:100CA000CF90BF90AF909F908F907F9008952F929C
:100CB0003F924F925F926F927F928F929F92AF92EC
:100CC000BF92CF92DF92EF92FF920F931F93CF9339
:100CD000DF9300D000D0CDB7DEB789839A837B0144
:100CE0004A0180913A0190913B019C838B83FA01E8
:100CF00011821082009709F4BBC0FC01828180FF41
:100D0000BAC0828D938DA48DB58D46895789608D2B
:100D1000718D841B950BA60BB70BA70160E070E0EB
:100D200084179507A607B70708F47C01A980BA8045
:100D3000612CF2E07F2EE114F10409F496C0EB81FE
:100D4000FC8126883788408C518CD201C10191707A
:100D5000AA27BB27892B8A2B8B2B09F044C0218122
:100D600030E040E050E0C201B101E9E0969587959E
:100D700077956795EA95D1F70E94C426672B682B73
:100D8000692BA9F4EB81FC8123282428252819F458
:100D9000868D978D04C080A191A10E94F202EB8103
:100DA000FC818230910580F091A380A31382EB81B6
:100DB000FC8180A191A10E94A502EB81FC816115BB
:100DC00071058105910511F4128258C02381DC015F
:100DD000CB01820F911DA11DB11D82A393A3A4A3DA
:100DE000B5A32F5F2383EB81FC812689378931707E
:100DF000C301821B930B67018E159F0508F46C01DC
:100E0000EB81FC81828142A153A164A175A186017D
:100E100086FF04C0106889819A8101C0C5010E94C3
:100E20008C09009741F0EB81FC811282029731F529
:100E300086E090E025C0AC0CBD1CEB81FC8186896E
:100E40009789A08DB18D8C0D9D1DA11DB11D868B27
:100E5000978BA08FB18FF401808191818C0D9D1DA6
:100E600091838083EC18FD0866CF80E090E008C095
:100E700088E090E005C087E090E002C081E090E06B
:100E80000F900F900F900F90DF91CF911F910F91C6
:100E9000FF90EF90DF90CF90BF90AF909F908F909A
:100EA0007F906F905F904F903F902F9008954F925A
:100EB0005F926F927F928F929F92AF92BF92CF92EA
:100EC000DF92EF92FF920F931F93CF93DF9300D0A7
:100ED00000D0CDB7DEB79B0100913A0110913B01E4
:100EE0000115110509F4D0C0D80112964C91129742
:100EF00040FFCDC05A964D915D916D917C915D976B
:100F000069017C014C155D056E057F0510F46A01D1
:100F10007B01F80146885788608C718C168A178A85
:100F2000108E118EC114D104E104F10409F4B2C091
:100F30008180912CA12CB12C39E0880C991CAA1C21
:100F4000BB1C3A95D1F74114510461047104C9F1F5
:100F5000B1E04B1A510861087108C701B601615030
:100F6000710981099109A50194010E94C426298370
:100F70003A834B835C83C301B201A50194010E94B3
:100F8000C42689819A81AB81BC8182179307A4070B
:100F9000B507B8F088279927DC0188199909AA09AB
:100FA000BB0984219521A621B721F801868B978B57
:100FB000A08FB18FC81AD90AEA0AFB0A80A191A1B1
:100FC00028C0D8015E968D919C915F9791969C93D5
:100FD0008E9390971EC00E94F20282309105F8F025
:100FE000F8012085318582179307C8F4F80191A391
:100FF00080A346895789608D718D480D591D6A1DE2
:101000007B1D468B578B608F718FC818D908EA08F3
:10101000FB088C149D04AE04BF04E8F204C0D801A0
:1010200012961C921FC0F80146895789608D718DF8
:101030004C0D5D1D6E1D7F1D468B578B608F718F14
:1010400029E0F694E794D794C7942A95D1F7C394EE
:10105000C3820E94A502611571058105910529F4DD
:10106000F801128281E090E017C0DC01CB0101970A
:10107000A109B1098C0D911DA11DB11DF80182A31B
:1010800093A3A4A3B5A306C088E090E005C087E0C1
:1010900090E002C080E090E00F900F900F900F90D2
:1010A000DF91CF911F910F91FF90EF90DF90CF9044
:1010B000BF90AF909F908F907F906F905F904F9078
:1010C0000895E0914401F09145010995E0914801AE
:1010D000F09149010994FF920F931F93CF93DF93EF
:1010E000C82FD42F152F062FF72E87FF0AC040E0F8
:1010F00050E0BA0187E70E946B08823008F04DC0CB
:10110000CF77E0914401F09145010995E0914601C6
:10111000F09147010995E0914801F0914901099545
:10112000E0914801F091490109958F3FC9F7E0919D
:101130004A01F0914B018C2F0995E0914A01F09101
:101140004B018F2D0995E0914A01F0914B01802FC1
:101150000995E0914A01F0914B01812F0995E091A9
:101160004A01F0914B018D2F0995C03421F0C8340C
:1011700021F081E003C085E901C087E8E0914A01E0
:10118000F0914B010995CAE0E0914801F0914901C5
:10119000099587FF02C0C150B9F7DF91CF911F9128
:1011A0000F91FF90089590934B0180934A017093A3
:1011B00049016093480150934701409346013093A1
:1011C0004501209344010895EF92FF920F931F93DE
:1011D000CF93DF9300D000D01F92CDB7DEB714E6D7
:1011E000E0914801F091490109951150C9F740E09B
:1011F00050E0BA0180E40E946B08813009F057C0CA
:101200004AEA51E060E070E088E40E946B088130B7
:1012100039F57E0185E0E80EF11C8E010F5F1F4F4E
:10122000E0914801F09149010995F80181938F01FE
:10123000EE15FF05A9F78B818130C9F58C818A3ABB
:10124000B1F508EA11E640E050E060E070E489EEB4
:101250000E946B088823A9F101501109A1F727C04A
:1012600040E050E0BA0189EE0E946B08823020F421
:1012700092E0F92E99EE03C0FF24F39491E408EA7A
:1012800011E640E050E0BA01892F9D830E946B086F
:101290009D81882321F00150110999F708C040E091
:1012A00052E060E070E080E50E946B088111F12C53
:1012B000F09277050E94610881E0FF2009F180E04B
:1012C0001FC040E050E0BA018AE70E946B0881111C
:1012D000EECF8E010F5F1F4FE0914801F091490161
:1012E0000995F80181938F01EE15FF05A9F7898112
:1012F00086FF03C02CE0F22EDBCF84E0F82ED8CF9F
:101300000F900F900F900F900F90DF91CF911F9142
:101310000F91FF90EF9008958F929F92AF92BF929E
:10132000CF92DF92EF92FF920F931F93CF93DF93B1
:101330001F92CDB7DEB76C0179014801E89497F8A8
:101340008114910409F484C0C401820F931F813079
:10135000924008F07DC08091770583FD07C029E0A9
:10136000440F551F661F771F2A95D1F781E50E940C
:101370006B08811165C098EEA92E93E0B92EE0911B
:101380004801F091490109958F3F29F481E0A81A9D
:10139000B108A9F755C08E3F09F052C082E0A82ECF
:1013A000BA2CAE18BF08A818B908E114F10449F026
:1013B000E0914801F0914901099591E0E91AF1089D
:1013C000F4CF17FF28C0E0913E01F0913F0109954D
:1013D000E0914201F09143010995E0914801F091BB
:1013E00049010995F6010995E0914001F09141010B
:1013F00089830995F1E08F1A9108898181149104FC
:1014000011F08111E5CFE0913C01F0913D0109958A
:10141000A80CB91C0CC0E0914801F0914901099554
:10142000D6018D936D01B1E08B1A9108A1F7E0917F
:101430004801F09149010995E1E0AE1AB108B9F708
:101440000E94610881E090E0892821F480E002C0D8
:1014500084E090E00F90DF91CF911F910F91FF906A
:10146000EF90DF90CF90BF90AF909F908F900895B6
:101470008FEF8EBD0DB407FEFDCF8EB508958EBDE6
:101480000DB407FEFDCF089560E080914D010C94EE
:10149000111161E080914D010C941111862F609320
:1014A0004D0170934E0161E00E94D8100E94490ADC
:1014B00029E43AE044E45AE068E37AE08FE39AE012
:1014C0000E94D3080E94E4088FE491E00E94C803C0
:1014D00080E090E00895CB010C94D004CB01BA01D8
:1014E000E1E5F1E040814F7B4083A9010C94570670
:1014F000CB01BA010C945707089570E0660F771F6F
:101500006F5F7F4FDC011896ED91FC911997E60F04
:10151000F71F859194910895FC0171876087089564
:1015200043E067EB70E08AEE92E00E94BF1A8F3FC3
:1015300011F08230A9F70895CF93DF93C2E0D3E092
:1015400081E0888368E670E08AEE92E00E94931D55
:101550001882DF91CF9108951F93CF93DF93EC0111
:101560001416ECF041111DC01616ECF061111DC0EF
:101570001E811295169516951370612FCE010E944B
:101580007D0A9A8389831295110F110F107C8E8129
:101590008F73812B8E83DF91CF911F91089510E07F
:1015A000ECCF11E0EACF12E0E8CF13E0E6CF1F93D3
:1015B000CF93DF9300D0CDB7DEB7182F1A821982F0
:1015C000282F30E0A6E1B1E00E945E26AB01BC010D
:1015D0008CE491E00E94780A9E012F5F3F4F46E025
:1015E00051E064EE71E08CE491E00E946E0A80911B
:1015F000E4018093D0018091E5018093CF01809137
:10160000E6018093CE018091E7018093CD01809126
:10161000E8018093CC018091E9018093CB01E3EC58
:10162000F1E081818F7781832AEE31E03093D3011D
:101630002093D2011093D1019E012F5F3F4F40E1D3
:1016400050E064ED71E08CE491E00E946E0A0F902E
:101650000F90DF91CF911F9108952091BF0130919C
:10166000C00128173907D1F56130F1F098F06230E8
:1016700059F16330A9F58091CB010E94D70AE0911E
:10168000BF01F091C00195819F708091D001891BAD
:10169000838326C08091CC010E94D70AE091BF01CC
:1016A000F091C00114821CC08091CE010E94D70A23
:1016B000E091BF01F091C001958192959F7080915A
:1016C000CF01891B84830CC08091CD010E94D70A71
:1016D000E091BF01F091C001138202C080E0089543
:1016E00081E008958AEE92E00E94101E64E172E0AB
:1016F00088E393E00E94E3160E949C0A8AEE92E03F
:101700000E94AD1864E18AEE92E00E9495186AE0AA
:1017100070E08CE491E00E944E0A6CE171E08CE490
:1017200091E00E946B0A892BC9F08AEE92E00E9438
:10173000051A8823D1F362EA70E088E393E00E94FF
:10174000F0116FE870E088E393E00E94F0116CE71D
:1017500070E088E393E00E94F011E7CF80E00E9400
:10176000D70A68E671E08091BF019091C0010E94A4
:101770008C0AE091BF01F091C00181E083838483F2
:1017800081E1858380EB91E09283818368E771E05A
:1017900089E791E00E948C0A82E080937C0183E0DB
:1017A00080937D0181E180937E0188E891E09093B0
:1017B0007B0180937A01E091BF01F091C0018381A8
:1017C0008093780184818093770110927601109242
:1017D000750108950F9360E088E393E00E94001480
:1017E00007E024E540E060E088E393E00E9489148C
:1017F00061E088E393E00E94001424E547E060E0A4
:1018000088E393E00F910C94B2141F93CF93DF936E
:10181000C091BF01D091C0017D817F701CEF170383
:10182000F0011124BA961091780178EF7103D0017C
:101830001124A80FB11DEA0FFB1FDA01ED93FC93F1
:101840005D8152955F7087E090E0851B9109880F5C
:10185000991F880F991F409177017403A0011124EB
:10186000460F511D840F951FF90191838083DF91ED
:10187000CF911F9108950F931F93CF93DF9300D0C3
:1018800000D0CDB7DEB765E084EF92E00E941A1376
:10189000882321F0109276011092750164E084EFA4
:1018A00092E00E941A13882319F00E94900A74C0D3
:1018B000009178011091770145E060E084EF92E0BB
:1018C0000E9423138111015045E062E084EF92E011
:1018D0000E94231381110F5F45E061E084EF92E0E5
:1018E0000E9423138111115045E063E084EF92E0E0
:1018F0000E94231381111F5F202F332727FD30956E
:10190000E091BF01F091C0018381A901481B5109F9
:10191000CA0105960B9750F407FD08C08091D001CD
:1019200090E02817390714F400937801212F33270A
:1019300027FD30958481A901481B5109CA010396EE
:10194000079750F417FD08C08091CF0190E0281749
:10195000390714F4109377018091CA01877090E0E1
:101960000497D4F060917701660F660F660F80913F
:1019700078019E012F5F3F4FAE014D5F5F4F880F93
:10198000880F880F0E94050C08E028E049816B81D0
:1019900088E393E00E94BA140F900F900F900F907D
:1019A000DF91CF911F910F910895882341F08150CD
:1019B000E82FF0E0EE0FFF1FEC50FF4F16C0E3EFF3
:1019C000F0E06491E2EFF0E04491E0EFF0E0259187
:1019D00034918091CA010E949026642F0E94902623
:1019E000F901E90FF11DE90FF11D85919491089519
:1019F0002091D00190E0629F800D911D11249C01E7
:101A000036952795E091D201F091D301E20FF31FB3
:101A1000E08180FFE295EF70F0E0EC52FE4F8081B4
:101A200008952F923F924F925F926F927F928F9282
:101A30009F92AF92BF92CF92DF92EF92FF920F935D
:101A40001F93CF93DF937C01663228F476E2972EC2
:101A5000961AA12C0FC0262F30E026523109C90159
:101A600087709927982E9194590163E0B594A794B3
:101A70006A95E1F7403128F450E1852E841AD12C83
:101A80000FC0642F70E060517109CB0187709927F6
:101A9000882E819443E0759567954A95E1F7D62E97
:101AA00028E0B22EB80CC091D001D0E00A2D10E091
:101AB0002E01401A510AC20133E0880F991F3A954E
:101AC000E1F78435910514F083E590E0692C680E08
:101AD0002091CF0130E02D19310993E0220F331FFF
:101AE0009A95E1F72033310514F02FE230E0CB2C4A
:101AF000C20E7A2C472D50E092018BE0481651041B
:101B000014F02AE030E0200F311F4217530754F43D
:101B10006D2D872D0E94F80C833011F4DA9403C0E8
:101B20007394E8CF8B2C4D2C512C1E0124183508B2
:101B30002D2D30E0C10147E02416310414F086E079
:101B400090E0800F911F2817390764F46D2D8A2DBE
:101B50000E94F80C833021F4AA9448EF940E02C03E
:101B6000D394E6CF4C9E80014D9E100D5C9E100DCF
:101B70001124D12CB12C712C882D992787FD90959B
:101B80008C159D0574F5E801CA0DDB1D592C852DBA
:101B9000992787FD909586159705E4F4FE01F69543
:101BA000E795EE0DFF1DE081C0FFE295EF70F0E0DC
:101BB000EC52FE4F8081833049F00E94D50C9C018D
:101BC000482D652D88E393E00E946116219648E038
:101BD000540EDDCF8091D001080F111D88E0880ED2
:101BE000CBCFDF91CF911F910F91FF90EF90DF90BE
:101BF000CF90BF90AF909F908F907F906F905F90AD
:101C00004F903F902F9008950E94F80CE82FE69592
:101C1000E695E695F0E0E053FF4FE491F0E0877041
:101C200002C0F595E7958A95E2F78E2F81700895A9
:101C30002F923F924F925F926F927F928F929F92DC
:101C4000AF92BF92CF92DF92EF92FF920F931F93CA
:101C5000CF93DF93CDB7DEB728970FB6F894DEBFEA
:101C60000FBECDBF98878F83762E642EFC01138123
:101C70000481362E310E442E400E37FC38C0E580EC
:101C80008E2D8F70282F30E0230D311D37FC3A95B3
:101C90004091D00150E0421753074CF167FF0EC04E
:101CA000602F832D0E94040E811132C06FEF600FF0
:101CB000E2942FE0E2226E0D832D13C0161644F538
:101CC000FF24FA94F80EF30C602F8F2D0E94040E5F
:101CD00081111EC06FEF600FE2949FE0E9226E0D4C
:101CE0008F2D0E94040E811113C011E013C07720C4
:101CF00081F0672D6095661F6627661F83E0861B4F
:101D0000682F8F8198850E942D0B882311F0BBC00E
:101D1000312E10E047FC35C0EF81F885F5800F2D9E
:101D200002950F70202F30E0240D311D47FC3A95AD
:101D30004091CF0150E0421753071CF167FE0DC0E0
:101D4000642D832D0E94040E882311F090E026C09C
:101D50008F2D8F708150642D0EC06620B9F3015015
:101D6000040D602F832D0E94040E8111EFCF8F2D63
:101D70008F708150602F830D0E94040E91E0982790
:101D80000DC0662019F3662D661F6627661F8F81BA
:101D900098850E942D0B8823C9F275C0112311F07C
:101DA000398204C0EF81F885F381F983911103C072
:101DB000EF81F88544808FE6282E81E0382E512C63
:101DC000F1E0FA83842D90E09C838B83F981EF2FDF
:101DD000F0E0FE83ED83511005C0E091BF01F0916A
:101DE000C00101C0F101E380C4808581982F9F70FC
:101DF00082958F7020812F3FC9F0882E912CA92EBB
:101E0000B12CD12CF12CEF81F8852581022F029580
:101E10000F7010E02F7030E04B815C816D817E810E
:101E20008AEE92E00E946F1E81111A825394FAE0AA
:101E30002F0E311C88E05812CECF9A81992329F0B9
:101E40008981EF81F88583834482462D672D8F81B8
:101E5000988528960FB6F894DEBF0FBECDBFDF91F0
:101E6000CF911F910F91FF90EF90DF90CF90BF9097
:101E7000AF909F908F907F906F905F904F903F902A
:101E80002F900C94AC0A28960FB6F894DEBF0FBEC4
:101E9000CDBFDF91CF911F910F91FF90EF90DF9019
:101EA000CF90BF90AF909F908F907F906F905F90FA
:101EB0004F903F902F9008951F93CF93DF9341E071
:101EC00064E084EF92E00E942313811102C0C5E018
:101ED00001C0C2E04C2F60E084EF92E00E94231327
:101EE000D1E0811101C0D0E0D1954C2F62E084EFA8
:101EF00092E00E9423138111DF5F4C2F61E084EF99
:101F000092E00E94231311E0811101C010E01195AD
:101F10004C2F63E084EF92E00E94231381111F5F36
:101F2000412F6D2F8091BF019091C001DF91CF9122
:101F30001F910C94180E65E084EF92E00E941A1332
:101F4000882331F082E090E09093760180937501D0
:101F50000E945C0FE091BF01F091C00183818093EA
:101F600078018481809377010895BF92CF92DF92A8
:101F7000EF92FF920F931F93CF93DF9300D000D087
:101F8000CDB7DEB78FE6E82E81E0F82E10E0111114
:101F900005C0E091BF01F091C00101C0F701C1800F
:101FA000D280838164810581902F9F7002950F708C
:101FB00020812F3F09F442C0B92EBB0CBB0CBB0CD7
:101FC000660F660F660F9E012F5F3F4FAE014D5F9C
:101FD0005F4F880F880F880F0E94050C8B819C81B2
:101FE000AC014B0D511D4230510544F18435910532
:101FF0002CF5000F000F000F89819A81AC01400F72
:10200000511D4A305105D4F0C097C4F460E088E314
:1020100093E00E9400142B2D49816B8188E393E0AB
:102020000E94891461E088E393E00E940014960105
:1020300049816B8188E393E00E9461161F5F8AE00B
:10204000E80EF11C183009F0A2CF0F900F900F90FE
:102050000F90DF91CF911F910F91FF90EF90DF9044
:10206000CF90BF9008958AEE92E00E94051A8823CF
:1020700009F44AC08091CA018F5F8093CA014091E0
:102080007701440F440F440F60917801660F660F8B
:10209000660F8091D2019091D3010E94110D0E9490
:1020A000B50F0E94EA0B8AEE92E00E94EA184AE01D
:1020B00050E0682F88E393E00E94681268E271E0C4
:1020C00088E393E00E94D3118AEE92E00E94FB180D
:1020D0004AE050E0BC0188E393E00E946F1266E0A2
:1020E00084EF92E00E941A1381110C949C0A809153
:1020F000750190917601009719F0029719F00895F3
:102100000C949B0F0C943B0C0895CF93DF9310928B
:102110003B0310923A038FE291E09093390380934E
:10212000380389E190E00E947512EC0189E1FE011B
:1021300011928A95E9F7CE010E947C0AD093C001E2
:10214000C093BF01C9E7D1E0CE010E947C0A2A9664
:10215000F1E0CF3BDF07C1F7DF91CF9108958330E6
:1021600081F028F4813099F08230A1F00895863012
:10217000A9F08730B9F08430D1F4809180008F7D50
:1021800003C0809180008F7780938000089584B58C
:102190008F7702C084B58F7D84BD08958091B00093
:1021A0008F7703C08091B0008F7D8093B000089539
:1021B000CF93DF9390E0FC01E253FE4F2491FC01AA
:1021C000EE51FE4F8491882349F190E0880F991FCA
:1021D000FC01E65FFD4FA591B49180509E4FFC013C
:1021E000C591D4919FB7611108C0F8948C91209546
:1021F00082238C93888182230AC0623051F4F89440
:102200008C91322F309583238C938881822B888305
:1022100004C0F8948C91822B8C939FBFDF91CF9157
:1022200008950F931F93CF93DF931F92CDB7DEB71F
:10223000282F30E0F901E654FE4F8491F901E25372
:10224000FE4F1491F901EE51FE4F04910023C9F0A5
:10225000882321F069830E94AF106981E02FF0E0AC
:10226000EE0FFF1FE050FE4FA591B4919FB7F89479
:102270008C91611103C01095812301C0812B8C9337
:102280009FBF0F90DF91CF911F910F910895CF9332
:10229000DF93282F30E0F901E654FE4F8491F901D5
:1022A000E253FE4FD491F901EE51FE4FC491CC237D
:1022B00091F081110E94AF10EC2FF0E0EE0FFF1FA4
:1022C000EA50FE4FA591B4912C912D2381E090E02E
:1022D00021F480E002C080E090E0DF91CF9108958A
:1022E000CF92DF92EF92FF920F931F93CF93DF93E2
:1022F0006C017A01EB01E60EF71E00E010E0CE154E
:10230000DF0561F06991D601ED91FC910190F081BA
:10231000E02DC6010995080F191FF1CFC801DF9103
:10232000CF911F910F91FF90EF90DF90CF90089584
:102330006115710581F0DB010D900020E9F7AD0119
:1023400041505109461B570BDC01ED91FC91028075
:10235000F381E02D099480E090E00895EF92FF92E0
:102360000F931F93CF93DF938C01FB01C0E0D0E06C
:1023700064917F018FEFE81AF80A662361F0D801B3
:10238000ED91FC910190F081E02DC8010995C80FF5
:10239000D91FF701EDCFCE01DF91CF911F910F91A2
:1023A000FF90EF9008950C949811DC01ED91FC9151
:1023B0000190F081E02D09940F931F93CF93DF9349
:1023C000EC016DE00E94D5118C016AE0CE010E9403
:1023D000D511800F911FDF91CF911F910F9108951B
:1023E0000F931F93CF93DF93EC010E94AE118C01EA
:1023F000CE010E94DC11800F911FDF91CF911F91C0
:102400000F9108958F929F92AF92BF92CF92DF92D9
:10241000EF92FF920F931F93CF93DF93CDB7DEB769
:10242000A1970FB6F894DEBF0FBECDBF7C01C42EBE
:10243000E52FCB01D22E19A221E02D1510F02AE0B4
:10244000D22E8E010F5D1F4F8D2C912CA12CB12C03
:102450006C2D7E2FA50194010E94C4268C2DD29E46
:1024600080191124015011098A3014F4805D01C0D3
:10247000895CF8018083211531054105510521F062
:10248000C22EE32FCA01E4CFB801C7010E94981100
:10249000A1960FB6F894DEBF0FBECDBFDF91CF91EE
:1024A0001F910F91FF90EF90DF90CF90BF90AF9072
:1024B0009F908F9008952115310541F4DC01ED9135
:1024C000FC910190F081E02D642F09940C9402128C
:1024D0009A01462F50E060E070E00C945B129A0184
:1024E000AB0160E070E00C945B120C9436200E940B
:1024F0007F1F0E94720BC0E0D0E00E943310209733
:10250000E1F30E940000F9CF009729F0BC0180E0C0
:1025100090E00C94352508954F925F926F927F92D0
:10252000AF92BF92CF92DF92EF92FF920F931F93E1
:10253000CF93DF93CDB7DEB729013A01621B730B4E
:10254000840B950B29893A894B895C892A193B09A7
:102550004C095D09298B3A8B4B8B5C8B9B01AC0141
:1025600069897A898B899C890E948026E418F508FC
:1025700006091709A80197010E94E6262A0D3B1DAE
:102580004C1D5D1DCA01B901DF91CF911F910F91C3
:10259000FF90EF90DF90CF90BF90AF907F906F90C3
:1025A0005F904F900895FC0188E0808389E08183EB
:1025B00087E0828386E0838384E0848382E085836E
:1025C00081E186830895DF92EF92FF920F931F932C
:1025D000CF93DF937C01EC0100E010E0DD24DA947E
:1025E00062E088810E94D81088810E944711F7011B
:1025F000E00FF11F892B21F487818F5F878308C04B
:102600008781882349F08F3F11F4178201C0D78258
:1026100060E088810E94D8100F5F1F4F219607301D
:102620001105F1F6DF91CF911F910F91FF90EF907F
:10263000DF900895FC01E60FF11D81E09781913054
:1026400009F080E00895262F30E0FC01E20FF31F2F
:10265000423030F49781915081E09E3F58F009C09C
:1026600087818F3F31F0642F0E94902681E0913066
:1026700009F080E008958EBD0DB407FEFDCF8EB544
:102680000895643508F047C0403308F044C0FC01A9
:10269000878D242F259525952595E62FFF27E7FD86
:1026A000F0954770823091F4DF01A059BC4F84E56A
:1026B0002802A00DB11D11248C9190E0042E02C0BF
:1026C000959587950A94E2F780958170811112C0E3
:1026D00084E52802E00DF11D1124E059FC4F81E052
:1026E00090E0042E01C0880F0A94EAF7809590814B
:1026F000982310C084E52802E00DF11D1124E05953
:10270000FC4F81E090E0042E01C0880F0A94EAF7A4
:102710009081982B908308951F93CF93DF93EC01C2
:10272000162FF89460E08E850E9411118F8518167F
:102730001CF460E00E941111812F0E943B138F85D1
:1027400018161CF461E00E9411117894DF91CF916A
:102750001F91089528EF31E0E0E7F3E0DF01A901E0
:102760001D9241505040E1F7DC0119961C921997D7
:102770001A961C920895DF92EF92FF920F931F9387
:10278000CF93DF93EC0180E7E82E83E0F82ED12C85
:102790006D2D6064CE010E948C1360E8CE010E9412
:1027A0008C1361E08E850E9411118F8518161CF420
:1027B00060E00E94111100E010E0F701E00FF11F4E
:1027C00080810E943B130F5F1F4F04351105A9F74D
:1027D0008F8518161CF461E00E941111D39484E5D2
:1027E000E80EF11C86E0D812D3CF60E4CE01DF9171
:1027F000CF911F910F91FF90EF90DF900C948C136D
:10280000FC01678F60A30895FC01678F40A30895C2
:10281000AF92BF92CF92DF92EF92FF920F931F93EE
:10282000CF93DF93EC01162FF42EE22EA02FBB27BF
:10283000A7FDB095A41BB10947FDB395B7FF03C031
:10284000B195A195B109EE2DFF27E7FDF095E11BAC
:10285000F10917FDF395F7FF03C0F195E195F10933
:10286000BB24B394EA17FB0714F0B12C06C08E2DDD
:10287000E02E082F812F1F2DF82EE11634F48F2D16
:10288000F02E082F812F1E2DE82ECE2CC11AE02FFE
:10289000FF27E7FDF095EF19F109F7FCF395F7FF36
:1028A00003C0F195E195F109AE2EDC2CC7FE03C003
:1028B000DD24D394DC0CD594F01614F401E00FC0A1
:1028C0000FEF0DC0BB2071F0412F6F2DCE010E9484
:1028D0004113DA18D7FE02C0F00EDC0C1F5FE116C0
:1028E0008CF703C04F2D612FF1CFDF91CF911F9156
:1028F0000F91FF90EF90DF90CF90BF90AF90089531
:102900000F93022F0150040F262F0E9408140F91DD
:102910000895DF92EF92FF920F931F93CF93DF936F
:102920007C01D42E162FC22FDD27C7FDD095C60FF0
:10293000D11D67FDDA95812F992787FD90958C171A
:102940009D0744F4202F4D2D612FC7010E94801454
:102950001F5FF1CFDF91CF911F910F91FF90EF900B
:10296000DF9008950F932150260F042F0E94081422
:102970000F910895EF92FF920F931F93CF93DF93E0
:10298000EC01F62E142FE22E0E94B2144FEF400FEE
:10299000410F2E2D6F2DCE010E94B214202F412FFA
:1029A0006F2DCE010E9480146FEF6E0D6F0D202FE2
:1029B000412FCE01DF91CF911F910F91FF90EF90AA
:1029C0000C9480148F929F92AF92BF92CF92DF921D
:1029D000EF92FF920F931F93CF93DF93EC01E62EBC
:1029E000D42E122FCC24C394C21AB22EB194BB0C95
:1029F000F12C802F8470A82E802F8270982E802F2B
:102A00008870882E0170F1160CF04DC0C7FC04C010
:102A10001150B394B394CB0CF3948F2D880F8F5F28
:102A2000C80EAA2071F0412F4D0D6F2D6E0DCE01F5
:102A30000E9441134F2D4D0D612F6E0DCE010E944E
:102A40004113992071F04D2D411B6F2D6E0DCE015C
:102A50000E9441134D2D4F19612F6E0DCE010E9422
:102A60004113882071F04F2D4D0D6E2D611BCE014D
:102A70000E944113412F4D0D6E2D6F19CE010E9402
:102A80004113002309F4BFCF4D2D4F196E2D611B4B
:102A9000CE010E9441134D2D411B6E2D6F19CE01A9
:102AA0000E944113B0CFDF91CF911F910F91FF9002
:102AB000EF90DF90CF90BF90AF909F908F90089550
:102AC0008F929F92AF92BF92CF92DF92EF92FF923E
:102AD0000F931F93CF93DF93EC01B62EA42E122FEA
:102AE000DD24D394D21AC22EC194CC0CFF24F394CB
:102AF000802F8170882E992493949E0C02708FEF02
:102B00008F0D8117C4F5D7FC04C01150C394C39432
:102B1000DC0C8F2D880F8F5FD80E882099F0212F25
:102B2000220F290D4A2D411B6F2D6B0DCE010E94E6
:102B3000801423E02E0D4A2D4F19612F6B0DCE010D
:102B40000E948014002399F0212F220F290D4A2D75
:102B5000411B6B2D6F19CE010E94801423E02E0DB6
:102B60004A2D4F196B2D611BCE010E948014F394E6
:102B7000E394E394C4CFDF91CF911F910F91FF9025
:102B8000EF90DF90CF90BF90AF909F908F9008957F
:102B90009F92AF92BF92CF92DF92EF92FF920F93EC
:102BA0001F93CF93DF93EC01B62EF42EA22EDE2CD2
:102BB000D194DD0C9D2C920E1E2D160F292D612F08
:102BC0000E94B214CC24CA94C00ECF0C292D4C2DD7
:102BD000612FCE010E94B214D00EFE0C2D2D4F2D70
:102BE0006B2DCE010E948014BA0C6FEF6B0D2D2D52
:102BF0004F2DCE010E94801401E02E2D4F2D612F0C
:102C0000CE010E94E214DE2CD094DB0C02E02E2DCB
:102C10004F2D6D2DCE010E94E214CE1804E02E2D12
:102C20004C2D6D2DCE010E94E21408E02E2D4C2D6E
:102C3000612FCE010E94E214DF91CF911F910F917D
:102C4000FF90EF90DF90CF90BF90AF909F9008954E
:102C5000AF92BF92CF92DF92EF92FF920F931F93AA
:102C6000CF93DF93EC01A62EC42EB22EF02E1E2D94
:102C7000E194EE0CD12ED60E2E2D2B0D6D2D0E9433
:102C80008914FA94FE0CC10E6FEF6A0D6B0D611B77
:102C9000EF2C01E0212F4C2DCE010E94601502E0A7
:102CA000212F4C2D6D2DCE010E946015DF91CF910B
:102CB0001F910F91FF90EF90DF90CF90BF90AF905A
:102CC00008952F923F924F925F926F927F928F92D0
:102CD0009F92AF92BF92CF92DF92EF92FF920F93AB
:102CE0001F93CF93DF931F92CDB7DEB78C01862E53
:102CF000942EF9017490319664907901F2E0EF0E10
:102D0000F11C872D992787FD9095DC011796B7FF59
:102D100002C0DC011E966D0183E0D594C7948A95AC
:102D2000E1F7212C312C512C90E8A92EB12C56140E
:102D3000B4F520E0452C490C27156CF5822F27FFB0
:102D400002C087E0820F859585958595F101E80F92
:102D5000F11D87FDFA95EE0DFF1DE491F0E0A22F25
:102D6000A778A7FF03C0A150A86FAF5FC50102C03D
:102D700095958795AA95E2F7DC01AE23BF23AB2B8F
:102D800041F0442D622F680DC80129830E94411330
:102D900029812F5FD1CF53942C0C3D1CC8CF0F90AD
:102DA000DF91CF911F910F91FF90EF90DF90CF9027
:102DB000BF90AF909F908F907F906F905F904F905B
:102DC0003F902F900895DC01FB0184918F5F149652
:102DD0008C9314973196E491EF5F1596EC931597C9
:102DE0006E5F7F4F5E967C936E935D970895EF9232
:102DF0000F93CF93DF93EC014D876C872E87E88A82
:102E00000F8781E088878F8F18A28F8364E172E03B
:102E1000CE010E94E3160E945D2181E00E94732191
:102E200085E00E9481218CE00E947C2161E08D85FB
:102E30000E94D81061E08C850E94D81061E08E85D8
:102E40000E94D810888918161CF461E00E94D810DE
:102E50008F8518161CF461E00E94D8108889181616
:102E60006CF460E00E9411116AE070E080E090E094
:102E70000E94591F61E088890E9411118C85992751
:102E800087FD9095FC01EE51FE4FE491F0E0EE0FCE
:102E9000FF1FE050FE4F259134913C8B2B8BFC01A2
:102EA000E253FE4F84918A8F8D85992787FD9095F7
:102EB000FC01EE51FE4FE491F0E0EE0FFF1FE050F9
:102EC000FE4F259134913A8B298BFC01E253FE4F42
:102ED0008491898F8F85992787FD9095FC01EE510C
:102EE000FE4FE491F0E0EE0FFF1FE050FE4F259102
:102EF00034913E8B2D8BFC01E253FE4F84918B8FDE
:102F00008E85992787FD9095FC01EE51FE4FE49147
:102F1000F0E0EE0FFF1FE050FE4F25913491388F07
:102F20002F8BFC01E253FE4F84918C8F61E2CE0126
:102F30000E948C1364E1CE010E948C138B8587FF65
:102F400002C08FE78B876B856068CE010E948C136F
:102F500060E2CE010E948C136CE0CE010E948C13C3
:102F6000CE01DF91CF910F91EF900C94BB136F9234
:102F70007F928F929F92AF92BF92CF92DF92EF9209
:102F8000FF920F931F93CF93DF93EC01162FF42E34
:102F9000B02EEF8C64350CF081C08FE284170CF4F6
:102FA0007DC0EC81F0E031970E9FC0010F9F900D26
:102FB0001124860F911D67FD9A95181619060CF0BD
:102FC0006DC08D81809FC0011124840F911D47FD2C
:102FD0009A95181619060CF061C0A62E962EC22ED0
:102FE000D12C8A2D811B992787FD90952C8130E06B
:102FF000821793070CF051C02150310982179307B3
:1030000079F0C29ED001C39EB00DD29EB00D1124A6
:10301000A80FB91FED8DFE8DEA0FFB1F749001C044
:10302000712C8F2C6F2C282D2F19332727FD3095CD
:103030008D8190E0281739076CF570FE11C081E092
:10304000B81206C0482D6A2DCE010E9441131EC041
:103050000B2D2B2D462D692DCE010E94891416C0F3
:1030600088A19F8D891791F08F8F81E0B81206C0DB
:10307000482D6A2DCE010E94411307C00B2D2B2D28
:10308000462D692DCE010E948914EF8E76946B0C2B
:103090008394C9CF9B0CA394A4CFEF8EDF91CF91E3
:1030A0001F910F91FF90EF90DF90CF90BF90AF9066
:1030B0009F908F907F906F9008950F93CF93DF93A1
:1030C000EC01262F6A3039F42D8198858A85299F55
:1030D000800D112422C06D3011F108854A85698563
:1030E0000E94B71748855C812985549F200D1124C3
:1030F00029878F81882399F0332727FD309584E530
:1031000090E0459F801991091124821793073CF4A0
:103110009D818A85499F800D11248A87198681E0C7
:1031200090E0DF91CF910F910895CF93DF93FC0151
:10313000462FEC01C258DF4F70E088EE93E00E940A
:10314000B0266883842F64E10E949026811101C01B
:1031500081E081A7DF91CF910895CF92DF92EF9226
:10316000FF920F931F93CF93DF93EC010A8D1B8D7A
:10317000009510950E94361F6B017C010E94361F3E
:10318000C094D094E094F09460957095809590955B
:10319000C69E9001C79E300DD69E300D1124209FF3
:1031A0007001219FF00C309FF00C11240980DA810E
:1031B000C02D0E94361FCE01860F971F8E0D9F1DBA
:1031C000DF91CF911F910F91FF90EF90DF90CF9003
:1031D0000C948412FC01E258FF4F6081FC01EC5812
:1031E000FF4F8AE0689FB0011124808191810E9485
:1031F0009C26862F0895CF93DF9300D0CDB7DEB7FE
:1032000020917805309179052115310511F42CE7CD
:1032100035E0CE010196821B930B0F900F90DF914A
:10322000CF9108958F929F92AF92BF92CF92DF92EB
:10323000EF92FF920F931F93CF93DF93EC015C010A
:1032400085E8A80EB11CD5018C91882309F44FC0E4
:103250008C3018F41CE0181B01C010E0FE01EA5A83
:10326000FF4F81E080836E01BEE4CB0ED11C60E095
:10327000C6010E9400144E01E3E58E0E911CD4019C
:103280008C9103E0080F9DE2F92E4F2D481B410F52
:1032900023E0E22E24E560E0C6010E94281661E0EA
:1032A000C6010E940014F401808103E0080F4F2D35
:1032B000481B410F24E560E0C6010E94C815FE01CD
:1032C000E95AFF4F84E08083FE01E85AFF4FD401A2
:1032D0008C91181B115D1083CD57DF4F6881798168
:1032E000C6010E94AE11F501808181508083DF917B
:1032F000CF911F910F91FF90EF90DF90CF90BF90F3
:10330000AF909F908F9008950F931F93CF93DF936B
:10331000EC018C01025B1F4F40E061E0C8010E949C
:103320000414FE01E95AFF4FDE01AE5ABF4F85E596
:103330009C91891B8083FE01E85AFF4F1082698DA2
:10334000613009F43CC028F0888D653008F04EC02B
:1033500049C0CE0185960E94AC2260E0CE010E9459
:103360007E24C8010E94AA13FE01EA5AFF4F81E0A1
:10337000808367EF73E0C8010E94AE116A8D7B8D78
:103380004AE050E0C8010E946F1263EE73E0C8018A
:103390000E94AE11C8010E94BB1383B7817F846075
:1033A00083BF83B7816083BF83B7816083BF889504
:1033B00083B78E7F83BF83B78E7F83BF21C0C05901
:1033C000DF4F488159816A817B814F70552766277D
:1033D0007727483051056105710510F467E009C091
:1033E00068E707C0882361F06B5F03C0882341F062
:1033F0006FE2C801DF91CF911F910F910C94D5110D
:10340000DF91CF911F910F9108958F929F92AF926C
:10341000BF92EF92FF920F931F93CF93DF93EC0134
:103420007C010FE7E00EF11CF70180809180A28003
:10343000B3800E942A1F95018401061B170B280BDD
:10344000390BB901A8015E011EE7A10EB11CF501FF
:10345000808190E0A0E0B0E08E0106581F4F8417F5
:103460009507A607B70750F4F80180819181A281E2
:10347000B381892B8A2B8B2B09F040C0F801808106
:103480009181A281B381892B8A2B8B2BA9F57E0197
:10349000F5E2EF0EF11CC7010E94A922C7010E94AC
:1034A0001623C7010E94DA23CE010E941219CE0111
:1034B0000E9484197E012EE4E20EF11CC7010E94D5
:1034C000BB13FE01EC5AFF4F8081811103C0C7017D
:1034D0000E94AA130E94361FF801608371838283C1
:1034E0009383FE01EC58FF4FCA58DF4F2881398182
:1034F000621B730B7183608380E036C00E942A1FB9
:10350000F5012081620F711D811D911DF7016083FE
:10351000718382839383FE01E059FF4F4081518183
:10352000628173814F5F5F4F6F4F7F4F4083518345
:1035300062837383F80110821182128213820E94C7
:10354000361FFE01EA58FF4F6083718382839383A5
:10355000CE010E948224CE010A960E94E312CE017F
:1035600048960E94AA1E81E0DF91CF911F910F9192
:10357000FF90EF90BF90AF909F908F9008952F9203
:103580003F924F925F926F927F928F929F92AF92F3
:10359000BF92CF92DF92EF92FF920F931F93CF9340
:1035A000DF93CDB7DEB766970FB6F894DEBF0FBED8
:1035B000CDBF9E8B8D8B6F87788B942EFC01EC5A40
:1035C000FF4F108288248A941C82A12C30E33B8315
:1035D000B12C6C018AE0C80ED11C6D887E8893E501
:1035E000690E711CED89FE89B5962F01242F30E0FC
:1035F0003A8729878D899E89895A9F4F9E838D831B
:10360000ED89FE89E85AFF4FF887EF832D893E89BF
:103610002A5A3F4F3C872B878D899E898B5A9F4F13
:103620009E878D87ED89FE89E25BFF4F1F018D89A3
:103630009E890E94051A8823D1F364E0C6010E9486
:103640001A133B81032F112707FD109581113EC0EE
:1036500065E0C6010E941A13811138C066E0C601F8
:103660000E941A13811132C03C81311142C044E0E2
:1036700063E0C6010E942313882321F0B394C201A2
:103680000E94572444E061E0C6010E94231388236E
:1036900021F0BA94C2010E9457248B2D992787FDEF
:1036A0009095E985FA858E179F0731F0B7FE05C022
:1036B000BB24BA94B90C01C0B12CF301808134E071
:1036C000A32EA80E8B9DA01811241DC0F301A0806D
:1036D00064E0C6010E941A13882309F484C0C20161
:1036E0000E942B248B2CA194A99CA02C1124AA9479
:1036F000AA94C8018A199109A7FC939502970CF422
:1037000076C031E03C830A0D111DA7FC1A9517FF06
:1037100002C00F5F1F4FC801959587959A838983D3
:1037200029812B83ED81FE811082EF81F8858083D2
:1037300081E0EB85FC858083ED85FE8510820F8519
:103740001889E12CF12C4B2D552747FD509533E07E
:10375000E91420F5E416F50669F4ED81FE81308365
:10376000F3018081F22FB89EF00D11248F2FEF818D
:10377000F8858083F80165917491C101298B3C8B98
:103780004A8B5B8B0E94F011FFEFEF1AFF0A0E5F6E
:103790001F4F5B894A893C892989DACF60E0C101E2
:1037A0000E940014F30180814981B89E400D1124CC
:1037B000415024E560E0C1010E94B21461E0C10102
:1037C0000E940014F301808103E0080F4981B89E34
:1037D000400D1124425083E0E82E24E560E0C10151
:1037E0000E94C81524CFC2010E9441247CCF882D9D
:1037F00066960FB6F894DEBF0FBECDBFDF91CF91B6
:103800001F910F91FF90EF90DF90CF90BF90AF90FE
:103810009F908F907F906F905F904F903F902F90F0
:1038200008950F931F93CF93DF938C01EC01C25B3C
:10383000DF4FCE010E94AA136BEB73E0CE010E9412
:10384000AE11CE010E94BB1383E00E94812183E36D
:1038500091E0EEEFFFE30995F801EC5AFF4F10827B
:1038600066E973E0CE010E94F011CE010E94BB1305
:10387000065F1F4FC8010E94E31264E0C8010E9466
:103880001A13811107C062E370E080E090E00E94AB
:10389000591FF0CFDF91CF911F910F9108952F9273
:1038A0003F924F925F926F927F928F929F92AF92D0
:1038B000BF92CF92DF92EF92FF920F931F93CF931D
:1038C000DF93CDB7DEB72A970FB6F894DEBF0FBEF1
:1038D000CDBF9A8789871B012A013C018FE6680EBC
:1038E000711CF3018081882309F404C181E0E9851A
:1038F000FA85EA5AFF4F8083E985FA85EB5AFF4F34
:103900001082E985FA85EC5AFF4F1082E985FA8525
:10391000108E8F01025B1F4F61E0C8010E940014EE
:10392000F101F491FF83C984DA8487E5C80ED11CC4
:10393000E984FA8498E5E90EF11CE985FA85EE5AE6
:10394000FF4FFA83E98389859A8580599F4F9E832B
:103950008D83E985FA85ED5AFF4FFC83EB838984DB
:103960009A84FAE08F0E911CA984BA8485E2A80E8D
:10397000B11C89859A850E94051A8823D1F39F81FD
:10398000992321F0EB81FC81508101C050E028E1B6
:1039900034E040E060E0C80158870E946116588515
:1039A0004114510439F04CE0450F920160E0C80128
:1039B0000E946116F60110828CE0F7018083B1014C
:1039C000C8010E94AE11E981FA819081892F880F88
:1039D000890F81958D5AF6018083EB81FC8190815E
:1039E000892F880F890F8195835DF7018083ED8191
:1039F000FE81808184FF03C064E174E002C060E165
:103A000074E0C8010E94F011E981FA819081892F48
:103A1000880F890F81958D5AF6018083F701808187
:103A20008F5F8083E985FA8582A5882319F06CE091
:103A300074E002C068E074E0C8010E94F011E981FE
:103A4000FA819081892F880F890F81958D5AF6010F
:103A50008083F70180818F5F808364E074E0C80118
:103A60000E94F01165E0C4010E941A13882351F0EE
:103A7000E985FA8562A56F5FC5010E946D24C501C5
:103A80000E94572464E0C4010E941A13811113C0DC
:103A9000F3012081822F90E0A0E0B0E0ED81FE8173
:103AA0004081518162817381481759076A077B07FA
:103AB000A8F02F3F99F08FEFF301808309851A85D5
:103AC0000B5D1F4F60E0C8010E945322C8010E9495
:103AD0002B2481E0E985FA85808F0CC066E0C40163
:103AE0000E941A13882309F444CF89859A850E947D
:103AF000111C2FCF2A960FB6F894DEBF0FBECDBF94
:103B0000DF91CF911F910F91FF90EF90DF90CF90B9
:103B1000BF90AF909F908F907F906F905F904F90ED
:103B20003F902F90089540E050E00C944F1CE0E847
:103B3000F7E72591349181E02130304C09F080E0A5
:103B40000895CF93DF93EC010E94971D9E01275AA1
:103B50003F4FDE01A159BF4F882309F43CC0E6E97D
:103B6000F7E78491F9018083E7E9F7E7E491EC83D3
:103B7000E8E9F7E7E491ED83E9E9F7E785919491C6
:103B80009F838E83EBE9F7E78591949199878887E6
:103B9000EDE9F7E7E491EBA7EEE9F7E7E491EAA7AF
:103BA000EFE9F7E7E491EC93E0EAF7E78591949188
:103BB0009D8F8C8FE2EAF7E7859194919F8F8E8F8E
:103BC000E4EAF7E78591949199A388A3E6EAF7E7F9
:103BD0008591949120C08CE3F90180831C822FEFA2
:103BE0002D8380E293E09F838E8384ED93E0998719
:103BF000888781E08BA78AA72C938CEA9DE09D8F14
:103C00008C8F8EED9DE09F8F8E8F84E79EE099A331
:103C100088A38CE39FE09BA38AA3DF91CF910895B3
:103C2000CF92DF92EF920F93CF93DF93EC01FC01E1
:103C3000E258FF4F82E38083FE01E658FF4F41E0E8
:103C400050E060E070E04083518362837383FE0143
:103C5000E159FF4F8FEF8083CE010E94A11DCE015D
:103C60000E947A246FEFCE010E947E246E018AE0CA
:103C7000C80ED11CC6010E94D312C6010E94E312D5
:103C8000CE0148960E94A01E8EE0E82E0FE020E1B3
:103C90004BE06DE0CE01825B9F4F0E94F716A59628
:103CA000CE010E94BF2165E0C6010E941A1388233D
:103CB00051F060E0CE01DF91CF910F91EF90DF9056
:103CC000CF900C946D2440E068E874E0CE01DF9161
:103CD000CF910F91EF90DF90CF900C945E228F9256
:103CE0009F92AF92BF92CF92DF92EF92FF920F938B
:103CF0001F93CF93DF93CDB7DEB7260F371FE216A2
:103D0000F30684F4EA0CFB1C6E157F055CF4040FCB
:103D1000151FC016D10634F4C80CD91C81E04C150F
:103D20005D050CF080E0DF91CF911F910F91FF9026
:103D3000EF90DF90CF90BF90AF909F908F900895BD
:103D4000FC018CE39FE09383828384E0818381E0A4
:103D500084870895CF93DF93EC018C858F7151F5A3
:103D600084E10E94BA1FBC01882777FD8095982FB7
:103D70000E946F2526EE3FE34EEC50E40E94FB25A7
:103D80000E9441259B017B836A836115710581F047
:103D900084E08983FE0140E08481958128173907FA
:103DA00010F449830AC04F5F32964430A9F702C02D
:103DB0008FEF89838C858F5F8C87DF91CF910895FA
:103DC0001F920F920FB60F9211242F933F938F9350
:103DD0009F93AF93BF938091690590916A05A091DD
:103DE0006B05B0916C053091680523E0230F2D37EA
:103DF00020F40196A11DB11D05C026E8230F0296EF
:103E0000A11DB11D209368058093690590936A05F3
:103E1000A0936B05B0936C0580916D0590916E0534
:103E2000A0916F05B09170050196A11DB11D809301
:103E30006D0590936E05A0936F05B0937005BF91CB
:103E4000AF919F918F913F912F910F900FBE0F9047
:103E50001F9018952FB7F8946091690570916A05C5
:103E600080916B0590916C052FBF08953FB7F89432
:103E700080916D0590916E05A0916F05B0917005D0
:103E800026B5A89B05C02F3F19F00196A11DB11DB5
:103E90003FBF6627782F892F9A2F620F711D811DD2
:103EA000911D42E0660F771F881F991F4A95D1F731
:103EB0000895CF92DF92EF92FF92CF93DF936B0141
:103EC0007C010E94361FEB01C114D104E104F1040E
:103ED00079F00E94361F6C1B7D0B683E7340A0F387
:103EE00081E0C81AD108E108F108C851DC4FECCFD5
:103EF000DF91CF91FF90EF90DF90CF90089578946D
:103F000084B5826084BD84B5816084BD85B58260DE
:103F100085BD85B5816085BDEEE6F0E0808181607C
:103F20008083E1E8F0E0108280818260808380817C
:103F300081608083E0E8F0E0808181608083E1EB54
:103F4000F0E0808184608083E0EBF0E0808181603C
:103F50008083EAE7F0E080818460808380818260F2
:103F600080838081816080838081806880831092DB
:103F7000C10008958E3008F08E50877020910401A2
:103F800090E4299F90011124822B80937C008091E2
:103F90007A00806480937A0080917A0086FDFCCF5D
:103FA000809178002091790090E0922B08951F93E2
:103FB000CF93DF93182FEB0161E00E94D810209778
:103FC00011F460E004C0CF3FD10539F461E0812FE6
:103FD000DF91CF911F910C941111E12FF0E0E65485
:103FE000FE4FE491E330F9F048F4E130B9F0E2300B
:103FF000A1F584B5806284BDC8BD34C0E630E9F067
:10400000E73019F1E43049F58091800080628093B7
:104010008000D0938B00C0938A0024C084B5806850
:1040200084BDC7BD1FC080918000806880938000E0
:10403000D0938900C093880015C08091B00080683B
:104040008093B000C093B3000DC08091B000806237
:104050008093B000C093B40005C0C038D1050CF007
:10406000B5CFAFCFDF91CF911F910895CF93DF935D
:104070008230910510F482E090E0E0917A05F091B1
:104080007B0520E030E0A0E0B0E0309739F14081DE
:10409000518148175907B8F04817590771F48281C0
:1040A0009381109729F013969C938E9312972CC0AE
:1040B00090937B0580937A0527C02115310531F057
:1040C0004217530718F0A901DB0101C0EF019A0163
:1040D000BD01DF010280F381E02DD7CF211531052D
:1040E000F9F0281B390B2430310580F48A819B813B
:1040F0006115710521F0FB019383828304C09093C5
:104100007B0580937A05FE01329644C0FE01E20FE2
:10411000F31F8193919322503109398328833AC048
:104120002091780530917905232B41F420910701E6
:10413000309108013093790520937805209105018D
:10414000309106012115310541F42DB73EB740915C
:10415000090150910A01241B350BE0917805F0917B
:104160007905E217F307A0F42E1B3F0B2817390738
:1041700078F0AC014E5F5F4F2417350748F04E0FC3
:104180005F1F50937905409378058193919302C006
:10419000E0E0F0E0CF01DF91CF910895CF93DF937E
:1041A000009709F487C0FC01329713821282C091F4
:1041B0007A05D0917B05209781F420813181280FE9
:1041C000391F80917805909179058217930779F5C9
:1041D000F0937905E09378056DC0DE0120E030E0D2
:1041E000AE17BF0750F412964D915C9113979D0145
:1041F0004115510509F1DA01F3CFB383A283408160
:104200005181840F951F8A179B0771F48D919C91A2
:104210001197840F951F02969183808312968D913A
:104220009C911397938382832115310529F4F09390
:104230007B05E0937A053EC0D9011396FC93EE937B
:1042400012974D915D91A40FB51FEA17FB0779F402
:1042500080819181840F951F0296D90111969C93BC
:104260008E938281938113969C938E931297E0E0B4
:10427000F0E08A819B81009719F0FE01EC01F9CFF3
:10428000CE01029628813981820F931F20917805F3
:10429000309179052817390769F4309729F410927D
:1042A0007B0510927A0502C013821282D0937905A1
:1042B000C0937805DF91CF91089561E08AE00E9474
:1042C000111161E08AE00E94D8108CB580618CBD2C
:1042D0008CB580648CBD61E08DE00E94D81061E0F7
:1042E0008BE00C94D810811103C08CB5806202C0A1
:1042F0008CB58F7D8CBD08959CB5937F982B9CBD0C
:1043000008952CB5982F93702C7F922B9CBD9DB552
:1043100082FB882780F99E7F982B9DBD089550E0F1
:10432000DA01AA0FBB1FA80FB91F1F963C911F9758
:1043300050962C915097E32FF22FE60FF11DE60FC8
:10434000F11D2591349190963C932E935F97F9013E
:1043500025913491FC01B481B29FA02D1124E40F6A
:10436000F51FA1A3632F70E08A2F90E068177907EB
:1043700008F4A32FAB9FA02D1124A2A3089521E040
:10438000FC01248324E020A727EE34E0308B27872C
:1043900040E060E00E948F2161E070E083E00E94D5
:1043A000D71FE1EBF0E08081887F81608083F89403
:1043B00010928000E1E8F0E01082109285001092E7
:1043C000840088E191E09093890080938800808147
:1043D00088608083808181608083EFE6F0E0808167
:1043E00082608083789408950F93FC01862F642F58
:1043F000011129C08230D1F048F4882391F0813036
:1044000011F540E0CF010F910C948F218330A9F07A
:104410008430C9F48481489F602D1124658F268FD4
:1044200012C04B3008F06AE0668B0DC08481489F53
:10443000602D1124618F228F06C08481489F602DDA
:104440001124638F248F0F910895FC0121110EC058
:10445000648B8481489F402D1124458B15A214A2A2
:1044600013A281E0878B80937505108E089580914B
:104470007505882319F08091720501C080E0809352
:10448000B4000895FC0161110DC0178A158A14A2A9
:1044900013A2108E1092720510927305109275057A
:1044A0000C9437220895CF93DF93EC01611103C080
:1044B0000E9442221982DF91CF9108950F931F939A
:1044C000CF93DF93EC018B0141110EC060E00E949D
:1044D00053221E870D871B8A1A8A81E0898389E00F
:1044E0008E8B198E1B8E1D8EDF91CF911F910F9198
:1044F0000895CF93DF93EC01611128C08881882350
:1045000029F18981811122C089852F819885E22F27
:10451000F92FE80FF11DE80FF11D859194918F3F60
:104520002FEF920711F4188211C09C879927880FEA
:10453000991FEA85FB85E80FF91F6591749140E0AA
:10454000CE010E945E2289858F5F8987DF91CF919E
:10455000089560E00C94792260E00C9453220F934C
:10456000CF93DF93EC0161115DC08981882309F449
:1045700059C08D89811156C02D853E858A899B89B8
:10458000880F991F820F931FFC01859194910097CA
:10459000D1F48989813021F41B8A1A8AF90111C06A
:1045A0001982888160E0882331F0CE010E9479224F
:1045B0008A899B8925C0CE01DF91CF910F910C9400
:1045C000422285919491BC01769567957695679581
:1045D00080FF1DC0AC0176E0569547957A95E1F7CE
:1045E000292F26952695269520514F716F7000E052
:1045F000CE010E94F4218A899B8901969B8B8A8B2C
:10460000880F991FED85FE85E80FF91FDACF492F36
:104610006F7320E0CE010E9425228A899B89019632
:104620009B8B8A8BDF91CF910F91089560E00C9462
:10463000AF22CF93DF93EC016111B9C08F8988233A
:1046400009F4B5C08D89811105C0CE01DF91CF91EC
:104650000C94422281508D8B8DA1811138C08BA189
:104660009CA101969C01220F331FEF8DF8A1E20F50
:10467000F31F25913491422F47704EA3A90163E0A7
:10468000569547956A95E1F7BA0176956795232F78
:10469000269526952FA36F732C81629F602D112480
:1046A0006DA34170409371059CA38BA329A130E0B9
:1046B0008217930760F08AA1882329F0281B31090B
:1046C0003CA32BA304C060E0CE010E9442228DA136
:1046D00081508DA3288D2F5F288F4C893FA1340FE7
:1046E0008C85380F3A836B8D662361F070E0822FE2
:1046F000992787FD90950E94B0268C8D869F300D5E
:1047000011243A838A8190E0CB966BE370E00E949B
:10471000B0268A833E893B83698D662371F07727B3
:1047200067FD7095822F992787FD90950E94B0268E
:104730008A8D869F300D11243B836D8D662391F009
:10474000822F992787FD909570E00E94B026CB01BB
:1047500062E070E00E94B0262E8D9B81289F900D14
:1047600011249B838B814F3339F08A300CF089E020
:1047700087FD80E08B8301C01B82F894EA81F0E022
:10478000EA56FB4FE491E093740598A58D81989FBC
:10479000802D11249B81899F802D11249EA1899FAA
:1047A000802D112480937305809372057894DF9196
:1047B000CF91089560E00C941923609173056623EE
:1047C00029F1809176058F5F80937605909174052D
:1047D0008917E0F081E090917505911180E0809358
:1047E00075051092760580917105882369F0909186
:1047F0000B0183E4989F802D1124895B80930B012A
:104800000E949026909372050C94372208951F926F
:104810000F920FB60F9211242F933F934F935F93F4
:104820006F937F938F939F93AF93BF93EF93FF9378
:104830000E94DD23FF91EF91BF91AF919F918F91E6
:104840007F916F915F914F913F912F910F900FBE8C
:104850000F901F901895CF93DF93EC0160E00E94BA
:1048600053228FED94E09E878D871B8A1A8A81E000
:10487000898389E08E8B198E1B8E1D8EDF91CF91DF
:104880000895CF93DF93EC0160E00E94532287EDFF
:1048900094E09E878D871B8A1A8A81E0898389E04C
:1048A0008E8B198E1B8E1D8EDF91CF910895CF9325
:1048B000DF93EC0160E00E94532281ED94E09E873B
:1048C0008D871B8A1A8A81E0898389E08E8B198EF5
:1048D0001B8E1D8EDF91CF910895FC01862F9927A5
:1048E00087FD9095668170E06F5F7F4F0E94B026D4
:1048F0008583089521E0FC012083089570E085E020
:104900000C94D71FAF92BF92CF92DF92EF92FF929B
:104910000F931F93CF93DF93EC0189819A812FE04E
:10492000289F8001299F100D112485E10E94BA1F44
:10493000800F911F24E0969587952A95E1F79A8339
:1049400089832881222391F1AC81AD80B12CC12CC7
:10495000D12CE885F9857F0100E010E06E817F8130
:104960009B0140E050E08617970728F0BC01E8174C
:10497000F90708F4BF0180E090E01F921F921F9298
:10498000AF930E948C126B830F900F900F900F903B
:1049900070E085E0DF91CF911F910F91FF90EF9034
:1049A000DF90CF90BF90AF900C94D71FDF91CF9145
:1049B0001F910F91FF90EF90DF90CF90BF90AF903D
:1049C00008958F929F92AF92BF92CF92DF92EF9213
:1049D000FF92CF93DF93EC01688179818A819B817B
:1049E000611571058105910521F464E279ED8BE58E
:1049F00097E02DE133EF41E050E00E94E6264901C7
:104A00005A019B01AC01A7EAB1E40E946D266B013B
:104A10007C01ACEEB4EFA50194010E947B26C60E8A
:104A2000D71EE81EF91EF7FE06C081E0C81AD1089D
:104A3000E10880E8F80AC882D982EA82FB82C701CD
:104A4000B6019F77DF91CF91FF90EF90DF90CF90ED
:104A5000BF90AF909F908F9008950E94E124089599
:104A600080E091E00E94E12408956093000170933A
:104A7000010180930201909303010895F8940C942E
:104A80000B2798D088F09F5790F0B92F9927B751EE
:104A9000A0F0D1F0660F771F881F991F1AF0BA9502
:104AA000C9F712C0B13081F09FD0B1E008959CC029
:104AB000672F782F8827B85F39F0B93FCCF38695F8
:104AC00077956795B395D9F73EF490958095709555
:104AD00061957F4F8F4F9F4F0895E89409C097FBD2
:104AE0003EF490958095709561957F4F8F4F9F4FC5
:104AF0009923A9F0F92F96E9BB279395F695879509
:104B000077956795B795F111F8CFFAF4BB0F11F4CB
:104B100060FF1BC06F5F7F4F8F4F9F4F16C0882372
:104B200011F096E911C0772321F09EE8872F762FA8
:104B300005C0662371F096E8862F70E060E02AF0E9
:104B40009A95660F771F881FDAF7880F96958795D5
:104B500097F9089597F99F6780E870E060E00895FD
:104B60009FEF80EC089500240A9416161706180685
:104B70000906089500240A94121613061406050661
:104B80000895092E0394000C11F4882352F0BB0FF2
:104B900040F4BF2B11F460FF04C06F5F7F4F8F4F55
:104BA0009F4F089557FD9058440F551F59F05F3F90
:104BB00071F04795880F97FB991F61F09F3F79F03F
:104BC00087950895121613061406551FF2CF4695C1
:104BD000F1DF08C0161617061806991FF1CF869543
:104BE0007105610508940895E894BB276627772727
:104BF000CB0197F908950BD0C4CFB5DF28F0BADF09
:104C000018F0952309F0A6CFABCF1124EECFCADF61
:104C1000A0F3959FD1F3950F50E0551F629FF001CF
:104C2000729FBB27F00DB11D639FAA27F00DB11D28
:104C3000AA1F649F6627B00DA11D661F829F2227B1
:104C4000B00DA11D621F739FB00DA11D621F839F38
:104C5000A00D611D221F749F3327A00D611D231F0E
:104C6000849F600D211D822F762F6A2F11249F575C
:104C700050408AF0E1F088234AF0EE0FFF1FBB1F7F
:104C8000661F771F881F91505040A9F79E3F51051E
:104C900070F060CFAACF5F3FECF3983EDCF38695CF
:104CA00077956795B795F795E7959F5FC1F7FE2BC9
:104CB000880F911D9695879597F90895A29FB00149
:104CC000B39FC001A39F700D811D1124911DB29F40
:104CD000700D811D1124911D08950E945E26A59FCF
:104CE000900DB49F900DA49F800D911D11240895E7
:104CF000B7FF0C946D260E946D26821B930B0895BE
:104D0000DB018F939F930E946D26BF91AF91A29F6D
:104D1000800D911DA39F900DB29F900D11240895B9
:104D2000991B79E004C0991F961708F0961B881FFD
:104D30007A95C9F780950895AA1BBB1B51E107C05E
:104D4000AA1FBB1FA617B70710F0A61BB70B881F1B
:104D5000991F5A95A9F780959095BC01CD010895AA
:104D600097FB072E16F4009407D077FD09D00E9418
:104D70009C2607FC05D03EF4909581959F4F0895A1
:104D8000709561957F4F0895A1E21A2EAA1BBB1B57
:104D9000FD010DC0AA1FBB1FEE1FFF1FA217B30707
:104DA000E407F50720F0A21BB30BE40BF50B661F1D
:104DB000771F881F991F1A9469F7609570958095E1
:104DC00090959B01AC01BD01CF010895052E97FB85
:104DD0001EF400940E94FD2657FD07D00E94C426B1
:104DE00007FC03D04EF40C94FD2650954095309569
:104DF00021953F4F4F4F5F4F089590958095709547
:104E000061957F4F8F4F9F4F0895EE0FFF1F0590C5
:0A4E1000F491E02D0994F894FFCF0F
:104E1A00010000000100007C05800001202B2C3BD2
:104E2A005B3D5C5D222A3A3C3E3F7C0054484F522F
:104E3A004441522E44415400252000000000005DE8
:0A4E4A001870114C4F41444552000E
:00000001FF