:100000000C9486030C94AE030C94AE030C94AE03D4
:100010000C94AE030C94AE030C94AE030C94AE039C
:100020000C94AE030C94AE030C94AE030C946A0BC8
:100030000C94AE030C94AE030C94AE030C94AE037C
:100040000C94150B0C94AE030C94AE030C94AE03FD
:100050000C94AE030C94AE030C94AE030C94AE035C
:100060000C94AE030C94AE030101FF030101F703EE
:100070006C0068000500893008023802497868146D
:1000800000000500380168010000175344001613F2
:100090007800161314001510200015201000540AC3
:1000A00003E181867F3E186D830F0F0E018386600A
:1000B00033186DC3198F1803C38E6033186DE33086
:1000C000CF1803C39E603630CDE360CF3006C79EA5
:1000D0007E3E30CDB360CF300CC6F6603330D9B63B
:1000E00060CF33CFCCF66061B0DB1E60CF30D86C10
:1000F000E6C061B0DB1E618F19986CC6C063B19B0E
:100100000E330F0FB078C6FF7E1F1B061E0F402454
:100110000000000000000000FFFFFFFFFFFFFFFEE8
:1001200080000000000000029F4A5973DCE391F256
:100130009F4A5D4A129451F2847A554BD2945042B0
:10014000847A554A1CE45042844A554A1E945042CF
:10015000844BD74A12945042844BD373D2E39E42CD
:100160008000000000000002FFFFFFFFFFFFFFFE16
:1001700000000008000000407991E01010004040AD
:1001800043D10010200020804251001020007F0049
:1001900043D1000C1001C0007A5DE803EC030000BD
:1001A0000000000007FC0000000000000C18000028
:1001B0000000000038300000000000006020000057
:1001C00000000000C01C0000000000003806000015
:1001D000000000000E0380000000000003804000CB
:1001E0000000000000C040000000000000C38000CC
:1001F000000000000386000000000000063C000034
:10020000000000000DE00000000000003B003FFF88
:10021000200B80007C00266955550000F00035ADAC
:1002200053890001C000326D0000000000003FFF54
:100230000000000000240027002A00000000002524
:100240000028002B004024000000000000000000F7
:10025000000000000000000000000000000000009E
:10026000000000000000000000000000000000008E
:10027000000000000000000000000000000000007E
:10028000000000000000000000000000000000006E
:10029000000000000000000000000000000000005E
:1002A000000000000000000000000000000000004E
:1002B000000000000000000000000000000000003E
:1002C000000000000000000003C240000000000029
:1002D00007E6E000000000000C6FE00000000000F6
:1002E000FC6FE00000000001FC7B600000000001EA
:1002F0008FDB60C0000000018F9B60C00000000128
:10030000F81861C00000001CF81861800000003E71
:1003100000007B8000000077E00007000000006321
:10032000F0000F000000006330000C000000007FB0
:10033000300030000000007F300070000000007FBF
:10034000F000600000000063F000000000000060AA
:10035000300000000000000000000000000000006D
:100360000000000000000040240000000000000029
:10037000000000000000000000000000000000007D
:10038000000000000000000000000000000000006D
:10039000000003E000000000000007F00000000083
:1003A00000003FFE0000000000007FFF0000000092
:1003B0000000FFFF800000000001FFFFC000000000
:1003C000000FFFFFC0000000001FFBF7F800000057
:1003D000003FFFFFFC000000006FFFFFF600000081
:1003E00000DFFFFFFA00000000DFFBF7FA0000006B
:1003F000006FFC0FF6000000003FFFFFFC00000054
:100400000007FFFFE000000000001FFC08000000E4
:1004100000020C124000000000004608100000001E
:10042000000003048000000000002982000000009A
:100430000002008100000000000001020000000036
:100440000000020400000000000006080000000098
:100450000000031000000000000001880000000000
:10046000000000C400000000000000620000000066
:1004700000000032000000000000001A0000000030
:100480000000000C0000000000450068010000F6BC
:10049000E8DBCFC3B8AEA49B928A827B746E68629D
:1004A0005C57524E4945413E3A3734312E2C29276C
:1004B0002523210A0A153A49676E6F7265006D5649
:1004C0000A0A504C45415345205455524E204F4640
:1004D0004620004C4F572042415454455259212048
:1004E0000003053F213F1208120A100A0E1C0E0CD1
:1004F0001E0C141A14161F161E131E1E1B1E1E1F62
:100500001E3F213F3A2F3A173D173F213F181F0248
:10051000040A041F0E04040E1F0A1F0A0E0E1F04F5
:10052000110E2E252E2F2A2E262929021F02081FE2
:1005300008150E04040E150E15151B151B040604D4
:10054000040C040000000017000300031F0A1F161C
:10055000371A1904130A153A000300000E11110E80
:10056000000A040A040E0400300004040400100011
:100570001804031F111F121F101D151711151F0737
:10058000041F17151D1F151D01011F1F151F17150E
:100590001F000A00003200040A110A0A0A110A04A4
:1005A0000115020E11171E051E1F150A0E110A1F36
:1005B000110E1F15111F05010E111D1F041F111F04
:1005C0001108100F1F041B1F10101F061F1E040F01
:1005D0000E110E1F09060E112E1F051A1215090104
:1005E0001F011F101F0F180F1F0C1F1B041B031CC4
:1005F00003191513001F11030418111F0002010233
:100600002020200001020C121E1F120C0C12120CD2
:10061000121F0C1A14041E05242A1E1F021C141D6E
:100620001020201D1F0814111F101E041E1E021C66
:100630000C120C3E0A040C123E1E040214160A028E
:100640000F120E101E0E100E1E081E120C1226285F
:100650001E322A26041E21001F00211E0401020151
:100660003F213F172B152010204C4F41444552008D
:10067000172B16201314000A4E6F20534420636179
:100680007264206F720A6E6F204C4F414445522EA7
:100690004845580A0A153A45786974001D20466C89
:1006A000617368696E670A20206C6F616465722EE1
:1006B0002E2E0A0A444F4E2754205455524E204F96
:1006C0004646210000000000230026002900040403
:1006D00004040404040402020202020203030303EA
:1006E00003030102040810204080010204081020C6
:1006F00001020408102000000008000201000003AD
:10070000040700000000000000000F1711241FBEA6
:10071000CFEFD8E0DEBFCDBF11E0A0E0B1E0E2E175
:10072000F4E302C005900D92AA35B107D9F724E091
:10073000AAE5B1E001C01D92A331B207E1F713E0D1
:10074000C6E8D3E004C02197FE010E945E17C538B9
:10075000D107C9F70E94C0140C94071A0C9400002A
:10076000CF92DF92EF92FF920F931F93CF93DF937D
:100770006C017A018B01C0E0D0E0CE15DF0589F075
:10078000D8016D918D01D601ED91FC910190F08120
:10079000E02DC6010995892B11F47E0102C0219636
:1007A000ECCFC701DF91CF911F910F91FF90EF9098
:1007B000DF90CF9008954F925F926F927F928F92C9
:1007C0009F92AF92BF92CF92DF92EF92FF920F93E0
:1007D0001F93CF93DF93F901C49031965491EC01AC
:1007E00008A164350CF018C10C2C000CDD08A62FF4
:1007F000062E000CBB0B7D01EC0CFD1C1E141F040F
:100800000CF00AC140330CF007C1A52E842E042E33
:10081000000C9908F401E50FF11D57FDFA951E161D
:100820001F060CF0F9C02E5F3F4FE6012796D7FD5B
:10083000279673E0D595C7957A95E1F747FF0AC0EB
:10084000A52EA40EC89DA001C99D500D1124241BE6
:10085000350B40E0EA2D0A2C000CFF0BE40FF11DD4
:1008600047FDFA95F1971CF050E3A52EA41A67FDF9
:1008700060E0F701E535F10514F0E4E5F0E07E2FE6
:10088000FC01D484D426862F062E000C990BFC0183
:10089000EA1BFB0BDF017F01F7E0EF22FF24E0E81A
:1008A000F0E002C0F595E795EA94E2F71E2FB7FD58
:1008B000179653E0B595A7955A95E1F72A0F3B1F78
:1008C000E42FE77051E001C0550FEA95EAF745952E
:1008D00045954595B4E54B02800D911D1124875730
:1008E0009E4FC12C0A2C000CBB08992493942E0116
:1008F0005524EC2DF0E0EA15FB050CF08DC0F90154
:1009000044910130E1F47C01A12F862E881AB82D84
:10091000BE0DB71708F077C0B42FBA2321F0E70156
:10092000B881B52BB883B0E0B595A795109719F4A9
:1009300031964491A0E8DFEFED1AFD0AE8CF0111EE
:100940001FC0752E70947C01A12FF901862E881A84
:10095000B82DBE0DB71708F056C0B42FBA2321F03A
:10096000E701B881B721B883B0E0B595A795109796
:1009700019F431964491A0E8DFEFED1AFD0AE8CFB3
:10098000033031F07C01A12FF901862E881A37C07F
:10099000752E7094862E7C01A12FF9018716D8F44C
:1009A000B42FBA2359F0E701B881682C6D2460FE9A
:1009B00002C0B52B02C0B721E701B883B0E0B595FE
:1009C000A795109719F431964491A0E88394DFEF2E
:1009D000ED1AFD0AE3CFD92416C0B42FBA2321F0B3
:1009E000E701B881B527B883B0E0B595A795109712
:1009F00019F431964491A0E8DFEFED1AFD0AB82D05
:100A0000BE0DB71750F3550F19F48C5A9F4F51E094
:100A1000C394240D351D6DCFDF91CF911F910F91A0
:100A2000FF90EF90DF90CF90BF90AF909F908F900E
:100A30007F906F905F904F9008950E94A719DC01FE
:100A4000ED91FC910190F081E02D09946115710503
:100A500079F0FB0101900020E9F73197AF01461BC7
:100A6000570BDC01ED91FC910280F381E02D09949C
:100A700080E090E00895BC018AED93E00C94260597
:100A80004F925F926F927F92EF92FF920F931F931C
:100A9000CF93DF93CDB7DEB7A1970FB6F894DEBF43
:100AA0000FBECDBF7C01FA01CB0119A2223008F4A0
:100AB0002AE08E010F5D1F4F422E512C612C712CAC
:100AC000BF01A30192010E94D619F901CA01015088
:100AD00011096A3014F4605D01C0695CD8016C933F
:100AE000232B242B252B61F7B801C7010E94260573
:100AF000A1960FB6F894DEBF0FBECDBFDF91CF91A8
:100B00001F910F91FF90EF907F906F905F904F90AB
:100B100008954F925F926F927F928F929F92AF92C1
:100B2000BF92CF92DF92EF92FF926B017C01B42EC5
:100B30009B01AC010E94A219882319F063E171E0C6
:100B400027C026013701E89477F82FEF3FEF4FE7F2
:100B50005FE7C301B2010E94A21981110DC02FEFFE
:100B60003FEF4FE75FE7C301B2010E94D1171816AC
:100B70001CF467E171E00CC02FEF3FEF4FE75FE43B
:100B8000C701B6010E943019181694F46BE171E0A8
:100B90008AED93E0FF90EF90DF90CF90BF90AF9001
:100BA0009F908F907F906F905F904F900C94260550
:100BB0002FEF3FEF4FE75FECC701B6010E94D1175F
:100BC00087FDE4CF20E030E0A901C701B6010E9413
:100BD000D11787FF0BC06DE28AED93E00E941F05DD
:100BE0004C01F7FAF094F7F8F09402C0812C912CA4
:100BF000A12C60E070E080E09FE3AB1441F020E0C6
:100C000030E040E251E40E94D617A394F6CF9B0156
:100C1000AC01C701B6010E9465172B013C010E947F
:100C20004F186B017C010E947E189B01AC01C3012F
:100C3000B2010E9464172B013C012AE0B701A60112
:100C40008AED93E00E9440057C01E80CF91CBB2072
:100C500039F06EE28AED93E00E941F05E80EF91E5E
:100C6000DB2CDD2031F120E030E040E251E4C30133
:100C7000B2010E9435192B013C010E944F184B0113
:100C8000A12CB12C2AE0B501A4018AED93E00E94C9
:100C90004005E80EF91EC501B4010E947E189B01B3
:100CA000AC01C301B2010E9464172B013C01DA942C
:100CB000D8CFC701FF90EF90DF90CF90BF90AF905B
:100CC0009F908F907F906F905F904F9008958330AA
:100CD00081F028F4813099F08230A1F008958730B6
:100CE000A9F08830B9F08430D1F4809180008F7DF4
:100CF00003C0809180008F7780938000089584B531
:100D00008F7702C084B58F7D84BD08958091B00037
:100D10008F7703C08091B0008F7D8093B0000895DD
:100D20001F93CF93DF93282F30E0F901EA50F94F5A
:100D30008491F901EE51F94FD491F901E253F94F41
:100D4000C491CC23C9F0162F81110E946706EC2FA5
:100D5000F0E0EE0FFF1FE55CFD4FA591B4918FB75A
:100D6000F894111105C09C91ED2FE095E92302C084
:100D7000EC91ED2BEC938FBFDF91CF911F910895F4
:100D8000CF93DF9390E0FC01EE51F94F2491FC01E9
:100D9000E253F94F8491882361F190E0880F991F05
:100DA000FC01EF5CFD4FC591D491FC01E55CFD4F6A
:100DB000A591B491611109C09FB7F89488812095DD
:100DC00082238883EC912E230BC0623061F49FB79D
:100DD000F8943881822F809583238883EC912E2B81
:100DE0002C939FBF06C08FB7F894E8812E2B2883E1
:100DF0008FBFDF91CF9108951F93CF93DF93182F6B
:100E0000EB0161E00E94C006209711F460E004C08D
:100E1000CF3FD10539F461E0812FDF91CF911F9150
:100E20000C949006E12FF0E0EA50F94FE491E330A2
:100E3000F9F048F4E130B9F0E230A1F584B5806210
:100E400084BDC8BD34C0E730E9F0E83019F1E430C2
:100E500049F580918000806280938000D0938B0060
:100E6000C0938A0024C084B5806884BDC7BD1FC0FC
:100E700080918000806880938000D0938900C09327
:100E8000880015C08091B00080688093B000C09346
:100E9000B3000DC08091B00080628093B000C09319
:100EA000B40005C0C038D1050CF0B5CFAFCFDF918D
:100EB000CF911F9108958E3008F08E508770806416
:100EC00080937C0080917A00806480937A00809186
:100ED0007A0086FDFCCF809178002091790090E027
:100EE000922B08953FB7F89480915D0190915E0137
:100EF000A0915F01B091600126B5A89B05C02F3F6E
:100F000019F00196A11DB11D3FBFBA2FA92F982F2F
:100F10008827820F911DA11DB11DBC01CD0142E0AA
:100F2000660F771F881F991F4A95D1F708958F92F2
:100F30009F92AF92BF92CF92DF92EF92FF926B019E
:100F40007C010E9472074B015C01C114D104E104D1
:100F5000F104F1F00E947207DC01CB0188199909B4
:100F6000AA09BB09883E9340A105B10570F321E0B1
:100F7000C21AD108E108F10888EE880E83E0981EB5
:100F8000A11CB11CC114D104E104F10419F7DDCF97
:100F9000FF90EF90DF90CF90BF90AF909F908F9099
:100FA00008958F929F92AF92BF92CF92DF92EF926D
:100FB000FF920F931F93CF93DF9382E380930B04F1
:100FC00081E090E0A0E0B0E08093070490930804F3
:100FD000A0930904B0930A048FEF8093FC03E0E828
:100FE000F7E7259134912130304C09F049C0E6E90A
:100FF000F7E7E491E093E503E7E9F7E7E491E093AD
:101000009003E8E9F7E7E491E0939103E9E9F7E772
:10101000859194919093930380939203EBE9F7E782
:1010200085919491909395038093940387E08093A6
:10103000B703EEE9F7E7E491E093B603EFE9F7E7EA
:10104000E491E093FC03E0EAF7E7859194919093B3
:10105000A9038093A803E2EAF7E78591949190931E
:10106000AB038093AA03E4EAF7E785919491909308
:10107000AD038093AC03E6EAF7E7859194912CC029
:101080009CE39093E503109290038093910380E298
:1010900093E0909393038093920384ED93E0909375
:1010A00095038093940387E08093B7038093B603FE
:1010B0008CEA9DE09093A9038093A8038EED9DE0B8
:1010C0009093AB038093AA0384E79EE09093AD03D3
:1010D0008093AC038CE39FE09093AF038093AE03C7
:1010E000C1E0C0938C036FEF70E085E00E94FC06C6
:1010F00088E08093960389E08093970387E080934C
:10110000980386E080939903D4E0D0939A0382E019
:1011100080939B0381E180939C030E94E4118CE304
:101120009FE09093A7038093A603D093A503C09359
:10113000B0038BE08093E8038DE08093E70380E1C8
:101140008093E9038EE08093EB038FE08093EA03C2
:10115000C093E203C093FA031092FB03C093E10330
:10116000E1EEF4E0E491EF5FE093DE03E2EEF4E021
:10117000E491EF5FE093DF0383EE94E09093F90353
:101180008093F803CFB7F89480915A01811127C05A
:10119000E8EDF6E08491ECEEF6E09491E82FF0E0D3
:1011A000EE0FFF1FEF5CFD4FA591B491EC91E92389
:1011B00021F461E08AE00E94900661E08AE00E94EA
:1011C000C0068CB580618CBD8CB580648CBD61E03F
:1011D0008DE00E94C00661E08BE00E94C006809115
:1011E0005A018F5F80935A01CFBF8CB58F7D8CBD24
:1011F0008CB58C7F81608CBD8DB581608DBD8CB5CB
:101200008C608CBD61E08091E8030E94C00661E0C3
:101210008091E7030E94C00661E08091E9030E948B
:10122000C0068091EB0318161CF461E00E94C00612
:101230008091EA0318161CF461E00E94C0068091B8
:10124000EB03181674F460E00E9490066AE070E008
:1012500080E090E00E94970761E08091EB030E949C
:1012600090068091E703082E000C990BFC01E253D5
:10127000F94FE491F0E0EE0FFF1FE55CFD4F259183
:1012800034913093EF032093EE03FC01EE51F94FBC
:10129000E491E093F5038091E803082E000C990B8C
:1012A000FC01E253F94FE491F0E0EE0FFF1FE55C23
:1012B000FD4F259134913093ED032093EC03FC0115
:1012C000EE51F94FE491E093F4038091EA03082E84
:1012D000000C990BFC01E253F94FE491F0E0EE0FA2
:1012E000FF1FE55CFD4F259134913093F10320936E
:1012F000F003FC01EE51F94FE491E093F603809185
:10130000E903082E000C990BFC01E253F94FE4911C
:10131000F0E0EE0FFF1FE55CFD4F25913491309317
:10132000F3032093F203FC01EE51F94FE491E093B3
:10133000F70381E20E94381284E10E943812809102
:10134000E50387FF03C08FE78093E5038091E50302
:1013500080680E94381280E20E9438128CE00E945D
:1013600038120E945712C1E0C093B50384E0809305
:10137000D90380E790E09093C1038093C00360E0BD
:1013800080E00E94671361E070E083E00E94FC0649
:101390008091B100887F81608093B100F8941092B1
:1013A000800010928100109285001092840088E1E4
:1013B00091E09093890080938800809181008860FB
:1013C0008093810080918100816080938100809171
:1013D0006F00826080936F0078940E9483148091E4
:1013E000A203813019F41092B6031CC08091A503AA
:1013F0008823C9F380E00E94CD1184E790E09093A8
:10140000BF038093BE031092C4031092C303C09322
:10141000B20389E08093C7031092CA031092CC03F1
:101420001092CE038091FC03882309F4E7C081E089
:101430008093E2031092E1031092E0031092A40360
:101440008093FA038093FB03C0E3D2E08CE0F82E94
:1014500009E814E0EE24E39499E0D92E0E94480DA7
:101460008823E1F3FE018491882319F0C090DF0303
:1014700001C0C12C2EE930E040E060E08AED93E04D
:101480000E94DB034CE04C0D2EE031E060E08AED81
:1014900093E00E94DB031092E303F092E40380E305
:1014A00092E00E9497128091DE03982F990F890F86
:1014B00081958D5A8093E3038091DF03982F990FD4
:1014C000890F8195835D8093E4038091FD0384FF00
:1014D00003C08AE990E002C086E990E00E94B81259
:1014E0008091DE03982F990F890F81958D5A8093F3
:1014F000E3038091E4038F5F8093E4038091B6035C
:10150000882319F082E990E002C08EE890E00E9402
:10151000B8128091DE03982F990F890F81958D5A0B
:101520008093E3038091E4038F5F8093E4038AE870
:1015300090E00E94B8128091A203813039F5809129
:10154000B6038F5F6091B70387FD09C0082E000CBA
:10155000990B70E06F5F7F4F0E943617682F609382
:10156000B60380E00E94CD111093BF030093BE0329
:101570001092C4031092C303E092B203D092C70347
:101580001092CA031092CC031092CE038091A10353
:101590008130A9F08091FC03482F50E060E070E0BA
:1015A0008090FD039090FE03A090FF03B090000494
:1015B00084169506A606B70680F18F3F71F18FEF6E
:1015C0008093FC0380E00E94CD1180E00E94CD1149
:1015D00082E890E09093BF038093BE031092C4030F
:1015E0001092C30381E08093B20389E08093C70324
:1015F0001092CA031092CC031092CE031092A4034F
:10160000DF91CF911F910F91FF90EF90DF90CF90DE
:10161000BF90AF909F908F9008958091A3038130E9
:1016200009F01CCF0E94C81219CF1F920F920FB65B
:101630000F9211242F933F938F939F93AF93BF9358
:101640008091850190918601A0918701B0918801D8
:1016500030915C0123E0230F2D3720F40196A11D6A
:10166000B11D05C026E8230F0296A11DB11D2093D0
:101670005C018093850190938601A0938701B093CC
:10168000880180915D0190915E01A0915F01B09110
:1016900060010196A11DB11D80935D0190935E01D3
:1016A000A0935F01B0936001BF91AF919F918F9123
:1016B0003F912F910F900FBE0F901F901895809122
:1016C0008903882319F080918B0301C080E0809307
:1016D000B40008951F920F920FB60F9211242F930A
:1016E0003F934F935F936F937F938F939F93AF93AA
:1016F000BF93EF93FF9360918A03662321F180915A
:101700005B018F5F80935B01909183018917D8F013
:101710009091890381E089278093890310925B016E
:1017200080918401882369F08091000193E4899F6E
:10173000802D1124895B809300010E942A179093C9
:101740008B030E945F0BFF91EF91BF91AF919F912F
:101750008F917F916F915F914F913F912F910F905A
:101760000FBE0F901F901895FC01643508F053C010
:10177000403308F050C090A1742F759575957595FC
:10178000262F062E000C330B542F57709230A1F4E5
:10179000F901E757FE4F84E57802E00DF11D1124B1
:1017A000808190E0052E02C0959587950A94E2F716
:1017B0008095982F91700AC0933041F48485817090
:1017C000462740954170841303C014C0911112C084
:1017D00084E57802200D311D1124F901E757FE4FF1
:1017E00081E090E001C0880F5A95EAF780959081DA
:1017F000892310C084E57802200D311D1124F901E0
:10180000E757FE4F81E090E001C0880F5A95EAF754
:101810009081892B80830895DF92EF92FF920F933E
:101820001F93CF93DF931F92CDB7DEB78C01D62ED7
:10183000F42EE12CE21654F46E2D6D0D4F2DC801DF
:1018400029830E94B40BE3942981F4CF0F90DF9198
:10185000CF911F910F91FF90EF90DF9008952F92FD
:101860003F924F925F926F927F928F929F92AF9230
:10187000BF92CF92DF92EF92FF920F931F93CF937D
:10188000DF93EC016A3019F42D819885C3C06D3067
:1018900009F4C6C038847A84D98448A083E58D15BC
:1018A0000CF4A1C08FE287150CF49DC08C8190E0F0
:1018B0000197389E9001399E300D1124C9018D0D7C
:1018C000911DD7FC9A95181619060CF08CC08D81C5
:1018D000839DC0011124870D911D77FC9A951816E0
:1018E00019060CF080C05D2CCD2CE62EF12CA32C1B
:1018F000032C000CBB08EC2DED190E2E000CFF0B79
:101900008C8190E0E817F9070CF06CC00197E8179C
:10191000F90779F0E89E9001E99E300DF89E300DB0
:101920001124E20FF31F8E8D9F8DE80FF91F149184
:1019300001C010E0072D672C262D2719022E000C60
:10194000330B8D8190E0281739070CF048C010FF49
:101950001EC081E0381206C0462D6C2DCE010E94BB
:10196000B40B39C0202E4501800E911C07FD9A94BE
:10197000822D022C000C990B8815990564F5232DF6
:10198000422D652DCE010E940C0C2394F1CF89A12C
:1019900098A1891701F188A381E0381206C0462D6D
:1019A0006C2DCE010E94B40B15C0202E4501800E77
:1019B000911C07FD9A94822D022C000C990B88151E
:1019C000990544F4232D422D652DCE010E940C0C67
:1019D0002394F1CF48A216956394030DADCFC39421
:1019E000530C89CF48A228853C818985329F800D80
:1019F000112489879F81992399F0082E000C990B57
:101A000044E550E0239F4019510911244817590714
:101A10003CF49D818A85299F800D11248A8719862F
:101A200081E090E0DF91CF911F910F91FF90EF90B7
:101A3000DF90CF90BF90AF909F908F907F906F90EE
:101A40005F904F903F902F900895DF92EF92FF921A
:101A50000F931F93CF93DF931F92CDB7DEB78C0107
:101A6000D62EF42EE12CE21654F44E2D4F0D6D2D92
:101A7000C80129830E94B40BE3942981F4CF0F900D
:101A8000DF91CF911F910F91FF90EF90DF9008951C
:101A90004F925F926F927F928F929F92AF92BF927E
:101AA000CF92DF92EF92FF920F931F93CF93DF932A
:101AB00000D000D01F92CDB7DEB740910C045091FA
:101AC0000D0460910E0470910F042FB7F89480916B
:101AD000850190918601A0918701B09188012FBF67
:101AE000481B590B6A0B7B0B80910B0490E0A0E024
:101AF000B0E000910704109108042091090430918E
:101B00000A0484179507A607B70730F401151105D5
:101B10002105310509F04AC3012B022B032B09F0E3
:101B200043C38091A30381508E3FC0F58091A203EF
:101B30008130C9F58091B6038F5F6091B70387FD4F
:101B400009C0082E000C990B70E06F5F7F4F0E9458
:101B50003617682F6093B60380E796E090931104E0
:101B60008093100488E48093120480E00E94CD11D9
:101B700089E894E09093BF038093BE031092C4035E
:101B80001092C30381E08093B20389E08093C7037E
:101B90001092CA031092CC031092CE038091A3033B
:101BA00081508E3F70F48091A103813009F0AAC367
:101BB00083E696E0909311048093100488E4809368
:101BC000120480E00E94FD128091B203882309F480
:101BD000ABC08091C6038111A7C08091BE039091D4
:101BE000BF03E091C303F091C403EE0FFF1FE80FA2
:101BF000F91F4591549141155105F1F42091C2030B
:101C0000222331F01092C4031092C303FC0112C0CE
:101C10001092B2038091B103882341F080E00E94CA
:101C2000FD12E091C303F091C4032DC080E00E9437
:101C3000B8117AC0459154919A01369527953695F9
:101C4000279540FF51C0CA01B6E096958795BA9591
:101C5000E1F78F71952F96959695969590512F70E7
:101C6000223071F1F8F4211117C08B3008F08AE0AE
:101C70008093C703E091C303F091C4033196F093BE
:101C8000C403E093C303EE0FFF1F8091BE03909146
:101C9000BF03E80FF91FCECF213061F760E00E944B
:101CA0006713E8CF2330B1F0243021F72091B5033A
:101CB000829F802D11248093CE039093CF03DACF9F
:101CC0002091B503829F802D11248093CA039093A5
:101CD000CB03D0CF2091B503829F802D1124809318
:101CE000CC039093CD03C6CF2F732093C50380916F
:101CF000B503859F802D11248093C6031092D603CF
:101D00001092D5031092D40381E08093C80380938E
:101D100089031092C9038091C3039091C403019673
:101D20009093C4038093C3038091C803882309F46C
:101D3000EEC08091C603811103C00E94B811E7C0B4
:101D400081508093C6038091D603811146C02091B3
:101D5000D4033091D5032F5F3F4FC901880F991FDE
:101D6000E091D003F091D103E80FF91F65917491D0
:101D7000862F87708093D703AB0163E05695479514
:101D80006A95E1F7CA0196958795972F969596954E
:101D90009093D8038F739091B503899F802D112460
:101DA0008093D6034170409384013093D5032093F0
:101DB000D4038091D20390E02817390770F0209166
:101DC000D303222339F0821B91099093D50380938A
:101DD000D40303C080E00E94B8118091D6038150E3
:101DE0008093D6038091C90321E0280F2093C90373
:101DF0004091C5033091D803340F8091BD03380F53
:101E00003093B3036091CC03662371F070E0822FAE
:101E1000022E000C990B0E9436178091CD03869FED
:101E2000300D11243093B3038091B30390E0849676
:101E300064E270E00E9436178093B3033091C703C9
:101E40003093B4036091CA03662381F0062E000C20
:101E5000770B822F022E000C990B0E94361780916F
:101E6000CB03869F300D11243093B4036091CE03D1
:101E70006623A1F0822F220F990B70E00E94361783
:101E8000CB0162E070E00E9436172091CF03909161
:101E9000B403289F900D11249093B4038091B40350
:101EA0004F3341F08A300CF089E087FD80E0809369
:101EB000B40302C01092B403F894E091B303F0E0CD
:101EC000E157FB4FE491E09383013091B4032091FB
:101ED000D9033203900111244091D7034203C0017A
:101EE000439F900D11240090B60302C0880F991FE4
:101EF0000A94E2F797FF02C081589F4F880F892FFD
:101F0000881F990B80938A0380938B037894809128
:101F10001204882309F497C08C3020F49CE0D92E59
:101F2000D81A01C0D12C81E08093E2031092FA0309
:101F30001092FB031091DF0383E0810F3D2D311BD5
:101F4000335D032FE82E880FFF08E30EF11C37FDE9
:101F5000FA94802F002E000C990B8E159F055CF4CF
:101F60002EE4402F63E08AED93E03D830E940C0C49
:101F70000F5F3D81EECF145003E0030F212F41E0AE
:101F8000602F80E50E942014212F42E0602F83E023
:101F90000E94201481E08093FA038093FB03009158
:101FA000DF038D2D801B3DE2F32EF80E2EE44F2D26
:101FB00063E08AED93E00E940C0C13E0100F1F0DFC
:101FC0004FEF410F2EE463E08AED93E00E940C0C8A
:101FD000035033E0F30E202F4F2D60E08AED93E0A5
:101FE0000E94250D202F4F2D63E58AED93E00E947E
:101FF000250D41E06F2D83E00E94A21342E06F2D7A
:1020000080E50E94A213145044E0612F80E50E94F5
:10201000A21348E0612F83E00E94A21384E0809322
:10202000E3038091DF03D81A8D2D815D8093E40353
:1020300080911004909111040E94971280911204D3
:102040008150809312048091A8039091A903892B59
:1020500009F482C011E01093FA031092FB039091EF
:10206000DE0385E5891B8093E3031092E40360910E
:10207000A503613009F451C030F08091A4036530AC
:1020800008F063C05EC080E00E94CD111093E203AF
:10209000E1EEF4E0E491EF5FE093DE03E2EEF4E0E2
:1020A000E491EF5FE093DF0383EE94E09093F90314
:1020B0008093F8031092A9031092A8031092E003F2
:1020C00018EA0E94480D8823E1F383ED94E00E9412
:1020D00097124091A6035091A70360E070E02AE0B8
:1020E0008AED93E00E9440058EEB94E00E949712E7
:1020F000412F42954F7050E060E070E02AE08AED99
:1021000093E00E94400583EB94E00E949712809137
:10211000A103813009F0FCC01FC08091FD039091A4
:10212000FE03A091FF03B09100048F709927AA27A6
:10213000BB270897A105B10510F467E009C068E75F
:1021400007C0882349F06B5F03C0882329F06FE242
:102150008AED93E00E941F050E9457128091E003D0
:1021600081110EC088EF91E0E9E8F1E0DF019C0108
:102170001D9221503040E1F71092E3031092E403E6
:102180000E94720760930704709308048093090407
:1021900090930A042091030430910404621B730B92
:1021A000709302046093010480E0CCC02FB7F894D0
:1021B0008091850190918601A0918701B09188015D
:1021C0002FBF20910B04820F911DA11DB11D809383
:1021D0000C0490930D04A0930E04B0930F0480910F
:1021E000FD039091FE03A091FF03B09100040196BE
:1021F000A11DB11D8093FD039093FE03A093FF03E7
:10220000B09300041092070410920804109209047D
:1022100010920A040E9472076093030470930404EE
:10222000809305049093060480918D0390918E0312
:102230002FE0289F8001299F100D112485E10E9425
:102240005B07800F911F24E0969587952A95E1F70B
:1022500090938E0380938D0320918C03222309F4A5
:102260004BC060919003262F30E040E050E029837E
:102270003A834B835C83C0909103D12CE12CF12CE9
:1022800040919403509195034A01A12CB12C2091C7
:102290009203309193032901612C712C82179307CB
:1022A00028F09C014817590708F49A01C901A0E0D9
:1022B000B0E09C01AD01241935094609570969812F
:1022C0007A818B819C816C197D098E099F090E94FE
:1022D0001A17A501940124193509460957090E94C6
:1022E000AC19C20ED31EE41EF51EC0928F036C2DD6
:1022F00070E085E00E94FC060E94E4110E948314B5
:1023000081E020C0893209F05CCC0E94C81259CC0F
:10231000115009F0D6CE60E070E085E00E94FC0626
:1023200083B7817F846083BF83B7816083BF83B7B6
:10233000816083BF889583B78E7F83BF83B78E7F8D
:1023400083BFBFCE0F900F900F900F900F90DF9133
:10235000CF911F910F91FF90EF90DF90CF90BF90A2
:10236000AF909F908F907F906F905F904F90089567
:10237000811112C01092C8031092C6031092D503A7
:102380001092D4031092C90310928B0310928A0307
:10239000109289030C945F0B0895811114C0109260
:1023A000C8031092C6031092D5031092D403109262
:1023B000C90310928B0310928A03109289030E9422
:1023C0005F0B1092B2030895CF92DF92EF92FF92CB
:1023D0000F931F93CF93DF93C6E9D3E00DE913E08A
:1023E000FF24FA9497E0E92EE00E62E088810E94D3
:1023F000C006288130E0F901EA50F94F8491F901D3
:10240000EE51F94FC490F901E253F94FD490DD2019
:1024100071F081110E946706ED2DF0E0EE0FFF1FB5
:10242000EC53F94FA591B491EC91EC21B1F4F80182
:1024300080818F5F808360E088810E94C006219642
:102440000F5F1F4FE012D1CFDF91CF911F910F91FE
:10245000FF90EF90DF90CF900895F801808188235E
:1024600071F3F8018F3F11F41082E5CFF082E3CFD2
:10247000CF93C82FF89460E08091E9030E94900602
:102480008091EA0318161CF460E00E949006CEBD0D
:1024900000000DB407FEFDCF8EB58091EA0318163B
:1024A0001CF461E00E9490067894CF9108950F93F8
:1024B0001F93CF938091E6038F5F8093E60309E833
:1024C00011E0C0E08C2F80640E94381280E80E94E6
:1024D000381261E08091E9030E9490068091EA033E
:1024E00018161CF460E00E94900680E090E0F8016D
:1024F000E80FF91F20812EBD00000DB407FEFDCFAF
:102500002EB501968435910591F78091EA0318164E
:102510001CF461E00E949006CF5F0C5A1F4FC6303A
:1025200089F680E4CF911F910F910C9438120F938C
:102530001F93CF93DF938C01C0E0D0E0F801EC0F44
:10254000FD1F6491662371F0E091DA03F091DB03E3
:102550000190F081E02D8AED93E00995892B11F02F
:102560002196ECCFCE01DF91CF911F910F9108956D
:10257000CF93DF930E949712EC016FE471E08AED34
:1025800093E00E9426058C0F9D1FDF91CF91089547
:1025900088EF91E0E9E8F1E0DF019C011D92215014
:1025A0003040E1F71092E3031092E4038CE996E0E7
:1025B0000E9497120E9457128CB583608CBD8DB516
:1025C0008E7F8DBD82E591E0EEEFFFE309951092DD
:1025D000E00387E796E00E94B8120E9457120E941B
:1025E000E4118091A103813039F062E370E080E072
:1025F00090E00E949707F3CF0895AF92BF92CF92D9
:10260000DF92EF92FF920F931F93CF93DF93C82E29
:10261000D12CE601C457DC4F9DA1992309F44CC08D
:102620007E019FEFE91AF90AF70195A1911144C0C3
:102630009EA58601000F111F04571C4FF80134A5F9
:1026400025A5E32FF22FE90FF11DE90FF11D2591CB
:1026500034912F3FFFEF3F0711F41DA22DC039AB7E
:10266000F601EE0FFF1FEA56FC4F3327220F331FF0
:1026700005A0F6A1E02DE20FF31FA590B490811103
:1026800017C00E94CD11F801B3AAA2AAF601EE0F5D
:10269000FF1FE256FC4F16A215A281E0F70185A3A9
:1026A00089E08BAF1EAEFE017B9615A2329615A275
:1026B00029968DA18F5F8DA3DF91CF911F910F91EF
:1026C000FF90EF90DF90CF90BF90AF90089570E0B3
:1026D000DB01AA0FBB1FA457BC4FD4962C91D497F3
:1026E000D5969C91D597E22FF92FE80FF11DE80FB1
:1026F000F11D259134915F9696963C932E93959774
:10270000F901859194919091B503989F802D1124A2
:1027100064577C4FFB01B19685A3F901A591B49153
:102720004B2F50E0E82FF0E04E175F0720F4F9013F
:1027300025913491832FFB01B296899F802D11241E
:1027400085A30895AF92BF92CF92DF92EF92FF924E
:102750000F931F93CF93DF93182F062FC1E0D3E081
:102760008AEFD82E9EEFE92E842F8470C82E842FF6
:102770008270B82E842F8870A82E4170F42E8C2F72
:10278000880F8F5FE80ECC2081F04D2F400F6C2F0B
:10279000610F8AED93E00E94B40B4C2F400F6D2F18
:1027A000610F8AED93E00E94B40BBB2081F0402FB3
:1027B0004D1B6C2F610F8AED93E00E94B40B402FEC
:1027C0004C1B6D2F610F8AED93E00E94B40BAA2081
:1027D00081F04C2F400F612F6D1B8AED93E00E941A
:1027E000B40B4D2F400F612F6C1B8AED93E00E94BC
:1027F000B40BFF2081F0402F4C1B612F6D1B8AED25
:1028000093E00E94B40B402F4D1B612F6C1B8AED8F
:1028100093E00E94B40BCD1744F4E7FC04C0D15000
:10282000D394D394ED0CCF5FAACFDF91CF911F91BA
:102830000F91FF90EF90DF90CF90BF90AF900895F1
:102840009F92AF92BF92CF92DF92EF92FF920F933F
:102850001F93CF93DF93F82EE62EB22E03E0020FE4
:10286000D0E0C3E08AEFC82E1EEF842F8170982E2F
:10287000AA24A394A20E4270D42EDF5F802F8B195E
:10288000180F9920A1F02C2F220F2A0D4E2D4C1B32
:102890006D2F6F0D8AED93E00E94250D202F4E2D98
:1028A0004D1B6C2F6F0D8AED93E00E94250DDD20EE
:1028B000A1F02C2F220F2A0D4E2D4C1B6F2D6D1BBE
:1028C0008AED93E00E94250D202F4E2D4D1B6F2D7C
:1028D0006C1B8AED93E00E94250DDC1744F417FD74
:1028E00004C0C150C394C3941C0D0E5FC6CFDF91CA
:1028F000CF911F910F91FF90EF90DF90CF90BF90FD
:10290000AF909F9008958091A8039091A903892B7F
:10291000B1F18091B0038F7169F584E10E945B078A
:10292000BC01990F880B990B0E94801826EE3FE39B
:102930004EEC50E40E9435190E944F189B01709391
:10294000A7036093A603672B91F084E08093A5030F
:10295000E8EAF3E080E0419151912417350718F43B
:102960008093A50308958F5F8430A9F703C08FEF8C
:102970008093A5038091B0038F5F8093B003089587
:10298000789484B5826084BD84B5816084BD85B54A
:10299000826085BD85B5816085BD80916E00816056
:1029A00080936E00109281008091810082608093FC
:1029B00081008091810081608093810080918000FE
:1029C0008160809380008091B10084608093B10029
:1029D0008091B00081608093B00080917A00846023
:1029E00080937A0080917A00826080937A0080914F
:1029F0007A00816080937A0080917A008068809369
:102A00007A001092C1000E94D10792E3292E20E0A3
:102A1000822E20E0922E33E0E32EF12C42E0C42EF1
:102A2000D12CAA24A394B12C8BE4382E0E94480DFB
:102A3000882309F456C18091A303813009F458C159
:102A40002BE246E061E08AED93E00E940C0C2BE261
:102A50004CE261E08AED93E00E940C0C27E246E034
:102A600061E08AED93E00E94250D27E246E06BE2EB
:102A70008AED93E00E94250DCCE246E26C2F8AEDB0
:102A800093E00E94B40BCF5FC535B9F78091810107
:102A900090918201892BB9F483E08093E3032AE0CB
:102AA0002093E4038FE191E00E943B0527E633E0A9
:102AB0004CE065E08AED93E00E94DB038091A10386
:102AC000813009F418C10091810110918201013017
:102AD000110509F057C083E08093E3034AE0409377
:102AE000E4038AE291E00E943B0525E432E047E0FE
:102AF00065E08AED93E00E94DB0320E030E040E8EF
:102B00005FE360917D0170917E0180917F019091E2
:102B100080010E9465172B013C0160937D01709339
:102B20007E0180937F01909380018091A203813088
:102B300049F5E6C0C230D1050CF025C1CD2B11F509
:102B400020E030E040EA51E4C301B2010E94D61710
:102B50002FE135E24AEA53E40E943519609371018E
:102B600070937201809373019093740110927D01B0
:102B700010927E0110927F011092800110937601D5
:102B80000093750152E05093E3031092E40320E0B8
:102B900030E040EA51E460917D0170917E018091C6
:102BA0007F01909180010E94D61742E00E94890522
:102BB00087E18093E30385E391E00E943B05209247
:102BC000E3031092E40360917101709172018091AE
:102BD00073019091740142E00E9489053092E303F1
:102BE00089E391E00E943B052092E3032AE02093D1
:102BF000E40360916D0170916E0180916F0190917D
:102C0000700142E00E9489053092E30389E391E07C
:102C10000E943B052092E30344E14093E40360916A
:102C20006701709168018091690190916A0142E0A9
:102C30000E9489053092E30389E391E00E943B05FD
:102C40002092E3035EE15093E4036091630170918D
:102C50006401809165019091660142E00E948905BE
:102C60003092E30389E391E00E943B0520917B01D0
:102C700030917C018091770190917801A901481BE6
:102C8000590BCA01509362014093610130937A015C
:102C9000209379015DE25093E30328E22093E4035B
:102CA0001816190654F480916B0190916C01892BD0
:102CB00021F08BE391E00E943B05809161019091AE
:102CC000620197FF0AC080916B0190916C01892B82
:102CD00021F085E491E00E943B0510926201109280
:102CE00061018114910409F4A1CE0E9400009CCEE0
:102CF0000E94D107A5CEB0928201A0928101E3CEBD
:102D00001092820110928101C301B2010E94481801
:102D100070937C0160937B018091790190917A019D
:102D20009093780180937701C0917501D0917601DD
:102D3000C130D10509F0FECE20E030E040EA51E498
:102D4000C301B2010E94D6172FE135E24AEA53E4EB
:102D50000E94351960936D0170936E0180936F012D
:102D60009093700110927D0110927E0110927F016C
:102D700010928001D0927601C0927501D0936C01BF
:102D8000C0936B01FFCEC230D10519F520E030E0D1
:102D900040EA51E4C301B2010E94D6172FE135E2A7
:102DA0004AEA53E40E943519609367017093680101
:102DB0008093690190936A0110927D0110927E01C7
:102DC00010927F0110928001F0927601E0927501DD
:102DD000D9CE239709F0D6CE20E030E040EA51E486
:102DE000C301B2010E94D6172FE135E24AEA53E44B
:102DF0000E943519609363017093640180936501AB
:102E00009093660110927D0110927E0110927F01D5
:102E1000109280011092760110927501B3CE10923B
:102E2000DD031092DC038FE091E09093DB0380934D
:102E3000DA030895DB018F939F930E94CB19BF9112
:102E4000AF91A29F800D911DA39F900DB29F900DF9
:102E500011240895991B79E004C0991F961708F072
:102E6000961B881F7A95C9F78095089597FB072EC2
:102E700016F4009407D077FD09D00E944A1707FC8A
:102E800005D03EF4909581959F4F0895709561957A
:102E90007F4F0895AA1BBB1B51E107C0AA1FBB1F90
:102EA000A617B70710F0A61BB70B881F991F5A95D6
:102EB000A9F780959095BC01CD010895EE0FFF1FF5
:102EC0000590F491E02D09945058BB27AA270E9441
:102ED0007C170C94F6180E94E81838F00E94EF183E
:102EE00020F039F49F3F19F426F40C94E5180EF401
:102EF000E095E7FB0C94DF18E92F0E94071958F3BF
:102F0000BA17620773078407950720F079F4A6F5CE
:102F10000C9429190EF4E0950B2EBA2FA02D0B015D
:102F2000B90190010C01CA01A0011124FF27591B0E
:102F300099F0593F50F4503E68F11A16F040A22F14
:102F4000232F342F4427585FF3CF46953795279585
:102F5000A795F0405395C9F77EF41F16BA0B620B84
:102F6000730B840BBAF09150A1F0FF0FBB1F661FCB
:102F7000771F881FC2F70EC0BA0F621F731F841F0E
:102F800048F4879577956795B795F7959E3F08F034
:102F9000B0CF9395880F08F09927EE0F97958795F6
:102FA00008950E94BB1808F481E008950E94EA1772
:102FB0000C94F6180E94EF1858F00E94E81840F0A0
:102FC00029F45F3F29F00C94DF1851110C942A1951
:102FD0000C94E5180E94071968F39923B1F355235F
:102FE00091F3951B550BBB27AA276217730784071C
:102FF00038F09F5F5F4F220F331F441FAA1FA9F3B2
:1030000035D00E2E3AF0E0E832D091505040E6959F
:10301000001CCAF72BD0FE2F29D0660F771F881F00
:10302000BB1F261737074807AB07B0E809F0BB0BF3
:10303000802DBF01FF2793585F4F3AF09E3F510507
:1030400078F00C94DF180C942A195F3FE4F3983E53
:10305000D4F3869577956795B795F7959F5FC9F7F0
:10306000880F911D9695879597F90895E1E0660F71
:10307000771F881FBB1F621773078407BA0720F0EA
:10308000621B730B840BBA0BEE1F88F7E095089553
:103090000E944F186894B1110C942A1908950E9447
:1030A0000F1988F09F5798F0B92F9927B751B0F0B2
:1030B000E1F0660F771F881F991F1AF0BA95C9F7BC
:1030C00014C0B13091F00E942919B1E008950C9418
:1030D0002919672F782F8827B85F39F0B93FCCF3CB
:1030E000869577956795B395D9F73EF49095809539
:1030F000709561957F4F8F4F9F4F0895E89409C059
:1031000097FB3EF490958095709561957F4F8F4F1A
:103110009F4F9923A9F0F92F96E9BB279395F69530
:10312000879577956795B795F111F8CFFAF4BB0FAE
:1031300011F460FF1BC06F5F7F4F8F4F9F4F16C012
:10314000882311F096E911C0772321F09EE8872F9C
:10315000762F05C0662371F096E8862F70E060E058
:103160002AF09A95660F771F881FDAF7880F9695D1
:10317000879597F90895990F0008550FAA0BE0E875
:10318000FEEF16161706E807F907C0F01216130629
:10319000E407F50798F0621B730B840B950B39F469
:1031A0000A2661F0232B242B252B21F408950A26CF
:1031B00009F4A140A6958FEF811D811D089597F90F
:1031C0009F6780E870E060E008959FEF80EC0895CD
:1031D00000240A94161617061806090608950024F6
:1031E0000A9412161306140605060895092E039470
:1031F000000C11F4882352F0BB0F40F4BF2B11F4E4
:1032000060FF04C06F5F7F4F8F4F9F4F089557FD42
:103210009058440F551F59F05F3F71F04795880F44
:1032200097FB991F61F09F3F79F0879508951216DB
:1032300013061406551FF2CF4695F1DF08C0161687
:1032400017061806991FF1CF869571056105089438
:103250000895E894BB2766277727CB0197F908954F
:103260000E94BB1808F48FEF08950E9448190C942F
:10327000F6180E94E81838F00E94EF1820F0952305
:1032800011F00C94DF180C94E51811240C942A19F1
:103290000E94071970F3959FC1F3950F50E0551FD9
:1032A000629FF001729FBB27F00DB11D639FAA279B
:1032B000F00DB11DAA1F649F6627B00DA11D661FEA
:1032C000829F2227B00DA11D621F739FB00DA11D0B
:1032D000621F839FA00D611D221F749F3327A00DC5
:1032E000611D231F849F600D211D822F762F6A2F61
:1032F00011249F5750409AF0F1F088234AF0EE0FC6
:10330000FF1FBB1F661F771F881F91505040A9F7F2
:103310009E3F510580F00C94DF180C942A195F3FF2
:10332000E4F3983ED4F3869577956795B795F7952E
:10333000E7959F5FC1F7FE2B880F911D96958795A6
:1033400097F908950E94BB18880B990B089581E0A6
:1033500090E0F8940C94071A052E97FB1EF4009445
:103360000E94C31957FD07D00E94D61907FC03D04D
:103370004EF40C94C31950954095309521953F4FCC
:103380004F4F5F4F089590958095709561957F4F51
:103390008F4F9F4F08950E94F819A59F900DB49FDD
:1033A000900DA49F800D911D11240895A1E21A2E65
:1033B000AA1BBB1BFD010DC0AA1FBB1FEE1FFF1FD9
:1033C000A217B307E407F50720F0A21BB30BE40B29
:1033D000F50B661F771F881F991F1A9469F7609570
:1033E0007095809590959B01AC01BD01CF0108952A
:1033F000A29FB001B39FC001A39F700D811D112436
:10340000911DB29F700D811D1124911D0895F89496
:02341000FFCFEC
:103412000100001304800001000000000000002FE2
:103422000CB0036E616E00696E66006F76660050C6
:103432007265737320412069660050726573732050
:103442004220696600536563006D005265636564DE
:10345200696E673E00417070726F6163683C000D77
:0A3462000A004C4F4144455200009F
:00000001FF
