:100000000C942D060C9455060C9455060C9455062C
:100010000C9455060C9455060C9455060C945506F4
:100020000C9455060C9455060C9455060C946F18B8
:100030000C9455060C9455060C9455060C945506D4
:100040000C941A180C9455060C9455060C945506ED
:100050000C9455060C9455060C9455060C945506B4
:100060000C9455060C9455060101FF030101F7039A
:10007000101000000060062A1A5EF7B4DFECCC1EF8
:100080006FE07F3C32861FB02E3C05F801A4114082
:10009000000010100000006006200240F780CE042F
:1000A000C8F865C07B0032C8130005C0009000800E
:1000B0000000000010100000000040004800800018
:1000C000D400A0001000C400400020000000000088
:1000D00000000000000010107F00FD80FF80FF8006
:1000E0002F803F8007C207E20FF30BFF03FF03FFE0
:1000F00003FE03FC02100630101000FE01BF01FFDA
:1001000001FF01F401FC43E047E0CFF0FFD0FFC066
:10011000FFC07FC03FC008400C6010107F00FD8012
:10012000FF80FF800F803F8007C107E11FF313FFAF
:1001300003FF03FF01FE01FC01100330101000FE5D
:1001400001BF01FF01FF01F001FC83E087E0CFF870
:10015000FFC8FFC0FFC07F803F80110019801010D2
:1001600000000000200202000020048000040002C1
:10017000202A04800116140008925601092A00045E
:1001800010100000000066002442346615A4156CAF
:1001900017DAD7FE65A235BE798AAFBBEEAF7BBE5C
:1001A0003FFC1010000000000000000000000000F4
:1001B000000027C22FFE2FA23FF87FFEFFFFEEEFC9
:1001C0007FFE3FFC10100000000000000000000057
:1001D0000000000087C24FFE6FA23FF87FFEFFFFC6
:1001E000FFFF77763FFC0202000000180A0FC000F4
:1001F000307E00486180A86040A5A0408DC340804B
:100200000040B80EC0EFFBC07FFF80180E0030002A
:10021000FFE800803C00803F00802D80D17C808002
:100220000C8089B4809DB880880180B01C80A8159E
:1002300080FFFF807FFF00180C01800006C000795E
:100240003F80E9B7C0E833C0E6D7C0EEEFC0910900
:1002500040F92FC0FD0FC0EFFDC07FFF80180C03D9
:10026000E0000230007E3F00823180BE3080BE3030
:1002700080BED18080E080800080B81D80EFF78054
:100280007FFF00180A07E0007C3F808C3040EC3D87
:1002900040EBFD40873040FFFFC0FFFFC0EFFDC0D7
:1002A0007FFF806C00680005008930080238024931
:1002B00078681400000500380168010000175344F5
:1002C00000161378001613140015102000152010C6
:1002D00000540A03E181867F3E186D830F0F0E01E3
:1002E00083866033186DC3198F1803C38E6033186B
:1002F0006DE330CF1803C39E603630CDE360CF305E
:1003000006C79E7E3E30CDB360CF300CC6F660335C
:1003100030D9B660CF33CFCCF66061B0DB1E60CF92
:1003200030D86CE6C061B0DB1E618F19986CC6C016
:1003300063B19B0E330F0FB078C6FF7E1F1B061EE6
:100340000F40240000000000000000FFFFFFFFFF3F
:10035000FFFFFE8000000000000002BF3E3B30E3D4
:10036000673DFABF336DE1F36DB1FA8C336CC31B9B
:100370006DB0628DBE78C31B6F1C628DB661E31BCE
:100380006C6C628C373B31F1C73C6280000000F836
:100390000000028000000000000002FFFFFFFFFFDE
:1003A000FFFFFE000001E000000000000006180052
:1003B0000000007676C4C81FFE0000556489247FC3
:1003C000F3C000764249E47FF3C0004576C5287F3C
:1003D000FFC000000006187FFFC000000001E07FA2
:1003E000FFC000000000007FFFC00030FF01807FE1
:1003F000FFC00033FFFF8000FFC00033FFFF800716
:10040000FFC00033FEC18007FFC00033FEC1800083
:100410001FF0063FFFFC00001FF8063FFFFC000135
:10042000FFFF1E7FFFFF8001FFFF1E7FFFFFE00138
:10043000FFFF1E7FFFFFE0010FFFFE73E7CFE0002D
:100440000FFFFE73E7CFE912EF334E7FFFFF9555A5
:1004500047AD6E3FFFFE14E24393680000000000CA
:1004600003FFF800582B000000000000C00000004F
:100470000000000FFFFE0188020000000003FFFFE4
:10048000FF0318C6800000001FFFFFFF86318D802C
:100490001C00007FFFFFFF8E639B00600000FFFFDA
:1004A000FFFF8C472031C00000FFFFFFFF983F0097
:1004B000F6038001FC1FFFFF987FFFE40F0001FCA3
:1004C0001FFFFF80F3FFC07E6001FC1FFFFF83E77B
:1004D000C007F9F001FC1FFFFF0FCFFFFFFFF00186
:1004E000FFFFFFFF3C3FFF80000001FFFFFFFF3FDA
:1004F000FF03FFFFF001FFFFFFFE3BFFFFFFFFF0E9
:1005000001FFFFFFF86207FFFFFFF001FFFFFF00A1
:10051000FFFFFC00000001FFFFFC1F8FFFFFFFFF3C
:10052000F001FFFFF07FFFFFFFFFFFF001FFFFF192
:10053000FCFFC00000000001FFFFE7878000000013
:10054000000001FFFFE7FF80000000000003FFFF45
:10055000E1FEFE001FFFFFF003FFFFE03F7FFFFF14
:10056000FFFFF007FFFFF81F9FFFFFFFFFF007FFF0
:10057000FFFFEFFE00780000700FFFFFFFE7FFFFB7
:10058000FFFFFFF01FFFFFFFE3F3FFFFFFFFF03F61
:10059000FFFFFC03F9F1E04FFB90FFFFFF8001BE7E
:1005A0007E3F387FC0FFFFFF00019E7FFF067EE099
:1005B000FFFFFF0001DF0FF7E38FE0FFFFFF000108
:1005C000CF8B3BFCC660FFFFFF000063C198FF07B5
:1005D00020FFFFFF000030F0C607C300FFFFFFFF52
:1005E000801B386300E000FFFFFFFFC0098C21C0C3
:1005F0000000FFFFFFFFC0088610400000FFFFFF64
:10060000FEC00CC200000000FFFFFFE6C004630054
:10061000000000FFFFE06600041800000000FFFF7C
:10062000C03000060C00000000FFFFC00000000604
:1006300000000000FFFFC000000002000000004CAE
:100640004556454C3A2000402400000000000000C0
:1006500000FFFFFFFFFFFFFFFE8000000000000023
:1006600002807080380E45DC0280814520114512E1
:10067000028883CAB015459E229C9A28A015291489
:1006800072888A28A01139122280FA28B80E11D255
:100690000280000000000000028000000000000056
:1006A00002FFFFFFFFFFFFFFFE0000000000000051
:1006B00000000001E000000000000006180000003B
:1006C000007676C508000001FC556489C40000016D
:1006D000FC76424924000001FE4576C5C8000001B1
:1006E000FE0000061800000DFE000001E000000DF5
:1006F000FE0000000000000DFE0000000000038F5F
:10070000FE000000000001CFEA00000000380CCF1E
:10071000F6000000003007FFEA000000003CFFFF89
:10072000FE000000001FFFFFFE000000001FFFFF93
:10073000FE000000001FFFFFFC000000000FFFFF95
:10074000FC0000000007FFFFF8244B999607FFFC10
:100750000055550A520F8FF9F053890D921FF87BFF
:10076000FC0000000079FFF00053636F72653A20CF
:1007700000180E1004003258001B3F004E7A00167D
:10078000D1805B33004FE7006CDF003F7A002FEA37
:10079000808B9500E5278035EE0006680058100034
:1007A000000000000010000004800000000008426B
:1007B000013326625000000000000012198183708E
:1007C000FFFFFFFFFFFFFFFFFFFFF0000000002023
:1007D00040080F8F8070F3CFEF9F1801009838C743
:1007E0003000000002000404011039F00000000095
:1007F000001050010000700000000001000039CC22
:10080000D8309FEFBF8FF01004E0764FF00000006B
:10081000000002403C1BF1F0FFFFFFFFFFFFFFFF66
:10082000FFFFF0000000000000481E070FF000006E
:100830000000004800F03C7BA000000200100043D4
:100840008460C2600000000100100401C000400884
:1008500008081C264349995A3408080076DFBFDF90
:100860006E3C181009040008007F00FE80FE80FF27
:1008700080FF807F003E001009100008001C003E31
:10088000003A003C001C0018003000581200000024
:100890000000000000000000000000000000000058
:1008A0000000000000000000000000000000000048
:1008B0000000000000000000000000000000000038
:1008C0000000000000000000000000000000000028
:1008D0000000000000000000000000000000000018
:1008E0000000000000000000000000000000000008
:1008F0007C7C7C7C7C7C7C7C7C7C7C0000000000A4
:1009000000000000000000000000000000000000E7
:1009100000000000000000000000000007000000D0
:1009200000E00000000000020000000040000000A5
:1009300000000200008000400000000010020000E3
:100940008000400004000810FFFFFFFFFFF77FFF5B
:10095000FFE3FF580A000000000000F8001F00003D
:10096000000000001F010600E07BBE3B8043DF204B
:10097000E157012A84414460A420EAF1058160A680
:10098000D56663B6AAE08B55772A84414466B420C5
:10099000EF85054960A6D544681EAAF80555692A61
:1009A0008441666A9C200A45054960A6D544781EA4
:1009B000AA080555692A844144029C200A4500483A
:1009C00020A455450068010000F6E8DBCFC3B8AEAF
:1009D000A49B928A827B746E68625C57524E494532
:1009E000413E3A3734312E2C29272523210A0A1576
:1009F0003A49676E6F7265006D560A0A504C454160
:100A00005345205455524E204F464620004C4F57D8
:100A1000204241545445525921200003053F213FB3
:100A20001208120A100A0E1C0E0C1E0C141A1416B0
:100A30001F161E131E1E1B1E1E1F1E3F213F3A2F78
:100A40003A173D173F213F181F02040A041F0E04E6
:100A5000040E1F0A1F0A0E0E1F04110E2E252E2F24
:100A60002A2E262929021F02081F08150E04040E2B
:100A7000150E15151B151B040604040C04000000BC
:100A80000017000300031F0A1F16371A1904130A60
:100A9000153A000300000E11110E000A040A040E9C
:100AA000040030000404040010001804031F111F88
:100AB000121F101D151711151F07041F17151D1FD5
:100AC000151D01011F1F151F17151F000A000032F9
:100AD00000040A110A0A0A110A040115020E11176C
:100AE0001E051E1F150A0E110A1F110E1F15111FBC
:100AF00005010E111D1F041F111F1108100F1F04E7
:100B00001B1F10101F061F1E040F0E110E1F0906BB
:100B10000E112E1F051A121509011F011F101F0F9C
:100B2000180F1F0C1F1B041B031C03191513001F98
:100B300011030418111F00020102202020000102ED
:100B40000C121E1F120C0C12120C121F0C1A140481
:100B50001E05242A1E1F021C141D1020201D1F0804
:100B600014111F101E041E1E021C0C120C3E0A043F
:100B70000C123E1E040214160A020F120E101E0E54
:100B8000100E1E081E120C1226281E322A26041EC3
:100B900021001F00211E040102013F213F172B15D8
:100BA0002010204C4F4144455200172B162013149F
:100BB0000000000000240027002A0000000000259B
:100BC0000028002B000A4E6F20534420636172649A
:100BD000206F720A6E6F204C4F414445522E48459B
:100BE000580A0A153A45786974001D20466C6173ED
:100BF00068696E670A20206C6F616465722E2E2E04
:100C00000A0A444F4E2754205455524E204F464610
:100C10002100000000002300260029000404040431
:100C20000404040402020202020203030303030396
:100C30000102040810204080010204081020010273
:100C4000040810200000000800020100000304074F
:100C50000000000000000000051F11241FBECFEFA0
:100C6000D8E0DEBFCDBF11E0A0E0B1E0E4E9F2E4FE
:100C700002C005900D92A235B107D9F724E0A2E594
:100C8000B1E001C01D92A330B207E1F716E0CDE25A
:100C9000D6E004C02197FE010E94541FCC32D10738
:100CA000C9F70E94B71E0C9448210C9400008AE2F8
:100CB00090E090930D0180930C0110925E011092D0
:100CC0005D016CE170E080E090E00E940316DC01C1
:100CD000CB010A96A11DB11D9093090180930801D3
:100CE00010926401109263018BE090E090930B01ED
:100CF00080930A0181E090E0909354018093530126
:100D0000909301018093000165E070E080E090E045
:100D10000E940316DC01CB018396A11DB11D9093A7
:100D200068018093670108958F929F92AF92BF925E
:100D3000CF92DF92EF92FF920F931F93CF93DF93A7
:100D40000E94570682E38093FB0381E090E0A0E0DD
:100D5000B0E08093F7039093F803A093F903B09366
:100D6000FA038FEF8093EC03E0E8F7E725913491E5
:100D70002130304C09F049C0E6E9F7E7E491E0930F
:100D8000D503E7E9F7E7E491E0938003E8E9F7E7C3
:100D9000E491E0938103E9E9F7E7859194919093D9
:100DA000830380938203EBE9F7E785919491909315
:100DB00085038093840387E08093A703EEE9F7E738
:100DC000E491E093A603EFE9F7E7E491E093EC0305
:100DD000E0EAF7E7859194919093990380939803C3
:100DE000E2EAF7E78591949190939B0380939A03AD
:100DF000E4EAF7E78591949190939D0380939C0397
:100E0000E6EAF7E7859194912CC09CE39093D50393
:100E1000109280038093810380E293E09093830398
:100E20008093820384ED93E0909385038093840301
:100E300087E08093A7038093A6038CEA9DE09093BC
:100E40009903809398038EED9DE090939B0380938C
:100E50009A0384E79EE090939D0380939C038CE328
:100E60009FE090939F0380939E03C1E0C0937C0317
:100E70006FEF70E085E00E94451788E0809386035D
:100E800089E08093870387E08093880386E08093DE
:100E90008903D4E0D0938A0382E080938B0381E1BD
:100EA00080938C030E941C1B8CE39FE0909397031C
:100EB00080939603D0939503C093A0038BE0809317
:100EC000D8038DE08093D70380E18093D9038EE02F
:100ED0008093DB038FE08093DA03C093D203C09347
:100EE000EA031092EB03C093D103EBE1FAE0E49143
:100EF000EF5FE093CE03ECE1FAE0E491EF5FE09383
:100F0000CF038DE19AE09093E9038093E803CFB794
:100F1000F89480915201811127C0E6E2FCE08491AF
:100F2000EAE3FCE09491E82FF0E0EE0FFF1FEF54AE
:100F3000F44FA591B491EC91E92321F461E08AE0AA
:100F40000E94D91661E08AE00E9409178CB5806181
:100F50008CBD8CB580648CBD61E08DE00E9409176A
:100F600061E08BE00E940917809152018F5F8093AE
:100F70005201CFBF8CB58F7D8CBD8CB58C7F8160CD
:100F80008CBD8DB581608DBD8CB58C608CBD61E0F4
:100F90008091D8030E94091761E08091D7030E94D5
:100FA000091761E08091D9030E9409178091DB0342
:100FB00018161CF461E00E9409178091DA031816D4
:100FC0001CF461E00E9409178091DB03181674F489
:100FD00060E00E94D9166AE070E080E090E00E9434
:100FE000E01761E08091DB030E94D9168091D7035E
:100FF000082E000C990BFC01E45EF34FE491F0E045
:10100000EE0FFF1FE554F44F259134913093DF0329
:101010002093DE03FC01E05DF34FE491E093E503F0
:101020008091D803082E000C990BFC01E45EF34F6D
:10103000E491F0E0EE0FFF1FE554F44F2591349159
:101040003093DD032093DC03FC01E05DF34FE4917A
:10105000E093E4038091DA03082E000C990BFC0165
:10106000E45EF34FE491F0E0EE0FFF1FE554F44F20
:10107000259134913093E1032093E003FC01E05D7E
:10108000F34FE491E093E6038091D903082E000C1E
:10109000990BFC01E45EF34FE491F0E0EE0FFF1FCB
:1010A000E554F44F259134913093E3032093E20308
:1010B000FC01E05DF34FE491E093E70381E20E94DD
:1010C000701B84E10E94701B8091D50387FF03C0D1
:1010D0008FE78093D5038091D50380680E94701BB1
:1010E00080E20E94701B8CE00E94701B0E948F1B8C
:1010F000C1E0C093A50384E08093C90383EA92E032
:101100009093B1038093B00360E080E00E94791C6B
:1011100061E070E083E00E9445178091B100887F14
:1011200081608093B100F894109280001092810049
:10113000109285001092840088E191E090938900DC
:1011400080938800809181008860809381008091E5
:10115000810081608093810080916F008260809324
:101160006F0078940E94CB1D80919203813019F416
:101170001092A6031CC0809195038823C9F380E0D8
:101180000E94051B87EA92E09093AF038093AE0321
:101190001092B4031092B303C093A20389E080932A
:1011A000B7031092BA031092BC031092BE03809151
:1011B000EC03882309F4EDC081E08093D203109200
:1011C000D1031092D003109294038093EA0380938A
:1011D000EB03C3E6D4E08CE0F82E03EC19E0EE2438
:1011E000E39499E0D92E0E947B0F8823E1F3FE015E
:1011F0008491882319F0C090CF0301C0C12C21ED48
:1012000032E040E060E08AEC93E00E94B9184CE0E4
:101210004C0D21E433E060E08AEC93E00E94B918C1
:101220001092D303F092D40363E674E08AEC93E067
:101230000E942E168091CE03982F990F890F8195C9
:101240008D5A8093D3038091CF03982F990F890FE4
:101250008195835D8093D4038091ED0384FF03C067
:101260008DEC92E002C089EC92E00E94CF1B80914D
:10127000CE03982F990F890F81958D5A8093D303B0
:101280008091D4038F5F8093D4038091A603882339
:1012900019F085EC92E002C081EC92E00E94CF1B35
:1012A0008091CE03982F990F890F81958D5A809345
:1012B000D3038091D4038F5F8093D4038DEB92E0AE
:1012C0000E94CF1B80919203813039F58091A60353
:1012D0008F5F6091A70387FD09C0082E000C990B52
:1012E00070E06F5F7F4F0E942C1F682F6093A603F2
:1012F00080E00E94051B1093AF030093AE03109291
:10130000B4031092B303E092A203D092B7031092F9
:10131000BA031092BC031092BE03809191038130F6
:10132000B9F08091EC03482F50E060E070E08090CD
:10133000ED039090EE03A090EF03B090F0038416BD
:101340009506A606B70608F46FC08F3F09F46CC077
:101350008FEF8093EC0380E00E94051B80E00E94E9
:10136000051B85EB92E09093AF038093AE03109240
:10137000B4031092B30381E08093A20399E09093A9
:10138000B7031092BA031092BC031092BE0380936D
:101390009403C0909603D0909703C094D094E12C0E
:1013A000F12C0E94BB174B015C010E94BB17A501E9
:1013B0009401209530954095509560957095809555
:1013C00090950E94101F9B01AC01C701B6010E94BD
:1013D000101F4B015C0180917D0390917E036C0195
:1013E000E12CF12C0E94BB17C60ED71EE81EF91E79
:1013F000C701B601680D791D8A1D9B1D6115710518
:101400008105910511F00E94DC2010929403DF9178
:10141000CF911F910F91FF90EF90DF90CF90BF90F1
:10142000AF909F908F90089580919303813009F041
:10143000DACE0E94E21BD7CE2F923F924F925F925C
:101440006F927F928F929F92AF92BF92CF92DF92D4
:10145000EF92FF920F931F93CF93DF93DD24D394EA
:10146000AA24A394B12C43E0242E312C5BE0852EDA
:10147000912C64E6C62E0E947B0F882309F428C5B0
:10148000C0916B0123E539E048E06C2F8AEC93E0D2
:101490000E94B91864E56C0F23E539E048E08AEC56
:1014A00093E00E94B9186CEA6C0F23E539E048E03C
:1014B0008AEC93E00E94B918C0916901D0916A0149
:1014C0002BE838E04EE16C2F8AEC93E00E94B918CB
:1014D0006C2F6C5A2BE838E04EE18AEC93E00E94C6
:1014E000B9186C2F64552BE838E04EE18AEC93E094
:1014F0000E94B9181092EA031092EB031091670151
:1015000041E0410F6C2F665A09E028E18AEC93E034
:101510000E94FB19D092EA03D092EB03E09165019F
:10152000F0916601EE0FFF1FED5CFE4F20813181CF
:101530006C2F675A412F8AEC93E00E94B918C83586
:10154000DF4FD9F510926A01109269016CE070E0EA
:1015500080E090E00E940316DC01CB018096A11D83
:10156000B11D90936801809367016AE470E080E0A8
:1015700090E00E940316DC01CB010A96A11DB11D6B
:1015800090931101809310016DE070E080E090E095
:101590000E940316DC01CB014496A11DB11D90935E
:1015A0000F0180930E0164E070E080E090E00E9403
:1015B0000316709366016093650180916B019091B1
:1015C0006C0188359F4F21F410926C0110926B01D1
:1015D00080910C0190910D01CC970CF0C4C28091C8
:1015E0009303813009F464C322E144E562E180E0C1
:1015F0000E94D51386E30E947714C4E580910A0106
:101600004C2F481B23E063E086E30E94D51388E15A
:101610000E94771480910C014C2F481B23E063E05B
:1016200088E10E94D513D092D3031092D403409145
:101630006301509164012A01550F6608770877FE0F
:101640000EC06DE28AEC93E00E94271644275527CE
:10165000BA0144195509660977092AE003C02AE04E
:10166000B301A2018AEC93E00E94671667E471E07F
:101670008AEC93E00E945216809161019091620180
:10168000059719F427E738E002C023E638E04091D7
:101690000E01609110018AEC93E00E94B918E0906D
:1016A0005D01F0905E01E0915F01F0916001EE0F4D
:1016B000FF1FE55DFE4F40815181609108018E2D35
:1016C0000E94971429E538E040E06FE08AEC93E04F
:1016D0000E94B9182FE438E040E06DE28AEC93E014
:1016E0000E94B9181092EA031092EB03C0915B01BB
:1016F000D0915C01CE018D7F009721F460910401AF
:10170000695F05C0019759F4609104016D5F03E0C2
:1017100025E0409106018AEC93E00E94FB19D092EB
:10172000EA03D092EB03009106011091070160904B
:10173000040170900501FE01EE0FFF1FED5DFE4FED
:1017400020813181402F662D8AEC93E00E94B918E8
:1017500010925A011092590180918F0381508E3F4F
:10176000B0F580916B0190916C01019790936C01A1
:1017700080936B018091690190916A010297909327
:101780006A018093690191E0E91AF108F0925E0123
:10179000E0925D0180911001909111010197909369
:1017A0001101809310012BE3621671043CF48FEF5A
:1017B000681A780A70920501609204012296C3307B
:1017C000D1050CF078C2D0935C01C0935B0180918D
:1017D0008D0381508E3FE8F580916B0190916C01F3
:1017E000019690936C0180936B01809169019091B7
:1017F0006A01029690936A018093690180915D016C
:1018000090915E01019690935E0180935D018091BD
:101810001001909111010196909311018093100194
:101820008091040190910501181619062CF4019776
:10183000909305018093040180915B0190915C017C
:101840000296843091050CF03BC290935C0180932A
:101850005B018091900381508E3F48F4083211055E
:1018600034F40F5F1F4F109307010093060180911E
:101870008E0381508E3F60F48091060190910701A4
:10188000873091052CF00197909307018093060112
:101890008091910381508E3FB8F480910A0190911C
:1018A0000B018E3191052CF4019690930B018093DE
:1018B0000A0180915B0190915C018D7F009709F492
:1018C00004C2019709F429C200910E0110910F0181
:1018D0002091100130911101E0915B01F0915C01C8
:1018E000EE0FFF1FED5DFE4F4081518160910601BB
:1018F00070910701E3E6EE2EE8E0FE2E80910401F0
:10190000909105010E942B15882309F45FC08091F6
:101910006301909164010596909364018093630143
:101920006AE470E080E090E00E940316DC01CB01E5
:101930000A96A11DB11D90931101809310016DE0D5
:1019400070E080E090E00E940316DC01CB01449639
:10195000A11DB11D90930F0180930E018091610133
:1019600090916201059709F017C2B0925801A092B8
:10197000570188E590E090930301809302019092D3
:101980000B0180920A0169E070E080E090E00E9423
:101990000316DC01CB010196A11DB11D90936201DC
:1019A0008093610180910A0190910B018C30910527
:1019B0006CF004978B3091052CF090930B01809381
:1019C0000A0104C090920B0180920A0160916701A4
:1019D0007091680180915D0190915E0120910601F6
:1019E000309107014091040150910501FA01709670
:1019F0008E179F07E4F4DC0118964A175B07BCF4C6
:101A0000D90112966A177B0794F46E5F7F4F2617F1
:101A100037076CF460910C0170910D016C33710506
:101A200034F46F5F7F4F70930D0160930C016091F0
:101A30000801709109018E179F07DCF4FC01709674
:101A40004E175F07B4F4F90132966E177F078CF4D6
:101A5000FB0132962E173F0764F4E0910C01F091E0
:101A60000D01EC33F1052CF43196F0930D01E09368
:101A70000C01E0919103E150EE3F70F5E0910A0115
:101A8000F0910B017E9744F54F5E5F4FE0910201AC
:101A9000F0910301E40FF51F8E179F070CF487C127
:101AA000209108013091090160915D0170915E0102
:101AB0008091060190910701409104015091050128
:101AC00041515109E0910201F0910301E40FF51F2A
:101AD0006E177F070CF482C18091590190915A01D1
:101AE000181619060CF43FC080915D0190915E01BB
:101AF000813F2FEF920754F02091000130910101B6
:101B0000821B930B90935E0180935D0180915D0138
:101B100090915E01803F9F4FACF484E690E09093FB
:101B20005E0180935D016CE170E080E090E00E94D6
:101B30000316DC01CB010A96A11DB11D909309018A
:101B40008093080180915F0190916001019682303D
:101B500091052CF49093600180935F0104C0109272
:101B6000600110925F01C09167011091680160905F
:101B7000690170906A01E0916501F0916601EE0FD4
:101B8000FF1FED5CFE4FE080F1809301275A3F4F2D
:101B9000E0915B01F0915C01EE0FFF1FED5DFE4FE8
:101BA0004081518160910601709107010C2F809155
:101BB0000401909105010E942B15882379F069E5B5
:101BC000660D21E737E04C2F8AEC93E00E94B918AC
:101BD00084E490E0909368018093670180910C0108
:101BE00090910D01CC9704F18AEC93E00E94081EBD
:101BF00069E677E08AEC93E00E942E16609163011B
:101C0000709164018AEC93E00E94951D27E436E010
:101C10004AE06AE08AEC93E00E94B918809192034E
:101C200081508E3F08F451C12091530130915401ED
:101C3000C29EC001C39E900D11242091630130917A
:101C40006401281739070CF443C18AEC93E00E9421
:101C5000081E6FE376E08AEC93E00E942E166091F6
:101C60005301709154018AEC93E00E94951D24E683
:101C700034E045E060E08AEC93E00E94B91880917E
:101C8000920381508E3F08F023C1809153019091BF
:101C90005401019690935401809353018091000167
:101CA0009091010101969093010180930001E3CB93
:101CB0000E94940699CC10925C0110925B0187CD32
:101CC000B0925C01A0925B01C4CD80910A01909119
:101CD0000B014D970CF04EC0809157019091580127
:101CE000009781F4E0915501F0915601EE0FFF1F2E
:101CF000E35EFE4F20813181609104016F5E40916F
:101D0000060120C00197B1F56091060164508091F1
:101D100004014DE957E0865F2BC080910A01909144
:101D20000B014E973CF580915701909158018130FD
:101D3000910569F440910601445060910401615598
:101D40002DE937E08AEC93E00E94B91813C0892B83
:101D500089F4E0915501F0915601EE0FFF1FE35E0B
:101D6000FE4F4081518180910401609106018151B3
:101D70000E949714809155019091560101968330ED
:101D800091052CF490935601809355019DCD1092AE
:101D900056011092550198CD10925801109257019A
:101DA00080E190E09093030180930201ECCD409696
:101DB000481759070CF074CEA9014E5E5F4FCB0156
:101DC0004096841795070CF06BCE6E5E7F4F205FB8
:101DD0003F4F261737070CF063CE18C0605F7F4F68
:101DE000461757070CF078CEBC016E5E7F4FA901F5
:101DF000405F5F4F461757070CF06ECE2E5E3F4F89
:101E00004096821793070CF067CE2FC080915B013C
:101E100090915C018D7F892B09F042CEB0925A01DE
:101E2000A09259013092600120925F0180EF9FEFF4
:101E300090935E0180935D016CE170E080E090E042
:101E40000E940316DC01CB010A96A11DB11D9093DF
:101E500009018093080180916301909164010A96C1
:101E600090936401809363011BCE80915B019091FC
:101E70005C018D7F8130910509F02ECE90935A013F
:101E8000809359013092600120925F0180EF9FEFB3
:101E900090935E0180935D016CE170E080E090E0E2
:101EA0000E940316DC01CB010A96A11DB11D90937F
:101EB00009018093080180916301909164010A9661
:101EC000909364018093630107CE0E945706ACCEC5
:101ED000DF91CF911F910F91FF90EF90DF90CF9006
:101EE000BF90AF909F908F907F906F905F904F903A
:101EF0003F902F9008954F925F926F927F928F92B2
:101F00009F92AF92BF92CF92DF92EF92FF920F9388
:101F10001F93CF93DF9300D000D01F92CDB7DEB7D1
:101F20004091FC035091FD036091FE037091FF030B
:101F30002FB7F89480916F0190917001A091710179
:101F4000B09172012FBF481B590B6A0B7B0B80911C
:101F5000FB0390E0A0E0B0E00091F7031091F803DC
:101F60002091F9033091FA0384179507A607B70764
:101F700030F4011511052105310509F034C3012B99
:101F8000022B032B09F02DC38091930381508E3FC8
:101F9000C0F5809192038130C9F58091A6038F5FCF
:101FA0006091A70387FD09C0082E000C990B70E013
:101FB0006F5F7F4F0E942C1F682F6093A6038AEAF1
:101FC0009BE0909301048093000488E480930204D2
:101FD00080E00E94051B83EC99E09093AF0380930F
:101FE000AE031092B4031092B30381E08093A20376
:101FF00089E08093B7031092BA031092BC03109249
:10200000BE038091930381508E3F70F480919103C1
:10201000813009F094C38DE99BE090930104809393
:10202000000488E48093020480E00E940F1C8091E9
:10203000A203882309F4ABC08091B6038111A7C025
:102040008091AE039091AF03E091B303F091B4039C
:10205000EE0FFF1FE80FF91F4591549141155105EF
:10206000F1F42091B203222331F01092B4031092C4
:10207000B303FC0112C01092A2038091A103882334
:1020800041F080E00E940F1CE091B303F091B40393
:102090002DC080E00E94F01A7AC0459154919A01B7
:1020A000369527953695279540FF51C0CA0116E011
:1020B000969587951A95E1F78F71952F9695969538
:1020C000969590512F70223071F1F8F4211117C0BC
:1020D0008B3008F08AE08093B703E091B303F0916E
:1020E000B4033196F093B403E093B303EE0FFF1FF4
:1020F0008091AE039091AF03E80FF91FCECF21304E
:1021000061F760E00E94791CE8CF2330B1F0243001
:1021100021F72091A503829F802D11248093BE0377
:102120009093BF03DACF2091A503829F802D1124C5
:102130008093BA039093BB03D0CF2091A503829FD5
:10214000802D11248093BC039093BD03C6CF2F73C1
:102150002093B5038091A503859F802D1124809342
:10216000B6031092C6031092C5031092C40381E017
:102170008093B803809379031092B9038091B303DD
:102180009091B40301969093B4038093B30380912C
:10219000B803882309F4EEC08091B603811103C00F
:1021A0000E94F01AE7C081508093B6038091C60365
:1021B000811146C02091C4033091C5032F5F3F4F6A
:1021C000C901880F991FE091C003F091C103E80F86
:1021D000F91F65917491862F87708093C703AB01B7
:1021E000E3E056954795EA95E1F7CA0196958795FC
:1021F000972F969596959093C8038F739091A5030A
:10220000899F802D11248093C603417040936E01F5
:102210003093C5032093C4038091C20390E0281734
:10222000390770F02091C303222339F0821B9109F2
:102230009093C5038093C40303C080E00E94F01A0A
:102240008091C60381508093C6038091B90321E039
:10225000280F2093B9034091B5033091C803340F80
:102260008091AD03380F3093A3036091BC036623C4
:1022700071F070E0822F022E000C990B0E942C1F2F
:102280008091BD03869F300D11243093A30380916C
:10229000A30390E0849664E270E00E942C1F809378
:1022A000A3033091B7033093A4036091BA0366236C
:1022B00081F0062E000C770B822F022E000C990B5A
:1022C0000E942C1F8091BB03869F300D11243093F8
:1022D000A4036091BE036623A1F0822F220F990B05
:1022E00070E00E942C1FCB0162E070E00E942C1F66
:1022F0002091BF039091A403289F900D11249093E7
:10230000A4038091A4034F3341F08A300CF089E09C
:1023100087FD80E08093A40302C01092A403F89488
:10232000E091A303F0E0E753F64FE491E0936D01F1
:102330003091A4032091C9033203900111244091EC
:10234000C7034203C001439F900D11240090A603D0
:1023500002C0880F991F0A94E2F797FF02C08158C4
:102360009F4F880F892F881F990B80937A03809342
:102370007B03789480910204882309F488C08C3010
:1023800020F49CE0E92EE81A01C0E12CFF24F3942C
:10239000F092D2031092EA031092EB033091CF0334
:1023A0004DE2D42E1D2D131B1E0D03E0030F2EE452
:1023B000412F63E08AEC93E03D830E94FB193D814D
:1023C0000CEF030F1D5F202F41E0612F80E50E947D
:1023D000321D202F42E0612F83E00E94321DF092D7
:1023E000EA03F092EB030091CF03FD2CF01AFE0CF0
:1023F0002EE44F2D63E08AEC93E00E94711E13E0FF
:10240000100F1F0D4FEF410F2EE463E08AEC93E0B5
:102410000E94711E035033E0F30E202F4F2D60E019
:102420008AEC93E00E94941E202F4F2D63E58AECE6
:1024300093E00E94941E41E06F2D83E00E94B41C43
:1024400042E06F2D80E50E94B41C145044E0612FDF
:1024500080E50E94B41C48E0612F83E00E94B41C18
:1024600084E08093D3038091CF03E81A8E2D815DA1
:102470008093D40360910004709101048AEC93E08E
:102480000E942E1680910204815080930204809154
:10249000980390919903892B09F485C011E010935A
:1024A000EA031092EB039091CE0385E5891B80939C
:1024B000D3031092D40360919503613009F454C0A2
:1024C00030F080919403653008F066C061C080E010
:1024D0000E94051B1093D203EBE1FAE0E491EF5F59
:1024E000E093CE03ECE1FAE0E491EF5FE093CF03F9
:1024F0008DE19AE09093E9038093E80310929903A9
:10250000109298031092D00318EA0E947B0F882340
:10251000E1F36DE07AE08AEC93E00E942E164091A0
:1025200096035091970360E070E02AE08AEC93E014
:102530000E94671668EF79E08AEC93E00E942E16FD
:10254000612F62956F7070E08AEC93E00E94951D98
:102550006DEE79E08AEC93E00E942E168091910353
:10256000813009F0F2C01FC08091ED039091EE031D
:10257000A091EF03B091F0038F709927AA27BB2792
:102580000897A105B10510F467E009C068E707C026
:10259000882349F06B5F03C0882329F06FE28AEC3F
:1025A00093E00E9427160E948F1B8091D003811117
:1025B00004C08AEC93E00E94081E0E94BB1760933F
:1025C000F7037093F8038093F9039093FA03209133
:1025D000F3033091F403621B730B7093F203609367
:1025E000F10380E0CCC02FB7F89480916F019091F7
:1025F0007001A0917101B09172012FBF2091FB0376
:10260000820F911DA11DB11D8093FC039093FD03CA
:10261000A093FE03B093FF038091ED039091EE032E
:10262000A091EF03B091F0030196A11DB11D80931D
:10263000ED039093EE03A093EF03B093F003109299
:10264000F7031092F8031092F9031092FA030E9414
:10265000BB176093F3037093F4038093F503909397
:10266000F60380917D0390917E032FE0289F8001E7
:10267000299F100D112485E10E94A417800F911F3E
:1026800024E0969587952A95E1F790937E038093B1
:102690007D0320917C03222309F44BC060918003C9
:1026A000262F30E040E050E029833A834B835C835F
:1026B000C0908103D12CE12CF12C409184035091E6
:1026C00085034A01A12CB12C209182033091830310
:1026D0002901612C712C8217930728F09C0148175F
:1026E000590708F49A01C901A0E0B0E09C01AD01CE
:1026F000241935094609570969817A818B819C81A2
:102700006C197D098E099F090E94101FA501940173
:1027100024193509460957090E94E520C20ED31E27
:10272000E41EF51EC0927F036C2D70E085E00E94D0
:1027300045170E941C1B0E94CB1D81E020C08932DE
:1027400009F072CC0E94E21B6FCC115009F0DDCE73
:1027500060E070E085E00E94451783B7817F846068
:1027600083BF83B7816083BF83B7816083BF889550
:1027700083B78E7F83BF83B78E7F83BFC6CE0F9014
:102780000F900F900F900F90DF91CF911F910F91AD
:10279000FF90EF90DF90CF90BF90AF909F908F9081
:1027A0007F906F905F904F900895CF92DF92EF925D
:1027B000FF920F931F93CF93DF93C82FD62F142F21
:1027C000422F022E000C550B461B510967FD5395F5
:1027D00057FF03C0519541955109812F012E000CDF
:1027E000990B8C1B9109C7FD939597FF03C0919599
:1027F00081959109DD24D3948417950714F0D12C89
:1028000006C0812F122F282F8C2FCD2FD82F1C17C9
:1028100034F48D2FD22F282F8C2FC12F182FE12E7B
:10282000EC1A822F022E000C990B8D1B9109D7FDFB
:10283000939597FF03C0919581959109F82E0E2DE0
:10284000E7FE02C001E00E0D0595D2171CF0CC2466
:10285000CA9411C0CC24C3940EC0DD2079F04C2F53
:102860006D2F8AEC93E00E94191E0F1907FF02C01A
:10287000DC0D0E0DCF5F1C1784F703C04D2F6C2F9E
:10288000F0CFDF91CF911F910F91FF90EF90DF90EC
:10289000CF900895CF92DF92EF92FF920F931F9304
:1028A000CF93DF936C017A018B01C0E0D0E0CE15AD
:1028B000DF0589F0D8016D918D01D601ED91FC9174
:1028C0000190F081E02DC6010995892B11F47E015C
:1028D00002C02196ECCFC701DF91CF911F910F91DC
:1028E000FF90EF90DF90CF9008950E948420CF93C7
:1028F000C82F24E142E0682F8AEC93E00E94711E09
:1029000024E144E06C2F8AEC93E00E94711E23E0E6
:1029100042E06C2F8AEC93E00E94941E63E16C0FFE
:1029200023E042E08AEC93E0CF910C94941E2F9226
:102930003F924F925F926F927F928F929F92AF924F
:10294000BF92CF92DF92EF92FF920F931F93CF939C
:10295000DF9300D01F92CDB7DEB7362E6A01FA01A1
:1029600054903196E491A52CB12C7501F7E0EF0E4F
:10297000F11C93E0F594E7949A95E1F720E030E8B4
:10298000832E912C0E2F10E08150580E822F022E94
:10299000000C990B8A159B050CF047C0922F27FF5E
:1029A00002C097E0920F959595959595822F87781F
:1029B00087FF03C08150886F8F5F340102C0759418
:1029C00067948A95E2F7412C892F990F990BAC01F6
:1029D0004E5F5F4F5B834A83252C221A842D042C83
:1029E000000C990B80179107F4F48E9DF0018F9DD8
:1029F000F00D9E9DF00D11248A819B81E80FF91F37
:102A0000EC0DFD1DE491F0E0E621F721EF2B49F0FC
:102A1000442D430D622D8AEC93E029830E94191EF8
:102A200029814394DBCF2F5FB1CF0F900F900F9090
:102A3000DF91CF911F910F91FF90EF90DF90CF909A
:102A4000BF90AF909F908F907F906F905F904F90CE
:102A50003F902F9008954F925F926F927F928F9246
:102A60009F92AF92BF92CF92DF92EF92FF920F931D
:102A70001F93CF93DF93FA01A490B12C3196A491C8
:102A8000F701B4913196E4913C016A0C7B1C261548
:102A90003705A4F46901CB0ED11C8C159D0574F487
:102AA000B0E04B018A0E9B1E081519053CF4E801A5
:102AB000CE0FD11DFE016C177D0714F080E092C08F
:102AC000821793070CF08BC02901481A590A601726
:102AD000710724F4E801C61BD70B02C0C0E0D0E0A8
:102AE0006C147D041CF05601A81AB90A8E169F06B4
:102AF0001CF0DF01A61BB70B1C2FC0E8D0E0782E1E
:102B0000721A862E801A612F70E06A177B07B4F65E
:102B1000042DC82CC10ED12C802F90E08A159B0566
:102B20000CF059C0FA012491FC0133E0F595E795CA
:102B30003A95E1F7329630E0295F3F4F83E03595D3
:102B400027958A95E1F7629FC001639F900D729F60
:102B5000900D1124E80FF91FE40FF51FE491F0E048
:102B6000802F87709E0102C0359527958A95E2F7E0
:102B7000E223F323EF2B69F1F7012491972C900EB8
:102B8000E92DF0E083E0F595E7958A95E1F7329637
:102B900030E0295F3F4F93E0359527959A95E1F70F
:102BA000C29EC001C39E900DD29E900D1124E80FCD
:102BB000F91FEE0DFF1DE491F0E0892D87709E0155
:102BC00002C0359527958A95E2F7E223F323EF2B90
:102BD00021F40F5FA1CF1F5F96CF81E003C0412C8E
:102BE000512C75CFDF91CF911F910F91FF90EF90F6
:102BF000DF90CF90BF90AF909F908F907F906F901D
:102C00005F904F900895CF93DF9300D000D0CDB761
:102C1000DEB7611571058105910579F09B01AC0165
:102C200069833A834B835C830E94D72029813A8150
:102C30004B815C810E94E52003C060E070E0CB0125
:102C40000F900F900F900F90DF91CF910895DC01BE
:102C5000ED91FC910190F081E02D0994EF92FF92AB
:102C60000F931F93CF93DF938C017B01C0E0D0E0E3
:102C7000F701EC0FFD1F6491662361F0D801ED911F
:102C8000FC910190F081E02DC8010995892B11F08C
:102C90002196EECFCE01DF91CF911F910F91FF9042
:102CA000EF9008956115710579F0FB010190002006
:102CB000E9F73197AF01461B570BDC01ED91FC9111
:102CC0000280F381E02D099480E090E008954F9216
:102CD0005F926F927F92EF92FF920F931F93CF9329
:102CE000DF93CDB7DEB7A1970FB6F894DEBF0FBE66
:102CF000CDBF7C01FA01CB0119A2223008F42AE0F1
:102D00008E010F5D1F4F422E512C612C712CBF0183
:102D1000A30192010E941721F901CA010150110972
:102D20006A3014F4605D01C0695CD8016C93232B98
:102D3000242B252B61F7B801C7010E945216A196DA
:102D40000FB6F894DEBF0FBECDBFDF91CF911F91BC
:102D50000F91FF90EF907F906F905F904F9008954C
:102D6000833081F028F4813099F08230A1F0089509
:102D70008730A9F08830B9F08430D1F48091800098
:102D80008F7D03C0809180008F77809380000895AD
:102D900084B58F7702C084B58F7D84BD08958091FE
:102DA000B0008F7703C08091B0008F7D8093B0001A
:102DB00008951F93CF93DF93282F30E0F901EC5B48
:102DC000F34F8491F901E05DF34FD491F901E45E92
:102DD000F34FC491CC23C9F0162F81110E94B01675
:102DE000EC2FF0E0EE0FFF1FE554F44FA591B491E6
:102DF0008FB7F894111105C09C91ED2FE095E92350
:102E000002C0EC91ED2BEC938FBFDF91CF911F911E
:102E10000895CF93DF9390E0FC01E05DF34F2491A0
:102E2000FC01E45EF34F8491882361F190E0880F08
:102E3000991FFC01EF54F44FC591D491FC01E55466
:102E4000F44FA591B491611109C09FB7F89488819E
:102E5000209582238883EC912E230BC0623061F48D
:102E60009FB7F8943881822F809583238883EC91D3
:102E70002E2B2C939FBF06C08FB7F894E8812E2B82
:102E800028838FBFDF91CF9108951F93CF93DF9356
:102E9000182FEB0161E00E940917209711F460E000
:102EA00004C0CF3FD10539F461E0812FDF91CF918C
:102EB0001F910C94D916E12FF0E0EC5BF34FE491F5
:102EC000E330F9F048F4E130B9F0E230A1F584B52F
:102ED000806284BDC8BD34C0E730E9F0E83019F144
:102EE000E43049F580918000806280938000D09327
:102EF0008B00C0938A0024C084B5806884BDC7BDA0
:102F00001FC080918000806880938000D0938900EA
:102F1000C093880015C08091B00080688093B00095
:102F2000C093B3000DC08091B00080628093B00068
:102F3000C093B40005C0C038D1050CF0B5CFAFCFF9
:102F4000DF91CF911F9108958E3008F08E508770D9
:102F5000806480937C0080917A00806480937A0002
:102F600080917A0086FDFCCF8091780020917900D5
:102F700090E0922B08953FB7F8948091750190915D
:102F80007601A0917701B091780126B5A89B05C084
:102F90002F3F19F00196A11DB11D3FBFBA2FA92FD8
:102FA000982F8827820F911DA11DB11DBC01CD0155
:102FB00042E0660F771F881F991F4A95D1F7089541
:102FC0008F929F92AF92BF92CF92DF92EF92FF9239
:102FD0006B017C010E94BB174B015C01C114D10441
:102FE000E104F104F1F00E94BB17DC01CB01881968
:102FF0009909AA09BB09883E9340A105B10570F360
:1030000021E0C21AD108E108F10888EE880E83E0B9
:10301000981EA11CB11CC114D104E104F10419F7DC
:10302000DDCFFF90EF90DF90CF90BF90AF909F905B
:103030008F9008951F920F920FB60F9211242F9325
:103040003F938F939F93AF93BF9380916F01909124
:103050007001A0917101B09172013091740123E06F
:10306000230F2D3720F40196A11DB11D05C026E8C0
:10307000230F0296A11DB11D2093740180936F014F
:1030800090937001A0937101B093720180917501CA
:1030900090917601A0917701B09178010196A11DE0
:1030A000B11D8093750190937601A0937701B09341
:1030B0007801BF91AF919F918F913F912F910F9088
:1030C0000FBE0F901F90189580917903882319F0F7
:1030D00080917B0301C080E08093B40008951F922B
:1030E0000F920FB60F9211242F933F934F935F933C
:1030F0006F937F938F939F93AF93BF93EF93FF93C0
:1031000060917A03662321F1809173018F5F809330
:10311000730190916D018917D8F09091790381E046
:103120008927809379031092730180916E0188231F
:1031300069F08091120193E4899F802D1124895BAD
:10314000809312010E94201F90937B030E946418B9
:10315000FF91EF91BF91AF919F918F917F916F916F
:103160005F914F913F912F910F900FBE0F901F9045
:1031700018954F925F926F927F928F929F92AF922B
:10318000BF92CF92DF92EF92FF920F931F93CF9354
:10319000DF93F901C49031965491EC0108A1643594
:1031A0000CF018C10C2C000CDD08A62F062E000C0C
:1031B000BB0B7D01EC0CFD1C1E141F040CF00AC19E
:1031C00040330CF007C1A52E842E042E000C990864
:1031D000F401E50FF11D57FDFA951E161F060CF0C0
:1031E000F9C02E5F3F4FE6012796D7FD279673E083
:1031F000D595C7957A95E1F747FF0AC0A52EA40E8D
:10320000C89DA001C99D500D1124241B350B40E021
:10321000EA2D0A2C000CFF0BE40FF11D47FDFA9577
:10322000F1971CF050E3A52EA41A67FD60E0F701AA
:10323000E535F10514F0E4E5F0E07E2FFC01D484DF
:10324000D426862F062E000C990BFC01EA1BFB0BE3
:10325000DF017F01F7E0EF22FF24E0E8F0E002C0A9
:10326000F595E795EA94E2F71E2FB7FD179653E020
:10327000B595A7955A95E1F72A0F3B1FE42FE77004
:1032800051E001C0550FEA95EAF7459545954595FA
:10329000B4E54B02800D911D112487589E4FC12C1F
:1032A0000A2C000CBB08992493942E015524EC2D74
:1032B000F0E0EA15FB050CF08DC0F90144910130F6
:1032C000E1F47C01A12F862E881AB82DBE0DB71708
:1032D00008F077C0B42FBA2321F0E701B881B52BED
:1032E000B883B0E0B595A795109719F4319644913D
:1032F000A0E8DFEFED1AFD0AE8CF01111FC0752E1F
:1033000070947C01A12FF901862E881AB82DBE0D6C
:10331000B71708F056C0B42FBA2321F0E701B881DF
:10332000B721B883B0E0B595A795109719F43196F9
:103330004491A0E8DFEFED1AFD0AE8CF033031F049
:103340007C01A12FF901862E881A37C0752E709442
:10335000862E7C01A12FF9018716D8F4B42FBA2349
:1033600059F0E701B881682C6D2460FE02C0B52BCE
:1033700002C0B721E701B883B0E0B595A7951097D3
:1033800019F431964491A0E88394DFEFED1AFD0A19
:10339000E3CFD92416C0B42FBA2321F0E701B881B6
:1033A000B527B883B0E0B595A795109719F4319675
:1033B0004491A0E8DFEFED1AFD0AB82DBE0DB71756
:1033C00050F3550F19F48C5A9F4F51E0C394240DBC
:1033D000351D6DCFDF91CF911F910F91FF90EF9031
:1033E000DF90CF90BF90AF909F908F907F906F9025
:1033F0005F904F900895DF92EF92FF920F931F938B
:10340000CF93DF937C01D62FD22EC42F002E000C39
:10341000110B040F111D47FD1A954C2F0C2E000C9B
:10342000550B4017510744F42D2D4C2F6D2FC7011C
:103430000E94711ECF5FF1CFDF91CF911F910F914D
:10344000FF90EF90DF9008956F927F928F929F92FE
:10345000AF92BF92CF92DF92EF92FF920F931F93A2
:10346000CF93DF93EC016A3019F42D819885A1C0C8
:103470006D3009F4A4C01885BA84D98488A083E586
:103480008D150CF47FC08FE28B150CF47BC08C8102
:1034900090E00197189F9001199F300D1124C901E8
:1034A0008D0D911DD7FC9A95181619060CF06AC05F
:1034B0008D81819FC00111248B0D911DB7FC9A95C0
:1034C000181619060CF05EC09D2CCD2CE62EF12CA2
:1034D000EC2DED190E2E000CFF0B8C8190E0E817FF
:1034E000F9070CF04EC00197E817F90779F0E89E4C
:1034F0009001E99E300DF89E300D1124E20FF31F6C
:103500008E8D9F8DE80FF91F749001C0712C6B2C6C
:10351000AB2C2A2D2B19022E000C330B8D8190E041
:10352000281739075CF570FE10C0113031F44A2DB0
:103530006C2DCE010E94191E1DC0012F212F462D7A
:10354000692DCE010E94FB1915C089A198A1891788
:1035500089F088A3113031F44A2D6C2DCE010E94E0
:10356000191E07C0012F212F462D692DCE010E9463
:10357000FB1988A27694A394610ECBCFC394910ECD
:10358000A7CF88A228853C818985329F800D112490
:1035900089879F81992399F0082E000C990B44E5A7
:1035A00050E0239F401951091124481759073CF452
:1035B0009D818A85299F800D11248A87198681E043
:1035C00090E0DF91CF911F910F91FF90EF90DF90EE
:1035D000CF90BF90AF909F908F907F906F90089505
:1035E000811112C01092B8031092B6031092C50355
:1035F0001092C4031092B90310927B0310927A03C5
:10360000109279030C9464180895811114C01092DB
:10361000B8031092B6031092C5031092C40310921F
:10362000B90310927B0310927A03109279030E94DF
:1036300064181092A2030895CF92DF92EF92FF9246
:103640000F931F93CF93DF93C6E8D3E00DE813E009
:10365000FF24FA9497E0E92EE00E62E088810E9450
:103660000917288130E0F901EC5BF34F8491F901EF
:10367000E05DF34FC490F901E45EF34FD490DD2098
:1036800071F081110E94B016ED2DF0E0EE0FFF1FDA
:10369000EE5EF34FA591B491EC91EC21B1F4F801F9
:1036A00080818F5F808360E088810E940917219666
:1036B0000F5F1F4FE012D1CFDF91CF911F910F917C
:1036C000FF90EF90DF90CF900895F80180818823DC
:1036D00071F3F8018F3F11F41082E5CFF082E3CF50
:1036E000CF93C82FF89460E08091D9030E94D91637
:1036F0008091DA0318161CF460E00E94D916CEBD42
:1037000000000DB407FEFDCF8EB58091DA031816C8
:103710001CF461E00E94D9167894CF9108950F931C
:103720001F93CF938091D6038F5F8093D60309E7D1
:1037300011E0C0E08C2F80640E94701B80E80E9422
:10374000701B61E08091D9030E94D9168091DA0341
:1037500018161CF460E00E94D91680E090E0F80191
:10376000E80FF91F20812EBD00000DB407FEFDCF2C
:103770002EB501968435910591F78091DA031816DC
:103780001CF461E00E94D916CF5F0C5A1F4FC6305F
:1037900089F680E4CF911F910F910C94701BCF9309
:1037A000DF93BC018AEC93E00E942E16EC0167E4E3
:1037B00071E08AEC93E00E9452168C0F9D1FDF91FE
:1037C000CF9108958AEC93E00E94081E6AEE7BE098
:1037D0008AEC93E00E942E160E948F1B8CB58360AA
:1037E0008CBD8DB58E7F8DBD8AE491E0EEEFFFE359
:1037F00009951092D00385EC9BE00E94CF1B0E949C
:103800008F1B0E941C1B80919103813039F062E371
:1038100070E080E090E00E94E017F3CF0895AF924F
:10382000BF92CF92DF92EF92FF920F931F93CF93AD
:10383000DF93C82ED12CE601C458DC4F9DA19923FB
:1038400009F44CC07E019FEFE91AF90AF70195A12E
:10385000911144C09EA58601000F111F04581C4FF2
:10386000F80134A525A5E32FF22FE90FF11DE90F8B
:10387000F11D259134912F3FFFEF3F0711F41DA259
:103880002DC039ABF601EE0FFF1FEA57FC4F33276F
:10389000220F331F05A0F6A1E02DE20FF31FA59024
:1038A000B490811117C00E94051BF801B3AAA2AA07
:1038B000F601EE0FFF1FE257FC4F16A215A281E0A2
:1038C000F70185A389E08BAF1EAEFE017B9615A2A2
:1038D000329615A229968DA18F5F8DA3DF91CF918E
:1038E0001F910F91FF90EF90DF90CF90BF90AF901E
:1038F000089570E0DB01AA0FBB1FA458BC4FD496FB
:103900002C91D497D5969C91D597E22FF92FE80F5B
:10391000F11DE80FF11D259134915F9696963C9329
:103920002E939597F901859194919091A503989F75
:10393000802D112464587C4FFB01B19685A3F901B9
:10394000A591B4914B2F50E0E82FF0E04E175F07A0
:1039500020F4F90125913491832FFB01B296899FC0
:10396000802D112485A30895AF92BF92CF92DF924C
:10397000EF92FF920F931F93CF93DF93182F062F91
:10398000C1E0D3E08AEFD82E9EEFE92E842F847019
:10399000C82E842F8270B82E842F8870A82E417074
:1039A000F42E8C2F880F8F5FE80ECC2081F04D2FE6
:1039B000400F6C2F610F8AEC93E00E94191E4C2F70
:1039C000400F6D2F610F8AEC93E00E94191EBB20FF
:1039D00081F0402F4D1B6C2F610F8AEC93E00E9409
:1039E000191E402F4C1B6D2F610F8AEC93E00E9433
:1039F000191EAA2081F04C2F400F612F6D1B8AECFD
:103A000093E00E94191E4D2F400F612F6C1B8AEC12
:103A100093E00E94191EFF2081F0402F4C1B612F64
:103A20006D1B8AEC93E00E94191E402F4D1B612FE5
:103A30006C1B8AEC93E00E94191ECD1744F4E7FC3E
:103A400004C0D150D394D394ED0CCF5FAACFDF91B3
:103A5000CF911F910F91FF90EF90DF90CF90BF908B
:103A6000AF9008959F92AF92BF92CF92DF92EF9264
:103A7000FF920F931F93CF93DF93F82EE62EB22E73
:103A800003E0020FD0E0C3E08AEFC82E1EEF842FC0
:103A90008170982EAA24A394A20E4270D42EDF5FC8
:103AA000802F8B19180F9920A1F02C2F220F2A0D8F
:103AB0004E2D4C1B6D2F6F0D8AEC93E00E94941ECF
:103AC000202F4E2D4D1B6C2F6F0D8AEC93E00E9422
:103AD000941EDD20A1F02C2F220F2A0D4E2D4C1B01
:103AE0006F2D6D1B8AEC93E00E94941E202F4E2DAB
:103AF0004D1B6F2D6C1B8AEC93E00E94941EDC170B
:103B000044F417FD04C0C150C394C3941C0D0E5F50
:103B1000C6CFDF91CF911F910F91FF90EF90DF9073
:103B2000CF90BF90AF909F900895CF92DF92EF9289
:103B3000FF920F931F93CF93DF936B01770FEE08E4
:103B4000FF08F7FE1BC0EC016DE20E9427168C01F6
:103B500044275527BA014C195D096E097F092AE0EF
:103B6000CE010E946716800F911FDF91CF911F91A8
:103B70000F91FF90EF90DF90CF9008952AE0B7016A
:103B8000A601DF91CF911F910F91FF90EF90DF90F1
:103B9000CF900C9467168091980390919903892B8C
:103BA000B1F18091A0038F7169F584E10E94A4179F
:103BB000BC01990F880B990B0E948B1F26EE3FE3E7
:103BC0004EEC50E40E94EF1F0E945A1F9B0170931D
:103BD000970360939603672B91F084E0809395039D
:103BE000E8E9F3E080E0419151912417350718F49A
:103BF0008093950308958F5F8430A9F703C08FEFFA
:103C0000809395038091A0038F5F8093A003089514
:103C100028EF31E0E9E7F1E0DF01A9011D92415011
:103C20005040E1F7DC0119961C9219971A961C92E4
:103C30000895FC01643508F053C0403308F050C0CB
:103C400090A1742F759575957595262F062E000CED
:103C5000330B542F57709230A1F4F901E758FE4FFF
:103C600084E57802E00DF11D1124808190E0052E9D
:103C700002C0959587950A94E2F78095982F9170E8
:103C80000AC0933041F48485817046274095417085
:103C9000841303C014C0911112C084E57802200D72
:103CA000311D1124F901E758FE4F81E090E001C079
:103CB000880F5A95EAF780959081892310C084E592
:103CC0007802200D311D1124F901E758FE4F81E0E3
:103CD00090E001C0880F5A95EAF79081892B808384
:103CE0000895DF92EF92FF920F931F93CF93DF938C
:103CF0001F92CDB7DEB78C01D62EF42EE12CE21642
:103D000054F46E2D6D0D4F2DC80129830E94191E8C
:103D1000E3942981F4CF0F90DF91CF911F910F9100
:103D2000FF90EF90DF900895DF92EF92FF920F9354
:103D30001F93CF93DF931F92CDB7DEB78C01D62EA2
:103D4000F42EE12CE21654F44E2D4F0D6D2DC801CA
:103D500029830E94191EE3942981F4CF0F90DF91EB
:103D6000CF911F910F91FF90EF90DF90089578947D
:103D700084B5826084BD84B5816084BD85B5826070
:103D800085BD85B5816085BD80916E008160809321
:103D90006E0010928100809181008260809381008A
:103DA000809181008160809381008091800081609A
:103DB000809380008091B10084608093B1008091F5
:103DC000B00081608093B00080917A00846080931D
:103DD0007A0080917A00826080937A0080917A00E4
:103DE000816080937A0080917A00806880937A0065
:103DF0001092C1000E949406C0E0D0E00E941C0A0C
:103E00002097E1F30E940000F9CF1092CD031092A9
:103E1000CC0383E491E09093CB038093CA0308958D
:103E2000DB018F939F930E940421BF91AF91A29FCA
:103E3000800D911DA39F900DB29F900D11240895A8
:103E4000991B79E004C0991F961708F0961B881FEC
:103E50007A95C9F78095089597FB072E16F400947C
:103E600007D077FD09D00E94401F07FC05D03EF423
:103E7000909581959F4F0895709561957F4F089516
:103E8000AA1BBB1B51E107C0AA1FBB1FA617B70780
:103E900010F0A61BB70B881F991F5A95A9F780959C
:103EA0009095BC01CD010895EE0FFF1F0590F49190
:103EB000E02D09940E94CE1F88F09F5798F0B92FEB
:103EC0009927B751B0F0E1F0660F771F881F991F4F
:103ED0001AF0BA95C9F714C0B13091F00E94E81FEA
:103EE000B1E008950C94E81F672F782F8827B85FFA
:103EF00039F0B93FCCF3869577956795B395D9F7A7
:103F00003EF490958095709561957F4F8F4F9F4FB0
:103F10000895E89409C097FB3EF4909580957095BC
:103F200061957F4F8F4F9F4F9923A9F0F92F96E905
:103F3000BB279395F695879577956795B795F1117A
:103F4000F8CFFAF4BB0F11F460FF1BC06F5F7F4F17
:103F50008F4F9F4F16C0882311F096E911C0772329
:103F600021F09EE8872F762F05C0662371F096E832
:103F7000862F70E060E02AF09A95660F771F881F01
:103F8000DAF7880F9695879597F9089557FD905819
:103F9000440F551F59F05F3F71F04795880F97FB0D
:103FA000991F61F09F3F79F08795089512161306C7
:103FB0001406551FF2CF4695F1DF08C016161706F6
:103FC0001806991FF1CF869571056105089408952B
:103FD000E894BB2766277727CB0197F908950E94BD
:103FE00002200C9473200E94652038F00E946C20FF
:103FF00020F0952311F00C945C200C946220112485
:104000000C94E91F0E94C61F70F3959FC1F3950F92
:1040100050E0551F629FF001729FBB27F00DB11D4C
:10402000639FAA27F00DB11DAA1F649F6627B00DDC
:10403000A11D661F829F2227B00DA11D621F739FC5
:10404000B00DA11D621F839FA00D611D221F749FD3
:104050003327A00D611D231F849F600D211D822F1A
:10406000762F6A2F11249F5750409AF0F1F0882341
:104070004AF0EE0FFF1FBB1F661F771F881F91506E
:104080005040A9F79E3F510580F00C945C200C94A1
:10409000E91F5F3FE4F3983ED4F3869577956795E3
:1040A000B795F795E7959F5FC1F7FE2B880F911D98
:1040B0009695879597F9089597F99F6780E870E03E
:1040C00060E008959FEF80EC089500240A9416168E
:1040D000170618060906089500240A9412161306F6
:1040E000140605060895092E0394000C11F4882384
:1040F00052F0BB0F40F4BF2B11F460FF04C06F5FA0
:104100007F4F8F4F9F4F089581E090E0F8940C947B
:1041100048218F929F92AF92BF92CF92DF92EF92FF
:10412000FF92CF93DF93EC01688179818A819B8133
:10413000611571058105910521F464E279ED8BE546
:1041400097E02DE133EF41E050E00E94E520490186
:104150005A019B01AC01A7EAB1E40E9404216B0162
:104160007C01ACEEB4EFA50194010E941221DC01A8
:10417000CB018C0D9D1DAE1DBF1DB7FF03C0019768
:10418000A109B04888839983AA83BB83BC01CD0170
:104190009F77DF91CF91FF90EF90DF90CF90BF900E
:1041A000AF909F908F9008950E948920089589E193
:1041B00091E00E94892008956093190170931A017B
:1041C00080931B0190931C010895052E97FB1EF40C
:1041D00000940E94FC2057FD07D00E94172107FC85
:1041E00003D04EF40C94FC205095409530952195C9
:1041F0003F4F4F4F5F4F0895909580957095619513
:104200007F4F8F4F9F4F08950E943921A59F900D9A
:10421000B49F900DA49F800D911D11240895B7FFA8
:104220000C9404210E940421821B930B0895A1E2A7
:104230001A2EAA1BBB1BFD010DC0AA1FBB1FEE1F20
:10424000FF1FA217B307E407F50720F0A21BB30B6B
:10425000E40BF50B661F771F881F991F1A9469F7E7
:1042600060957095809590959B01AC01BD01CF0143
:104270000895A29FB001B39FC001A39F700D811D3F
:104280001124911DB29F700D811D1124911D08955F
:04429000F894FFCFD0
:10429400010010000A000A0014000B002A001E008E
:1042A4001E000100000304800001000000B400921D
:1042B4000070003C011A01F800D600C401A201807C
:1042C400015E0183025D0237020B02EB01E601008D
:1042D400000000241A4A140D0A004C4F4144455270
:0242E4000000D8
:00000001FF
