:100000000C9462030C948A030C948A030C948A0364
:100010000C948A030C948A030C948A030C948A032C
:100020000C948A030C948A030C948A030C94BB11DD
:100030000C948A030C948A030C948A030C948A030C
:100040000C9432120C948A030C948A030C948A0345
:100050000C948A030C948A030C948A030C948A03EC
:100060000C948A030C948A0305A84CCDB2D44EB9E3
:100070003836A9020C50B9918688083CA6AAAA2A4B
:10008000BE000000803F301C7FFFFFFFFFC08000EC
:100090000000002080000000002080000000002000
:1000A0008000000000208000000000208000000090
:1000B0000020800000000020800000000020800060
:1000C00000000020800000000020800000000020D0
:1000D0008000000000208000000000208000000060
:1000E00000208000000000207F03FFFFFFC000848D
:1000F0000000000000780000000000000000000088
:10010000000C0000000000120000000000120000BF
:100110000000000C00000000000040000000000093
:10012000A0000000000040000000000004000000EB
:10013000481400000000001FFF0000000000000045
:10014000102B00000000000000103500000000002F
:1001500000001FFF000000000000000ABE000000B9
:1001600000000000083600000000000000082A001F
:100170000000000000000836000000000000000839
:100180002A0000003FFFFFFFF837F00000400000AA
:1001900000082A0800008008880018360400011CA6
:1001A000077000282A02000236000280263701006C
:1001B000047F00014A11FE808008C98000050C0000
:1001C000804011F6C0000003FF0020232B600000D8
:1001D0000000001047DAB00000000000088CAAD828
:1001E00000000000000410200000000000000000DB
:1001F00000000000000000000000000000000000FF
:10020000000007C00FE05FF0A80847F00D58049009
:100210000B680C1806300FF80FF81E3C0BE80FF8AF
:1002200007F0022002200220102000000000000041
:1002300000000000000000000000000000000000BE
:1002400000000000000047C0AFE05FF0080807F0C2
:100250000D5804900B680C1A06350FFE0FFC1E3863
:100260000BF00FF007F002200220401C07FFFFFFF9
:10027000FE0000000FFFFFFFFF0000000F800007DF
:10028000FFE00000073FFFF3BF900000025201298A
:100290001F88000002AC00D50F8800000730003333
:1002A00083080000090C84C2411000000B0C84C3B9
:1002B00040E00000090102024000000005030302C3
:1002C0008000000002C4CC8D0000000001383072B4
:1002D0000000000007000003800018C019000002A1
:1002E000600025206101320218002720D580CC054E
:1002F000540015400080000402002AA0AAC0000A91
:10030000AB3FFFFF5560001555200880AAA0001ADA
:10031000AB200880FFE0001FFF3FFFFFAAA0001AEC
:10032000AA9FFDFFFFE0001FFF900500FFF0003FC8
:10033000FF9FFDFFAAB0002AAA900000FFF0003F37
:10034000FF9FFDFFFFF8007FFFD00500584D415390
:100350002044454D4F20323031340003053F213FCA
:100360000A100A1208120E1C0E0C1E0C141A141677
:100370001F161E131E1E1B1E1E1F1E3F213F3A2F3F
:100380003A173D173F213F181F02040A041F0E04AD
:10039000040E1F0A1F0A0E0E1F04110E2E252E2FEB
:1003A0002A2E262929021F02081F08150E04040EF2
:1003B000150E15151B151B040604040C0400000083
:1003C0000017000300031F0A1F16371A1904130A27
:1003D000153A000300000E11110E000A040A040E63
:1003E000040030000404040010001804031F111F4F
:1003F000121F101D151711151F07041F17151D1F9C
:10040000151D01011F1F151F17151F000A000032BF
:1004100000040A110A0A0A110A040115020E111732
:100420001E051E1F150A0E110A1F110E1F15111F82
:1004300005010E111D1F041F111F1108100F1F04AD
:100440001B1F10101F061F1E040F0E110E1F090682
:100450000E112E1F051A121509011F011F101F0F63
:10046000180F1F0C1F1B041B031C03191513001F5F
:1004700011030418111F00020102202020000102B4
:100480000C121E1F120C0C12120C121F0C1A140448
:100490001E05242A1E1F021C141D1020201D1F08CB
:1004A00014111F101E041E1E021C0C120C3E0A0406
:1004B0000C123E1E040214160A020F120E101E0E1B
:1004C000100E1E081E120C1226281E322A26041E8A
:1004D00021001F00211E040102013F213F0A4E6F2F
:1004E0002053442063617264206F720A6E6F204C47
:1004F0004F414445522E4845580A0A153A457869F5
:1005000074001D20466C617368696E670A20206C58
:100510006F616465722E2E2E0A0A444F4E275420B6
:100520005455524E204F464621004E4F20424154D2
:10053000544552590A0A504C454153450A545552A4
:100540004E204F4646001773617665001662616360
:100550006B001574797065000A0A0A153A6F6B61B1
:100560007920163A6564697400596F7520656E7458
:10057000657265640A00540A03E181867F3E186D46
:10058000830F0F0E0183866033186DC3198F180314
:10059000C38E6033186DE330CF1803C39E603630CE
:1005A000CDE360CF3006C79E7E3E30CDB360CF3006
:1005B0000CC6F6603330D9B660CF33CFCCF660616D
:1005C000B0DB1E60CF30D86CE6C061B0DB1E618F3F
:1005D00019986CC6C063B19B0E330F0FB078C6FF7D
:1005E0007E1F1B061E0F17534400161378001613A8
:1005F000140015102000152010000000050089309F
:1006000008023802497868140000450068010000BB
:10061000050068013801000005003801680100008C
:10062000F6E8DBCFC3B8AEA49B928A827B746E6877
:10063000625C57524E4945413E3A3734312E2C299F
:10064000272523211F1D1C1A191716151413121103
:10065000100F0E0D0C0B0A090807065F0663060152
:1006600001F7030101FF0300000000240027002A16
:100670000000000000250028002B000000000023DF
:1006800000260029000404040404040404020202F5
:1006900002020203030303030301020408102040C3
:1006A000800102040810200102040810200000004C
:1006B0000700020100000304060000000000000023
:1006C00000008C0311241FBECFEFD8E0DEBFCDBFEA
:1006D00011E0A0E0B1E0E4E9F0E302C005900D9282
:1006E000A432B107D9F713E0A4E2B1E001C01D9232
:1006F000A53BB107E1F716E0C4ECD6E004C02297B1
:10070000FE010E944418C23CD107C9F70E94AA14F6
:100710000C9448180C94000010927501109274010A
:100720008FE191E090937301809372010895EF92AD
:10073000FF920F931F93CF93DF9384E291E00E9487
:10074000D50C882309F4A8C014E010937B0182E043
:1007500080937C0182E791E060E071E00E945E1589
:1007600010937B0182E791E067E071E00E945E15E3
:1007700082E791E060E040E026E830E00E945B081C
:1007800082E791E067E04CE120E331E00E945B0802
:10079000C0E0D0E0BE01882777FD8095982F0E94A9
:1007A00042162AE939E949E95FE30E94CE167B0146
:1007B0008C016091AA017091AB01882777FD80952B
:1007C000982F0E94421620E030E040E85EE30E944D
:1007D000CE169B01AC01C801B7010E94AB150E9467
:1007E000311720E030E040E450E40E94CE160E9431
:1007F0000F16162FC0FF02C01A5C08C01B5C82E7F0
:1008000091E0612F4C2F0E949D051E5F82E791E0D1
:10081000612F4C2F0E949D051E5F82E791E0612FA2
:100820004C2F0E949D051E5F82E791E0612F4C2FA7
:100830000E949D052196CC31D10509F0ABCF809166
:10084000AA019091AB0101969093AB018093AA010C
:100850008091AC019091AD0101969093AD01809390
:10086000AC01449724F01092AD011092AC0180913C
:10087000AC019091AD010B973CF482E791E067E108
:1008800047E026EE31E006C082E791E067E147E00D
:1008900028E232E00E945B08DF91CF911F910F9117
:1008A000FF90EF9008950F931F9304E211E0C801A9
:1008B0000E94F10EC8016CE473E04AE652E00E9427
:1008C0008E0D10923C011F910F910895882319F409
:1008D0008CB5806202C08CB58F7D8CBD08959CB5AF
:1008E000937F982B9CBD08952CB5382F33702C7FA7
:1008F000322B3CBD2DB590E09595879595958795C4
:1009000081702E7F822B8DBD08958AE061E00E9468
:1009100003148AE061E00E94C4138CB580618CBD31
:100920008CB580648CBD8DE061E00E94C4138BE0C7
:1009300061E00E94C4130895FC0181E08083089562
:1009400085E070E00E94641308956F927F928F9209
:100950009F92AF92BF92CF92DF92EF92FF920F934E
:100960001F93CF93DF93EC0189819A818C0124E05E
:10097000000F111F2A95E1F7081B190B85E10E9452
:100980004213BC01600F711F84E0769567958A95CC
:10099000E1F77A8369838881882381F12E813F8101
:1009A0006217730710F4B90106C088859985861708
:1009B000970708F4BC0100D000D080E090E040E050
:1009C00050E0E884F98400E010E0AD80BB24CC2442
:1009D000DD246C80772488249924EDB7FEB76182EA
:1009E0007282838294820E9461156B830F900F90B4
:1009F0000F900F9085E070E00E946413DF91CF911B
:100A00001F910F91FF90EF90DF90CF90BF90AF902C
:100A10009F908F907F906F900895FC018CE39FE0F2
:100A20009383828384E0818381E084870895CF93D8
:100A3000DF93EC018C8590E08F719070892B69F5C4
:100A400084E10E944213AA2797FDA095BA2FBC010A
:100A5000CD010E94421626EE3FE34EEC50E40E9488
:100A6000CE160E9414169B01AC017B836A8361152C
:100A7000710589F084E08983B901FE0120E0848159
:100A800095816817790710F429830AC02F5F329681
:100A90002430A9F702C08FEF89838C858F5F8C8704
:100AA000DF91CF910895FC0188E0808389E0818304
:100AB00087E0828386E0838384E0848382E0858389
:100AC00081E18683089520E0FC01E60FF11D878116
:100AD000813009F421E0822F08950F931F93CF9363
:100AE000DF93EC0110E00FEF888162E00E94C413F5
:100AF00088810E9457142F81892B19F42F5F2F832F
:100B000007C0222349F02F3F11F41F8201C00F8339
:100B1000888160E00E94C4131F5F2196173021F77F
:100B2000DF91CF911F910F910895FC01678F60A312
:100B30000895FC01678F40A30895FC016435A8F572
:100B400047FD33C040338CF5878D942F959595954F
:100B50009595772767FD70954770882399F0E4E5B0
:100B60009E02F0011124E60FF71FE255FE4F81E0CF
:100B700090E002C0880F991F4A95E2F72081282B48
:100B800020830895E4E59E02F0011124E60FF71F8B
:100B9000E255FE4F81E090E002C0880F991F4A9510
:100BA000E2F780952081282320830895AF92BF9299
:100BB000CF92DF92EF92FF920F931F93CF93DF9329
:100BC000EC01162FF42EE22EAA24402F552747FDC4
:100BD00050958F2D992787FD9095481B590B57FFEE
:100BE00003C0509541955F4F2E2D332727FD30953B
:100BF000812F992787FD9095281B390B37FF03C05C
:100C0000309521953F4F2417350744F4AA24A39427
:100C10008F2DF12E182F802F0E2DE82EE11634F493
:100C20008E2DE12E182F802F0F2DF82EDE2CD11AAD
:100C3000202F332727FD30958F2D992787FD9095FD
:100C4000281B390B37FF03C0309521953F4FB22E3B
:100C5000F0161CF0CC24CA9402C0CC24C3948D2D71
:100C6000D7FC8F5F082F059511C0AA2021F0CE0177
:100C70006F2D412F03C0CE01612F4F2D0E949D0586
:100C80000B1907FF02C0FC0C0D0D1F5FE1166CF77E
:100C9000DF91CF911F910F91FF90EF90DF90CF9058
:100CA000BF90AF9008950F93042F322F262F21501D
:100CB000230F0E94D6050F9108950F93362F042F0E
:100CC0000150020F232F0E94D6050F9108959F9285
:100CD000AF92BF92CF92DF92EF92FF920F931F934A
:100CE000CF93DF936C01B62E942EA02EC0E0D0E0FF
:100CF000E62EFF24E7FCF094022F112707FD109544
:100D00000E0D1F1D06C0C601492D2A2D0E945D062D
:100D100021966B2D6C0FCE018E0D9F1D80179107B4
:100D200094F3DF91CF911F910F91FF90EF90DF909F
:100D3000CF90BF90AF909F9008952F923F925F9277
:100D40006F927F928F929F92AF92BF92CF92DF92DB
:100D5000EF92FF920F931F93DF93CF9300D000D0B9
:100D600000D0CDB7DEB79E838D83C62ED42EEE2461
:100D7000E394E21A8EEF289F502C1124842E8A943B
:100D8000962E9A94A42EA394B62EB394F22E662493
:100D900023E0722E10E0C801847090709A838983DA
:100DA000F801E270F070FC83EB8398E0292E312C7F
:100DB000202231220170107054C0E7FC04C0FA9464
:100DC000F2E05F0EE50C639489819A81892B71F0C2
:100DD0004F2D4D0D8D819E816B2D0E949D056F2D98
:100DE0006C0D8D819E814A2D0E949D05EB81FC81B9
:100DF000EF2B71F04D2D4F198D819E816B2D0E942F
:100E00009D056F2D6C0D8D819E81482D0E949D0545
:100E10002114310471F06C2D6F198D819E814A2D42
:100E20000E949D054F2D4D0D8D819E81692D0E9443
:100E30009D050115110571F06C2D6F198D819E8135
:100E4000482D0E949D054D2D4F198D819E81692D44
:100E50000E949D05E70CF2E07F0E8A949A94A39479
:100E6000B3946F140CF4A9CF26960FB6F894DEBF96
:100E70000FBECDBFCF91DF911F910F91FF90EF90EB
:100E8000DF90CF90BF90AF909F908F907F906F90AA
:100E90005F903F902F9008954F925F926F927F9254
:100EA0008F929F92AF92BF92CF92DF92EF92FF927A
:100EB0000F931F93CF93DF93EC01A62E742E9E2DDC
:100EC000FF24F394F21A8EEF289F802C1124B42E65
:100ED000BA9453E0C52ECE0CE22EDD2443E0942ECE
:100EE00010E031E0432E512C40225122692E6394B0
:100EF0000270107034C0F7FC04C0EA9482E0880EDF
:100F0000F80CD3944114510489F06D2D6A0D472DCE
:100F10004E192E2D220F260DCE010E945D066E2D3C
:100F20006A0DCE014B2D2C2D0E945D060115110579
:100F300089F06A2D6D19472D4E192E2D220F260D81
:100F4000CE010E945D066A2D6E19CE014B2D2C2D0F
:100F50000E945D06F90C82E0980EBA94C80EDE1469
:100F600054F2DF91CF911F910F91FF90EF90DF909E
:100F7000CF90BF90AF909F908F907F906F905F9039
:100F80004F9008957F928F929F92AF92BF92CF928F
:100F9000DF92EF92FF920F931F936C01962EA42E77
:100FA000F22E7E2C760E1EEFE19E102D1124812E46
:100FB000820E672D282D0E945306B02EBA0CBA94CB
:100FC000C601672D4B2D282D0E945306AE0C100F25
:100FD000C601692D4A2D212F0E945D06F90CFA9455
:100FE000C6016F2D4A2D212F0E945D06C601672D77
:100FF0004A2D2E2D01E00E949D06FE18C6016F2D80
:101000004A2D2E2D02E00E949D06BE18C6016F2DAE
:101010004B2D2E2D04E00E949D06C601672D4B2D01
:101020002E2D08E00E949D061F910F91FF90EF90DA
:10103000DF90CF90BF90AF909F908F907F9008955A
:101040008F929F92AF92BF92CF92DF92EF92FF92D8
:101050000F931F936C01162FA42E922EF02EBE2CF0
:101060008E2C860E2EEFE29EE02C11242E2D290DC3
:10107000682D0E946706AB0CFA94FE0C1150190DF6
:101080001B19C601612F4A2D2B2D01E0EF2C0E9468
:101090004C07C601682D4A2D2B2D02E00E944C07FB
:1010A0001F910F91FF90EF90DF90CF90BF90AF9086
:1010B0009F908F9008953F924F925F926F927F9290
:1010C0008F929F92AF92BF92CF92DF92EF92FF9258
:1010D0000F931F93CF93DF934C01362E442EF901CB
:1010E000A490319654906F010894C11CD11C8A2D94
:1010F000992787FD9095079668E070E00E94F217A7
:10110000E62EFF24E7FCF09400E0C0E0D0E060E8C9
:10111000662E712C26C0E12FE595E595E595FF2714
:10112000E7FDF095EC0FFD1FEC0DFD1DE4912E2F5A
:1011300030E0812F8770A30102C0559547958A95AD
:10114000E2F724233523232B31F0612F630DC401F3
:101150004B2D0E949D051F5F1A15ECF20F5FCE0DFF
:10116000DF1D051524F410E0B02EB40CF5CFDF918F
:10117000CF911F910F91FF90EF90DF90CF90BF9094
:10118000AF909F908F907F906F905F904F903F9027
:1011900008953F924F925F926F927F928F929F92AB
:1011A000AF92BF92CF92DF92EF92FF920F931F9375
:1011B000CF93DF93EC01862EA42E422F102F3F8C6D
:1011C00023E526170CF4ABC03FE23A150CF4A7C098
:1011D000C02EDD248C8190E001979C01C29EC0014D
:1011E000C39E900DD29E900D1124262F332727FDEC
:1011F0003095820F931F181619060CF090C08D8140
:1012000090E09C01C29EC001C39E900DD29E900DA5
:1012100011242A2D332727FD3095820F931F18168E
:1012200019060CF07CC09924442E55246DC09C01F5
:10123000215030404217530711F460E00EC0429E27
:10124000C001439E900D529E900D1124840F951F56
:10125000ED8DFE8DE80FF91F64914C9DC0014D9DF1
:10126000900D5C9D900D1124682C680EBB24792C88
:10127000780C3FC0E62EFF2460FF19C0113039F40E
:101280004B2D4A0DCE01672D0E949D052EC02C9D31
:10129000C0012D9D900D3C9D900D11244A2D480FAD
:1012A000CE01662D212F012F0E9467061EC098A136
:1012B0008F8D9817D1F09F8F113039F44B2D4A0D37
:1012C000CE01672D0E949D050FC02C9DC0012D9D54
:1012D000900D3C9D900D11244A2D480FCE01662D96
:1012E000212F012F0E9467063F8EF594E7946E2D03
:1012F000B3942B2D332727FD30958D8190E028174F
:1013000039070CF4B7CF9394492D552747FD5095D5
:101310008C8190E0481759070CF489CF3F8EDF91FC
:10132000CF911F910F91FF90EF90DF90CF90BF90E2
:10133000AF909F908F907F906F905F904F903F9075
:1013400008950F93CF93DF93EC01262F6A3049F471
:101350008D819885899F802D11249A85980F9A8771
:1013600026C06D3029F169854A8508850E94C90823
:101370009C816885969F402D11248985480F498757
:101380008F818823A9F0552747FD5095699F9001CB
:10139000112484E590E0821B930B8417950744F495
:1013A0009D81699F902D11248A85890F8A871986CE
:1013B00081E090E0DF91CF910F9108951F93CF933B
:1013C000DF93EC01162FF8948E8560E00E940314E1
:1013D0008F8518161CF460E00E9403141EBD0DB426
:1013E00007FEFDCF8EB58F8518161CF461E00E94B4
:1013F00003147894DF91CF911F910895FF920F937A
:101400001F93CF93DF93EC01FF2400E010E06F2DDA
:101410006064CE010E94DE09CE0160E80E94DE0910
:101420008E8561E00E9403148F8518161CF460E01D
:101430000E940314F801E255FE4F90E080818EBDBA
:101440000DB407FEFDCF8EB59F5F31969435B1F791
:101450008F8518161CF461E00E940314F3940C5A53
:101460001F4F86E0F81699F6CE0160E40E94DE096F
:10147000DF91CF911F910F91FF900895CF93DF934C
:10148000DC0188EF91E0EEEAF1E0EF019C011992B6
:1014900021503040E1F719961C9219971A961C9228
:1014A000DF91CF910895EF920F93CF93DF93EC01EB
:1014B0004D876C872E87E88A0F8781E088878F8F1A
:1014C00018A28F83EBE5F3E084918F5F8C833196D4
:1014D00084918F5F8D833196FE8FED8F0E948504FE
:1014E00081E00E94660485E00E9474048CE00E9402
:1014F0006F048D8561E00E94C4138C8561E00E94B9
:10150000C4138E8561E00E94C413888918161CF4E8
:1015100061E00E94C4138F8518161CF461E00E94DC
:10152000C413888918166CF460E00E9403146AE002
:1015300070E080E090E00E94AE12888961E00E9435
:101540000314EC852E2F332727FD3095F901EB5737
:10155000F94FE491F0E0EE0FFF1FEF58F94F85913E
:1015600094919C8B8B8B2756394FF90184918A8FEC
:10157000ED852E2F332727FD3095F901EB57F94FD5
:10158000E491F0E0EE0FFF1FEF58F94F8591949131
:101590009A8B898B2756394FF9018491898FEF8572
:1015A0002E2F332727FD3095F901EB57F94FE491A2
:1015B000F0E0EE0FFF1FEF58F94F859194919E8B4D
:1015C0008D8B2756394FF90184918B8FEE852E2F05
:1015D000332727FD3095F901EB57F94FE491F0E0FF
:1015E000EE0FFF1FEF58F94F85919491988F8F8BD5
:1015F0002756394FF90184918C8FCE0161E20E9408
:10160000DE09CE0164E10E94DE098B8587FF02C0FE
:101610008FE78B876B856068CE010E94DE09CE0163
:1016200060E20E94DE09CE016CE00E94DE09CE017C
:101630000E94FE09DF91CF910F91EF900895CF9313
:10164000DF93DC01E0E8FFE685919491ED01C75A54
:10165000DF4FAD0141595F4F8150904C09F04EC0B2
:10166000E6E9FFE6E491E883E7E9FFE6E491149612
:10167000EC931497E8E9FFE6E4911596EC9315973F
:10168000E9E9FFE68591949117969C938E931697BE
:10169000EBE9FFE68591949119969C938E931897A8
:1016A000EDE9FFE6E4919B96EC939B97EEE9FFE66C
:1016B000E4919A96EC939A97EFE9FFE6E491EA01B8
:1016C000E883E0EAFFE6859194915D969C938E9382
:1016D0005C97E2EAFFE6859194915F969C938E93E6
:1016E0005E97E4EAFFE68591949191969C938E93A0
:1016F0009097E6EAFFE68591949132C08CE3888367
:1017000014961C9214972FEF15962C93159780E240
:1017100093E017969C938E93169784ED93E0199619
:101720009C938E93189781E09B968C939B979A96A7
:101730008C939A97FA0120838CEA9DE05D969C93A6
:101740008E935C978EED9DE05F969C938E935E9753
:1017500084E79EE091969C938E9390978CE39FE014
:1017600093969C938E939297DF91CF910895EF92E9
:10177000FF920F931F93CF93DF937C018C01025B49
:101780001F4FC8010E943E0AC80162E075E00E9436
:10179000E314C8010E94FE0983E00E94740482E100
:1017A00091E0EEEFFFE3099584E590E0E80EF91E85
:1017B000F7011082C8016DED74E00E942E15C8017A
:1017C0000E94FE09E701CA54D040CE010E946D0577
:1017D000CE0164E00E946305882339F462E370E07F
:1017E00080E090E00E94AE12F0CFDF91CF911F9188
:1017F0000F91FF90EF9008950F931F93CF93DF9376
:10180000EC018C01025B1F4FC80161E040E00E94C7
:101810009905FE01E95AFF4FCE5ADF4F85E59881C1
:10182000891B808326961882C855D040698D613007
:1018300081F1613028F0888D653008F043C03DC0EB
:10184000CE0185960E94B80FCE0160E00E94A004F0
:10185000C8010E943E0ACA5ADF4F81E08883C8014E
:101860006AE275E00E94E314C8010E94FE0983B792
:10187000817F846083BF83B7816083BF83B78160CA
:1018800083BF889583B78E7F83BF83B78E7F83BFE7
:101890001FC0C059DF4F88819981AA81BB818F7099
:1018A0009070A070B0700897A105B10518F4C80138
:1018B00067E00CC0C80168E709C0882349F06B5F86
:1018C000C80104C0882321F0C8016FE20E940615F8
:1018D000DF91CF911F910F910895AF92BF92CF9258
:1018E000DF92EF92FF920F931F93CF93DF93EC0160
:1018F000CB57DF4F8881C558D040882309F44AC0B0
:101900008C3010F010E002C01CE0181BCA5ADF4FE8
:1019100081E08883C655D0406EE4C62ED12CCC0E13
:10192000DD1EC60160E00E94950553E5A52EB12C91
:10193000AC0EBD1EF50100814DE2F42E4F2D401B73
:10194000410F0D5FC60160E024E533E0E32E0E9405
:101950002008C60161E00E949505F5010081F01A9A
:10196000F10E0D5FC60160E04F2D24E50E94C20715
:10197000C95ADF4F84E08993F5018081181B115DFE
:101980001883AB9669917991C6010E94E31488810E
:1019900081508883DF91CF911F910F91FF90EF903D
:1019A000DF90CF90BF90AF900895AF92BF92CF924B
:1019B000DF92EF92FF920F931F93CF93DF93EC018F
:1019C000EFE7AE2EB12CA80EB91EF501E080F18034
:1019D000028113810E947A12E61AF70A080B190B8A
:1019E0007EE7C72ED12CCC0EDD1EF601808190E063
:1019F000A0E0B0E08E159F05A007B10708F081C0F8
:101A00008E0106581F4FF80180819181A281B38118
:101A10000097A105B10509F474C00E947A12F6017D
:101A20002081620F711D811D911DF50160837183FD
:101A300082839383FE01E059FF4F80819181A281CF
:101A4000B3810196A11DB11D80839183A283B383CD
:101A5000F80110821182128213820E948812CA58E1
:101A6000DF4F688379838A839B83C657D040CE013A
:101A70000E94A504CE010A960E946D05CE014896EB
:101A80000E94170581E032C08E010B5D1F4FC80117
:101A90000E94B40FC8010E948C10C8010E948211DC
:101AA000CE010E946D0CCE010E94FC0B8E01025BE8
:101AB0001F4FC8010E94FE09CC5ADF4F8881C455D0
:101AC000D040882319F4C8010E943E0A0E9488125F
:101AD000C658DF4F688379838A839B832497288144
:101AE0003981621B730B7A936A9380E0DF91CF9107
:101AF0001F910F91FF90EF90DF90CF90BF90AF902C
:101B00000895C658DF4F88819981AA81BB81CA5741
:101B1000D0400097A105B10541F7B6CF2F923F9273
:101B20004F925F926F927F928F929F92AF92BF92ED
:101B3000CF92DF92EF92FF920F931F93DF93CF9399
:101B4000CDB7DEB72B970FB6F894DEBF0FBECDBF73
:101B50009B878A877A8369835C834B838C010159D5
:101B60001F4FF8018081882309F422C18A859B8553
:101B70008A5A9F4F9B878A8781E0EA85FB8580830D
:101B800012921292E455F040FB87EA87108E9EE491
:101B9000E92EF12CEE0EFF1EC70161E00E949505B3
:101BA0008AE0282E312C8A859B85280E391EB5E2C5
:101BB0006B2E712C680E791EE981FA81F491FD83F8
:101BC000A7E58A2E912C880E991EF8E5CF2ED12CF0
:101BD000C80ED91EE2E54E2E512C480E591E8D5AC4
:101BE0009F4F9F838E8370E7A72EB12C8A859B859C
:101BF000A80EB91E198708878A859B850E94D50C77
:101C00008823D1F39D81992311F410E003C0EE8164
:101C1000FF811081C70160E040E026E735E00E94C7
:101C20005B088B819C81892B41F0145FC70160E0C8
:101C3000412F2B813C810E945B08F40110828CE0D3
:101C4000F6018083C70169817A810E94E314F20161
:101C5000208130E0C901880F991F820F931F909552
:101C600081959F4F8D5AF4018083EE81FF81208101
:101C700030E0C901880F991F820F931F90958195BD
:101C80009F4F835DF6018083F501808184FF04C04E
:101C9000C70166EF75E003C0C70162EF75E00E94FF
:101CA0002E15F201208130E0C901880F991F820FA3
:101CB000931F909581959F4F8D5AF4018083F60173
:101CC00080818F5F8083EA85FB8582A5882321F050
:101CD000C7016EEE75E003C0C7016AEE75E00E94B1
:101CE0002E15F201808190E09C01220F331F280FF6
:101CF000391F309521953F4F2D5AF4012083F6016D
:101D000080818F5F8083C70166EE75E00E942E158B
:101D1000C10165E00E946305882351F0EA85FB85D7
:101D200062A56F5FC3010E94EB11C3010E94E51120
:101D3000C10164E00E946305882399F4E885F98570
:101D40006081262F30E040E050E0F50180819181F4
:101D5000A281B38182179307A407B50708F16F3FEB
:101D6000F9F08A859B8581599F4F9B878A878FEFE2
:101D7000EA85FB858083EF56F040FB87EA87C30145
:101D800060E00E94580FC3010E94DF1181E0EA85E4
:101D9000FB85808F0DC08A859B850E94B70B2CCF59
:101DA000C10166E00E946305882309F425CFF3CFC3
:101DB0002B960FB6F894DEBF0FBECDBFCF91DF914B
:101DC0001F910F91FF90EF90DF90CF90BF90AF9059
:101DD0009F908F907F906F905F904F903F902F904B
:101DE0000895AF92BF92CF92DF92EF920F93CF936D
:101DF000DF936C018EE790E0C80ED91E82E3F601F6
:101E0000808381E090E0A0E0B0E0B293A29392934F
:101E100082936F0185EF9FEFC80ED91E8FEFF601F9
:101E2000808381E99FEFC80ED91EC6010E941F0B57
:101E3000C6010E949C04C6016FEF0E94A0044AE004
:101E4000A42EB12CAC0CBD1CC5010E945305C501CC
:101E50000E946D05C60148960E940D05C601825B71
:101E60009F4F6DE04BE020E10FE03EE0E32E0E944B
:101E7000530AE601A596CE010E94F811C50165E05E
:101E80000E946305882329F0CE0160E00E94EB11D7
:101E900006C0CE016CEF75E040E00E946A0FDF9152
:101EA000CF910F91EF90DF90CF90BF90AF900895BA
:101EB000FC01662371F4178A158A14A213A2108EEE
:101EC0001092AA031092A9031092A7031092B400D3
:101ED000118208950F931F93CF93DF93EC018B0131
:101EE000442371F460E00E94580F1E870D871B8AFF
:101EF0001A8A81E0898389E08E8B198E1B8E1D8E54
:101F0000DF91CF911F910F910895CF93DF93EC0153
:101F1000662339F58881882321F18981882309F591
:101F2000898590E0880F991FEF81F885E80FF91FE8
:101F3000859194912FEF8F3F920711F4188211C071
:101F40009C8790E0880F991FEA85FB85E80FF91FB1
:101F500065917491CE0140E00E946A0F89858F5F80
:101F60008987DF91CF91089560E00E94850F0895E1
:101F700060E00E94580F08950F93DC01002309F0E0
:101F800047C06230A1F1633030F4662351F0613014
:101F900009F03EC009C0633081F1643009F038C0F7
:101FA00032C056964C9334C0842F90E0880F991F0E
:101FB0001F962D913C915097280F391FF90185915B
:101FC000949190969C938E935F97FC0145915491C8
:101FD000642F91964C939197252F3327842F90E06F
:101FE0002817390708F4652F92966C9311C05996FB
:101FF0004C9359975A962C930BC05B964C935B97D6
:102000005C962C9305C05D964C935D975E962C93E1
:102010000F9108950F93CF93DF93EC01662309F09E
:1020200077C08981882309F473C08D89882309F0DA
:102030006FC0EA89FB89EE0FFF1F4D855E85E40FB7
:10204000F51F259134912115310509F049C0898981
:10205000813031F41B8A1A8AFA012591349140C0EB
:1020600019828881882379F0CE0160E00E94850F73
:102070008A899B89880F991FED85FE85E80FF91FD6
:10208000259134912DC01F8A1D8A1CA21BA2188E77
:102090001092AA031092A9031092A7031092B40001
:1020A00037C006E0369527950A95E1F76F70422F05
:1020B0004F71B5E036952795BA95E1F72051CE01DD
:1020C00000E00E94BC0F8A899B8901969B8B8A8BBA
:1020D000880F991FED85FE85E80FF91F2591349132
:1020E000B901769567957695679520FDDACF862FAD
:1020F0008F738C8B3D8B1DA21CA21BA281E08F8B4A
:102100008093A703188E8A899B8901969B8B8A8B63
:10211000DF91CF910F91089560E00E940A10089519
:10212000CF93DF93EC01662309F0E9C08F89882300
:1021300009F4E5C08D89882371F41F8A1D8A1CA2C9
:102140001BA2188E1092AA031092A9031092A70343
:102150001092B400D4C081508D8B8DA1882309F0DA
:1021600044C08BA19CA10196880F991FEF8DF8A107
:10217000E80FF91F85919491282F27702EA3AC01A9
:1021800073E0569547957A95E1F79A01369527952C
:10219000892F9927869586958FA32F738C81289FE9
:1021A000202D11242DA341704093AB038BA19CA142
:1021B00001969CA38BA329A130E082179307A8F076
:1021C0008AA1882329F0281B31093CA32BA30DC029
:1021D0001F8A1D8A1CA21BA2188E1092AA0310929D
:1021E000A9031092A7031092B4008DA181508DA372
:1021F000988D9F5F988F2FA18C89280F8C85280F31
:102200002A836B8D662369F0892F992787FD909526
:1022100070E00E94F2178C8D869F802D1124820F12
:102220008A838A8190E0CB966BE370E00E94F2177C
:102230008A832E892B83698D662379F0888D772791
:1022400067FD7095992787FD90950E94F2178A8DFA
:10225000869F802D1124820F8B836D8D662399F0CC
:10226000888D992787FD909570E00E94F217CB0129
:1022700062E070E00E94F2179E8D899F802D1124EC
:102280009B81890F8B838B818A300CF089E087FDDD
:1022900080E08B838C898F3309F41B82F894EA8168
:1022A000F0E0E05EF94FE491E093A8032D8130E087
:1022B0008B81992787FD9095A901489F9001499F9F
:1022C000300D589F300D112488A590E0A901489F3A
:1022D0009001499F300D589F300D11248EA19927F0
:1022E00087FD9095AC01249FC001259F900D349FE0
:1022F000900D11248093A9038093AA037894DF9111
:10230000CF91089560E00E94901008956091A90314
:10231000662381F18091A6038F5F8093A60390913D
:10232000A803891738F130E08091A703882309F4C6
:1023300031E03093A7031092A6038091AB0388236A
:10234000A9F08091190123E4829FC0011124895BC7
:102350008093190190E070E00E94DE178093AA0339
:1023600005C08091AA038093B40008953323C9F770
:1023700080E0F9CF08951F920F920FB60F921124AB
:102380002F933F934F935F936F937F938F939F937D
:10239000AF93BF93EF93FF930E948611FF91EF914C
:1023A000BF91AF919F918F917F916F915F914F916D
:1023B0003F912F910F900FBE0F901F90189568E1DD
:1023C00076E040E00E946A0F08956AE076E040E01F
:1023D0000E946A0F0895FC01862F668170E06F5F8E
:1023E0007F4F992787FD90950E94F2178583089566
:1023F0000F93FC0181E0848384E080A78BE596E065
:10240000908B8787CF0161E040E020E000E00E94F0
:10241000BC0F83E061E070E00E946413E1EBF0E048
:102420008081887F81608083F89410928000E1E849
:10243000F0E01082109285001092840088E191E013
:102440009093890080938800808188608083808158
:1024500081608083EFE6F0E0808182608083789401
:102460000F9108951F920F920FB60F9211242F9380
:102470003F938F939F93AF93BF938091B0039091BD
:10248000B103A091B203B091B3033091B4030196AC
:10249000A11DB11D232F2D5F2D3720F02D57019643
:1024A000A11DB11D2093B4038093B0039093B10399
:1024B000A093B203B093B3038091AC039091AD03AA
:1024C000A091AE03B091AF030196A11DB11D809301
:1024D000AC039093AD03A093AE03B093AF03BF9151
:1024E000AF919F918F913F912F910F900FBE0F90C1
:1024F0001F9018958FB7F8942091B0033091B103D5
:102500004091B2035091B3038FBFB901CA0108953E
:102510009FB7F8942091AC033091AD034091AE0386
:102520005091AF0386B5A89B06C08F3F21F02F5F67
:102530003F4F4F4F5F4F9FBF542F432F322F2227C4
:10254000280F311D411D511D82E0220F331F441FF2
:10255000551F8A95D1F7B901CA0108959B01AC01B5
:102560007FB7F8948091AC039091AD03A091AE0336
:10257000B091AF0366B5A89B05C06F3F19F00196F7
:10258000A11DB11D7FBFBA2FA92F982F8827860FB5
:10259000911DA11DB11D62E0880F991FAA1FBB1FCD
:1025A0006A95D1F7BC012DC0FFB7F8948091AC03B8
:1025B0009091AD03A091AE03B091AF03E6B5A89B97
:1025C00005C0EF3F19F00196A11DB11DFFBFBA2F45
:1025D000A92F982F88278E0F911DA11DB11DE2E014
:1025E000880F991FAA1FBB1FEA95D1F7861B970B6F
:1025F000885E9340C8F221503040404050406851BE
:102600007C4F211531054105510571F608957894E7
:1026100084B5826084BD84B5816084BD85B58260E7
:1026200085BD85B5816085BDEEE6F0E08081816085
:102630008083E1E8F0E01082808182608083808185
:1026400081608083E0E8F0E0808181608083E1EB5D
:10265000F0E0808184608083E0EBF0E08081816045
:102660008083EAE7F0E080818460808380818260FB
:1026700080838081816080838081806880831092E4
:10268000C1000895982F8E3008F09E509770809169
:102690001A018295880F880F807C892B80937C009B
:1026A00080917A00806480937A0080917A0086FD20
:1026B000FCCF2091780040917900942F80E030E0A9
:1026C000282B392BC90108951F93CF93DF93182F1F
:1026D000EB0161E00E94C413209709F44AC0CF3F88
:1026E000D10509F449C0E12FF0E0E355F94F849199
:1026F0008330C1F0843028F4813051F08230B1F55C
:102700000CC0863019F1873049F1843079F514C056
:1027100084B5806884BDC7BD33C084B5806284BD84
:10272000C8BD2EC080918000806880938000D093C7
:102730008900C093880024C08091800080628093CB
:102740008000D0938B00C0938A001AC08091B000A3
:1027500080688093B000C093B30012C08091B00035
:1027600080628093B000C093B4000AC0C038D10525
:102770001CF4812F60E002C0812F61E00E940314ED
:10278000DF91CF911F910895CF93DF93482F50E0B1
:10279000CA018756994FFC0134914B57594FFA01A2
:1027A0008491882369F190E0880F991FFC01E95911
:1027B000F94FA591B491FC01EF58F94FC591D4910F
:1027C000662351F42FB7F8948C91932F9095892319
:1027D0008C93888189230BC0623061F42FB7F89401
:1027E0008C91932F909589238C938881832B888358
:1027F0002FBF06C09FB7F8948C91832B8C939FBFFB
:10280000DF91CF910895482F50E0CA018355994F29
:10281000FC012491CA018756994FFC0194914B57B2
:10282000594FFA013491332309F440C0222351F166
:10283000233071F0243028F42130A1F0223011F53A
:1028400014C02630B1F02730C1F02430D9F404C0D0
:10285000809180008F7703C0809180008F7D80936E
:10286000800010C084B58F7702C084B58F7D84BD91
:1028700009C08091B0008F7703C08091B0008F7D38
:102880008093B000E32FF0E0EE0FFF1FEF58F94FF9
:10289000A591B4912FB7F894662321F48C9190956B
:1028A000892302C08C91892B8C932FBF0895682FA8
:1028B00070E0CB018355994FFC012491CB018756E1
:1028C000994FFC0144916B57794FFB0194919923E7
:1028D00019F420E030E03CC0222351F1233071F0A4
:1028E000243028F42130A1F0223011F514C0263014
:1028F000B1F02730C1F02430D9F404C080918000B9
:102900008F7703C0809180008F7D8093800010C0FE
:1029100084B58F7702C084B58F7D84BD09C0809156
:10292000B0008F7703C08091B0008F7D8093B0009E
:10293000892F90E0880F991F8558994FFC01A59128
:10294000B4918C9120E030E0842311F021E030E05C
:10295000C9010895CF93DF930E9407130E94530487
:10296000C0E0D0E00E9497032097E1F30E940000AE
:10297000F9CFCF92DF92EF92FF920F931F93CF93F5
:10298000DF937C016B018A01C0E0D0E00FC0D6016B
:102990006D916D01D701ED91FC910190F081E02DD9
:1029A000C7010995C80FD91F015010400115110525
:1029B00071F7CE01DF91CF911F910F91FF90EF90B2
:1029C000DF90CF900895EF92FF920F931F93CF93D4
:1029D000DF937C018B01C0E0D0E0F8010F5F1F4F57
:1029E0006491662359F0D701ED91FC910190F0813B
:1029F000E02DC7010995C80FD91FEFCFCE01DF9198
:102A0000CF911F910F91FF90EF900895DC01ED9110
:102A1000FC910190F081E02D09950895EF92FF92CD
:102A20000F931F938C01DC01ED91FC910190F081DB
:102A3000E02D6DE009957C01D801ED91FC910190AC
:102A4000F081E02DC8016AE009959C012E0D3F1D23
:102A5000C9011F910F91FF90EF900895EF92FF929F
:102A60000F931F937C010E94E3148C01C7010E9405
:102A70000E159C01200F311FC9011F910F91FF906E
:102A8000EF900895CF93DF93EC016115710519F470
:102A900020E030E00FC0DB010D900020E9F7119736
:102AA000A61BB70BE881F9810280F381E02DAD010F
:102AB00009959C01C901DF91CF9108950E944215AB
:102AC00008952F923F924F925F926F927F928F92D2
:102AD0009F92AF92BF92CF92DF92EF92FF920F93AD
:102AE0001F93DF93CF93CDB7DEB73B014C011901A4
:102AF0002A016D897E898F89988D6A197B098C09D5
:102B00009D09621A730A840A950AA40193010E941E
:102B1000BF17E218F30804091509A80197010E94DC
:102B200027182A0D3B1D4C1D5D1DB901CA01CF910F
:102B3000DF911F910F91FF90EF90DF90CF90BF90AA
:102B4000AF909F908F907F906F905F904F903F904D
:102B50002F9008955058BB27AA270ED0E5C0D6D095
:102B600030F0DBD020F031F49F3F11F41EF4CBC0E5
:102B70000EF4E095E7FBC1C0E92FE7D080F3BA1768
:102B8000620773078407950718F071F49EF5FFC07C
:102B90000EF4E0950B2EBA2FA02D0B01B901900178
:102BA0000C01CA01A0011124FF27591B99F0593FBC
:102BB00050F4503E68F11A16F040A22F232F342F04
:102BC0004427585FF3CF469537952795A795F04052
:102BD0005395C9F77EF41F16BA0B620B730B840B67
:102BE000BAF09150A1F0FF0FBB1F661F771F881F1F
:102BF000C2F70EC0BA0F621F731F841F48F4879577
:102C000077956795B795F7959E3F08F0B3CF939565
:102C1000880F08F09927EE0F97958795089504D0AF
:102C20006894B111B5C0089598D088F09F5790F07E
:102C3000B92F9927B751A0F0D1F0660F771F881FE1
:102C4000991F1AF0BA95C9F712C0B13081F09FD020
:102C5000B1E008959CC0672F782F8827B85F39F0BE
:102C6000B93FCCF3869577956795B395D9F73EF440
:102C700090958095709561957F4F8F4F9F4F0895E8
:102C8000E89409C097FB3EF4909580957095619506
:102C90007F4F8F4F9F4F9923A9F0F92F96E9BB27BC
:102CA0009395F695879577956795B795F111F8CF38
:102CB000FAF4BB0F11F460FF1BC06F5F7F4F8F4FA3
:102CC0009F4F16C0882311F096E911C0772321F099
:102CD0009EE8872F762F05C0662371F096E8862F31
:102CE00070E060E02AF09A95660F771F881FDAF788
:102CF000880F9695879597F9089597F99F6780E8CB
:102D000070E060E008959FEF80EC089500240A943D
:102D10001616170618060906089500240A941216B6
:102D20001306140605060895092E0394000C11F4E9
:102D3000882352F0BB0F40F4BF2B11F460FF04C096
:102D40006F5F7F4F8F4F9F4F089557FD9058440FEF
:102D5000551F59F05F3F71F04795880F97FB991FFA
:102D600061F09F3F79F087950895121613061406B7
:102D7000551FF2CF4695F1DF08C016161706180644
:102D8000991FF1CF86957105610508940895E8941F
:102D9000BB2766277727CB0197F908950BD0C4CFBF
:102DA000B5DF28F0BADF18F0952309F0A6CFABCF36
:102DB0001124EECFCADFA0F3959FD1F3950F50E019
:102DC000551F629FF001729FBB27F00DB11D639FDD
:102DD000AA27F00DB11DAA1F649F6627B00DA11D83
:102DE000661F829F2227B00DA11D621F739FB00D29
:102DF000A11D621F839FA00D611D221F749F332799
:102E0000A00D611D231F849F600D211D822F762F31
:102E10006A2F11249F5750408AF0E1F088234AF02E
:102E2000EE0FFF1FBB1F661F771F881F915050407A
:102E3000A9F79E3F510570F060CFAACF5F3FECF33A
:102E4000983EDCF3869577956795B795F795E79566
:102E50009F5FC1F7FE2B880F911D9695879597F977
:102E600008959F9305D00F9007FCEE5F31C04BCFC4
:102E700074DFE8F3E894EFEFBB273FE048EC5FE74F
:102E80006B3D73078407950708F1FF279F57B25AD8
:102E90006A4D7F40894CF04032F4BE556542704F18
:102EA0008643FF4F0894EE1F915030F0BB0F661F12
:102EB000771F881FFF1FEBCF9EE7882332F0BB0FE1
:102EC000661F771F881F9A95C1F79395E09511C0EB
:102ED000EF93E0FF06C0A2EA2AED3FE049EC5FEB8A
:102EE0004BDE22DF0F90039401FC9058E8E6F0E0FF
:102EF00010C09F3F49F0915028F4869577956795CB
:102F0000B7959F5F80389F4F880F9695879597F963
:102F100008959F938F937F936F93FF93EF939B01FC
:102F2000AC013CDFEF91FF9105D02F913F914F9184
:102F30005F9134CFDF93CF931F930F93FF92EF9264
:102F4000DF927B018C01689405C0DA2EEF0132DF3D
:102F5000FE01E894A5912591359145915591AEF3E7
:102F6000EF010ADEFE019701A801DA9479F7DF90FC
:102F7000EF90FF900F911F91CF91DF910895629F85
:102F8000D001739FF001829FE00DF11D649FE00D61
:102F9000F11D929FF00D839FF00D749FF00D659FC2
:102FA000F00D9927729FB00DE11DF91F639FB00DC1
:102FB000E11DF91FBD01CF0111240895AA1BBB1B00
:102FC00051E107C0AA1FBB1FA617B70710F0A61B29
:102FD000B70B881F991F5A95A9F780959095BC014A
:102FE000CD01089597FB092E07260AD077FD04D05E
:102FF000E5DF06D000201AF4709561957F4F0895A3
:10300000F6F7909581959F4F0895A1E21A2EAA1B7D
:10301000BB1BFD010DC0AA1FBB1FEE1FFF1FA21788
:10302000B307E407F50720F0A21BB30BE40BF50B85
:10303000661F771F881F991F1A9469F7609570950E
:10304000809590959B01AC01BD01CF01089597FB40
:10305000092E05260ED057FD04D0D7DF0AD0001C5C
:1030600038F450954095309521953F4F4F4F5F4F25
:103070000895F6F790958095709561957F4F8F4FE5
:103080009F4F0895EE0FFF1F0590F491E02D0994D6
:04309000F894FFCFE2
:103094004D657272790A004368726973746D617365
:1030A4000A004C4F4144455200010100000000A1B8
:0430B40009B9140042
:00000001FF
